{
  "contracts/trade-farming/TradeFarmingAVAX.sol": {
    "TradeFarmingAVAX": {
      "abi": [
        {
          "inputs": [
            {
              "internalType": "address",
              "name": "_routerAddress",
              "type": "address"
            },
            {
              "internalType": "address",
              "name": "_tokenAddress",
              "type": "address"
            },
            {
              "internalType": "address",
              "name": "_rewardAddress",
              "type": "address"
            },
            {
              "internalType": "uint256",
              "name": "_previousVolume",
              "type": "uint256"
            },
            {
              "internalType": "uint256",
              "name": "_previousDay",
              "type": "uint256"
            },
            {
              "internalType": "uint256",
              "name": "_totalDays",
              "type": "uint256"
            },
            {
              "internalType": "uint256",
              "name": "_upLimit",
              "type": "uint256"
            },
            {
              "internalType": "uint256",
              "name": "_downLimit",
              "type": "uint256"
            }
          ],
          "stateMutability": "nonpayable",
          "type": "constructor"
        },
        {
          "anonymous": false,
          "inputs": [
            {
              "indexed": true,
              "internalType": "address",
              "name": "previousOwner",
              "type": "address"
            },
            {
              "indexed": true,
              "internalType": "address",
              "name": "newOwner",
              "type": "address"
            }
          ],
          "name": "OwnershipTransferred",
          "type": "event"
        },
        {
          "anonymous": false,
          "inputs": [
            {
              "indexed": false,
              "internalType": "address",
              "name": "_user",
              "type": "address"
            },
            {
              "indexed": false,
              "internalType": "uint256",
              "name": "_amount",
              "type": "uint256"
            }
          ],
          "name": "RewardClaimed",
          "type": "event"
        },
        {
          "inputs": [],
          "name": "calcDay",
          "outputs": [
            {
              "internalType": "uint256",
              "name": "",
              "type": "uint256"
            }
          ],
          "stateMutability": "view",
          "type": "function"
        },
        {
          "inputs": [
            {
              "internalType": "uint256",
              "name": "day",
              "type": "uint256"
            }
          ],
          "name": "calculateDailyUserReward",
          "outputs": [
            {
              "internalType": "uint256",
              "name": "",
              "type": "uint256"
            }
          ],
          "stateMutability": "view",
          "type": "function"
        },
        {
          "inputs": [],
          "name": "calculateUserRewards",
          "outputs": [
            {
              "internalType": "uint256",
              "name": "",
              "type": "uint256"
            }
          ],
          "stateMutability": "view",
          "type": "function"
        },
        {
          "inputs": [
            {
              "internalType": "uint256",
              "name": "newTotalDays",
              "type": "uint256"
            }
          ],
          "name": "changeTotalDays",
          "outputs": [],
          "stateMutability": "nonpayable",
          "type": "function"
        },
        {
          "inputs": [],
          "name": "claimAllRewards",
          "outputs": [],
          "stateMutability": "nonpayable",
          "type": "function"
        },
        {
          "inputs": [
            {
              "internalType": "uint256",
              "name": "",
              "type": "uint256"
            }
          ],
          "name": "dailyRewards",
          "outputs": [
            {
              "internalType": "uint256",
              "name": "",
              "type": "uint256"
            }
          ],
          "stateMutability": "view",
          "type": "function"
        },
        {
          "inputs": [
            {
              "internalType": "uint256",
              "name": "",
              "type": "uint256"
            }
          ],
          "name": "dailyVolumes",
          "outputs": [
            {
              "internalType": "uint256",
              "name": "",
              "type": "uint256"
            }
          ],
          "stateMutability": "view",
          "type": "function"
        },
        {
          "inputs": [],
          "name": "deployTime",
          "outputs": [
            {
              "internalType": "uint256",
              "name": "",
              "type": "uint256"
            }
          ],
          "stateMutability": "view",
          "type": "function"
        },
        {
          "inputs": [
            {
              "internalType": "uint256",
              "name": "amount",
              "type": "uint256"
            }
          ],
          "name": "depositRewardTokens",
          "outputs": [],
          "stateMutability": "nonpayable",
          "type": "function"
        },
        {
          "inputs": [
            {
              "internalType": "uint256",
              "name": "amountOut",
              "type": "uint256"
            },
            {
              "internalType": "address[]",
              "name": "path",
              "type": "address[]"
            }
          ],
          "name": "getAmountsIn",
          "outputs": [
            {
              "internalType": "uint256[]",
              "name": "amounts",
              "type": "uint256[]"
            }
          ],
          "stateMutability": "view",
          "type": "function"
        },
        {
          "inputs": [
            {
              "internalType": "uint256",
              "name": "amountIn",
              "type": "uint256"
            },
            {
              "internalType": "address[]",
              "name": "path",
              "type": "address[]"
            }
          ],
          "name": "getAmountsOut",
          "outputs": [
            {
              "internalType": "uint256[]",
              "name": "amounts",
              "type": "uint256[]"
            }
          ],
          "stateMutability": "view",
          "type": "function"
        },
        {
          "inputs": [],
          "name": "isCalculated",
          "outputs": [
            {
              "internalType": "bool",
              "name": "",
              "type": "bool"
            }
          ],
          "stateMutability": "view",
          "type": "function"
        },
        {
          "inputs": [],
          "name": "owner",
          "outputs": [
            {
              "internalType": "address",
              "name": "",
              "type": "address"
            }
          ],
          "stateMutability": "view",
          "type": "function"
        },
        {
          "inputs": [
            {
              "internalType": "uint256",
              "name": "",
              "type": "uint256"
            }
          ],
          "name": "previousVolumes",
          "outputs": [
            {
              "internalType": "uint256",
              "name": "",
              "type": "uint256"
            }
          ],
          "stateMutability": "view",
          "type": "function"
        },
        {
          "inputs": [],
          "name": "renounceOwnership",
          "outputs": [],
          "stateMutability": "nonpayable",
          "type": "function"
        },
        {
          "inputs": [
            {
              "internalType": "uint256",
              "name": "amountOut",
              "type": "uint256"
            },
            {
              "internalType": "address[]",
              "name": "path",
              "type": "address[]"
            },
            {
              "internalType": "address",
              "name": "to",
              "type": "address"
            },
            {
              "internalType": "uint256",
              "name": "deadline",
              "type": "uint256"
            }
          ],
          "name": "swapAVAXForExactTokens",
          "outputs": [
            {
              "internalType": "uint256[]",
              "name": "",
              "type": "uint256[]"
            }
          ],
          "stateMutability": "payable",
          "type": "function"
        },
        {
          "inputs": [
            {
              "internalType": "uint256",
              "name": "amountOutMin",
              "type": "uint256"
            },
            {
              "internalType": "address[]",
              "name": "path",
              "type": "address[]"
            },
            {
              "internalType": "address",
              "name": "to",
              "type": "address"
            },
            {
              "internalType": "uint256",
              "name": "deadline",
              "type": "uint256"
            }
          ],
          "name": "swapExactAVAXForTokens",
          "outputs": [
            {
              "internalType": "uint256[]",
              "name": "out",
              "type": "uint256[]"
            }
          ],
          "stateMutability": "payable",
          "type": "function"
        },
        {
          "inputs": [
            {
              "internalType": "uint256",
              "name": "amountIn",
              "type": "uint256"
            },
            {
              "internalType": "uint256",
              "name": "amountOutMin",
              "type": "uint256"
            },
            {
              "internalType": "address[]",
              "name": "path",
              "type": "address[]"
            },
            {
              "internalType": "address",
              "name": "to",
              "type": "address"
            },
            {
              "internalType": "uint256",
              "name": "deadline",
              "type": "uint256"
            }
          ],
          "name": "swapExactTokensForAVAX",
          "outputs": [
            {
              "internalType": "uint256[]",
              "name": "",
              "type": "uint256[]"
            }
          ],
          "stateMutability": "nonpayable",
          "type": "function"
        },
        {
          "inputs": [
            {
              "internalType": "uint256",
              "name": "amountOut",
              "type": "uint256"
            },
            {
              "internalType": "uint256",
              "name": "amountInMax",
              "type": "uint256"
            },
            {
              "internalType": "address[]",
              "name": "path",
              "type": "address[]"
            },
            {
              "internalType": "address",
              "name": "to",
              "type": "address"
            },
            {
              "internalType": "uint256",
              "name": "deadline",
              "type": "uint256"
            }
          ],
          "name": "swapTokensForExactAVAX",
          "outputs": [
            {
              "internalType": "uint256[]",
              "name": "out",
              "type": "uint256[]"
            }
          ],
          "stateMutability": "nonpayable",
          "type": "function"
        },
        {
          "inputs": [],
          "name": "totalDays",
          "outputs": [
            {
              "internalType": "uint256",
              "name": "",
              "type": "uint256"
            }
          ],
          "stateMutability": "view",
          "type": "function"
        },
        {
          "inputs": [],
          "name": "totalRewardBalance",
          "outputs": [
            {
              "internalType": "uint256",
              "name": "",
              "type": "uint256"
            }
          ],
          "stateMutability": "view",
          "type": "function"
        },
        {
          "inputs": [
            {
              "internalType": "address",
              "name": "newOwner",
              "type": "address"
            }
          ],
          "name": "transferOwnership",
          "outputs": [],
          "stateMutability": "nonpayable",
          "type": "function"
        },
        {
          "inputs": [
            {
              "internalType": "address",
              "name": "",
              "type": "address"
            },
            {
              "internalType": "uint256",
              "name": "",
              "type": "uint256"
            }
          ],
          "name": "volumeRecords",
          "outputs": [
            {
              "internalType": "uint256",
              "name": "",
              "type": "uint256"
            }
          ],
          "stateMutability": "view",
          "type": "function"
        },
        {
          "inputs": [
            {
              "internalType": "uint256",
              "name": "amount",
              "type": "uint256"
            }
          ],
          "name": "withdrawRewardTokens",
          "outputs": [],
          "stateMutability": "nonpayable",
          "type": "function"
        }
      ],
      "evm": {
        "bytecode": {
          "linkReferences": {},
          "object": "60e060405260006009556000600c553480156200001b57600080fd5b5060405162004ded38038062004ded8339818101604052810190620000419190620003fb565b62000061620000556200028a60201b60201c565b6200029260201b60201c565b426080818152505087600160006101000a81548173ffffffffffffffffffffffffffffffffffffffff021916908373ffffffffffffffffffffffffffffffffffffffff16021790555086600260006101000a81548173ffffffffffffffffffffffffffffffffffffffff021916908373ffffffffffffffffffffffffffffffffffffffff16021790555085600360006101000a81548173ffffffffffffffffffffffffffffffffffffffff021916908373ffffffffffffffffffffffffffffffffffffffff16021790555084600460008081526020019081526020016000208190555083600b8190555082600a81905550600160009054906101000a900473ffffffffffffffffffffffffffffffffffffffff1673ffffffffffffffffffffffffffffffffffffffff166373b295c26040518163ffffffff1660e01b8152600401602060405180830381865afa158015620001c0573d6000803e3d6000fd5b505050506040513d601f19601f82011682018060405250810190620001e69190620004c4565b600d60006101000a81548173ffffffffffffffffffffffffffffffffffffffff021916908373ffffffffffffffffffffffffffffffffffffffff160217905550606482670de0b6b3a76400006200023e919062000525565b6200024a9190620005b5565b60a08181525050606481670de0b6b3a764000062000269919062000525565b620002759190620005b5565b60c081815250505050505050505050620005ed565b600033905090565b60008060009054906101000a900473ffffffffffffffffffffffffffffffffffffffff169050816000806101000a81548173ffffffffffffffffffffffffffffffffffffffff021916908373ffffffffffffffffffffffffffffffffffffffff1602179055508173ffffffffffffffffffffffffffffffffffffffff168173ffffffffffffffffffffffffffffffffffffffff167f8be0079c531659141344cd1fd0a4f28419497f9722a3daafe3b4186f6b6457e060405160405180910390a35050565b600080fd5b600073ffffffffffffffffffffffffffffffffffffffff82169050919050565b600062000388826200035b565b9050919050565b6200039a816200037b565b8114620003a657600080fd5b50565b600081519050620003ba816200038f565b92915050565b6000819050919050565b620003d581620003c0565b8114620003e157600080fd5b50565b600081519050620003f581620003ca565b92915050565b600080600080600080600080610100898b0312156200041f576200041e62000356565b5b60006200042f8b828c01620003a9565b9850506020620004428b828c01620003a9565b9750506040620004558b828c01620003a9565b9650506060620004688b828c01620003e4565b95505060806200047b8b828c01620003e4565b94505060a06200048e8b828c01620003e4565b93505060c0620004a18b828c01620003e4565b92505060e0620004b48b828c01620003e4565b9150509295985092959890939650565b600060208284031215620004dd57620004dc62000356565b5b6000620004ed84828501620003a9565b91505092915050565b7f4e487b7100000000000000000000000000000000000000000000000000000000600052601160045260246000fd5b60006200053282620003c0565b91506200053f83620003c0565b9250817fffffffffffffffffffffffffffffffffffffffffffffffffffffffffffffffff04831182151516156200057b576200057a620004f6565b5b828202905092915050565b7f4e487b7100000000000000000000000000000000000000000000000000000000600052601260045260246000fd5b6000620005c282620003c0565b9150620005cf83620003c0565b925082620005e257620005e162000586565b5b828204905092915050565b60805160a05160c05161479f6200064e60003960008181611f7d01528181611fa5015281816129f60152612a1e015260008181611f1b01528181611f430152818161299401526129bc015260008181610ec301526113e4015261479f6000f3fe60806040526004361061014b5760003560e01c80637e2ca288116100b6578063b203dc601161006f578063b203dc60146104a0578063cb43b2dd146104dd578063ceb7f99514610506578063d06ca61f14610543578063de2af4b014610580578063f2fde38b146105ab5761014b565b80637e2ca288146103705780638a657e671461039b5780638da5cb5b146103cb578063940ce872146103f657806394f5578914610433578063a2a1623d146104705761014b565b80636572ca0c116101085780636572ca0c14610260578063676528d11461028b578063715018a6146102c857806378fb427a146102df5780637a40624b146103085780637a42416a146103335761014b565b8063078e36491461015057806307a779bc1461017b5780630b83a727146101a657806316c621e0146101bd5780631f00ca74146101e65780631f924d8614610223575b600080fd5b34801561015c57600080fd5b506101656105d4565b604051610172919061356f565b60405180910390f35b34801561018757600080fd5b506101906105da565b60405161019d919061356f565b60405180910390f35b3480156101b257600080fd5b506101bb610851565b005b3480156101c957600080fd5b506101e460048036038101906101df91906135ca565b610d0d565b005b3480156101f257600080fd5b5061020d6004803603810190610208919061365c565b610df4565b60405161021a919061377a565b60405180910390f35b34801561022f57600080fd5b5061024a600480360381019061024591906135ca565b610ea4565b604051610257919061356f565b60405180910390f35b34801561026c57600080fd5b50610275610ebc565b604051610282919061356f565b60405180910390f35b34801561029757600080fd5b506102b260048036038101906102ad91906137fa565b610efc565b6040516102bf919061377a565b60405180910390f35b3480156102d457600080fd5b506102dd6112d4565b005b3480156102eb57600080fd5b50610306600480360381019061030191906135ca565b61135c565b005b34801561031457600080fd5b5061031d6113e2565b60405161032a919061356f565b60405180910390f35b34801561033f57600080fd5b5061035a600480360381019061035591906137fa565b611406565b604051610367919061377a565b60405180910390f35b34801561037c57600080fd5b50610385611928565b604051610392919061356f565b60405180910390f35b6103b560048036038101906103b09190613894565b61192e565b6040516103c2919061377a565b60405180910390f35b3480156103d757600080fd5b506103e0611da9565b6040516103ed919061392b565b60405180910390f35b34801561040257600080fd5b5061041d60048036038101906104189190613946565b611dd2565b60405161042a919061356f565b60405180910390f35b34801561043f57600080fd5b5061045a600480360381019061045591906135ca565b611df7565b604051610467919061356f565b60405180910390f35b61048a60048036038101906104859190613894565b612029565b604051610497919061377a565b60405180910390f35b3480156104ac57600080fd5b506104c760048036038101906104c291906135ca565b6123ab565b6040516104d4919061356f565b60405180910390f35b3480156104e957600080fd5b5061050460048036038101906104ff91906135ca565b6123c3565b005b34801561051257600080fd5b5061052d600480360381019061052891906135ca565b6124ed565b60405161053a919061356f565b60405180910390f35b34801561054f57600080fd5b5061056a6004803603810190610565919061365c565b612505565b604051610577919061377a565b60405180910390f35b34801561058c57600080fd5b506105956125b5565b6040516105a291906139a1565b60405180910390f35b3480156105b757600080fd5b506105d260048036038101906105cd91906139bc565b6125f4565b005b600a5481565b600080600090506000670de0b6b3a7640000905060005b610638600860003373ffffffffffffffffffffffffffffffffffffffff1673ffffffffffffffffffffffffffffffffffffffff1681526020019081526020016000206126ec565b81101561084857600c5461069382600860003373ffffffffffffffffffffffffffffffffffffffff1673ffffffffffffffffffffffffffffffffffffffff16815260200190815260200160002061270190919063ffffffff16565b1015610835576107af600560003373ffffffffffffffffffffffffffffffffffffffff1673ffffffffffffffffffffffffffffffffffffffff168152602001908152602001600020600061072e84600860003373ffffffffffffffffffffffffffffffffffffffff1673ffffffffffffffffffffffffffffffffffffffff16815260200190815260200160002061270190919063ffffffff16565b815260200190815260200160002054670de0b6b3a76400006006600061079b86600860003373ffffffffffffffffffffffffffffffffffffffff1673ffffffffffffffffffffffffffffffffffffffff16815260200190815260200160002061270190919063ffffffff16565b81526020019081526020016000205461271b565b9150610827826007600061080a85600860003373ffffffffffffffffffffffffffffffffffffffff1673ffffffffffffffffffffffffffffffffffffffff16815260200190815260200160002061270190919063ffffffff16565b815260200190815260200160002054670de0b6b3a764000061271b565b836108329190613a18565b92505b808061084090613a6e565b9150506105f1565b50819250505090565b610859610ebc565b6001600c546108689190613a18565b1115801561087a5750600a54600c5414155b15610888576108876128bc565b5b600080670de0b6b3a7640000905060006108df600860003373ffffffffffffffffffffffffffffffffffffffff1673ffffffffffffffffffffffffffffffffffffffff1681526020019081526020016000206126ec565b905060008167ffffffffffffffff8111156108fd576108fc613ab7565b5b60405190808252806020026020018201604052801561092b5781602001602082028036833780820191505090505b50905060005b82811015610bb257600c5461098d82600860003373ffffffffffffffffffffffffffffffffffffffff1673ffffffffffffffffffffffffffffffffffffffff16815260200190815260200160002061270190919063ffffffff16565b1015610b9f57610aa9600560003373ffffffffffffffffffffffffffffffffffffffff1673ffffffffffffffffffffffffffffffffffffffff1681526020019081526020016000206000610a2884600860003373ffffffffffffffffffffffffffffffffffffffff1673ffffffffffffffffffffffffffffffffffffffff16815260200190815260200160002061270190919063ffffffff16565b815260200190815260200160002054670de0b6b3a764000060066000610a9586600860003373ffffffffffffffffffffffffffffffffffffffff1673ffffffffffffffffffffffffffffffffffffffff16815260200190815260200160002061270190919063ffffffff16565b81526020019081526020016000205461271b565b9350610b218460076000610b0485600860003373ffffffffffffffffffffffffffffffffffffffff1673ffffffffffffffffffffffffffffffffffffffff16815260200190815260200160002061270190919063ffffffff16565b815260200190815260200160002054670de0b6b3a764000061271b565b85610b2c9190613a18565b9450610b7f81600860003373ffffffffffffffffffffffffffffffffffffffff1673ffffffffffffffffffffffffffffffffffffffff16815260200190815260200160002061270190919063ffffffff16565b828281518110610b9257610b91613ae6565b5b6020026020010181815250505b8080610baa90613a6e565b915050610931565b5060005b82811015610c3d57610c29828281518110610bd457610bd3613ae6565b5b6020026020010151600860003373ffffffffffffffffffffffffffffffffffffffff1673ffffffffffffffffffffffffffffffffffffffff168152602001908152602001600020612b4f90919063ffffffff16565b508080610c3590613a6e565b915050610bb6565b5060008411610c81576040517f08c379a0000000000000000000000000000000000000000000000000000000008152600401610c7890613b72565b60405180910390fd5b610cce3385600360009054906101000a900473ffffffffffffffffffffffffffffffffffffffff1673ffffffffffffffffffffffffffffffffffffffff16612b699092919063ffffffff16565b7f106f923f993c2149d49b4255ff723acafa1f2d94393f561d3eda32ae348f72413385604051610cff929190613b92565b60405180910390a150505050565b610d15612bef565b73ffffffffffffffffffffffffffffffffffffffff16610d33611da9565b73ffffffffffffffffffffffffffffffffffffffff1614610d89576040517f08c379a0000000000000000000000000000000000000000000000000000000008152600401610d8090613c07565b60405180910390fd5b8060096000828254610d9b9190613a18565b92505081905550610df1333083600360009054906101000a900473ffffffffffffffffffffffffffffffffffffffff1673ffffffffffffffffffffffffffffffffffffffff16612bf7909392919063ffffffff16565b50565b6060600160009054906101000a900473ffffffffffffffffffffffffffffffffffffffff1673ffffffffffffffffffffffffffffffffffffffff16631f00ca748585856040518463ffffffff1660e01b8152600401610e5593929190613cea565b600060405180830381865afa158015610e72573d6000803e3d6000fd5b505050506040513d6000823e3d601f19601f82011682018060405250810190610e9b9190613e51565b90509392505050565b60066020528060005260406000206000915090505481565b600061a8c07f000000000000000000000000000000000000000000000000000000000000000042610eed9190613e9a565b610ef79190613efd565b905090565b6060600d60009054906101000a900473ffffffffffffffffffffffffffffffffffffffff1673ffffffffffffffffffffffffffffffffffffffff168585600188889050610f499190613e9a565b818110610f5957610f58613ae6565b5b9050602002016020810190610f6e91906139bc565b73ffffffffffffffffffffffffffffffffffffffff1614610fc4576040517f08c379a0000000000000000000000000000000000000000000000000000000008152600401610fbb90613fa0565b60405180910390fd5b600260009054906101000a900473ffffffffffffffffffffffffffffffffffffffff1673ffffffffffffffffffffffffffffffffffffffff168585600081811061101157611010613ae6565b5b905060200201602081019061102691906139bc565b73ffffffffffffffffffffffffffffffffffffffff161461107c576040517f08c379a000000000000000000000000000000000000000000000000000000000815260040161107390613fa0565b60405180910390fd5b6110d4611087610ebc565b600860003373ffffffffffffffffffffffffffffffffffffffff1673ffffffffffffffffffffffffffffffffffffffff168152602001908152602001600020612c8090919063ffffffff16565b1580156110e95750600a546110e7610ebc565b105b15611148576111466110f9610ebc565b600860003373ffffffffffffffffffffffffffffffffffffffff1673ffffffffffffffffffffffffffffffffffffffff168152602001908152602001600020612c9a90919063ffffffff16565b505b611197333089600260009054906101000a900473ffffffffffffffffffffffffffffffffffffffff1673ffffffffffffffffffffffffffffffffffffffff16612bf7909392919063ffffffff16565b611206600160009054906101000a900473ffffffffffffffffffffffffffffffffffffffff1688600260009054906101000a900473ffffffffffffffffffffffffffffffffffffffff1673ffffffffffffffffffffffffffffffffffffffff16612cb49092919063ffffffff16565b600a54600c541461121b5761121a87612dc6565b5b600160009054906101000a900473ffffffffffffffffffffffffffffffffffffffff1673ffffffffffffffffffffffffffffffffffffffff1663676528d18888888888886040518763ffffffff1660e01b815260040161128096959493929190613fc0565b6000604051808303816000875af115801561129f573d6000803e3d6000fd5b505050506040513d6000823e3d601f19601f820116820180604052508101906112c89190613e51565b90509695505050505050565b6112dc612bef565b73ffffffffffffffffffffffffffffffffffffffff166112fa611da9565b73ffffffffffffffffffffffffffffffffffffffff1614611350576040517f08c379a000000000000000000000000000000000000000000000000000000000815260040161134790613c07565b60405180910390fd5b61135a6000612eb1565b565b611364612bef565b73ffffffffffffffffffffffffffffffffffffffff16611382611da9565b73ffffffffffffffffffffffffffffffffffffffff16146113d8576040517f08c379a00000000000000000000000000000000000000000000000000000000081526004016113cf90613c07565b60405180910390fd5b80600a8190555050565b7f000000000000000000000000000000000000000000000000000000000000000081565b6060600d60009054906101000a900473ffffffffffffffffffffffffffffffffffffffff1673ffffffffffffffffffffffffffffffffffffffff1685856001888890506114539190613e9a565b81811061146357611462613ae6565b5b905060200201602081019061147891906139bc565b73ffffffffffffffffffffffffffffffffffffffff16146114ce576040517f08c379a00000000000000000000000000000000000000000000000000000000081526004016114c590613fa0565b60405180910390fd5b600260009054906101000a900473ffffffffffffffffffffffffffffffffffffffff1673ffffffffffffffffffffffffffffffffffffffff168585600081811061151b5761151a613ae6565b5b905060200201602081019061153091906139bc565b73ffffffffffffffffffffffffffffffffffffffff1614611586576040517f08c379a000000000000000000000000000000000000000000000000000000000815260040161157d90613fa0565b60405180910390fd5b6115de611591610ebc565b600860003373ffffffffffffffffffffffffffffffffffffffff1673ffffffffffffffffffffffffffffffffffffffff168152602001908152602001600020612c8090919063ffffffff16565b1580156115f35750600a546115f1610ebc565b105b1561165257611650611603610ebc565b600860003373ffffffffffffffffffffffffffffffffffffffff1673ffffffffffffffffffffffffffffffffffffffff168152602001908152602001600020612c9a90919063ffffffff16565b505b6117603330600160009054906101000a900473ffffffffffffffffffffffffffffffffffffffff1673ffffffffffffffffffffffffffffffffffffffff16631f00ca748b8a8a6040518463ffffffff1660e01b81526004016116b693929190613cea565b600060405180830381865afa1580156116d3573d6000803e3d6000fd5b505050506040513d6000823e3d601f19601f820116820180604052508101906116fc9190613e51565b60008151811061170f5761170e613ae6565b5b6020026020010151600260009054906101000a900473ffffffffffffffffffffffffffffffffffffffff1673ffffffffffffffffffffffffffffffffffffffff16612bf7909392919063ffffffff16565b6117cf600160009054906101000a900473ffffffffffffffffffffffffffffffffffffffff1687600260009054906101000a900473ffffffffffffffffffffffffffffffffffffffff1673ffffffffffffffffffffffffffffffffffffffff16612cb49092919063ffffffff16565b600160009054906101000a900473ffffffffffffffffffffffffffffffffffffffff1673ffffffffffffffffffffffffffffffffffffffff16637a42416a8888888888886040518763ffffffff1660e01b815260040161183496959493929190613fc0565b6000604051808303816000875af1158015611853573d6000803e3d6000fd5b505050506040513d6000823e3d601f19601f8201168201806040525081019061187c9190613e51565b9050600a54600c54146118ae576118ad816000815181106118a05761189f613ae6565b5b6020026020010151612dc6565b5b61191e600160009054906101000a900473ffffffffffffffffffffffffffffffffffffffff166000600260009054906101000a900473ffffffffffffffffffffffffffffffffffffffff1673ffffffffffffffffffffffffffffffffffffffff16612f759092919063ffffffff16565b9695505050505050565b60095481565b6060600d60009054906101000a900473ffffffffffffffffffffffffffffffffffffffff1673ffffffffffffffffffffffffffffffffffffffff168585600081811061197d5761197c613ae6565b5b905060200201602081019061199291906139bc565b73ffffffffffffffffffffffffffffffffffffffff16146119e8576040517f08c379a00000000000000000000000000000000000000000000000000000000081526004016119df90613fa0565b60405180910390fd5b600260009054906101000a900473ffffffffffffffffffffffffffffffffffffffff1673ffffffffffffffffffffffffffffffffffffffff168585600188889050611a339190613e9a565b818110611a4357611a42613ae6565b5b9050602002016020810190611a5891906139bc565b73ffffffffffffffffffffffffffffffffffffffff1614611aae576040517f08c379a0000000000000000000000000000000000000000000000000000000008152600401611aa590613fa0565b60405180910390fd5b6000600160009054906101000a900473ffffffffffffffffffffffffffffffffffffffff1673ffffffffffffffffffffffffffffffffffffffff16631f00ca748888886040518463ffffffff1660e01b8152600401611b0f93929190613cea565b600060405180830381865afa158015611b2c573d6000803e3d6000fd5b505050506040513d6000823e3d601f19601f82011682018060405250810190611b559190613e51565b600081518110611b6857611b67613ae6565b5b6020026020010151905080341015611bb5576040517f08c379a0000000000000000000000000000000000000000000000000000000008152600401611bac9061408e565b60405180910390fd5b611c0d611bc0610ebc565b600860003373ffffffffffffffffffffffffffffffffffffffff1673ffffffffffffffffffffffffffffffffffffffff168152602001908152602001600020612c8090919063ffffffff16565b158015611c225750600a54611c20610ebc565b105b15611c8157611c7f611c32610ebc565b600860003373ffffffffffffffffffffffffffffffffffffffff1673ffffffffffffffffffffffffffffffffffffffff168152602001908152602001600020612c9a90919063ffffffff16565b505b600a54600c5414611c9657611c9587612dc6565b5b80341115611cf1573373ffffffffffffffffffffffffffffffffffffffff166108fc8234611cc49190613e9a565b9081150290604051600060405180830381858888f19350505050158015611cef573d6000803e3d6000fd5b505b600160009054906101000a900473ffffffffffffffffffffffffffffffffffffffff1673ffffffffffffffffffffffffffffffffffffffff16638a657e678289898989896040518763ffffffff1660e01b8152600401611d559594939291906140ae565b60006040518083038185885af1158015611d73573d6000803e3d6000fd5b50505050506040513d6000823e3d601f19601f82011682018060405250810190611d9d9190613e51565b91505095945050505050565b60008060009054906101000a900473ffffffffffffffffffffffffffffffffffffffff16905090565b6005602052816000526040600020602052806000526040600020600091509150505481565b600080600090506000670de0b6b3a76400009050611e5c84600860003373ffffffffffffffffffffffffffffffffffffffff1673ffffffffffffffffffffffffffffffffffffffff168152602001908152602001600020612c8090919063ffffffff16565b1561201f57611ed7600560003373ffffffffffffffffffffffffffffffffffffffff1673ffffffffffffffffffffffffffffffffffffffff168152602001908152602001600020600086815260200190815260200160002054670de0b6b3a7640000600660008881526020019081526020016000205461271b565b90506000600c54851015611f005760076000868152602001908152602001600020549050611ffd565b600c54851415611ffc576000611f17600c546130c4565b90507f0000000000000000000000000000000000000000000000000000000000000000811115611f69577f00000000000000000000000000000000000000000000000000000000000000009050611fc9565b6000811415611f7b5760009050611fc8565b7f0000000000000000000000000000000000000000000000000000000000000000811015611fc7577f000000000000000000000000000000000000000000000000000000000000000090505b5b5b611ff8600c54600a54611fdc9190613e9a565b600954611fe99190613efd565b82670de0b6b3a764000061271b565b9150505b5b6120108282670de0b6b3a764000061271b565b8361201b9190613a18565b9250505b8192505050919050565b6060600d60009054906101000a900473ffffffffffffffffffffffffffffffffffffffff1673ffffffffffffffffffffffffffffffffffffffff168585600081811061207857612077613ae6565b5b905060200201602081019061208d91906139bc565b73ffffffffffffffffffffffffffffffffffffffff16146120e3576040517f08c379a00000000000000000000000000000000000000000000000000000000081526004016120da90613fa0565b60405180910390fd5b600260009054906101000a900473ffffffffffffffffffffffffffffffffffffffff1673ffffffffffffffffffffffffffffffffffffffff16858560018888905061212e9190613e9a565b81811061213e5761213d613ae6565b5b905060200201602081019061215391906139bc565b73ffffffffffffffffffffffffffffffffffffffff16146121a9576040517f08c379a00000000000000000000000000000000000000000000000000000000081526004016121a090613fa0565b60405180910390fd5b600034116121ec576040517f08c379a00000000000000000000000000000000000000000000000000000000081526004016121e39061416e565b60405180910390fd5b6122446121f7610ebc565b600860003373ffffffffffffffffffffffffffffffffffffffff1673ffffffffffffffffffffffffffffffffffffffff168152602001908152602001600020612c8090919063ffffffff16565b1580156122595750600a54612257610ebc565b105b156122b8576122b6612269610ebc565b600860003373ffffffffffffffffffffffffffffffffffffffff1673ffffffffffffffffffffffffffffffffffffffff168152602001908152602001600020612c9a90919063ffffffff16565b505b600160009054906101000a900473ffffffffffffffffffffffffffffffffffffffff1673ffffffffffffffffffffffffffffffffffffffff1663a2a1623d3488888888886040518763ffffffff1660e01b815260040161231c9594939291906140ae565b60006040518083038185885af115801561233a573d6000803e3d6000fd5b50505050506040513d6000823e3d601f19601f820116820180604052508101906123649190613e51565b9050600a54600c54146123a2576123a181600183516123839190613e9a565b8151811061239457612393613ae6565b5b6020026020010151612dc6565b5b95945050505050565b60076020528060005260406000206000915090505481565b6123cb612bef565b73ffffffffffffffffffffffffffffffffffffffff166123e9611da9565b73ffffffffffffffffffffffffffffffffffffffff161461243f576040517f08c379a000000000000000000000000000000000000000000000000000000000815260040161243690613c07565b60405180910390fd5b806009541015612484576040517f08c379a000000000000000000000000000000000000000000000000000000000815260040161247b90614200565b60405180910390fd5b80600960008282546124969190613e9a565b925050819055506124ea3382600360009054906101000a900473ffffffffffffffffffffffffffffffffffffffff1673ffffffffffffffffffffffffffffffffffffffff16612b699092919063ffffffff16565b50565b60046020528060005260406000206000915090505481565b6060600160009054906101000a900473ffffffffffffffffffffffffffffffffffffffff1673ffffffffffffffffffffffffffffffffffffffff1663d06ca61f8585856040518463ffffffff1660e01b815260040161256693929190613cea565b600060405180830381865afa158015612583573d6000803e3d6000fd5b505050506040513d6000823e3d601f19601f820116820180604052508101906125ac9190613e51565b90509392505050565b60006125bf610ebc565b6001600c546125ce9190613a18565b111580156125e05750600a54600c5414155b15806125ef5750600a54600c54145b905090565b6125fc612bef565b73ffffffffffffffffffffffffffffffffffffffff1661261a611da9565b73ffffffffffffffffffffffffffffffffffffffff1614612670576040517f08c379a000000000000000000000000000000000000000000000000000000000815260040161266790613c07565b60405180910390fd5b600073ffffffffffffffffffffffffffffffffffffffff168173ffffffffffffffffffffffffffffffffffffffff1614156126e0576040517f08c379a00000000000000000000000000000000000000000000000000000000081526004016126d790614292565b60405180910390fd5b6126e981612eb1565b50565b60006126fa82600001613106565b9050919050565b60006127108360000183613117565b60001c905092915050565b600080821161272957600080fd5b600080600019858709858702925082811083820303915050600081141561275657838204925050506128b5565b83811061276257600080fd5b60008486880990508281118203915080830392506000600186196127869190613a18565b8616905080860495508084049350600181826000030401905080836127ab91906142b2565b84179350600060028760036127c091906142b2565b18905080876127cf91906142b2565b60026127db9190613e9a565b816127e691906142b2565b905080876127f491906142b2565b60026128009190613e9a565b8161280b91906142b2565b9050808761281991906142b2565b60026128259190613e9a565b8161283091906142b2565b9050808761283e91906142b2565b600261284a9190613e9a565b8161285591906142b2565b9050808761286391906142b2565b600261286f9190613e9a565b8161287a91906142b2565b9050808761288891906142b2565b60026128949190613e9a565b8161289f91906142b2565b905080856128ad91906142b2565b955050505050505b9392505050565b60006128c6610ebc565b905060006001600c54600b546128dc9190613a18565b6128e69190613a18565b9050816001600c546128f89190613a18565b11156129075761290661430c565b5b8060066000600c548152602001908152602001600020546129289190613efd565b61295460046000600c5481526020019081526020016000205460018461294e9190613e9a565b8461271b565b61295e9190613a18565b600460006001600c546129719190613a18565b8152602001908152602001600020819055506000612990600c546130c4565b90507f00000000000000000000000000000000000000000000000000000000000000008111156129e2577f00000000000000000000000000000000000000000000000000000000000000009050612a42565b60008114156129f45760009050612a41565b7f0000000000000000000000000000000000000000000000000000000000000000811015612a40577f000000000000000000000000000000000000000000000000000000000000000090505b5b5b6001600a54612a519190613e9a565b600c54148015612a685750670de0b6b3a764000081115b15612a8e5760095460076000600c54815260200190815260200160002081905550612ad7565b612abd600c54600a54612aa19190613e9a565b600954612aae9190613efd565b82670de0b6b3a764000061271b565b60076000600c548152602001908152602001600020819055505b60076000600c54815260200190815260200160002054600954612afa9190613e9a565b6009819055506001600c6000828254612b139190613a18565b92505081905550826001600c54612b2a9190613a18565b11158015612b3c5750600a54600c5414155b15612b4a57612b496128bc565b5b505050565b6000612b61836000018360001b613142565b905092915050565b612bea8363a9059cbb60e01b8484604051602401612b88929190613b92565b604051602081830303815290604052907bffffffffffffffffffffffffffffffffffffffffffffffffffffffff19166020820180517bffffffffffffffffffffffffffffffffffffffffffffffffffffffff8381831617835250505050613256565b505050565b600033905090565b612c7a846323b872dd60e01b858585604051602401612c189392919061433b565b604051602081830303815290604052907bffffffffffffffffffffffffffffffffffffffffffffffffffffffff19166020820180517bffffffffffffffffffffffffffffffffffffffffffffffffffffffff8381831617835250505050613256565b50505050565b6000612c92836000018360001b61331d565b905092915050565b6000612cac836000018360001b613340565b905092915050565b6000818473ffffffffffffffffffffffffffffffffffffffff1663dd62ed3e30866040518363ffffffff1660e01b8152600401612cf2929190614372565b602060405180830381865afa158015612d0f573d6000803e3d6000fd5b505050506040513d601f19601f82011682018060405250810190612d33919061439b565b612d3d9190613a18565b9050612dc08463095ea7b360e01b8584604051602401612d5e929190613b92565b604051602081830303815290604052907bffffffffffffffffffffffffffffffffffffffffffffffffffffffff19166020820180517bffffffffffffffffffffffffffffffffffffffffffffffffffffffff8381831617835250505050613256565b50505050565b600a54612dd1610ebc565b1015612e775780600560003373ffffffffffffffffffffffffffffffffffffffff1673ffffffffffffffffffffffffffffffffffffffff1681526020019081526020016000206000612e21610ebc565b81526020019081526020016000206000828254612e3e9190613a18565b925050819055508060066000612e52610ebc565b81526020019081526020016000206000828254612e6f9190613a18565b925050819055505b612e7f610ebc565b6001600c54612e8e9190613a18565b11158015612ea05750600a54600c5414155b15612eae57612ead6128bc565b5b50565b60008060009054906101000a900473ffffffffffffffffffffffffffffffffffffffff169050816000806101000a81548173ffffffffffffffffffffffffffffffffffffffff021916908373ffffffffffffffffffffffffffffffffffffffff1602179055508173ffffffffffffffffffffffffffffffffffffffff168173ffffffffffffffffffffffffffffffffffffffff167f8be0079c531659141344cd1fd0a4f28419497f9722a3daafe3b4186f6b6457e060405160405180910390a35050565b6000811480612fff575060008373ffffffffffffffffffffffffffffffffffffffff1663dd62ed3e30856040518363ffffffff1660e01b8152600401612fbc929190614372565b602060405180830381865afa158015612fd9573d6000803e3d6000fd5b505050506040513d601f19601f82011682018060405250810190612ffd919061439b565b145b61303e576040517f08c379a00000000000000000000000000000000000000000000000000000000081526004016130359061443a565b60405180910390fd5b6130bf8363095ea7b360e01b848460405160240161305d929190613b92565b604051602081830303815290604052907bffffffffffffffffffffffffffffffffffffffffffffffffffffffff19166020820180517bffffffffffffffffffffffffffffffffffffffffffffffffffffffff8381831617835250505050613256565b505050565b60006130ff6006600084815260200190815260200160002054670de0b6b3a7640000600460008681526020019081526020016000205461271b565b9050919050565b600081600001805490509050919050565b600082600001828154811061312f5761312e613ae6565b5b9060005260206000200154905092915050565b6000808360010160008481526020019081526020016000205490506000811461324a5760006001826131749190613e9a565b905060006001866000018054905061318c9190613e9a565b90508181146131fb5760008660000182815481106131ad576131ac613ae6565b5b90600052602060002001549050808760000184815481106131d1576131d0613ae6565b5b90600052602060002001819055508387600101600083815260200190815260200160002081905550505b8560000180548061320f5761320e61445a565b5b600190038181906000526020600020016000905590558560010160008681526020019081526020016000206000905560019350505050613250565b60009150505b92915050565b60006132b8826040518060400160405280602081526020017f5361666545524332303a206c6f772d6c6576656c2063616c6c206661696c65648152508573ffffffffffffffffffffffffffffffffffffffff166133b09092919063ffffffff16565b905060008151111561331857808060200190518101906132d891906144b5565b613317576040517f08c379a000000000000000000000000000000000000000000000000000000000815260040161330e90614554565b60405180910390fd5b5b505050565b600080836001016000848152602001908152602001600020541415905092915050565b600061334c838361331d565b6133a55782600001829080600181540180825580915050600190039060005260206000200160009091909190915055826000018054905083600101600084815260200190815260200160002081905550600190506133aa565b600090505b92915050565b60606133bf84846000856133c8565b90509392505050565b60608247101561340d576040517f08c379a0000000000000000000000000000000000000000000000000000000008152600401613404906145e6565b60405180910390fd5b613416856134dc565b613455576040517f08c379a000000000000000000000000000000000000000000000000000000000815260040161344c90614652565b60405180910390fd5b6000808673ffffffffffffffffffffffffffffffffffffffff16858760405161347e91906146ec565b60006040518083038185875af1925050503d80600081146134bb576040519150601f19603f3d011682016040523d82523d6000602084013e6134c0565b606091505b50915091506134d08282866134ef565b92505050949350505050565b600080823b905060008111915050919050565b606083156134ff5782905061354f565b6000835111156135125782518084602001fd5b816040517f08c379a00000000000000000000000000000000000000000000000000000000081526004016135469190614747565b60405180910390fd5b9392505050565b6000819050919050565b61356981613556565b82525050565b60006020820190506135846000830184613560565b92915050565b6000604051905090565b600080fd5b600080fd5b6135a781613556565b81146135b257600080fd5b50565b6000813590506135c48161359e565b92915050565b6000602082840312156135e0576135df613594565b5b60006135ee848285016135b5565b91505092915050565b600080fd5b600080fd5b600080fd5b60008083601f84011261361c5761361b6135f7565b5b8235905067ffffffffffffffff811115613639576136386135fc565b5b60208301915083602082028301111561365557613654613601565b5b9250929050565b60008060006040848603121561367557613674613594565b5b6000613683868287016135b5565b935050602084013567ffffffffffffffff8111156136a4576136a3613599565b5b6136b086828701613606565b92509250509250925092565b600081519050919050565b600082825260208201905092915050565b6000819050602082019050919050565b6136f181613556565b82525050565b600061370383836136e8565b60208301905092915050565b6000602082019050919050565b6000613727826136bc565b61373181856136c7565b935061373c836136d8565b8060005b8381101561376d57815161375488826136f7565b975061375f8361370f565b925050600181019050613740565b5085935050505092915050565b60006020820190508181036000830152613794818461371c565b905092915050565b600073ffffffffffffffffffffffffffffffffffffffff82169050919050565b60006137c78261379c565b9050919050565b6137d7816137bc565b81146137e257600080fd5b50565b6000813590506137f4816137ce565b92915050565b60008060008060008060a0878903121561381757613816613594565b5b600061382589828a016135b5565b965050602061383689828a016135b5565b955050604087013567ffffffffffffffff81111561385757613856613599565b5b61386389828a01613606565b9450945050606061387689828a016137e5565b925050608061388789828a016135b5565b9150509295509295509295565b6000806000806000608086880312156138b0576138af613594565b5b60006138be888289016135b5565b955050602086013567ffffffffffffffff8111156138df576138de613599565b5b6138eb88828901613606565b945094505060406138fe888289016137e5565b925050606061390f888289016135b5565b9150509295509295909350565b613925816137bc565b82525050565b6000602082019050613940600083018461391c565b92915050565b6000806040838503121561395d5761395c613594565b5b600061396b858286016137e5565b925050602061397c858286016135b5565b9150509250929050565b60008115159050919050565b61399b81613986565b82525050565b60006020820190506139b66000830184613992565b92915050565b6000602082840312156139d2576139d1613594565b5b60006139e0848285016137e5565b91505092915050565b7f4e487b7100000000000000000000000000000000000000000000000000000000600052601160045260246000fd5b6000613a2382613556565b9150613a2e83613556565b9250827fffffffffffffffffffffffffffffffffffffffffffffffffffffffffffffffff03821115613a6357613a626139e9565b5b828201905092915050565b6000613a7982613556565b91507fffffffffffffffffffffffffffffffffffffffffffffffffffffffffffffffff821415613aac57613aab6139e9565b5b600182019050919050565b7f4e487b7100000000000000000000000000000000000000000000000000000000600052604160045260246000fd5b7f4e487b7100000000000000000000000000000000000000000000000000000000600052603260045260246000fd5b600082825260208201905092915050565b7f5b636c61696d416c6c526577617264735d204e6f207265776172642100000000600082015250565b6000613b5c601c83613b15565b9150613b6782613b26565b602082019050919050565b60006020820190508181036000830152613b8b81613b4f565b9050919050565b6000604082019050613ba7600083018561391c565b613bb46020830184613560565b9392505050565b7f4f776e61626c653a2063616c6c6572206973206e6f7420746865206f776e6572600082015250565b6000613bf1602083613b15565b9150613bfc82613bbb565b602082019050919050565b60006020820190508181036000830152613c2081613be4565b9050919050565b600082825260208201905092915050565b6000819050919050565b613c4b816137bc565b82525050565b6000613c5d8383613c42565b60208301905092915050565b6000613c7860208401846137e5565b905092915050565b6000602082019050919050565b6000613c998385613c27565b9350613ca482613c38565b8060005b85811015613cdd57613cba8284613c69565b613cc48882613c51565b9750613ccf83613c80565b925050600181019050613ca8565b5085925050509392505050565b6000604082019050613cff6000830186613560565b8181036020830152613d12818486613c8d565b9050949350505050565b6000601f19601f8301169050919050565b613d3682613d1c565b810181811067ffffffffffffffff82111715613d5557613d54613ab7565b5b80604052505050565b6000613d6861358a565b9050613d748282613d2d565b919050565b600067ffffffffffffffff821115613d9457613d93613ab7565b5b602082029050602081019050919050565b600081519050613db48161359e565b92915050565b6000613dcd613dc884613d79565b613d5e565b90508083825260208201905060208402830185811115613df057613def613601565b5b835b81811015613e195780613e058882613da5565b845260208401935050602081019050613df2565b5050509392505050565b600082601f830112613e3857613e376135f7565b5b8151613e48848260208601613dba565b91505092915050565b600060208284031215613e6757613e66613594565b5b600082015167ffffffffffffffff811115613e8557613e84613599565b5b613e9184828501613e23565b91505092915050565b6000613ea582613556565b9150613eb083613556565b925082821015613ec357613ec26139e9565b5b828203905092915050565b7f4e487b7100000000000000000000000000000000000000000000000000000000600052601260045260246000fd5b6000613f0882613556565b9150613f1383613556565b925082613f2357613f22613ece565b5b828204905092915050565b7f5b73776170457861637441564158466f72546f6b656e735d20496e76616c696460008201527f2070617468210000000000000000000000000000000000000000000000000000602082015250565b6000613f8a602683613b15565b9150613f9582613f2e565b604082019050919050565b60006020820190508181036000830152613fb981613f7d565b9050919050565b600060a082019050613fd56000830189613560565b613fe26020830188613560565b8181036040830152613ff5818688613c8d565b9050614004606083018561391c565b6140116080830184613560565b979650505050505050565b7f5b7377617041564158466f724578616374546f6b656e735d204e6f7420656e6f60008201527f756768206d73672e76616c756521000000000000000000000000000000000000602082015250565b6000614078602e83613b15565b91506140838261401c565b604082019050919050565b600060208201905081810360008301526140a78161406b565b9050919050565b60006080820190506140c36000830188613560565b81810360208301526140d6818688613c8d565b90506140e5604083018561391c565b6140f26060830184613560565b9695505050505050565b7f5b73776170457861637441564158466f72546f6b656e735d204e6f742061206d60008201527f73672e76616c7565210000000000000000000000000000000000000000000000602082015250565b6000614158602983613b15565b9150614163826140fc565b604082019050919050565b600060208201905081810360008301526141878161414b565b9050919050565b7f5b7769746864726177526577617264546f6b656e735d204e6f7420656e6f756760008201527f682062616c616e63652100000000000000000000000000000000000000000000602082015250565b60006141ea602a83613b15565b91506141f58261418e565b604082019050919050565b60006020820190508181036000830152614219816141dd565b9050919050565b7f4f776e61626c653a206e6577206f776e657220697320746865207a65726f206160008201527f6464726573730000000000000000000000000000000000000000000000000000602082015250565b600061427c602683613b15565b915061428782614220565b604082019050919050565b600060208201905081810360008301526142ab8161426f565b9050919050565b60006142bd82613556565b91506142c883613556565b9250817fffffffffffffffffffffffffffffffffffffffffffffffffffffffffffffffff0483118215151615614301576143006139e9565b5b828202905092915050565b7f4e487b7100000000000000000000000000000000000000000000000000000000600052600160045260246000fd5b6000606082019050614350600083018661391c565b61435d602083018561391c565b61436a6040830184613560565b949350505050565b6000604082019050614387600083018561391c565b614394602083018461391c565b9392505050565b6000602082840312156143b1576143b0613594565b5b60006143bf84828501613da5565b91505092915050565b7f5361666545524332303a20617070726f76652066726f6d206e6f6e2d7a65726f60008201527f20746f206e6f6e2d7a65726f20616c6c6f77616e636500000000000000000000602082015250565b6000614424603683613b15565b915061442f826143c8565b604082019050919050565b6000602082019050818103600083015261445381614417565b9050919050565b7f4e487b7100000000000000000000000000000000000000000000000000000000600052603160045260246000fd5b61449281613986565b811461449d57600080fd5b50565b6000815190506144af81614489565b92915050565b6000602082840312156144cb576144ca613594565b5b60006144d9848285016144a0565b91505092915050565b7f5361666545524332303a204552433230206f7065726174696f6e20646964206e60008201527f6f74207375636365656400000000000000000000000000000000000000000000602082015250565b600061453e602a83613b15565b9150614549826144e2565b604082019050919050565b6000602082019050818103600083015261456d81614531565b9050919050565b7f416464726573733a20696e73756666696369656e742062616c616e636520666f60008201527f722063616c6c0000000000000000000000000000000000000000000000000000602082015250565b60006145d0602683613b15565b91506145db82614574565b604082019050919050565b600060208201905081810360008301526145ff816145c3565b9050919050565b7f416464726573733a2063616c6c20746f206e6f6e2d636f6e7472616374000000600082015250565b600061463c601d83613b15565b915061464782614606565b602082019050919050565b6000602082019050818103600083015261466b8161462f565b9050919050565b600081519050919050565b600081905092915050565b60005b838110156146a657808201518184015260208101905061468b565b838111156146b5576000848401525b50505050565b60006146c682614672565b6146d0818561467d565b93506146e0818560208601614688565b80840191505092915050565b60006146f882846146bb565b915081905092915050565b600081519050919050565b600061471982614703565b6147238185613b15565b9350614733818560208601614688565b61473c81613d1c565b840191505092915050565b60006020820190508181036000830152614761818461470e565b90509291505056fea26469706673582212208179dffea580c586568d1402b1f95aab45b6f915ba3d25796f8e279a2ea51ec964736f6c634300080b0033",
          "opcodes": "PUSH1 0xE0 PUSH1 0x40 MSTORE PUSH1 0x0 PUSH1 0x9 SSTORE PUSH1 0x0 PUSH1 0xC SSTORE CALLVALUE DUP1 ISZERO PUSH3 0x1B JUMPI PUSH1 0x0 DUP1 REVERT JUMPDEST POP PUSH1 0x40 MLOAD PUSH3 0x4DED CODESIZE SUB DUP1 PUSH3 0x4DED DUP4 CODECOPY DUP2 DUP2 ADD PUSH1 0x40 MSTORE DUP2 ADD SWAP1 PUSH3 0x41 SWAP2 SWAP1 PUSH3 0x3FB JUMP JUMPDEST PUSH3 0x61 PUSH3 0x55 PUSH3 0x28A PUSH1 0x20 SHL PUSH1 0x20 SHR JUMP JUMPDEST PUSH3 0x292 PUSH1 0x20 SHL PUSH1 0x20 SHR JUMP JUMPDEST TIMESTAMP PUSH1 0x80 DUP2 DUP2 MSTORE POP POP DUP8 PUSH1 0x1 PUSH1 0x0 PUSH2 0x100 EXP DUP2 SLOAD DUP2 PUSH20 0xFFFFFFFFFFFFFFFFFFFFFFFFFFFFFFFFFFFFFFFF MUL NOT AND SWAP1 DUP4 PUSH20 0xFFFFFFFFFFFFFFFFFFFFFFFFFFFFFFFFFFFFFFFF AND MUL OR SWAP1 SSTORE POP DUP7 PUSH1 0x2 PUSH1 0x0 PUSH2 0x100 EXP DUP2 SLOAD DUP2 PUSH20 0xFFFFFFFFFFFFFFFFFFFFFFFFFFFFFFFFFFFFFFFF MUL NOT AND SWAP1 DUP4 PUSH20 0xFFFFFFFFFFFFFFFFFFFFFFFFFFFFFFFFFFFFFFFF AND MUL OR SWAP1 SSTORE POP DUP6 PUSH1 0x3 PUSH1 0x0 PUSH2 0x100 EXP DUP2 SLOAD DUP2 PUSH20 0xFFFFFFFFFFFFFFFFFFFFFFFFFFFFFFFFFFFFFFFF MUL NOT AND SWAP1 DUP4 PUSH20 0xFFFFFFFFFFFFFFFFFFFFFFFFFFFFFFFFFFFFFFFF AND MUL OR SWAP1 SSTORE POP DUP5 PUSH1 0x4 PUSH1 0x0 DUP1 DUP2 MSTORE PUSH1 0x20 ADD SWAP1 DUP2 MSTORE PUSH1 0x20 ADD PUSH1 0x0 KECCAK256 DUP2 SWAP1 SSTORE POP DUP4 PUSH1 0xB DUP2 SWAP1 SSTORE POP DUP3 PUSH1 0xA DUP2 SWAP1 SSTORE POP PUSH1 0x1 PUSH1 0x0 SWAP1 SLOAD SWAP1 PUSH2 0x100 EXP SWAP1 DIV PUSH20 0xFFFFFFFFFFFFFFFFFFFFFFFFFFFFFFFFFFFFFFFF AND PUSH20 0xFFFFFFFFFFFFFFFFFFFFFFFFFFFFFFFFFFFFFFFF AND PUSH4 0x73B295C2 PUSH1 0x40 MLOAD DUP2 PUSH4 0xFFFFFFFF AND PUSH1 0xE0 SHL DUP2 MSTORE PUSH1 0x4 ADD PUSH1 0x20 PUSH1 0x40 MLOAD DUP1 DUP4 SUB DUP2 DUP7 GAS STATICCALL ISZERO DUP1 ISZERO PUSH3 0x1C0 JUMPI RETURNDATASIZE PUSH1 0x0 DUP1 RETURNDATACOPY RETURNDATASIZE PUSH1 0x0 REVERT JUMPDEST POP POP POP POP PUSH1 0x40 MLOAD RETURNDATASIZE PUSH1 0x1F NOT PUSH1 0x1F DUP3 ADD AND DUP3 ADD DUP1 PUSH1 0x40 MSTORE POP DUP2 ADD SWAP1 PUSH3 0x1E6 SWAP2 SWAP1 PUSH3 0x4C4 JUMP JUMPDEST PUSH1 0xD PUSH1 0x0 PUSH2 0x100 EXP DUP2 SLOAD DUP2 PUSH20 0xFFFFFFFFFFFFFFFFFFFFFFFFFFFFFFFFFFFFFFFF MUL NOT AND SWAP1 DUP4 PUSH20 0xFFFFFFFFFFFFFFFFFFFFFFFFFFFFFFFFFFFFFFFF AND MUL OR SWAP1 SSTORE POP PUSH1 0x64 DUP3 PUSH8 0xDE0B6B3A7640000 PUSH3 0x23E SWAP2 SWAP1 PUSH3 0x525 JUMP JUMPDEST PUSH3 0x24A SWAP2 SWAP1 PUSH3 0x5B5 JUMP JUMPDEST PUSH1 0xA0 DUP2 DUP2 MSTORE POP POP PUSH1 0x64 DUP2 PUSH8 0xDE0B6B3A7640000 PUSH3 0x269 SWAP2 SWAP1 PUSH3 0x525 JUMP JUMPDEST PUSH3 0x275 SWAP2 SWAP1 PUSH3 0x5B5 JUMP JUMPDEST PUSH1 0xC0 DUP2 DUP2 MSTORE POP POP POP POP POP POP POP POP POP POP PUSH3 0x5ED JUMP JUMPDEST PUSH1 0x0 CALLER SWAP1 POP SWAP1 JUMP JUMPDEST PUSH1 0x0 DUP1 PUSH1 0x0 SWAP1 SLOAD SWAP1 PUSH2 0x100 EXP SWAP1 DIV PUSH20 0xFFFFFFFFFFFFFFFFFFFFFFFFFFFFFFFFFFFFFFFF AND SWAP1 POP DUP2 PUSH1 0x0 DUP1 PUSH2 0x100 EXP DUP2 SLOAD DUP2 PUSH20 0xFFFFFFFFFFFFFFFFFFFFFFFFFFFFFFFFFFFFFFFF MUL NOT AND SWAP1 DUP4 PUSH20 0xFFFFFFFFFFFFFFFFFFFFFFFFFFFFFFFFFFFFFFFF AND MUL OR SWAP1 SSTORE POP DUP2 PUSH20 0xFFFFFFFFFFFFFFFFFFFFFFFFFFFFFFFFFFFFFFFF AND DUP2 PUSH20 0xFFFFFFFFFFFFFFFFFFFFFFFFFFFFFFFFFFFFFFFF AND PUSH32 0x8BE0079C531659141344CD1FD0A4F28419497F9722A3DAAFE3B4186F6B6457E0 PUSH1 0x40 MLOAD PUSH1 0x40 MLOAD DUP1 SWAP2 SUB SWAP1 LOG3 POP POP JUMP JUMPDEST PUSH1 0x0 DUP1 REVERT JUMPDEST PUSH1 0x0 PUSH20 0xFFFFFFFFFFFFFFFFFFFFFFFFFFFFFFFFFFFFFFFF DUP3 AND SWAP1 POP SWAP2 SWAP1 POP JUMP JUMPDEST PUSH1 0x0 PUSH3 0x388 DUP3 PUSH3 0x35B JUMP JUMPDEST SWAP1 POP SWAP2 SWAP1 POP JUMP JUMPDEST PUSH3 0x39A DUP2 PUSH3 0x37B JUMP JUMPDEST DUP2 EQ PUSH3 0x3A6 JUMPI PUSH1 0x0 DUP1 REVERT JUMPDEST POP JUMP JUMPDEST PUSH1 0x0 DUP2 MLOAD SWAP1 POP PUSH3 0x3BA DUP2 PUSH3 0x38F JUMP JUMPDEST SWAP3 SWAP2 POP POP JUMP JUMPDEST PUSH1 0x0 DUP2 SWAP1 POP SWAP2 SWAP1 POP JUMP JUMPDEST PUSH3 0x3D5 DUP2 PUSH3 0x3C0 JUMP JUMPDEST DUP2 EQ PUSH3 0x3E1 JUMPI PUSH1 0x0 DUP1 REVERT JUMPDEST POP JUMP JUMPDEST PUSH1 0x0 DUP2 MLOAD SWAP1 POP PUSH3 0x3F5 DUP2 PUSH3 0x3CA JUMP JUMPDEST SWAP3 SWAP2 POP POP JUMP JUMPDEST PUSH1 0x0 DUP1 PUSH1 0x0 DUP1 PUSH1 0x0 DUP1 PUSH1 0x0 DUP1 PUSH2 0x100 DUP10 DUP12 SUB SLT ISZERO PUSH3 0x41F JUMPI PUSH3 0x41E PUSH3 0x356 JUMP JUMPDEST JUMPDEST PUSH1 0x0 PUSH3 0x42F DUP12 DUP3 DUP13 ADD PUSH3 0x3A9 JUMP JUMPDEST SWAP9 POP POP PUSH1 0x20 PUSH3 0x442 DUP12 DUP3 DUP13 ADD PUSH3 0x3A9 JUMP JUMPDEST SWAP8 POP POP PUSH1 0x40 PUSH3 0x455 DUP12 DUP3 DUP13 ADD PUSH3 0x3A9 JUMP JUMPDEST SWAP7 POP POP PUSH1 0x60 PUSH3 0x468 DUP12 DUP3 DUP13 ADD PUSH3 0x3E4 JUMP JUMPDEST SWAP6 POP POP PUSH1 0x80 PUSH3 0x47B DUP12 DUP3 DUP13 ADD PUSH3 0x3E4 JUMP JUMPDEST SWAP5 POP POP PUSH1 0xA0 PUSH3 0x48E DUP12 DUP3 DUP13 ADD PUSH3 0x3E4 JUMP JUMPDEST SWAP4 POP POP PUSH1 0xC0 PUSH3 0x4A1 DUP12 DUP3 DUP13 ADD PUSH3 0x3E4 JUMP JUMPDEST SWAP3 POP POP PUSH1 0xE0 PUSH3 0x4B4 DUP12 DUP3 DUP13 ADD PUSH3 0x3E4 JUMP JUMPDEST SWAP2 POP POP SWAP3 SWAP6 SWAP9 POP SWAP3 SWAP6 SWAP9 SWAP1 SWAP4 SWAP7 POP JUMP JUMPDEST PUSH1 0x0 PUSH1 0x20 DUP3 DUP5 SUB SLT ISZERO PUSH3 0x4DD JUMPI PUSH3 0x4DC PUSH3 0x356 JUMP JUMPDEST JUMPDEST PUSH1 0x0 PUSH3 0x4ED DUP5 DUP3 DUP6 ADD PUSH3 0x3A9 JUMP JUMPDEST SWAP2 POP POP SWAP3 SWAP2 POP POP JUMP JUMPDEST PUSH32 0x4E487B7100000000000000000000000000000000000000000000000000000000 PUSH1 0x0 MSTORE PUSH1 0x11 PUSH1 0x4 MSTORE PUSH1 0x24 PUSH1 0x0 REVERT JUMPDEST PUSH1 0x0 PUSH3 0x532 DUP3 PUSH3 0x3C0 JUMP JUMPDEST SWAP2 POP PUSH3 0x53F DUP4 PUSH3 0x3C0 JUMP JUMPDEST SWAP3 POP DUP2 PUSH32 0xFFFFFFFFFFFFFFFFFFFFFFFFFFFFFFFFFFFFFFFFFFFFFFFFFFFFFFFFFFFFFFFF DIV DUP4 GT DUP3 ISZERO ISZERO AND ISZERO PUSH3 0x57B JUMPI PUSH3 0x57A PUSH3 0x4F6 JUMP JUMPDEST JUMPDEST DUP3 DUP3 MUL SWAP1 POP SWAP3 SWAP2 POP POP JUMP JUMPDEST PUSH32 0x4E487B7100000000000000000000000000000000000000000000000000000000 PUSH1 0x0 MSTORE PUSH1 0x12 PUSH1 0x4 MSTORE PUSH1 0x24 PUSH1 0x0 REVERT JUMPDEST PUSH1 0x0 PUSH3 0x5C2 DUP3 PUSH3 0x3C0 JUMP JUMPDEST SWAP2 POP PUSH3 0x5CF DUP4 PUSH3 0x3C0 JUMP JUMPDEST SWAP3 POP DUP3 PUSH3 0x5E2 JUMPI PUSH3 0x5E1 PUSH3 0x586 JUMP JUMPDEST JUMPDEST DUP3 DUP3 DIV SWAP1 POP SWAP3 SWAP2 POP POP JUMP JUMPDEST PUSH1 0x80 MLOAD PUSH1 0xA0 MLOAD PUSH1 0xC0 MLOAD PUSH2 0x479F PUSH3 0x64E PUSH1 0x0 CODECOPY PUSH1 0x0 DUP2 DUP2 PUSH2 0x1F7D ADD MSTORE DUP2 DUP2 PUSH2 0x1FA5 ADD MSTORE DUP2 DUP2 PUSH2 0x29F6 ADD MSTORE PUSH2 0x2A1E ADD MSTORE PUSH1 0x0 DUP2 DUP2 PUSH2 0x1F1B ADD MSTORE DUP2 DUP2 PUSH2 0x1F43 ADD MSTORE DUP2 DUP2 PUSH2 0x2994 ADD MSTORE PUSH2 0x29BC ADD MSTORE PUSH1 0x0 DUP2 DUP2 PUSH2 0xEC3 ADD MSTORE PUSH2 0x13E4 ADD MSTORE PUSH2 0x479F PUSH1 0x0 RETURN INVALID PUSH1 0x80 PUSH1 0x40 MSTORE PUSH1 0x4 CALLDATASIZE LT PUSH2 0x14B JUMPI PUSH1 0x0 CALLDATALOAD PUSH1 0xE0 SHR DUP1 PUSH4 0x7E2CA288 GT PUSH2 0xB6 JUMPI DUP1 PUSH4 0xB203DC60 GT PUSH2 0x6F JUMPI DUP1 PUSH4 0xB203DC60 EQ PUSH2 0x4A0 JUMPI DUP1 PUSH4 0xCB43B2DD EQ PUSH2 0x4DD JUMPI DUP1 PUSH4 0xCEB7F995 EQ PUSH2 0x506 JUMPI DUP1 PUSH4 0xD06CA61F EQ PUSH2 0x543 JUMPI DUP1 PUSH4 0xDE2AF4B0 EQ PUSH2 0x580 JUMPI DUP1 PUSH4 0xF2FDE38B EQ PUSH2 0x5AB JUMPI PUSH2 0x14B JUMP JUMPDEST DUP1 PUSH4 0x7E2CA288 EQ PUSH2 0x370 JUMPI DUP1 PUSH4 0x8A657E67 EQ PUSH2 0x39B JUMPI DUP1 PUSH4 0x8DA5CB5B EQ PUSH2 0x3CB JUMPI DUP1 PUSH4 0x940CE872 EQ PUSH2 0x3F6 JUMPI DUP1 PUSH4 0x94F55789 EQ PUSH2 0x433 JUMPI DUP1 PUSH4 0xA2A1623D EQ PUSH2 0x470 JUMPI PUSH2 0x14B JUMP JUMPDEST DUP1 PUSH4 0x6572CA0C GT PUSH2 0x108 JUMPI DUP1 PUSH4 0x6572CA0C EQ PUSH2 0x260 JUMPI DUP1 PUSH4 0x676528D1 EQ PUSH2 0x28B JUMPI DUP1 PUSH4 0x715018A6 EQ PUSH2 0x2C8 JUMPI DUP1 PUSH4 0x78FB427A EQ PUSH2 0x2DF JUMPI DUP1 PUSH4 0x7A40624B EQ PUSH2 0x308 JUMPI DUP1 PUSH4 0x7A42416A EQ PUSH2 0x333 JUMPI PUSH2 0x14B JUMP JUMPDEST DUP1 PUSH4 0x78E3649 EQ PUSH2 0x150 JUMPI DUP1 PUSH4 0x7A779BC EQ PUSH2 0x17B JUMPI DUP1 PUSH4 0xB83A727 EQ PUSH2 0x1A6 JUMPI DUP1 PUSH4 0x16C621E0 EQ PUSH2 0x1BD JUMPI DUP1 PUSH4 0x1F00CA74 EQ PUSH2 0x1E6 JUMPI DUP1 PUSH4 0x1F924D86 EQ PUSH2 0x223 JUMPI JUMPDEST PUSH1 0x0 DUP1 REVERT JUMPDEST CALLVALUE DUP1 ISZERO PUSH2 0x15C JUMPI PUSH1 0x0 DUP1 REVERT JUMPDEST POP PUSH2 0x165 PUSH2 0x5D4 JUMP JUMPDEST PUSH1 0x40 MLOAD PUSH2 0x172 SWAP2 SWAP1 PUSH2 0x356F JUMP JUMPDEST PUSH1 0x40 MLOAD DUP1 SWAP2 SUB SWAP1 RETURN JUMPDEST CALLVALUE DUP1 ISZERO PUSH2 0x187 JUMPI PUSH1 0x0 DUP1 REVERT JUMPDEST POP PUSH2 0x190 PUSH2 0x5DA JUMP JUMPDEST PUSH1 0x40 MLOAD PUSH2 0x19D SWAP2 SWAP1 PUSH2 0x356F JUMP JUMPDEST PUSH1 0x40 MLOAD DUP1 SWAP2 SUB SWAP1 RETURN JUMPDEST CALLVALUE DUP1 ISZERO PUSH2 0x1B2 JUMPI PUSH1 0x0 DUP1 REVERT JUMPDEST POP PUSH2 0x1BB PUSH2 0x851 JUMP JUMPDEST STOP JUMPDEST CALLVALUE DUP1 ISZERO PUSH2 0x1C9 JUMPI PUSH1 0x0 DUP1 REVERT JUMPDEST POP PUSH2 0x1E4 PUSH1 0x4 DUP1 CALLDATASIZE SUB DUP2 ADD SWAP1 PUSH2 0x1DF SWAP2 SWAP1 PUSH2 0x35CA JUMP JUMPDEST PUSH2 0xD0D JUMP JUMPDEST STOP JUMPDEST CALLVALUE DUP1 ISZERO PUSH2 0x1F2 JUMPI PUSH1 0x0 DUP1 REVERT JUMPDEST POP PUSH2 0x20D PUSH1 0x4 DUP1 CALLDATASIZE SUB DUP2 ADD SWAP1 PUSH2 0x208 SWAP2 SWAP1 PUSH2 0x365C JUMP JUMPDEST PUSH2 0xDF4 JUMP JUMPDEST PUSH1 0x40 MLOAD PUSH2 0x21A SWAP2 SWAP1 PUSH2 0x377A JUMP JUMPDEST PUSH1 0x40 MLOAD DUP1 SWAP2 SUB SWAP1 RETURN JUMPDEST CALLVALUE DUP1 ISZERO PUSH2 0x22F JUMPI PUSH1 0x0 DUP1 REVERT JUMPDEST POP PUSH2 0x24A PUSH1 0x4 DUP1 CALLDATASIZE SUB DUP2 ADD SWAP1 PUSH2 0x245 SWAP2 SWAP1 PUSH2 0x35CA JUMP JUMPDEST PUSH2 0xEA4 JUMP JUMPDEST PUSH1 0x40 MLOAD PUSH2 0x257 SWAP2 SWAP1 PUSH2 0x356F JUMP JUMPDEST PUSH1 0x40 MLOAD DUP1 SWAP2 SUB SWAP1 RETURN JUMPDEST CALLVALUE DUP1 ISZERO PUSH2 0x26C JUMPI PUSH1 0x0 DUP1 REVERT JUMPDEST POP PUSH2 0x275 PUSH2 0xEBC JUMP JUMPDEST PUSH1 0x40 MLOAD PUSH2 0x282 SWAP2 SWAP1 PUSH2 0x356F JUMP JUMPDEST PUSH1 0x40 MLOAD DUP1 SWAP2 SUB SWAP1 RETURN JUMPDEST CALLVALUE DUP1 ISZERO PUSH2 0x297 JUMPI PUSH1 0x0 DUP1 REVERT JUMPDEST POP PUSH2 0x2B2 PUSH1 0x4 DUP1 CALLDATASIZE SUB DUP2 ADD SWAP1 PUSH2 0x2AD SWAP2 SWAP1 PUSH2 0x37FA JUMP JUMPDEST PUSH2 0xEFC JUMP JUMPDEST PUSH1 0x40 MLOAD PUSH2 0x2BF SWAP2 SWAP1 PUSH2 0x377A JUMP JUMPDEST PUSH1 0x40 MLOAD DUP1 SWAP2 SUB SWAP1 RETURN JUMPDEST CALLVALUE DUP1 ISZERO PUSH2 0x2D4 JUMPI PUSH1 0x0 DUP1 REVERT JUMPDEST POP PUSH2 0x2DD PUSH2 0x12D4 JUMP JUMPDEST STOP JUMPDEST CALLVALUE DUP1 ISZERO PUSH2 0x2EB JUMPI PUSH1 0x0 DUP1 REVERT JUMPDEST POP PUSH2 0x306 PUSH1 0x4 DUP1 CALLDATASIZE SUB DUP2 ADD SWAP1 PUSH2 0x301 SWAP2 SWAP1 PUSH2 0x35CA JUMP JUMPDEST PUSH2 0x135C JUMP JUMPDEST STOP JUMPDEST CALLVALUE DUP1 ISZERO PUSH2 0x314 JUMPI PUSH1 0x0 DUP1 REVERT JUMPDEST POP PUSH2 0x31D PUSH2 0x13E2 JUMP JUMPDEST PUSH1 0x40 MLOAD PUSH2 0x32A SWAP2 SWAP1 PUSH2 0x356F JUMP JUMPDEST PUSH1 0x40 MLOAD DUP1 SWAP2 SUB SWAP1 RETURN JUMPDEST CALLVALUE DUP1 ISZERO PUSH2 0x33F JUMPI PUSH1 0x0 DUP1 REVERT JUMPDEST POP PUSH2 0x35A PUSH1 0x4 DUP1 CALLDATASIZE SUB DUP2 ADD SWAP1 PUSH2 0x355 SWAP2 SWAP1 PUSH2 0x37FA JUMP JUMPDEST PUSH2 0x1406 JUMP JUMPDEST PUSH1 0x40 MLOAD PUSH2 0x367 SWAP2 SWAP1 PUSH2 0x377A JUMP JUMPDEST PUSH1 0x40 MLOAD DUP1 SWAP2 SUB SWAP1 RETURN JUMPDEST CALLVALUE DUP1 ISZERO PUSH2 0x37C JUMPI PUSH1 0x0 DUP1 REVERT JUMPDEST POP PUSH2 0x385 PUSH2 0x1928 JUMP JUMPDEST PUSH1 0x40 MLOAD PUSH2 0x392 SWAP2 SWAP1 PUSH2 0x356F JUMP JUMPDEST PUSH1 0x40 MLOAD DUP1 SWAP2 SUB SWAP1 RETURN JUMPDEST PUSH2 0x3B5 PUSH1 0x4 DUP1 CALLDATASIZE SUB DUP2 ADD SWAP1 PUSH2 0x3B0 SWAP2 SWAP1 PUSH2 0x3894 JUMP JUMPDEST PUSH2 0x192E JUMP JUMPDEST PUSH1 0x40 MLOAD PUSH2 0x3C2 SWAP2 SWAP1 PUSH2 0x377A JUMP JUMPDEST PUSH1 0x40 MLOAD DUP1 SWAP2 SUB SWAP1 RETURN JUMPDEST CALLVALUE DUP1 ISZERO PUSH2 0x3D7 JUMPI PUSH1 0x0 DUP1 REVERT JUMPDEST POP PUSH2 0x3E0 PUSH2 0x1DA9 JUMP JUMPDEST PUSH1 0x40 MLOAD PUSH2 0x3ED SWAP2 SWAP1 PUSH2 0x392B JUMP JUMPDEST PUSH1 0x40 MLOAD DUP1 SWAP2 SUB SWAP1 RETURN JUMPDEST CALLVALUE DUP1 ISZERO PUSH2 0x402 JUMPI PUSH1 0x0 DUP1 REVERT JUMPDEST POP PUSH2 0x41D PUSH1 0x4 DUP1 CALLDATASIZE SUB DUP2 ADD SWAP1 PUSH2 0x418 SWAP2 SWAP1 PUSH2 0x3946 JUMP JUMPDEST PUSH2 0x1DD2 JUMP JUMPDEST PUSH1 0x40 MLOAD PUSH2 0x42A SWAP2 SWAP1 PUSH2 0x356F JUMP JUMPDEST PUSH1 0x40 MLOAD DUP1 SWAP2 SUB SWAP1 RETURN JUMPDEST CALLVALUE DUP1 ISZERO PUSH2 0x43F JUMPI PUSH1 0x0 DUP1 REVERT JUMPDEST POP PUSH2 0x45A PUSH1 0x4 DUP1 CALLDATASIZE SUB DUP2 ADD SWAP1 PUSH2 0x455 SWAP2 SWAP1 PUSH2 0x35CA JUMP JUMPDEST PUSH2 0x1DF7 JUMP JUMPDEST PUSH1 0x40 MLOAD PUSH2 0x467 SWAP2 SWAP1 PUSH2 0x356F JUMP JUMPDEST PUSH1 0x40 MLOAD DUP1 SWAP2 SUB SWAP1 RETURN JUMPDEST PUSH2 0x48A PUSH1 0x4 DUP1 CALLDATASIZE SUB DUP2 ADD SWAP1 PUSH2 0x485 SWAP2 SWAP1 PUSH2 0x3894 JUMP JUMPDEST PUSH2 0x2029 JUMP JUMPDEST PUSH1 0x40 MLOAD PUSH2 0x497 SWAP2 SWAP1 PUSH2 0x377A JUMP JUMPDEST PUSH1 0x40 MLOAD DUP1 SWAP2 SUB SWAP1 RETURN JUMPDEST CALLVALUE DUP1 ISZERO PUSH2 0x4AC JUMPI PUSH1 0x0 DUP1 REVERT JUMPDEST POP PUSH2 0x4C7 PUSH1 0x4 DUP1 CALLDATASIZE SUB DUP2 ADD SWAP1 PUSH2 0x4C2 SWAP2 SWAP1 PUSH2 0x35CA JUMP JUMPDEST PUSH2 0x23AB JUMP JUMPDEST PUSH1 0x40 MLOAD PUSH2 0x4D4 SWAP2 SWAP1 PUSH2 0x356F JUMP JUMPDEST PUSH1 0x40 MLOAD DUP1 SWAP2 SUB SWAP1 RETURN JUMPDEST CALLVALUE DUP1 ISZERO PUSH2 0x4E9 JUMPI PUSH1 0x0 DUP1 REVERT JUMPDEST POP PUSH2 0x504 PUSH1 0x4 DUP1 CALLDATASIZE SUB DUP2 ADD SWAP1 PUSH2 0x4FF SWAP2 SWAP1 PUSH2 0x35CA JUMP JUMPDEST PUSH2 0x23C3 JUMP JUMPDEST STOP JUMPDEST CALLVALUE DUP1 ISZERO PUSH2 0x512 JUMPI PUSH1 0x0 DUP1 REVERT JUMPDEST POP PUSH2 0x52D PUSH1 0x4 DUP1 CALLDATASIZE SUB DUP2 ADD SWAP1 PUSH2 0x528 SWAP2 SWAP1 PUSH2 0x35CA JUMP JUMPDEST PUSH2 0x24ED JUMP JUMPDEST PUSH1 0x40 MLOAD PUSH2 0x53A SWAP2 SWAP1 PUSH2 0x356F JUMP JUMPDEST PUSH1 0x40 MLOAD DUP1 SWAP2 SUB SWAP1 RETURN JUMPDEST CALLVALUE DUP1 ISZERO PUSH2 0x54F JUMPI PUSH1 0x0 DUP1 REVERT JUMPDEST POP PUSH2 0x56A PUSH1 0x4 DUP1 CALLDATASIZE SUB DUP2 ADD SWAP1 PUSH2 0x565 SWAP2 SWAP1 PUSH2 0x365C JUMP JUMPDEST PUSH2 0x2505 JUMP JUMPDEST PUSH1 0x40 MLOAD PUSH2 0x577 SWAP2 SWAP1 PUSH2 0x377A JUMP JUMPDEST PUSH1 0x40 MLOAD DUP1 SWAP2 SUB SWAP1 RETURN JUMPDEST CALLVALUE DUP1 ISZERO PUSH2 0x58C JUMPI PUSH1 0x0 DUP1 REVERT JUMPDEST POP PUSH2 0x595 PUSH2 0x25B5 JUMP JUMPDEST PUSH1 0x40 MLOAD PUSH2 0x5A2 SWAP2 SWAP1 PUSH2 0x39A1 JUMP JUMPDEST PUSH1 0x40 MLOAD DUP1 SWAP2 SUB SWAP1 RETURN JUMPDEST CALLVALUE DUP1 ISZERO PUSH2 0x5B7 JUMPI PUSH1 0x0 DUP1 REVERT JUMPDEST POP PUSH2 0x5D2 PUSH1 0x4 DUP1 CALLDATASIZE SUB DUP2 ADD SWAP1 PUSH2 0x5CD SWAP2 SWAP1 PUSH2 0x39BC JUMP JUMPDEST PUSH2 0x25F4 JUMP JUMPDEST STOP JUMPDEST PUSH1 0xA SLOAD DUP2 JUMP JUMPDEST PUSH1 0x0 DUP1 PUSH1 0x0 SWAP1 POP PUSH1 0x0 PUSH8 0xDE0B6B3A7640000 SWAP1 POP PUSH1 0x0 JUMPDEST PUSH2 0x638 PUSH1 0x8 PUSH1 0x0 CALLER PUSH20 0xFFFFFFFFFFFFFFFFFFFFFFFFFFFFFFFFFFFFFFFF AND PUSH20 0xFFFFFFFFFFFFFFFFFFFFFFFFFFFFFFFFFFFFFFFF AND DUP2 MSTORE PUSH1 0x20 ADD SWAP1 DUP2 MSTORE PUSH1 0x20 ADD PUSH1 0x0 KECCAK256 PUSH2 0x26EC JUMP JUMPDEST DUP2 LT ISZERO PUSH2 0x848 JUMPI PUSH1 0xC SLOAD PUSH2 0x693 DUP3 PUSH1 0x8 PUSH1 0x0 CALLER PUSH20 0xFFFFFFFFFFFFFFFFFFFFFFFFFFFFFFFFFFFFFFFF AND PUSH20 0xFFFFFFFFFFFFFFFFFFFFFFFFFFFFFFFFFFFFFFFF AND DUP2 MSTORE PUSH1 0x20 ADD SWAP1 DUP2 MSTORE PUSH1 0x20 ADD PUSH1 0x0 KECCAK256 PUSH2 0x2701 SWAP1 SWAP2 SWAP1 PUSH4 0xFFFFFFFF AND JUMP JUMPDEST LT ISZERO PUSH2 0x835 JUMPI PUSH2 0x7AF PUSH1 0x5 PUSH1 0x0 CALLER PUSH20 0xFFFFFFFFFFFFFFFFFFFFFFFFFFFFFFFFFFFFFFFF AND PUSH20 0xFFFFFFFFFFFFFFFFFFFFFFFFFFFFFFFFFFFFFFFF AND DUP2 MSTORE PUSH1 0x20 ADD SWAP1 DUP2 MSTORE PUSH1 0x20 ADD PUSH1 0x0 KECCAK256 PUSH1 0x0 PUSH2 0x72E DUP5 PUSH1 0x8 PUSH1 0x0 CALLER PUSH20 0xFFFFFFFFFFFFFFFFFFFFFFFFFFFFFFFFFFFFFFFF AND PUSH20 0xFFFFFFFFFFFFFFFFFFFFFFFFFFFFFFFFFFFFFFFF AND DUP2 MSTORE PUSH1 0x20 ADD SWAP1 DUP2 MSTORE PUSH1 0x20 ADD PUSH1 0x0 KECCAK256 PUSH2 0x2701 SWAP1 SWAP2 SWAP1 PUSH4 0xFFFFFFFF AND JUMP JUMPDEST DUP2 MSTORE PUSH1 0x20 ADD SWAP1 DUP2 MSTORE PUSH1 0x20 ADD PUSH1 0x0 KECCAK256 SLOAD PUSH8 0xDE0B6B3A7640000 PUSH1 0x6 PUSH1 0x0 PUSH2 0x79B DUP7 PUSH1 0x8 PUSH1 0x0 CALLER PUSH20 0xFFFFFFFFFFFFFFFFFFFFFFFFFFFFFFFFFFFFFFFF AND PUSH20 0xFFFFFFFFFFFFFFFFFFFFFFFFFFFFFFFFFFFFFFFF AND DUP2 MSTORE PUSH1 0x20 ADD SWAP1 DUP2 MSTORE PUSH1 0x20 ADD PUSH1 0x0 KECCAK256 PUSH2 0x2701 SWAP1 SWAP2 SWAP1 PUSH4 0xFFFFFFFF AND JUMP JUMPDEST DUP2 MSTORE PUSH1 0x20 ADD SWAP1 DUP2 MSTORE PUSH1 0x20 ADD PUSH1 0x0 KECCAK256 SLOAD PUSH2 0x271B JUMP JUMPDEST SWAP2 POP PUSH2 0x827 DUP3 PUSH1 0x7 PUSH1 0x0 PUSH2 0x80A DUP6 PUSH1 0x8 PUSH1 0x0 CALLER PUSH20 0xFFFFFFFFFFFFFFFFFFFFFFFFFFFFFFFFFFFFFFFF AND PUSH20 0xFFFFFFFFFFFFFFFFFFFFFFFFFFFFFFFFFFFFFFFF AND DUP2 MSTORE PUSH1 0x20 ADD SWAP1 DUP2 MSTORE PUSH1 0x20 ADD PUSH1 0x0 KECCAK256 PUSH2 0x2701 SWAP1 SWAP2 SWAP1 PUSH4 0xFFFFFFFF AND JUMP JUMPDEST DUP2 MSTORE PUSH1 0x20 ADD SWAP1 DUP2 MSTORE PUSH1 0x20 ADD PUSH1 0x0 KECCAK256 SLOAD PUSH8 0xDE0B6B3A7640000 PUSH2 0x271B JUMP JUMPDEST DUP4 PUSH2 0x832 SWAP2 SWAP1 PUSH2 0x3A18 JUMP JUMPDEST SWAP3 POP JUMPDEST DUP1 DUP1 PUSH2 0x840 SWAP1 PUSH2 0x3A6E JUMP JUMPDEST SWAP2 POP POP PUSH2 0x5F1 JUMP JUMPDEST POP DUP2 SWAP3 POP POP POP SWAP1 JUMP JUMPDEST PUSH2 0x859 PUSH2 0xEBC JUMP JUMPDEST PUSH1 0x1 PUSH1 0xC SLOAD PUSH2 0x868 SWAP2 SWAP1 PUSH2 0x3A18 JUMP JUMPDEST GT ISZERO DUP1 ISZERO PUSH2 0x87A JUMPI POP PUSH1 0xA SLOAD PUSH1 0xC SLOAD EQ ISZERO JUMPDEST ISZERO PUSH2 0x888 JUMPI PUSH2 0x887 PUSH2 0x28BC JUMP JUMPDEST JUMPDEST PUSH1 0x0 DUP1 PUSH8 0xDE0B6B3A7640000 SWAP1 POP PUSH1 0x0 PUSH2 0x8DF PUSH1 0x8 PUSH1 0x0 CALLER PUSH20 0xFFFFFFFFFFFFFFFFFFFFFFFFFFFFFFFFFFFFFFFF AND PUSH20 0xFFFFFFFFFFFFFFFFFFFFFFFFFFFFFFFFFFFFFFFF AND DUP2 MSTORE PUSH1 0x20 ADD SWAP1 DUP2 MSTORE PUSH1 0x20 ADD PUSH1 0x0 KECCAK256 PUSH2 0x26EC JUMP JUMPDEST SWAP1 POP PUSH1 0x0 DUP2 PUSH8 0xFFFFFFFFFFFFFFFF DUP2 GT ISZERO PUSH2 0x8FD JUMPI PUSH2 0x8FC PUSH2 0x3AB7 JUMP JUMPDEST JUMPDEST PUSH1 0x40 MLOAD SWAP1 DUP1 DUP3 MSTORE DUP1 PUSH1 0x20 MUL PUSH1 0x20 ADD DUP3 ADD PUSH1 0x40 MSTORE DUP1 ISZERO PUSH2 0x92B JUMPI DUP2 PUSH1 0x20 ADD PUSH1 0x20 DUP3 MUL DUP1 CALLDATASIZE DUP4 CALLDATACOPY DUP1 DUP3 ADD SWAP2 POP POP SWAP1 POP JUMPDEST POP SWAP1 POP PUSH1 0x0 JUMPDEST DUP3 DUP2 LT ISZERO PUSH2 0xBB2 JUMPI PUSH1 0xC SLOAD PUSH2 0x98D DUP3 PUSH1 0x8 PUSH1 0x0 CALLER PUSH20 0xFFFFFFFFFFFFFFFFFFFFFFFFFFFFFFFFFFFFFFFF AND PUSH20 0xFFFFFFFFFFFFFFFFFFFFFFFFFFFFFFFFFFFFFFFF AND DUP2 MSTORE PUSH1 0x20 ADD SWAP1 DUP2 MSTORE PUSH1 0x20 ADD PUSH1 0x0 KECCAK256 PUSH2 0x2701 SWAP1 SWAP2 SWAP1 PUSH4 0xFFFFFFFF AND JUMP JUMPDEST LT ISZERO PUSH2 0xB9F JUMPI PUSH2 0xAA9 PUSH1 0x5 PUSH1 0x0 CALLER PUSH20 0xFFFFFFFFFFFFFFFFFFFFFFFFFFFFFFFFFFFFFFFF AND PUSH20 0xFFFFFFFFFFFFFFFFFFFFFFFFFFFFFFFFFFFFFFFF AND DUP2 MSTORE PUSH1 0x20 ADD SWAP1 DUP2 MSTORE PUSH1 0x20 ADD PUSH1 0x0 KECCAK256 PUSH1 0x0 PUSH2 0xA28 DUP5 PUSH1 0x8 PUSH1 0x0 CALLER PUSH20 0xFFFFFFFFFFFFFFFFFFFFFFFFFFFFFFFFFFFFFFFF AND PUSH20 0xFFFFFFFFFFFFFFFFFFFFFFFFFFFFFFFFFFFFFFFF AND DUP2 MSTORE PUSH1 0x20 ADD SWAP1 DUP2 MSTORE PUSH1 0x20 ADD PUSH1 0x0 KECCAK256 PUSH2 0x2701 SWAP1 SWAP2 SWAP1 PUSH4 0xFFFFFFFF AND JUMP JUMPDEST DUP2 MSTORE PUSH1 0x20 ADD SWAP1 DUP2 MSTORE PUSH1 0x20 ADD PUSH1 0x0 KECCAK256 SLOAD PUSH8 0xDE0B6B3A7640000 PUSH1 0x6 PUSH1 0x0 PUSH2 0xA95 DUP7 PUSH1 0x8 PUSH1 0x0 CALLER PUSH20 0xFFFFFFFFFFFFFFFFFFFFFFFFFFFFFFFFFFFFFFFF AND PUSH20 0xFFFFFFFFFFFFFFFFFFFFFFFFFFFFFFFFFFFFFFFF AND DUP2 MSTORE PUSH1 0x20 ADD SWAP1 DUP2 MSTORE PUSH1 0x20 ADD PUSH1 0x0 KECCAK256 PUSH2 0x2701 SWAP1 SWAP2 SWAP1 PUSH4 0xFFFFFFFF AND JUMP JUMPDEST DUP2 MSTORE PUSH1 0x20 ADD SWAP1 DUP2 MSTORE PUSH1 0x20 ADD PUSH1 0x0 KECCAK256 SLOAD PUSH2 0x271B JUMP JUMPDEST SWAP4 POP PUSH2 0xB21 DUP5 PUSH1 0x7 PUSH1 0x0 PUSH2 0xB04 DUP6 PUSH1 0x8 PUSH1 0x0 CALLER PUSH20 0xFFFFFFFFFFFFFFFFFFFFFFFFFFFFFFFFFFFFFFFF AND PUSH20 0xFFFFFFFFFFFFFFFFFFFFFFFFFFFFFFFFFFFFFFFF AND DUP2 MSTORE PUSH1 0x20 ADD SWAP1 DUP2 MSTORE PUSH1 0x20 ADD PUSH1 0x0 KECCAK256 PUSH2 0x2701 SWAP1 SWAP2 SWAP1 PUSH4 0xFFFFFFFF AND JUMP JUMPDEST DUP2 MSTORE PUSH1 0x20 ADD SWAP1 DUP2 MSTORE PUSH1 0x20 ADD PUSH1 0x0 KECCAK256 SLOAD PUSH8 0xDE0B6B3A7640000 PUSH2 0x271B JUMP JUMPDEST DUP6 PUSH2 0xB2C SWAP2 SWAP1 PUSH2 0x3A18 JUMP JUMPDEST SWAP5 POP PUSH2 0xB7F DUP2 PUSH1 0x8 PUSH1 0x0 CALLER PUSH20 0xFFFFFFFFFFFFFFFFFFFFFFFFFFFFFFFFFFFFFFFF AND PUSH20 0xFFFFFFFFFFFFFFFFFFFFFFFFFFFFFFFFFFFFFFFF AND DUP2 MSTORE PUSH1 0x20 ADD SWAP1 DUP2 MSTORE PUSH1 0x20 ADD PUSH1 0x0 KECCAK256 PUSH2 0x2701 SWAP1 SWAP2 SWAP1 PUSH4 0xFFFFFFFF AND JUMP JUMPDEST DUP3 DUP3 DUP2 MLOAD DUP2 LT PUSH2 0xB92 JUMPI PUSH2 0xB91 PUSH2 0x3AE6 JUMP JUMPDEST JUMPDEST PUSH1 0x20 MUL PUSH1 0x20 ADD ADD DUP2 DUP2 MSTORE POP POP JUMPDEST DUP1 DUP1 PUSH2 0xBAA SWAP1 PUSH2 0x3A6E JUMP JUMPDEST SWAP2 POP POP PUSH2 0x931 JUMP JUMPDEST POP PUSH1 0x0 JUMPDEST DUP3 DUP2 LT ISZERO PUSH2 0xC3D JUMPI PUSH2 0xC29 DUP3 DUP3 DUP2 MLOAD DUP2 LT PUSH2 0xBD4 JUMPI PUSH2 0xBD3 PUSH2 0x3AE6 JUMP JUMPDEST JUMPDEST PUSH1 0x20 MUL PUSH1 0x20 ADD ADD MLOAD PUSH1 0x8 PUSH1 0x0 CALLER PUSH20 0xFFFFFFFFFFFFFFFFFFFFFFFFFFFFFFFFFFFFFFFF AND PUSH20 0xFFFFFFFFFFFFFFFFFFFFFFFFFFFFFFFFFFFFFFFF AND DUP2 MSTORE PUSH1 0x20 ADD SWAP1 DUP2 MSTORE PUSH1 0x20 ADD PUSH1 0x0 KECCAK256 PUSH2 0x2B4F SWAP1 SWAP2 SWAP1 PUSH4 0xFFFFFFFF AND JUMP JUMPDEST POP DUP1 DUP1 PUSH2 0xC35 SWAP1 PUSH2 0x3A6E JUMP JUMPDEST SWAP2 POP POP PUSH2 0xBB6 JUMP JUMPDEST POP PUSH1 0x0 DUP5 GT PUSH2 0xC81 JUMPI PUSH1 0x40 MLOAD PUSH32 0x8C379A000000000000000000000000000000000000000000000000000000000 DUP2 MSTORE PUSH1 0x4 ADD PUSH2 0xC78 SWAP1 PUSH2 0x3B72 JUMP JUMPDEST PUSH1 0x40 MLOAD DUP1 SWAP2 SUB SWAP1 REVERT JUMPDEST PUSH2 0xCCE CALLER DUP6 PUSH1 0x3 PUSH1 0x0 SWAP1 SLOAD SWAP1 PUSH2 0x100 EXP SWAP1 DIV PUSH20 0xFFFFFFFFFFFFFFFFFFFFFFFFFFFFFFFFFFFFFFFF AND PUSH20 0xFFFFFFFFFFFFFFFFFFFFFFFFFFFFFFFFFFFFFFFF AND PUSH2 0x2B69 SWAP1 SWAP3 SWAP2 SWAP1 PUSH4 0xFFFFFFFF AND JUMP JUMPDEST PUSH32 0x106F923F993C2149D49B4255FF723ACAFA1F2D94393F561D3EDA32AE348F7241 CALLER DUP6 PUSH1 0x40 MLOAD PUSH2 0xCFF SWAP3 SWAP2 SWAP1 PUSH2 0x3B92 JUMP JUMPDEST PUSH1 0x40 MLOAD DUP1 SWAP2 SUB SWAP1 LOG1 POP POP POP POP JUMP JUMPDEST PUSH2 0xD15 PUSH2 0x2BEF JUMP JUMPDEST PUSH20 0xFFFFFFFFFFFFFFFFFFFFFFFFFFFFFFFFFFFFFFFF AND PUSH2 0xD33 PUSH2 0x1DA9 JUMP JUMPDEST PUSH20 0xFFFFFFFFFFFFFFFFFFFFFFFFFFFFFFFFFFFFFFFF AND EQ PUSH2 0xD89 JUMPI PUSH1 0x40 MLOAD PUSH32 0x8C379A000000000000000000000000000000000000000000000000000000000 DUP2 MSTORE PUSH1 0x4 ADD PUSH2 0xD80 SWAP1 PUSH2 0x3C07 JUMP JUMPDEST PUSH1 0x40 MLOAD DUP1 SWAP2 SUB SWAP1 REVERT JUMPDEST DUP1 PUSH1 0x9 PUSH1 0x0 DUP3 DUP3 SLOAD PUSH2 0xD9B SWAP2 SWAP1 PUSH2 0x3A18 JUMP JUMPDEST SWAP3 POP POP DUP2 SWAP1 SSTORE POP PUSH2 0xDF1 CALLER ADDRESS DUP4 PUSH1 0x3 PUSH1 0x0 SWAP1 SLOAD SWAP1 PUSH2 0x100 EXP SWAP1 DIV PUSH20 0xFFFFFFFFFFFFFFFFFFFFFFFFFFFFFFFFFFFFFFFF AND PUSH20 0xFFFFFFFFFFFFFFFFFFFFFFFFFFFFFFFFFFFFFFFF AND PUSH2 0x2BF7 SWAP1 SWAP4 SWAP3 SWAP2 SWAP1 PUSH4 0xFFFFFFFF AND JUMP JUMPDEST POP JUMP JUMPDEST PUSH1 0x60 PUSH1 0x1 PUSH1 0x0 SWAP1 SLOAD SWAP1 PUSH2 0x100 EXP SWAP1 DIV PUSH20 0xFFFFFFFFFFFFFFFFFFFFFFFFFFFFFFFFFFFFFFFF AND PUSH20 0xFFFFFFFFFFFFFFFFFFFFFFFFFFFFFFFFFFFFFFFF AND PUSH4 0x1F00CA74 DUP6 DUP6 DUP6 PUSH1 0x40 MLOAD DUP5 PUSH4 0xFFFFFFFF AND PUSH1 0xE0 SHL DUP2 MSTORE PUSH1 0x4 ADD PUSH2 0xE55 SWAP4 SWAP3 SWAP2 SWAP1 PUSH2 0x3CEA JUMP JUMPDEST PUSH1 0x0 PUSH1 0x40 MLOAD DUP1 DUP4 SUB DUP2 DUP7 GAS STATICCALL ISZERO DUP1 ISZERO PUSH2 0xE72 JUMPI RETURNDATASIZE PUSH1 0x0 DUP1 RETURNDATACOPY RETURNDATASIZE PUSH1 0x0 REVERT JUMPDEST POP POP POP POP PUSH1 0x40 MLOAD RETURNDATASIZE PUSH1 0x0 DUP3 RETURNDATACOPY RETURNDATASIZE PUSH1 0x1F NOT PUSH1 0x1F DUP3 ADD AND DUP3 ADD DUP1 PUSH1 0x40 MSTORE POP DUP2 ADD SWAP1 PUSH2 0xE9B SWAP2 SWAP1 PUSH2 0x3E51 JUMP JUMPDEST SWAP1 POP SWAP4 SWAP3 POP POP POP JUMP JUMPDEST PUSH1 0x6 PUSH1 0x20 MSTORE DUP1 PUSH1 0x0 MSTORE PUSH1 0x40 PUSH1 0x0 KECCAK256 PUSH1 0x0 SWAP2 POP SWAP1 POP SLOAD DUP2 JUMP JUMPDEST PUSH1 0x0 PUSH2 0xA8C0 PUSH32 0x0 TIMESTAMP PUSH2 0xEED SWAP2 SWAP1 PUSH2 0x3E9A JUMP JUMPDEST PUSH2 0xEF7 SWAP2 SWAP1 PUSH2 0x3EFD JUMP JUMPDEST SWAP1 POP SWAP1 JUMP JUMPDEST PUSH1 0x60 PUSH1 0xD PUSH1 0x0 SWAP1 SLOAD SWAP1 PUSH2 0x100 EXP SWAP1 DIV PUSH20 0xFFFFFFFFFFFFFFFFFFFFFFFFFFFFFFFFFFFFFFFF AND PUSH20 0xFFFFFFFFFFFFFFFFFFFFFFFFFFFFFFFFFFFFFFFF AND DUP6 DUP6 PUSH1 0x1 DUP9 DUP9 SWAP1 POP PUSH2 0xF49 SWAP2 SWAP1 PUSH2 0x3E9A JUMP JUMPDEST DUP2 DUP2 LT PUSH2 0xF59 JUMPI PUSH2 0xF58 PUSH2 0x3AE6 JUMP JUMPDEST JUMPDEST SWAP1 POP PUSH1 0x20 MUL ADD PUSH1 0x20 DUP2 ADD SWAP1 PUSH2 0xF6E SWAP2 SWAP1 PUSH2 0x39BC JUMP JUMPDEST PUSH20 0xFFFFFFFFFFFFFFFFFFFFFFFFFFFFFFFFFFFFFFFF AND EQ PUSH2 0xFC4 JUMPI PUSH1 0x40 MLOAD PUSH32 0x8C379A000000000000000000000000000000000000000000000000000000000 DUP2 MSTORE PUSH1 0x4 ADD PUSH2 0xFBB SWAP1 PUSH2 0x3FA0 JUMP JUMPDEST PUSH1 0x40 MLOAD DUP1 SWAP2 SUB SWAP1 REVERT JUMPDEST PUSH1 0x2 PUSH1 0x0 SWAP1 SLOAD SWAP1 PUSH2 0x100 EXP SWAP1 DIV PUSH20 0xFFFFFFFFFFFFFFFFFFFFFFFFFFFFFFFFFFFFFFFF AND PUSH20 0xFFFFFFFFFFFFFFFFFFFFFFFFFFFFFFFFFFFFFFFF AND DUP6 DUP6 PUSH1 0x0 DUP2 DUP2 LT PUSH2 0x1011 JUMPI PUSH2 0x1010 PUSH2 0x3AE6 JUMP JUMPDEST JUMPDEST SWAP1 POP PUSH1 0x20 MUL ADD PUSH1 0x20 DUP2 ADD SWAP1 PUSH2 0x1026 SWAP2 SWAP1 PUSH2 0x39BC JUMP JUMPDEST PUSH20 0xFFFFFFFFFFFFFFFFFFFFFFFFFFFFFFFFFFFFFFFF AND EQ PUSH2 0x107C JUMPI PUSH1 0x40 MLOAD PUSH32 0x8C379A000000000000000000000000000000000000000000000000000000000 DUP2 MSTORE PUSH1 0x4 ADD PUSH2 0x1073 SWAP1 PUSH2 0x3FA0 JUMP JUMPDEST PUSH1 0x40 MLOAD DUP1 SWAP2 SUB SWAP1 REVERT JUMPDEST PUSH2 0x10D4 PUSH2 0x1087 PUSH2 0xEBC JUMP JUMPDEST PUSH1 0x8 PUSH1 0x0 CALLER PUSH20 0xFFFFFFFFFFFFFFFFFFFFFFFFFFFFFFFFFFFFFFFF AND PUSH20 0xFFFFFFFFFFFFFFFFFFFFFFFFFFFFFFFFFFFFFFFF AND DUP2 MSTORE PUSH1 0x20 ADD SWAP1 DUP2 MSTORE PUSH1 0x20 ADD PUSH1 0x0 KECCAK256 PUSH2 0x2C80 SWAP1 SWAP2 SWAP1 PUSH4 0xFFFFFFFF AND JUMP JUMPDEST ISZERO DUP1 ISZERO PUSH2 0x10E9 JUMPI POP PUSH1 0xA SLOAD PUSH2 0x10E7 PUSH2 0xEBC JUMP JUMPDEST LT JUMPDEST ISZERO PUSH2 0x1148 JUMPI PUSH2 0x1146 PUSH2 0x10F9 PUSH2 0xEBC JUMP JUMPDEST PUSH1 0x8 PUSH1 0x0 CALLER PUSH20 0xFFFFFFFFFFFFFFFFFFFFFFFFFFFFFFFFFFFFFFFF AND PUSH20 0xFFFFFFFFFFFFFFFFFFFFFFFFFFFFFFFFFFFFFFFF AND DUP2 MSTORE PUSH1 0x20 ADD SWAP1 DUP2 MSTORE PUSH1 0x20 ADD PUSH1 0x0 KECCAK256 PUSH2 0x2C9A SWAP1 SWAP2 SWAP1 PUSH4 0xFFFFFFFF AND JUMP JUMPDEST POP JUMPDEST PUSH2 0x1197 CALLER ADDRESS DUP10 PUSH1 0x2 PUSH1 0x0 SWAP1 SLOAD SWAP1 PUSH2 0x100 EXP SWAP1 DIV PUSH20 0xFFFFFFFFFFFFFFFFFFFFFFFFFFFFFFFFFFFFFFFF AND PUSH20 0xFFFFFFFFFFFFFFFFFFFFFFFFFFFFFFFFFFFFFFFF AND PUSH2 0x2BF7 SWAP1 SWAP4 SWAP3 SWAP2 SWAP1 PUSH4 0xFFFFFFFF AND JUMP JUMPDEST PUSH2 0x1206 PUSH1 0x1 PUSH1 0x0 SWAP1 SLOAD SWAP1 PUSH2 0x100 EXP SWAP1 DIV PUSH20 0xFFFFFFFFFFFFFFFFFFFFFFFFFFFFFFFFFFFFFFFF AND DUP9 PUSH1 0x2 PUSH1 0x0 SWAP1 SLOAD SWAP1 PUSH2 0x100 EXP SWAP1 DIV PUSH20 0xFFFFFFFFFFFFFFFFFFFFFFFFFFFFFFFFFFFFFFFF AND PUSH20 0xFFFFFFFFFFFFFFFFFFFFFFFFFFFFFFFFFFFFFFFF AND PUSH2 0x2CB4 SWAP1 SWAP3 SWAP2 SWAP1 PUSH4 0xFFFFFFFF AND JUMP JUMPDEST PUSH1 0xA SLOAD PUSH1 0xC SLOAD EQ PUSH2 0x121B JUMPI PUSH2 0x121A DUP8 PUSH2 0x2DC6 JUMP JUMPDEST JUMPDEST PUSH1 0x1 PUSH1 0x0 SWAP1 SLOAD SWAP1 PUSH2 0x100 EXP SWAP1 DIV PUSH20 0xFFFFFFFFFFFFFFFFFFFFFFFFFFFFFFFFFFFFFFFF AND PUSH20 0xFFFFFFFFFFFFFFFFFFFFFFFFFFFFFFFFFFFFFFFF AND PUSH4 0x676528D1 DUP9 DUP9 DUP9 DUP9 DUP9 DUP9 PUSH1 0x40 MLOAD DUP8 PUSH4 0xFFFFFFFF AND PUSH1 0xE0 SHL DUP2 MSTORE PUSH1 0x4 ADD PUSH2 0x1280 SWAP7 SWAP6 SWAP5 SWAP4 SWAP3 SWAP2 SWAP1 PUSH2 0x3FC0 JUMP JUMPDEST PUSH1 0x0 PUSH1 0x40 MLOAD DUP1 DUP4 SUB DUP2 PUSH1 0x0 DUP8 GAS CALL ISZERO DUP1 ISZERO PUSH2 0x129F JUMPI RETURNDATASIZE PUSH1 0x0 DUP1 RETURNDATACOPY RETURNDATASIZE PUSH1 0x0 REVERT JUMPDEST POP POP POP POP PUSH1 0x40 MLOAD RETURNDATASIZE PUSH1 0x0 DUP3 RETURNDATACOPY RETURNDATASIZE PUSH1 0x1F NOT PUSH1 0x1F DUP3 ADD AND DUP3 ADD DUP1 PUSH1 0x40 MSTORE POP DUP2 ADD SWAP1 PUSH2 0x12C8 SWAP2 SWAP1 PUSH2 0x3E51 JUMP JUMPDEST SWAP1 POP SWAP7 SWAP6 POP POP POP POP POP POP JUMP JUMPDEST PUSH2 0x12DC PUSH2 0x2BEF JUMP JUMPDEST PUSH20 0xFFFFFFFFFFFFFFFFFFFFFFFFFFFFFFFFFFFFFFFF AND PUSH2 0x12FA PUSH2 0x1DA9 JUMP JUMPDEST PUSH20 0xFFFFFFFFFFFFFFFFFFFFFFFFFFFFFFFFFFFFFFFF AND EQ PUSH2 0x1350 JUMPI PUSH1 0x40 MLOAD PUSH32 0x8C379A000000000000000000000000000000000000000000000000000000000 DUP2 MSTORE PUSH1 0x4 ADD PUSH2 0x1347 SWAP1 PUSH2 0x3C07 JUMP JUMPDEST PUSH1 0x40 MLOAD DUP1 SWAP2 SUB SWAP1 REVERT JUMPDEST PUSH2 0x135A PUSH1 0x0 PUSH2 0x2EB1 JUMP JUMPDEST JUMP JUMPDEST PUSH2 0x1364 PUSH2 0x2BEF JUMP JUMPDEST PUSH20 0xFFFFFFFFFFFFFFFFFFFFFFFFFFFFFFFFFFFFFFFF AND PUSH2 0x1382 PUSH2 0x1DA9 JUMP JUMPDEST PUSH20 0xFFFFFFFFFFFFFFFFFFFFFFFFFFFFFFFFFFFFFFFF AND EQ PUSH2 0x13D8 JUMPI PUSH1 0x40 MLOAD PUSH32 0x8C379A000000000000000000000000000000000000000000000000000000000 DUP2 MSTORE PUSH1 0x4 ADD PUSH2 0x13CF SWAP1 PUSH2 0x3C07 JUMP JUMPDEST PUSH1 0x40 MLOAD DUP1 SWAP2 SUB SWAP1 REVERT JUMPDEST DUP1 PUSH1 0xA DUP2 SWAP1 SSTORE POP POP JUMP JUMPDEST PUSH32 0x0 DUP2 JUMP JUMPDEST PUSH1 0x60 PUSH1 0xD PUSH1 0x0 SWAP1 SLOAD SWAP1 PUSH2 0x100 EXP SWAP1 DIV PUSH20 0xFFFFFFFFFFFFFFFFFFFFFFFFFFFFFFFFFFFFFFFF AND PUSH20 0xFFFFFFFFFFFFFFFFFFFFFFFFFFFFFFFFFFFFFFFF AND DUP6 DUP6 PUSH1 0x1 DUP9 DUP9 SWAP1 POP PUSH2 0x1453 SWAP2 SWAP1 PUSH2 0x3E9A JUMP JUMPDEST DUP2 DUP2 LT PUSH2 0x1463 JUMPI PUSH2 0x1462 PUSH2 0x3AE6 JUMP JUMPDEST JUMPDEST SWAP1 POP PUSH1 0x20 MUL ADD PUSH1 0x20 DUP2 ADD SWAP1 PUSH2 0x1478 SWAP2 SWAP1 PUSH2 0x39BC JUMP JUMPDEST PUSH20 0xFFFFFFFFFFFFFFFFFFFFFFFFFFFFFFFFFFFFFFFF AND EQ PUSH2 0x14CE JUMPI PUSH1 0x40 MLOAD PUSH32 0x8C379A000000000000000000000000000000000000000000000000000000000 DUP2 MSTORE PUSH1 0x4 ADD PUSH2 0x14C5 SWAP1 PUSH2 0x3FA0 JUMP JUMPDEST PUSH1 0x40 MLOAD DUP1 SWAP2 SUB SWAP1 REVERT JUMPDEST PUSH1 0x2 PUSH1 0x0 SWAP1 SLOAD SWAP1 PUSH2 0x100 EXP SWAP1 DIV PUSH20 0xFFFFFFFFFFFFFFFFFFFFFFFFFFFFFFFFFFFFFFFF AND PUSH20 0xFFFFFFFFFFFFFFFFFFFFFFFFFFFFFFFFFFFFFFFF AND DUP6 DUP6 PUSH1 0x0 DUP2 DUP2 LT PUSH2 0x151B JUMPI PUSH2 0x151A PUSH2 0x3AE6 JUMP JUMPDEST JUMPDEST SWAP1 POP PUSH1 0x20 MUL ADD PUSH1 0x20 DUP2 ADD SWAP1 PUSH2 0x1530 SWAP2 SWAP1 PUSH2 0x39BC JUMP JUMPDEST PUSH20 0xFFFFFFFFFFFFFFFFFFFFFFFFFFFFFFFFFFFFFFFF AND EQ PUSH2 0x1586 JUMPI PUSH1 0x40 MLOAD PUSH32 0x8C379A000000000000000000000000000000000000000000000000000000000 DUP2 MSTORE PUSH1 0x4 ADD PUSH2 0x157D SWAP1 PUSH2 0x3FA0 JUMP JUMPDEST PUSH1 0x40 MLOAD DUP1 SWAP2 SUB SWAP1 REVERT JUMPDEST PUSH2 0x15DE PUSH2 0x1591 PUSH2 0xEBC JUMP JUMPDEST PUSH1 0x8 PUSH1 0x0 CALLER PUSH20 0xFFFFFFFFFFFFFFFFFFFFFFFFFFFFFFFFFFFFFFFF AND PUSH20 0xFFFFFFFFFFFFFFFFFFFFFFFFFFFFFFFFFFFFFFFF AND DUP2 MSTORE PUSH1 0x20 ADD SWAP1 DUP2 MSTORE PUSH1 0x20 ADD PUSH1 0x0 KECCAK256 PUSH2 0x2C80 SWAP1 SWAP2 SWAP1 PUSH4 0xFFFFFFFF AND JUMP JUMPDEST ISZERO DUP1 ISZERO PUSH2 0x15F3 JUMPI POP PUSH1 0xA SLOAD PUSH2 0x15F1 PUSH2 0xEBC JUMP JUMPDEST LT JUMPDEST ISZERO PUSH2 0x1652 JUMPI PUSH2 0x1650 PUSH2 0x1603 PUSH2 0xEBC JUMP JUMPDEST PUSH1 0x8 PUSH1 0x0 CALLER PUSH20 0xFFFFFFFFFFFFFFFFFFFFFFFFFFFFFFFFFFFFFFFF AND PUSH20 0xFFFFFFFFFFFFFFFFFFFFFFFFFFFFFFFFFFFFFFFF AND DUP2 MSTORE PUSH1 0x20 ADD SWAP1 DUP2 MSTORE PUSH1 0x20 ADD PUSH1 0x0 KECCAK256 PUSH2 0x2C9A SWAP1 SWAP2 SWAP1 PUSH4 0xFFFFFFFF AND JUMP JUMPDEST POP JUMPDEST PUSH2 0x1760 CALLER ADDRESS PUSH1 0x1 PUSH1 0x0 SWAP1 SLOAD SWAP1 PUSH2 0x100 EXP SWAP1 DIV PUSH20 0xFFFFFFFFFFFFFFFFFFFFFFFFFFFFFFFFFFFFFFFF AND PUSH20 0xFFFFFFFFFFFFFFFFFFFFFFFFFFFFFFFFFFFFFFFF AND PUSH4 0x1F00CA74 DUP12 DUP11 DUP11 PUSH1 0x40 MLOAD DUP5 PUSH4 0xFFFFFFFF AND PUSH1 0xE0 SHL DUP2 MSTORE PUSH1 0x4 ADD PUSH2 0x16B6 SWAP4 SWAP3 SWAP2 SWAP1 PUSH2 0x3CEA JUMP JUMPDEST PUSH1 0x0 PUSH1 0x40 MLOAD DUP1 DUP4 SUB DUP2 DUP7 GAS STATICCALL ISZERO DUP1 ISZERO PUSH2 0x16D3 JUMPI RETURNDATASIZE PUSH1 0x0 DUP1 RETURNDATACOPY RETURNDATASIZE PUSH1 0x0 REVERT JUMPDEST POP POP POP POP PUSH1 0x40 MLOAD RETURNDATASIZE PUSH1 0x0 DUP3 RETURNDATACOPY RETURNDATASIZE PUSH1 0x1F NOT PUSH1 0x1F DUP3 ADD AND DUP3 ADD DUP1 PUSH1 0x40 MSTORE POP DUP2 ADD SWAP1 PUSH2 0x16FC SWAP2 SWAP1 PUSH2 0x3E51 JUMP JUMPDEST PUSH1 0x0 DUP2 MLOAD DUP2 LT PUSH2 0x170F JUMPI PUSH2 0x170E PUSH2 0x3AE6 JUMP JUMPDEST JUMPDEST PUSH1 0x20 MUL PUSH1 0x20 ADD ADD MLOAD PUSH1 0x2 PUSH1 0x0 SWAP1 SLOAD SWAP1 PUSH2 0x100 EXP SWAP1 DIV PUSH20 0xFFFFFFFFFFFFFFFFFFFFFFFFFFFFFFFFFFFFFFFF AND PUSH20 0xFFFFFFFFFFFFFFFFFFFFFFFFFFFFFFFFFFFFFFFF AND PUSH2 0x2BF7 SWAP1 SWAP4 SWAP3 SWAP2 SWAP1 PUSH4 0xFFFFFFFF AND JUMP JUMPDEST PUSH2 0x17CF PUSH1 0x1 PUSH1 0x0 SWAP1 SLOAD SWAP1 PUSH2 0x100 EXP SWAP1 DIV PUSH20 0xFFFFFFFFFFFFFFFFFFFFFFFFFFFFFFFFFFFFFFFF AND DUP8 PUSH1 0x2 PUSH1 0x0 SWAP1 SLOAD SWAP1 PUSH2 0x100 EXP SWAP1 DIV PUSH20 0xFFFFFFFFFFFFFFFFFFFFFFFFFFFFFFFFFFFFFFFF AND PUSH20 0xFFFFFFFFFFFFFFFFFFFFFFFFFFFFFFFFFFFFFFFF AND PUSH2 0x2CB4 SWAP1 SWAP3 SWAP2 SWAP1 PUSH4 0xFFFFFFFF AND JUMP JUMPDEST PUSH1 0x1 PUSH1 0x0 SWAP1 SLOAD SWAP1 PUSH2 0x100 EXP SWAP1 DIV PUSH20 0xFFFFFFFFFFFFFFFFFFFFFFFFFFFFFFFFFFFFFFFF AND PUSH20 0xFFFFFFFFFFFFFFFFFFFFFFFFFFFFFFFFFFFFFFFF AND PUSH4 0x7A42416A DUP9 DUP9 DUP9 DUP9 DUP9 DUP9 PUSH1 0x40 MLOAD DUP8 PUSH4 0xFFFFFFFF AND PUSH1 0xE0 SHL DUP2 MSTORE PUSH1 0x4 ADD PUSH2 0x1834 SWAP7 SWAP6 SWAP5 SWAP4 SWAP3 SWAP2 SWAP1 PUSH2 0x3FC0 JUMP JUMPDEST PUSH1 0x0 PUSH1 0x40 MLOAD DUP1 DUP4 SUB DUP2 PUSH1 0x0 DUP8 GAS CALL ISZERO DUP1 ISZERO PUSH2 0x1853 JUMPI RETURNDATASIZE PUSH1 0x0 DUP1 RETURNDATACOPY RETURNDATASIZE PUSH1 0x0 REVERT JUMPDEST POP POP POP POP PUSH1 0x40 MLOAD RETURNDATASIZE PUSH1 0x0 DUP3 RETURNDATACOPY RETURNDATASIZE PUSH1 0x1F NOT PUSH1 0x1F DUP3 ADD AND DUP3 ADD DUP1 PUSH1 0x40 MSTORE POP DUP2 ADD SWAP1 PUSH2 0x187C SWAP2 SWAP1 PUSH2 0x3E51 JUMP JUMPDEST SWAP1 POP PUSH1 0xA SLOAD PUSH1 0xC SLOAD EQ PUSH2 0x18AE JUMPI PUSH2 0x18AD DUP2 PUSH1 0x0 DUP2 MLOAD DUP2 LT PUSH2 0x18A0 JUMPI PUSH2 0x189F PUSH2 0x3AE6 JUMP JUMPDEST JUMPDEST PUSH1 0x20 MUL PUSH1 0x20 ADD ADD MLOAD PUSH2 0x2DC6 JUMP JUMPDEST JUMPDEST PUSH2 0x191E PUSH1 0x1 PUSH1 0x0 SWAP1 SLOAD SWAP1 PUSH2 0x100 EXP SWAP1 DIV PUSH20 0xFFFFFFFFFFFFFFFFFFFFFFFFFFFFFFFFFFFFFFFF AND PUSH1 0x0 PUSH1 0x2 PUSH1 0x0 SWAP1 SLOAD SWAP1 PUSH2 0x100 EXP SWAP1 DIV PUSH20 0xFFFFFFFFFFFFFFFFFFFFFFFFFFFFFFFFFFFFFFFF AND PUSH20 0xFFFFFFFFFFFFFFFFFFFFFFFFFFFFFFFFFFFFFFFF AND PUSH2 0x2F75 SWAP1 SWAP3 SWAP2 SWAP1 PUSH4 0xFFFFFFFF AND JUMP JUMPDEST SWAP7 SWAP6 POP POP POP POP POP POP JUMP JUMPDEST PUSH1 0x9 SLOAD DUP2 JUMP JUMPDEST PUSH1 0x60 PUSH1 0xD PUSH1 0x0 SWAP1 SLOAD SWAP1 PUSH2 0x100 EXP SWAP1 DIV PUSH20 0xFFFFFFFFFFFFFFFFFFFFFFFFFFFFFFFFFFFFFFFF AND PUSH20 0xFFFFFFFFFFFFFFFFFFFFFFFFFFFFFFFFFFFFFFFF AND DUP6 DUP6 PUSH1 0x0 DUP2 DUP2 LT PUSH2 0x197D JUMPI PUSH2 0x197C PUSH2 0x3AE6 JUMP JUMPDEST JUMPDEST SWAP1 POP PUSH1 0x20 MUL ADD PUSH1 0x20 DUP2 ADD SWAP1 PUSH2 0x1992 SWAP2 SWAP1 PUSH2 0x39BC JUMP JUMPDEST PUSH20 0xFFFFFFFFFFFFFFFFFFFFFFFFFFFFFFFFFFFFFFFF AND EQ PUSH2 0x19E8 JUMPI PUSH1 0x40 MLOAD PUSH32 0x8C379A000000000000000000000000000000000000000000000000000000000 DUP2 MSTORE PUSH1 0x4 ADD PUSH2 0x19DF SWAP1 PUSH2 0x3FA0 JUMP JUMPDEST PUSH1 0x40 MLOAD DUP1 SWAP2 SUB SWAP1 REVERT JUMPDEST PUSH1 0x2 PUSH1 0x0 SWAP1 SLOAD SWAP1 PUSH2 0x100 EXP SWAP1 DIV PUSH20 0xFFFFFFFFFFFFFFFFFFFFFFFFFFFFFFFFFFFFFFFF AND PUSH20 0xFFFFFFFFFFFFFFFFFFFFFFFFFFFFFFFFFFFFFFFF AND DUP6 DUP6 PUSH1 0x1 DUP9 DUP9 SWAP1 POP PUSH2 0x1A33 SWAP2 SWAP1 PUSH2 0x3E9A JUMP JUMPDEST DUP2 DUP2 LT PUSH2 0x1A43 JUMPI PUSH2 0x1A42 PUSH2 0x3AE6 JUMP JUMPDEST JUMPDEST SWAP1 POP PUSH1 0x20 MUL ADD PUSH1 0x20 DUP2 ADD SWAP1 PUSH2 0x1A58 SWAP2 SWAP1 PUSH2 0x39BC JUMP JUMPDEST PUSH20 0xFFFFFFFFFFFFFFFFFFFFFFFFFFFFFFFFFFFFFFFF AND EQ PUSH2 0x1AAE JUMPI PUSH1 0x40 MLOAD PUSH32 0x8C379A000000000000000000000000000000000000000000000000000000000 DUP2 MSTORE PUSH1 0x4 ADD PUSH2 0x1AA5 SWAP1 PUSH2 0x3FA0 JUMP JUMPDEST PUSH1 0x40 MLOAD DUP1 SWAP2 SUB SWAP1 REVERT JUMPDEST PUSH1 0x0 PUSH1 0x1 PUSH1 0x0 SWAP1 SLOAD SWAP1 PUSH2 0x100 EXP SWAP1 DIV PUSH20 0xFFFFFFFFFFFFFFFFFFFFFFFFFFFFFFFFFFFFFFFF AND PUSH20 0xFFFFFFFFFFFFFFFFFFFFFFFFFFFFFFFFFFFFFFFF AND PUSH4 0x1F00CA74 DUP9 DUP9 DUP9 PUSH1 0x40 MLOAD DUP5 PUSH4 0xFFFFFFFF AND PUSH1 0xE0 SHL DUP2 MSTORE PUSH1 0x4 ADD PUSH2 0x1B0F SWAP4 SWAP3 SWAP2 SWAP1 PUSH2 0x3CEA JUMP JUMPDEST PUSH1 0x0 PUSH1 0x40 MLOAD DUP1 DUP4 SUB DUP2 DUP7 GAS STATICCALL ISZERO DUP1 ISZERO PUSH2 0x1B2C JUMPI RETURNDATASIZE PUSH1 0x0 DUP1 RETURNDATACOPY RETURNDATASIZE PUSH1 0x0 REVERT JUMPDEST POP POP POP POP PUSH1 0x40 MLOAD RETURNDATASIZE PUSH1 0x0 DUP3 RETURNDATACOPY RETURNDATASIZE PUSH1 0x1F NOT PUSH1 0x1F DUP3 ADD AND DUP3 ADD DUP1 PUSH1 0x40 MSTORE POP DUP2 ADD SWAP1 PUSH2 0x1B55 SWAP2 SWAP1 PUSH2 0x3E51 JUMP JUMPDEST PUSH1 0x0 DUP2 MLOAD DUP2 LT PUSH2 0x1B68 JUMPI PUSH2 0x1B67 PUSH2 0x3AE6 JUMP JUMPDEST JUMPDEST PUSH1 0x20 MUL PUSH1 0x20 ADD ADD MLOAD SWAP1 POP DUP1 CALLVALUE LT ISZERO PUSH2 0x1BB5 JUMPI PUSH1 0x40 MLOAD PUSH32 0x8C379A000000000000000000000000000000000000000000000000000000000 DUP2 MSTORE PUSH1 0x4 ADD PUSH2 0x1BAC SWAP1 PUSH2 0x408E JUMP JUMPDEST PUSH1 0x40 MLOAD DUP1 SWAP2 SUB SWAP1 REVERT JUMPDEST PUSH2 0x1C0D PUSH2 0x1BC0 PUSH2 0xEBC JUMP JUMPDEST PUSH1 0x8 PUSH1 0x0 CALLER PUSH20 0xFFFFFFFFFFFFFFFFFFFFFFFFFFFFFFFFFFFFFFFF AND PUSH20 0xFFFFFFFFFFFFFFFFFFFFFFFFFFFFFFFFFFFFFFFF AND DUP2 MSTORE PUSH1 0x20 ADD SWAP1 DUP2 MSTORE PUSH1 0x20 ADD PUSH1 0x0 KECCAK256 PUSH2 0x2C80 SWAP1 SWAP2 SWAP1 PUSH4 0xFFFFFFFF AND JUMP JUMPDEST ISZERO DUP1 ISZERO PUSH2 0x1C22 JUMPI POP PUSH1 0xA SLOAD PUSH2 0x1C20 PUSH2 0xEBC JUMP JUMPDEST LT JUMPDEST ISZERO PUSH2 0x1C81 JUMPI PUSH2 0x1C7F PUSH2 0x1C32 PUSH2 0xEBC JUMP JUMPDEST PUSH1 0x8 PUSH1 0x0 CALLER PUSH20 0xFFFFFFFFFFFFFFFFFFFFFFFFFFFFFFFFFFFFFFFF AND PUSH20 0xFFFFFFFFFFFFFFFFFFFFFFFFFFFFFFFFFFFFFFFF AND DUP2 MSTORE PUSH1 0x20 ADD SWAP1 DUP2 MSTORE PUSH1 0x20 ADD PUSH1 0x0 KECCAK256 PUSH2 0x2C9A SWAP1 SWAP2 SWAP1 PUSH4 0xFFFFFFFF AND JUMP JUMPDEST POP JUMPDEST PUSH1 0xA SLOAD PUSH1 0xC SLOAD EQ PUSH2 0x1C96 JUMPI PUSH2 0x1C95 DUP8 PUSH2 0x2DC6 JUMP JUMPDEST JUMPDEST DUP1 CALLVALUE GT ISZERO PUSH2 0x1CF1 JUMPI CALLER PUSH20 0xFFFFFFFFFFFFFFFFFFFFFFFFFFFFFFFFFFFFFFFF AND PUSH2 0x8FC DUP3 CALLVALUE PUSH2 0x1CC4 SWAP2 SWAP1 PUSH2 0x3E9A JUMP JUMPDEST SWAP1 DUP2 ISZERO MUL SWAP1 PUSH1 0x40 MLOAD PUSH1 0x0 PUSH1 0x40 MLOAD DUP1 DUP4 SUB DUP2 DUP6 DUP9 DUP9 CALL SWAP4 POP POP POP POP ISZERO DUP1 ISZERO PUSH2 0x1CEF JUMPI RETURNDATASIZE PUSH1 0x0 DUP1 RETURNDATACOPY RETURNDATASIZE PUSH1 0x0 REVERT JUMPDEST POP JUMPDEST PUSH1 0x1 PUSH1 0x0 SWAP1 SLOAD SWAP1 PUSH2 0x100 EXP SWAP1 DIV PUSH20 0xFFFFFFFFFFFFFFFFFFFFFFFFFFFFFFFFFFFFFFFF AND PUSH20 0xFFFFFFFFFFFFFFFFFFFFFFFFFFFFFFFFFFFFFFFF AND PUSH4 0x8A657E67 DUP3 DUP10 DUP10 DUP10 DUP10 DUP10 PUSH1 0x40 MLOAD DUP8 PUSH4 0xFFFFFFFF AND PUSH1 0xE0 SHL DUP2 MSTORE PUSH1 0x4 ADD PUSH2 0x1D55 SWAP6 SWAP5 SWAP4 SWAP3 SWAP2 SWAP1 PUSH2 0x40AE JUMP JUMPDEST PUSH1 0x0 PUSH1 0x40 MLOAD DUP1 DUP4 SUB DUP2 DUP6 DUP9 GAS CALL ISZERO DUP1 ISZERO PUSH2 0x1D73 JUMPI RETURNDATASIZE PUSH1 0x0 DUP1 RETURNDATACOPY RETURNDATASIZE PUSH1 0x0 REVERT JUMPDEST POP POP POP POP POP PUSH1 0x40 MLOAD RETURNDATASIZE PUSH1 0x0 DUP3 RETURNDATACOPY RETURNDATASIZE PUSH1 0x1F NOT PUSH1 0x1F DUP3 ADD AND DUP3 ADD DUP1 PUSH1 0x40 MSTORE POP DUP2 ADD SWAP1 PUSH2 0x1D9D SWAP2 SWAP1 PUSH2 0x3E51 JUMP JUMPDEST SWAP2 POP POP SWAP6 SWAP5 POP POP POP POP POP JUMP JUMPDEST PUSH1 0x0 DUP1 PUSH1 0x0 SWAP1 SLOAD SWAP1 PUSH2 0x100 EXP SWAP1 DIV PUSH20 0xFFFFFFFFFFFFFFFFFFFFFFFFFFFFFFFFFFFFFFFF AND SWAP1 POP SWAP1 JUMP JUMPDEST PUSH1 0x5 PUSH1 0x20 MSTORE DUP2 PUSH1 0x0 MSTORE PUSH1 0x40 PUSH1 0x0 KECCAK256 PUSH1 0x20 MSTORE DUP1 PUSH1 0x0 MSTORE PUSH1 0x40 PUSH1 0x0 KECCAK256 PUSH1 0x0 SWAP2 POP SWAP2 POP POP SLOAD DUP2 JUMP JUMPDEST PUSH1 0x0 DUP1 PUSH1 0x0 SWAP1 POP PUSH1 0x0 PUSH8 0xDE0B6B3A7640000 SWAP1 POP PUSH2 0x1E5C DUP5 PUSH1 0x8 PUSH1 0x0 CALLER PUSH20 0xFFFFFFFFFFFFFFFFFFFFFFFFFFFFFFFFFFFFFFFF AND PUSH20 0xFFFFFFFFFFFFFFFFFFFFFFFFFFFFFFFFFFFFFFFF AND DUP2 MSTORE PUSH1 0x20 ADD SWAP1 DUP2 MSTORE PUSH1 0x20 ADD PUSH1 0x0 KECCAK256 PUSH2 0x2C80 SWAP1 SWAP2 SWAP1 PUSH4 0xFFFFFFFF AND JUMP JUMPDEST ISZERO PUSH2 0x201F JUMPI PUSH2 0x1ED7 PUSH1 0x5 PUSH1 0x0 CALLER PUSH20 0xFFFFFFFFFFFFFFFFFFFFFFFFFFFFFFFFFFFFFFFF AND PUSH20 0xFFFFFFFFFFFFFFFFFFFFFFFFFFFFFFFFFFFFFFFF AND DUP2 MSTORE PUSH1 0x20 ADD SWAP1 DUP2 MSTORE PUSH1 0x20 ADD PUSH1 0x0 KECCAK256 PUSH1 0x0 DUP7 DUP2 MSTORE PUSH1 0x20 ADD SWAP1 DUP2 MSTORE PUSH1 0x20 ADD PUSH1 0x0 KECCAK256 SLOAD PUSH8 0xDE0B6B3A7640000 PUSH1 0x6 PUSH1 0x0 DUP9 DUP2 MSTORE PUSH1 0x20 ADD SWAP1 DUP2 MSTORE PUSH1 0x20 ADD PUSH1 0x0 KECCAK256 SLOAD PUSH2 0x271B JUMP JUMPDEST SWAP1 POP PUSH1 0x0 PUSH1 0xC SLOAD DUP6 LT ISZERO PUSH2 0x1F00 JUMPI PUSH1 0x7 PUSH1 0x0 DUP7 DUP2 MSTORE PUSH1 0x20 ADD SWAP1 DUP2 MSTORE PUSH1 0x20 ADD PUSH1 0x0 KECCAK256 SLOAD SWAP1 POP PUSH2 0x1FFD JUMP JUMPDEST PUSH1 0xC SLOAD DUP6 EQ ISZERO PUSH2 0x1FFC JUMPI PUSH1 0x0 PUSH2 0x1F17 PUSH1 0xC SLOAD PUSH2 0x30C4 JUMP JUMPDEST SWAP1 POP PUSH32 0x0 DUP2 GT ISZERO PUSH2 0x1F69 JUMPI PUSH32 0x0 SWAP1 POP PUSH2 0x1FC9 JUMP JUMPDEST PUSH1 0x0 DUP2 EQ ISZERO PUSH2 0x1F7B JUMPI PUSH1 0x0 SWAP1 POP PUSH2 0x1FC8 JUMP JUMPDEST PUSH32 0x0 DUP2 LT ISZERO PUSH2 0x1FC7 JUMPI PUSH32 0x0 SWAP1 POP JUMPDEST JUMPDEST JUMPDEST PUSH2 0x1FF8 PUSH1 0xC SLOAD PUSH1 0xA SLOAD PUSH2 0x1FDC SWAP2 SWAP1 PUSH2 0x3E9A JUMP JUMPDEST PUSH1 0x9 SLOAD PUSH2 0x1FE9 SWAP2 SWAP1 PUSH2 0x3EFD JUMP JUMPDEST DUP3 PUSH8 0xDE0B6B3A7640000 PUSH2 0x271B JUMP JUMPDEST SWAP2 POP POP JUMPDEST JUMPDEST PUSH2 0x2010 DUP3 DUP3 PUSH8 0xDE0B6B3A7640000 PUSH2 0x271B JUMP JUMPDEST DUP4 PUSH2 0x201B SWAP2 SWAP1 PUSH2 0x3A18 JUMP JUMPDEST SWAP3 POP POP JUMPDEST DUP2 SWAP3 POP POP POP SWAP2 SWAP1 POP JUMP JUMPDEST PUSH1 0x60 PUSH1 0xD PUSH1 0x0 SWAP1 SLOAD SWAP1 PUSH2 0x100 EXP SWAP1 DIV PUSH20 0xFFFFFFFFFFFFFFFFFFFFFFFFFFFFFFFFFFFFFFFF AND PUSH20 0xFFFFFFFFFFFFFFFFFFFFFFFFFFFFFFFFFFFFFFFF AND DUP6 DUP6 PUSH1 0x0 DUP2 DUP2 LT PUSH2 0x2078 JUMPI PUSH2 0x2077 PUSH2 0x3AE6 JUMP JUMPDEST JUMPDEST SWAP1 POP PUSH1 0x20 MUL ADD PUSH1 0x20 DUP2 ADD SWAP1 PUSH2 0x208D SWAP2 SWAP1 PUSH2 0x39BC JUMP JUMPDEST PUSH20 0xFFFFFFFFFFFFFFFFFFFFFFFFFFFFFFFFFFFFFFFF AND EQ PUSH2 0x20E3 JUMPI PUSH1 0x40 MLOAD PUSH32 0x8C379A000000000000000000000000000000000000000000000000000000000 DUP2 MSTORE PUSH1 0x4 ADD PUSH2 0x20DA SWAP1 PUSH2 0x3FA0 JUMP JUMPDEST PUSH1 0x40 MLOAD DUP1 SWAP2 SUB SWAP1 REVERT JUMPDEST PUSH1 0x2 PUSH1 0x0 SWAP1 SLOAD SWAP1 PUSH2 0x100 EXP SWAP1 DIV PUSH20 0xFFFFFFFFFFFFFFFFFFFFFFFFFFFFFFFFFFFFFFFF AND PUSH20 0xFFFFFFFFFFFFFFFFFFFFFFFFFFFFFFFFFFFFFFFF AND DUP6 DUP6 PUSH1 0x1 DUP9 DUP9 SWAP1 POP PUSH2 0x212E SWAP2 SWAP1 PUSH2 0x3E9A JUMP JUMPDEST DUP2 DUP2 LT PUSH2 0x213E JUMPI PUSH2 0x213D PUSH2 0x3AE6 JUMP JUMPDEST JUMPDEST SWAP1 POP PUSH1 0x20 MUL ADD PUSH1 0x20 DUP2 ADD SWAP1 PUSH2 0x2153 SWAP2 SWAP1 PUSH2 0x39BC JUMP JUMPDEST PUSH20 0xFFFFFFFFFFFFFFFFFFFFFFFFFFFFFFFFFFFFFFFF AND EQ PUSH2 0x21A9 JUMPI PUSH1 0x40 MLOAD PUSH32 0x8C379A000000000000000000000000000000000000000000000000000000000 DUP2 MSTORE PUSH1 0x4 ADD PUSH2 0x21A0 SWAP1 PUSH2 0x3FA0 JUMP JUMPDEST PUSH1 0x40 MLOAD DUP1 SWAP2 SUB SWAP1 REVERT JUMPDEST PUSH1 0x0 CALLVALUE GT PUSH2 0x21EC JUMPI PUSH1 0x40 MLOAD PUSH32 0x8C379A000000000000000000000000000000000000000000000000000000000 DUP2 MSTORE PUSH1 0x4 ADD PUSH2 0x21E3 SWAP1 PUSH2 0x416E JUMP JUMPDEST PUSH1 0x40 MLOAD DUP1 SWAP2 SUB SWAP1 REVERT JUMPDEST PUSH2 0x2244 PUSH2 0x21F7 PUSH2 0xEBC JUMP JUMPDEST PUSH1 0x8 PUSH1 0x0 CALLER PUSH20 0xFFFFFFFFFFFFFFFFFFFFFFFFFFFFFFFFFFFFFFFF AND PUSH20 0xFFFFFFFFFFFFFFFFFFFFFFFFFFFFFFFFFFFFFFFF AND DUP2 MSTORE PUSH1 0x20 ADD SWAP1 DUP2 MSTORE PUSH1 0x20 ADD PUSH1 0x0 KECCAK256 PUSH2 0x2C80 SWAP1 SWAP2 SWAP1 PUSH4 0xFFFFFFFF AND JUMP JUMPDEST ISZERO DUP1 ISZERO PUSH2 0x2259 JUMPI POP PUSH1 0xA SLOAD PUSH2 0x2257 PUSH2 0xEBC JUMP JUMPDEST LT JUMPDEST ISZERO PUSH2 0x22B8 JUMPI PUSH2 0x22B6 PUSH2 0x2269 PUSH2 0xEBC JUMP JUMPDEST PUSH1 0x8 PUSH1 0x0 CALLER PUSH20 0xFFFFFFFFFFFFFFFFFFFFFFFFFFFFFFFFFFFFFFFF AND PUSH20 0xFFFFFFFFFFFFFFFFFFFFFFFFFFFFFFFFFFFFFFFF AND DUP2 MSTORE PUSH1 0x20 ADD SWAP1 DUP2 MSTORE PUSH1 0x20 ADD PUSH1 0x0 KECCAK256 PUSH2 0x2C9A SWAP1 SWAP2 SWAP1 PUSH4 0xFFFFFFFF AND JUMP JUMPDEST POP JUMPDEST PUSH1 0x1 PUSH1 0x0 SWAP1 SLOAD SWAP1 PUSH2 0x100 EXP SWAP1 DIV PUSH20 0xFFFFFFFFFFFFFFFFFFFFFFFFFFFFFFFFFFFFFFFF AND PUSH20 0xFFFFFFFFFFFFFFFFFFFFFFFFFFFFFFFFFFFFFFFF AND PUSH4 0xA2A1623D CALLVALUE DUP9 DUP9 DUP9 DUP9 DUP9 PUSH1 0x40 MLOAD DUP8 PUSH4 0xFFFFFFFF AND PUSH1 0xE0 SHL DUP2 MSTORE PUSH1 0x4 ADD PUSH2 0x231C SWAP6 SWAP5 SWAP4 SWAP3 SWAP2 SWAP1 PUSH2 0x40AE JUMP JUMPDEST PUSH1 0x0 PUSH1 0x40 MLOAD DUP1 DUP4 SUB DUP2 DUP6 DUP9 GAS CALL ISZERO DUP1 ISZERO PUSH2 0x233A JUMPI RETURNDATASIZE PUSH1 0x0 DUP1 RETURNDATACOPY RETURNDATASIZE PUSH1 0x0 REVERT JUMPDEST POP POP POP POP POP PUSH1 0x40 MLOAD RETURNDATASIZE PUSH1 0x0 DUP3 RETURNDATACOPY RETURNDATASIZE PUSH1 0x1F NOT PUSH1 0x1F DUP3 ADD AND DUP3 ADD DUP1 PUSH1 0x40 MSTORE POP DUP2 ADD SWAP1 PUSH2 0x2364 SWAP2 SWAP1 PUSH2 0x3E51 JUMP JUMPDEST SWAP1 POP PUSH1 0xA SLOAD PUSH1 0xC SLOAD EQ PUSH2 0x23A2 JUMPI PUSH2 0x23A1 DUP2 PUSH1 0x1 DUP4 MLOAD PUSH2 0x2383 SWAP2 SWAP1 PUSH2 0x3E9A JUMP JUMPDEST DUP2 MLOAD DUP2 LT PUSH2 0x2394 JUMPI PUSH2 0x2393 PUSH2 0x3AE6 JUMP JUMPDEST JUMPDEST PUSH1 0x20 MUL PUSH1 0x20 ADD ADD MLOAD PUSH2 0x2DC6 JUMP JUMPDEST JUMPDEST SWAP6 SWAP5 POP POP POP POP POP JUMP JUMPDEST PUSH1 0x7 PUSH1 0x20 MSTORE DUP1 PUSH1 0x0 MSTORE PUSH1 0x40 PUSH1 0x0 KECCAK256 PUSH1 0x0 SWAP2 POP SWAP1 POP SLOAD DUP2 JUMP JUMPDEST PUSH2 0x23CB PUSH2 0x2BEF JUMP JUMPDEST PUSH20 0xFFFFFFFFFFFFFFFFFFFFFFFFFFFFFFFFFFFFFFFF AND PUSH2 0x23E9 PUSH2 0x1DA9 JUMP JUMPDEST PUSH20 0xFFFFFFFFFFFFFFFFFFFFFFFFFFFFFFFFFFFFFFFF AND EQ PUSH2 0x243F JUMPI PUSH1 0x40 MLOAD PUSH32 0x8C379A000000000000000000000000000000000000000000000000000000000 DUP2 MSTORE PUSH1 0x4 ADD PUSH2 0x2436 SWAP1 PUSH2 0x3C07 JUMP JUMPDEST PUSH1 0x40 MLOAD DUP1 SWAP2 SUB SWAP1 REVERT JUMPDEST DUP1 PUSH1 0x9 SLOAD LT ISZERO PUSH2 0x2484 JUMPI PUSH1 0x40 MLOAD PUSH32 0x8C379A000000000000000000000000000000000000000000000000000000000 DUP2 MSTORE PUSH1 0x4 ADD PUSH2 0x247B SWAP1 PUSH2 0x4200 JUMP JUMPDEST PUSH1 0x40 MLOAD DUP1 SWAP2 SUB SWAP1 REVERT JUMPDEST DUP1 PUSH1 0x9 PUSH1 0x0 DUP3 DUP3 SLOAD PUSH2 0x2496 SWAP2 SWAP1 PUSH2 0x3E9A JUMP JUMPDEST SWAP3 POP POP DUP2 SWAP1 SSTORE POP PUSH2 0x24EA CALLER DUP3 PUSH1 0x3 PUSH1 0x0 SWAP1 SLOAD SWAP1 PUSH2 0x100 EXP SWAP1 DIV PUSH20 0xFFFFFFFFFFFFFFFFFFFFFFFFFFFFFFFFFFFFFFFF AND PUSH20 0xFFFFFFFFFFFFFFFFFFFFFFFFFFFFFFFFFFFFFFFF AND PUSH2 0x2B69 SWAP1 SWAP3 SWAP2 SWAP1 PUSH4 0xFFFFFFFF AND JUMP JUMPDEST POP JUMP JUMPDEST PUSH1 0x4 PUSH1 0x20 MSTORE DUP1 PUSH1 0x0 MSTORE PUSH1 0x40 PUSH1 0x0 KECCAK256 PUSH1 0x0 SWAP2 POP SWAP1 POP SLOAD DUP2 JUMP JUMPDEST PUSH1 0x60 PUSH1 0x1 PUSH1 0x0 SWAP1 SLOAD SWAP1 PUSH2 0x100 EXP SWAP1 DIV PUSH20 0xFFFFFFFFFFFFFFFFFFFFFFFFFFFFFFFFFFFFFFFF AND PUSH20 0xFFFFFFFFFFFFFFFFFFFFFFFFFFFFFFFFFFFFFFFF AND PUSH4 0xD06CA61F DUP6 DUP6 DUP6 PUSH1 0x40 MLOAD DUP5 PUSH4 0xFFFFFFFF AND PUSH1 0xE0 SHL DUP2 MSTORE PUSH1 0x4 ADD PUSH2 0x2566 SWAP4 SWAP3 SWAP2 SWAP1 PUSH2 0x3CEA JUMP JUMPDEST PUSH1 0x0 PUSH1 0x40 MLOAD DUP1 DUP4 SUB DUP2 DUP7 GAS STATICCALL ISZERO DUP1 ISZERO PUSH2 0x2583 JUMPI RETURNDATASIZE PUSH1 0x0 DUP1 RETURNDATACOPY RETURNDATASIZE PUSH1 0x0 REVERT JUMPDEST POP POP POP POP PUSH1 0x40 MLOAD RETURNDATASIZE PUSH1 0x0 DUP3 RETURNDATACOPY RETURNDATASIZE PUSH1 0x1F NOT PUSH1 0x1F DUP3 ADD AND DUP3 ADD DUP1 PUSH1 0x40 MSTORE POP DUP2 ADD SWAP1 PUSH2 0x25AC SWAP2 SWAP1 PUSH2 0x3E51 JUMP JUMPDEST SWAP1 POP SWAP4 SWAP3 POP POP POP JUMP JUMPDEST PUSH1 0x0 PUSH2 0x25BF PUSH2 0xEBC JUMP JUMPDEST PUSH1 0x1 PUSH1 0xC SLOAD PUSH2 0x25CE SWAP2 SWAP1 PUSH2 0x3A18 JUMP JUMPDEST GT ISZERO DUP1 ISZERO PUSH2 0x25E0 JUMPI POP PUSH1 0xA SLOAD PUSH1 0xC SLOAD EQ ISZERO JUMPDEST ISZERO DUP1 PUSH2 0x25EF JUMPI POP PUSH1 0xA SLOAD PUSH1 0xC SLOAD EQ JUMPDEST SWAP1 POP SWAP1 JUMP JUMPDEST PUSH2 0x25FC PUSH2 0x2BEF JUMP JUMPDEST PUSH20 0xFFFFFFFFFFFFFFFFFFFFFFFFFFFFFFFFFFFFFFFF AND PUSH2 0x261A PUSH2 0x1DA9 JUMP JUMPDEST PUSH20 0xFFFFFFFFFFFFFFFFFFFFFFFFFFFFFFFFFFFFFFFF AND EQ PUSH2 0x2670 JUMPI PUSH1 0x40 MLOAD PUSH32 0x8C379A000000000000000000000000000000000000000000000000000000000 DUP2 MSTORE PUSH1 0x4 ADD PUSH2 0x2667 SWAP1 PUSH2 0x3C07 JUMP JUMPDEST PUSH1 0x40 MLOAD DUP1 SWAP2 SUB SWAP1 REVERT JUMPDEST PUSH1 0x0 PUSH20 0xFFFFFFFFFFFFFFFFFFFFFFFFFFFFFFFFFFFFFFFF AND DUP2 PUSH20 0xFFFFFFFFFFFFFFFFFFFFFFFFFFFFFFFFFFFFFFFF AND EQ ISZERO PUSH2 0x26E0 JUMPI PUSH1 0x40 MLOAD PUSH32 0x8C379A000000000000000000000000000000000000000000000000000000000 DUP2 MSTORE PUSH1 0x4 ADD PUSH2 0x26D7 SWAP1 PUSH2 0x4292 JUMP JUMPDEST PUSH1 0x40 MLOAD DUP1 SWAP2 SUB SWAP1 REVERT JUMPDEST PUSH2 0x26E9 DUP2 PUSH2 0x2EB1 JUMP JUMPDEST POP JUMP JUMPDEST PUSH1 0x0 PUSH2 0x26FA DUP3 PUSH1 0x0 ADD PUSH2 0x3106 JUMP JUMPDEST SWAP1 POP SWAP2 SWAP1 POP JUMP JUMPDEST PUSH1 0x0 PUSH2 0x2710 DUP4 PUSH1 0x0 ADD DUP4 PUSH2 0x3117 JUMP JUMPDEST PUSH1 0x0 SHR SWAP1 POP SWAP3 SWAP2 POP POP JUMP JUMPDEST PUSH1 0x0 DUP1 DUP3 GT PUSH2 0x2729 JUMPI PUSH1 0x0 DUP1 REVERT JUMPDEST PUSH1 0x0 DUP1 PUSH1 0x0 NOT DUP6 DUP8 MULMOD DUP6 DUP8 MUL SWAP3 POP DUP3 DUP2 LT DUP4 DUP3 SUB SUB SWAP2 POP POP PUSH1 0x0 DUP2 EQ ISZERO PUSH2 0x2756 JUMPI DUP4 DUP3 DIV SWAP3 POP POP POP PUSH2 0x28B5 JUMP JUMPDEST DUP4 DUP2 LT PUSH2 0x2762 JUMPI PUSH1 0x0 DUP1 REVERT JUMPDEST PUSH1 0x0 DUP5 DUP7 DUP9 MULMOD SWAP1 POP DUP3 DUP2 GT DUP3 SUB SWAP2 POP DUP1 DUP4 SUB SWAP3 POP PUSH1 0x0 PUSH1 0x1 DUP7 NOT PUSH2 0x2786 SWAP2 SWAP1 PUSH2 0x3A18 JUMP JUMPDEST DUP7 AND SWAP1 POP DUP1 DUP7 DIV SWAP6 POP DUP1 DUP5 DIV SWAP4 POP PUSH1 0x1 DUP2 DUP3 PUSH1 0x0 SUB DIV ADD SWAP1 POP DUP1 DUP4 PUSH2 0x27AB SWAP2 SWAP1 PUSH2 0x42B2 JUMP JUMPDEST DUP5 OR SWAP4 POP PUSH1 0x0 PUSH1 0x2 DUP8 PUSH1 0x3 PUSH2 0x27C0 SWAP2 SWAP1 PUSH2 0x42B2 JUMP JUMPDEST XOR SWAP1 POP DUP1 DUP8 PUSH2 0x27CF SWAP2 SWAP1 PUSH2 0x42B2 JUMP JUMPDEST PUSH1 0x2 PUSH2 0x27DB SWAP2 SWAP1 PUSH2 0x3E9A JUMP JUMPDEST DUP2 PUSH2 0x27E6 SWAP2 SWAP1 PUSH2 0x42B2 JUMP JUMPDEST SWAP1 POP DUP1 DUP8 PUSH2 0x27F4 SWAP2 SWAP1 PUSH2 0x42B2 JUMP JUMPDEST PUSH1 0x2 PUSH2 0x2800 SWAP2 SWAP1 PUSH2 0x3E9A JUMP JUMPDEST DUP2 PUSH2 0x280B SWAP2 SWAP1 PUSH2 0x42B2 JUMP JUMPDEST SWAP1 POP DUP1 DUP8 PUSH2 0x2819 SWAP2 SWAP1 PUSH2 0x42B2 JUMP JUMPDEST PUSH1 0x2 PUSH2 0x2825 SWAP2 SWAP1 PUSH2 0x3E9A JUMP JUMPDEST DUP2 PUSH2 0x2830 SWAP2 SWAP1 PUSH2 0x42B2 JUMP JUMPDEST SWAP1 POP DUP1 DUP8 PUSH2 0x283E SWAP2 SWAP1 PUSH2 0x42B2 JUMP JUMPDEST PUSH1 0x2 PUSH2 0x284A SWAP2 SWAP1 PUSH2 0x3E9A JUMP JUMPDEST DUP2 PUSH2 0x2855 SWAP2 SWAP1 PUSH2 0x42B2 JUMP JUMPDEST SWAP1 POP DUP1 DUP8 PUSH2 0x2863 SWAP2 SWAP1 PUSH2 0x42B2 JUMP JUMPDEST PUSH1 0x2 PUSH2 0x286F SWAP2 SWAP1 PUSH2 0x3E9A JUMP JUMPDEST DUP2 PUSH2 0x287A SWAP2 SWAP1 PUSH2 0x42B2 JUMP JUMPDEST SWAP1 POP DUP1 DUP8 PUSH2 0x2888 SWAP2 SWAP1 PUSH2 0x42B2 JUMP JUMPDEST PUSH1 0x2 PUSH2 0x2894 SWAP2 SWAP1 PUSH2 0x3E9A JUMP JUMPDEST DUP2 PUSH2 0x289F SWAP2 SWAP1 PUSH2 0x42B2 JUMP JUMPDEST SWAP1 POP DUP1 DUP6 PUSH2 0x28AD SWAP2 SWAP1 PUSH2 0x42B2 JUMP JUMPDEST SWAP6 POP POP POP POP POP POP JUMPDEST SWAP4 SWAP3 POP POP POP JUMP JUMPDEST PUSH1 0x0 PUSH2 0x28C6 PUSH2 0xEBC JUMP JUMPDEST SWAP1 POP PUSH1 0x0 PUSH1 0x1 PUSH1 0xC SLOAD PUSH1 0xB SLOAD PUSH2 0x28DC SWAP2 SWAP1 PUSH2 0x3A18 JUMP JUMPDEST PUSH2 0x28E6 SWAP2 SWAP1 PUSH2 0x3A18 JUMP JUMPDEST SWAP1 POP DUP2 PUSH1 0x1 PUSH1 0xC SLOAD PUSH2 0x28F8 SWAP2 SWAP1 PUSH2 0x3A18 JUMP JUMPDEST GT ISZERO PUSH2 0x2907 JUMPI PUSH2 0x2906 PUSH2 0x430C JUMP JUMPDEST JUMPDEST DUP1 PUSH1 0x6 PUSH1 0x0 PUSH1 0xC SLOAD DUP2 MSTORE PUSH1 0x20 ADD SWAP1 DUP2 MSTORE PUSH1 0x20 ADD PUSH1 0x0 KECCAK256 SLOAD PUSH2 0x2928 SWAP2 SWAP1 PUSH2 0x3EFD JUMP JUMPDEST PUSH2 0x2954 PUSH1 0x4 PUSH1 0x0 PUSH1 0xC SLOAD DUP2 MSTORE PUSH1 0x20 ADD SWAP1 DUP2 MSTORE PUSH1 0x20 ADD PUSH1 0x0 KECCAK256 SLOAD PUSH1 0x1 DUP5 PUSH2 0x294E SWAP2 SWAP1 PUSH2 0x3E9A JUMP JUMPDEST DUP5 PUSH2 0x271B JUMP JUMPDEST PUSH2 0x295E SWAP2 SWAP1 PUSH2 0x3A18 JUMP JUMPDEST PUSH1 0x4 PUSH1 0x0 PUSH1 0x1 PUSH1 0xC SLOAD PUSH2 0x2971 SWAP2 SWAP1 PUSH2 0x3A18 JUMP JUMPDEST DUP2 MSTORE PUSH1 0x20 ADD SWAP1 DUP2 MSTORE PUSH1 0x20 ADD PUSH1 0x0 KECCAK256 DUP2 SWAP1 SSTORE POP PUSH1 0x0 PUSH2 0x2990 PUSH1 0xC SLOAD PUSH2 0x30C4 JUMP JUMPDEST SWAP1 POP PUSH32 0x0 DUP2 GT ISZERO PUSH2 0x29E2 JUMPI PUSH32 0x0 SWAP1 POP PUSH2 0x2A42 JUMP JUMPDEST PUSH1 0x0 DUP2 EQ ISZERO PUSH2 0x29F4 JUMPI PUSH1 0x0 SWAP1 POP PUSH2 0x2A41 JUMP JUMPDEST PUSH32 0x0 DUP2 LT ISZERO PUSH2 0x2A40 JUMPI PUSH32 0x0 SWAP1 POP JUMPDEST JUMPDEST JUMPDEST PUSH1 0x1 PUSH1 0xA SLOAD PUSH2 0x2A51 SWAP2 SWAP1 PUSH2 0x3E9A JUMP JUMPDEST PUSH1 0xC SLOAD EQ DUP1 ISZERO PUSH2 0x2A68 JUMPI POP PUSH8 0xDE0B6B3A7640000 DUP2 GT JUMPDEST ISZERO PUSH2 0x2A8E JUMPI PUSH1 0x9 SLOAD PUSH1 0x7 PUSH1 0x0 PUSH1 0xC SLOAD DUP2 MSTORE PUSH1 0x20 ADD SWAP1 DUP2 MSTORE PUSH1 0x20 ADD PUSH1 0x0 KECCAK256 DUP2 SWAP1 SSTORE POP PUSH2 0x2AD7 JUMP JUMPDEST PUSH2 0x2ABD PUSH1 0xC SLOAD PUSH1 0xA SLOAD PUSH2 0x2AA1 SWAP2 SWAP1 PUSH2 0x3E9A JUMP JUMPDEST PUSH1 0x9 SLOAD PUSH2 0x2AAE SWAP2 SWAP1 PUSH2 0x3EFD JUMP JUMPDEST DUP3 PUSH8 0xDE0B6B3A7640000 PUSH2 0x271B JUMP JUMPDEST PUSH1 0x7 PUSH1 0x0 PUSH1 0xC SLOAD DUP2 MSTORE PUSH1 0x20 ADD SWAP1 DUP2 MSTORE PUSH1 0x20 ADD PUSH1 0x0 KECCAK256 DUP2 SWAP1 SSTORE POP JUMPDEST PUSH1 0x7 PUSH1 0x0 PUSH1 0xC SLOAD DUP2 MSTORE PUSH1 0x20 ADD SWAP1 DUP2 MSTORE PUSH1 0x20 ADD PUSH1 0x0 KECCAK256 SLOAD PUSH1 0x9 SLOAD PUSH2 0x2AFA SWAP2 SWAP1 PUSH2 0x3E9A JUMP JUMPDEST PUSH1 0x9 DUP2 SWAP1 SSTORE POP PUSH1 0x1 PUSH1 0xC PUSH1 0x0 DUP3 DUP3 SLOAD PUSH2 0x2B13 SWAP2 SWAP1 PUSH2 0x3A18 JUMP JUMPDEST SWAP3 POP POP DUP2 SWAP1 SSTORE POP DUP3 PUSH1 0x1 PUSH1 0xC SLOAD PUSH2 0x2B2A SWAP2 SWAP1 PUSH2 0x3A18 JUMP JUMPDEST GT ISZERO DUP1 ISZERO PUSH2 0x2B3C JUMPI POP PUSH1 0xA SLOAD PUSH1 0xC SLOAD EQ ISZERO JUMPDEST ISZERO PUSH2 0x2B4A JUMPI PUSH2 0x2B49 PUSH2 0x28BC JUMP JUMPDEST JUMPDEST POP POP POP JUMP JUMPDEST PUSH1 0x0 PUSH2 0x2B61 DUP4 PUSH1 0x0 ADD DUP4 PUSH1 0x0 SHL PUSH2 0x3142 JUMP JUMPDEST SWAP1 POP SWAP3 SWAP2 POP POP JUMP JUMPDEST PUSH2 0x2BEA DUP4 PUSH4 0xA9059CBB PUSH1 0xE0 SHL DUP5 DUP5 PUSH1 0x40 MLOAD PUSH1 0x24 ADD PUSH2 0x2B88 SWAP3 SWAP2 SWAP1 PUSH2 0x3B92 JUMP JUMPDEST PUSH1 0x40 MLOAD PUSH1 0x20 DUP2 DUP4 SUB SUB DUP2 MSTORE SWAP1 PUSH1 0x40 MSTORE SWAP1 PUSH28 0xFFFFFFFFFFFFFFFFFFFFFFFFFFFFFFFFFFFFFFFFFFFFFFFFFFFFFFFF NOT AND PUSH1 0x20 DUP3 ADD DUP1 MLOAD PUSH28 0xFFFFFFFFFFFFFFFFFFFFFFFFFFFFFFFFFFFFFFFFFFFFFFFFFFFFFFFF DUP4 DUP2 DUP4 AND OR DUP4 MSTORE POP POP POP POP PUSH2 0x3256 JUMP JUMPDEST POP POP POP JUMP JUMPDEST PUSH1 0x0 CALLER SWAP1 POP SWAP1 JUMP JUMPDEST PUSH2 0x2C7A DUP5 PUSH4 0x23B872DD PUSH1 0xE0 SHL DUP6 DUP6 DUP6 PUSH1 0x40 MLOAD PUSH1 0x24 ADD PUSH2 0x2C18 SWAP4 SWAP3 SWAP2 SWAP1 PUSH2 0x433B JUMP JUMPDEST PUSH1 0x40 MLOAD PUSH1 0x20 DUP2 DUP4 SUB SUB DUP2 MSTORE SWAP1 PUSH1 0x40 MSTORE SWAP1 PUSH28 0xFFFFFFFFFFFFFFFFFFFFFFFFFFFFFFFFFFFFFFFFFFFFFFFFFFFFFFFF NOT AND PUSH1 0x20 DUP3 ADD DUP1 MLOAD PUSH28 0xFFFFFFFFFFFFFFFFFFFFFFFFFFFFFFFFFFFFFFFFFFFFFFFFFFFFFFFF DUP4 DUP2 DUP4 AND OR DUP4 MSTORE POP POP POP POP PUSH2 0x3256 JUMP JUMPDEST POP POP POP POP JUMP JUMPDEST PUSH1 0x0 PUSH2 0x2C92 DUP4 PUSH1 0x0 ADD DUP4 PUSH1 0x0 SHL PUSH2 0x331D JUMP JUMPDEST SWAP1 POP SWAP3 SWAP2 POP POP JUMP JUMPDEST PUSH1 0x0 PUSH2 0x2CAC DUP4 PUSH1 0x0 ADD DUP4 PUSH1 0x0 SHL PUSH2 0x3340 JUMP JUMPDEST SWAP1 POP SWAP3 SWAP2 POP POP JUMP JUMPDEST PUSH1 0x0 DUP2 DUP5 PUSH20 0xFFFFFFFFFFFFFFFFFFFFFFFFFFFFFFFFFFFFFFFF AND PUSH4 0xDD62ED3E ADDRESS DUP7 PUSH1 0x40 MLOAD DUP4 PUSH4 0xFFFFFFFF AND PUSH1 0xE0 SHL DUP2 MSTORE PUSH1 0x4 ADD PUSH2 0x2CF2 SWAP3 SWAP2 SWAP1 PUSH2 0x4372 JUMP JUMPDEST PUSH1 0x20 PUSH1 0x40 MLOAD DUP1 DUP4 SUB DUP2 DUP7 GAS STATICCALL ISZERO DUP1 ISZERO PUSH2 0x2D0F JUMPI RETURNDATASIZE PUSH1 0x0 DUP1 RETURNDATACOPY RETURNDATASIZE PUSH1 0x0 REVERT JUMPDEST POP POP POP POP PUSH1 0x40 MLOAD RETURNDATASIZE PUSH1 0x1F NOT PUSH1 0x1F DUP3 ADD AND DUP3 ADD DUP1 PUSH1 0x40 MSTORE POP DUP2 ADD SWAP1 PUSH2 0x2D33 SWAP2 SWAP1 PUSH2 0x439B JUMP JUMPDEST PUSH2 0x2D3D SWAP2 SWAP1 PUSH2 0x3A18 JUMP JUMPDEST SWAP1 POP PUSH2 0x2DC0 DUP5 PUSH4 0x95EA7B3 PUSH1 0xE0 SHL DUP6 DUP5 PUSH1 0x40 MLOAD PUSH1 0x24 ADD PUSH2 0x2D5E SWAP3 SWAP2 SWAP1 PUSH2 0x3B92 JUMP JUMPDEST PUSH1 0x40 MLOAD PUSH1 0x20 DUP2 DUP4 SUB SUB DUP2 MSTORE SWAP1 PUSH1 0x40 MSTORE SWAP1 PUSH28 0xFFFFFFFFFFFFFFFFFFFFFFFFFFFFFFFFFFFFFFFFFFFFFFFFFFFFFFFF NOT AND PUSH1 0x20 DUP3 ADD DUP1 MLOAD PUSH28 0xFFFFFFFFFFFFFFFFFFFFFFFFFFFFFFFFFFFFFFFFFFFFFFFFFFFFFFFF DUP4 DUP2 DUP4 AND OR DUP4 MSTORE POP POP POP POP PUSH2 0x3256 JUMP JUMPDEST POP POP POP POP JUMP JUMPDEST PUSH1 0xA SLOAD PUSH2 0x2DD1 PUSH2 0xEBC JUMP JUMPDEST LT ISZERO PUSH2 0x2E77 JUMPI DUP1 PUSH1 0x5 PUSH1 0x0 CALLER PUSH20 0xFFFFFFFFFFFFFFFFFFFFFFFFFFFFFFFFFFFFFFFF AND PUSH20 0xFFFFFFFFFFFFFFFFFFFFFFFFFFFFFFFFFFFFFFFF AND DUP2 MSTORE PUSH1 0x20 ADD SWAP1 DUP2 MSTORE PUSH1 0x20 ADD PUSH1 0x0 KECCAK256 PUSH1 0x0 PUSH2 0x2E21 PUSH2 0xEBC JUMP JUMPDEST DUP2 MSTORE PUSH1 0x20 ADD SWAP1 DUP2 MSTORE PUSH1 0x20 ADD PUSH1 0x0 KECCAK256 PUSH1 0x0 DUP3 DUP3 SLOAD PUSH2 0x2E3E SWAP2 SWAP1 PUSH2 0x3A18 JUMP JUMPDEST SWAP3 POP POP DUP2 SWAP1 SSTORE POP DUP1 PUSH1 0x6 PUSH1 0x0 PUSH2 0x2E52 PUSH2 0xEBC JUMP JUMPDEST DUP2 MSTORE PUSH1 0x20 ADD SWAP1 DUP2 MSTORE PUSH1 0x20 ADD PUSH1 0x0 KECCAK256 PUSH1 0x0 DUP3 DUP3 SLOAD PUSH2 0x2E6F SWAP2 SWAP1 PUSH2 0x3A18 JUMP JUMPDEST SWAP3 POP POP DUP2 SWAP1 SSTORE POP JUMPDEST PUSH2 0x2E7F PUSH2 0xEBC JUMP JUMPDEST PUSH1 0x1 PUSH1 0xC SLOAD PUSH2 0x2E8E SWAP2 SWAP1 PUSH2 0x3A18 JUMP JUMPDEST GT ISZERO DUP1 ISZERO PUSH2 0x2EA0 JUMPI POP PUSH1 0xA SLOAD PUSH1 0xC SLOAD EQ ISZERO JUMPDEST ISZERO PUSH2 0x2EAE JUMPI PUSH2 0x2EAD PUSH2 0x28BC JUMP JUMPDEST JUMPDEST POP JUMP JUMPDEST PUSH1 0x0 DUP1 PUSH1 0x0 SWAP1 SLOAD SWAP1 PUSH2 0x100 EXP SWAP1 DIV PUSH20 0xFFFFFFFFFFFFFFFFFFFFFFFFFFFFFFFFFFFFFFFF AND SWAP1 POP DUP2 PUSH1 0x0 DUP1 PUSH2 0x100 EXP DUP2 SLOAD DUP2 PUSH20 0xFFFFFFFFFFFFFFFFFFFFFFFFFFFFFFFFFFFFFFFF MUL NOT AND SWAP1 DUP4 PUSH20 0xFFFFFFFFFFFFFFFFFFFFFFFFFFFFFFFFFFFFFFFF AND MUL OR SWAP1 SSTORE POP DUP2 PUSH20 0xFFFFFFFFFFFFFFFFFFFFFFFFFFFFFFFFFFFFFFFF AND DUP2 PUSH20 0xFFFFFFFFFFFFFFFFFFFFFFFFFFFFFFFFFFFFFFFF AND PUSH32 0x8BE0079C531659141344CD1FD0A4F28419497F9722A3DAAFE3B4186F6B6457E0 PUSH1 0x40 MLOAD PUSH1 0x40 MLOAD DUP1 SWAP2 SUB SWAP1 LOG3 POP POP JUMP JUMPDEST PUSH1 0x0 DUP2 EQ DUP1 PUSH2 0x2FFF JUMPI POP PUSH1 0x0 DUP4 PUSH20 0xFFFFFFFFFFFFFFFFFFFFFFFFFFFFFFFFFFFFFFFF AND PUSH4 0xDD62ED3E ADDRESS DUP6 PUSH1 0x40 MLOAD DUP4 PUSH4 0xFFFFFFFF AND PUSH1 0xE0 SHL DUP2 MSTORE PUSH1 0x4 ADD PUSH2 0x2FBC SWAP3 SWAP2 SWAP1 PUSH2 0x4372 JUMP JUMPDEST PUSH1 0x20 PUSH1 0x40 MLOAD DUP1 DUP4 SUB DUP2 DUP7 GAS STATICCALL ISZERO DUP1 ISZERO PUSH2 0x2FD9 JUMPI RETURNDATASIZE PUSH1 0x0 DUP1 RETURNDATACOPY RETURNDATASIZE PUSH1 0x0 REVERT JUMPDEST POP POP POP POP PUSH1 0x40 MLOAD RETURNDATASIZE PUSH1 0x1F NOT PUSH1 0x1F DUP3 ADD AND DUP3 ADD DUP1 PUSH1 0x40 MSTORE POP DUP2 ADD SWAP1 PUSH2 0x2FFD SWAP2 SWAP1 PUSH2 0x439B JUMP JUMPDEST EQ JUMPDEST PUSH2 0x303E JUMPI PUSH1 0x40 MLOAD PUSH32 0x8C379A000000000000000000000000000000000000000000000000000000000 DUP2 MSTORE PUSH1 0x4 ADD PUSH2 0x3035 SWAP1 PUSH2 0x443A JUMP JUMPDEST PUSH1 0x40 MLOAD DUP1 SWAP2 SUB SWAP1 REVERT JUMPDEST PUSH2 0x30BF DUP4 PUSH4 0x95EA7B3 PUSH1 0xE0 SHL DUP5 DUP5 PUSH1 0x40 MLOAD PUSH1 0x24 ADD PUSH2 0x305D SWAP3 SWAP2 SWAP1 PUSH2 0x3B92 JUMP JUMPDEST PUSH1 0x40 MLOAD PUSH1 0x20 DUP2 DUP4 SUB SUB DUP2 MSTORE SWAP1 PUSH1 0x40 MSTORE SWAP1 PUSH28 0xFFFFFFFFFFFFFFFFFFFFFFFFFFFFFFFFFFFFFFFFFFFFFFFFFFFFFFFF NOT AND PUSH1 0x20 DUP3 ADD DUP1 MLOAD PUSH28 0xFFFFFFFFFFFFFFFFFFFFFFFFFFFFFFFFFFFFFFFFFFFFFFFFFFFFFFFF DUP4 DUP2 DUP4 AND OR DUP4 MSTORE POP POP POP POP PUSH2 0x3256 JUMP JUMPDEST POP POP POP JUMP JUMPDEST PUSH1 0x0 PUSH2 0x30FF PUSH1 0x6 PUSH1 0x0 DUP5 DUP2 MSTORE PUSH1 0x20 ADD SWAP1 DUP2 MSTORE PUSH1 0x20 ADD PUSH1 0x0 KECCAK256 SLOAD PUSH8 0xDE0B6B3A7640000 PUSH1 0x4 PUSH1 0x0 DUP7 DUP2 MSTORE PUSH1 0x20 ADD SWAP1 DUP2 MSTORE PUSH1 0x20 ADD PUSH1 0x0 KECCAK256 SLOAD PUSH2 0x271B JUMP JUMPDEST SWAP1 POP SWAP2 SWAP1 POP JUMP JUMPDEST PUSH1 0x0 DUP2 PUSH1 0x0 ADD DUP1 SLOAD SWAP1 POP SWAP1 POP SWAP2 SWAP1 POP JUMP JUMPDEST PUSH1 0x0 DUP3 PUSH1 0x0 ADD DUP3 DUP2 SLOAD DUP2 LT PUSH2 0x312F JUMPI PUSH2 0x312E PUSH2 0x3AE6 JUMP JUMPDEST JUMPDEST SWAP1 PUSH1 0x0 MSTORE PUSH1 0x20 PUSH1 0x0 KECCAK256 ADD SLOAD SWAP1 POP SWAP3 SWAP2 POP POP JUMP JUMPDEST PUSH1 0x0 DUP1 DUP4 PUSH1 0x1 ADD PUSH1 0x0 DUP5 DUP2 MSTORE PUSH1 0x20 ADD SWAP1 DUP2 MSTORE PUSH1 0x20 ADD PUSH1 0x0 KECCAK256 SLOAD SWAP1 POP PUSH1 0x0 DUP2 EQ PUSH2 0x324A JUMPI PUSH1 0x0 PUSH1 0x1 DUP3 PUSH2 0x3174 SWAP2 SWAP1 PUSH2 0x3E9A JUMP JUMPDEST SWAP1 POP PUSH1 0x0 PUSH1 0x1 DUP7 PUSH1 0x0 ADD DUP1 SLOAD SWAP1 POP PUSH2 0x318C SWAP2 SWAP1 PUSH2 0x3E9A JUMP JUMPDEST SWAP1 POP DUP2 DUP2 EQ PUSH2 0x31FB JUMPI PUSH1 0x0 DUP7 PUSH1 0x0 ADD DUP3 DUP2 SLOAD DUP2 LT PUSH2 0x31AD JUMPI PUSH2 0x31AC PUSH2 0x3AE6 JUMP JUMPDEST JUMPDEST SWAP1 PUSH1 0x0 MSTORE PUSH1 0x20 PUSH1 0x0 KECCAK256 ADD SLOAD SWAP1 POP DUP1 DUP8 PUSH1 0x0 ADD DUP5 DUP2 SLOAD DUP2 LT PUSH2 0x31D1 JUMPI PUSH2 0x31D0 PUSH2 0x3AE6 JUMP JUMPDEST JUMPDEST SWAP1 PUSH1 0x0 MSTORE PUSH1 0x20 PUSH1 0x0 KECCAK256 ADD DUP2 SWAP1 SSTORE POP DUP4 DUP8 PUSH1 0x1 ADD PUSH1 0x0 DUP4 DUP2 MSTORE PUSH1 0x20 ADD SWAP1 DUP2 MSTORE PUSH1 0x20 ADD PUSH1 0x0 KECCAK256 DUP2 SWAP1 SSTORE POP POP JUMPDEST DUP6 PUSH1 0x0 ADD DUP1 SLOAD DUP1 PUSH2 0x320F JUMPI PUSH2 0x320E PUSH2 0x445A JUMP JUMPDEST JUMPDEST PUSH1 0x1 SWAP1 SUB DUP2 DUP2 SWAP1 PUSH1 0x0 MSTORE PUSH1 0x20 PUSH1 0x0 KECCAK256 ADD PUSH1 0x0 SWAP1 SSTORE SWAP1 SSTORE DUP6 PUSH1 0x1 ADD PUSH1 0x0 DUP7 DUP2 MSTORE PUSH1 0x20 ADD SWAP1 DUP2 MSTORE PUSH1 0x20 ADD PUSH1 0x0 KECCAK256 PUSH1 0x0 SWAP1 SSTORE PUSH1 0x1 SWAP4 POP POP POP POP PUSH2 0x3250 JUMP JUMPDEST PUSH1 0x0 SWAP2 POP POP JUMPDEST SWAP3 SWAP2 POP POP JUMP JUMPDEST PUSH1 0x0 PUSH2 0x32B8 DUP3 PUSH1 0x40 MLOAD DUP1 PUSH1 0x40 ADD PUSH1 0x40 MSTORE DUP1 PUSH1 0x20 DUP2 MSTORE PUSH1 0x20 ADD PUSH32 0x5361666545524332303A206C6F772D6C6576656C2063616C6C206661696C6564 DUP2 MSTORE POP DUP6 PUSH20 0xFFFFFFFFFFFFFFFFFFFFFFFFFFFFFFFFFFFFFFFF AND PUSH2 0x33B0 SWAP1 SWAP3 SWAP2 SWAP1 PUSH4 0xFFFFFFFF AND JUMP JUMPDEST SWAP1 POP PUSH1 0x0 DUP2 MLOAD GT ISZERO PUSH2 0x3318 JUMPI DUP1 DUP1 PUSH1 0x20 ADD SWAP1 MLOAD DUP2 ADD SWAP1 PUSH2 0x32D8 SWAP2 SWAP1 PUSH2 0x44B5 JUMP JUMPDEST PUSH2 0x3317 JUMPI PUSH1 0x40 MLOAD PUSH32 0x8C379A000000000000000000000000000000000000000000000000000000000 DUP2 MSTORE PUSH1 0x4 ADD PUSH2 0x330E SWAP1 PUSH2 0x4554 JUMP JUMPDEST PUSH1 0x40 MLOAD DUP1 SWAP2 SUB SWAP1 REVERT JUMPDEST JUMPDEST POP POP POP JUMP JUMPDEST PUSH1 0x0 DUP1 DUP4 PUSH1 0x1 ADD PUSH1 0x0 DUP5 DUP2 MSTORE PUSH1 0x20 ADD SWAP1 DUP2 MSTORE PUSH1 0x20 ADD PUSH1 0x0 KECCAK256 SLOAD EQ ISZERO SWAP1 POP SWAP3 SWAP2 POP POP JUMP JUMPDEST PUSH1 0x0 PUSH2 0x334C DUP4 DUP4 PUSH2 0x331D JUMP JUMPDEST PUSH2 0x33A5 JUMPI DUP3 PUSH1 0x0 ADD DUP3 SWAP1 DUP1 PUSH1 0x1 DUP2 SLOAD ADD DUP1 DUP3 SSTORE DUP1 SWAP2 POP POP PUSH1 0x1 SWAP1 SUB SWAP1 PUSH1 0x0 MSTORE PUSH1 0x20 PUSH1 0x0 KECCAK256 ADD PUSH1 0x0 SWAP1 SWAP2 SWAP1 SWAP2 SWAP1 SWAP2 POP SSTORE DUP3 PUSH1 0x0 ADD DUP1 SLOAD SWAP1 POP DUP4 PUSH1 0x1 ADD PUSH1 0x0 DUP5 DUP2 MSTORE PUSH1 0x20 ADD SWAP1 DUP2 MSTORE PUSH1 0x20 ADD PUSH1 0x0 KECCAK256 DUP2 SWAP1 SSTORE POP PUSH1 0x1 SWAP1 POP PUSH2 0x33AA JUMP JUMPDEST PUSH1 0x0 SWAP1 POP JUMPDEST SWAP3 SWAP2 POP POP JUMP JUMPDEST PUSH1 0x60 PUSH2 0x33BF DUP5 DUP5 PUSH1 0x0 DUP6 PUSH2 0x33C8 JUMP JUMPDEST SWAP1 POP SWAP4 SWAP3 POP POP POP JUMP JUMPDEST PUSH1 0x60 DUP3 SELFBALANCE LT ISZERO PUSH2 0x340D JUMPI PUSH1 0x40 MLOAD PUSH32 0x8C379A000000000000000000000000000000000000000000000000000000000 DUP2 MSTORE PUSH1 0x4 ADD PUSH2 0x3404 SWAP1 PUSH2 0x45E6 JUMP JUMPDEST PUSH1 0x40 MLOAD DUP1 SWAP2 SUB SWAP1 REVERT JUMPDEST PUSH2 0x3416 DUP6 PUSH2 0x34DC JUMP JUMPDEST PUSH2 0x3455 JUMPI PUSH1 0x40 MLOAD PUSH32 0x8C379A000000000000000000000000000000000000000000000000000000000 DUP2 MSTORE PUSH1 0x4 ADD PUSH2 0x344C SWAP1 PUSH2 0x4652 JUMP JUMPDEST PUSH1 0x40 MLOAD DUP1 SWAP2 SUB SWAP1 REVERT JUMPDEST PUSH1 0x0 DUP1 DUP7 PUSH20 0xFFFFFFFFFFFFFFFFFFFFFFFFFFFFFFFFFFFFFFFF AND DUP6 DUP8 PUSH1 0x40 MLOAD PUSH2 0x347E SWAP2 SWAP1 PUSH2 0x46EC JUMP JUMPDEST PUSH1 0x0 PUSH1 0x40 MLOAD DUP1 DUP4 SUB DUP2 DUP6 DUP8 GAS CALL SWAP3 POP POP POP RETURNDATASIZE DUP1 PUSH1 0x0 DUP2 EQ PUSH2 0x34BB JUMPI PUSH1 0x40 MLOAD SWAP2 POP PUSH1 0x1F NOT PUSH1 0x3F RETURNDATASIZE ADD AND DUP3 ADD PUSH1 0x40 MSTORE RETURNDATASIZE DUP3 MSTORE RETURNDATASIZE PUSH1 0x0 PUSH1 0x20 DUP5 ADD RETURNDATACOPY PUSH2 0x34C0 JUMP JUMPDEST PUSH1 0x60 SWAP2 POP JUMPDEST POP SWAP2 POP SWAP2 POP PUSH2 0x34D0 DUP3 DUP3 DUP7 PUSH2 0x34EF JUMP JUMPDEST SWAP3 POP POP POP SWAP5 SWAP4 POP POP POP POP JUMP JUMPDEST PUSH1 0x0 DUP1 DUP3 EXTCODESIZE SWAP1 POP PUSH1 0x0 DUP2 GT SWAP2 POP POP SWAP2 SWAP1 POP JUMP JUMPDEST PUSH1 0x60 DUP4 ISZERO PUSH2 0x34FF JUMPI DUP3 SWAP1 POP PUSH2 0x354F JUMP JUMPDEST PUSH1 0x0 DUP4 MLOAD GT ISZERO PUSH2 0x3512 JUMPI DUP3 MLOAD DUP1 DUP5 PUSH1 0x20 ADD REVERT JUMPDEST DUP2 PUSH1 0x40 MLOAD PUSH32 0x8C379A000000000000000000000000000000000000000000000000000000000 DUP2 MSTORE PUSH1 0x4 ADD PUSH2 0x3546 SWAP2 SWAP1 PUSH2 0x4747 JUMP JUMPDEST PUSH1 0x40 MLOAD DUP1 SWAP2 SUB SWAP1 REVERT JUMPDEST SWAP4 SWAP3 POP POP POP JUMP JUMPDEST PUSH1 0x0 DUP2 SWAP1 POP SWAP2 SWAP1 POP JUMP JUMPDEST PUSH2 0x3569 DUP2 PUSH2 0x3556 JUMP JUMPDEST DUP3 MSTORE POP POP JUMP JUMPDEST PUSH1 0x0 PUSH1 0x20 DUP3 ADD SWAP1 POP PUSH2 0x3584 PUSH1 0x0 DUP4 ADD DUP5 PUSH2 0x3560 JUMP JUMPDEST SWAP3 SWAP2 POP POP JUMP JUMPDEST PUSH1 0x0 PUSH1 0x40 MLOAD SWAP1 POP SWAP1 JUMP JUMPDEST PUSH1 0x0 DUP1 REVERT JUMPDEST PUSH1 0x0 DUP1 REVERT JUMPDEST PUSH2 0x35A7 DUP2 PUSH2 0x3556 JUMP JUMPDEST DUP2 EQ PUSH2 0x35B2 JUMPI PUSH1 0x0 DUP1 REVERT JUMPDEST POP JUMP JUMPDEST PUSH1 0x0 DUP2 CALLDATALOAD SWAP1 POP PUSH2 0x35C4 DUP2 PUSH2 0x359E JUMP JUMPDEST SWAP3 SWAP2 POP POP JUMP JUMPDEST PUSH1 0x0 PUSH1 0x20 DUP3 DUP5 SUB SLT ISZERO PUSH2 0x35E0 JUMPI PUSH2 0x35DF PUSH2 0x3594 JUMP JUMPDEST JUMPDEST PUSH1 0x0 PUSH2 0x35EE DUP5 DUP3 DUP6 ADD PUSH2 0x35B5 JUMP JUMPDEST SWAP2 POP POP SWAP3 SWAP2 POP POP JUMP JUMPDEST PUSH1 0x0 DUP1 REVERT JUMPDEST PUSH1 0x0 DUP1 REVERT JUMPDEST PUSH1 0x0 DUP1 REVERT JUMPDEST PUSH1 0x0 DUP1 DUP4 PUSH1 0x1F DUP5 ADD SLT PUSH2 0x361C JUMPI PUSH2 0x361B PUSH2 0x35F7 JUMP JUMPDEST JUMPDEST DUP3 CALLDATALOAD SWAP1 POP PUSH8 0xFFFFFFFFFFFFFFFF DUP2 GT ISZERO PUSH2 0x3639 JUMPI PUSH2 0x3638 PUSH2 0x35FC JUMP JUMPDEST JUMPDEST PUSH1 0x20 DUP4 ADD SWAP2 POP DUP4 PUSH1 0x20 DUP3 MUL DUP4 ADD GT ISZERO PUSH2 0x3655 JUMPI PUSH2 0x3654 PUSH2 0x3601 JUMP JUMPDEST JUMPDEST SWAP3 POP SWAP3 SWAP1 POP JUMP JUMPDEST PUSH1 0x0 DUP1 PUSH1 0x0 PUSH1 0x40 DUP5 DUP7 SUB SLT ISZERO PUSH2 0x3675 JUMPI PUSH2 0x3674 PUSH2 0x3594 JUMP JUMPDEST JUMPDEST PUSH1 0x0 PUSH2 0x3683 DUP7 DUP3 DUP8 ADD PUSH2 0x35B5 JUMP JUMPDEST SWAP4 POP POP PUSH1 0x20 DUP5 ADD CALLDATALOAD PUSH8 0xFFFFFFFFFFFFFFFF DUP2 GT ISZERO PUSH2 0x36A4 JUMPI PUSH2 0x36A3 PUSH2 0x3599 JUMP JUMPDEST JUMPDEST PUSH2 0x36B0 DUP7 DUP3 DUP8 ADD PUSH2 0x3606 JUMP JUMPDEST SWAP3 POP SWAP3 POP POP SWAP3 POP SWAP3 POP SWAP3 JUMP JUMPDEST PUSH1 0x0 DUP2 MLOAD SWAP1 POP SWAP2 SWAP1 POP JUMP JUMPDEST PUSH1 0x0 DUP3 DUP3 MSTORE PUSH1 0x20 DUP3 ADD SWAP1 POP SWAP3 SWAP2 POP POP JUMP JUMPDEST PUSH1 0x0 DUP2 SWAP1 POP PUSH1 0x20 DUP3 ADD SWAP1 POP SWAP2 SWAP1 POP JUMP JUMPDEST PUSH2 0x36F1 DUP2 PUSH2 0x3556 JUMP JUMPDEST DUP3 MSTORE POP POP JUMP JUMPDEST PUSH1 0x0 PUSH2 0x3703 DUP4 DUP4 PUSH2 0x36E8 JUMP JUMPDEST PUSH1 0x20 DUP4 ADD SWAP1 POP SWAP3 SWAP2 POP POP JUMP JUMPDEST PUSH1 0x0 PUSH1 0x20 DUP3 ADD SWAP1 POP SWAP2 SWAP1 POP JUMP JUMPDEST PUSH1 0x0 PUSH2 0x3727 DUP3 PUSH2 0x36BC JUMP JUMPDEST PUSH2 0x3731 DUP2 DUP6 PUSH2 0x36C7 JUMP JUMPDEST SWAP4 POP PUSH2 0x373C DUP4 PUSH2 0x36D8 JUMP JUMPDEST DUP1 PUSH1 0x0 JUMPDEST DUP4 DUP2 LT ISZERO PUSH2 0x376D JUMPI DUP2 MLOAD PUSH2 0x3754 DUP9 DUP3 PUSH2 0x36F7 JUMP JUMPDEST SWAP8 POP PUSH2 0x375F DUP4 PUSH2 0x370F JUMP JUMPDEST SWAP3 POP POP PUSH1 0x1 DUP2 ADD SWAP1 POP PUSH2 0x3740 JUMP JUMPDEST POP DUP6 SWAP4 POP POP POP POP SWAP3 SWAP2 POP POP JUMP JUMPDEST PUSH1 0x0 PUSH1 0x20 DUP3 ADD SWAP1 POP DUP2 DUP2 SUB PUSH1 0x0 DUP4 ADD MSTORE PUSH2 0x3794 DUP2 DUP5 PUSH2 0x371C JUMP JUMPDEST SWAP1 POP SWAP3 SWAP2 POP POP JUMP JUMPDEST PUSH1 0x0 PUSH20 0xFFFFFFFFFFFFFFFFFFFFFFFFFFFFFFFFFFFFFFFF DUP3 AND SWAP1 POP SWAP2 SWAP1 POP JUMP JUMPDEST PUSH1 0x0 PUSH2 0x37C7 DUP3 PUSH2 0x379C JUMP JUMPDEST SWAP1 POP SWAP2 SWAP1 POP JUMP JUMPDEST PUSH2 0x37D7 DUP2 PUSH2 0x37BC JUMP JUMPDEST DUP2 EQ PUSH2 0x37E2 JUMPI PUSH1 0x0 DUP1 REVERT JUMPDEST POP JUMP JUMPDEST PUSH1 0x0 DUP2 CALLDATALOAD SWAP1 POP PUSH2 0x37F4 DUP2 PUSH2 0x37CE JUMP JUMPDEST SWAP3 SWAP2 POP POP JUMP JUMPDEST PUSH1 0x0 DUP1 PUSH1 0x0 DUP1 PUSH1 0x0 DUP1 PUSH1 0xA0 DUP8 DUP10 SUB SLT ISZERO PUSH2 0x3817 JUMPI PUSH2 0x3816 PUSH2 0x3594 JUMP JUMPDEST JUMPDEST PUSH1 0x0 PUSH2 0x3825 DUP10 DUP3 DUP11 ADD PUSH2 0x35B5 JUMP JUMPDEST SWAP7 POP POP PUSH1 0x20 PUSH2 0x3836 DUP10 DUP3 DUP11 ADD PUSH2 0x35B5 JUMP JUMPDEST SWAP6 POP POP PUSH1 0x40 DUP8 ADD CALLDATALOAD PUSH8 0xFFFFFFFFFFFFFFFF DUP2 GT ISZERO PUSH2 0x3857 JUMPI PUSH2 0x3856 PUSH2 0x3599 JUMP JUMPDEST JUMPDEST PUSH2 0x3863 DUP10 DUP3 DUP11 ADD PUSH2 0x3606 JUMP JUMPDEST SWAP5 POP SWAP5 POP POP PUSH1 0x60 PUSH2 0x3876 DUP10 DUP3 DUP11 ADD PUSH2 0x37E5 JUMP JUMPDEST SWAP3 POP POP PUSH1 0x80 PUSH2 0x3887 DUP10 DUP3 DUP11 ADD PUSH2 0x35B5 JUMP JUMPDEST SWAP2 POP POP SWAP3 SWAP6 POP SWAP3 SWAP6 POP SWAP3 SWAP6 JUMP JUMPDEST PUSH1 0x0 DUP1 PUSH1 0x0 DUP1 PUSH1 0x0 PUSH1 0x80 DUP7 DUP9 SUB SLT ISZERO PUSH2 0x38B0 JUMPI PUSH2 0x38AF PUSH2 0x3594 JUMP JUMPDEST JUMPDEST PUSH1 0x0 PUSH2 0x38BE DUP9 DUP3 DUP10 ADD PUSH2 0x35B5 JUMP JUMPDEST SWAP6 POP POP PUSH1 0x20 DUP7 ADD CALLDATALOAD PUSH8 0xFFFFFFFFFFFFFFFF DUP2 GT ISZERO PUSH2 0x38DF JUMPI PUSH2 0x38DE PUSH2 0x3599 JUMP JUMPDEST JUMPDEST PUSH2 0x38EB DUP9 DUP3 DUP10 ADD PUSH2 0x3606 JUMP JUMPDEST SWAP5 POP SWAP5 POP POP PUSH1 0x40 PUSH2 0x38FE DUP9 DUP3 DUP10 ADD PUSH2 0x37E5 JUMP JUMPDEST SWAP3 POP POP PUSH1 0x60 PUSH2 0x390F DUP9 DUP3 DUP10 ADD PUSH2 0x35B5 JUMP JUMPDEST SWAP2 POP POP SWAP3 SWAP6 POP SWAP3 SWAP6 SWAP1 SWAP4 POP JUMP JUMPDEST PUSH2 0x3925 DUP2 PUSH2 0x37BC JUMP JUMPDEST DUP3 MSTORE POP POP JUMP JUMPDEST PUSH1 0x0 PUSH1 0x20 DUP3 ADD SWAP1 POP PUSH2 0x3940 PUSH1 0x0 DUP4 ADD DUP5 PUSH2 0x391C JUMP JUMPDEST SWAP3 SWAP2 POP POP JUMP JUMPDEST PUSH1 0x0 DUP1 PUSH1 0x40 DUP4 DUP6 SUB SLT ISZERO PUSH2 0x395D JUMPI PUSH2 0x395C PUSH2 0x3594 JUMP JUMPDEST JUMPDEST PUSH1 0x0 PUSH2 0x396B DUP6 DUP3 DUP7 ADD PUSH2 0x37E5 JUMP JUMPDEST SWAP3 POP POP PUSH1 0x20 PUSH2 0x397C DUP6 DUP3 DUP7 ADD PUSH2 0x35B5 JUMP JUMPDEST SWAP2 POP POP SWAP3 POP SWAP3 SWAP1 POP JUMP JUMPDEST PUSH1 0x0 DUP2 ISZERO ISZERO SWAP1 POP SWAP2 SWAP1 POP JUMP JUMPDEST PUSH2 0x399B DUP2 PUSH2 0x3986 JUMP JUMPDEST DUP3 MSTORE POP POP JUMP JUMPDEST PUSH1 0x0 PUSH1 0x20 DUP3 ADD SWAP1 POP PUSH2 0x39B6 PUSH1 0x0 DUP4 ADD DUP5 PUSH2 0x3992 JUMP JUMPDEST SWAP3 SWAP2 POP POP JUMP JUMPDEST PUSH1 0x0 PUSH1 0x20 DUP3 DUP5 SUB SLT ISZERO PUSH2 0x39D2 JUMPI PUSH2 0x39D1 PUSH2 0x3594 JUMP JUMPDEST JUMPDEST PUSH1 0x0 PUSH2 0x39E0 DUP5 DUP3 DUP6 ADD PUSH2 0x37E5 JUMP JUMPDEST SWAP2 POP POP SWAP3 SWAP2 POP POP JUMP JUMPDEST PUSH32 0x4E487B7100000000000000000000000000000000000000000000000000000000 PUSH1 0x0 MSTORE PUSH1 0x11 PUSH1 0x4 MSTORE PUSH1 0x24 PUSH1 0x0 REVERT JUMPDEST PUSH1 0x0 PUSH2 0x3A23 DUP3 PUSH2 0x3556 JUMP JUMPDEST SWAP2 POP PUSH2 0x3A2E DUP4 PUSH2 0x3556 JUMP JUMPDEST SWAP3 POP DUP3 PUSH32 0xFFFFFFFFFFFFFFFFFFFFFFFFFFFFFFFFFFFFFFFFFFFFFFFFFFFFFFFFFFFFFFFF SUB DUP3 GT ISZERO PUSH2 0x3A63 JUMPI PUSH2 0x3A62 PUSH2 0x39E9 JUMP JUMPDEST JUMPDEST DUP3 DUP3 ADD SWAP1 POP SWAP3 SWAP2 POP POP JUMP JUMPDEST PUSH1 0x0 PUSH2 0x3A79 DUP3 PUSH2 0x3556 JUMP JUMPDEST SWAP2 POP PUSH32 0xFFFFFFFFFFFFFFFFFFFFFFFFFFFFFFFFFFFFFFFFFFFFFFFFFFFFFFFFFFFFFFFF DUP3 EQ ISZERO PUSH2 0x3AAC JUMPI PUSH2 0x3AAB PUSH2 0x39E9 JUMP JUMPDEST JUMPDEST PUSH1 0x1 DUP3 ADD SWAP1 POP SWAP2 SWAP1 POP JUMP JUMPDEST PUSH32 0x4E487B7100000000000000000000000000000000000000000000000000000000 PUSH1 0x0 MSTORE PUSH1 0x41 PUSH1 0x4 MSTORE PUSH1 0x24 PUSH1 0x0 REVERT JUMPDEST PUSH32 0x4E487B7100000000000000000000000000000000000000000000000000000000 PUSH1 0x0 MSTORE PUSH1 0x32 PUSH1 0x4 MSTORE PUSH1 0x24 PUSH1 0x0 REVERT JUMPDEST PUSH1 0x0 DUP3 DUP3 MSTORE PUSH1 0x20 DUP3 ADD SWAP1 POP SWAP3 SWAP2 POP POP JUMP JUMPDEST PUSH32 0x5B636C61696D416C6C526577617264735D204E6F207265776172642100000000 PUSH1 0x0 DUP3 ADD MSTORE POP JUMP JUMPDEST PUSH1 0x0 PUSH2 0x3B5C PUSH1 0x1C DUP4 PUSH2 0x3B15 JUMP JUMPDEST SWAP2 POP PUSH2 0x3B67 DUP3 PUSH2 0x3B26 JUMP JUMPDEST PUSH1 0x20 DUP3 ADD SWAP1 POP SWAP2 SWAP1 POP JUMP JUMPDEST PUSH1 0x0 PUSH1 0x20 DUP3 ADD SWAP1 POP DUP2 DUP2 SUB PUSH1 0x0 DUP4 ADD MSTORE PUSH2 0x3B8B DUP2 PUSH2 0x3B4F JUMP JUMPDEST SWAP1 POP SWAP2 SWAP1 POP JUMP JUMPDEST PUSH1 0x0 PUSH1 0x40 DUP3 ADD SWAP1 POP PUSH2 0x3BA7 PUSH1 0x0 DUP4 ADD DUP6 PUSH2 0x391C JUMP JUMPDEST PUSH2 0x3BB4 PUSH1 0x20 DUP4 ADD DUP5 PUSH2 0x3560 JUMP JUMPDEST SWAP4 SWAP3 POP POP POP JUMP JUMPDEST PUSH32 0x4F776E61626C653A2063616C6C6572206973206E6F7420746865206F776E6572 PUSH1 0x0 DUP3 ADD MSTORE POP JUMP JUMPDEST PUSH1 0x0 PUSH2 0x3BF1 PUSH1 0x20 DUP4 PUSH2 0x3B15 JUMP JUMPDEST SWAP2 POP PUSH2 0x3BFC DUP3 PUSH2 0x3BBB JUMP JUMPDEST PUSH1 0x20 DUP3 ADD SWAP1 POP SWAP2 SWAP1 POP JUMP JUMPDEST PUSH1 0x0 PUSH1 0x20 DUP3 ADD SWAP1 POP DUP2 DUP2 SUB PUSH1 0x0 DUP4 ADD MSTORE PUSH2 0x3C20 DUP2 PUSH2 0x3BE4 JUMP JUMPDEST SWAP1 POP SWAP2 SWAP1 POP JUMP JUMPDEST PUSH1 0x0 DUP3 DUP3 MSTORE PUSH1 0x20 DUP3 ADD SWAP1 POP SWAP3 SWAP2 POP POP JUMP JUMPDEST PUSH1 0x0 DUP2 SWAP1 POP SWAP2 SWAP1 POP JUMP JUMPDEST PUSH2 0x3C4B DUP2 PUSH2 0x37BC JUMP JUMPDEST DUP3 MSTORE POP POP JUMP JUMPDEST PUSH1 0x0 PUSH2 0x3C5D DUP4 DUP4 PUSH2 0x3C42 JUMP JUMPDEST PUSH1 0x20 DUP4 ADD SWAP1 POP SWAP3 SWAP2 POP POP JUMP JUMPDEST PUSH1 0x0 PUSH2 0x3C78 PUSH1 0x20 DUP5 ADD DUP5 PUSH2 0x37E5 JUMP JUMPDEST SWAP1 POP SWAP3 SWAP2 POP POP JUMP JUMPDEST PUSH1 0x0 PUSH1 0x20 DUP3 ADD SWAP1 POP SWAP2 SWAP1 POP JUMP JUMPDEST PUSH1 0x0 PUSH2 0x3C99 DUP4 DUP6 PUSH2 0x3C27 JUMP JUMPDEST SWAP4 POP PUSH2 0x3CA4 DUP3 PUSH2 0x3C38 JUMP JUMPDEST DUP1 PUSH1 0x0 JUMPDEST DUP6 DUP2 LT ISZERO PUSH2 0x3CDD JUMPI PUSH2 0x3CBA DUP3 DUP5 PUSH2 0x3C69 JUMP JUMPDEST PUSH2 0x3CC4 DUP9 DUP3 PUSH2 0x3C51 JUMP JUMPDEST SWAP8 POP PUSH2 0x3CCF DUP4 PUSH2 0x3C80 JUMP JUMPDEST SWAP3 POP POP PUSH1 0x1 DUP2 ADD SWAP1 POP PUSH2 0x3CA8 JUMP JUMPDEST POP DUP6 SWAP3 POP POP POP SWAP4 SWAP3 POP POP POP JUMP JUMPDEST PUSH1 0x0 PUSH1 0x40 DUP3 ADD SWAP1 POP PUSH2 0x3CFF PUSH1 0x0 DUP4 ADD DUP7 PUSH2 0x3560 JUMP JUMPDEST DUP2 DUP2 SUB PUSH1 0x20 DUP4 ADD MSTORE PUSH2 0x3D12 DUP2 DUP5 DUP7 PUSH2 0x3C8D JUMP JUMPDEST SWAP1 POP SWAP5 SWAP4 POP POP POP POP JUMP JUMPDEST PUSH1 0x0 PUSH1 0x1F NOT PUSH1 0x1F DUP4 ADD AND SWAP1 POP SWAP2 SWAP1 POP JUMP JUMPDEST PUSH2 0x3D36 DUP3 PUSH2 0x3D1C JUMP JUMPDEST DUP2 ADD DUP2 DUP2 LT PUSH8 0xFFFFFFFFFFFFFFFF DUP3 GT OR ISZERO PUSH2 0x3D55 JUMPI PUSH2 0x3D54 PUSH2 0x3AB7 JUMP JUMPDEST JUMPDEST DUP1 PUSH1 0x40 MSTORE POP POP POP JUMP JUMPDEST PUSH1 0x0 PUSH2 0x3D68 PUSH2 0x358A JUMP JUMPDEST SWAP1 POP PUSH2 0x3D74 DUP3 DUP3 PUSH2 0x3D2D JUMP JUMPDEST SWAP2 SWAP1 POP JUMP JUMPDEST PUSH1 0x0 PUSH8 0xFFFFFFFFFFFFFFFF DUP3 GT ISZERO PUSH2 0x3D94 JUMPI PUSH2 0x3D93 PUSH2 0x3AB7 JUMP JUMPDEST JUMPDEST PUSH1 0x20 DUP3 MUL SWAP1 POP PUSH1 0x20 DUP2 ADD SWAP1 POP SWAP2 SWAP1 POP JUMP JUMPDEST PUSH1 0x0 DUP2 MLOAD SWAP1 POP PUSH2 0x3DB4 DUP2 PUSH2 0x359E JUMP JUMPDEST SWAP3 SWAP2 POP POP JUMP JUMPDEST PUSH1 0x0 PUSH2 0x3DCD PUSH2 0x3DC8 DUP5 PUSH2 0x3D79 JUMP JUMPDEST PUSH2 0x3D5E JUMP JUMPDEST SWAP1 POP DUP1 DUP4 DUP3 MSTORE PUSH1 0x20 DUP3 ADD SWAP1 POP PUSH1 0x20 DUP5 MUL DUP4 ADD DUP6 DUP2 GT ISZERO PUSH2 0x3DF0 JUMPI PUSH2 0x3DEF PUSH2 0x3601 JUMP JUMPDEST JUMPDEST DUP4 JUMPDEST DUP2 DUP2 LT ISZERO PUSH2 0x3E19 JUMPI DUP1 PUSH2 0x3E05 DUP9 DUP3 PUSH2 0x3DA5 JUMP JUMPDEST DUP5 MSTORE PUSH1 0x20 DUP5 ADD SWAP4 POP POP PUSH1 0x20 DUP2 ADD SWAP1 POP PUSH2 0x3DF2 JUMP JUMPDEST POP POP POP SWAP4 SWAP3 POP POP POP JUMP JUMPDEST PUSH1 0x0 DUP3 PUSH1 0x1F DUP4 ADD SLT PUSH2 0x3E38 JUMPI PUSH2 0x3E37 PUSH2 0x35F7 JUMP JUMPDEST JUMPDEST DUP2 MLOAD PUSH2 0x3E48 DUP5 DUP3 PUSH1 0x20 DUP7 ADD PUSH2 0x3DBA JUMP JUMPDEST SWAP2 POP POP SWAP3 SWAP2 POP POP JUMP JUMPDEST PUSH1 0x0 PUSH1 0x20 DUP3 DUP5 SUB SLT ISZERO PUSH2 0x3E67 JUMPI PUSH2 0x3E66 PUSH2 0x3594 JUMP JUMPDEST JUMPDEST PUSH1 0x0 DUP3 ADD MLOAD PUSH8 0xFFFFFFFFFFFFFFFF DUP2 GT ISZERO PUSH2 0x3E85 JUMPI PUSH2 0x3E84 PUSH2 0x3599 JUMP JUMPDEST JUMPDEST PUSH2 0x3E91 DUP5 DUP3 DUP6 ADD PUSH2 0x3E23 JUMP JUMPDEST SWAP2 POP POP SWAP3 SWAP2 POP POP JUMP JUMPDEST PUSH1 0x0 PUSH2 0x3EA5 DUP3 PUSH2 0x3556 JUMP JUMPDEST SWAP2 POP PUSH2 0x3EB0 DUP4 PUSH2 0x3556 JUMP JUMPDEST SWAP3 POP DUP3 DUP3 LT ISZERO PUSH2 0x3EC3 JUMPI PUSH2 0x3EC2 PUSH2 0x39E9 JUMP JUMPDEST JUMPDEST DUP3 DUP3 SUB SWAP1 POP SWAP3 SWAP2 POP POP JUMP JUMPDEST PUSH32 0x4E487B7100000000000000000000000000000000000000000000000000000000 PUSH1 0x0 MSTORE PUSH1 0x12 PUSH1 0x4 MSTORE PUSH1 0x24 PUSH1 0x0 REVERT JUMPDEST PUSH1 0x0 PUSH2 0x3F08 DUP3 PUSH2 0x3556 JUMP JUMPDEST SWAP2 POP PUSH2 0x3F13 DUP4 PUSH2 0x3556 JUMP JUMPDEST SWAP3 POP DUP3 PUSH2 0x3F23 JUMPI PUSH2 0x3F22 PUSH2 0x3ECE JUMP JUMPDEST JUMPDEST DUP3 DUP3 DIV SWAP1 POP SWAP3 SWAP2 POP POP JUMP JUMPDEST PUSH32 0x5B73776170457861637441564158466F72546F6B656E735D20496E76616C6964 PUSH1 0x0 DUP3 ADD MSTORE PUSH32 0x2070617468210000000000000000000000000000000000000000000000000000 PUSH1 0x20 DUP3 ADD MSTORE POP JUMP JUMPDEST PUSH1 0x0 PUSH2 0x3F8A PUSH1 0x26 DUP4 PUSH2 0x3B15 JUMP JUMPDEST SWAP2 POP PUSH2 0x3F95 DUP3 PUSH2 0x3F2E JUMP JUMPDEST PUSH1 0x40 DUP3 ADD SWAP1 POP SWAP2 SWAP1 POP JUMP JUMPDEST PUSH1 0x0 PUSH1 0x20 DUP3 ADD SWAP1 POP DUP2 DUP2 SUB PUSH1 0x0 DUP4 ADD MSTORE PUSH2 0x3FB9 DUP2 PUSH2 0x3F7D JUMP JUMPDEST SWAP1 POP SWAP2 SWAP1 POP JUMP JUMPDEST PUSH1 0x0 PUSH1 0xA0 DUP3 ADD SWAP1 POP PUSH2 0x3FD5 PUSH1 0x0 DUP4 ADD DUP10 PUSH2 0x3560 JUMP JUMPDEST PUSH2 0x3FE2 PUSH1 0x20 DUP4 ADD DUP9 PUSH2 0x3560 JUMP JUMPDEST DUP2 DUP2 SUB PUSH1 0x40 DUP4 ADD MSTORE PUSH2 0x3FF5 DUP2 DUP7 DUP9 PUSH2 0x3C8D JUMP JUMPDEST SWAP1 POP PUSH2 0x4004 PUSH1 0x60 DUP4 ADD DUP6 PUSH2 0x391C JUMP JUMPDEST PUSH2 0x4011 PUSH1 0x80 DUP4 ADD DUP5 PUSH2 0x3560 JUMP JUMPDEST SWAP8 SWAP7 POP POP POP POP POP POP POP JUMP JUMPDEST PUSH32 0x5B7377617041564158466F724578616374546F6B656E735D204E6F7420656E6F PUSH1 0x0 DUP3 ADD MSTORE PUSH32 0x756768206D73672E76616C756521000000000000000000000000000000000000 PUSH1 0x20 DUP3 ADD MSTORE POP JUMP JUMPDEST PUSH1 0x0 PUSH2 0x4078 PUSH1 0x2E DUP4 PUSH2 0x3B15 JUMP JUMPDEST SWAP2 POP PUSH2 0x4083 DUP3 PUSH2 0x401C JUMP JUMPDEST PUSH1 0x40 DUP3 ADD SWAP1 POP SWAP2 SWAP1 POP JUMP JUMPDEST PUSH1 0x0 PUSH1 0x20 DUP3 ADD SWAP1 POP DUP2 DUP2 SUB PUSH1 0x0 DUP4 ADD MSTORE PUSH2 0x40A7 DUP2 PUSH2 0x406B JUMP JUMPDEST SWAP1 POP SWAP2 SWAP1 POP JUMP JUMPDEST PUSH1 0x0 PUSH1 0x80 DUP3 ADD SWAP1 POP PUSH2 0x40C3 PUSH1 0x0 DUP4 ADD DUP9 PUSH2 0x3560 JUMP JUMPDEST DUP2 DUP2 SUB PUSH1 0x20 DUP4 ADD MSTORE PUSH2 0x40D6 DUP2 DUP7 DUP9 PUSH2 0x3C8D JUMP JUMPDEST SWAP1 POP PUSH2 0x40E5 PUSH1 0x40 DUP4 ADD DUP6 PUSH2 0x391C JUMP JUMPDEST PUSH2 0x40F2 PUSH1 0x60 DUP4 ADD DUP5 PUSH2 0x3560 JUMP JUMPDEST SWAP7 SWAP6 POP POP POP POP POP POP JUMP JUMPDEST PUSH32 0x5B73776170457861637441564158466F72546F6B656E735D204E6F742061206D PUSH1 0x0 DUP3 ADD MSTORE PUSH32 0x73672E76616C7565210000000000000000000000000000000000000000000000 PUSH1 0x20 DUP3 ADD MSTORE POP JUMP JUMPDEST PUSH1 0x0 PUSH2 0x4158 PUSH1 0x29 DUP4 PUSH2 0x3B15 JUMP JUMPDEST SWAP2 POP PUSH2 0x4163 DUP3 PUSH2 0x40FC JUMP JUMPDEST PUSH1 0x40 DUP3 ADD SWAP1 POP SWAP2 SWAP1 POP JUMP JUMPDEST PUSH1 0x0 PUSH1 0x20 DUP3 ADD SWAP1 POP DUP2 DUP2 SUB PUSH1 0x0 DUP4 ADD MSTORE PUSH2 0x4187 DUP2 PUSH2 0x414B JUMP JUMPDEST SWAP1 POP SWAP2 SWAP1 POP JUMP JUMPDEST PUSH32 0x5B7769746864726177526577617264546F6B656E735D204E6F7420656E6F7567 PUSH1 0x0 DUP3 ADD MSTORE PUSH32 0x682062616C616E63652100000000000000000000000000000000000000000000 PUSH1 0x20 DUP3 ADD MSTORE POP JUMP JUMPDEST PUSH1 0x0 PUSH2 0x41EA PUSH1 0x2A DUP4 PUSH2 0x3B15 JUMP JUMPDEST SWAP2 POP PUSH2 0x41F5 DUP3 PUSH2 0x418E JUMP JUMPDEST PUSH1 0x40 DUP3 ADD SWAP1 POP SWAP2 SWAP1 POP JUMP JUMPDEST PUSH1 0x0 PUSH1 0x20 DUP3 ADD SWAP1 POP DUP2 DUP2 SUB PUSH1 0x0 DUP4 ADD MSTORE PUSH2 0x4219 DUP2 PUSH2 0x41DD JUMP JUMPDEST SWAP1 POP SWAP2 SWAP1 POP JUMP JUMPDEST PUSH32 0x4F776E61626C653A206E6577206F776E657220697320746865207A65726F2061 PUSH1 0x0 DUP3 ADD MSTORE PUSH32 0x6464726573730000000000000000000000000000000000000000000000000000 PUSH1 0x20 DUP3 ADD MSTORE POP JUMP JUMPDEST PUSH1 0x0 PUSH2 0x427C PUSH1 0x26 DUP4 PUSH2 0x3B15 JUMP JUMPDEST SWAP2 POP PUSH2 0x4287 DUP3 PUSH2 0x4220 JUMP JUMPDEST PUSH1 0x40 DUP3 ADD SWAP1 POP SWAP2 SWAP1 POP JUMP JUMPDEST PUSH1 0x0 PUSH1 0x20 DUP3 ADD SWAP1 POP DUP2 DUP2 SUB PUSH1 0x0 DUP4 ADD MSTORE PUSH2 0x42AB DUP2 PUSH2 0x426F JUMP JUMPDEST SWAP1 POP SWAP2 SWAP1 POP JUMP JUMPDEST PUSH1 0x0 PUSH2 0x42BD DUP3 PUSH2 0x3556 JUMP JUMPDEST SWAP2 POP PUSH2 0x42C8 DUP4 PUSH2 0x3556 JUMP JUMPDEST SWAP3 POP DUP2 PUSH32 0xFFFFFFFFFFFFFFFFFFFFFFFFFFFFFFFFFFFFFFFFFFFFFFFFFFFFFFFFFFFFFFFF DIV DUP4 GT DUP3 ISZERO ISZERO AND ISZERO PUSH2 0x4301 JUMPI PUSH2 0x4300 PUSH2 0x39E9 JUMP JUMPDEST JUMPDEST DUP3 DUP3 MUL SWAP1 POP SWAP3 SWAP2 POP POP JUMP JUMPDEST PUSH32 0x4E487B7100000000000000000000000000000000000000000000000000000000 PUSH1 0x0 MSTORE PUSH1 0x1 PUSH1 0x4 MSTORE PUSH1 0x24 PUSH1 0x0 REVERT JUMPDEST PUSH1 0x0 PUSH1 0x60 DUP3 ADD SWAP1 POP PUSH2 0x4350 PUSH1 0x0 DUP4 ADD DUP7 PUSH2 0x391C JUMP JUMPDEST PUSH2 0x435D PUSH1 0x20 DUP4 ADD DUP6 PUSH2 0x391C JUMP JUMPDEST PUSH2 0x436A PUSH1 0x40 DUP4 ADD DUP5 PUSH2 0x3560 JUMP JUMPDEST SWAP5 SWAP4 POP POP POP POP JUMP JUMPDEST PUSH1 0x0 PUSH1 0x40 DUP3 ADD SWAP1 POP PUSH2 0x4387 PUSH1 0x0 DUP4 ADD DUP6 PUSH2 0x391C JUMP JUMPDEST PUSH2 0x4394 PUSH1 0x20 DUP4 ADD DUP5 PUSH2 0x391C JUMP JUMPDEST SWAP4 SWAP3 POP POP POP JUMP JUMPDEST PUSH1 0x0 PUSH1 0x20 DUP3 DUP5 SUB SLT ISZERO PUSH2 0x43B1 JUMPI PUSH2 0x43B0 PUSH2 0x3594 JUMP JUMPDEST JUMPDEST PUSH1 0x0 PUSH2 0x43BF DUP5 DUP3 DUP6 ADD PUSH2 0x3DA5 JUMP JUMPDEST SWAP2 POP POP SWAP3 SWAP2 POP POP JUMP JUMPDEST PUSH32 0x5361666545524332303A20617070726F76652066726F6D206E6F6E2D7A65726F PUSH1 0x0 DUP3 ADD MSTORE PUSH32 0x20746F206E6F6E2D7A65726F20616C6C6F77616E636500000000000000000000 PUSH1 0x20 DUP3 ADD MSTORE POP JUMP JUMPDEST PUSH1 0x0 PUSH2 0x4424 PUSH1 0x36 DUP4 PUSH2 0x3B15 JUMP JUMPDEST SWAP2 POP PUSH2 0x442F DUP3 PUSH2 0x43C8 JUMP JUMPDEST PUSH1 0x40 DUP3 ADD SWAP1 POP SWAP2 SWAP1 POP JUMP JUMPDEST PUSH1 0x0 PUSH1 0x20 DUP3 ADD SWAP1 POP DUP2 DUP2 SUB PUSH1 0x0 DUP4 ADD MSTORE PUSH2 0x4453 DUP2 PUSH2 0x4417 JUMP JUMPDEST SWAP1 POP SWAP2 SWAP1 POP JUMP JUMPDEST PUSH32 0x4E487B7100000000000000000000000000000000000000000000000000000000 PUSH1 0x0 MSTORE PUSH1 0x31 PUSH1 0x4 MSTORE PUSH1 0x24 PUSH1 0x0 REVERT JUMPDEST PUSH2 0x4492 DUP2 PUSH2 0x3986 JUMP JUMPDEST DUP2 EQ PUSH2 0x449D JUMPI PUSH1 0x0 DUP1 REVERT JUMPDEST POP JUMP JUMPDEST PUSH1 0x0 DUP2 MLOAD SWAP1 POP PUSH2 0x44AF DUP2 PUSH2 0x4489 JUMP JUMPDEST SWAP3 SWAP2 POP POP JUMP JUMPDEST PUSH1 0x0 PUSH1 0x20 DUP3 DUP5 SUB SLT ISZERO PUSH2 0x44CB JUMPI PUSH2 0x44CA PUSH2 0x3594 JUMP JUMPDEST JUMPDEST PUSH1 0x0 PUSH2 0x44D9 DUP5 DUP3 DUP6 ADD PUSH2 0x44A0 JUMP JUMPDEST SWAP2 POP POP SWAP3 SWAP2 POP POP JUMP JUMPDEST PUSH32 0x5361666545524332303A204552433230206F7065726174696F6E20646964206E PUSH1 0x0 DUP3 ADD MSTORE PUSH32 0x6F74207375636365656400000000000000000000000000000000000000000000 PUSH1 0x20 DUP3 ADD MSTORE POP JUMP JUMPDEST PUSH1 0x0 PUSH2 0x453E PUSH1 0x2A DUP4 PUSH2 0x3B15 JUMP JUMPDEST SWAP2 POP PUSH2 0x4549 DUP3 PUSH2 0x44E2 JUMP JUMPDEST PUSH1 0x40 DUP3 ADD SWAP1 POP SWAP2 SWAP1 POP JUMP JUMPDEST PUSH1 0x0 PUSH1 0x20 DUP3 ADD SWAP1 POP DUP2 DUP2 SUB PUSH1 0x0 DUP4 ADD MSTORE PUSH2 0x456D DUP2 PUSH2 0x4531 JUMP JUMPDEST SWAP1 POP SWAP2 SWAP1 POP JUMP JUMPDEST PUSH32 0x416464726573733A20696E73756666696369656E742062616C616E636520666F PUSH1 0x0 DUP3 ADD MSTORE PUSH32 0x722063616C6C0000000000000000000000000000000000000000000000000000 PUSH1 0x20 DUP3 ADD MSTORE POP JUMP JUMPDEST PUSH1 0x0 PUSH2 0x45D0 PUSH1 0x26 DUP4 PUSH2 0x3B15 JUMP JUMPDEST SWAP2 POP PUSH2 0x45DB DUP3 PUSH2 0x4574 JUMP JUMPDEST PUSH1 0x40 DUP3 ADD SWAP1 POP SWAP2 SWAP1 POP JUMP JUMPDEST PUSH1 0x0 PUSH1 0x20 DUP3 ADD SWAP1 POP DUP2 DUP2 SUB PUSH1 0x0 DUP4 ADD MSTORE PUSH2 0x45FF DUP2 PUSH2 0x45C3 JUMP JUMPDEST SWAP1 POP SWAP2 SWAP1 POP JUMP JUMPDEST PUSH32 0x416464726573733A2063616C6C20746F206E6F6E2D636F6E7472616374000000 PUSH1 0x0 DUP3 ADD MSTORE POP JUMP JUMPDEST PUSH1 0x0 PUSH2 0x463C PUSH1 0x1D DUP4 PUSH2 0x3B15 JUMP JUMPDEST SWAP2 POP PUSH2 0x4647 DUP3 PUSH2 0x4606 JUMP JUMPDEST PUSH1 0x20 DUP3 ADD SWAP1 POP SWAP2 SWAP1 POP JUMP JUMPDEST PUSH1 0x0 PUSH1 0x20 DUP3 ADD SWAP1 POP DUP2 DUP2 SUB PUSH1 0x0 DUP4 ADD MSTORE PUSH2 0x466B DUP2 PUSH2 0x462F JUMP JUMPDEST SWAP1 POP SWAP2 SWAP1 POP JUMP JUMPDEST PUSH1 0x0 DUP2 MLOAD SWAP1 POP SWAP2 SWAP1 POP JUMP JUMPDEST PUSH1 0x0 DUP2 SWAP1 POP SWAP3 SWAP2 POP POP JUMP JUMPDEST PUSH1 0x0 JUMPDEST DUP4 DUP2 LT ISZERO PUSH2 0x46A6 JUMPI DUP1 DUP3 ADD MLOAD DUP2 DUP5 ADD MSTORE PUSH1 0x20 DUP2 ADD SWAP1 POP PUSH2 0x468B JUMP JUMPDEST DUP4 DUP2 GT ISZERO PUSH2 0x46B5 JUMPI PUSH1 0x0 DUP5 DUP5 ADD MSTORE JUMPDEST POP POP POP POP JUMP JUMPDEST PUSH1 0x0 PUSH2 0x46C6 DUP3 PUSH2 0x4672 JUMP JUMPDEST PUSH2 0x46D0 DUP2 DUP6 PUSH2 0x467D JUMP JUMPDEST SWAP4 POP PUSH2 0x46E0 DUP2 DUP6 PUSH1 0x20 DUP7 ADD PUSH2 0x4688 JUMP JUMPDEST DUP1 DUP5 ADD SWAP2 POP POP SWAP3 SWAP2 POP POP JUMP JUMPDEST PUSH1 0x0 PUSH2 0x46F8 DUP3 DUP5 PUSH2 0x46BB JUMP JUMPDEST SWAP2 POP DUP2 SWAP1 POP SWAP3 SWAP2 POP POP JUMP JUMPDEST PUSH1 0x0 DUP2 MLOAD SWAP1 POP SWAP2 SWAP1 POP JUMP JUMPDEST PUSH1 0x0 PUSH2 0x4719 DUP3 PUSH2 0x4703 JUMP JUMPDEST PUSH2 0x4723 DUP2 DUP6 PUSH2 0x3B15 JUMP JUMPDEST SWAP4 POP PUSH2 0x4733 DUP2 DUP6 PUSH1 0x20 DUP7 ADD PUSH2 0x4688 JUMP JUMPDEST PUSH2 0x473C DUP2 PUSH2 0x3D1C JUMP JUMPDEST DUP5 ADD SWAP2 POP POP SWAP3 SWAP2 POP POP JUMP JUMPDEST PUSH1 0x0 PUSH1 0x20 DUP3 ADD SWAP1 POP DUP2 DUP2 SUB PUSH1 0x0 DUP4 ADD MSTORE PUSH2 0x4761 DUP2 DUP5 PUSH2 0x470E JUMP JUMPDEST SWAP1 POP SWAP3 SWAP2 POP POP JUMP INVALID LOG2 PUSH5 0x6970667358 0x22 SLT KECCAK256 DUP2 PUSH26 0xDFFEA580C586568D1402B1F95AAB45B6F915BA3D25796F8E279A 0x2E 0xA5 0x1E 0xC9 PUSH5 0x736F6C6343 STOP ADDMOD SIGNEXTEND STOP CALLER "
        },
        "methodIdentifiers": {
          "calcDay()": "6572ca0c",
          "calculateDailyUserReward(uint256)": "94f55789",
          "calculateUserRewards()": "07a779bc",
          "changeTotalDays(uint256)": "78fb427a",
          "claimAllRewards()": "0b83a727",
          "dailyRewards(uint256)": "b203dc60",
          "dailyVolumes(uint256)": "1f924d86",
          "deployTime()": "7a40624b",
          "depositRewardTokens(uint256)": "16c621e0",
          "getAmountsIn(uint256,address[])": "1f00ca74",
          "getAmountsOut(uint256,address[])": "d06ca61f",
          "isCalculated()": "de2af4b0",
          "owner()": "8da5cb5b",
          "previousVolumes(uint256)": "ceb7f995",
          "renounceOwnership()": "715018a6",
          "swapAVAXForExactTokens(uint256,address[],address,uint256)": "8a657e67",
          "swapExactAVAXForTokens(uint256,address[],address,uint256)": "a2a1623d",
          "swapExactTokensForAVAX(uint256,uint256,address[],address,uint256)": "676528d1",
          "swapTokensForExactAVAX(uint256,uint256,address[],address,uint256)": "7a42416a",
          "totalDays()": "078e3649",
          "totalRewardBalance()": "7e2ca288",
          "transferOwnership(address)": "f2fde38b",
          "volumeRecords(address,uint256)": "940ce872",
          "withdrawRewardTokens(uint256)": "cb43b2dd"
        }
      }
    }
  }
}