{
  "contracts/trade-farming/TradeFarming.sol": {
    "TradeFarming": {
      "abi": [
        {
          "inputs": [
            {
              "internalType": "address",
              "name": "_routerAddress",
              "type": "address"
            },
            {
              "internalType": "address",
              "name": "_tokenAddress",
              "type": "address"
            },
            {
              "internalType": "address",
              "name": "_rewardAddress",
              "type": "address"
            },
            {
              "internalType": "uint256",
              "name": "_previousVolume",
              "type": "uint256"
            },
            {
              "internalType": "uint256",
              "name": "_previousDay",
              "type": "uint256"
            },
            {
              "internalType": "uint256",
              "name": "_totalDays",
              "type": "uint256"
            },
            {
              "internalType": "uint256",
              "name": "_upLimit",
              "type": "uint256"
            },
            {
              "internalType": "uint256",
              "name": "_downLimit",
              "type": "uint256"
            }
          ],
          "stateMutability": "nonpayable",
          "type": "constructor"
        },
        {
          "anonymous": false,
          "inputs": [
            {
              "indexed": true,
              "internalType": "address",
              "name": "previousOwner",
              "type": "address"
            },
            {
              "indexed": true,
              "internalType": "address",
              "name": "newOwner",
              "type": "address"
            }
          ],
          "name": "OwnershipTransferred",
          "type": "event"
        },
        {
          "anonymous": false,
          "inputs": [
            {
              "indexed": false,
              "internalType": "address",
              "name": "_user",
              "type": "address"
            },
            {
              "indexed": false,
              "internalType": "uint256",
              "name": "_amount",
              "type": "uint256"
            }
          ],
          "name": "RewardClaimed",
          "type": "event"
        },
        {
          "inputs": [],
          "name": "calcDay",
          "outputs": [
            {
              "internalType": "uint256",
              "name": "",
              "type": "uint256"
            }
          ],
          "stateMutability": "view",
          "type": "function"
        },
        {
          "inputs": [
            {
              "internalType": "uint256",
              "name": "day",
              "type": "uint256"
            }
          ],
          "name": "calculateDailyUserReward",
          "outputs": [
            {
              "internalType": "uint256",
              "name": "",
              "type": "uint256"
            }
          ],
          "stateMutability": "view",
          "type": "function"
        },
        {
          "inputs": [],
          "name": "calculateUserRewards",
          "outputs": [
            {
              "internalType": "uint256",
              "name": "",
              "type": "uint256"
            }
          ],
          "stateMutability": "view",
          "type": "function"
        },
        {
          "inputs": [
            {
              "internalType": "uint256",
              "name": "newTotalDays",
              "type": "uint256"
            }
          ],
          "name": "changeTotalDays",
          "outputs": [],
          "stateMutability": "nonpayable",
          "type": "function"
        },
        {
          "inputs": [],
          "name": "claimAllRewards",
          "outputs": [],
          "stateMutability": "nonpayable",
          "type": "function"
        },
        {
          "inputs": [
            {
              "internalType": "uint256",
              "name": "",
              "type": "uint256"
            }
          ],
          "name": "dailyRewards",
          "outputs": [
            {
              "internalType": "uint256",
              "name": "",
              "type": "uint256"
            }
          ],
          "stateMutability": "view",
          "type": "function"
        },
        {
          "inputs": [
            {
              "internalType": "uint256",
              "name": "",
              "type": "uint256"
            }
          ],
          "name": "dailyVolumes",
          "outputs": [
            {
              "internalType": "uint256",
              "name": "",
              "type": "uint256"
            }
          ],
          "stateMutability": "view",
          "type": "function"
        },
        {
          "inputs": [],
          "name": "deployTime",
          "outputs": [
            {
              "internalType": "uint256",
              "name": "",
              "type": "uint256"
            }
          ],
          "stateMutability": "view",
          "type": "function"
        },
        {
          "inputs": [
            {
              "internalType": "uint256",
              "name": "amount",
              "type": "uint256"
            }
          ],
          "name": "depositRewardTokens",
          "outputs": [],
          "stateMutability": "nonpayable",
          "type": "function"
        },
        {
          "inputs": [
            {
              "internalType": "uint256",
              "name": "amountOut",
              "type": "uint256"
            },
            {
              "internalType": "address[]",
              "name": "path",
              "type": "address[]"
            }
          ],
          "name": "getAmountsIn",
          "outputs": [
            {
              "internalType": "uint256[]",
              "name": "amounts",
              "type": "uint256[]"
            }
          ],
          "stateMutability": "view",
          "type": "function"
        },
        {
          "inputs": [
            {
              "internalType": "uint256",
              "name": "amountIn",
              "type": "uint256"
            },
            {
              "internalType": "address[]",
              "name": "path",
              "type": "address[]"
            }
          ],
          "name": "getAmountsOut",
          "outputs": [
            {
              "internalType": "uint256[]",
              "name": "amounts",
              "type": "uint256[]"
            }
          ],
          "stateMutability": "view",
          "type": "function"
        },
        {
          "inputs": [],
          "name": "isCalculated",
          "outputs": [
            {
              "internalType": "bool",
              "name": "",
              "type": "bool"
            }
          ],
          "stateMutability": "view",
          "type": "function"
        },
        {
          "inputs": [],
          "name": "lastAddedDay",
          "outputs": [
            {
              "internalType": "uint256",
              "name": "",
              "type": "uint256"
            }
          ],
          "stateMutability": "view",
          "type": "function"
        },
        {
          "inputs": [],
          "name": "owner",
          "outputs": [
            {
              "internalType": "address",
              "name": "",
              "type": "address"
            }
          ],
          "stateMutability": "view",
          "type": "function"
        },
        {
          "inputs": [
            {
              "internalType": "uint256",
              "name": "",
              "type": "uint256"
            }
          ],
          "name": "previousVolumes",
          "outputs": [
            {
              "internalType": "uint256",
              "name": "",
              "type": "uint256"
            }
          ],
          "stateMutability": "view",
          "type": "function"
        },
        {
          "inputs": [],
          "name": "renounceOwnership",
          "outputs": [],
          "stateMutability": "nonpayable",
          "type": "function"
        },
        {
          "inputs": [
            {
              "internalType": "uint256",
              "name": "amountOut",
              "type": "uint256"
            },
            {
              "internalType": "address[]",
              "name": "path",
              "type": "address[]"
            },
            {
              "internalType": "address",
              "name": "to",
              "type": "address"
            },
            {
              "internalType": "uint256",
              "name": "deadline",
              "type": "uint256"
            }
          ],
          "name": "swapETHForExactTokens",
          "outputs": [
            {
              "internalType": "uint256[]",
              "name": "",
              "type": "uint256[]"
            }
          ],
          "stateMutability": "payable",
          "type": "function"
        },
        {
          "inputs": [
            {
              "internalType": "uint256",
              "name": "amountOutMin",
              "type": "uint256"
            },
            {
              "internalType": "address[]",
              "name": "path",
              "type": "address[]"
            },
            {
              "internalType": "address",
              "name": "to",
              "type": "address"
            },
            {
              "internalType": "uint256",
              "name": "deadline",
              "type": "uint256"
            }
          ],
          "name": "swapExactETHForTokens",
          "outputs": [
            {
              "internalType": "uint256[]",
              "name": "out",
              "type": "uint256[]"
            }
          ],
          "stateMutability": "payable",
          "type": "function"
        },
        {
          "inputs": [
            {
              "internalType": "uint256",
              "name": "amountIn",
              "type": "uint256"
            },
            {
              "internalType": "uint256",
              "name": "amountOutMin",
              "type": "uint256"
            },
            {
              "internalType": "address[]",
              "name": "path",
              "type": "address[]"
            },
            {
              "internalType": "address",
              "name": "to",
              "type": "address"
            },
            {
              "internalType": "uint256",
              "name": "deadline",
              "type": "uint256"
            }
          ],
          "name": "swapExactTokensForETH",
          "outputs": [
            {
              "internalType": "uint256[]",
              "name": "",
              "type": "uint256[]"
            }
          ],
          "stateMutability": "nonpayable",
          "type": "function"
        },
        {
          "inputs": [
            {
              "internalType": "uint256",
              "name": "amountOut",
              "type": "uint256"
            },
            {
              "internalType": "uint256",
              "name": "amountInMax",
              "type": "uint256"
            },
            {
              "internalType": "address[]",
              "name": "path",
              "type": "address[]"
            },
            {
              "internalType": "address",
              "name": "to",
              "type": "address"
            },
            {
              "internalType": "uint256",
              "name": "deadline",
              "type": "uint256"
            }
          ],
          "name": "swapTokensForExactETH",
          "outputs": [
            {
              "internalType": "uint256[]",
              "name": "out",
              "type": "uint256[]"
            }
          ],
          "stateMutability": "nonpayable",
          "type": "function"
        },
        {
          "inputs": [],
          "name": "totalDays",
          "outputs": [
            {
              "internalType": "uint256",
              "name": "",
              "type": "uint256"
            }
          ],
          "stateMutability": "view",
          "type": "function"
        },
        {
          "inputs": [],
          "name": "totalRewardBalance",
          "outputs": [
            {
              "internalType": "uint256",
              "name": "",
              "type": "uint256"
            }
          ],
          "stateMutability": "view",
          "type": "function"
        },
        {
          "inputs": [
            {
              "internalType": "address",
              "name": "newOwner",
              "type": "address"
            }
          ],
          "name": "transferOwnership",
          "outputs": [],
          "stateMutability": "nonpayable",
          "type": "function"
        },
        {
          "inputs": [
            {
              "internalType": "address",
              "name": "",
              "type": "address"
            },
            {
              "internalType": "uint256",
              "name": "",
              "type": "uint256"
            }
          ],
          "name": "volumeRecords",
          "outputs": [
            {
              "internalType": "uint256",
              "name": "",
              "type": "uint256"
            }
          ],
          "stateMutability": "view",
          "type": "function"
        },
        {
          "inputs": [
            {
              "internalType": "uint256",
              "name": "amount",
              "type": "uint256"
            }
          ],
          "name": "withdrawRewardTokens",
          "outputs": [],
          "stateMutability": "nonpayable",
          "type": "function"
        }
      ],
      "evm": {
        "bytecode": {
          "linkReferences": {},
          "object": "60e060405260006009553480156200001657600080fd5b50604051620053a3380380620053a383398181016040528101906200003c9190620004a2565b6200005c620000506200037c60201b60201c565b6200038460201b60201c565b600073ffffffffffffffffffffffffffffffffffffffff168873ffffffffffffffffffffffffffffffffffffffff1614158015620000c75750600073ffffffffffffffffffffffffffffffffffffffff168773ffffffffffffffffffffffffffffffffffffffff1614155b8015620001015750600073ffffffffffffffffffffffffffffffffffffffff168673ffffffffffffffffffffffffffffffffffffffff1614155b62000143576040517f08c379a00000000000000000000000000000000000000000000000000000000081526004016200013a906200058c565b60405180910390fd5b426080818152505087600160006101000a81548173ffffffffffffffffffffffffffffffffffffffff021916908373ffffffffffffffffffffffffffffffffffffffff16021790555086600260006101000a81548173ffffffffffffffffffffffffffffffffffffffff021916908373ffffffffffffffffffffffffffffffffffffffff16021790555085600360006101000a81548173ffffffffffffffffffffffffffffffffffffffff021916908373ffffffffffffffffffffffffffffffffffffffff16021790555084600460008081526020019081526020016000208190555083600b8190555082600a81905550600160009054906101000a900473ffffffffffffffffffffffffffffffffffffffff1673ffffffffffffffffffffffffffffffffffffffff1663ad5c46486040518163ffffffff1660e01b815260040160206040518083038186803b1580156200029d57600080fd5b505afa158015620002b2573d6000803e3d6000fd5b505050506040513d601f19601f82011682018060405250810190620002d8919062000476565b600d60006101000a81548173ffffffffffffffffffffffffffffffffffffffff021916908373ffffffffffffffffffffffffffffffffffffffff160217905550606482670de0b6b3a7640000620003309190620005f7565b6200033c9190620005bf565b60a08181525050606481670de0b6b3a76400006200035b9190620005f7565b620003679190620005bf565b60c08181525050505050505050505062000777565b600033905090565b60008060009054906101000a900473ffffffffffffffffffffffffffffffffffffffff169050816000806101000a81548173ffffffffffffffffffffffffffffffffffffffff021916908373ffffffffffffffffffffffffffffffffffffffff1602179055508173ffffffffffffffffffffffffffffffffffffffff168173ffffffffffffffffffffffffffffffffffffffff167f8be0079c531659141344cd1fd0a4f28419497f9722a3daafe3b4186f6b6457e060405160405180910390a35050565b600081519050620004598162000743565b92915050565b60008151905062000470816200075d565b92915050565b6000602082840312156200048957600080fd5b6000620004998482850162000448565b91505092915050565b600080600080600080600080610100898b031215620004c057600080fd5b6000620004d08b828c0162000448565b9850506020620004e38b828c0162000448565b9750506040620004f68b828c0162000448565b9650506060620005098b828c016200045f565b95505060806200051c8b828c016200045f565b94505060a06200052f8b828c016200045f565b93505060c0620005428b828c016200045f565b92505060e0620005558b828c016200045f565b9150509295985092959890939650565b600062000574602283620005ae565b91506200058182620006f4565b604082019050919050565b60006020820190508181036000830152620005a78162000565565b9050919050565b600082825260208201905092915050565b6000620005cc826200068c565b9150620005d9836200068c565b925082620005ec57620005eb620006c5565b5b828204905092915050565b600062000604826200068c565b915062000611836200068c565b9250817fffffffffffffffffffffffffffffffffffffffffffffffffffffffffffffffff04831182151516156200064d576200064c62000696565b5b828202905092915050565b600062000665826200066c565b9050919050565b600073ffffffffffffffffffffffffffffffffffffffff82169050919050565b6000819050919050565b7f4e487b7100000000000000000000000000000000000000000000000000000000600052601160045260246000fd5b7f4e487b7100000000000000000000000000000000000000000000000000000000600052601260045260246000fd5b7f5b5d204164647265737365732063616e206e6f7420626520302061646472657360008201527f732e000000000000000000000000000000000000000000000000000000000000602082015250565b6200074e8162000658565b81146200075a57600080fd5b50565b62000768816200068c565b81146200077457600080fd5b50565b60805160a05160c051614bcb620007d86000396000818161218a015281816121b201528181612dc10152612de90152600081816121280152818161215001528181612d5f0152612d87015260008181611a3c0152611b850152614bcb6000f3fe6080604052600436106101665760003560e01c80637e2ca288116100d1578063b203dc601161008a578063d06ca61f11610064578063d06ca61f14610559578063de2af4b014610596578063f2fde38b146105c1578063fb3bdb41146105ea57610166565b8063b203dc60146104b6578063cb43b2dd146104f3578063ceb7f9951461051c57610166565b80637e2ca2881461038b5780637ff36ab5146103b65780638acc3673146103e65780638da5cb5b14610411578063940ce8721461043c57806394f557891461047957610166565b80631f924d86116101235780631f924d861461027b5780634a25d94a146102b85780636572ca0c146102f5578063715018a61461032057806378fb427a146103375780637a40624b1461036057610166565b8063078e36491461016b57806307a779bc146101965780630b83a727146101c157806316c621e0146101d857806318cbafe5146102015780631f00ca741461023e575b600080fd5b34801561017757600080fd5b5061018061061a565b60405161018d9190614374565b60405180910390f35b3480156101a257600080fd5b506101ab610620565b6040516101b89190614374565b60405180910390f35b3480156101cd57600080fd5b506101d6610897565b005b3480156101e457600080fd5b506101ff60048036038101906101fa9190613bda565b610e6b565b005b34801561020d57600080fd5b5061022860048036038101906102239190613d04565b610f52565b6040516102359190614195565b60405180910390f35b34801561024a57600080fd5b5061026560048036038101906102609190613c2c565b611385565b6040516102729190614195565b60405180910390f35b34801561028757600080fd5b506102a2600480360381019061029d9190613bda565b611444565b6040516102af9190614374565b60405180910390f35b3480156102c457600080fd5b506102df60048036038101906102da9190613d04565b61145c565b6040516102ec9190614195565b60405180910390f35b34801561030157600080fd5b5061030a611a34565b6040516103179190614374565b60405180910390f35b34801561032c57600080fd5b50610335611a75565b005b34801561034357600080fd5b5061035e60048036038101906103599190613bda565b611afd565b005b34801561036c57600080fd5b50610375611b83565b6040516103829190614374565b60405180910390f35b34801561039757600080fd5b506103a0611ba7565b6040516103ad9190614374565b60405180910390f35b6103d060048036038101906103cb9190613c84565b611bad565b6040516103dd9190614195565b60405180910390f35b3480156103f257600080fd5b506103fb611fb0565b6040516104089190614374565b60405180910390f35b34801561041d57600080fd5b50610426611fb6565b60405161043391906140f1565b60405180910390f35b34801561044857600080fd5b50610463600480360381019061045e9190613b34565b611fdf565b6040516104709190614374565b60405180910390f35b34801561048557600080fd5b506104a0600480360381019061049b9190613bda565b612004565b6040516104ad9190614374565b60405180910390f35b3480156104c257600080fd5b506104dd60048036038101906104d89190613bda565b612236565b6040516104ea9190614374565b60405180910390f35b3480156104ff57600080fd5b5061051a60048036038101906105159190613bda565b61224e565b005b34801561052857600080fd5b50610543600480360381019061053e9190613bda565b612378565b6040516105509190614374565b60405180910390f35b34801561056557600080fd5b50610580600480360381019061057b9190613c2c565b612390565b60405161058d9190614195565b60405180910390f35b3480156105a257600080fd5b506105ab61244f565b6040516105b891906141b7565b60405180910390f35b3480156105cd57600080fd5b506105e860048036038101906105e39190613b0b565b61248e565b005b61060460048036038101906105ff9190613c84565b612586565b6040516106119190614195565b60405180910390f35b600a5481565b600080600090506000670de0b6b3a7640000905060005b61067e600860003373ffffffffffffffffffffffffffffffffffffffff1673ffffffffffffffffffffffffffffffffffffffff168152602001908152602001600020612a91565b81101561088e57600c546106d982600860003373ffffffffffffffffffffffffffffffffffffffff1673ffffffffffffffffffffffffffffffffffffffff168152602001908152602001600020612aa690919063ffffffff16565b101561087b576107f5600560003373ffffffffffffffffffffffffffffffffffffffff1673ffffffffffffffffffffffffffffffffffffffff168152602001908152602001600020600061077484600860003373ffffffffffffffffffffffffffffffffffffffff1673ffffffffffffffffffffffffffffffffffffffff168152602001908152602001600020612aa690919063ffffffff16565b815260200190815260200160002054670de0b6b3a7640000600660006107e186600860003373ffffffffffffffffffffffffffffffffffffffff1673ffffffffffffffffffffffffffffffffffffffff168152602001908152602001600020612aa690919063ffffffff16565b815260200190815260200160002054612ac0565b915061086d826007600061085085600860003373ffffffffffffffffffffffffffffffffffffffff1673ffffffffffffffffffffffffffffffffffffffff168152602001908152602001600020612aa690919063ffffffff16565b815260200190815260200160002054670de0b6b3a7640000612ac0565b836108789190614566565b92505b808061088690614727565b915050610637565b50819250505090565b61089f611a34565b6001600c546108ae9190614566565b111580156108c05750600a54600c5414155b156108ce576108cd612c61565b5b600080670de0b6b3a764000090506000610925600860003373ffffffffffffffffffffffffffffffffffffffff1673ffffffffffffffffffffffffffffffffffffffff168152602001908152602001600020612a91565b905061097a600c54600860003373ffffffffffffffffffffffffffffffffffffffff1673ffffffffffffffffffffffffffffffffffffffff168152602001908152602001600020612f1a90919063ffffffff16565b1561098f5760018161098c9190614647565b90505b60008167ffffffffffffffff8111156109d1577f4e487b7100000000000000000000000000000000000000000000000000000000600052604160045260246000fd5b6040519080825280602002602001820160405280156109ff5781602001602082028036833780820191505090505b50905060005b82811015610cac57600c54610a6182600860003373ffffffffffffffffffffffffffffffffffffffff1673ffffffffffffffffffffffffffffffffffffffff168152602001908152602001600020612aa690919063ffffffff16565b1015610c9957610b7d600560003373ffffffffffffffffffffffffffffffffffffffff1673ffffffffffffffffffffffffffffffffffffffff1681526020019081526020016000206000610afc84600860003373ffffffffffffffffffffffffffffffffffffffff1673ffffffffffffffffffffffffffffffffffffffff168152602001908152602001600020612aa690919063ffffffff16565b815260200190815260200160002054670de0b6b3a764000060066000610b6986600860003373ffffffffffffffffffffffffffffffffffffffff1673ffffffffffffffffffffffffffffffffffffffff168152602001908152602001600020612aa690919063ffffffff16565b815260200190815260200160002054612ac0565b9350610bf58460076000610bd885600860003373ffffffffffffffffffffffffffffffffffffffff1673ffffffffffffffffffffffffffffffffffffffff168152602001908152602001600020612aa690919063ffffffff16565b815260200190815260200160002054670de0b6b3a7640000612ac0565b85610c009190614566565b9450610c5381600860003373ffffffffffffffffffffffffffffffffffffffff1673ffffffffffffffffffffffffffffffffffffffff168152602001908152602001600020612aa690919063ffffffff16565b828281518110610c8c577f4e487b7100000000000000000000000000000000000000000000000000000000600052603260045260246000fd5b6020026020010181815250505b8080610ca490614727565b915050610a05565b5060005b82811015610d9b57610d49828281518110610cf4577f4e487b7100000000000000000000000000000000000000000000000000000000600052603260045260246000fd5b6020026020010151600860003373ffffffffffffffffffffffffffffffffffffffff1673ffffffffffffffffffffffffffffffffffffffff168152602001908152602001600020612f3490919063ffffffff16565b610d88576040517f08c379a0000000000000000000000000000000000000000000000000000000008152600401610d7f906141f4565b60405180910390fd5b8080610d9390614727565b915050610cb0565b5060008411610ddf576040517f08c379a0000000000000000000000000000000000000000000000000000000008152600401610dd6906142f4565b60405180910390fd5b610e2c3385600360009054906101000a900473ffffffffffffffffffffffffffffffffffffffff1673ffffffffffffffffffffffffffffffffffffffff16612f4e9092919063ffffffff16565b7f106f923f993c2149d49b4255ff723acafa1f2d94393f561d3eda32ae348f72413385604051610e5d92919061416c565b60405180910390a150505050565b610e73612fd4565b73ffffffffffffffffffffffffffffffffffffffff16610e91611fb6565b73ffffffffffffffffffffffffffffffffffffffff1614610ee7576040517f08c379a0000000000000000000000000000000000000000000000000000000008152600401610ede906142d4565b60405180910390fd5b8060096000828254610ef99190614566565b92505081905550610f4f333083600360009054906101000a900473ffffffffffffffffffffffffffffffffffffffff1673ffffffffffffffffffffffffffffffffffffffff16612fdc909392919063ffffffff16565b50565b6060600d60009054906101000a900473ffffffffffffffffffffffffffffffffffffffff1673ffffffffffffffffffffffffffffffffffffffff168585600188889050610f9f9190614647565b818110610fd5577f4e487b7100000000000000000000000000000000000000000000000000000000600052603260045260246000fd5b9050602002016020810190610fea9190613b0b565b73ffffffffffffffffffffffffffffffffffffffff1614611040576040517f08c379a000000000000000000000000000000000000000000000000000000000815260040161103790614214565b60405180910390fd5b600260009054906101000a900473ffffffffffffffffffffffffffffffffffffffff1673ffffffffffffffffffffffffffffffffffffffff16858560008181106110b3577f4e487b7100000000000000000000000000000000000000000000000000000000600052603260045260246000fd5b90506020020160208101906110c89190613b0b565b73ffffffffffffffffffffffffffffffffffffffff161461111e576040517f08c379a000000000000000000000000000000000000000000000000000000000815260040161111590614214565b60405180910390fd5b611176611129611a34565b600860003373ffffffffffffffffffffffffffffffffffffffff1673ffffffffffffffffffffffffffffffffffffffff168152602001908152602001600020612f1a90919063ffffffff16565b15801561118b5750600a54611189611a34565b105b156111ea576111e861119b611a34565b600860003373ffffffffffffffffffffffffffffffffffffffff1673ffffffffffffffffffffffffffffffffffffffff16815260200190815260200160002061306590919063ffffffff16565b505b611239333089600260009054906101000a900473ffffffffffffffffffffffffffffffffffffffff1673ffffffffffffffffffffffffffffffffffffffff16612fdc909392919063ffffffff16565b6112a8600160009054906101000a900473ffffffffffffffffffffffffffffffffffffffff1688600260009054906101000a900473ffffffffffffffffffffffffffffffffffffffff1673ffffffffffffffffffffffffffffffffffffffff1661307f9092919063ffffffff16565b600a54600c54146112bd576112bc876131a0565b5b600160009054906101000a900473ffffffffffffffffffffffffffffffffffffffff1673ffffffffffffffffffffffffffffffffffffffff166318cbafe58888888888886040518763ffffffff1660e01b81526004016113229695949392919061440f565b600060405180830381600087803b15801561133c57600080fd5b505af1158015611350573d6000803e3d6000fd5b505050506040513d6000823e3d601f19601f820116820180604052508101906113799190613b70565b90509695505050505050565b6060600160009054906101000a900473ffffffffffffffffffffffffffffffffffffffff1673ffffffffffffffffffffffffffffffffffffffff16631f00ca748585856040518463ffffffff1660e01b81526004016113e69392919061438f565b60006040518083038186803b1580156113fe57600080fd5b505afa158015611412573d6000803e3d6000fd5b505050506040513d6000823e3d601f19601f8201168201806040525081019061143b9190613b70565b90509392505050565b60066020528060005260406000206000915090505481565b6060600d60009054906101000a900473ffffffffffffffffffffffffffffffffffffffff1673ffffffffffffffffffffffffffffffffffffffff1685856001888890506114a99190614647565b8181106114df577f4e487b7100000000000000000000000000000000000000000000000000000000600052603260045260246000fd5b90506020020160208101906114f49190613b0b565b73ffffffffffffffffffffffffffffffffffffffff161461154a576040517f08c379a000000000000000000000000000000000000000000000000000000000815260040161154190614214565b60405180910390fd5b600260009054906101000a900473ffffffffffffffffffffffffffffffffffffffff1673ffffffffffffffffffffffffffffffffffffffff16858560008181106115bd577f4e487b7100000000000000000000000000000000000000000000000000000000600052603260045260246000fd5b90506020020160208101906115d29190613b0b565b73ffffffffffffffffffffffffffffffffffffffff1614611628576040517f08c379a000000000000000000000000000000000000000000000000000000000815260040161161f90614214565b60405180910390fd5b611680611633611a34565b600860003373ffffffffffffffffffffffffffffffffffffffff1673ffffffffffffffffffffffffffffffffffffffff168152602001908152602001600020612f1a90919063ffffffff16565b1580156116955750600a54611693611a34565b105b156116f4576116f26116a5611a34565b600860003373ffffffffffffffffffffffffffffffffffffffff1673ffffffffffffffffffffffffffffffffffffffff16815260200190815260200160002061306590919063ffffffff16565b505b6118373330600160009054906101000a900473ffffffffffffffffffffffffffffffffffffffff1673ffffffffffffffffffffffffffffffffffffffff16631f00ca748b8a8a6040518463ffffffff1660e01b81526004016117589392919061438f565b60006040518083038186803b15801561177057600080fd5b505afa158015611784573d6000803e3d6000fd5b505050506040513d6000823e3d601f19601f820116820180604052508101906117ad9190613b70565b6000815181106117e6577f4e487b7100000000000000000000000000000000000000000000000000000000600052603260045260246000fd5b6020026020010151600260009054906101000a900473ffffffffffffffffffffffffffffffffffffffff1673ffffffffffffffffffffffffffffffffffffffff16612fdc909392919063ffffffff16565b6118a6600160009054906101000a900473ffffffffffffffffffffffffffffffffffffffff1687600260009054906101000a900473ffffffffffffffffffffffffffffffffffffffff1673ffffffffffffffffffffffffffffffffffffffff1661307f9092919063ffffffff16565b600160009054906101000a900473ffffffffffffffffffffffffffffffffffffffff1673ffffffffffffffffffffffffffffffffffffffff16634a25d94a8888888888886040518763ffffffff1660e01b815260040161190b9695949392919061440f565b600060405180830381600087803b15801561192557600080fd5b505af1158015611939573d6000803e3d6000fd5b505050506040513d6000823e3d601f19601f820116820180604052508101906119629190613b70565b9050600a54600c54146119ba576119b9816000815181106119ac577f4e487b7100000000000000000000000000000000000000000000000000000000600052603260045260246000fd5b60200260200101516131a0565b5b611a2a600160009054906101000a900473ffffffffffffffffffffffffffffffffffffffff166000600260009054906101000a900473ffffffffffffffffffffffffffffffffffffffff1673ffffffffffffffffffffffffffffffffffffffff1661328b9092919063ffffffff16565b9695505050505050565b6000620151807f000000000000000000000000000000000000000000000000000000000000000042611a669190614647565b611a7091906145bc565b905090565b611a7d612fd4565b73ffffffffffffffffffffffffffffffffffffffff16611a9b611fb6565b73ffffffffffffffffffffffffffffffffffffffff1614611af1576040517f08c379a0000000000000000000000000000000000000000000000000000000008152600401611ae8906142d4565b60405180910390fd5b611afb60006133e9565b565b611b05612fd4565b73ffffffffffffffffffffffffffffffffffffffff16611b23611fb6565b73ffffffffffffffffffffffffffffffffffffffff1614611b79576040517f08c379a0000000000000000000000000000000000000000000000000000000008152600401611b70906142d4565b60405180910390fd5b80600a8190555050565b7f000000000000000000000000000000000000000000000000000000000000000081565b60095481565b6060600d60009054906101000a900473ffffffffffffffffffffffffffffffffffffffff1673ffffffffffffffffffffffffffffffffffffffff1685856000818110611c22577f4e487b7100000000000000000000000000000000000000000000000000000000600052603260045260246000fd5b9050602002016020810190611c379190613b0b565b73ffffffffffffffffffffffffffffffffffffffff1614611c8d576040517f08c379a0000000000000000000000000000000000000000000000000000000008152600401611c8490614214565b60405180910390fd5b600260009054906101000a900473ffffffffffffffffffffffffffffffffffffffff1673ffffffffffffffffffffffffffffffffffffffff168585600188889050611cd89190614647565b818110611d0e577f4e487b7100000000000000000000000000000000000000000000000000000000600052603260045260246000fd5b9050602002016020810190611d239190613b0b565b73ffffffffffffffffffffffffffffffffffffffff1614611d79576040517f08c379a0000000000000000000000000000000000000000000000000000000008152600401611d7090614214565b60405180910390fd5b60003411611dbc576040517f08c379a0000000000000000000000000000000000000000000000000000000008152600401611db390614254565b60405180910390fd5b611e14611dc7611a34565b600860003373ffffffffffffffffffffffffffffffffffffffff1673ffffffffffffffffffffffffffffffffffffffff168152602001908152602001600020612f1a90919063ffffffff16565b158015611e295750600a54611e27611a34565b105b15611e8857611e86611e39611a34565b600860003373ffffffffffffffffffffffffffffffffffffffff1673ffffffffffffffffffffffffffffffffffffffff16815260200190815260200160002061306590919063ffffffff16565b505b600160009054906101000a900473ffffffffffffffffffffffffffffffffffffffff1673ffffffffffffffffffffffffffffffffffffffff16637ff36ab53488888888886040518763ffffffff1660e01b8152600401611eec9594939291906143c1565b6000604051808303818588803b158015611f0557600080fd5b505af1158015611f19573d6000803e3d6000fd5b50505050506040513d6000823e3d601f19601f82011682018060405250810190611f439190613b70565b9050600a54600c5414611fa757611fa68160018351611f629190614647565b81518110611f99577f4e487b7100000000000000000000000000000000000000000000000000000000600052603260045260246000fd5b60200260200101516131a0565b5b95945050505050565b600c5481565b60008060009054906101000a900473ffffffffffffffffffffffffffffffffffffffff16905090565b6005602052816000526040600020602052806000526040600020600091509150505481565b600080600090506000670de0b6b3a7640000905061206984600860003373ffffffffffffffffffffffffffffffffffffffff1673ffffffffffffffffffffffffffffffffffffffff168152602001908152602001600020612f1a90919063ffffffff16565b1561222c576120e4600560003373ffffffffffffffffffffffffffffffffffffffff1673ffffffffffffffffffffffffffffffffffffffff168152602001908152602001600020600086815260200190815260200160002054670de0b6b3a76400006006600088815260200190815260200160002054612ac0565b90506000600c5485101561210d576007600086815260200190815260200160002054905061220a565b600c54851415612209576000612124600c546134ad565b90507f0000000000000000000000000000000000000000000000000000000000000000811115612176577f000000000000000000000000000000000000000000000000000000000000000090506121d6565b600081141561218857600090506121d5565b7f00000000000000000000000000000000000000000000000000000000000000008110156121d4577f000000000000000000000000000000000000000000000000000000000000000090505b5b5b612205600c54600a546121e99190614647565b6009546121f691906145bc565b82670de0b6b3a7640000612ac0565b9150505b5b61221d8282670de0b6b3a7640000612ac0565b836122289190614566565b9250505b8192505050919050565b60076020528060005260406000206000915090505481565b612256612fd4565b73ffffffffffffffffffffffffffffffffffffffff16612274611fb6565b73ffffffffffffffffffffffffffffffffffffffff16146122ca576040517f08c379a00000000000000000000000000000000000000000000000000000000081526004016122c1906142d4565b60405180910390fd5b80600954101561230f576040517f08c379a0000000000000000000000000000000000000000000000000000000008152600401612306906142b4565b60405180910390fd5b80600960008282546123219190614647565b925050819055506123753382600360009054906101000a900473ffffffffffffffffffffffffffffffffffffffff1673ffffffffffffffffffffffffffffffffffffffff16612f4e9092919063ffffffff16565b50565b60046020528060005260406000206000915090505481565b6060600160009054906101000a900473ffffffffffffffffffffffffffffffffffffffff1673ffffffffffffffffffffffffffffffffffffffff1663d06ca61f8585856040518463ffffffff1660e01b81526004016123f19392919061438f565b60006040518083038186803b15801561240957600080fd5b505afa15801561241d573d6000803e3d6000fd5b505050506040513d6000823e3d601f19601f820116820180604052508101906124469190613b70565b90509392505050565b6000612459611a34565b6001600c546124689190614566565b1115801561247a5750600a54600c5414155b15806124895750600a54600c54145b905090565b612496612fd4565b73ffffffffffffffffffffffffffffffffffffffff166124b4611fb6565b73ffffffffffffffffffffffffffffffffffffffff161461250a576040517f08c379a0000000000000000000000000000000000000000000000000000000008152600401612501906142d4565b60405180910390fd5b600073ffffffffffffffffffffffffffffffffffffffff168173ffffffffffffffffffffffffffffffffffffffff16141561257a576040517f08c379a000000000000000000000000000000000000000000000000000000000815260040161257190614234565b60405180910390fd5b612583816133e9565b50565b6060600d60009054906101000a900473ffffffffffffffffffffffffffffffffffffffff1673ffffffffffffffffffffffffffffffffffffffff16858560008181106125fb577f4e487b7100000000000000000000000000000000000000000000000000000000600052603260045260246000fd5b90506020020160208101906126109190613b0b565b73ffffffffffffffffffffffffffffffffffffffff1614612666576040517f08c379a000000000000000000000000000000000000000000000000000000000815260040161265d90614214565b60405180910390fd5b600260009054906101000a900473ffffffffffffffffffffffffffffffffffffffff1673ffffffffffffffffffffffffffffffffffffffff1685856001888890506126b19190614647565b8181106126e7577f4e487b7100000000000000000000000000000000000000000000000000000000600052603260045260246000fd5b90506020020160208101906126fc9190613b0b565b73ffffffffffffffffffffffffffffffffffffffff1614612752576040517f08c379a000000000000000000000000000000000000000000000000000000000815260040161274990614214565b60405180910390fd5b6000600160009054906101000a900473ffffffffffffffffffffffffffffffffffffffff1673ffffffffffffffffffffffffffffffffffffffff16631f00ca748888886040518463ffffffff1660e01b81526004016127b39392919061438f565b60006040518083038186803b1580156127cb57600080fd5b505afa1580156127df573d6000803e3d6000fd5b505050506040513d6000823e3d601f19601f820116820180604052508101906128089190613b70565b600081518110612841577f4e487b7100000000000000000000000000000000000000000000000000000000600052603260045260246000fd5b602002602001015190508034101561288e576040517f08c379a000000000000000000000000000000000000000000000000000000000815260040161288590614294565b60405180910390fd5b6128e6612899611a34565b600860003373ffffffffffffffffffffffffffffffffffffffff1673ffffffffffffffffffffffffffffffffffffffff168152602001908152602001600020612f1a90919063ffffffff16565b1580156128fb5750600a546128f9611a34565b105b1561295a5761295861290b611a34565b600860003373ffffffffffffffffffffffffffffffffffffffff1673ffffffffffffffffffffffffffffffffffffffff16815260200190815260200160002061306590919063ffffffff16565b505b600a54600c541461296f5761296e876131a0565b5b803411156129ca573373ffffffffffffffffffffffffffffffffffffffff166108fc823461299d9190614647565b9081150290604051600060405180830381858888f193505050501580156129c8573d6000803e3d6000fd5b505b600160009054906101000a900473ffffffffffffffffffffffffffffffffffffffff1673ffffffffffffffffffffffffffffffffffffffff1663fb3bdb418289898989896040518763ffffffff1660e01b8152600401612a2e9594939291906143c1565b6000604051808303818588803b158015612a4757600080fd5b505af1158015612a5b573d6000803e3d6000fd5b50505050506040513d6000823e3d601f19601f82011682018060405250810190612a859190613b70565b91505095945050505050565b6000612a9f826000016134ef565b9050919050565b6000612ab58360000183613500565b60001c905092915050565b6000808211612ace57600080fd5b6000806000198587098587029250828110838203039150506000811415612afb5783820492505050612c5a565b838110612b0757600080fd5b6000848688099050828111820391508083039250600060018619612b2b9190614566565b861690508086049550808404935060018182600003040190508083612b5091906145ed565b8417935060006002876003612b6591906145ed565b1890508087612b7491906145ed565b6002612b809190614647565b81612b8b91906145ed565b90508087612b9991906145ed565b6002612ba59190614647565b81612bb091906145ed565b90508087612bbe91906145ed565b6002612bca9190614647565b81612bd591906145ed565b90508087612be391906145ed565b6002612bef9190614647565b81612bfa91906145ed565b90508087612c0891906145ed565b6002612c149190614647565b81612c1f91906145ed565b90508087612c2d91906145ed565b6002612c399190614647565b81612c4491906145ed565b90508085612c5291906145ed565b955050505050505b9392505050565b6000612c6b611a34565b905060006001600c54600b54612c819190614566565b612c8b9190614566565b9050816001600c54612c9d9190614566565b1115612cd2577f4e487b7100000000000000000000000000000000000000000000000000000000600052600160045260246000fd5b8060066000600c54815260200190815260200160002054612cf391906145bc565b612d1f60046000600c54815260200190815260200160002054600184612d199190614647565b84612ac0565b612d299190614566565b600460006001600c54612d3c9190614566565b8152602001908152602001600020819055506000612d5b600c546134ad565b90507f0000000000000000000000000000000000000000000000000000000000000000811115612dad577f00000000000000000000000000000000000000000000000000000000000000009050612e0d565b6000811415612dbf5760009050612e0c565b7f0000000000000000000000000000000000000000000000000000000000000000811015612e0b577f000000000000000000000000000000000000000000000000000000000000000090505b5b5b6001600a54612e1c9190614647565b600c54148015612e335750670de0b6b3a764000081115b15612e595760095460076000600c54815260200190815260200160002081905550612ea2565b612e88600c54600a54612e6c9190614647565b600954612e7991906145bc565b82670de0b6b3a7640000612ac0565b60076000600c548152602001908152602001600020819055505b60076000600c54815260200190815260200160002054600954612ec59190614647565b6009819055506001600c6000828254612ede9190614566565b92505081905550826001600c54612ef59190614566565b11158015612f075750600a54600c5414155b15612f1557612f14612c61565b5b505050565b6000612f2c836000018360001b613551565b905092915050565b6000612f46836000018360001b613574565b905092915050565b612fcf8363a9059cbb60e01b8484604051602401612f6d92919061416c565b604051602081830303815290604052907bffffffffffffffffffffffffffffffffffffffffffffffffffffffff19166020820180517bffffffffffffffffffffffffffffffffffffffffffffffffffffffff83818316178352505050506136fa565b505050565b600033905090565b61305f846323b872dd60e01b858585604051602401612ffd93929190614135565b604051602081830303815290604052907bffffffffffffffffffffffffffffffffffffffffffffffffffffffff19166020820180517bffffffffffffffffffffffffffffffffffffffffffffffffffffffff83818316178352505050506136fa565b50505050565b6000613077836000018360001b6137c1565b905092915050565b6000818473ffffffffffffffffffffffffffffffffffffffff1663dd62ed3e30866040518363ffffffff1660e01b81526004016130bd92919061410c565b60206040518083038186803b1580156130d557600080fd5b505afa1580156130e9573d6000803e3d6000fd5b505050506040513d601f19601f8201168201806040525081019061310d9190613c03565b6131179190614566565b905061319a8463095ea7b360e01b858460405160240161313892919061416c565b604051602081830303815290604052907bffffffffffffffffffffffffffffffffffffffffffffffffffffffff19166020820180517bffffffffffffffffffffffffffffffffffffffffffffffffffffffff83818316178352505050506136fa565b50505050565b600a546131ab611a34565b10156132515780600560003373ffffffffffffffffffffffffffffffffffffffff1673ffffffffffffffffffffffffffffffffffffffff16815260200190815260200160002060006131fb611a34565b815260200190815260200160002060008282546132189190614566565b92505081905550806006600061322c611a34565b815260200190815260200160002060008282546132499190614566565b925050819055505b613259611a34565b6001600c546132689190614566565b1115801561327a5750600a54600c5414155b1561328857613287612c61565b5b50565b6000811480613324575060008373ffffffffffffffffffffffffffffffffffffffff1663dd62ed3e30856040518363ffffffff1660e01b81526004016132d292919061410c565b60206040518083038186803b1580156132ea57600080fd5b505afa1580156132fe573d6000803e3d6000fd5b505050506040513d601f19601f820116820180604052508101906133229190613c03565b145b613363576040517f08c379a000000000000000000000000000000000000000000000000000000000815260040161335a90614354565b60405180910390fd5b6133e48363095ea7b360e01b848460405160240161338292919061416c565b604051602081830303815290604052907bffffffffffffffffffffffffffffffffffffffffffffffffffffffff19166020820180517bffffffffffffffffffffffffffffffffffffffffffffffffffffffff83818316178352505050506136fa565b505050565b60008060009054906101000a900473ffffffffffffffffffffffffffffffffffffffff169050816000806101000a81548173ffffffffffffffffffffffffffffffffffffffff021916908373ffffffffffffffffffffffffffffffffffffffff1602179055508173ffffffffffffffffffffffffffffffffffffffff168173ffffffffffffffffffffffffffffffffffffffff167f8be0079c531659141344cd1fd0a4f28419497f9722a3daafe3b4186f6b6457e060405160405180910390a35050565b60006134e86006600084815260200190815260200160002054670de0b6b3a76400006004600086815260200190815260200160002054612ac0565b9050919050565b600081600001805490509050919050565b600082600001828154811061353e577f4e487b7100000000000000000000000000000000000000000000000000000000600052603260045260246000fd5b9060005260206000200154905092915050565b600080836001016000848152602001908152602001600020541415905092915050565b600080836001016000848152602001908152602001600020549050600081146136ee5760006001826135a69190614647565b90506000600186600001805490506135be9190614647565b9050818114613679576000866000018281548110613605577f4e487b7100000000000000000000000000000000000000000000000000000000600052603260045260246000fd5b906000526020600020015490508087600001848154811061364f577f4e487b7100000000000000000000000000000000000000000000000000000000600052603260045260246000fd5b90600052602060002001819055508387600101600083815260200190815260200160002081905550505b856000018054806136b3577f4e487b7100000000000000000000000000000000000000000000000000000000600052603160045260246000fd5b6001900381819060005260206000200160009055905585600101600086815260200190815260200160002060009055600193505050506136f4565b60009150505b92915050565b600061375c826040518060400160405280602081526020017f5361666545524332303a206c6f772d6c6576656c2063616c6c206661696c65648152508573ffffffffffffffffffffffffffffffffffffffff166138319092919063ffffffff16565b90506000815111156137bc578080602001905181019061377c9190613bb1565b6137bb576040517f08c379a00000000000000000000000000000000000000000000000000000000081526004016137b290614334565b60405180910390fd5b5b505050565b60006137cd8383613551565b61382657826000018290806001815401808255809150506001900390600052602060002001600090919091909150558260000180549050836001016000848152602001908152602001600020819055506001905061382b565b600090505b92915050565b60606138408484600085613849565b90509392505050565b60608247101561388e576040517f08c379a000000000000000000000000000000000000000000000000000000000815260040161388590614274565b60405180910390fd5b6138978561395d565b6138d6576040517f08c379a00000000000000000000000000000000000000000000000000000000081526004016138cd90614314565b60405180910390fd5b6000808673ffffffffffffffffffffffffffffffffffffffff1685876040516138ff91906140da565b60006040518083038185875af1925050503d806000811461393c576040519150601f19603f3d011682016040523d82523d6000602084013e613941565b606091505b5091509150613951828286613970565b92505050949350505050565b600080823b905060008111915050919050565b60608315613980578290506139d0565b6000835111156139935782518084602001fd5b816040517f08c379a00000000000000000000000000000000000000000000000000000000081526004016139c791906141d2565b60405180910390fd5b9392505050565b60006139ea6139e584614490565b61446b565b90508083825260208201905082856020860282011115613a0957600080fd5b60005b85811015613a395781613a1f8882613af6565b845260208401935060208301925050600181019050613a0c565b5050509392505050565b600081359050613a5281614b50565b92915050565b60008083601f840112613a6a57600080fd5b8235905067ffffffffffffffff811115613a8357600080fd5b602083019150836020820283011115613a9b57600080fd5b9250929050565b600082601f830112613ab357600080fd5b8151613ac38482602086016139d7565b91505092915050565b600081519050613adb81614b67565b92915050565b600081359050613af081614b7e565b92915050565b600081519050613b0581614b7e565b92915050565b600060208284031215613b1d57600080fd5b6000613b2b84828501613a43565b91505092915050565b60008060408385031215613b4757600080fd5b6000613b5585828601613a43565b9250506020613b6685828601613ae1565b9150509250929050565b600060208284031215613b8257600080fd5b600082015167ffffffffffffffff811115613b9c57600080fd5b613ba884828501613aa2565b91505092915050565b600060208284031215613bc357600080fd5b6000613bd184828501613acc565b91505092915050565b600060208284031215613bec57600080fd5b6000613bfa84828501613ae1565b91505092915050565b600060208284031215613c1557600080fd5b6000613c2384828501613af6565b91505092915050565b600080600060408486031215613c4157600080fd5b6000613c4f86828701613ae1565b935050602084013567ffffffffffffffff811115613c6c57600080fd5b613c7886828701613a58565b92509250509250925092565b600080600080600060808688031215613c9c57600080fd5b6000613caa88828901613ae1565b955050602086013567ffffffffffffffff811115613cc757600080fd5b613cd388828901613a58565b94509450506040613ce688828901613a43565b9250506060613cf788828901613ae1565b9150509295509295909350565b60008060008060008060a08789031215613d1d57600080fd5b6000613d2b89828a01613ae1565b9650506020613d3c89828a01613ae1565b955050604087013567ffffffffffffffff811115613d5957600080fd5b613d6589828a01613a58565b94509450506060613d7889828a01613a43565b9250506080613d8989828a01613ae1565b9150509295509295509295565b6000613da28383613dc6565b60208301905092915050565b6000613dba83836140bc565b60208301905092915050565b613dcf8161467b565b82525050565b613dde8161467b565b82525050565b6000613df08385614511565b9350613dfb826144bc565b8060005b85811015613e3457613e11828461454f565b613e1b8882613d96565b9750613e26836144f7565b925050600181019050613dff565b5085925050509392505050565b6000613e4c826144d6565b613e568185614522565b9350613e61836144c6565b8060005b83811015613e92578151613e798882613dae565b9750613e8483614504565b925050600181019050613e65565b5085935050505092915050565b613ea88161468d565b82525050565b6000613eb9826144e1565b613ec38185614533565b9350613ed38185602086016146c3565b80840191505092915050565b6000613eea826144ec565b613ef4818561453e565b9350613f048185602086016146c3565b613f0d816147fd565b840191505092915050565b6000613f25602c8361453e565b9150613f308261480e565b604082019050919050565b6000613f4860258361453e565b9150613f538261485d565b604082019050919050565b6000613f6b60268361453e565b9150613f76826148ac565b604082019050919050565b6000613f8e60288361453e565b9150613f99826148fb565b604082019050919050565b6000613fb160268361453e565b9150613fbc8261494a565b604082019050919050565b6000613fd4602d8361453e565b9150613fdf82614999565b604082019050919050565b6000613ff7602a8361453e565b9150614002826149e8565b604082019050919050565b600061401a60208361453e565b915061402582614a37565b602082019050919050565b600061403d601c8361453e565b915061404882614a60565b602082019050919050565b6000614060601d8361453e565b915061406b82614a89565b602082019050919050565b6000614083602a8361453e565b915061408e82614ab2565b604082019050919050565b60006140a660368361453e565b91506140b182614b01565b604082019050919050565b6140c5816146b9565b82525050565b6140d4816146b9565b82525050565b60006140e68284613eae565b915081905092915050565b60006020820190506141066000830184613dd5565b92915050565b60006040820190506141216000830185613dd5565b61412e6020830184613dd5565b9392505050565b600060608201905061414a6000830186613dd5565b6141576020830185613dd5565b61416460408301846140cb565b949350505050565b60006040820190506141816000830185613dd5565b61418e60208301846140cb565b9392505050565b600060208201905081810360008301526141af8184613e41565b905092915050565b60006020820190506141cc6000830184613e9f565b92915050565b600060208201905081810360008301526141ec8184613edf565b905092915050565b6000602082019050818103600083015261420d81613f18565b9050919050565b6000602082019050818103600083015261422d81613f3b565b9050919050565b6000602082019050818103600083015261424d81613f5e565b9050919050565b6000602082019050818103600083015261426d81613f81565b9050919050565b6000602082019050818103600083015261428d81613fa4565b9050919050565b600060208201905081810360008301526142ad81613fc7565b9050919050565b600060208201905081810360008301526142cd81613fea565b9050919050565b600060208201905081810360008301526142ed8161400d565b9050919050565b6000602082019050818103600083015261430d81614030565b9050919050565b6000602082019050818103600083015261432d81614053565b9050919050565b6000602082019050818103600083015261434d81614076565b9050919050565b6000602082019050818103600083015261436d81614099565b9050919050565b600060208201905061438960008301846140cb565b92915050565b60006040820190506143a460008301866140cb565b81810360208301526143b7818486613de4565b9050949350505050565b60006080820190506143d660008301886140cb565b81810360208301526143e9818688613de4565b90506143f86040830185613dd5565b61440560608301846140cb565b9695505050505050565b600060a08201905061442460008301896140cb565b61443160208301886140cb565b8181036040830152614444818688613de4565b90506144536060830185613dd5565b61446060808301846140cb565b979650505050505050565b6000614475614486565b905061448182826146f6565b919050565b6000604051905090565b600067ffffffffffffffff8211156144ab576144aa6147ce565b5b602082029050602081019050919050565b6000819050919050565b6000819050602082019050919050565b600081519050919050565b600081519050919050565b600081519050919050565b6000602082019050919050565b6000602082019050919050565b600082825260208201905092915050565b600082825260208201905092915050565b600081905092915050565b600082825260208201905092915050565b600061455e6020840184613a43565b905092915050565b6000614571826146b9565b915061457c836146b9565b9250827fffffffffffffffffffffffffffffffffffffffffffffffffffffffffffffffff038211156145b1576145b0614770565b5b828201905092915050565b60006145c7826146b9565b91506145d2836146b9565b9250826145e2576145e161479f565b5b828204905092915050565b60006145f8826146b9565b9150614603836146b9565b9250817fffffffffffffffffffffffffffffffffffffffffffffffffffffffffffffffff048311821515161561463c5761463b614770565b5b828202905092915050565b6000614652826146b9565b915061465d836146b9565b9250828210156146705761466f614770565b5b828203905092915050565b600061468682614699565b9050919050565b60008115159050919050565b600073ffffffffffffffffffffffffffffffffffffffff82169050919050565b6000819050919050565b60005b838110156146e15780820151818401526020810190506146c6565b838111156146f0576000848401525b50505050565b6146ff826147fd565b810181811067ffffffffffffffff8211171561471e5761471d6147ce565b5b80604052505050565b6000614732826146b9565b91507fffffffffffffffffffffffffffffffffffffffffffffffffffffffffffffffff82141561476557614764614770565b5b600182019050919050565b7f4e487b7100000000000000000000000000000000000000000000000000000000600052601160045260246000fd5b7f4e487b7100000000000000000000000000000000000000000000000000000000600052601260045260246000fd5b7f4e487b7100000000000000000000000000000000000000000000000000000000600052604160045260246000fd5b6000601f19601f8301169050919050565b7f5b636c61696d416c6c526577617264735d20556e7375636365737366756c207360008201527f6574206f7065726174696f6e0000000000000000000000000000000000000000602082015250565b7f5b737761704578616374455448466f72546f6b656e735d20496e76616c69642060008201527f7061746821000000000000000000000000000000000000000000000000000000602082015250565b7f4f776e61626c653a206e6577206f776e657220697320746865207a65726f206160008201527f6464726573730000000000000000000000000000000000000000000000000000602082015250565b7f5b737761704578616374455448466f72546f6b656e735d204e6f742061206d7360008201527f672e76616c756521000000000000000000000000000000000000000000000000602082015250565b7f416464726573733a20696e73756666696369656e742062616c616e636520666f60008201527f722063616c6c0000000000000000000000000000000000000000000000000000602082015250565b7f5b73776170455448466f724578616374546f6b656e735d204e6f7420656e6f7560008201527f6768206d73672e76616c75652100000000000000000000000000000000000000602082015250565b7f5b7769746864726177526577617264546f6b656e735d204e6f7420656e6f756760008201527f682062616c616e63652100000000000000000000000000000000000000000000602082015250565b7f4f776e61626c653a2063616c6c6572206973206e6f7420746865206f776e6572600082015250565b7f5b636c61696d416c6c526577617264735d204e6f207265776172642100000000600082015250565b7f416464726573733a2063616c6c20746f206e6f6e2d636f6e7472616374000000600082015250565b7f5361666545524332303a204552433230206f7065726174696f6e20646964206e60008201527f6f74207375636365656400000000000000000000000000000000000000000000602082015250565b7f5361666545524332303a20617070726f76652066726f6d206e6f6e2d7a65726f60008201527f20746f206e6f6e2d7a65726f20616c6c6f77616e636500000000000000000000602082015250565b614b598161467b565b8114614b6457600080fd5b50565b614b708161468d565b8114614b7b57600080fd5b50565b614b87816146b9565b8114614b9257600080fd5b5056fea264697066735822122098c3f62fe2e49c78746bd776de4e2936714ff13fb6f44d084bda2a96239b08e664736f6c63430008020033",
          "opcodes": "PUSH1 0xE0 PUSH1 0x40 MSTORE PUSH1 0x0 PUSH1 0x9 SSTORE CALLVALUE DUP1 ISZERO PUSH3 0x16 JUMPI PUSH1 0x0 DUP1 REVERT JUMPDEST POP PUSH1 0x40 MLOAD PUSH3 0x53A3 CODESIZE SUB DUP1 PUSH3 0x53A3 DUP4 CODECOPY DUP2 DUP2 ADD PUSH1 0x40 MSTORE DUP2 ADD SWAP1 PUSH3 0x3C SWAP2 SWAP1 PUSH3 0x4A2 JUMP JUMPDEST PUSH3 0x5C PUSH3 0x50 PUSH3 0x37C PUSH1 0x20 SHL PUSH1 0x20 SHR JUMP JUMPDEST PUSH3 0x384 PUSH1 0x20 SHL PUSH1 0x20 SHR JUMP JUMPDEST PUSH1 0x0 PUSH20 0xFFFFFFFFFFFFFFFFFFFFFFFFFFFFFFFFFFFFFFFF AND DUP9 PUSH20 0xFFFFFFFFFFFFFFFFFFFFFFFFFFFFFFFFFFFFFFFF AND EQ ISZERO DUP1 ISZERO PUSH3 0xC7 JUMPI POP PUSH1 0x0 PUSH20 0xFFFFFFFFFFFFFFFFFFFFFFFFFFFFFFFFFFFFFFFF AND DUP8 PUSH20 0xFFFFFFFFFFFFFFFFFFFFFFFFFFFFFFFFFFFFFFFF AND EQ ISZERO JUMPDEST DUP1 ISZERO PUSH3 0x101 JUMPI POP PUSH1 0x0 PUSH20 0xFFFFFFFFFFFFFFFFFFFFFFFFFFFFFFFFFFFFFFFF AND DUP7 PUSH20 0xFFFFFFFFFFFFFFFFFFFFFFFFFFFFFFFFFFFFFFFF AND EQ ISZERO JUMPDEST PUSH3 0x143 JUMPI PUSH1 0x40 MLOAD PUSH32 0x8C379A000000000000000000000000000000000000000000000000000000000 DUP2 MSTORE PUSH1 0x4 ADD PUSH3 0x13A SWAP1 PUSH3 0x58C JUMP JUMPDEST PUSH1 0x40 MLOAD DUP1 SWAP2 SUB SWAP1 REVERT JUMPDEST TIMESTAMP PUSH1 0x80 DUP2 DUP2 MSTORE POP POP DUP8 PUSH1 0x1 PUSH1 0x0 PUSH2 0x100 EXP DUP2 SLOAD DUP2 PUSH20 0xFFFFFFFFFFFFFFFFFFFFFFFFFFFFFFFFFFFFFFFF MUL NOT AND SWAP1 DUP4 PUSH20 0xFFFFFFFFFFFFFFFFFFFFFFFFFFFFFFFFFFFFFFFF AND MUL OR SWAP1 SSTORE POP DUP7 PUSH1 0x2 PUSH1 0x0 PUSH2 0x100 EXP DUP2 SLOAD DUP2 PUSH20 0xFFFFFFFFFFFFFFFFFFFFFFFFFFFFFFFFFFFFFFFF MUL NOT AND SWAP1 DUP4 PUSH20 0xFFFFFFFFFFFFFFFFFFFFFFFFFFFFFFFFFFFFFFFF AND MUL OR SWAP1 SSTORE POP DUP6 PUSH1 0x3 PUSH1 0x0 PUSH2 0x100 EXP DUP2 SLOAD DUP2 PUSH20 0xFFFFFFFFFFFFFFFFFFFFFFFFFFFFFFFFFFFFFFFF MUL NOT AND SWAP1 DUP4 PUSH20 0xFFFFFFFFFFFFFFFFFFFFFFFFFFFFFFFFFFFFFFFF AND MUL OR SWAP1 SSTORE POP DUP5 PUSH1 0x4 PUSH1 0x0 DUP1 DUP2 MSTORE PUSH1 0x20 ADD SWAP1 DUP2 MSTORE PUSH1 0x20 ADD PUSH1 0x0 KECCAK256 DUP2 SWAP1 SSTORE POP DUP4 PUSH1 0xB DUP2 SWAP1 SSTORE POP DUP3 PUSH1 0xA DUP2 SWAP1 SSTORE POP PUSH1 0x1 PUSH1 0x0 SWAP1 SLOAD SWAP1 PUSH2 0x100 EXP SWAP1 DIV PUSH20 0xFFFFFFFFFFFFFFFFFFFFFFFFFFFFFFFFFFFFFFFF AND PUSH20 0xFFFFFFFFFFFFFFFFFFFFFFFFFFFFFFFFFFFFFFFF AND PUSH4 0xAD5C4648 PUSH1 0x40 MLOAD DUP2 PUSH4 0xFFFFFFFF AND PUSH1 0xE0 SHL DUP2 MSTORE PUSH1 0x4 ADD PUSH1 0x20 PUSH1 0x40 MLOAD DUP1 DUP4 SUB DUP2 DUP7 DUP1 EXTCODESIZE ISZERO DUP1 ISZERO PUSH3 0x29D JUMPI PUSH1 0x0 DUP1 REVERT JUMPDEST POP GAS STATICCALL ISZERO DUP1 ISZERO PUSH3 0x2B2 JUMPI RETURNDATASIZE PUSH1 0x0 DUP1 RETURNDATACOPY RETURNDATASIZE PUSH1 0x0 REVERT JUMPDEST POP POP POP POP PUSH1 0x40 MLOAD RETURNDATASIZE PUSH1 0x1F NOT PUSH1 0x1F DUP3 ADD AND DUP3 ADD DUP1 PUSH1 0x40 MSTORE POP DUP2 ADD SWAP1 PUSH3 0x2D8 SWAP2 SWAP1 PUSH3 0x476 JUMP JUMPDEST PUSH1 0xD PUSH1 0x0 PUSH2 0x100 EXP DUP2 SLOAD DUP2 PUSH20 0xFFFFFFFFFFFFFFFFFFFFFFFFFFFFFFFFFFFFFFFF MUL NOT AND SWAP1 DUP4 PUSH20 0xFFFFFFFFFFFFFFFFFFFFFFFFFFFFFFFFFFFFFFFF AND MUL OR SWAP1 SSTORE POP PUSH1 0x64 DUP3 PUSH8 0xDE0B6B3A7640000 PUSH3 0x330 SWAP2 SWAP1 PUSH3 0x5F7 JUMP JUMPDEST PUSH3 0x33C SWAP2 SWAP1 PUSH3 0x5BF JUMP JUMPDEST PUSH1 0xA0 DUP2 DUP2 MSTORE POP POP PUSH1 0x64 DUP2 PUSH8 0xDE0B6B3A7640000 PUSH3 0x35B SWAP2 SWAP1 PUSH3 0x5F7 JUMP JUMPDEST PUSH3 0x367 SWAP2 SWAP1 PUSH3 0x5BF JUMP JUMPDEST PUSH1 0xC0 DUP2 DUP2 MSTORE POP POP POP POP POP POP POP POP POP POP PUSH3 0x777 JUMP JUMPDEST PUSH1 0x0 CALLER SWAP1 POP SWAP1 JUMP JUMPDEST PUSH1 0x0 DUP1 PUSH1 0x0 SWAP1 SLOAD SWAP1 PUSH2 0x100 EXP SWAP1 DIV PUSH20 0xFFFFFFFFFFFFFFFFFFFFFFFFFFFFFFFFFFFFFFFF AND SWAP1 POP DUP2 PUSH1 0x0 DUP1 PUSH2 0x100 EXP DUP2 SLOAD DUP2 PUSH20 0xFFFFFFFFFFFFFFFFFFFFFFFFFFFFFFFFFFFFFFFF MUL NOT AND SWAP1 DUP4 PUSH20 0xFFFFFFFFFFFFFFFFFFFFFFFFFFFFFFFFFFFFFFFF AND MUL OR SWAP1 SSTORE POP DUP2 PUSH20 0xFFFFFFFFFFFFFFFFFFFFFFFFFFFFFFFFFFFFFFFF AND DUP2 PUSH20 0xFFFFFFFFFFFFFFFFFFFFFFFFFFFFFFFFFFFFFFFF AND PUSH32 0x8BE0079C531659141344CD1FD0A4F28419497F9722A3DAAFE3B4186F6B6457E0 PUSH1 0x40 MLOAD PUSH1 0x40 MLOAD DUP1 SWAP2 SUB SWAP1 LOG3 POP POP JUMP JUMPDEST PUSH1 0x0 DUP2 MLOAD SWAP1 POP PUSH3 0x459 DUP2 PUSH3 0x743 JUMP JUMPDEST SWAP3 SWAP2 POP POP JUMP JUMPDEST PUSH1 0x0 DUP2 MLOAD SWAP1 POP PUSH3 0x470 DUP2 PUSH3 0x75D JUMP JUMPDEST SWAP3 SWAP2 POP POP JUMP JUMPDEST PUSH1 0x0 PUSH1 0x20 DUP3 DUP5 SUB SLT ISZERO PUSH3 0x489 JUMPI PUSH1 0x0 DUP1 REVERT JUMPDEST PUSH1 0x0 PUSH3 0x499 DUP5 DUP3 DUP6 ADD PUSH3 0x448 JUMP JUMPDEST SWAP2 POP POP SWAP3 SWAP2 POP POP JUMP JUMPDEST PUSH1 0x0 DUP1 PUSH1 0x0 DUP1 PUSH1 0x0 DUP1 PUSH1 0x0 DUP1 PUSH2 0x100 DUP10 DUP12 SUB SLT ISZERO PUSH3 0x4C0 JUMPI PUSH1 0x0 DUP1 REVERT JUMPDEST PUSH1 0x0 PUSH3 0x4D0 DUP12 DUP3 DUP13 ADD PUSH3 0x448 JUMP JUMPDEST SWAP9 POP POP PUSH1 0x20 PUSH3 0x4E3 DUP12 DUP3 DUP13 ADD PUSH3 0x448 JUMP JUMPDEST SWAP8 POP POP PUSH1 0x40 PUSH3 0x4F6 DUP12 DUP3 DUP13 ADD PUSH3 0x448 JUMP JUMPDEST SWAP7 POP POP PUSH1 0x60 PUSH3 0x509 DUP12 DUP3 DUP13 ADD PUSH3 0x45F JUMP JUMPDEST SWAP6 POP POP PUSH1 0x80 PUSH3 0x51C DUP12 DUP3 DUP13 ADD PUSH3 0x45F JUMP JUMPDEST SWAP5 POP POP PUSH1 0xA0 PUSH3 0x52F DUP12 DUP3 DUP13 ADD PUSH3 0x45F JUMP JUMPDEST SWAP4 POP POP PUSH1 0xC0 PUSH3 0x542 DUP12 DUP3 DUP13 ADD PUSH3 0x45F JUMP JUMPDEST SWAP3 POP POP PUSH1 0xE0 PUSH3 0x555 DUP12 DUP3 DUP13 ADD PUSH3 0x45F JUMP JUMPDEST SWAP2 POP POP SWAP3 SWAP6 SWAP9 POP SWAP3 SWAP6 SWAP9 SWAP1 SWAP4 SWAP7 POP JUMP JUMPDEST PUSH1 0x0 PUSH3 0x574 PUSH1 0x22 DUP4 PUSH3 0x5AE JUMP JUMPDEST SWAP2 POP PUSH3 0x581 DUP3 PUSH3 0x6F4 JUMP JUMPDEST PUSH1 0x40 DUP3 ADD SWAP1 POP SWAP2 SWAP1 POP JUMP JUMPDEST PUSH1 0x0 PUSH1 0x20 DUP3 ADD SWAP1 POP DUP2 DUP2 SUB PUSH1 0x0 DUP4 ADD MSTORE PUSH3 0x5A7 DUP2 PUSH3 0x565 JUMP JUMPDEST SWAP1 POP SWAP2 SWAP1 POP JUMP JUMPDEST PUSH1 0x0 DUP3 DUP3 MSTORE PUSH1 0x20 DUP3 ADD SWAP1 POP SWAP3 SWAP2 POP POP JUMP JUMPDEST PUSH1 0x0 PUSH3 0x5CC DUP3 PUSH3 0x68C JUMP JUMPDEST SWAP2 POP PUSH3 0x5D9 DUP4 PUSH3 0x68C JUMP JUMPDEST SWAP3 POP DUP3 PUSH3 0x5EC JUMPI PUSH3 0x5EB PUSH3 0x6C5 JUMP JUMPDEST JUMPDEST DUP3 DUP3 DIV SWAP1 POP SWAP3 SWAP2 POP POP JUMP JUMPDEST PUSH1 0x0 PUSH3 0x604 DUP3 PUSH3 0x68C JUMP JUMPDEST SWAP2 POP PUSH3 0x611 DUP4 PUSH3 0x68C JUMP JUMPDEST SWAP3 POP DUP2 PUSH32 0xFFFFFFFFFFFFFFFFFFFFFFFFFFFFFFFFFFFFFFFFFFFFFFFFFFFFFFFFFFFFFFFF DIV DUP4 GT DUP3 ISZERO ISZERO AND ISZERO PUSH3 0x64D JUMPI PUSH3 0x64C PUSH3 0x696 JUMP JUMPDEST JUMPDEST DUP3 DUP3 MUL SWAP1 POP SWAP3 SWAP2 POP POP JUMP JUMPDEST PUSH1 0x0 PUSH3 0x665 DUP3 PUSH3 0x66C JUMP JUMPDEST SWAP1 POP SWAP2 SWAP1 POP JUMP JUMPDEST PUSH1 0x0 PUSH20 0xFFFFFFFFFFFFFFFFFFFFFFFFFFFFFFFFFFFFFFFF DUP3 AND SWAP1 POP SWAP2 SWAP1 POP JUMP JUMPDEST PUSH1 0x0 DUP2 SWAP1 POP SWAP2 SWAP1 POP JUMP JUMPDEST PUSH32 0x4E487B7100000000000000000000000000000000000000000000000000000000 PUSH1 0x0 MSTORE PUSH1 0x11 PUSH1 0x4 MSTORE PUSH1 0x24 PUSH1 0x0 REVERT JUMPDEST PUSH32 0x4E487B7100000000000000000000000000000000000000000000000000000000 PUSH1 0x0 MSTORE PUSH1 0x12 PUSH1 0x4 MSTORE PUSH1 0x24 PUSH1 0x0 REVERT JUMPDEST PUSH32 0x5B5D204164647265737365732063616E206E6F74206265203020616464726573 PUSH1 0x0 DUP3 ADD MSTORE PUSH32 0x732E000000000000000000000000000000000000000000000000000000000000 PUSH1 0x20 DUP3 ADD MSTORE POP JUMP JUMPDEST PUSH3 0x74E DUP2 PUSH3 0x658 JUMP JUMPDEST DUP2 EQ PUSH3 0x75A JUMPI PUSH1 0x0 DUP1 REVERT JUMPDEST POP JUMP JUMPDEST PUSH3 0x768 DUP2 PUSH3 0x68C JUMP JUMPDEST DUP2 EQ PUSH3 0x774 JUMPI PUSH1 0x0 DUP1 REVERT JUMPDEST POP JUMP JUMPDEST PUSH1 0x80 MLOAD PUSH1 0xA0 MLOAD PUSH1 0xC0 MLOAD PUSH2 0x4BCB PUSH3 0x7D8 PUSH1 0x0 CODECOPY PUSH1 0x0 DUP2 DUP2 PUSH2 0x218A ADD MSTORE DUP2 DUP2 PUSH2 0x21B2 ADD MSTORE DUP2 DUP2 PUSH2 0x2DC1 ADD MSTORE PUSH2 0x2DE9 ADD MSTORE PUSH1 0x0 DUP2 DUP2 PUSH2 0x2128 ADD MSTORE DUP2 DUP2 PUSH2 0x2150 ADD MSTORE DUP2 DUP2 PUSH2 0x2D5F ADD MSTORE PUSH2 0x2D87 ADD MSTORE PUSH1 0x0 DUP2 DUP2 PUSH2 0x1A3C ADD MSTORE PUSH2 0x1B85 ADD MSTORE PUSH2 0x4BCB PUSH1 0x0 RETURN INVALID PUSH1 0x80 PUSH1 0x40 MSTORE PUSH1 0x4 CALLDATASIZE LT PUSH2 0x166 JUMPI PUSH1 0x0 CALLDATALOAD PUSH1 0xE0 SHR DUP1 PUSH4 0x7E2CA288 GT PUSH2 0xD1 JUMPI DUP1 PUSH4 0xB203DC60 GT PUSH2 0x8A JUMPI DUP1 PUSH4 0xD06CA61F GT PUSH2 0x64 JUMPI DUP1 PUSH4 0xD06CA61F EQ PUSH2 0x559 JUMPI DUP1 PUSH4 0xDE2AF4B0 EQ PUSH2 0x596 JUMPI DUP1 PUSH4 0xF2FDE38B EQ PUSH2 0x5C1 JUMPI DUP1 PUSH4 0xFB3BDB41 EQ PUSH2 0x5EA JUMPI PUSH2 0x166 JUMP JUMPDEST DUP1 PUSH4 0xB203DC60 EQ PUSH2 0x4B6 JUMPI DUP1 PUSH4 0xCB43B2DD EQ PUSH2 0x4F3 JUMPI DUP1 PUSH4 0xCEB7F995 EQ PUSH2 0x51C JUMPI PUSH2 0x166 JUMP JUMPDEST DUP1 PUSH4 0x7E2CA288 EQ PUSH2 0x38B JUMPI DUP1 PUSH4 0x7FF36AB5 EQ PUSH2 0x3B6 JUMPI DUP1 PUSH4 0x8ACC3673 EQ PUSH2 0x3E6 JUMPI DUP1 PUSH4 0x8DA5CB5B EQ PUSH2 0x411 JUMPI DUP1 PUSH4 0x940CE872 EQ PUSH2 0x43C JUMPI DUP1 PUSH4 0x94F55789 EQ PUSH2 0x479 JUMPI PUSH2 0x166 JUMP JUMPDEST DUP1 PUSH4 0x1F924D86 GT PUSH2 0x123 JUMPI DUP1 PUSH4 0x1F924D86 EQ PUSH2 0x27B JUMPI DUP1 PUSH4 0x4A25D94A EQ PUSH2 0x2B8 JUMPI DUP1 PUSH4 0x6572CA0C EQ PUSH2 0x2F5 JUMPI DUP1 PUSH4 0x715018A6 EQ PUSH2 0x320 JUMPI DUP1 PUSH4 0x78FB427A EQ PUSH2 0x337 JUMPI DUP1 PUSH4 0x7A40624B EQ PUSH2 0x360 JUMPI PUSH2 0x166 JUMP JUMPDEST DUP1 PUSH4 0x78E3649 EQ PUSH2 0x16B JUMPI DUP1 PUSH4 0x7A779BC EQ PUSH2 0x196 JUMPI DUP1 PUSH4 0xB83A727 EQ PUSH2 0x1C1 JUMPI DUP1 PUSH4 0x16C621E0 EQ PUSH2 0x1D8 JUMPI DUP1 PUSH4 0x18CBAFE5 EQ PUSH2 0x201 JUMPI DUP1 PUSH4 0x1F00CA74 EQ PUSH2 0x23E JUMPI JUMPDEST PUSH1 0x0 DUP1 REVERT JUMPDEST CALLVALUE DUP1 ISZERO PUSH2 0x177 JUMPI PUSH1 0x0 DUP1 REVERT JUMPDEST POP PUSH2 0x180 PUSH2 0x61A JUMP JUMPDEST PUSH1 0x40 MLOAD PUSH2 0x18D SWAP2 SWAP1 PUSH2 0x4374 JUMP JUMPDEST PUSH1 0x40 MLOAD DUP1 SWAP2 SUB SWAP1 RETURN JUMPDEST CALLVALUE DUP1 ISZERO PUSH2 0x1A2 JUMPI PUSH1 0x0 DUP1 REVERT JUMPDEST POP PUSH2 0x1AB PUSH2 0x620 JUMP JUMPDEST PUSH1 0x40 MLOAD PUSH2 0x1B8 SWAP2 SWAP1 PUSH2 0x4374 JUMP JUMPDEST PUSH1 0x40 MLOAD DUP1 SWAP2 SUB SWAP1 RETURN JUMPDEST CALLVALUE DUP1 ISZERO PUSH2 0x1CD JUMPI PUSH1 0x0 DUP1 REVERT JUMPDEST POP PUSH2 0x1D6 PUSH2 0x897 JUMP JUMPDEST STOP JUMPDEST CALLVALUE DUP1 ISZERO PUSH2 0x1E4 JUMPI PUSH1 0x0 DUP1 REVERT JUMPDEST POP PUSH2 0x1FF PUSH1 0x4 DUP1 CALLDATASIZE SUB DUP2 ADD SWAP1 PUSH2 0x1FA SWAP2 SWAP1 PUSH2 0x3BDA JUMP JUMPDEST PUSH2 0xE6B JUMP JUMPDEST STOP JUMPDEST CALLVALUE DUP1 ISZERO PUSH2 0x20D JUMPI PUSH1 0x0 DUP1 REVERT JUMPDEST POP PUSH2 0x228 PUSH1 0x4 DUP1 CALLDATASIZE SUB DUP2 ADD SWAP1 PUSH2 0x223 SWAP2 SWAP1 PUSH2 0x3D04 JUMP JUMPDEST PUSH2 0xF52 JUMP JUMPDEST PUSH1 0x40 MLOAD PUSH2 0x235 SWAP2 SWAP1 PUSH2 0x4195 JUMP JUMPDEST PUSH1 0x40 MLOAD DUP1 SWAP2 SUB SWAP1 RETURN JUMPDEST CALLVALUE DUP1 ISZERO PUSH2 0x24A JUMPI PUSH1 0x0 DUP1 REVERT JUMPDEST POP PUSH2 0x265 PUSH1 0x4 DUP1 CALLDATASIZE SUB DUP2 ADD SWAP1 PUSH2 0x260 SWAP2 SWAP1 PUSH2 0x3C2C JUMP JUMPDEST PUSH2 0x1385 JUMP JUMPDEST PUSH1 0x40 MLOAD PUSH2 0x272 SWAP2 SWAP1 PUSH2 0x4195 JUMP JUMPDEST PUSH1 0x40 MLOAD DUP1 SWAP2 SUB SWAP1 RETURN JUMPDEST CALLVALUE DUP1 ISZERO PUSH2 0x287 JUMPI PUSH1 0x0 DUP1 REVERT JUMPDEST POP PUSH2 0x2A2 PUSH1 0x4 DUP1 CALLDATASIZE SUB DUP2 ADD SWAP1 PUSH2 0x29D SWAP2 SWAP1 PUSH2 0x3BDA JUMP JUMPDEST PUSH2 0x1444 JUMP JUMPDEST PUSH1 0x40 MLOAD PUSH2 0x2AF SWAP2 SWAP1 PUSH2 0x4374 JUMP JUMPDEST PUSH1 0x40 MLOAD DUP1 SWAP2 SUB SWAP1 RETURN JUMPDEST CALLVALUE DUP1 ISZERO PUSH2 0x2C4 JUMPI PUSH1 0x0 DUP1 REVERT JUMPDEST POP PUSH2 0x2DF PUSH1 0x4 DUP1 CALLDATASIZE SUB DUP2 ADD SWAP1 PUSH2 0x2DA SWAP2 SWAP1 PUSH2 0x3D04 JUMP JUMPDEST PUSH2 0x145C JUMP JUMPDEST PUSH1 0x40 MLOAD PUSH2 0x2EC SWAP2 SWAP1 PUSH2 0x4195 JUMP JUMPDEST PUSH1 0x40 MLOAD DUP1 SWAP2 SUB SWAP1 RETURN JUMPDEST CALLVALUE DUP1 ISZERO PUSH2 0x301 JUMPI PUSH1 0x0 DUP1 REVERT JUMPDEST POP PUSH2 0x30A PUSH2 0x1A34 JUMP JUMPDEST PUSH1 0x40 MLOAD PUSH2 0x317 SWAP2 SWAP1 PUSH2 0x4374 JUMP JUMPDEST PUSH1 0x40 MLOAD DUP1 SWAP2 SUB SWAP1 RETURN JUMPDEST CALLVALUE DUP1 ISZERO PUSH2 0x32C JUMPI PUSH1 0x0 DUP1 REVERT JUMPDEST POP PUSH2 0x335 PUSH2 0x1A75 JUMP JUMPDEST STOP JUMPDEST CALLVALUE DUP1 ISZERO PUSH2 0x343 JUMPI PUSH1 0x0 DUP1 REVERT JUMPDEST POP PUSH2 0x35E PUSH1 0x4 DUP1 CALLDATASIZE SUB DUP2 ADD SWAP1 PUSH2 0x359 SWAP2 SWAP1 PUSH2 0x3BDA JUMP JUMPDEST PUSH2 0x1AFD JUMP JUMPDEST STOP JUMPDEST CALLVALUE DUP1 ISZERO PUSH2 0x36C JUMPI PUSH1 0x0 DUP1 REVERT JUMPDEST POP PUSH2 0x375 PUSH2 0x1B83 JUMP JUMPDEST PUSH1 0x40 MLOAD PUSH2 0x382 SWAP2 SWAP1 PUSH2 0x4374 JUMP JUMPDEST PUSH1 0x40 MLOAD DUP1 SWAP2 SUB SWAP1 RETURN JUMPDEST CALLVALUE DUP1 ISZERO PUSH2 0x397 JUMPI PUSH1 0x0 DUP1 REVERT JUMPDEST POP PUSH2 0x3A0 PUSH2 0x1BA7 JUMP JUMPDEST PUSH1 0x40 MLOAD PUSH2 0x3AD SWAP2 SWAP1 PUSH2 0x4374 JUMP JUMPDEST PUSH1 0x40 MLOAD DUP1 SWAP2 SUB SWAP1 RETURN JUMPDEST PUSH2 0x3D0 PUSH1 0x4 DUP1 CALLDATASIZE SUB DUP2 ADD SWAP1 PUSH2 0x3CB SWAP2 SWAP1 PUSH2 0x3C84 JUMP JUMPDEST PUSH2 0x1BAD JUMP JUMPDEST PUSH1 0x40 MLOAD PUSH2 0x3DD SWAP2 SWAP1 PUSH2 0x4195 JUMP JUMPDEST PUSH1 0x40 MLOAD DUP1 SWAP2 SUB SWAP1 RETURN JUMPDEST CALLVALUE DUP1 ISZERO PUSH2 0x3F2 JUMPI PUSH1 0x0 DUP1 REVERT JUMPDEST POP PUSH2 0x3FB PUSH2 0x1FB0 JUMP JUMPDEST PUSH1 0x40 MLOAD PUSH2 0x408 SWAP2 SWAP1 PUSH2 0x4374 JUMP JUMPDEST PUSH1 0x40 MLOAD DUP1 SWAP2 SUB SWAP1 RETURN JUMPDEST CALLVALUE DUP1 ISZERO PUSH2 0x41D JUMPI PUSH1 0x0 DUP1 REVERT JUMPDEST POP PUSH2 0x426 PUSH2 0x1FB6 JUMP JUMPDEST PUSH1 0x40 MLOAD PUSH2 0x433 SWAP2 SWAP1 PUSH2 0x40F1 JUMP JUMPDEST PUSH1 0x40 MLOAD DUP1 SWAP2 SUB SWAP1 RETURN JUMPDEST CALLVALUE DUP1 ISZERO PUSH2 0x448 JUMPI PUSH1 0x0 DUP1 REVERT JUMPDEST POP PUSH2 0x463 PUSH1 0x4 DUP1 CALLDATASIZE SUB DUP2 ADD SWAP1 PUSH2 0x45E SWAP2 SWAP1 PUSH2 0x3B34 JUMP JUMPDEST PUSH2 0x1FDF JUMP JUMPDEST PUSH1 0x40 MLOAD PUSH2 0x470 SWAP2 SWAP1 PUSH2 0x4374 JUMP JUMPDEST PUSH1 0x40 MLOAD DUP1 SWAP2 SUB SWAP1 RETURN JUMPDEST CALLVALUE DUP1 ISZERO PUSH2 0x485 JUMPI PUSH1 0x0 DUP1 REVERT JUMPDEST POP PUSH2 0x4A0 PUSH1 0x4 DUP1 CALLDATASIZE SUB DUP2 ADD SWAP1 PUSH2 0x49B SWAP2 SWAP1 PUSH2 0x3BDA JUMP JUMPDEST PUSH2 0x2004 JUMP JUMPDEST PUSH1 0x40 MLOAD PUSH2 0x4AD SWAP2 SWAP1 PUSH2 0x4374 JUMP JUMPDEST PUSH1 0x40 MLOAD DUP1 SWAP2 SUB SWAP1 RETURN JUMPDEST CALLVALUE DUP1 ISZERO PUSH2 0x4C2 JUMPI PUSH1 0x0 DUP1 REVERT JUMPDEST POP PUSH2 0x4DD PUSH1 0x4 DUP1 CALLDATASIZE SUB DUP2 ADD SWAP1 PUSH2 0x4D8 SWAP2 SWAP1 PUSH2 0x3BDA JUMP JUMPDEST PUSH2 0x2236 JUMP JUMPDEST PUSH1 0x40 MLOAD PUSH2 0x4EA SWAP2 SWAP1 PUSH2 0x4374 JUMP JUMPDEST PUSH1 0x40 MLOAD DUP1 SWAP2 SUB SWAP1 RETURN JUMPDEST CALLVALUE DUP1 ISZERO PUSH2 0x4FF JUMPI PUSH1 0x0 DUP1 REVERT JUMPDEST POP PUSH2 0x51A PUSH1 0x4 DUP1 CALLDATASIZE SUB DUP2 ADD SWAP1 PUSH2 0x515 SWAP2 SWAP1 PUSH2 0x3BDA JUMP JUMPDEST PUSH2 0x224E JUMP JUMPDEST STOP JUMPDEST CALLVALUE DUP1 ISZERO PUSH2 0x528 JUMPI PUSH1 0x0 DUP1 REVERT JUMPDEST POP PUSH2 0x543 PUSH1 0x4 DUP1 CALLDATASIZE SUB DUP2 ADD SWAP1 PUSH2 0x53E SWAP2 SWAP1 PUSH2 0x3BDA JUMP JUMPDEST PUSH2 0x2378 JUMP JUMPDEST PUSH1 0x40 MLOAD PUSH2 0x550 SWAP2 SWAP1 PUSH2 0x4374 JUMP JUMPDEST PUSH1 0x40 MLOAD DUP1 SWAP2 SUB SWAP1 RETURN JUMPDEST CALLVALUE DUP1 ISZERO PUSH2 0x565 JUMPI PUSH1 0x0 DUP1 REVERT JUMPDEST POP PUSH2 0x580 PUSH1 0x4 DUP1 CALLDATASIZE SUB DUP2 ADD SWAP1 PUSH2 0x57B SWAP2 SWAP1 PUSH2 0x3C2C JUMP JUMPDEST PUSH2 0x2390 JUMP JUMPDEST PUSH1 0x40 MLOAD PUSH2 0x58D SWAP2 SWAP1 PUSH2 0x4195 JUMP JUMPDEST PUSH1 0x40 MLOAD DUP1 SWAP2 SUB SWAP1 RETURN JUMPDEST CALLVALUE DUP1 ISZERO PUSH2 0x5A2 JUMPI PUSH1 0x0 DUP1 REVERT JUMPDEST POP PUSH2 0x5AB PUSH2 0x244F JUMP JUMPDEST PUSH1 0x40 MLOAD PUSH2 0x5B8 SWAP2 SWAP1 PUSH2 0x41B7 JUMP JUMPDEST PUSH1 0x40 MLOAD DUP1 SWAP2 SUB SWAP1 RETURN JUMPDEST CALLVALUE DUP1 ISZERO PUSH2 0x5CD JUMPI PUSH1 0x0 DUP1 REVERT JUMPDEST POP PUSH2 0x5E8 PUSH1 0x4 DUP1 CALLDATASIZE SUB DUP2 ADD SWAP1 PUSH2 0x5E3 SWAP2 SWAP1 PUSH2 0x3B0B JUMP JUMPDEST PUSH2 0x248E JUMP JUMPDEST STOP JUMPDEST PUSH2 0x604 PUSH1 0x4 DUP1 CALLDATASIZE SUB DUP2 ADD SWAP1 PUSH2 0x5FF SWAP2 SWAP1 PUSH2 0x3C84 JUMP JUMPDEST PUSH2 0x2586 JUMP JUMPDEST PUSH1 0x40 MLOAD PUSH2 0x611 SWAP2 SWAP1 PUSH2 0x4195 JUMP JUMPDEST PUSH1 0x40 MLOAD DUP1 SWAP2 SUB SWAP1 RETURN JUMPDEST PUSH1 0xA SLOAD DUP2 JUMP JUMPDEST PUSH1 0x0 DUP1 PUSH1 0x0 SWAP1 POP PUSH1 0x0 PUSH8 0xDE0B6B3A7640000 SWAP1 POP PUSH1 0x0 JUMPDEST PUSH2 0x67E PUSH1 0x8 PUSH1 0x0 CALLER PUSH20 0xFFFFFFFFFFFFFFFFFFFFFFFFFFFFFFFFFFFFFFFF AND PUSH20 0xFFFFFFFFFFFFFFFFFFFFFFFFFFFFFFFFFFFFFFFF AND DUP2 MSTORE PUSH1 0x20 ADD SWAP1 DUP2 MSTORE PUSH1 0x20 ADD PUSH1 0x0 KECCAK256 PUSH2 0x2A91 JUMP JUMPDEST DUP2 LT ISZERO PUSH2 0x88E JUMPI PUSH1 0xC SLOAD PUSH2 0x6D9 DUP3 PUSH1 0x8 PUSH1 0x0 CALLER PUSH20 0xFFFFFFFFFFFFFFFFFFFFFFFFFFFFFFFFFFFFFFFF AND PUSH20 0xFFFFFFFFFFFFFFFFFFFFFFFFFFFFFFFFFFFFFFFF AND DUP2 MSTORE PUSH1 0x20 ADD SWAP1 DUP2 MSTORE PUSH1 0x20 ADD PUSH1 0x0 KECCAK256 PUSH2 0x2AA6 SWAP1 SWAP2 SWAP1 PUSH4 0xFFFFFFFF AND JUMP JUMPDEST LT ISZERO PUSH2 0x87B JUMPI PUSH2 0x7F5 PUSH1 0x5 PUSH1 0x0 CALLER PUSH20 0xFFFFFFFFFFFFFFFFFFFFFFFFFFFFFFFFFFFFFFFF AND PUSH20 0xFFFFFFFFFFFFFFFFFFFFFFFFFFFFFFFFFFFFFFFF AND DUP2 MSTORE PUSH1 0x20 ADD SWAP1 DUP2 MSTORE PUSH1 0x20 ADD PUSH1 0x0 KECCAK256 PUSH1 0x0 PUSH2 0x774 DUP5 PUSH1 0x8 PUSH1 0x0 CALLER PUSH20 0xFFFFFFFFFFFFFFFFFFFFFFFFFFFFFFFFFFFFFFFF AND PUSH20 0xFFFFFFFFFFFFFFFFFFFFFFFFFFFFFFFFFFFFFFFF AND DUP2 MSTORE PUSH1 0x20 ADD SWAP1 DUP2 MSTORE PUSH1 0x20 ADD PUSH1 0x0 KECCAK256 PUSH2 0x2AA6 SWAP1 SWAP2 SWAP1 PUSH4 0xFFFFFFFF AND JUMP JUMPDEST DUP2 MSTORE PUSH1 0x20 ADD SWAP1 DUP2 MSTORE PUSH1 0x20 ADD PUSH1 0x0 KECCAK256 SLOAD PUSH8 0xDE0B6B3A7640000 PUSH1 0x6 PUSH1 0x0 PUSH2 0x7E1 DUP7 PUSH1 0x8 PUSH1 0x0 CALLER PUSH20 0xFFFFFFFFFFFFFFFFFFFFFFFFFFFFFFFFFFFFFFFF AND PUSH20 0xFFFFFFFFFFFFFFFFFFFFFFFFFFFFFFFFFFFFFFFF AND DUP2 MSTORE PUSH1 0x20 ADD SWAP1 DUP2 MSTORE PUSH1 0x20 ADD PUSH1 0x0 KECCAK256 PUSH2 0x2AA6 SWAP1 SWAP2 SWAP1 PUSH4 0xFFFFFFFF AND JUMP JUMPDEST DUP2 MSTORE PUSH1 0x20 ADD SWAP1 DUP2 MSTORE PUSH1 0x20 ADD PUSH1 0x0 KECCAK256 SLOAD PUSH2 0x2AC0 JUMP JUMPDEST SWAP2 POP PUSH2 0x86D DUP3 PUSH1 0x7 PUSH1 0x0 PUSH2 0x850 DUP6 PUSH1 0x8 PUSH1 0x0 CALLER PUSH20 0xFFFFFFFFFFFFFFFFFFFFFFFFFFFFFFFFFFFFFFFF AND PUSH20 0xFFFFFFFFFFFFFFFFFFFFFFFFFFFFFFFFFFFFFFFF AND DUP2 MSTORE PUSH1 0x20 ADD SWAP1 DUP2 MSTORE PUSH1 0x20 ADD PUSH1 0x0 KECCAK256 PUSH2 0x2AA6 SWAP1 SWAP2 SWAP1 PUSH4 0xFFFFFFFF AND JUMP JUMPDEST DUP2 MSTORE PUSH1 0x20 ADD SWAP1 DUP2 MSTORE PUSH1 0x20 ADD PUSH1 0x0 KECCAK256 SLOAD PUSH8 0xDE0B6B3A7640000 PUSH2 0x2AC0 JUMP JUMPDEST DUP4 PUSH2 0x878 SWAP2 SWAP1 PUSH2 0x4566 JUMP JUMPDEST SWAP3 POP JUMPDEST DUP1 DUP1 PUSH2 0x886 SWAP1 PUSH2 0x4727 JUMP JUMPDEST SWAP2 POP POP PUSH2 0x637 JUMP JUMPDEST POP DUP2 SWAP3 POP POP POP SWAP1 JUMP JUMPDEST PUSH2 0x89F PUSH2 0x1A34 JUMP JUMPDEST PUSH1 0x1 PUSH1 0xC SLOAD PUSH2 0x8AE SWAP2 SWAP1 PUSH2 0x4566 JUMP JUMPDEST GT ISZERO DUP1 ISZERO PUSH2 0x8C0 JUMPI POP PUSH1 0xA SLOAD PUSH1 0xC SLOAD EQ ISZERO JUMPDEST ISZERO PUSH2 0x8CE JUMPI PUSH2 0x8CD PUSH2 0x2C61 JUMP JUMPDEST JUMPDEST PUSH1 0x0 DUP1 PUSH8 0xDE0B6B3A7640000 SWAP1 POP PUSH1 0x0 PUSH2 0x925 PUSH1 0x8 PUSH1 0x0 CALLER PUSH20 0xFFFFFFFFFFFFFFFFFFFFFFFFFFFFFFFFFFFFFFFF AND PUSH20 0xFFFFFFFFFFFFFFFFFFFFFFFFFFFFFFFFFFFFFFFF AND DUP2 MSTORE PUSH1 0x20 ADD SWAP1 DUP2 MSTORE PUSH1 0x20 ADD PUSH1 0x0 KECCAK256 PUSH2 0x2A91 JUMP JUMPDEST SWAP1 POP PUSH2 0x97A PUSH1 0xC SLOAD PUSH1 0x8 PUSH1 0x0 CALLER PUSH20 0xFFFFFFFFFFFFFFFFFFFFFFFFFFFFFFFFFFFFFFFF AND PUSH20 0xFFFFFFFFFFFFFFFFFFFFFFFFFFFFFFFFFFFFFFFF AND DUP2 MSTORE PUSH1 0x20 ADD SWAP1 DUP2 MSTORE PUSH1 0x20 ADD PUSH1 0x0 KECCAK256 PUSH2 0x2F1A SWAP1 SWAP2 SWAP1 PUSH4 0xFFFFFFFF AND JUMP JUMPDEST ISZERO PUSH2 0x98F JUMPI PUSH1 0x1 DUP2 PUSH2 0x98C SWAP2 SWAP1 PUSH2 0x4647 JUMP JUMPDEST SWAP1 POP JUMPDEST PUSH1 0x0 DUP2 PUSH8 0xFFFFFFFFFFFFFFFF DUP2 GT ISZERO PUSH2 0x9D1 JUMPI PUSH32 0x4E487B7100000000000000000000000000000000000000000000000000000000 PUSH1 0x0 MSTORE PUSH1 0x41 PUSH1 0x4 MSTORE PUSH1 0x24 PUSH1 0x0 REVERT JUMPDEST PUSH1 0x40 MLOAD SWAP1 DUP1 DUP3 MSTORE DUP1 PUSH1 0x20 MUL PUSH1 0x20 ADD DUP3 ADD PUSH1 0x40 MSTORE DUP1 ISZERO PUSH2 0x9FF JUMPI DUP2 PUSH1 0x20 ADD PUSH1 0x20 DUP3 MUL DUP1 CALLDATASIZE DUP4 CALLDATACOPY DUP1 DUP3 ADD SWAP2 POP POP SWAP1 POP JUMPDEST POP SWAP1 POP PUSH1 0x0 JUMPDEST DUP3 DUP2 LT ISZERO PUSH2 0xCAC JUMPI PUSH1 0xC SLOAD PUSH2 0xA61 DUP3 PUSH1 0x8 PUSH1 0x0 CALLER PUSH20 0xFFFFFFFFFFFFFFFFFFFFFFFFFFFFFFFFFFFFFFFF AND PUSH20 0xFFFFFFFFFFFFFFFFFFFFFFFFFFFFFFFFFFFFFFFF AND DUP2 MSTORE PUSH1 0x20 ADD SWAP1 DUP2 MSTORE PUSH1 0x20 ADD PUSH1 0x0 KECCAK256 PUSH2 0x2AA6 SWAP1 SWAP2 SWAP1 PUSH4 0xFFFFFFFF AND JUMP JUMPDEST LT ISZERO PUSH2 0xC99 JUMPI PUSH2 0xB7D PUSH1 0x5 PUSH1 0x0 CALLER PUSH20 0xFFFFFFFFFFFFFFFFFFFFFFFFFFFFFFFFFFFFFFFF AND PUSH20 0xFFFFFFFFFFFFFFFFFFFFFFFFFFFFFFFFFFFFFFFF AND DUP2 MSTORE PUSH1 0x20 ADD SWAP1 DUP2 MSTORE PUSH1 0x20 ADD PUSH1 0x0 KECCAK256 PUSH1 0x0 PUSH2 0xAFC DUP5 PUSH1 0x8 PUSH1 0x0 CALLER PUSH20 0xFFFFFFFFFFFFFFFFFFFFFFFFFFFFFFFFFFFFFFFF AND PUSH20 0xFFFFFFFFFFFFFFFFFFFFFFFFFFFFFFFFFFFFFFFF AND DUP2 MSTORE PUSH1 0x20 ADD SWAP1 DUP2 MSTORE PUSH1 0x20 ADD PUSH1 0x0 KECCAK256 PUSH2 0x2AA6 SWAP1 SWAP2 SWAP1 PUSH4 0xFFFFFFFF AND JUMP JUMPDEST DUP2 MSTORE PUSH1 0x20 ADD SWAP1 DUP2 MSTORE PUSH1 0x20 ADD PUSH1 0x0 KECCAK256 SLOAD PUSH8 0xDE0B6B3A7640000 PUSH1 0x6 PUSH1 0x0 PUSH2 0xB69 DUP7 PUSH1 0x8 PUSH1 0x0 CALLER PUSH20 0xFFFFFFFFFFFFFFFFFFFFFFFFFFFFFFFFFFFFFFFF AND PUSH20 0xFFFFFFFFFFFFFFFFFFFFFFFFFFFFFFFFFFFFFFFF AND DUP2 MSTORE PUSH1 0x20 ADD SWAP1 DUP2 MSTORE PUSH1 0x20 ADD PUSH1 0x0 KECCAK256 PUSH2 0x2AA6 SWAP1 SWAP2 SWAP1 PUSH4 0xFFFFFFFF AND JUMP JUMPDEST DUP2 MSTORE PUSH1 0x20 ADD SWAP1 DUP2 MSTORE PUSH1 0x20 ADD PUSH1 0x0 KECCAK256 SLOAD PUSH2 0x2AC0 JUMP JUMPDEST SWAP4 POP PUSH2 0xBF5 DUP5 PUSH1 0x7 PUSH1 0x0 PUSH2 0xBD8 DUP6 PUSH1 0x8 PUSH1 0x0 CALLER PUSH20 0xFFFFFFFFFFFFFFFFFFFFFFFFFFFFFFFFFFFFFFFF AND PUSH20 0xFFFFFFFFFFFFFFFFFFFFFFFFFFFFFFFFFFFFFFFF AND DUP2 MSTORE PUSH1 0x20 ADD SWAP1 DUP2 MSTORE PUSH1 0x20 ADD PUSH1 0x0 KECCAK256 PUSH2 0x2AA6 SWAP1 SWAP2 SWAP1 PUSH4 0xFFFFFFFF AND JUMP JUMPDEST DUP2 MSTORE PUSH1 0x20 ADD SWAP1 DUP2 MSTORE PUSH1 0x20 ADD PUSH1 0x0 KECCAK256 SLOAD PUSH8 0xDE0B6B3A7640000 PUSH2 0x2AC0 JUMP JUMPDEST DUP6 PUSH2 0xC00 SWAP2 SWAP1 PUSH2 0x4566 JUMP JUMPDEST SWAP5 POP PUSH2 0xC53 DUP2 PUSH1 0x8 PUSH1 0x0 CALLER PUSH20 0xFFFFFFFFFFFFFFFFFFFFFFFFFFFFFFFFFFFFFFFF AND PUSH20 0xFFFFFFFFFFFFFFFFFFFFFFFFFFFFFFFFFFFFFFFF AND DUP2 MSTORE PUSH1 0x20 ADD SWAP1 DUP2 MSTORE PUSH1 0x20 ADD PUSH1 0x0 KECCAK256 PUSH2 0x2AA6 SWAP1 SWAP2 SWAP1 PUSH4 0xFFFFFFFF AND JUMP JUMPDEST DUP3 DUP3 DUP2 MLOAD DUP2 LT PUSH2 0xC8C JUMPI PUSH32 0x4E487B7100000000000000000000000000000000000000000000000000000000 PUSH1 0x0 MSTORE PUSH1 0x32 PUSH1 0x4 MSTORE PUSH1 0x24 PUSH1 0x0 REVERT JUMPDEST PUSH1 0x20 MUL PUSH1 0x20 ADD ADD DUP2 DUP2 MSTORE POP POP JUMPDEST DUP1 DUP1 PUSH2 0xCA4 SWAP1 PUSH2 0x4727 JUMP JUMPDEST SWAP2 POP POP PUSH2 0xA05 JUMP JUMPDEST POP PUSH1 0x0 JUMPDEST DUP3 DUP2 LT ISZERO PUSH2 0xD9B JUMPI PUSH2 0xD49 DUP3 DUP3 DUP2 MLOAD DUP2 LT PUSH2 0xCF4 JUMPI PUSH32 0x4E487B7100000000000000000000000000000000000000000000000000000000 PUSH1 0x0 MSTORE PUSH1 0x32 PUSH1 0x4 MSTORE PUSH1 0x24 PUSH1 0x0 REVERT JUMPDEST PUSH1 0x20 MUL PUSH1 0x20 ADD ADD MLOAD PUSH1 0x8 PUSH1 0x0 CALLER PUSH20 0xFFFFFFFFFFFFFFFFFFFFFFFFFFFFFFFFFFFFFFFF AND PUSH20 0xFFFFFFFFFFFFFFFFFFFFFFFFFFFFFFFFFFFFFFFF AND DUP2 MSTORE PUSH1 0x20 ADD SWAP1 DUP2 MSTORE PUSH1 0x20 ADD PUSH1 0x0 KECCAK256 PUSH2 0x2F34 SWAP1 SWAP2 SWAP1 PUSH4 0xFFFFFFFF AND JUMP JUMPDEST PUSH2 0xD88 JUMPI PUSH1 0x40 MLOAD PUSH32 0x8C379A000000000000000000000000000000000000000000000000000000000 DUP2 MSTORE PUSH1 0x4 ADD PUSH2 0xD7F SWAP1 PUSH2 0x41F4 JUMP JUMPDEST PUSH1 0x40 MLOAD DUP1 SWAP2 SUB SWAP1 REVERT JUMPDEST DUP1 DUP1 PUSH2 0xD93 SWAP1 PUSH2 0x4727 JUMP JUMPDEST SWAP2 POP POP PUSH2 0xCB0 JUMP JUMPDEST POP PUSH1 0x0 DUP5 GT PUSH2 0xDDF JUMPI PUSH1 0x40 MLOAD PUSH32 0x8C379A000000000000000000000000000000000000000000000000000000000 DUP2 MSTORE PUSH1 0x4 ADD PUSH2 0xDD6 SWAP1 PUSH2 0x42F4 JUMP JUMPDEST PUSH1 0x40 MLOAD DUP1 SWAP2 SUB SWAP1 REVERT JUMPDEST PUSH2 0xE2C CALLER DUP6 PUSH1 0x3 PUSH1 0x0 SWAP1 SLOAD SWAP1 PUSH2 0x100 EXP SWAP1 DIV PUSH20 0xFFFFFFFFFFFFFFFFFFFFFFFFFFFFFFFFFFFFFFFF AND PUSH20 0xFFFFFFFFFFFFFFFFFFFFFFFFFFFFFFFFFFFFFFFF AND PUSH2 0x2F4E SWAP1 SWAP3 SWAP2 SWAP1 PUSH4 0xFFFFFFFF AND JUMP JUMPDEST PUSH32 0x106F923F993C2149D49B4255FF723ACAFA1F2D94393F561D3EDA32AE348F7241 CALLER DUP6 PUSH1 0x40 MLOAD PUSH2 0xE5D SWAP3 SWAP2 SWAP1 PUSH2 0x416C JUMP JUMPDEST PUSH1 0x40 MLOAD DUP1 SWAP2 SUB SWAP1 LOG1 POP POP POP POP JUMP JUMPDEST PUSH2 0xE73 PUSH2 0x2FD4 JUMP JUMPDEST PUSH20 0xFFFFFFFFFFFFFFFFFFFFFFFFFFFFFFFFFFFFFFFF AND PUSH2 0xE91 PUSH2 0x1FB6 JUMP JUMPDEST PUSH20 0xFFFFFFFFFFFFFFFFFFFFFFFFFFFFFFFFFFFFFFFF AND EQ PUSH2 0xEE7 JUMPI PUSH1 0x40 MLOAD PUSH32 0x8C379A000000000000000000000000000000000000000000000000000000000 DUP2 MSTORE PUSH1 0x4 ADD PUSH2 0xEDE SWAP1 PUSH2 0x42D4 JUMP JUMPDEST PUSH1 0x40 MLOAD DUP1 SWAP2 SUB SWAP1 REVERT JUMPDEST DUP1 PUSH1 0x9 PUSH1 0x0 DUP3 DUP3 SLOAD PUSH2 0xEF9 SWAP2 SWAP1 PUSH2 0x4566 JUMP JUMPDEST SWAP3 POP POP DUP2 SWAP1 SSTORE POP PUSH2 0xF4F CALLER ADDRESS DUP4 PUSH1 0x3 PUSH1 0x0 SWAP1 SLOAD SWAP1 PUSH2 0x100 EXP SWAP1 DIV PUSH20 0xFFFFFFFFFFFFFFFFFFFFFFFFFFFFFFFFFFFFFFFF AND PUSH20 0xFFFFFFFFFFFFFFFFFFFFFFFFFFFFFFFFFFFFFFFF AND PUSH2 0x2FDC SWAP1 SWAP4 SWAP3 SWAP2 SWAP1 PUSH4 0xFFFFFFFF AND JUMP JUMPDEST POP JUMP JUMPDEST PUSH1 0x60 PUSH1 0xD PUSH1 0x0 SWAP1 SLOAD SWAP1 PUSH2 0x100 EXP SWAP1 DIV PUSH20 0xFFFFFFFFFFFFFFFFFFFFFFFFFFFFFFFFFFFFFFFF AND PUSH20 0xFFFFFFFFFFFFFFFFFFFFFFFFFFFFFFFFFFFFFFFF AND DUP6 DUP6 PUSH1 0x1 DUP9 DUP9 SWAP1 POP PUSH2 0xF9F SWAP2 SWAP1 PUSH2 0x4647 JUMP JUMPDEST DUP2 DUP2 LT PUSH2 0xFD5 JUMPI PUSH32 0x4E487B7100000000000000000000000000000000000000000000000000000000 PUSH1 0x0 MSTORE PUSH1 0x32 PUSH1 0x4 MSTORE PUSH1 0x24 PUSH1 0x0 REVERT JUMPDEST SWAP1 POP PUSH1 0x20 MUL ADD PUSH1 0x20 DUP2 ADD SWAP1 PUSH2 0xFEA SWAP2 SWAP1 PUSH2 0x3B0B JUMP JUMPDEST PUSH20 0xFFFFFFFFFFFFFFFFFFFFFFFFFFFFFFFFFFFFFFFF AND EQ PUSH2 0x1040 JUMPI PUSH1 0x40 MLOAD PUSH32 0x8C379A000000000000000000000000000000000000000000000000000000000 DUP2 MSTORE PUSH1 0x4 ADD PUSH2 0x1037 SWAP1 PUSH2 0x4214 JUMP JUMPDEST PUSH1 0x40 MLOAD DUP1 SWAP2 SUB SWAP1 REVERT JUMPDEST PUSH1 0x2 PUSH1 0x0 SWAP1 SLOAD SWAP1 PUSH2 0x100 EXP SWAP1 DIV PUSH20 0xFFFFFFFFFFFFFFFFFFFFFFFFFFFFFFFFFFFFFFFF AND PUSH20 0xFFFFFFFFFFFFFFFFFFFFFFFFFFFFFFFFFFFFFFFF AND DUP6 DUP6 PUSH1 0x0 DUP2 DUP2 LT PUSH2 0x10B3 JUMPI PUSH32 0x4E487B7100000000000000000000000000000000000000000000000000000000 PUSH1 0x0 MSTORE PUSH1 0x32 PUSH1 0x4 MSTORE PUSH1 0x24 PUSH1 0x0 REVERT JUMPDEST SWAP1 POP PUSH1 0x20 MUL ADD PUSH1 0x20 DUP2 ADD SWAP1 PUSH2 0x10C8 SWAP2 SWAP1 PUSH2 0x3B0B JUMP JUMPDEST PUSH20 0xFFFFFFFFFFFFFFFFFFFFFFFFFFFFFFFFFFFFFFFF AND EQ PUSH2 0x111E JUMPI PUSH1 0x40 MLOAD PUSH32 0x8C379A000000000000000000000000000000000000000000000000000000000 DUP2 MSTORE PUSH1 0x4 ADD PUSH2 0x1115 SWAP1 PUSH2 0x4214 JUMP JUMPDEST PUSH1 0x40 MLOAD DUP1 SWAP2 SUB SWAP1 REVERT JUMPDEST PUSH2 0x1176 PUSH2 0x1129 PUSH2 0x1A34 JUMP JUMPDEST PUSH1 0x8 PUSH1 0x0 CALLER PUSH20 0xFFFFFFFFFFFFFFFFFFFFFFFFFFFFFFFFFFFFFFFF AND PUSH20 0xFFFFFFFFFFFFFFFFFFFFFFFFFFFFFFFFFFFFFFFF AND DUP2 MSTORE PUSH1 0x20 ADD SWAP1 DUP2 MSTORE PUSH1 0x20 ADD PUSH1 0x0 KECCAK256 PUSH2 0x2F1A SWAP1 SWAP2 SWAP1 PUSH4 0xFFFFFFFF AND JUMP JUMPDEST ISZERO DUP1 ISZERO PUSH2 0x118B JUMPI POP PUSH1 0xA SLOAD PUSH2 0x1189 PUSH2 0x1A34 JUMP JUMPDEST LT JUMPDEST ISZERO PUSH2 0x11EA JUMPI PUSH2 0x11E8 PUSH2 0x119B PUSH2 0x1A34 JUMP JUMPDEST PUSH1 0x8 PUSH1 0x0 CALLER PUSH20 0xFFFFFFFFFFFFFFFFFFFFFFFFFFFFFFFFFFFFFFFF AND PUSH20 0xFFFFFFFFFFFFFFFFFFFFFFFFFFFFFFFFFFFFFFFF AND DUP2 MSTORE PUSH1 0x20 ADD SWAP1 DUP2 MSTORE PUSH1 0x20 ADD PUSH1 0x0 KECCAK256 PUSH2 0x3065 SWAP1 SWAP2 SWAP1 PUSH4 0xFFFFFFFF AND JUMP JUMPDEST POP JUMPDEST PUSH2 0x1239 CALLER ADDRESS DUP10 PUSH1 0x2 PUSH1 0x0 SWAP1 SLOAD SWAP1 PUSH2 0x100 EXP SWAP1 DIV PUSH20 0xFFFFFFFFFFFFFFFFFFFFFFFFFFFFFFFFFFFFFFFF AND PUSH20 0xFFFFFFFFFFFFFFFFFFFFFFFFFFFFFFFFFFFFFFFF AND PUSH2 0x2FDC SWAP1 SWAP4 SWAP3 SWAP2 SWAP1 PUSH4 0xFFFFFFFF AND JUMP JUMPDEST PUSH2 0x12A8 PUSH1 0x1 PUSH1 0x0 SWAP1 SLOAD SWAP1 PUSH2 0x100 EXP SWAP1 DIV PUSH20 0xFFFFFFFFFFFFFFFFFFFFFFFFFFFFFFFFFFFFFFFF AND DUP9 PUSH1 0x2 PUSH1 0x0 SWAP1 SLOAD SWAP1 PUSH2 0x100 EXP SWAP1 DIV PUSH20 0xFFFFFFFFFFFFFFFFFFFFFFFFFFFFFFFFFFFFFFFF AND PUSH20 0xFFFFFFFFFFFFFFFFFFFFFFFFFFFFFFFFFFFFFFFF AND PUSH2 0x307F SWAP1 SWAP3 SWAP2 SWAP1 PUSH4 0xFFFFFFFF AND JUMP JUMPDEST PUSH1 0xA SLOAD PUSH1 0xC SLOAD EQ PUSH2 0x12BD JUMPI PUSH2 0x12BC DUP8 PUSH2 0x31A0 JUMP JUMPDEST JUMPDEST PUSH1 0x1 PUSH1 0x0 SWAP1 SLOAD SWAP1 PUSH2 0x100 EXP SWAP1 DIV PUSH20 0xFFFFFFFFFFFFFFFFFFFFFFFFFFFFFFFFFFFFFFFF AND PUSH20 0xFFFFFFFFFFFFFFFFFFFFFFFFFFFFFFFFFFFFFFFF AND PUSH4 0x18CBAFE5 DUP9 DUP9 DUP9 DUP9 DUP9 DUP9 PUSH1 0x40 MLOAD DUP8 PUSH4 0xFFFFFFFF AND PUSH1 0xE0 SHL DUP2 MSTORE PUSH1 0x4 ADD PUSH2 0x1322 SWAP7 SWAP6 SWAP5 SWAP4 SWAP3 SWAP2 SWAP1 PUSH2 0x440F JUMP JUMPDEST PUSH1 0x0 PUSH1 0x40 MLOAD DUP1 DUP4 SUB DUP2 PUSH1 0x0 DUP8 DUP1 EXTCODESIZE ISZERO DUP1 ISZERO PUSH2 0x133C JUMPI PUSH1 0x0 DUP1 REVERT JUMPDEST POP GAS CALL ISZERO DUP1 ISZERO PUSH2 0x1350 JUMPI RETURNDATASIZE PUSH1 0x0 DUP1 RETURNDATACOPY RETURNDATASIZE PUSH1 0x0 REVERT JUMPDEST POP POP POP POP PUSH1 0x40 MLOAD RETURNDATASIZE PUSH1 0x0 DUP3 RETURNDATACOPY RETURNDATASIZE PUSH1 0x1F NOT PUSH1 0x1F DUP3 ADD AND DUP3 ADD DUP1 PUSH1 0x40 MSTORE POP DUP2 ADD SWAP1 PUSH2 0x1379 SWAP2 SWAP1 PUSH2 0x3B70 JUMP JUMPDEST SWAP1 POP SWAP7 SWAP6 POP POP POP POP POP POP JUMP JUMPDEST PUSH1 0x60 PUSH1 0x1 PUSH1 0x0 SWAP1 SLOAD SWAP1 PUSH2 0x100 EXP SWAP1 DIV PUSH20 0xFFFFFFFFFFFFFFFFFFFFFFFFFFFFFFFFFFFFFFFF AND PUSH20 0xFFFFFFFFFFFFFFFFFFFFFFFFFFFFFFFFFFFFFFFF AND PUSH4 0x1F00CA74 DUP6 DUP6 DUP6 PUSH1 0x40 MLOAD DUP5 PUSH4 0xFFFFFFFF AND PUSH1 0xE0 SHL DUP2 MSTORE PUSH1 0x4 ADD PUSH2 0x13E6 SWAP4 SWAP3 SWAP2 SWAP1 PUSH2 0x438F JUMP JUMPDEST PUSH1 0x0 PUSH1 0x40 MLOAD DUP1 DUP4 SUB DUP2 DUP7 DUP1 EXTCODESIZE ISZERO DUP1 ISZERO PUSH2 0x13FE JUMPI PUSH1 0x0 DUP1 REVERT JUMPDEST POP GAS STATICCALL ISZERO DUP1 ISZERO PUSH2 0x1412 JUMPI RETURNDATASIZE PUSH1 0x0 DUP1 RETURNDATACOPY RETURNDATASIZE PUSH1 0x0 REVERT JUMPDEST POP POP POP POP PUSH1 0x40 MLOAD RETURNDATASIZE PUSH1 0x0 DUP3 RETURNDATACOPY RETURNDATASIZE PUSH1 0x1F NOT PUSH1 0x1F DUP3 ADD AND DUP3 ADD DUP1 PUSH1 0x40 MSTORE POP DUP2 ADD SWAP1 PUSH2 0x143B SWAP2 SWAP1 PUSH2 0x3B70 JUMP JUMPDEST SWAP1 POP SWAP4 SWAP3 POP POP POP JUMP JUMPDEST PUSH1 0x6 PUSH1 0x20 MSTORE DUP1 PUSH1 0x0 MSTORE PUSH1 0x40 PUSH1 0x0 KECCAK256 PUSH1 0x0 SWAP2 POP SWAP1 POP SLOAD DUP2 JUMP JUMPDEST PUSH1 0x60 PUSH1 0xD PUSH1 0x0 SWAP1 SLOAD SWAP1 PUSH2 0x100 EXP SWAP1 DIV PUSH20 0xFFFFFFFFFFFFFFFFFFFFFFFFFFFFFFFFFFFFFFFF AND PUSH20 0xFFFFFFFFFFFFFFFFFFFFFFFFFFFFFFFFFFFFFFFF AND DUP6 DUP6 PUSH1 0x1 DUP9 DUP9 SWAP1 POP PUSH2 0x14A9 SWAP2 SWAP1 PUSH2 0x4647 JUMP JUMPDEST DUP2 DUP2 LT PUSH2 0x14DF JUMPI PUSH32 0x4E487B7100000000000000000000000000000000000000000000000000000000 PUSH1 0x0 MSTORE PUSH1 0x32 PUSH1 0x4 MSTORE PUSH1 0x24 PUSH1 0x0 REVERT JUMPDEST SWAP1 POP PUSH1 0x20 MUL ADD PUSH1 0x20 DUP2 ADD SWAP1 PUSH2 0x14F4 SWAP2 SWAP1 PUSH2 0x3B0B JUMP JUMPDEST PUSH20 0xFFFFFFFFFFFFFFFFFFFFFFFFFFFFFFFFFFFFFFFF AND EQ PUSH2 0x154A JUMPI PUSH1 0x40 MLOAD PUSH32 0x8C379A000000000000000000000000000000000000000000000000000000000 DUP2 MSTORE PUSH1 0x4 ADD PUSH2 0x1541 SWAP1 PUSH2 0x4214 JUMP JUMPDEST PUSH1 0x40 MLOAD DUP1 SWAP2 SUB SWAP1 REVERT JUMPDEST PUSH1 0x2 PUSH1 0x0 SWAP1 SLOAD SWAP1 PUSH2 0x100 EXP SWAP1 DIV PUSH20 0xFFFFFFFFFFFFFFFFFFFFFFFFFFFFFFFFFFFFFFFF AND PUSH20 0xFFFFFFFFFFFFFFFFFFFFFFFFFFFFFFFFFFFFFFFF AND DUP6 DUP6 PUSH1 0x0 DUP2 DUP2 LT PUSH2 0x15BD JUMPI PUSH32 0x4E487B7100000000000000000000000000000000000000000000000000000000 PUSH1 0x0 MSTORE PUSH1 0x32 PUSH1 0x4 MSTORE PUSH1 0x24 PUSH1 0x0 REVERT JUMPDEST SWAP1 POP PUSH1 0x20 MUL ADD PUSH1 0x20 DUP2 ADD SWAP1 PUSH2 0x15D2 SWAP2 SWAP1 PUSH2 0x3B0B JUMP JUMPDEST PUSH20 0xFFFFFFFFFFFFFFFFFFFFFFFFFFFFFFFFFFFFFFFF AND EQ PUSH2 0x1628 JUMPI PUSH1 0x40 MLOAD PUSH32 0x8C379A000000000000000000000000000000000000000000000000000000000 DUP2 MSTORE PUSH1 0x4 ADD PUSH2 0x161F SWAP1 PUSH2 0x4214 JUMP JUMPDEST PUSH1 0x40 MLOAD DUP1 SWAP2 SUB SWAP1 REVERT JUMPDEST PUSH2 0x1680 PUSH2 0x1633 PUSH2 0x1A34 JUMP JUMPDEST PUSH1 0x8 PUSH1 0x0 CALLER PUSH20 0xFFFFFFFFFFFFFFFFFFFFFFFFFFFFFFFFFFFFFFFF AND PUSH20 0xFFFFFFFFFFFFFFFFFFFFFFFFFFFFFFFFFFFFFFFF AND DUP2 MSTORE PUSH1 0x20 ADD SWAP1 DUP2 MSTORE PUSH1 0x20 ADD PUSH1 0x0 KECCAK256 PUSH2 0x2F1A SWAP1 SWAP2 SWAP1 PUSH4 0xFFFFFFFF AND JUMP JUMPDEST ISZERO DUP1 ISZERO PUSH2 0x1695 JUMPI POP PUSH1 0xA SLOAD PUSH2 0x1693 PUSH2 0x1A34 JUMP JUMPDEST LT JUMPDEST ISZERO PUSH2 0x16F4 JUMPI PUSH2 0x16F2 PUSH2 0x16A5 PUSH2 0x1A34 JUMP JUMPDEST PUSH1 0x8 PUSH1 0x0 CALLER PUSH20 0xFFFFFFFFFFFFFFFFFFFFFFFFFFFFFFFFFFFFFFFF AND PUSH20 0xFFFFFFFFFFFFFFFFFFFFFFFFFFFFFFFFFFFFFFFF AND DUP2 MSTORE PUSH1 0x20 ADD SWAP1 DUP2 MSTORE PUSH1 0x20 ADD PUSH1 0x0 KECCAK256 PUSH2 0x3065 SWAP1 SWAP2 SWAP1 PUSH4 0xFFFFFFFF AND JUMP JUMPDEST POP JUMPDEST PUSH2 0x1837 CALLER ADDRESS PUSH1 0x1 PUSH1 0x0 SWAP1 SLOAD SWAP1 PUSH2 0x100 EXP SWAP1 DIV PUSH20 0xFFFFFFFFFFFFFFFFFFFFFFFFFFFFFFFFFFFFFFFF AND PUSH20 0xFFFFFFFFFFFFFFFFFFFFFFFFFFFFFFFFFFFFFFFF AND PUSH4 0x1F00CA74 DUP12 DUP11 DUP11 PUSH1 0x40 MLOAD DUP5 PUSH4 0xFFFFFFFF AND PUSH1 0xE0 SHL DUP2 MSTORE PUSH1 0x4 ADD PUSH2 0x1758 SWAP4 SWAP3 SWAP2 SWAP1 PUSH2 0x438F JUMP JUMPDEST PUSH1 0x0 PUSH1 0x40 MLOAD DUP1 DUP4 SUB DUP2 DUP7 DUP1 EXTCODESIZE ISZERO DUP1 ISZERO PUSH2 0x1770 JUMPI PUSH1 0x0 DUP1 REVERT JUMPDEST POP GAS STATICCALL ISZERO DUP1 ISZERO PUSH2 0x1784 JUMPI RETURNDATASIZE PUSH1 0x0 DUP1 RETURNDATACOPY RETURNDATASIZE PUSH1 0x0 REVERT JUMPDEST POP POP POP POP PUSH1 0x40 MLOAD RETURNDATASIZE PUSH1 0x0 DUP3 RETURNDATACOPY RETURNDATASIZE PUSH1 0x1F NOT PUSH1 0x1F DUP3 ADD AND DUP3 ADD DUP1 PUSH1 0x40 MSTORE POP DUP2 ADD SWAP1 PUSH2 0x17AD SWAP2 SWAP1 PUSH2 0x3B70 JUMP JUMPDEST PUSH1 0x0 DUP2 MLOAD DUP2 LT PUSH2 0x17E6 JUMPI PUSH32 0x4E487B7100000000000000000000000000000000000000000000000000000000 PUSH1 0x0 MSTORE PUSH1 0x32 PUSH1 0x4 MSTORE PUSH1 0x24 PUSH1 0x0 REVERT JUMPDEST PUSH1 0x20 MUL PUSH1 0x20 ADD ADD MLOAD PUSH1 0x2 PUSH1 0x0 SWAP1 SLOAD SWAP1 PUSH2 0x100 EXP SWAP1 DIV PUSH20 0xFFFFFFFFFFFFFFFFFFFFFFFFFFFFFFFFFFFFFFFF AND PUSH20 0xFFFFFFFFFFFFFFFFFFFFFFFFFFFFFFFFFFFFFFFF AND PUSH2 0x2FDC SWAP1 SWAP4 SWAP3 SWAP2 SWAP1 PUSH4 0xFFFFFFFF AND JUMP JUMPDEST PUSH2 0x18A6 PUSH1 0x1 PUSH1 0x0 SWAP1 SLOAD SWAP1 PUSH2 0x100 EXP SWAP1 DIV PUSH20 0xFFFFFFFFFFFFFFFFFFFFFFFFFFFFFFFFFFFFFFFF AND DUP8 PUSH1 0x2 PUSH1 0x0 SWAP1 SLOAD SWAP1 PUSH2 0x100 EXP SWAP1 DIV PUSH20 0xFFFFFFFFFFFFFFFFFFFFFFFFFFFFFFFFFFFFFFFF AND PUSH20 0xFFFFFFFFFFFFFFFFFFFFFFFFFFFFFFFFFFFFFFFF AND PUSH2 0x307F SWAP1 SWAP3 SWAP2 SWAP1 PUSH4 0xFFFFFFFF AND JUMP JUMPDEST PUSH1 0x1 PUSH1 0x0 SWAP1 SLOAD SWAP1 PUSH2 0x100 EXP SWAP1 DIV PUSH20 0xFFFFFFFFFFFFFFFFFFFFFFFFFFFFFFFFFFFFFFFF AND PUSH20 0xFFFFFFFFFFFFFFFFFFFFFFFFFFFFFFFFFFFFFFFF AND PUSH4 0x4A25D94A DUP9 DUP9 DUP9 DUP9 DUP9 DUP9 PUSH1 0x40 MLOAD DUP8 PUSH4 0xFFFFFFFF AND PUSH1 0xE0 SHL DUP2 MSTORE PUSH1 0x4 ADD PUSH2 0x190B SWAP7 SWAP6 SWAP5 SWAP4 SWAP3 SWAP2 SWAP1 PUSH2 0x440F JUMP JUMPDEST PUSH1 0x0 PUSH1 0x40 MLOAD DUP1 DUP4 SUB DUP2 PUSH1 0x0 DUP8 DUP1 EXTCODESIZE ISZERO DUP1 ISZERO PUSH2 0x1925 JUMPI PUSH1 0x0 DUP1 REVERT JUMPDEST POP GAS CALL ISZERO DUP1 ISZERO PUSH2 0x1939 JUMPI RETURNDATASIZE PUSH1 0x0 DUP1 RETURNDATACOPY RETURNDATASIZE PUSH1 0x0 REVERT JUMPDEST POP POP POP POP PUSH1 0x40 MLOAD RETURNDATASIZE PUSH1 0x0 DUP3 RETURNDATACOPY RETURNDATASIZE PUSH1 0x1F NOT PUSH1 0x1F DUP3 ADD AND DUP3 ADD DUP1 PUSH1 0x40 MSTORE POP DUP2 ADD SWAP1 PUSH2 0x1962 SWAP2 SWAP1 PUSH2 0x3B70 JUMP JUMPDEST SWAP1 POP PUSH1 0xA SLOAD PUSH1 0xC SLOAD EQ PUSH2 0x19BA JUMPI PUSH2 0x19B9 DUP2 PUSH1 0x0 DUP2 MLOAD DUP2 LT PUSH2 0x19AC JUMPI PUSH32 0x4E487B7100000000000000000000000000000000000000000000000000000000 PUSH1 0x0 MSTORE PUSH1 0x32 PUSH1 0x4 MSTORE PUSH1 0x24 PUSH1 0x0 REVERT JUMPDEST PUSH1 0x20 MUL PUSH1 0x20 ADD ADD MLOAD PUSH2 0x31A0 JUMP JUMPDEST JUMPDEST PUSH2 0x1A2A PUSH1 0x1 PUSH1 0x0 SWAP1 SLOAD SWAP1 PUSH2 0x100 EXP SWAP1 DIV PUSH20 0xFFFFFFFFFFFFFFFFFFFFFFFFFFFFFFFFFFFFFFFF AND PUSH1 0x0 PUSH1 0x2 PUSH1 0x0 SWAP1 SLOAD SWAP1 PUSH2 0x100 EXP SWAP1 DIV PUSH20 0xFFFFFFFFFFFFFFFFFFFFFFFFFFFFFFFFFFFFFFFF AND PUSH20 0xFFFFFFFFFFFFFFFFFFFFFFFFFFFFFFFFFFFFFFFF AND PUSH2 0x328B SWAP1 SWAP3 SWAP2 SWAP1 PUSH4 0xFFFFFFFF AND JUMP JUMPDEST SWAP7 SWAP6 POP POP POP POP POP POP JUMP JUMPDEST PUSH1 0x0 PUSH3 0x15180 PUSH32 0x0 TIMESTAMP PUSH2 0x1A66 SWAP2 SWAP1 PUSH2 0x4647 JUMP JUMPDEST PUSH2 0x1A70 SWAP2 SWAP1 PUSH2 0x45BC JUMP JUMPDEST SWAP1 POP SWAP1 JUMP JUMPDEST PUSH2 0x1A7D PUSH2 0x2FD4 JUMP JUMPDEST PUSH20 0xFFFFFFFFFFFFFFFFFFFFFFFFFFFFFFFFFFFFFFFF AND PUSH2 0x1A9B PUSH2 0x1FB6 JUMP JUMPDEST PUSH20 0xFFFFFFFFFFFFFFFFFFFFFFFFFFFFFFFFFFFFFFFF AND EQ PUSH2 0x1AF1 JUMPI PUSH1 0x40 MLOAD PUSH32 0x8C379A000000000000000000000000000000000000000000000000000000000 DUP2 MSTORE PUSH1 0x4 ADD PUSH2 0x1AE8 SWAP1 PUSH2 0x42D4 JUMP JUMPDEST PUSH1 0x40 MLOAD DUP1 SWAP2 SUB SWAP1 REVERT JUMPDEST PUSH2 0x1AFB PUSH1 0x0 PUSH2 0x33E9 JUMP JUMPDEST JUMP JUMPDEST PUSH2 0x1B05 PUSH2 0x2FD4 JUMP JUMPDEST PUSH20 0xFFFFFFFFFFFFFFFFFFFFFFFFFFFFFFFFFFFFFFFF AND PUSH2 0x1B23 PUSH2 0x1FB6 JUMP JUMPDEST PUSH20 0xFFFFFFFFFFFFFFFFFFFFFFFFFFFFFFFFFFFFFFFF AND EQ PUSH2 0x1B79 JUMPI PUSH1 0x40 MLOAD PUSH32 0x8C379A000000000000000000000000000000000000000000000000000000000 DUP2 MSTORE PUSH1 0x4 ADD PUSH2 0x1B70 SWAP1 PUSH2 0x42D4 JUMP JUMPDEST PUSH1 0x40 MLOAD DUP1 SWAP2 SUB SWAP1 REVERT JUMPDEST DUP1 PUSH1 0xA DUP2 SWAP1 SSTORE POP POP JUMP JUMPDEST PUSH32 0x0 DUP2 JUMP JUMPDEST PUSH1 0x9 SLOAD DUP2 JUMP JUMPDEST PUSH1 0x60 PUSH1 0xD PUSH1 0x0 SWAP1 SLOAD SWAP1 PUSH2 0x100 EXP SWAP1 DIV PUSH20 0xFFFFFFFFFFFFFFFFFFFFFFFFFFFFFFFFFFFFFFFF AND PUSH20 0xFFFFFFFFFFFFFFFFFFFFFFFFFFFFFFFFFFFFFFFF AND DUP6 DUP6 PUSH1 0x0 DUP2 DUP2 LT PUSH2 0x1C22 JUMPI PUSH32 0x4E487B7100000000000000000000000000000000000000000000000000000000 PUSH1 0x0 MSTORE PUSH1 0x32 PUSH1 0x4 MSTORE PUSH1 0x24 PUSH1 0x0 REVERT JUMPDEST SWAP1 POP PUSH1 0x20 MUL ADD PUSH1 0x20 DUP2 ADD SWAP1 PUSH2 0x1C37 SWAP2 SWAP1 PUSH2 0x3B0B JUMP JUMPDEST PUSH20 0xFFFFFFFFFFFFFFFFFFFFFFFFFFFFFFFFFFFFFFFF AND EQ PUSH2 0x1C8D JUMPI PUSH1 0x40 MLOAD PUSH32 0x8C379A000000000000000000000000000000000000000000000000000000000 DUP2 MSTORE PUSH1 0x4 ADD PUSH2 0x1C84 SWAP1 PUSH2 0x4214 JUMP JUMPDEST PUSH1 0x40 MLOAD DUP1 SWAP2 SUB SWAP1 REVERT JUMPDEST PUSH1 0x2 PUSH1 0x0 SWAP1 SLOAD SWAP1 PUSH2 0x100 EXP SWAP1 DIV PUSH20 0xFFFFFFFFFFFFFFFFFFFFFFFFFFFFFFFFFFFFFFFF AND PUSH20 0xFFFFFFFFFFFFFFFFFFFFFFFFFFFFFFFFFFFFFFFF AND DUP6 DUP6 PUSH1 0x1 DUP9 DUP9 SWAP1 POP PUSH2 0x1CD8 SWAP2 SWAP1 PUSH2 0x4647 JUMP JUMPDEST DUP2 DUP2 LT PUSH2 0x1D0E JUMPI PUSH32 0x4E487B7100000000000000000000000000000000000000000000000000000000 PUSH1 0x0 MSTORE PUSH1 0x32 PUSH1 0x4 MSTORE PUSH1 0x24 PUSH1 0x0 REVERT JUMPDEST SWAP1 POP PUSH1 0x20 MUL ADD PUSH1 0x20 DUP2 ADD SWAP1 PUSH2 0x1D23 SWAP2 SWAP1 PUSH2 0x3B0B JUMP JUMPDEST PUSH20 0xFFFFFFFFFFFFFFFFFFFFFFFFFFFFFFFFFFFFFFFF AND EQ PUSH2 0x1D79 JUMPI PUSH1 0x40 MLOAD PUSH32 0x8C379A000000000000000000000000000000000000000000000000000000000 DUP2 MSTORE PUSH1 0x4 ADD PUSH2 0x1D70 SWAP1 PUSH2 0x4214 JUMP JUMPDEST PUSH1 0x40 MLOAD DUP1 SWAP2 SUB SWAP1 REVERT JUMPDEST PUSH1 0x0 CALLVALUE GT PUSH2 0x1DBC JUMPI PUSH1 0x40 MLOAD PUSH32 0x8C379A000000000000000000000000000000000000000000000000000000000 DUP2 MSTORE PUSH1 0x4 ADD PUSH2 0x1DB3 SWAP1 PUSH2 0x4254 JUMP JUMPDEST PUSH1 0x40 MLOAD DUP1 SWAP2 SUB SWAP1 REVERT JUMPDEST PUSH2 0x1E14 PUSH2 0x1DC7 PUSH2 0x1A34 JUMP JUMPDEST PUSH1 0x8 PUSH1 0x0 CALLER PUSH20 0xFFFFFFFFFFFFFFFFFFFFFFFFFFFFFFFFFFFFFFFF AND PUSH20 0xFFFFFFFFFFFFFFFFFFFFFFFFFFFFFFFFFFFFFFFF AND DUP2 MSTORE PUSH1 0x20 ADD SWAP1 DUP2 MSTORE PUSH1 0x20 ADD PUSH1 0x0 KECCAK256 PUSH2 0x2F1A SWAP1 SWAP2 SWAP1 PUSH4 0xFFFFFFFF AND JUMP JUMPDEST ISZERO DUP1 ISZERO PUSH2 0x1E29 JUMPI POP PUSH1 0xA SLOAD PUSH2 0x1E27 PUSH2 0x1A34 JUMP JUMPDEST LT JUMPDEST ISZERO PUSH2 0x1E88 JUMPI PUSH2 0x1E86 PUSH2 0x1E39 PUSH2 0x1A34 JUMP JUMPDEST PUSH1 0x8 PUSH1 0x0 CALLER PUSH20 0xFFFFFFFFFFFFFFFFFFFFFFFFFFFFFFFFFFFFFFFF AND PUSH20 0xFFFFFFFFFFFFFFFFFFFFFFFFFFFFFFFFFFFFFFFF AND DUP2 MSTORE PUSH1 0x20 ADD SWAP1 DUP2 MSTORE PUSH1 0x20 ADD PUSH1 0x0 KECCAK256 PUSH2 0x3065 SWAP1 SWAP2 SWAP1 PUSH4 0xFFFFFFFF AND JUMP JUMPDEST POP JUMPDEST PUSH1 0x1 PUSH1 0x0 SWAP1 SLOAD SWAP1 PUSH2 0x100 EXP SWAP1 DIV PUSH20 0xFFFFFFFFFFFFFFFFFFFFFFFFFFFFFFFFFFFFFFFF AND PUSH20 0xFFFFFFFFFFFFFFFFFFFFFFFFFFFFFFFFFFFFFFFF AND PUSH4 0x7FF36AB5 CALLVALUE DUP9 DUP9 DUP9 DUP9 DUP9 PUSH1 0x40 MLOAD DUP8 PUSH4 0xFFFFFFFF AND PUSH1 0xE0 SHL DUP2 MSTORE PUSH1 0x4 ADD PUSH2 0x1EEC SWAP6 SWAP5 SWAP4 SWAP3 SWAP2 SWAP1 PUSH2 0x43C1 JUMP JUMPDEST PUSH1 0x0 PUSH1 0x40 MLOAD DUP1 DUP4 SUB DUP2 DUP6 DUP9 DUP1 EXTCODESIZE ISZERO DUP1 ISZERO PUSH2 0x1F05 JUMPI PUSH1 0x0 DUP1 REVERT JUMPDEST POP GAS CALL ISZERO DUP1 ISZERO PUSH2 0x1F19 JUMPI RETURNDATASIZE PUSH1 0x0 DUP1 RETURNDATACOPY RETURNDATASIZE PUSH1 0x0 REVERT JUMPDEST POP POP POP POP POP PUSH1 0x40 MLOAD RETURNDATASIZE PUSH1 0x0 DUP3 RETURNDATACOPY RETURNDATASIZE PUSH1 0x1F NOT PUSH1 0x1F DUP3 ADD AND DUP3 ADD DUP1 PUSH1 0x40 MSTORE POP DUP2 ADD SWAP1 PUSH2 0x1F43 SWAP2 SWAP1 PUSH2 0x3B70 JUMP JUMPDEST SWAP1 POP PUSH1 0xA SLOAD PUSH1 0xC SLOAD EQ PUSH2 0x1FA7 JUMPI PUSH2 0x1FA6 DUP2 PUSH1 0x1 DUP4 MLOAD PUSH2 0x1F62 SWAP2 SWAP1 PUSH2 0x4647 JUMP JUMPDEST DUP2 MLOAD DUP2 LT PUSH2 0x1F99 JUMPI PUSH32 0x4E487B7100000000000000000000000000000000000000000000000000000000 PUSH1 0x0 MSTORE PUSH1 0x32 PUSH1 0x4 MSTORE PUSH1 0x24 PUSH1 0x0 REVERT JUMPDEST PUSH1 0x20 MUL PUSH1 0x20 ADD ADD MLOAD PUSH2 0x31A0 JUMP JUMPDEST JUMPDEST SWAP6 SWAP5 POP POP POP POP POP JUMP JUMPDEST PUSH1 0xC SLOAD DUP2 JUMP JUMPDEST PUSH1 0x0 DUP1 PUSH1 0x0 SWAP1 SLOAD SWAP1 PUSH2 0x100 EXP SWAP1 DIV PUSH20 0xFFFFFFFFFFFFFFFFFFFFFFFFFFFFFFFFFFFFFFFF AND SWAP1 POP SWAP1 JUMP JUMPDEST PUSH1 0x5 PUSH1 0x20 MSTORE DUP2 PUSH1 0x0 MSTORE PUSH1 0x40 PUSH1 0x0 KECCAK256 PUSH1 0x20 MSTORE DUP1 PUSH1 0x0 MSTORE PUSH1 0x40 PUSH1 0x0 KECCAK256 PUSH1 0x0 SWAP2 POP SWAP2 POP POP SLOAD DUP2 JUMP JUMPDEST PUSH1 0x0 DUP1 PUSH1 0x0 SWAP1 POP PUSH1 0x0 PUSH8 0xDE0B6B3A7640000 SWAP1 POP PUSH2 0x2069 DUP5 PUSH1 0x8 PUSH1 0x0 CALLER PUSH20 0xFFFFFFFFFFFFFFFFFFFFFFFFFFFFFFFFFFFFFFFF AND PUSH20 0xFFFFFFFFFFFFFFFFFFFFFFFFFFFFFFFFFFFFFFFF AND DUP2 MSTORE PUSH1 0x20 ADD SWAP1 DUP2 MSTORE PUSH1 0x20 ADD PUSH1 0x0 KECCAK256 PUSH2 0x2F1A SWAP1 SWAP2 SWAP1 PUSH4 0xFFFFFFFF AND JUMP JUMPDEST ISZERO PUSH2 0x222C JUMPI PUSH2 0x20E4 PUSH1 0x5 PUSH1 0x0 CALLER PUSH20 0xFFFFFFFFFFFFFFFFFFFFFFFFFFFFFFFFFFFFFFFF AND PUSH20 0xFFFFFFFFFFFFFFFFFFFFFFFFFFFFFFFFFFFFFFFF AND DUP2 MSTORE PUSH1 0x20 ADD SWAP1 DUP2 MSTORE PUSH1 0x20 ADD PUSH1 0x0 KECCAK256 PUSH1 0x0 DUP7 DUP2 MSTORE PUSH1 0x20 ADD SWAP1 DUP2 MSTORE PUSH1 0x20 ADD PUSH1 0x0 KECCAK256 SLOAD PUSH8 0xDE0B6B3A7640000 PUSH1 0x6 PUSH1 0x0 DUP9 DUP2 MSTORE PUSH1 0x20 ADD SWAP1 DUP2 MSTORE PUSH1 0x20 ADD PUSH1 0x0 KECCAK256 SLOAD PUSH2 0x2AC0 JUMP JUMPDEST SWAP1 POP PUSH1 0x0 PUSH1 0xC SLOAD DUP6 LT ISZERO PUSH2 0x210D JUMPI PUSH1 0x7 PUSH1 0x0 DUP7 DUP2 MSTORE PUSH1 0x20 ADD SWAP1 DUP2 MSTORE PUSH1 0x20 ADD PUSH1 0x0 KECCAK256 SLOAD SWAP1 POP PUSH2 0x220A JUMP JUMPDEST PUSH1 0xC SLOAD DUP6 EQ ISZERO PUSH2 0x2209 JUMPI PUSH1 0x0 PUSH2 0x2124 PUSH1 0xC SLOAD PUSH2 0x34AD JUMP JUMPDEST SWAP1 POP PUSH32 0x0 DUP2 GT ISZERO PUSH2 0x2176 JUMPI PUSH32 0x0 SWAP1 POP PUSH2 0x21D6 JUMP JUMPDEST PUSH1 0x0 DUP2 EQ ISZERO PUSH2 0x2188 JUMPI PUSH1 0x0 SWAP1 POP PUSH2 0x21D5 JUMP JUMPDEST PUSH32 0x0 DUP2 LT ISZERO PUSH2 0x21D4 JUMPI PUSH32 0x0 SWAP1 POP JUMPDEST JUMPDEST JUMPDEST PUSH2 0x2205 PUSH1 0xC SLOAD PUSH1 0xA SLOAD PUSH2 0x21E9 SWAP2 SWAP1 PUSH2 0x4647 JUMP JUMPDEST PUSH1 0x9 SLOAD PUSH2 0x21F6 SWAP2 SWAP1 PUSH2 0x45BC JUMP JUMPDEST DUP3 PUSH8 0xDE0B6B3A7640000 PUSH2 0x2AC0 JUMP JUMPDEST SWAP2 POP POP JUMPDEST JUMPDEST PUSH2 0x221D DUP3 DUP3 PUSH8 0xDE0B6B3A7640000 PUSH2 0x2AC0 JUMP JUMPDEST DUP4 PUSH2 0x2228 SWAP2 SWAP1 PUSH2 0x4566 JUMP JUMPDEST SWAP3 POP POP JUMPDEST DUP2 SWAP3 POP POP POP SWAP2 SWAP1 POP JUMP JUMPDEST PUSH1 0x7 PUSH1 0x20 MSTORE DUP1 PUSH1 0x0 MSTORE PUSH1 0x40 PUSH1 0x0 KECCAK256 PUSH1 0x0 SWAP2 POP SWAP1 POP SLOAD DUP2 JUMP JUMPDEST PUSH2 0x2256 PUSH2 0x2FD4 JUMP JUMPDEST PUSH20 0xFFFFFFFFFFFFFFFFFFFFFFFFFFFFFFFFFFFFFFFF AND PUSH2 0x2274 PUSH2 0x1FB6 JUMP JUMPDEST PUSH20 0xFFFFFFFFFFFFFFFFFFFFFFFFFFFFFFFFFFFFFFFF AND EQ PUSH2 0x22CA JUMPI PUSH1 0x40 MLOAD PUSH32 0x8C379A000000000000000000000000000000000000000000000000000000000 DUP2 MSTORE PUSH1 0x4 ADD PUSH2 0x22C1 SWAP1 PUSH2 0x42D4 JUMP JUMPDEST PUSH1 0x40 MLOAD DUP1 SWAP2 SUB SWAP1 REVERT JUMPDEST DUP1 PUSH1 0x9 SLOAD LT ISZERO PUSH2 0x230F JUMPI PUSH1 0x40 MLOAD PUSH32 0x8C379A000000000000000000000000000000000000000000000000000000000 DUP2 MSTORE PUSH1 0x4 ADD PUSH2 0x2306 SWAP1 PUSH2 0x42B4 JUMP JUMPDEST PUSH1 0x40 MLOAD DUP1 SWAP2 SUB SWAP1 REVERT JUMPDEST DUP1 PUSH1 0x9 PUSH1 0x0 DUP3 DUP3 SLOAD PUSH2 0x2321 SWAP2 SWAP1 PUSH2 0x4647 JUMP JUMPDEST SWAP3 POP POP DUP2 SWAP1 SSTORE POP PUSH2 0x2375 CALLER DUP3 PUSH1 0x3 PUSH1 0x0 SWAP1 SLOAD SWAP1 PUSH2 0x100 EXP SWAP1 DIV PUSH20 0xFFFFFFFFFFFFFFFFFFFFFFFFFFFFFFFFFFFFFFFF AND PUSH20 0xFFFFFFFFFFFFFFFFFFFFFFFFFFFFFFFFFFFFFFFF AND PUSH2 0x2F4E SWAP1 SWAP3 SWAP2 SWAP1 PUSH4 0xFFFFFFFF AND JUMP JUMPDEST POP JUMP JUMPDEST PUSH1 0x4 PUSH1 0x20 MSTORE DUP1 PUSH1 0x0 MSTORE PUSH1 0x40 PUSH1 0x0 KECCAK256 PUSH1 0x0 SWAP2 POP SWAP1 POP SLOAD DUP2 JUMP JUMPDEST PUSH1 0x60 PUSH1 0x1 PUSH1 0x0 SWAP1 SLOAD SWAP1 PUSH2 0x100 EXP SWAP1 DIV PUSH20 0xFFFFFFFFFFFFFFFFFFFFFFFFFFFFFFFFFFFFFFFF AND PUSH20 0xFFFFFFFFFFFFFFFFFFFFFFFFFFFFFFFFFFFFFFFF AND PUSH4 0xD06CA61F DUP6 DUP6 DUP6 PUSH1 0x40 MLOAD DUP5 PUSH4 0xFFFFFFFF AND PUSH1 0xE0 SHL DUP2 MSTORE PUSH1 0x4 ADD PUSH2 0x23F1 SWAP4 SWAP3 SWAP2 SWAP1 PUSH2 0x438F JUMP JUMPDEST PUSH1 0x0 PUSH1 0x40 MLOAD DUP1 DUP4 SUB DUP2 DUP7 DUP1 EXTCODESIZE ISZERO DUP1 ISZERO PUSH2 0x2409 JUMPI PUSH1 0x0 DUP1 REVERT JUMPDEST POP GAS STATICCALL ISZERO DUP1 ISZERO PUSH2 0x241D JUMPI RETURNDATASIZE PUSH1 0x0 DUP1 RETURNDATACOPY RETURNDATASIZE PUSH1 0x0 REVERT JUMPDEST POP POP POP POP PUSH1 0x40 MLOAD RETURNDATASIZE PUSH1 0x0 DUP3 RETURNDATACOPY RETURNDATASIZE PUSH1 0x1F NOT PUSH1 0x1F DUP3 ADD AND DUP3 ADD DUP1 PUSH1 0x40 MSTORE POP DUP2 ADD SWAP1 PUSH2 0x2446 SWAP2 SWAP1 PUSH2 0x3B70 JUMP JUMPDEST SWAP1 POP SWAP4 SWAP3 POP POP POP JUMP JUMPDEST PUSH1 0x0 PUSH2 0x2459 PUSH2 0x1A34 JUMP JUMPDEST PUSH1 0x1 PUSH1 0xC SLOAD PUSH2 0x2468 SWAP2 SWAP1 PUSH2 0x4566 JUMP JUMPDEST GT ISZERO DUP1 ISZERO PUSH2 0x247A JUMPI POP PUSH1 0xA SLOAD PUSH1 0xC SLOAD EQ ISZERO JUMPDEST ISZERO DUP1 PUSH2 0x2489 JUMPI POP PUSH1 0xA SLOAD PUSH1 0xC SLOAD EQ JUMPDEST SWAP1 POP SWAP1 JUMP JUMPDEST PUSH2 0x2496 PUSH2 0x2FD4 JUMP JUMPDEST PUSH20 0xFFFFFFFFFFFFFFFFFFFFFFFFFFFFFFFFFFFFFFFF AND PUSH2 0x24B4 PUSH2 0x1FB6 JUMP JUMPDEST PUSH20 0xFFFFFFFFFFFFFFFFFFFFFFFFFFFFFFFFFFFFFFFF AND EQ PUSH2 0x250A JUMPI PUSH1 0x40 MLOAD PUSH32 0x8C379A000000000000000000000000000000000000000000000000000000000 DUP2 MSTORE PUSH1 0x4 ADD PUSH2 0x2501 SWAP1 PUSH2 0x42D4 JUMP JUMPDEST PUSH1 0x40 MLOAD DUP1 SWAP2 SUB SWAP1 REVERT JUMPDEST PUSH1 0x0 PUSH20 0xFFFFFFFFFFFFFFFFFFFFFFFFFFFFFFFFFFFFFFFF AND DUP2 PUSH20 0xFFFFFFFFFFFFFFFFFFFFFFFFFFFFFFFFFFFFFFFF AND EQ ISZERO PUSH2 0x257A JUMPI PUSH1 0x40 MLOAD PUSH32 0x8C379A000000000000000000000000000000000000000000000000000000000 DUP2 MSTORE PUSH1 0x4 ADD PUSH2 0x2571 SWAP1 PUSH2 0x4234 JUMP JUMPDEST PUSH1 0x40 MLOAD DUP1 SWAP2 SUB SWAP1 REVERT JUMPDEST PUSH2 0x2583 DUP2 PUSH2 0x33E9 JUMP JUMPDEST POP JUMP JUMPDEST PUSH1 0x60 PUSH1 0xD PUSH1 0x0 SWAP1 SLOAD SWAP1 PUSH2 0x100 EXP SWAP1 DIV PUSH20 0xFFFFFFFFFFFFFFFFFFFFFFFFFFFFFFFFFFFFFFFF AND PUSH20 0xFFFFFFFFFFFFFFFFFFFFFFFFFFFFFFFFFFFFFFFF AND DUP6 DUP6 PUSH1 0x0 DUP2 DUP2 LT PUSH2 0x25FB JUMPI PUSH32 0x4E487B7100000000000000000000000000000000000000000000000000000000 PUSH1 0x0 MSTORE PUSH1 0x32 PUSH1 0x4 MSTORE PUSH1 0x24 PUSH1 0x0 REVERT JUMPDEST SWAP1 POP PUSH1 0x20 MUL ADD PUSH1 0x20 DUP2 ADD SWAP1 PUSH2 0x2610 SWAP2 SWAP1 PUSH2 0x3B0B JUMP JUMPDEST PUSH20 0xFFFFFFFFFFFFFFFFFFFFFFFFFFFFFFFFFFFFFFFF AND EQ PUSH2 0x2666 JUMPI PUSH1 0x40 MLOAD PUSH32 0x8C379A000000000000000000000000000000000000000000000000000000000 DUP2 MSTORE PUSH1 0x4 ADD PUSH2 0x265D SWAP1 PUSH2 0x4214 JUMP JUMPDEST PUSH1 0x40 MLOAD DUP1 SWAP2 SUB SWAP1 REVERT JUMPDEST PUSH1 0x2 PUSH1 0x0 SWAP1 SLOAD SWAP1 PUSH2 0x100 EXP SWAP1 DIV PUSH20 0xFFFFFFFFFFFFFFFFFFFFFFFFFFFFFFFFFFFFFFFF AND PUSH20 0xFFFFFFFFFFFFFFFFFFFFFFFFFFFFFFFFFFFFFFFF AND DUP6 DUP6 PUSH1 0x1 DUP9 DUP9 SWAP1 POP PUSH2 0x26B1 SWAP2 SWAP1 PUSH2 0x4647 JUMP JUMPDEST DUP2 DUP2 LT PUSH2 0x26E7 JUMPI PUSH32 0x4E487B7100000000000000000000000000000000000000000000000000000000 PUSH1 0x0 MSTORE PUSH1 0x32 PUSH1 0x4 MSTORE PUSH1 0x24 PUSH1 0x0 REVERT JUMPDEST SWAP1 POP PUSH1 0x20 MUL ADD PUSH1 0x20 DUP2 ADD SWAP1 PUSH2 0x26FC SWAP2 SWAP1 PUSH2 0x3B0B JUMP JUMPDEST PUSH20 0xFFFFFFFFFFFFFFFFFFFFFFFFFFFFFFFFFFFFFFFF AND EQ PUSH2 0x2752 JUMPI PUSH1 0x40 MLOAD PUSH32 0x8C379A000000000000000000000000000000000000000000000000000000000 DUP2 MSTORE PUSH1 0x4 ADD PUSH2 0x2749 SWAP1 PUSH2 0x4214 JUMP JUMPDEST PUSH1 0x40 MLOAD DUP1 SWAP2 SUB SWAP1 REVERT JUMPDEST PUSH1 0x0 PUSH1 0x1 PUSH1 0x0 SWAP1 SLOAD SWAP1 PUSH2 0x100 EXP SWAP1 DIV PUSH20 0xFFFFFFFFFFFFFFFFFFFFFFFFFFFFFFFFFFFFFFFF AND PUSH20 0xFFFFFFFFFFFFFFFFFFFFFFFFFFFFFFFFFFFFFFFF AND PUSH4 0x1F00CA74 DUP9 DUP9 DUP9 PUSH1 0x40 MLOAD DUP5 PUSH4 0xFFFFFFFF AND PUSH1 0xE0 SHL DUP2 MSTORE PUSH1 0x4 ADD PUSH2 0x27B3 SWAP4 SWAP3 SWAP2 SWAP1 PUSH2 0x438F JUMP JUMPDEST PUSH1 0x0 PUSH1 0x40 MLOAD DUP1 DUP4 SUB DUP2 DUP7 DUP1 EXTCODESIZE ISZERO DUP1 ISZERO PUSH2 0x27CB JUMPI PUSH1 0x0 DUP1 REVERT JUMPDEST POP GAS STATICCALL ISZERO DUP1 ISZERO PUSH2 0x27DF JUMPI RETURNDATASIZE PUSH1 0x0 DUP1 RETURNDATACOPY RETURNDATASIZE PUSH1 0x0 REVERT JUMPDEST POP POP POP POP PUSH1 0x40 MLOAD RETURNDATASIZE PUSH1 0x0 DUP3 RETURNDATACOPY RETURNDATASIZE PUSH1 0x1F NOT PUSH1 0x1F DUP3 ADD AND DUP3 ADD DUP1 PUSH1 0x40 MSTORE POP DUP2 ADD SWAP1 PUSH2 0x2808 SWAP2 SWAP1 PUSH2 0x3B70 JUMP JUMPDEST PUSH1 0x0 DUP2 MLOAD DUP2 LT PUSH2 0x2841 JUMPI PUSH32 0x4E487B7100000000000000000000000000000000000000000000000000000000 PUSH1 0x0 MSTORE PUSH1 0x32 PUSH1 0x4 MSTORE PUSH1 0x24 PUSH1 0x0 REVERT JUMPDEST PUSH1 0x20 MUL PUSH1 0x20 ADD ADD MLOAD SWAP1 POP DUP1 CALLVALUE LT ISZERO PUSH2 0x288E JUMPI PUSH1 0x40 MLOAD PUSH32 0x8C379A000000000000000000000000000000000000000000000000000000000 DUP2 MSTORE PUSH1 0x4 ADD PUSH2 0x2885 SWAP1 PUSH2 0x4294 JUMP JUMPDEST PUSH1 0x40 MLOAD DUP1 SWAP2 SUB SWAP1 REVERT JUMPDEST PUSH2 0x28E6 PUSH2 0x2899 PUSH2 0x1A34 JUMP JUMPDEST PUSH1 0x8 PUSH1 0x0 CALLER PUSH20 0xFFFFFFFFFFFFFFFFFFFFFFFFFFFFFFFFFFFFFFFF AND PUSH20 0xFFFFFFFFFFFFFFFFFFFFFFFFFFFFFFFFFFFFFFFF AND DUP2 MSTORE PUSH1 0x20 ADD SWAP1 DUP2 MSTORE PUSH1 0x20 ADD PUSH1 0x0 KECCAK256 PUSH2 0x2F1A SWAP1 SWAP2 SWAP1 PUSH4 0xFFFFFFFF AND JUMP JUMPDEST ISZERO DUP1 ISZERO PUSH2 0x28FB JUMPI POP PUSH1 0xA SLOAD PUSH2 0x28F9 PUSH2 0x1A34 JUMP JUMPDEST LT JUMPDEST ISZERO PUSH2 0x295A JUMPI PUSH2 0x2958 PUSH2 0x290B PUSH2 0x1A34 JUMP JUMPDEST PUSH1 0x8 PUSH1 0x0 CALLER PUSH20 0xFFFFFFFFFFFFFFFFFFFFFFFFFFFFFFFFFFFFFFFF AND PUSH20 0xFFFFFFFFFFFFFFFFFFFFFFFFFFFFFFFFFFFFFFFF AND DUP2 MSTORE PUSH1 0x20 ADD SWAP1 DUP2 MSTORE PUSH1 0x20 ADD PUSH1 0x0 KECCAK256 PUSH2 0x3065 SWAP1 SWAP2 SWAP1 PUSH4 0xFFFFFFFF AND JUMP JUMPDEST POP JUMPDEST PUSH1 0xA SLOAD PUSH1 0xC SLOAD EQ PUSH2 0x296F JUMPI PUSH2 0x296E DUP8 PUSH2 0x31A0 JUMP JUMPDEST JUMPDEST DUP1 CALLVALUE GT ISZERO PUSH2 0x29CA JUMPI CALLER PUSH20 0xFFFFFFFFFFFFFFFFFFFFFFFFFFFFFFFFFFFFFFFF AND PUSH2 0x8FC DUP3 CALLVALUE PUSH2 0x299D SWAP2 SWAP1 PUSH2 0x4647 JUMP JUMPDEST SWAP1 DUP2 ISZERO MUL SWAP1 PUSH1 0x40 MLOAD PUSH1 0x0 PUSH1 0x40 MLOAD DUP1 DUP4 SUB DUP2 DUP6 DUP9 DUP9 CALL SWAP4 POP POP POP POP ISZERO DUP1 ISZERO PUSH2 0x29C8 JUMPI RETURNDATASIZE PUSH1 0x0 DUP1 RETURNDATACOPY RETURNDATASIZE PUSH1 0x0 REVERT JUMPDEST POP JUMPDEST PUSH1 0x1 PUSH1 0x0 SWAP1 SLOAD SWAP1 PUSH2 0x100 EXP SWAP1 DIV PUSH20 0xFFFFFFFFFFFFFFFFFFFFFFFFFFFFFFFFFFFFFFFF AND PUSH20 0xFFFFFFFFFFFFFFFFFFFFFFFFFFFFFFFFFFFFFFFF AND PUSH4 0xFB3BDB41 DUP3 DUP10 DUP10 DUP10 DUP10 DUP10 PUSH1 0x40 MLOAD DUP8 PUSH4 0xFFFFFFFF AND PUSH1 0xE0 SHL DUP2 MSTORE PUSH1 0x4 ADD PUSH2 0x2A2E SWAP6 SWAP5 SWAP4 SWAP3 SWAP2 SWAP1 PUSH2 0x43C1 JUMP JUMPDEST PUSH1 0x0 PUSH1 0x40 MLOAD DUP1 DUP4 SUB DUP2 DUP6 DUP9 DUP1 EXTCODESIZE ISZERO DUP1 ISZERO PUSH2 0x2A47 JUMPI PUSH1 0x0 DUP1 REVERT JUMPDEST POP GAS CALL ISZERO DUP1 ISZERO PUSH2 0x2A5B JUMPI RETURNDATASIZE PUSH1 0x0 DUP1 RETURNDATACOPY RETURNDATASIZE PUSH1 0x0 REVERT JUMPDEST POP POP POP POP POP PUSH1 0x40 MLOAD RETURNDATASIZE PUSH1 0x0 DUP3 RETURNDATACOPY RETURNDATASIZE PUSH1 0x1F NOT PUSH1 0x1F DUP3 ADD AND DUP3 ADD DUP1 PUSH1 0x40 MSTORE POP DUP2 ADD SWAP1 PUSH2 0x2A85 SWAP2 SWAP1 PUSH2 0x3B70 JUMP JUMPDEST SWAP2 POP POP SWAP6 SWAP5 POP POP POP POP POP JUMP JUMPDEST PUSH1 0x0 PUSH2 0x2A9F DUP3 PUSH1 0x0 ADD PUSH2 0x34EF JUMP JUMPDEST SWAP1 POP SWAP2 SWAP1 POP JUMP JUMPDEST PUSH1 0x0 PUSH2 0x2AB5 DUP4 PUSH1 0x0 ADD DUP4 PUSH2 0x3500 JUMP JUMPDEST PUSH1 0x0 SHR SWAP1 POP SWAP3 SWAP2 POP POP JUMP JUMPDEST PUSH1 0x0 DUP1 DUP3 GT PUSH2 0x2ACE JUMPI PUSH1 0x0 DUP1 REVERT JUMPDEST PUSH1 0x0 DUP1 PUSH1 0x0 NOT DUP6 DUP8 MULMOD DUP6 DUP8 MUL SWAP3 POP DUP3 DUP2 LT DUP4 DUP3 SUB SUB SWAP2 POP POP PUSH1 0x0 DUP2 EQ ISZERO PUSH2 0x2AFB JUMPI DUP4 DUP3 DIV SWAP3 POP POP POP PUSH2 0x2C5A JUMP JUMPDEST DUP4 DUP2 LT PUSH2 0x2B07 JUMPI PUSH1 0x0 DUP1 REVERT JUMPDEST PUSH1 0x0 DUP5 DUP7 DUP9 MULMOD SWAP1 POP DUP3 DUP2 GT DUP3 SUB SWAP2 POP DUP1 DUP4 SUB SWAP3 POP PUSH1 0x0 PUSH1 0x1 DUP7 NOT PUSH2 0x2B2B SWAP2 SWAP1 PUSH2 0x4566 JUMP JUMPDEST DUP7 AND SWAP1 POP DUP1 DUP7 DIV SWAP6 POP DUP1 DUP5 DIV SWAP4 POP PUSH1 0x1 DUP2 DUP3 PUSH1 0x0 SUB DIV ADD SWAP1 POP DUP1 DUP4 PUSH2 0x2B50 SWAP2 SWAP1 PUSH2 0x45ED JUMP JUMPDEST DUP5 OR SWAP4 POP PUSH1 0x0 PUSH1 0x2 DUP8 PUSH1 0x3 PUSH2 0x2B65 SWAP2 SWAP1 PUSH2 0x45ED JUMP JUMPDEST XOR SWAP1 POP DUP1 DUP8 PUSH2 0x2B74 SWAP2 SWAP1 PUSH2 0x45ED JUMP JUMPDEST PUSH1 0x2 PUSH2 0x2B80 SWAP2 SWAP1 PUSH2 0x4647 JUMP JUMPDEST DUP2 PUSH2 0x2B8B SWAP2 SWAP1 PUSH2 0x45ED JUMP JUMPDEST SWAP1 POP DUP1 DUP8 PUSH2 0x2B99 SWAP2 SWAP1 PUSH2 0x45ED JUMP JUMPDEST PUSH1 0x2 PUSH2 0x2BA5 SWAP2 SWAP1 PUSH2 0x4647 JUMP JUMPDEST DUP2 PUSH2 0x2BB0 SWAP2 SWAP1 PUSH2 0x45ED JUMP JUMPDEST SWAP1 POP DUP1 DUP8 PUSH2 0x2BBE SWAP2 SWAP1 PUSH2 0x45ED JUMP JUMPDEST PUSH1 0x2 PUSH2 0x2BCA SWAP2 SWAP1 PUSH2 0x4647 JUMP JUMPDEST DUP2 PUSH2 0x2BD5 SWAP2 SWAP1 PUSH2 0x45ED JUMP JUMPDEST SWAP1 POP DUP1 DUP8 PUSH2 0x2BE3 SWAP2 SWAP1 PUSH2 0x45ED JUMP JUMPDEST PUSH1 0x2 PUSH2 0x2BEF SWAP2 SWAP1 PUSH2 0x4647 JUMP JUMPDEST DUP2 PUSH2 0x2BFA SWAP2 SWAP1 PUSH2 0x45ED JUMP JUMPDEST SWAP1 POP DUP1 DUP8 PUSH2 0x2C08 SWAP2 SWAP1 PUSH2 0x45ED JUMP JUMPDEST PUSH1 0x2 PUSH2 0x2C14 SWAP2 SWAP1 PUSH2 0x4647 JUMP JUMPDEST DUP2 PUSH2 0x2C1F SWAP2 SWAP1 PUSH2 0x45ED JUMP JUMPDEST SWAP1 POP DUP1 DUP8 PUSH2 0x2C2D SWAP2 SWAP1 PUSH2 0x45ED JUMP JUMPDEST PUSH1 0x2 PUSH2 0x2C39 SWAP2 SWAP1 PUSH2 0x4647 JUMP JUMPDEST DUP2 PUSH2 0x2C44 SWAP2 SWAP1 PUSH2 0x45ED JUMP JUMPDEST SWAP1 POP DUP1 DUP6 PUSH2 0x2C52 SWAP2 SWAP1 PUSH2 0x45ED JUMP JUMPDEST SWAP6 POP POP POP POP POP POP JUMPDEST SWAP4 SWAP3 POP POP POP JUMP JUMPDEST PUSH1 0x0 PUSH2 0x2C6B PUSH2 0x1A34 JUMP JUMPDEST SWAP1 POP PUSH1 0x0 PUSH1 0x1 PUSH1 0xC SLOAD PUSH1 0xB SLOAD PUSH2 0x2C81 SWAP2 SWAP1 PUSH2 0x4566 JUMP JUMPDEST PUSH2 0x2C8B SWAP2 SWAP1 PUSH2 0x4566 JUMP JUMPDEST SWAP1 POP DUP2 PUSH1 0x1 PUSH1 0xC SLOAD PUSH2 0x2C9D SWAP2 SWAP1 PUSH2 0x4566 JUMP JUMPDEST GT ISZERO PUSH2 0x2CD2 JUMPI PUSH32 0x4E487B7100000000000000000000000000000000000000000000000000000000 PUSH1 0x0 MSTORE PUSH1 0x1 PUSH1 0x4 MSTORE PUSH1 0x24 PUSH1 0x0 REVERT JUMPDEST DUP1 PUSH1 0x6 PUSH1 0x0 PUSH1 0xC SLOAD DUP2 MSTORE PUSH1 0x20 ADD SWAP1 DUP2 MSTORE PUSH1 0x20 ADD PUSH1 0x0 KECCAK256 SLOAD PUSH2 0x2CF3 SWAP2 SWAP1 PUSH2 0x45BC JUMP JUMPDEST PUSH2 0x2D1F PUSH1 0x4 PUSH1 0x0 PUSH1 0xC SLOAD DUP2 MSTORE PUSH1 0x20 ADD SWAP1 DUP2 MSTORE PUSH1 0x20 ADD PUSH1 0x0 KECCAK256 SLOAD PUSH1 0x1 DUP5 PUSH2 0x2D19 SWAP2 SWAP1 PUSH2 0x4647 JUMP JUMPDEST DUP5 PUSH2 0x2AC0 JUMP JUMPDEST PUSH2 0x2D29 SWAP2 SWAP1 PUSH2 0x4566 JUMP JUMPDEST PUSH1 0x4 PUSH1 0x0 PUSH1 0x1 PUSH1 0xC SLOAD PUSH2 0x2D3C SWAP2 SWAP1 PUSH2 0x4566 JUMP JUMPDEST DUP2 MSTORE PUSH1 0x20 ADD SWAP1 DUP2 MSTORE PUSH1 0x20 ADD PUSH1 0x0 KECCAK256 DUP2 SWAP1 SSTORE POP PUSH1 0x0 PUSH2 0x2D5B PUSH1 0xC SLOAD PUSH2 0x34AD JUMP JUMPDEST SWAP1 POP PUSH32 0x0 DUP2 GT ISZERO PUSH2 0x2DAD JUMPI PUSH32 0x0 SWAP1 POP PUSH2 0x2E0D JUMP JUMPDEST PUSH1 0x0 DUP2 EQ ISZERO PUSH2 0x2DBF JUMPI PUSH1 0x0 SWAP1 POP PUSH2 0x2E0C JUMP JUMPDEST PUSH32 0x0 DUP2 LT ISZERO PUSH2 0x2E0B JUMPI PUSH32 0x0 SWAP1 POP JUMPDEST JUMPDEST JUMPDEST PUSH1 0x1 PUSH1 0xA SLOAD PUSH2 0x2E1C SWAP2 SWAP1 PUSH2 0x4647 JUMP JUMPDEST PUSH1 0xC SLOAD EQ DUP1 ISZERO PUSH2 0x2E33 JUMPI POP PUSH8 0xDE0B6B3A7640000 DUP2 GT JUMPDEST ISZERO PUSH2 0x2E59 JUMPI PUSH1 0x9 SLOAD PUSH1 0x7 PUSH1 0x0 PUSH1 0xC SLOAD DUP2 MSTORE PUSH1 0x20 ADD SWAP1 DUP2 MSTORE PUSH1 0x20 ADD PUSH1 0x0 KECCAK256 DUP2 SWAP1 SSTORE POP PUSH2 0x2EA2 JUMP JUMPDEST PUSH2 0x2E88 PUSH1 0xC SLOAD PUSH1 0xA SLOAD PUSH2 0x2E6C SWAP2 SWAP1 PUSH2 0x4647 JUMP JUMPDEST PUSH1 0x9 SLOAD PUSH2 0x2E79 SWAP2 SWAP1 PUSH2 0x45BC JUMP JUMPDEST DUP3 PUSH8 0xDE0B6B3A7640000 PUSH2 0x2AC0 JUMP JUMPDEST PUSH1 0x7 PUSH1 0x0 PUSH1 0xC SLOAD DUP2 MSTORE PUSH1 0x20 ADD SWAP1 DUP2 MSTORE PUSH1 0x20 ADD PUSH1 0x0 KECCAK256 DUP2 SWAP1 SSTORE POP JUMPDEST PUSH1 0x7 PUSH1 0x0 PUSH1 0xC SLOAD DUP2 MSTORE PUSH1 0x20 ADD SWAP1 DUP2 MSTORE PUSH1 0x20 ADD PUSH1 0x0 KECCAK256 SLOAD PUSH1 0x9 SLOAD PUSH2 0x2EC5 SWAP2 SWAP1 PUSH2 0x4647 JUMP JUMPDEST PUSH1 0x9 DUP2 SWAP1 SSTORE POP PUSH1 0x1 PUSH1 0xC PUSH1 0x0 DUP3 DUP3 SLOAD PUSH2 0x2EDE SWAP2 SWAP1 PUSH2 0x4566 JUMP JUMPDEST SWAP3 POP POP DUP2 SWAP1 SSTORE POP DUP3 PUSH1 0x1 PUSH1 0xC SLOAD PUSH2 0x2EF5 SWAP2 SWAP1 PUSH2 0x4566 JUMP JUMPDEST GT ISZERO DUP1 ISZERO PUSH2 0x2F07 JUMPI POP PUSH1 0xA SLOAD PUSH1 0xC SLOAD EQ ISZERO JUMPDEST ISZERO PUSH2 0x2F15 JUMPI PUSH2 0x2F14 PUSH2 0x2C61 JUMP JUMPDEST JUMPDEST POP POP POP JUMP JUMPDEST PUSH1 0x0 PUSH2 0x2F2C DUP4 PUSH1 0x0 ADD DUP4 PUSH1 0x0 SHL PUSH2 0x3551 JUMP JUMPDEST SWAP1 POP SWAP3 SWAP2 POP POP JUMP JUMPDEST PUSH1 0x0 PUSH2 0x2F46 DUP4 PUSH1 0x0 ADD DUP4 PUSH1 0x0 SHL PUSH2 0x3574 JUMP JUMPDEST SWAP1 POP SWAP3 SWAP2 POP POP JUMP JUMPDEST PUSH2 0x2FCF DUP4 PUSH4 0xA9059CBB PUSH1 0xE0 SHL DUP5 DUP5 PUSH1 0x40 MLOAD PUSH1 0x24 ADD PUSH2 0x2F6D SWAP3 SWAP2 SWAP1 PUSH2 0x416C JUMP JUMPDEST PUSH1 0x40 MLOAD PUSH1 0x20 DUP2 DUP4 SUB SUB DUP2 MSTORE SWAP1 PUSH1 0x40 MSTORE SWAP1 PUSH28 0xFFFFFFFFFFFFFFFFFFFFFFFFFFFFFFFFFFFFFFFFFFFFFFFFFFFFFFFF NOT AND PUSH1 0x20 DUP3 ADD DUP1 MLOAD PUSH28 0xFFFFFFFFFFFFFFFFFFFFFFFFFFFFFFFFFFFFFFFFFFFFFFFFFFFFFFFF DUP4 DUP2 DUP4 AND OR DUP4 MSTORE POP POP POP POP PUSH2 0x36FA JUMP JUMPDEST POP POP POP JUMP JUMPDEST PUSH1 0x0 CALLER SWAP1 POP SWAP1 JUMP JUMPDEST PUSH2 0x305F DUP5 PUSH4 0x23B872DD PUSH1 0xE0 SHL DUP6 DUP6 DUP6 PUSH1 0x40 MLOAD PUSH1 0x24 ADD PUSH2 0x2FFD SWAP4 SWAP3 SWAP2 SWAP1 PUSH2 0x4135 JUMP JUMPDEST PUSH1 0x40 MLOAD PUSH1 0x20 DUP2 DUP4 SUB SUB DUP2 MSTORE SWAP1 PUSH1 0x40 MSTORE SWAP1 PUSH28 0xFFFFFFFFFFFFFFFFFFFFFFFFFFFFFFFFFFFFFFFFFFFFFFFFFFFFFFFF NOT AND PUSH1 0x20 DUP3 ADD DUP1 MLOAD PUSH28 0xFFFFFFFFFFFFFFFFFFFFFFFFFFFFFFFFFFFFFFFFFFFFFFFFFFFFFFFF DUP4 DUP2 DUP4 AND OR DUP4 MSTORE POP POP POP POP PUSH2 0x36FA JUMP JUMPDEST POP POP POP POP JUMP JUMPDEST PUSH1 0x0 PUSH2 0x3077 DUP4 PUSH1 0x0 ADD DUP4 PUSH1 0x0 SHL PUSH2 0x37C1 JUMP JUMPDEST SWAP1 POP SWAP3 SWAP2 POP POP JUMP JUMPDEST PUSH1 0x0 DUP2 DUP5 PUSH20 0xFFFFFFFFFFFFFFFFFFFFFFFFFFFFFFFFFFFFFFFF AND PUSH4 0xDD62ED3E ADDRESS DUP7 PUSH1 0x40 MLOAD DUP4 PUSH4 0xFFFFFFFF AND PUSH1 0xE0 SHL DUP2 MSTORE PUSH1 0x4 ADD PUSH2 0x30BD SWAP3 SWAP2 SWAP1 PUSH2 0x410C JUMP JUMPDEST PUSH1 0x20 PUSH1 0x40 MLOAD DUP1 DUP4 SUB DUP2 DUP7 DUP1 EXTCODESIZE ISZERO DUP1 ISZERO PUSH2 0x30D5 JUMPI PUSH1 0x0 DUP1 REVERT JUMPDEST POP GAS STATICCALL ISZERO DUP1 ISZERO PUSH2 0x30E9 JUMPI RETURNDATASIZE PUSH1 0x0 DUP1 RETURNDATACOPY RETURNDATASIZE PUSH1 0x0 REVERT JUMPDEST POP POP POP POP PUSH1 0x40 MLOAD RETURNDATASIZE PUSH1 0x1F NOT PUSH1 0x1F DUP3 ADD AND DUP3 ADD DUP1 PUSH1 0x40 MSTORE POP DUP2 ADD SWAP1 PUSH2 0x310D SWAP2 SWAP1 PUSH2 0x3C03 JUMP JUMPDEST PUSH2 0x3117 SWAP2 SWAP1 PUSH2 0x4566 JUMP JUMPDEST SWAP1 POP PUSH2 0x319A DUP5 PUSH4 0x95EA7B3 PUSH1 0xE0 SHL DUP6 DUP5 PUSH1 0x40 MLOAD PUSH1 0x24 ADD PUSH2 0x3138 SWAP3 SWAP2 SWAP1 PUSH2 0x416C JUMP JUMPDEST PUSH1 0x40 MLOAD PUSH1 0x20 DUP2 DUP4 SUB SUB DUP2 MSTORE SWAP1 PUSH1 0x40 MSTORE SWAP1 PUSH28 0xFFFFFFFFFFFFFFFFFFFFFFFFFFFFFFFFFFFFFFFFFFFFFFFFFFFFFFFF NOT AND PUSH1 0x20 DUP3 ADD DUP1 MLOAD PUSH28 0xFFFFFFFFFFFFFFFFFFFFFFFFFFFFFFFFFFFFFFFFFFFFFFFFFFFFFFFF DUP4 DUP2 DUP4 AND OR DUP4 MSTORE POP POP POP POP PUSH2 0x36FA JUMP JUMPDEST POP POP POP POP JUMP JUMPDEST PUSH1 0xA SLOAD PUSH2 0x31AB PUSH2 0x1A34 JUMP JUMPDEST LT ISZERO PUSH2 0x3251 JUMPI DUP1 PUSH1 0x5 PUSH1 0x0 CALLER PUSH20 0xFFFFFFFFFFFFFFFFFFFFFFFFFFFFFFFFFFFFFFFF AND PUSH20 0xFFFFFFFFFFFFFFFFFFFFFFFFFFFFFFFFFFFFFFFF AND DUP2 MSTORE PUSH1 0x20 ADD SWAP1 DUP2 MSTORE PUSH1 0x20 ADD PUSH1 0x0 KECCAK256 PUSH1 0x0 PUSH2 0x31FB PUSH2 0x1A34 JUMP JUMPDEST DUP2 MSTORE PUSH1 0x20 ADD SWAP1 DUP2 MSTORE PUSH1 0x20 ADD PUSH1 0x0 KECCAK256 PUSH1 0x0 DUP3 DUP3 SLOAD PUSH2 0x3218 SWAP2 SWAP1 PUSH2 0x4566 JUMP JUMPDEST SWAP3 POP POP DUP2 SWAP1 SSTORE POP DUP1 PUSH1 0x6 PUSH1 0x0 PUSH2 0x322C PUSH2 0x1A34 JUMP JUMPDEST DUP2 MSTORE PUSH1 0x20 ADD SWAP1 DUP2 MSTORE PUSH1 0x20 ADD PUSH1 0x0 KECCAK256 PUSH1 0x0 DUP3 DUP3 SLOAD PUSH2 0x3249 SWAP2 SWAP1 PUSH2 0x4566 JUMP JUMPDEST SWAP3 POP POP DUP2 SWAP1 SSTORE POP JUMPDEST PUSH2 0x3259 PUSH2 0x1A34 JUMP JUMPDEST PUSH1 0x1 PUSH1 0xC SLOAD PUSH2 0x3268 SWAP2 SWAP1 PUSH2 0x4566 JUMP JUMPDEST GT ISZERO DUP1 ISZERO PUSH2 0x327A JUMPI POP PUSH1 0xA SLOAD PUSH1 0xC SLOAD EQ ISZERO JUMPDEST ISZERO PUSH2 0x3288 JUMPI PUSH2 0x3287 PUSH2 0x2C61 JUMP JUMPDEST JUMPDEST POP JUMP JUMPDEST PUSH1 0x0 DUP2 EQ DUP1 PUSH2 0x3324 JUMPI POP PUSH1 0x0 DUP4 PUSH20 0xFFFFFFFFFFFFFFFFFFFFFFFFFFFFFFFFFFFFFFFF AND PUSH4 0xDD62ED3E ADDRESS DUP6 PUSH1 0x40 MLOAD DUP4 PUSH4 0xFFFFFFFF AND PUSH1 0xE0 SHL DUP2 MSTORE PUSH1 0x4 ADD PUSH2 0x32D2 SWAP3 SWAP2 SWAP1 PUSH2 0x410C JUMP JUMPDEST PUSH1 0x20 PUSH1 0x40 MLOAD DUP1 DUP4 SUB DUP2 DUP7 DUP1 EXTCODESIZE ISZERO DUP1 ISZERO PUSH2 0x32EA JUMPI PUSH1 0x0 DUP1 REVERT JUMPDEST POP GAS STATICCALL ISZERO DUP1 ISZERO PUSH2 0x32FE JUMPI RETURNDATASIZE PUSH1 0x0 DUP1 RETURNDATACOPY RETURNDATASIZE PUSH1 0x0 REVERT JUMPDEST POP POP POP POP PUSH1 0x40 MLOAD RETURNDATASIZE PUSH1 0x1F NOT PUSH1 0x1F DUP3 ADD AND DUP3 ADD DUP1 PUSH1 0x40 MSTORE POP DUP2 ADD SWAP1 PUSH2 0x3322 SWAP2 SWAP1 PUSH2 0x3C03 JUMP JUMPDEST EQ JUMPDEST PUSH2 0x3363 JUMPI PUSH1 0x40 MLOAD PUSH32 0x8C379A000000000000000000000000000000000000000000000000000000000 DUP2 MSTORE PUSH1 0x4 ADD PUSH2 0x335A SWAP1 PUSH2 0x4354 JUMP JUMPDEST PUSH1 0x40 MLOAD DUP1 SWAP2 SUB SWAP1 REVERT JUMPDEST PUSH2 0x33E4 DUP4 PUSH4 0x95EA7B3 PUSH1 0xE0 SHL DUP5 DUP5 PUSH1 0x40 MLOAD PUSH1 0x24 ADD PUSH2 0x3382 SWAP3 SWAP2 SWAP1 PUSH2 0x416C JUMP JUMPDEST PUSH1 0x40 MLOAD PUSH1 0x20 DUP2 DUP4 SUB SUB DUP2 MSTORE SWAP1 PUSH1 0x40 MSTORE SWAP1 PUSH28 0xFFFFFFFFFFFFFFFFFFFFFFFFFFFFFFFFFFFFFFFFFFFFFFFFFFFFFFFF NOT AND PUSH1 0x20 DUP3 ADD DUP1 MLOAD PUSH28 0xFFFFFFFFFFFFFFFFFFFFFFFFFFFFFFFFFFFFFFFFFFFFFFFFFFFFFFFF DUP4 DUP2 DUP4 AND OR DUP4 MSTORE POP POP POP POP PUSH2 0x36FA JUMP JUMPDEST POP POP POP JUMP JUMPDEST PUSH1 0x0 DUP1 PUSH1 0x0 SWAP1 SLOAD SWAP1 PUSH2 0x100 EXP SWAP1 DIV PUSH20 0xFFFFFFFFFFFFFFFFFFFFFFFFFFFFFFFFFFFFFFFF AND SWAP1 POP DUP2 PUSH1 0x0 DUP1 PUSH2 0x100 EXP DUP2 SLOAD DUP2 PUSH20 0xFFFFFFFFFFFFFFFFFFFFFFFFFFFFFFFFFFFFFFFF MUL NOT AND SWAP1 DUP4 PUSH20 0xFFFFFFFFFFFFFFFFFFFFFFFFFFFFFFFFFFFFFFFF AND MUL OR SWAP1 SSTORE POP DUP2 PUSH20 0xFFFFFFFFFFFFFFFFFFFFFFFFFFFFFFFFFFFFFFFF AND DUP2 PUSH20 0xFFFFFFFFFFFFFFFFFFFFFFFFFFFFFFFFFFFFFFFF AND PUSH32 0x8BE0079C531659141344CD1FD0A4F28419497F9722A3DAAFE3B4186F6B6457E0 PUSH1 0x40 MLOAD PUSH1 0x40 MLOAD DUP1 SWAP2 SUB SWAP1 LOG3 POP POP JUMP JUMPDEST PUSH1 0x0 PUSH2 0x34E8 PUSH1 0x6 PUSH1 0x0 DUP5 DUP2 MSTORE PUSH1 0x20 ADD SWAP1 DUP2 MSTORE PUSH1 0x20 ADD PUSH1 0x0 KECCAK256 SLOAD PUSH8 0xDE0B6B3A7640000 PUSH1 0x4 PUSH1 0x0 DUP7 DUP2 MSTORE PUSH1 0x20 ADD SWAP1 DUP2 MSTORE PUSH1 0x20 ADD PUSH1 0x0 KECCAK256 SLOAD PUSH2 0x2AC0 JUMP JUMPDEST SWAP1 POP SWAP2 SWAP1 POP JUMP JUMPDEST PUSH1 0x0 DUP2 PUSH1 0x0 ADD DUP1 SLOAD SWAP1 POP SWAP1 POP SWAP2 SWAP1 POP JUMP JUMPDEST PUSH1 0x0 DUP3 PUSH1 0x0 ADD DUP3 DUP2 SLOAD DUP2 LT PUSH2 0x353E JUMPI PUSH32 0x4E487B7100000000000000000000000000000000000000000000000000000000 PUSH1 0x0 MSTORE PUSH1 0x32 PUSH1 0x4 MSTORE PUSH1 0x24 PUSH1 0x0 REVERT JUMPDEST SWAP1 PUSH1 0x0 MSTORE PUSH1 0x20 PUSH1 0x0 KECCAK256 ADD SLOAD SWAP1 POP SWAP3 SWAP2 POP POP JUMP JUMPDEST PUSH1 0x0 DUP1 DUP4 PUSH1 0x1 ADD PUSH1 0x0 DUP5 DUP2 MSTORE PUSH1 0x20 ADD SWAP1 DUP2 MSTORE PUSH1 0x20 ADD PUSH1 0x0 KECCAK256 SLOAD EQ ISZERO SWAP1 POP SWAP3 SWAP2 POP POP JUMP JUMPDEST PUSH1 0x0 DUP1 DUP4 PUSH1 0x1 ADD PUSH1 0x0 DUP5 DUP2 MSTORE PUSH1 0x20 ADD SWAP1 DUP2 MSTORE PUSH1 0x20 ADD PUSH1 0x0 KECCAK256 SLOAD SWAP1 POP PUSH1 0x0 DUP2 EQ PUSH2 0x36EE JUMPI PUSH1 0x0 PUSH1 0x1 DUP3 PUSH2 0x35A6 SWAP2 SWAP1 PUSH2 0x4647 JUMP JUMPDEST SWAP1 POP PUSH1 0x0 PUSH1 0x1 DUP7 PUSH1 0x0 ADD DUP1 SLOAD SWAP1 POP PUSH2 0x35BE SWAP2 SWAP1 PUSH2 0x4647 JUMP JUMPDEST SWAP1 POP DUP2 DUP2 EQ PUSH2 0x3679 JUMPI PUSH1 0x0 DUP7 PUSH1 0x0 ADD DUP3 DUP2 SLOAD DUP2 LT PUSH2 0x3605 JUMPI PUSH32 0x4E487B7100000000000000000000000000000000000000000000000000000000 PUSH1 0x0 MSTORE PUSH1 0x32 PUSH1 0x4 MSTORE PUSH1 0x24 PUSH1 0x0 REVERT JUMPDEST SWAP1 PUSH1 0x0 MSTORE PUSH1 0x20 PUSH1 0x0 KECCAK256 ADD SLOAD SWAP1 POP DUP1 DUP8 PUSH1 0x0 ADD DUP5 DUP2 SLOAD DUP2 LT PUSH2 0x364F JUMPI PUSH32 0x4E487B7100000000000000000000000000000000000000000000000000000000 PUSH1 0x0 MSTORE PUSH1 0x32 PUSH1 0x4 MSTORE PUSH1 0x24 PUSH1 0x0 REVERT JUMPDEST SWAP1 PUSH1 0x0 MSTORE PUSH1 0x20 PUSH1 0x0 KECCAK256 ADD DUP2 SWAP1 SSTORE POP DUP4 DUP8 PUSH1 0x1 ADD PUSH1 0x0 DUP4 DUP2 MSTORE PUSH1 0x20 ADD SWAP1 DUP2 MSTORE PUSH1 0x20 ADD PUSH1 0x0 KECCAK256 DUP2 SWAP1 SSTORE POP POP JUMPDEST DUP6 PUSH1 0x0 ADD DUP1 SLOAD DUP1 PUSH2 0x36B3 JUMPI PUSH32 0x4E487B7100000000000000000000000000000000000000000000000000000000 PUSH1 0x0 MSTORE PUSH1 0x31 PUSH1 0x4 MSTORE PUSH1 0x24 PUSH1 0x0 REVERT JUMPDEST PUSH1 0x1 SWAP1 SUB DUP2 DUP2 SWAP1 PUSH1 0x0 MSTORE PUSH1 0x20 PUSH1 0x0 KECCAK256 ADD PUSH1 0x0 SWAP1 SSTORE SWAP1 SSTORE DUP6 PUSH1 0x1 ADD PUSH1 0x0 DUP7 DUP2 MSTORE PUSH1 0x20 ADD SWAP1 DUP2 MSTORE PUSH1 0x20 ADD PUSH1 0x0 KECCAK256 PUSH1 0x0 SWAP1 SSTORE PUSH1 0x1 SWAP4 POP POP POP POP PUSH2 0x36F4 JUMP JUMPDEST PUSH1 0x0 SWAP2 POP POP JUMPDEST SWAP3 SWAP2 POP POP JUMP JUMPDEST PUSH1 0x0 PUSH2 0x375C DUP3 PUSH1 0x40 MLOAD DUP1 PUSH1 0x40 ADD PUSH1 0x40 MSTORE DUP1 PUSH1 0x20 DUP2 MSTORE PUSH1 0x20 ADD PUSH32 0x5361666545524332303A206C6F772D6C6576656C2063616C6C206661696C6564 DUP2 MSTORE POP DUP6 PUSH20 0xFFFFFFFFFFFFFFFFFFFFFFFFFFFFFFFFFFFFFFFF AND PUSH2 0x3831 SWAP1 SWAP3 SWAP2 SWAP1 PUSH4 0xFFFFFFFF AND JUMP JUMPDEST SWAP1 POP PUSH1 0x0 DUP2 MLOAD GT ISZERO PUSH2 0x37BC JUMPI DUP1 DUP1 PUSH1 0x20 ADD SWAP1 MLOAD DUP2 ADD SWAP1 PUSH2 0x377C SWAP2 SWAP1 PUSH2 0x3BB1 JUMP JUMPDEST PUSH2 0x37BB JUMPI PUSH1 0x40 MLOAD PUSH32 0x8C379A000000000000000000000000000000000000000000000000000000000 DUP2 MSTORE PUSH1 0x4 ADD PUSH2 0x37B2 SWAP1 PUSH2 0x4334 JUMP JUMPDEST PUSH1 0x40 MLOAD DUP1 SWAP2 SUB SWAP1 REVERT JUMPDEST JUMPDEST POP POP POP JUMP JUMPDEST PUSH1 0x0 PUSH2 0x37CD DUP4 DUP4 PUSH2 0x3551 JUMP JUMPDEST PUSH2 0x3826 JUMPI DUP3 PUSH1 0x0 ADD DUP3 SWAP1 DUP1 PUSH1 0x1 DUP2 SLOAD ADD DUP1 DUP3 SSTORE DUP1 SWAP2 POP POP PUSH1 0x1 SWAP1 SUB SWAP1 PUSH1 0x0 MSTORE PUSH1 0x20 PUSH1 0x0 KECCAK256 ADD PUSH1 0x0 SWAP1 SWAP2 SWAP1 SWAP2 SWAP1 SWAP2 POP SSTORE DUP3 PUSH1 0x0 ADD DUP1 SLOAD SWAP1 POP DUP4 PUSH1 0x1 ADD PUSH1 0x0 DUP5 DUP2 MSTORE PUSH1 0x20 ADD SWAP1 DUP2 MSTORE PUSH1 0x20 ADD PUSH1 0x0 KECCAK256 DUP2 SWAP1 SSTORE POP PUSH1 0x1 SWAP1 POP PUSH2 0x382B JUMP JUMPDEST PUSH1 0x0 SWAP1 POP JUMPDEST SWAP3 SWAP2 POP POP JUMP JUMPDEST PUSH1 0x60 PUSH2 0x3840 DUP5 DUP5 PUSH1 0x0 DUP6 PUSH2 0x3849 JUMP JUMPDEST SWAP1 POP SWAP4 SWAP3 POP POP POP JUMP JUMPDEST PUSH1 0x60 DUP3 SELFBALANCE LT ISZERO PUSH2 0x388E JUMPI PUSH1 0x40 MLOAD PUSH32 0x8C379A000000000000000000000000000000000000000000000000000000000 DUP2 MSTORE PUSH1 0x4 ADD PUSH2 0x3885 SWAP1 PUSH2 0x4274 JUMP JUMPDEST PUSH1 0x40 MLOAD DUP1 SWAP2 SUB SWAP1 REVERT JUMPDEST PUSH2 0x3897 DUP6 PUSH2 0x395D JUMP JUMPDEST PUSH2 0x38D6 JUMPI PUSH1 0x40 MLOAD PUSH32 0x8C379A000000000000000000000000000000000000000000000000000000000 DUP2 MSTORE PUSH1 0x4 ADD PUSH2 0x38CD SWAP1 PUSH2 0x4314 JUMP JUMPDEST PUSH1 0x40 MLOAD DUP1 SWAP2 SUB SWAP1 REVERT JUMPDEST PUSH1 0x0 DUP1 DUP7 PUSH20 0xFFFFFFFFFFFFFFFFFFFFFFFFFFFFFFFFFFFFFFFF AND DUP6 DUP8 PUSH1 0x40 MLOAD PUSH2 0x38FF SWAP2 SWAP1 PUSH2 0x40DA JUMP JUMPDEST PUSH1 0x0 PUSH1 0x40 MLOAD DUP1 DUP4 SUB DUP2 DUP6 DUP8 GAS CALL SWAP3 POP POP POP RETURNDATASIZE DUP1 PUSH1 0x0 DUP2 EQ PUSH2 0x393C JUMPI PUSH1 0x40 MLOAD SWAP2 POP PUSH1 0x1F NOT PUSH1 0x3F RETURNDATASIZE ADD AND DUP3 ADD PUSH1 0x40 MSTORE RETURNDATASIZE DUP3 MSTORE RETURNDATASIZE PUSH1 0x0 PUSH1 0x20 DUP5 ADD RETURNDATACOPY PUSH2 0x3941 JUMP JUMPDEST PUSH1 0x60 SWAP2 POP JUMPDEST POP SWAP2 POP SWAP2 POP PUSH2 0x3951 DUP3 DUP3 DUP7 PUSH2 0x3970 JUMP JUMPDEST SWAP3 POP POP POP SWAP5 SWAP4 POP POP POP POP JUMP JUMPDEST PUSH1 0x0 DUP1 DUP3 EXTCODESIZE SWAP1 POP PUSH1 0x0 DUP2 GT SWAP2 POP POP SWAP2 SWAP1 POP JUMP JUMPDEST PUSH1 0x60 DUP4 ISZERO PUSH2 0x3980 JUMPI DUP3 SWAP1 POP PUSH2 0x39D0 JUMP JUMPDEST PUSH1 0x0 DUP4 MLOAD GT ISZERO PUSH2 0x3993 JUMPI DUP3 MLOAD DUP1 DUP5 PUSH1 0x20 ADD REVERT JUMPDEST DUP2 PUSH1 0x40 MLOAD PUSH32 0x8C379A000000000000000000000000000000000000000000000000000000000 DUP2 MSTORE PUSH1 0x4 ADD PUSH2 0x39C7 SWAP2 SWAP1 PUSH2 0x41D2 JUMP JUMPDEST PUSH1 0x40 MLOAD DUP1 SWAP2 SUB SWAP1 REVERT JUMPDEST SWAP4 SWAP3 POP POP POP JUMP JUMPDEST PUSH1 0x0 PUSH2 0x39EA PUSH2 0x39E5 DUP5 PUSH2 0x4490 JUMP JUMPDEST PUSH2 0x446B JUMP JUMPDEST SWAP1 POP DUP1 DUP4 DUP3 MSTORE PUSH1 0x20 DUP3 ADD SWAP1 POP DUP3 DUP6 PUSH1 0x20 DUP7 MUL DUP3 ADD GT ISZERO PUSH2 0x3A09 JUMPI PUSH1 0x0 DUP1 REVERT JUMPDEST PUSH1 0x0 JUMPDEST DUP6 DUP2 LT ISZERO PUSH2 0x3A39 JUMPI DUP2 PUSH2 0x3A1F DUP9 DUP3 PUSH2 0x3AF6 JUMP JUMPDEST DUP5 MSTORE PUSH1 0x20 DUP5 ADD SWAP4 POP PUSH1 0x20 DUP4 ADD SWAP3 POP POP PUSH1 0x1 DUP2 ADD SWAP1 POP PUSH2 0x3A0C JUMP JUMPDEST POP POP POP SWAP4 SWAP3 POP POP POP JUMP JUMPDEST PUSH1 0x0 DUP2 CALLDATALOAD SWAP1 POP PUSH2 0x3A52 DUP2 PUSH2 0x4B50 JUMP JUMPDEST SWAP3 SWAP2 POP POP JUMP JUMPDEST PUSH1 0x0 DUP1 DUP4 PUSH1 0x1F DUP5 ADD SLT PUSH2 0x3A6A JUMPI PUSH1 0x0 DUP1 REVERT JUMPDEST DUP3 CALLDATALOAD SWAP1 POP PUSH8 0xFFFFFFFFFFFFFFFF DUP2 GT ISZERO PUSH2 0x3A83 JUMPI PUSH1 0x0 DUP1 REVERT JUMPDEST PUSH1 0x20 DUP4 ADD SWAP2 POP DUP4 PUSH1 0x20 DUP3 MUL DUP4 ADD GT ISZERO PUSH2 0x3A9B JUMPI PUSH1 0x0 DUP1 REVERT JUMPDEST SWAP3 POP SWAP3 SWAP1 POP JUMP JUMPDEST PUSH1 0x0 DUP3 PUSH1 0x1F DUP4 ADD SLT PUSH2 0x3AB3 JUMPI PUSH1 0x0 DUP1 REVERT JUMPDEST DUP2 MLOAD PUSH2 0x3AC3 DUP5 DUP3 PUSH1 0x20 DUP7 ADD PUSH2 0x39D7 JUMP JUMPDEST SWAP2 POP POP SWAP3 SWAP2 POP POP JUMP JUMPDEST PUSH1 0x0 DUP2 MLOAD SWAP1 POP PUSH2 0x3ADB DUP2 PUSH2 0x4B67 JUMP JUMPDEST SWAP3 SWAP2 POP POP JUMP JUMPDEST PUSH1 0x0 DUP2 CALLDATALOAD SWAP1 POP PUSH2 0x3AF0 DUP2 PUSH2 0x4B7E JUMP JUMPDEST SWAP3 SWAP2 POP POP JUMP JUMPDEST PUSH1 0x0 DUP2 MLOAD SWAP1 POP PUSH2 0x3B05 DUP2 PUSH2 0x4B7E JUMP JUMPDEST SWAP3 SWAP2 POP POP JUMP JUMPDEST PUSH1 0x0 PUSH1 0x20 DUP3 DUP5 SUB SLT ISZERO PUSH2 0x3B1D JUMPI PUSH1 0x0 DUP1 REVERT JUMPDEST PUSH1 0x0 PUSH2 0x3B2B DUP5 DUP3 DUP6 ADD PUSH2 0x3A43 JUMP JUMPDEST SWAP2 POP POP SWAP3 SWAP2 POP POP JUMP JUMPDEST PUSH1 0x0 DUP1 PUSH1 0x40 DUP4 DUP6 SUB SLT ISZERO PUSH2 0x3B47 JUMPI PUSH1 0x0 DUP1 REVERT JUMPDEST PUSH1 0x0 PUSH2 0x3B55 DUP6 DUP3 DUP7 ADD PUSH2 0x3A43 JUMP JUMPDEST SWAP3 POP POP PUSH1 0x20 PUSH2 0x3B66 DUP6 DUP3 DUP7 ADD PUSH2 0x3AE1 JUMP JUMPDEST SWAP2 POP POP SWAP3 POP SWAP3 SWAP1 POP JUMP JUMPDEST PUSH1 0x0 PUSH1 0x20 DUP3 DUP5 SUB SLT ISZERO PUSH2 0x3B82 JUMPI PUSH1 0x0 DUP1 REVERT JUMPDEST PUSH1 0x0 DUP3 ADD MLOAD PUSH8 0xFFFFFFFFFFFFFFFF DUP2 GT ISZERO PUSH2 0x3B9C JUMPI PUSH1 0x0 DUP1 REVERT JUMPDEST PUSH2 0x3BA8 DUP5 DUP3 DUP6 ADD PUSH2 0x3AA2 JUMP JUMPDEST SWAP2 POP POP SWAP3 SWAP2 POP POP JUMP JUMPDEST PUSH1 0x0 PUSH1 0x20 DUP3 DUP5 SUB SLT ISZERO PUSH2 0x3BC3 JUMPI PUSH1 0x0 DUP1 REVERT JUMPDEST PUSH1 0x0 PUSH2 0x3BD1 DUP5 DUP3 DUP6 ADD PUSH2 0x3ACC JUMP JUMPDEST SWAP2 POP POP SWAP3 SWAP2 POP POP JUMP JUMPDEST PUSH1 0x0 PUSH1 0x20 DUP3 DUP5 SUB SLT ISZERO PUSH2 0x3BEC JUMPI PUSH1 0x0 DUP1 REVERT JUMPDEST PUSH1 0x0 PUSH2 0x3BFA DUP5 DUP3 DUP6 ADD PUSH2 0x3AE1 JUMP JUMPDEST SWAP2 POP POP SWAP3 SWAP2 POP POP JUMP JUMPDEST PUSH1 0x0 PUSH1 0x20 DUP3 DUP5 SUB SLT ISZERO PUSH2 0x3C15 JUMPI PUSH1 0x0 DUP1 REVERT JUMPDEST PUSH1 0x0 PUSH2 0x3C23 DUP5 DUP3 DUP6 ADD PUSH2 0x3AF6 JUMP JUMPDEST SWAP2 POP POP SWAP3 SWAP2 POP POP JUMP JUMPDEST PUSH1 0x0 DUP1 PUSH1 0x0 PUSH1 0x40 DUP5 DUP7 SUB SLT ISZERO PUSH2 0x3C41 JUMPI PUSH1 0x0 DUP1 REVERT JUMPDEST PUSH1 0x0 PUSH2 0x3C4F DUP7 DUP3 DUP8 ADD PUSH2 0x3AE1 JUMP JUMPDEST SWAP4 POP POP PUSH1 0x20 DUP5 ADD CALLDATALOAD PUSH8 0xFFFFFFFFFFFFFFFF DUP2 GT ISZERO PUSH2 0x3C6C JUMPI PUSH1 0x0 DUP1 REVERT JUMPDEST PUSH2 0x3C78 DUP7 DUP3 DUP8 ADD PUSH2 0x3A58 JUMP JUMPDEST SWAP3 POP SWAP3 POP POP SWAP3 POP SWAP3 POP SWAP3 JUMP JUMPDEST PUSH1 0x0 DUP1 PUSH1 0x0 DUP1 PUSH1 0x0 PUSH1 0x80 DUP7 DUP9 SUB SLT ISZERO PUSH2 0x3C9C JUMPI PUSH1 0x0 DUP1 REVERT JUMPDEST PUSH1 0x0 PUSH2 0x3CAA DUP9 DUP3 DUP10 ADD PUSH2 0x3AE1 JUMP JUMPDEST SWAP6 POP POP PUSH1 0x20 DUP7 ADD CALLDATALOAD PUSH8 0xFFFFFFFFFFFFFFFF DUP2 GT ISZERO PUSH2 0x3CC7 JUMPI PUSH1 0x0 DUP1 REVERT JUMPDEST PUSH2 0x3CD3 DUP9 DUP3 DUP10 ADD PUSH2 0x3A58 JUMP JUMPDEST SWAP5 POP SWAP5 POP POP PUSH1 0x40 PUSH2 0x3CE6 DUP9 DUP3 DUP10 ADD PUSH2 0x3A43 JUMP JUMPDEST SWAP3 POP POP PUSH1 0x60 PUSH2 0x3CF7 DUP9 DUP3 DUP10 ADD PUSH2 0x3AE1 JUMP JUMPDEST SWAP2 POP POP SWAP3 SWAP6 POP SWAP3 SWAP6 SWAP1 SWAP4 POP JUMP JUMPDEST PUSH1 0x0 DUP1 PUSH1 0x0 DUP1 PUSH1 0x0 DUP1 PUSH1 0xA0 DUP8 DUP10 SUB SLT ISZERO PUSH2 0x3D1D JUMPI PUSH1 0x0 DUP1 REVERT JUMPDEST PUSH1 0x0 PUSH2 0x3D2B DUP10 DUP3 DUP11 ADD PUSH2 0x3AE1 JUMP JUMPDEST SWAP7 POP POP PUSH1 0x20 PUSH2 0x3D3C DUP10 DUP3 DUP11 ADD PUSH2 0x3AE1 JUMP JUMPDEST SWAP6 POP POP PUSH1 0x40 DUP8 ADD CALLDATALOAD PUSH8 0xFFFFFFFFFFFFFFFF DUP2 GT ISZERO PUSH2 0x3D59 JUMPI PUSH1 0x0 DUP1 REVERT JUMPDEST PUSH2 0x3D65 DUP10 DUP3 DUP11 ADD PUSH2 0x3A58 JUMP JUMPDEST SWAP5 POP SWAP5 POP POP PUSH1 0x60 PUSH2 0x3D78 DUP10 DUP3 DUP11 ADD PUSH2 0x3A43 JUMP JUMPDEST SWAP3 POP POP PUSH1 0x80 PUSH2 0x3D89 DUP10 DUP3 DUP11 ADD PUSH2 0x3AE1 JUMP JUMPDEST SWAP2 POP POP SWAP3 SWAP6 POP SWAP3 SWAP6 POP SWAP3 SWAP6 JUMP JUMPDEST PUSH1 0x0 PUSH2 0x3DA2 DUP4 DUP4 PUSH2 0x3DC6 JUMP JUMPDEST PUSH1 0x20 DUP4 ADD SWAP1 POP SWAP3 SWAP2 POP POP JUMP JUMPDEST PUSH1 0x0 PUSH2 0x3DBA DUP4 DUP4 PUSH2 0x40BC JUMP JUMPDEST PUSH1 0x20 DUP4 ADD SWAP1 POP SWAP3 SWAP2 POP POP JUMP JUMPDEST PUSH2 0x3DCF DUP2 PUSH2 0x467B JUMP JUMPDEST DUP3 MSTORE POP POP JUMP JUMPDEST PUSH2 0x3DDE DUP2 PUSH2 0x467B JUMP JUMPDEST DUP3 MSTORE POP POP JUMP JUMPDEST PUSH1 0x0 PUSH2 0x3DF0 DUP4 DUP6 PUSH2 0x4511 JUMP JUMPDEST SWAP4 POP PUSH2 0x3DFB DUP3 PUSH2 0x44BC JUMP JUMPDEST DUP1 PUSH1 0x0 JUMPDEST DUP6 DUP2 LT ISZERO PUSH2 0x3E34 JUMPI PUSH2 0x3E11 DUP3 DUP5 PUSH2 0x454F JUMP JUMPDEST PUSH2 0x3E1B DUP9 DUP3 PUSH2 0x3D96 JUMP JUMPDEST SWAP8 POP PUSH2 0x3E26 DUP4 PUSH2 0x44F7 JUMP JUMPDEST SWAP3 POP POP PUSH1 0x1 DUP2 ADD SWAP1 POP PUSH2 0x3DFF JUMP JUMPDEST POP DUP6 SWAP3 POP POP POP SWAP4 SWAP3 POP POP POP JUMP JUMPDEST PUSH1 0x0 PUSH2 0x3E4C DUP3 PUSH2 0x44D6 JUMP JUMPDEST PUSH2 0x3E56 DUP2 DUP6 PUSH2 0x4522 JUMP JUMPDEST SWAP4 POP PUSH2 0x3E61 DUP4 PUSH2 0x44C6 JUMP JUMPDEST DUP1 PUSH1 0x0 JUMPDEST DUP4 DUP2 LT ISZERO PUSH2 0x3E92 JUMPI DUP2 MLOAD PUSH2 0x3E79 DUP9 DUP3 PUSH2 0x3DAE JUMP JUMPDEST SWAP8 POP PUSH2 0x3E84 DUP4 PUSH2 0x4504 JUMP JUMPDEST SWAP3 POP POP PUSH1 0x1 DUP2 ADD SWAP1 POP PUSH2 0x3E65 JUMP JUMPDEST POP DUP6 SWAP4 POP POP POP POP SWAP3 SWAP2 POP POP JUMP JUMPDEST PUSH2 0x3EA8 DUP2 PUSH2 0x468D JUMP JUMPDEST DUP3 MSTORE POP POP JUMP JUMPDEST PUSH1 0x0 PUSH2 0x3EB9 DUP3 PUSH2 0x44E1 JUMP JUMPDEST PUSH2 0x3EC3 DUP2 DUP6 PUSH2 0x4533 JUMP JUMPDEST SWAP4 POP PUSH2 0x3ED3 DUP2 DUP6 PUSH1 0x20 DUP7 ADD PUSH2 0x46C3 JUMP JUMPDEST DUP1 DUP5 ADD SWAP2 POP POP SWAP3 SWAP2 POP POP JUMP JUMPDEST PUSH1 0x0 PUSH2 0x3EEA DUP3 PUSH2 0x44EC JUMP JUMPDEST PUSH2 0x3EF4 DUP2 DUP6 PUSH2 0x453E JUMP JUMPDEST SWAP4 POP PUSH2 0x3F04 DUP2 DUP6 PUSH1 0x20 DUP7 ADD PUSH2 0x46C3 JUMP JUMPDEST PUSH2 0x3F0D DUP2 PUSH2 0x47FD JUMP JUMPDEST DUP5 ADD SWAP2 POP POP SWAP3 SWAP2 POP POP JUMP JUMPDEST PUSH1 0x0 PUSH2 0x3F25 PUSH1 0x2C DUP4 PUSH2 0x453E JUMP JUMPDEST SWAP2 POP PUSH2 0x3F30 DUP3 PUSH2 0x480E JUMP JUMPDEST PUSH1 0x40 DUP3 ADD SWAP1 POP SWAP2 SWAP1 POP JUMP JUMPDEST PUSH1 0x0 PUSH2 0x3F48 PUSH1 0x25 DUP4 PUSH2 0x453E JUMP JUMPDEST SWAP2 POP PUSH2 0x3F53 DUP3 PUSH2 0x485D JUMP JUMPDEST PUSH1 0x40 DUP3 ADD SWAP1 POP SWAP2 SWAP1 POP JUMP JUMPDEST PUSH1 0x0 PUSH2 0x3F6B PUSH1 0x26 DUP4 PUSH2 0x453E JUMP JUMPDEST SWAP2 POP PUSH2 0x3F76 DUP3 PUSH2 0x48AC JUMP JUMPDEST PUSH1 0x40 DUP3 ADD SWAP1 POP SWAP2 SWAP1 POP JUMP JUMPDEST PUSH1 0x0 PUSH2 0x3F8E PUSH1 0x28 DUP4 PUSH2 0x453E JUMP JUMPDEST SWAP2 POP PUSH2 0x3F99 DUP3 PUSH2 0x48FB JUMP JUMPDEST PUSH1 0x40 DUP3 ADD SWAP1 POP SWAP2 SWAP1 POP JUMP JUMPDEST PUSH1 0x0 PUSH2 0x3FB1 PUSH1 0x26 DUP4 PUSH2 0x453E JUMP JUMPDEST SWAP2 POP PUSH2 0x3FBC DUP3 PUSH2 0x494A JUMP JUMPDEST PUSH1 0x40 DUP3 ADD SWAP1 POP SWAP2 SWAP1 POP JUMP JUMPDEST PUSH1 0x0 PUSH2 0x3FD4 PUSH1 0x2D DUP4 PUSH2 0x453E JUMP JUMPDEST SWAP2 POP PUSH2 0x3FDF DUP3 PUSH2 0x4999 JUMP JUMPDEST PUSH1 0x40 DUP3 ADD SWAP1 POP SWAP2 SWAP1 POP JUMP JUMPDEST PUSH1 0x0 PUSH2 0x3FF7 PUSH1 0x2A DUP4 PUSH2 0x453E JUMP JUMPDEST SWAP2 POP PUSH2 0x4002 DUP3 PUSH2 0x49E8 JUMP JUMPDEST PUSH1 0x40 DUP3 ADD SWAP1 POP SWAP2 SWAP1 POP JUMP JUMPDEST PUSH1 0x0 PUSH2 0x401A PUSH1 0x20 DUP4 PUSH2 0x453E JUMP JUMPDEST SWAP2 POP PUSH2 0x4025 DUP3 PUSH2 0x4A37 JUMP JUMPDEST PUSH1 0x20 DUP3 ADD SWAP1 POP SWAP2 SWAP1 POP JUMP JUMPDEST PUSH1 0x0 PUSH2 0x403D PUSH1 0x1C DUP4 PUSH2 0x453E JUMP JUMPDEST SWAP2 POP PUSH2 0x4048 DUP3 PUSH2 0x4A60 JUMP JUMPDEST PUSH1 0x20 DUP3 ADD SWAP1 POP SWAP2 SWAP1 POP JUMP JUMPDEST PUSH1 0x0 PUSH2 0x4060 PUSH1 0x1D DUP4 PUSH2 0x453E JUMP JUMPDEST SWAP2 POP PUSH2 0x406B DUP3 PUSH2 0x4A89 JUMP JUMPDEST PUSH1 0x20 DUP3 ADD SWAP1 POP SWAP2 SWAP1 POP JUMP JUMPDEST PUSH1 0x0 PUSH2 0x4083 PUSH1 0x2A DUP4 PUSH2 0x453E JUMP JUMPDEST SWAP2 POP PUSH2 0x408E DUP3 PUSH2 0x4AB2 JUMP JUMPDEST PUSH1 0x40 DUP3 ADD SWAP1 POP SWAP2 SWAP1 POP JUMP JUMPDEST PUSH1 0x0 PUSH2 0x40A6 PUSH1 0x36 DUP4 PUSH2 0x453E JUMP JUMPDEST SWAP2 POP PUSH2 0x40B1 DUP3 PUSH2 0x4B01 JUMP JUMPDEST PUSH1 0x40 DUP3 ADD SWAP1 POP SWAP2 SWAP1 POP JUMP JUMPDEST PUSH2 0x40C5 DUP2 PUSH2 0x46B9 JUMP JUMPDEST DUP3 MSTORE POP POP JUMP JUMPDEST PUSH2 0x40D4 DUP2 PUSH2 0x46B9 JUMP JUMPDEST DUP3 MSTORE POP POP JUMP JUMPDEST PUSH1 0x0 PUSH2 0x40E6 DUP3 DUP5 PUSH2 0x3EAE JUMP JUMPDEST SWAP2 POP DUP2 SWAP1 POP SWAP3 SWAP2 POP POP JUMP JUMPDEST PUSH1 0x0 PUSH1 0x20 DUP3 ADD SWAP1 POP PUSH2 0x4106 PUSH1 0x0 DUP4 ADD DUP5 PUSH2 0x3DD5 JUMP JUMPDEST SWAP3 SWAP2 POP POP JUMP JUMPDEST PUSH1 0x0 PUSH1 0x40 DUP3 ADD SWAP1 POP PUSH2 0x4121 PUSH1 0x0 DUP4 ADD DUP6 PUSH2 0x3DD5 JUMP JUMPDEST PUSH2 0x412E PUSH1 0x20 DUP4 ADD DUP5 PUSH2 0x3DD5 JUMP JUMPDEST SWAP4 SWAP3 POP POP POP JUMP JUMPDEST PUSH1 0x0 PUSH1 0x60 DUP3 ADD SWAP1 POP PUSH2 0x414A PUSH1 0x0 DUP4 ADD DUP7 PUSH2 0x3DD5 JUMP JUMPDEST PUSH2 0x4157 PUSH1 0x20 DUP4 ADD DUP6 PUSH2 0x3DD5 JUMP JUMPDEST PUSH2 0x4164 PUSH1 0x40 DUP4 ADD DUP5 PUSH2 0x40CB JUMP JUMPDEST SWAP5 SWAP4 POP POP POP POP JUMP JUMPDEST PUSH1 0x0 PUSH1 0x40 DUP3 ADD SWAP1 POP PUSH2 0x4181 PUSH1 0x0 DUP4 ADD DUP6 PUSH2 0x3DD5 JUMP JUMPDEST PUSH2 0x418E PUSH1 0x20 DUP4 ADD DUP5 PUSH2 0x40CB JUMP JUMPDEST SWAP4 SWAP3 POP POP POP JUMP JUMPDEST PUSH1 0x0 PUSH1 0x20 DUP3 ADD SWAP1 POP DUP2 DUP2 SUB PUSH1 0x0 DUP4 ADD MSTORE PUSH2 0x41AF DUP2 DUP5 PUSH2 0x3E41 JUMP JUMPDEST SWAP1 POP SWAP3 SWAP2 POP POP JUMP JUMPDEST PUSH1 0x0 PUSH1 0x20 DUP3 ADD SWAP1 POP PUSH2 0x41CC PUSH1 0x0 DUP4 ADD DUP5 PUSH2 0x3E9F JUMP JUMPDEST SWAP3 SWAP2 POP POP JUMP JUMPDEST PUSH1 0x0 PUSH1 0x20 DUP3 ADD SWAP1 POP DUP2 DUP2 SUB PUSH1 0x0 DUP4 ADD MSTORE PUSH2 0x41EC DUP2 DUP5 PUSH2 0x3EDF JUMP JUMPDEST SWAP1 POP SWAP3 SWAP2 POP POP JUMP JUMPDEST PUSH1 0x0 PUSH1 0x20 DUP3 ADD SWAP1 POP DUP2 DUP2 SUB PUSH1 0x0 DUP4 ADD MSTORE PUSH2 0x420D DUP2 PUSH2 0x3F18 JUMP JUMPDEST SWAP1 POP SWAP2 SWAP1 POP JUMP JUMPDEST PUSH1 0x0 PUSH1 0x20 DUP3 ADD SWAP1 POP DUP2 DUP2 SUB PUSH1 0x0 DUP4 ADD MSTORE PUSH2 0x422D DUP2 PUSH2 0x3F3B JUMP JUMPDEST SWAP1 POP SWAP2 SWAP1 POP JUMP JUMPDEST PUSH1 0x0 PUSH1 0x20 DUP3 ADD SWAP1 POP DUP2 DUP2 SUB PUSH1 0x0 DUP4 ADD MSTORE PUSH2 0x424D DUP2 PUSH2 0x3F5E JUMP JUMPDEST SWAP1 POP SWAP2 SWAP1 POP JUMP JUMPDEST PUSH1 0x0 PUSH1 0x20 DUP3 ADD SWAP1 POP DUP2 DUP2 SUB PUSH1 0x0 DUP4 ADD MSTORE PUSH2 0x426D DUP2 PUSH2 0x3F81 JUMP JUMPDEST SWAP1 POP SWAP2 SWAP1 POP JUMP JUMPDEST PUSH1 0x0 PUSH1 0x20 DUP3 ADD SWAP1 POP DUP2 DUP2 SUB PUSH1 0x0 DUP4 ADD MSTORE PUSH2 0x428D DUP2 PUSH2 0x3FA4 JUMP JUMPDEST SWAP1 POP SWAP2 SWAP1 POP JUMP JUMPDEST PUSH1 0x0 PUSH1 0x20 DUP3 ADD SWAP1 POP DUP2 DUP2 SUB PUSH1 0x0 DUP4 ADD MSTORE PUSH2 0x42AD DUP2 PUSH2 0x3FC7 JUMP JUMPDEST SWAP1 POP SWAP2 SWAP1 POP JUMP JUMPDEST PUSH1 0x0 PUSH1 0x20 DUP3 ADD SWAP1 POP DUP2 DUP2 SUB PUSH1 0x0 DUP4 ADD MSTORE PUSH2 0x42CD DUP2 PUSH2 0x3FEA JUMP JUMPDEST SWAP1 POP SWAP2 SWAP1 POP JUMP JUMPDEST PUSH1 0x0 PUSH1 0x20 DUP3 ADD SWAP1 POP DUP2 DUP2 SUB PUSH1 0x0 DUP4 ADD MSTORE PUSH2 0x42ED DUP2 PUSH2 0x400D JUMP JUMPDEST SWAP1 POP SWAP2 SWAP1 POP JUMP JUMPDEST PUSH1 0x0 PUSH1 0x20 DUP3 ADD SWAP1 POP DUP2 DUP2 SUB PUSH1 0x0 DUP4 ADD MSTORE PUSH2 0x430D DUP2 PUSH2 0x4030 JUMP JUMPDEST SWAP1 POP SWAP2 SWAP1 POP JUMP JUMPDEST PUSH1 0x0 PUSH1 0x20 DUP3 ADD SWAP1 POP DUP2 DUP2 SUB PUSH1 0x0 DUP4 ADD MSTORE PUSH2 0x432D DUP2 PUSH2 0x4053 JUMP JUMPDEST SWAP1 POP SWAP2 SWAP1 POP JUMP JUMPDEST PUSH1 0x0 PUSH1 0x20 DUP3 ADD SWAP1 POP DUP2 DUP2 SUB PUSH1 0x0 DUP4 ADD MSTORE PUSH2 0x434D DUP2 PUSH2 0x4076 JUMP JUMPDEST SWAP1 POP SWAP2 SWAP1 POP JUMP JUMPDEST PUSH1 0x0 PUSH1 0x20 DUP3 ADD SWAP1 POP DUP2 DUP2 SUB PUSH1 0x0 DUP4 ADD MSTORE PUSH2 0x436D DUP2 PUSH2 0x4099 JUMP JUMPDEST SWAP1 POP SWAP2 SWAP1 POP JUMP JUMPDEST PUSH1 0x0 PUSH1 0x20 DUP3 ADD SWAP1 POP PUSH2 0x4389 PUSH1 0x0 DUP4 ADD DUP5 PUSH2 0x40CB JUMP JUMPDEST SWAP3 SWAP2 POP POP JUMP JUMPDEST PUSH1 0x0 PUSH1 0x40 DUP3 ADD SWAP1 POP PUSH2 0x43A4 PUSH1 0x0 DUP4 ADD DUP7 PUSH2 0x40CB JUMP JUMPDEST DUP2 DUP2 SUB PUSH1 0x20 DUP4 ADD MSTORE PUSH2 0x43B7 DUP2 DUP5 DUP7 PUSH2 0x3DE4 JUMP JUMPDEST SWAP1 POP SWAP5 SWAP4 POP POP POP POP JUMP JUMPDEST PUSH1 0x0 PUSH1 0x80 DUP3 ADD SWAP1 POP PUSH2 0x43D6 PUSH1 0x0 DUP4 ADD DUP9 PUSH2 0x40CB JUMP JUMPDEST DUP2 DUP2 SUB PUSH1 0x20 DUP4 ADD MSTORE PUSH2 0x43E9 DUP2 DUP7 DUP9 PUSH2 0x3DE4 JUMP JUMPDEST SWAP1 POP PUSH2 0x43F8 PUSH1 0x40 DUP4 ADD DUP6 PUSH2 0x3DD5 JUMP JUMPDEST PUSH2 0x4405 PUSH1 0x60 DUP4 ADD DUP5 PUSH2 0x40CB JUMP JUMPDEST SWAP7 SWAP6 POP POP POP POP POP POP JUMP JUMPDEST PUSH1 0x0 PUSH1 0xA0 DUP3 ADD SWAP1 POP PUSH2 0x4424 PUSH1 0x0 DUP4 ADD DUP10 PUSH2 0x40CB JUMP JUMPDEST PUSH2 0x4431 PUSH1 0x20 DUP4 ADD DUP9 PUSH2 0x40CB JUMP JUMPDEST DUP2 DUP2 SUB PUSH1 0x40 DUP4 ADD MSTORE PUSH2 0x4444 DUP2 DUP7 DUP9 PUSH2 0x3DE4 JUMP JUMPDEST SWAP1 POP PUSH2 0x4453 PUSH1 0x60 DUP4 ADD DUP6 PUSH2 0x3DD5 JUMP JUMPDEST PUSH2 0x4460 PUSH1 0x80 DUP4 ADD DUP5 PUSH2 0x40CB JUMP JUMPDEST SWAP8 SWAP7 POP POP POP POP POP POP POP JUMP JUMPDEST PUSH1 0x0 PUSH2 0x4475 PUSH2 0x4486 JUMP JUMPDEST SWAP1 POP PUSH2 0x4481 DUP3 DUP3 PUSH2 0x46F6 JUMP JUMPDEST SWAP2 SWAP1 POP JUMP JUMPDEST PUSH1 0x0 PUSH1 0x40 MLOAD SWAP1 POP SWAP1 JUMP JUMPDEST PUSH1 0x0 PUSH8 0xFFFFFFFFFFFFFFFF DUP3 GT ISZERO PUSH2 0x44AB JUMPI PUSH2 0x44AA PUSH2 0x47CE JUMP JUMPDEST JUMPDEST PUSH1 0x20 DUP3 MUL SWAP1 POP PUSH1 0x20 DUP2 ADD SWAP1 POP SWAP2 SWAP1 POP JUMP JUMPDEST PUSH1 0x0 DUP2 SWAP1 POP SWAP2 SWAP1 POP JUMP JUMPDEST PUSH1 0x0 DUP2 SWAP1 POP PUSH1 0x20 DUP3 ADD SWAP1 POP SWAP2 SWAP1 POP JUMP JUMPDEST PUSH1 0x0 DUP2 MLOAD SWAP1 POP SWAP2 SWAP1 POP JUMP JUMPDEST PUSH1 0x0 DUP2 MLOAD SWAP1 POP SWAP2 SWAP1 POP JUMP JUMPDEST PUSH1 0x0 DUP2 MLOAD SWAP1 POP SWAP2 SWAP1 POP JUMP JUMPDEST PUSH1 0x0 PUSH1 0x20 DUP3 ADD SWAP1 POP SWAP2 SWAP1 POP JUMP JUMPDEST PUSH1 0x0 PUSH1 0x20 DUP3 ADD SWAP1 POP SWAP2 SWAP1 POP JUMP JUMPDEST PUSH1 0x0 DUP3 DUP3 MSTORE PUSH1 0x20 DUP3 ADD SWAP1 POP SWAP3 SWAP2 POP POP JUMP JUMPDEST PUSH1 0x0 DUP3 DUP3 MSTORE PUSH1 0x20 DUP3 ADD SWAP1 POP SWAP3 SWAP2 POP POP JUMP JUMPDEST PUSH1 0x0 DUP2 SWAP1 POP SWAP3 SWAP2 POP POP JUMP JUMPDEST PUSH1 0x0 DUP3 DUP3 MSTORE PUSH1 0x20 DUP3 ADD SWAP1 POP SWAP3 SWAP2 POP POP JUMP JUMPDEST PUSH1 0x0 PUSH2 0x455E PUSH1 0x20 DUP5 ADD DUP5 PUSH2 0x3A43 JUMP JUMPDEST SWAP1 POP SWAP3 SWAP2 POP POP JUMP JUMPDEST PUSH1 0x0 PUSH2 0x4571 DUP3 PUSH2 0x46B9 JUMP JUMPDEST SWAP2 POP PUSH2 0x457C DUP4 PUSH2 0x46B9 JUMP JUMPDEST SWAP3 POP DUP3 PUSH32 0xFFFFFFFFFFFFFFFFFFFFFFFFFFFFFFFFFFFFFFFFFFFFFFFFFFFFFFFFFFFFFFFF SUB DUP3 GT ISZERO PUSH2 0x45B1 JUMPI PUSH2 0x45B0 PUSH2 0x4770 JUMP JUMPDEST JUMPDEST DUP3 DUP3 ADD SWAP1 POP SWAP3 SWAP2 POP POP JUMP JUMPDEST PUSH1 0x0 PUSH2 0x45C7 DUP3 PUSH2 0x46B9 JUMP JUMPDEST SWAP2 POP PUSH2 0x45D2 DUP4 PUSH2 0x46B9 JUMP JUMPDEST SWAP3 POP DUP3 PUSH2 0x45E2 JUMPI PUSH2 0x45E1 PUSH2 0x479F JUMP JUMPDEST JUMPDEST DUP3 DUP3 DIV SWAP1 POP SWAP3 SWAP2 POP POP JUMP JUMPDEST PUSH1 0x0 PUSH2 0x45F8 DUP3 PUSH2 0x46B9 JUMP JUMPDEST SWAP2 POP PUSH2 0x4603 DUP4 PUSH2 0x46B9 JUMP JUMPDEST SWAP3 POP DUP2 PUSH32 0xFFFFFFFFFFFFFFFFFFFFFFFFFFFFFFFFFFFFFFFFFFFFFFFFFFFFFFFFFFFFFFFF DIV DUP4 GT DUP3 ISZERO ISZERO AND ISZERO PUSH2 0x463C JUMPI PUSH2 0x463B PUSH2 0x4770 JUMP JUMPDEST JUMPDEST DUP3 DUP3 MUL SWAP1 POP SWAP3 SWAP2 POP POP JUMP JUMPDEST PUSH1 0x0 PUSH2 0x4652 DUP3 PUSH2 0x46B9 JUMP JUMPDEST SWAP2 POP PUSH2 0x465D DUP4 PUSH2 0x46B9 JUMP JUMPDEST SWAP3 POP DUP3 DUP3 LT ISZERO PUSH2 0x4670 JUMPI PUSH2 0x466F PUSH2 0x4770 JUMP JUMPDEST JUMPDEST DUP3 DUP3 SUB SWAP1 POP SWAP3 SWAP2 POP POP JUMP JUMPDEST PUSH1 0x0 PUSH2 0x4686 DUP3 PUSH2 0x4699 JUMP JUMPDEST SWAP1 POP SWAP2 SWAP1 POP JUMP JUMPDEST PUSH1 0x0 DUP2 ISZERO ISZERO SWAP1 POP SWAP2 SWAP1 POP JUMP JUMPDEST PUSH1 0x0 PUSH20 0xFFFFFFFFFFFFFFFFFFFFFFFFFFFFFFFFFFFFFFFF DUP3 AND SWAP1 POP SWAP2 SWAP1 POP JUMP JUMPDEST PUSH1 0x0 DUP2 SWAP1 POP SWAP2 SWAP1 POP JUMP JUMPDEST PUSH1 0x0 JUMPDEST DUP4 DUP2 LT ISZERO PUSH2 0x46E1 JUMPI DUP1 DUP3 ADD MLOAD DUP2 DUP5 ADD MSTORE PUSH1 0x20 DUP2 ADD SWAP1 POP PUSH2 0x46C6 JUMP JUMPDEST DUP4 DUP2 GT ISZERO PUSH2 0x46F0 JUMPI PUSH1 0x0 DUP5 DUP5 ADD MSTORE JUMPDEST POP POP POP POP JUMP JUMPDEST PUSH2 0x46FF DUP3 PUSH2 0x47FD JUMP JUMPDEST DUP2 ADD DUP2 DUP2 LT PUSH8 0xFFFFFFFFFFFFFFFF DUP3 GT OR ISZERO PUSH2 0x471E JUMPI PUSH2 0x471D PUSH2 0x47CE JUMP JUMPDEST JUMPDEST DUP1 PUSH1 0x40 MSTORE POP POP POP JUMP JUMPDEST PUSH1 0x0 PUSH2 0x4732 DUP3 PUSH2 0x46B9 JUMP JUMPDEST SWAP2 POP PUSH32 0xFFFFFFFFFFFFFFFFFFFFFFFFFFFFFFFFFFFFFFFFFFFFFFFFFFFFFFFFFFFFFFFF DUP3 EQ ISZERO PUSH2 0x4765 JUMPI PUSH2 0x4764 PUSH2 0x4770 JUMP JUMPDEST JUMPDEST PUSH1 0x1 DUP3 ADD SWAP1 POP SWAP2 SWAP1 POP JUMP JUMPDEST PUSH32 0x4E487B7100000000000000000000000000000000000000000000000000000000 PUSH1 0x0 MSTORE PUSH1 0x11 PUSH1 0x4 MSTORE PUSH1 0x24 PUSH1 0x0 REVERT JUMPDEST PUSH32 0x4E487B7100000000000000000000000000000000000000000000000000000000 PUSH1 0x0 MSTORE PUSH1 0x12 PUSH1 0x4 MSTORE PUSH1 0x24 PUSH1 0x0 REVERT JUMPDEST PUSH32 0x4E487B7100000000000000000000000000000000000000000000000000000000 PUSH1 0x0 MSTORE PUSH1 0x41 PUSH1 0x4 MSTORE PUSH1 0x24 PUSH1 0x0 REVERT JUMPDEST PUSH1 0x0 PUSH1 0x1F NOT PUSH1 0x1F DUP4 ADD AND SWAP1 POP SWAP2 SWAP1 POP JUMP JUMPDEST PUSH32 0x5B636C61696D416C6C526577617264735D20556E7375636365737366756C2073 PUSH1 0x0 DUP3 ADD MSTORE PUSH32 0x6574206F7065726174696F6E0000000000000000000000000000000000000000 PUSH1 0x20 DUP3 ADD MSTORE POP JUMP JUMPDEST PUSH32 0x5B737761704578616374455448466F72546F6B656E735D20496E76616C696420 PUSH1 0x0 DUP3 ADD MSTORE PUSH32 0x7061746821000000000000000000000000000000000000000000000000000000 PUSH1 0x20 DUP3 ADD MSTORE POP JUMP JUMPDEST PUSH32 0x4F776E61626C653A206E6577206F776E657220697320746865207A65726F2061 PUSH1 0x0 DUP3 ADD MSTORE PUSH32 0x6464726573730000000000000000000000000000000000000000000000000000 PUSH1 0x20 DUP3 ADD MSTORE POP JUMP JUMPDEST PUSH32 0x5B737761704578616374455448466F72546F6B656E735D204E6F742061206D73 PUSH1 0x0 DUP3 ADD MSTORE PUSH32 0x672E76616C756521000000000000000000000000000000000000000000000000 PUSH1 0x20 DUP3 ADD MSTORE POP JUMP JUMPDEST PUSH32 0x416464726573733A20696E73756666696369656E742062616C616E636520666F PUSH1 0x0 DUP3 ADD MSTORE PUSH32 0x722063616C6C0000000000000000000000000000000000000000000000000000 PUSH1 0x20 DUP3 ADD MSTORE POP JUMP JUMPDEST PUSH32 0x5B73776170455448466F724578616374546F6B656E735D204E6F7420656E6F75 PUSH1 0x0 DUP3 ADD MSTORE PUSH32 0x6768206D73672E76616C75652100000000000000000000000000000000000000 PUSH1 0x20 DUP3 ADD MSTORE POP JUMP JUMPDEST PUSH32 0x5B7769746864726177526577617264546F6B656E735D204E6F7420656E6F7567 PUSH1 0x0 DUP3 ADD MSTORE PUSH32 0x682062616C616E63652100000000000000000000000000000000000000000000 PUSH1 0x20 DUP3 ADD MSTORE POP JUMP JUMPDEST PUSH32 0x4F776E61626C653A2063616C6C6572206973206E6F7420746865206F776E6572 PUSH1 0x0 DUP3 ADD MSTORE POP JUMP JUMPDEST PUSH32 0x5B636C61696D416C6C526577617264735D204E6F207265776172642100000000 PUSH1 0x0 DUP3 ADD MSTORE POP JUMP JUMPDEST PUSH32 0x416464726573733A2063616C6C20746F206E6F6E2D636F6E7472616374000000 PUSH1 0x0 DUP3 ADD MSTORE POP JUMP JUMPDEST PUSH32 0x5361666545524332303A204552433230206F7065726174696F6E20646964206E PUSH1 0x0 DUP3 ADD MSTORE PUSH32 0x6F74207375636365656400000000000000000000000000000000000000000000 PUSH1 0x20 DUP3 ADD MSTORE POP JUMP JUMPDEST PUSH32 0x5361666545524332303A20617070726F76652066726F6D206E6F6E2D7A65726F PUSH1 0x0 DUP3 ADD MSTORE PUSH32 0x20746F206E6F6E2D7A65726F20616C6C6F77616E636500000000000000000000 PUSH1 0x20 DUP3 ADD MSTORE POP JUMP JUMPDEST PUSH2 0x4B59 DUP2 PUSH2 0x467B JUMP JUMPDEST DUP2 EQ PUSH2 0x4B64 JUMPI PUSH1 0x0 DUP1 REVERT JUMPDEST POP JUMP JUMPDEST PUSH2 0x4B70 DUP2 PUSH2 0x468D JUMP JUMPDEST DUP2 EQ PUSH2 0x4B7B JUMPI PUSH1 0x0 DUP1 REVERT JUMPDEST POP JUMP JUMPDEST PUSH2 0x4B87 DUP2 PUSH2 0x46B9 JUMP JUMPDEST DUP2 EQ PUSH2 0x4B92 JUMPI PUSH1 0x0 DUP1 REVERT JUMPDEST POP JUMP INVALID LOG2 PUSH5 0x6970667358 0x22 SLT KECCAK256 SWAP9 0xC3 0xF6 0x2F 0xE2 0xE4 SWAP13 PUSH25 0x746BD776DE4E2936714FF13FB6F44D084BDA2A96239B08E664 PUSH20 0x6F6C634300080200330000000000000000000000 "
        },
        "methodIdentifiers": {
          "calcDay()": "6572ca0c",
          "calculateDailyUserReward(uint256)": "94f55789",
          "calculateUserRewards()": "07a779bc",
          "changeTotalDays(uint256)": "78fb427a",
          "claimAllRewards()": "0b83a727",
          "dailyRewards(uint256)": "b203dc60",
          "dailyVolumes(uint256)": "1f924d86",
          "deployTime()": "7a40624b",
          "depositRewardTokens(uint256)": "16c621e0",
          "getAmountsIn(uint256,address[])": "1f00ca74",
          "getAmountsOut(uint256,address[])": "d06ca61f",
          "isCalculated()": "de2af4b0",
          "lastAddedDay()": "8acc3673",
          "owner()": "8da5cb5b",
          "previousVolumes(uint256)": "ceb7f995",
          "renounceOwnership()": "715018a6",
          "swapETHForExactTokens(uint256,address[],address,uint256)": "fb3bdb41",
          "swapExactETHForTokens(uint256,address[],address,uint256)": "7ff36ab5",
          "swapExactTokensForETH(uint256,uint256,address[],address,uint256)": "18cbafe5",
          "swapTokensForExactETH(uint256,uint256,address[],address,uint256)": "4a25d94a",
          "totalDays()": "078e3649",
          "totalRewardBalance()": "7e2ca288",
          "transferOwnership(address)": "f2fde38b",
          "volumeRecords(address,uint256)": "940ce872",
          "withdrawRewardTokens(uint256)": "cb43b2dd"
        }
      }
    }
  }
}