{
  "_format": "hh-sol-artifact-1",
  "contractName": "TradeFarming",
  "sourceName": "contracts/trade-farming/TradeFarming.sol",
  "abi": [
    {
      "inputs": [
        {
          "internalType": "address",
          "name": "_routerAddress",
          "type": "address"
        },
        {
          "internalType": "address",
          "name": "_tokenAddress",
          "type": "address"
        },
        {
          "internalType": "address",
          "name": "_rewardAddress",
          "type": "address"
        },
        {
          "internalType": "uint256",
          "name": "_previousVolume",
          "type": "uint256"
        },
        {
          "internalType": "uint256",
          "name": "_previousDay",
          "type": "uint256"
        },
        {
          "internalType": "uint256",
          "name": "_totalDays",
          "type": "uint256"
        },
        {
          "internalType": "uint256",
          "name": "_upLimit",
          "type": "uint256"
        },
        {
          "internalType": "uint256",
          "name": "_downLimit",
          "type": "uint256"
        }
      ],
      "stateMutability": "nonpayable",
      "type": "constructor"
    },
    {
      "anonymous": false,
      "inputs": [
        {
          "indexed": true,
          "internalType": "address",
          "name": "previousOwner",
          "type": "address"
        },
        {
          "indexed": true,
          "internalType": "address",
          "name": "newOwner",
          "type": "address"
        }
      ],
      "name": "OwnershipTransferred",
      "type": "event"
    },
    {
      "anonymous": false,
      "inputs": [
        {
          "indexed": false,
          "internalType": "address",
          "name": "_user",
          "type": "address"
        },
        {
          "indexed": false,
          "internalType": "uint256",
          "name": "_amount",
          "type": "uint256"
        }
      ],
      "name": "RewardClaimed",
      "type": "event"
    },
    {
      "inputs": [],
      "name": "calcDay",
      "outputs": [
        {
          "internalType": "uint256",
          "name": "",
          "type": "uint256"
        }
      ],
      "stateMutability": "view",
      "type": "function"
    },
    {
      "inputs": [
        {
          "internalType": "uint256",
          "name": "day",
          "type": "uint256"
        }
      ],
      "name": "calculateDailyUserReward",
      "outputs": [
        {
          "internalType": "uint256",
          "name": "",
          "type": "uint256"
        }
      ],
      "stateMutability": "view",
      "type": "function"
    },
    {
      "inputs": [],
      "name": "calculateUserRewards",
      "outputs": [
        {
          "internalType": "uint256",
          "name": "",
          "type": "uint256"
        }
      ],
      "stateMutability": "view",
      "type": "function"
    },
    {
      "inputs": [
        {
          "internalType": "uint256",
          "name": "newTotalDays",
          "type": "uint256"
        }
      ],
      "name": "changeTotalDays",
      "outputs": [],
      "stateMutability": "nonpayable",
      "type": "function"
    },
    {
      "inputs": [],
      "name": "claimAllRewards",
      "outputs": [],
      "stateMutability": "nonpayable",
      "type": "function"
    },
    {
      "inputs": [
        {
          "internalType": "uint256",
          "name": "",
          "type": "uint256"
        }
      ],
      "name": "dailyRewards",
      "outputs": [
        {
          "internalType": "uint256",
          "name": "",
          "type": "uint256"
        }
      ],
      "stateMutability": "view",
      "type": "function"
    },
    {
      "inputs": [
        {
          "internalType": "uint256",
          "name": "",
          "type": "uint256"
        }
      ],
      "name": "dailyVolumes",
      "outputs": [
        {
          "internalType": "uint256",
          "name": "",
          "type": "uint256"
        }
      ],
      "stateMutability": "view",
      "type": "function"
    },
    {
      "inputs": [],
      "name": "deployTime",
      "outputs": [
        {
          "internalType": "uint256",
          "name": "",
          "type": "uint256"
        }
      ],
      "stateMutability": "view",
      "type": "function"
    },
    {
      "inputs": [
        {
          "internalType": "uint256",
          "name": "amount",
          "type": "uint256"
        }
      ],
      "name": "depositRewardTokens",
      "outputs": [],
      "stateMutability": "nonpayable",
      "type": "function"
    },
    {
      "inputs": [
        {
          "internalType": "uint256",
          "name": "amountOut",
          "type": "uint256"
        },
        {
          "internalType": "address[]",
          "name": "path",
          "type": "address[]"
        }
      ],
      "name": "getAmountsIn",
      "outputs": [
        {
          "internalType": "uint256[]",
          "name": "amounts",
          "type": "uint256[]"
        }
      ],
      "stateMutability": "view",
      "type": "function"
    },
    {
      "inputs": [
        {
          "internalType": "uint256",
          "name": "amountIn",
          "type": "uint256"
        },
        {
          "internalType": "address[]",
          "name": "path",
          "type": "address[]"
        }
      ],
      "name": "getAmountsOut",
      "outputs": [
        {
          "internalType": "uint256[]",
          "name": "amounts",
          "type": "uint256[]"
        }
      ],
      "stateMutability": "view",
      "type": "function"
    },
    {
      "inputs": [],
      "name": "isCalculated",
      "outputs": [
        {
          "internalType": "bool",
          "name": "",
          "type": "bool"
        }
      ],
      "stateMutability": "view",
      "type": "function"
    },
    {
      "inputs": [],
      "name": "lastAddedDay",
      "outputs": [
        {
          "internalType": "uint256",
          "name": "",
          "type": "uint256"
        }
      ],
      "stateMutability": "view",
      "type": "function"
    },
    {
      "inputs": [],
      "name": "owner",
      "outputs": [
        {
          "internalType": "address",
          "name": "",
          "type": "address"
        }
      ],
      "stateMutability": "view",
      "type": "function"
    },
    {
      "inputs": [
        {
          "internalType": "uint256",
          "name": "",
          "type": "uint256"
        }
      ],
      "name": "previousVolumes",
      "outputs": [
        {
          "internalType": "uint256",
          "name": "",
          "type": "uint256"
        }
      ],
      "stateMutability": "view",
      "type": "function"
    },
    {
      "inputs": [],
      "name": "renounceOwnership",
      "outputs": [],
      "stateMutability": "nonpayable",
      "type": "function"
    },
    {
      "inputs": [
        {
          "internalType": "uint256",
          "name": "amountOut",
          "type": "uint256"
        },
        {
          "internalType": "address[]",
          "name": "path",
          "type": "address[]"
        },
        {
          "internalType": "address",
          "name": "to",
          "type": "address"
        },
        {
          "internalType": "uint256",
          "name": "deadline",
          "type": "uint256"
        }
      ],
      "name": "swapETHForExactTokens",
      "outputs": [
        {
          "internalType": "uint256[]",
          "name": "",
          "type": "uint256[]"
        }
      ],
      "stateMutability": "payable",
      "type": "function"
    },
    {
      "inputs": [
        {
          "internalType": "uint256",
          "name": "amountOutMin",
          "type": "uint256"
        },
        {
          "internalType": "address[]",
          "name": "path",
          "type": "address[]"
        },
        {
          "internalType": "address",
          "name": "to",
          "type": "address"
        },
        {
          "internalType": "uint256",
          "name": "deadline",
          "type": "uint256"
        }
      ],
      "name": "swapExactETHForTokens",
      "outputs": [
        {
          "internalType": "uint256[]",
          "name": "out",
          "type": "uint256[]"
        }
      ],
      "stateMutability": "payable",
      "type": "function"
    },
    {
      "inputs": [
        {
          "internalType": "uint256",
          "name": "amountIn",
          "type": "uint256"
        },
        {
          "internalType": "uint256",
          "name": "amountOutMin",
          "type": "uint256"
        },
        {
          "internalType": "address[]",
          "name": "path",
          "type": "address[]"
        },
        {
          "internalType": "address",
          "name": "to",
          "type": "address"
        },
        {
          "internalType": "uint256",
          "name": "deadline",
          "type": "uint256"
        }
      ],
      "name": "swapExactTokensForETH",
      "outputs": [
        {
          "internalType": "uint256[]",
          "name": "",
          "type": "uint256[]"
        }
      ],
      "stateMutability": "nonpayable",
      "type": "function"
    },
    {
      "inputs": [
        {
          "internalType": "uint256",
          "name": "amountOut",
          "type": "uint256"
        },
        {
          "internalType": "uint256",
          "name": "amountInMax",
          "type": "uint256"
        },
        {
          "internalType": "address[]",
          "name": "path",
          "type": "address[]"
        },
        {
          "internalType": "address",
          "name": "to",
          "type": "address"
        },
        {
          "internalType": "uint256",
          "name": "deadline",
          "type": "uint256"
        }
      ],
      "name": "swapTokensForExactETH",
      "outputs": [
        {
          "internalType": "uint256[]",
          "name": "out",
          "type": "uint256[]"
        }
      ],
      "stateMutability": "nonpayable",
      "type": "function"
    },
    {
      "inputs": [],
      "name": "totalDays",
      "outputs": [
        {
          "internalType": "uint256",
          "name": "",
          "type": "uint256"
        }
      ],
      "stateMutability": "view",
      "type": "function"
    },
    {
      "inputs": [],
      "name": "totalRewardBalance",
      "outputs": [
        {
          "internalType": "uint256",
          "name": "",
          "type": "uint256"
        }
      ],
      "stateMutability": "view",
      "type": "function"
    },
    {
      "inputs": [
        {
          "internalType": "address",
          "name": "newOwner",
          "type": "address"
        }
      ],
      "name": "transferOwnership",
      "outputs": [],
      "stateMutability": "nonpayable",
      "type": "function"
    },
    {
      "inputs": [
        {
          "internalType": "address",
          "name": "",
          "type": "address"
        },
        {
          "internalType": "uint256",
          "name": "",
          "type": "uint256"
        }
      ],
      "name": "volumeRecords",
      "outputs": [
        {
          "internalType": "uint256",
          "name": "",
          "type": "uint256"
        }
      ],
      "stateMutability": "view",
      "type": "function"
    },
    {
      "inputs": [
        {
          "internalType": "uint256",
          "name": "amount",
          "type": "uint256"
        }
      ],
      "name": "withdrawRewardTokens",
      "outputs": [],
      "stateMutability": "nonpayable",
      "type": "function"
    }
  ],
  "bytecode": "0x60e060405260006009553480156200001657600080fd5b5060405162004e3538038062004e3583398181016040528101906200003c9190620003f6565b6200005c620000506200028560201b60201c565b6200028d60201b60201c565b426080818152505087600160006101000a81548173ffffffffffffffffffffffffffffffffffffffff021916908373ffffffffffffffffffffffffffffffffffffffff16021790555086600260006101000a81548173ffffffffffffffffffffffffffffffffffffffff021916908373ffffffffffffffffffffffffffffffffffffffff16021790555085600360006101000a81548173ffffffffffffffffffffffffffffffffffffffff021916908373ffffffffffffffffffffffffffffffffffffffff16021790555084600460008081526020019081526020016000208190555083600b8190555082600a81905550600160009054906101000a900473ffffffffffffffffffffffffffffffffffffffff1673ffffffffffffffffffffffffffffffffffffffff1663ad5c46486040518163ffffffff1660e01b8152600401602060405180830381865afa158015620001bb573d6000803e3d6000fd5b505050506040513d601f19601f82011682018060405250810190620001e19190620004bf565b600d60006101000a81548173ffffffffffffffffffffffffffffffffffffffff021916908373ffffffffffffffffffffffffffffffffffffffff160217905550606482670de0b6b3a764000062000239919062000520565b620002459190620005b0565b60a08181525050606481670de0b6b3a764000062000264919062000520565b620002709190620005b0565b60c081815250505050505050505050620005e8565b600033905090565b60008060009054906101000a900473ffffffffffffffffffffffffffffffffffffffff169050816000806101000a81548173ffffffffffffffffffffffffffffffffffffffff021916908373ffffffffffffffffffffffffffffffffffffffff1602179055508173ffffffffffffffffffffffffffffffffffffffff168173ffffffffffffffffffffffffffffffffffffffff167f8be0079c531659141344cd1fd0a4f28419497f9722a3daafe3b4186f6b6457e060405160405180910390a35050565b600080fd5b600073ffffffffffffffffffffffffffffffffffffffff82169050919050565b6000620003838262000356565b9050919050565b620003958162000376565b8114620003a157600080fd5b50565b600081519050620003b5816200038a565b92915050565b6000819050919050565b620003d081620003bb565b8114620003dc57600080fd5b50565b600081519050620003f081620003c5565b92915050565b600080600080600080600080610100898b0312156200041a576200041962000351565b5b60006200042a8b828c01620003a4565b98505060206200043d8b828c01620003a4565b9750506040620004508b828c01620003a4565b9650506060620004638b828c01620003df565b9550506080620004768b828c01620003df565b94505060a0620004898b828c01620003df565b93505060c06200049c8b828c01620003df565b92505060e0620004af8b828c01620003df565b9150509295985092959890939650565b600060208284031215620004d857620004d762000351565b5b6000620004e884828501620003a4565b91505092915050565b7f4e487b7100000000000000000000000000000000000000000000000000000000600052601160045260246000fd5b60006200052d82620003bb565b91506200053a83620003bb565b9250817fffffffffffffffffffffffffffffffffffffffffffffffffffffffffffffffff0483118215151615620005765762000575620004f1565b5b828202905092915050565b7f4e487b7100000000000000000000000000000000000000000000000000000000600052601260045260246000fd5b6000620005bd82620003bb565b9150620005ca83620003bb565b925082620005dd57620005dc62000581565b5b828204905092915050565b60805160a05160c0516147ec6200064960003960008181611ed101528181611ef901528181612a430152612a6b015260008181611e6f01528181611e97015281816129e10152612a09015260008181611804015261194d01526147ec6000f3fe6080604052600436106101665760003560e01c80637e2ca288116100d1578063b203dc601161008a578063d06ca61f11610064578063d06ca61f14610559578063de2af4b014610596578063f2fde38b146105c1578063fb3bdb41146105ea57610166565b8063b203dc60146104b6578063cb43b2dd146104f3578063ceb7f9951461051c57610166565b80637e2ca2881461038b5780637ff36ab5146103b65780638acc3673146103e65780638da5cb5b14610411578063940ce8721461043c57806394f557891461047957610166565b80631f924d86116101235780631f924d861461027b5780634a25d94a146102b85780636572ca0c146102f5578063715018a61461032057806378fb427a146103375780637a40624b1461036057610166565b8063078e36491461016b57806307a779bc146101965780630b83a727146101c157806316c621e0146101d857806318cbafe5146102015780631f00ca741461023e575b600080fd5b34801561017757600080fd5b5061018061061a565b60405161018d91906135bc565b60405180910390f35b3480156101a257600080fd5b506101ab610620565b6040516101b891906135bc565b60405180910390f35b3480156101cd57600080fd5b506101d6610897565b005b3480156101e457600080fd5b506101ff60048036038101906101fa9190613617565b610d53565b005b34801561020d57600080fd5b5061022860048036038101906102239190613707565b610e3a565b604051610235919061385f565b60405180910390f35b34801561024a57600080fd5b5061026560048036038101906102609190613881565b611212565b604051610272919061385f565b60405180910390f35b34801561028757600080fd5b506102a2600480360381019061029d9190613617565b6112c2565b6040516102af91906135bc565b60405180910390f35b3480156102c457600080fd5b506102df60048036038101906102da9190613707565b6112da565b6040516102ec919061385f565b60405180910390f35b34801561030157600080fd5b5061030a6117fc565b60405161031791906135bc565b60405180910390f35b34801561032c57600080fd5b5061033561183d565b005b34801561034357600080fd5b5061035e60048036038101906103599190613617565b6118c5565b005b34801561036c57600080fd5b5061037561194b565b60405161038291906135bc565b60405180910390f35b34801561039757600080fd5b506103a061196f565b6040516103ad91906135bc565b60405180910390f35b6103d060048036038101906103cb91906138e1565b611975565b6040516103dd919061385f565b60405180910390f35b3480156103f257600080fd5b506103fb611cf7565b60405161040891906135bc565b60405180910390f35b34801561041d57600080fd5b50610426611cfd565b6040516104339190613978565b60405180910390f35b34801561044857600080fd5b50610463600480360381019061045e9190613993565b611d26565b60405161047091906135bc565b60405180910390f35b34801561048557600080fd5b506104a0600480360381019061049b9190613617565b611d4b565b6040516104ad91906135bc565b60405180910390f35b3480156104c257600080fd5b506104dd60048036038101906104d89190613617565b611f7d565b6040516104ea91906135bc565b60405180910390f35b3480156104ff57600080fd5b5061051a60048036038101906105159190613617565b611f95565b005b34801561052857600080fd5b50610543600480360381019061053e9190613617565b6120bf565b60405161055091906135bc565b60405180910390f35b34801561056557600080fd5b50610580600480360381019061057b9190613881565b6120d7565b60405161058d919061385f565b60405180910390f35b3480156105a257600080fd5b506105ab612187565b6040516105b891906139ee565b60405180910390f35b3480156105cd57600080fd5b506105e860048036038101906105e39190613a09565b6121c6565b005b61060460048036038101906105ff91906138e1565b6122be565b604051610611919061385f565b60405180910390f35b600a5481565b600080600090506000670de0b6b3a7640000905060005b61067e600860003373ffffffffffffffffffffffffffffffffffffffff1673ffffffffffffffffffffffffffffffffffffffff168152602001908152602001600020612739565b81101561088e57600c546106d982600860003373ffffffffffffffffffffffffffffffffffffffff1673ffffffffffffffffffffffffffffffffffffffff16815260200190815260200160002061274e90919063ffffffff16565b101561087b576107f5600560003373ffffffffffffffffffffffffffffffffffffffff1673ffffffffffffffffffffffffffffffffffffffff168152602001908152602001600020600061077484600860003373ffffffffffffffffffffffffffffffffffffffff1673ffffffffffffffffffffffffffffffffffffffff16815260200190815260200160002061274e90919063ffffffff16565b815260200190815260200160002054670de0b6b3a7640000600660006107e186600860003373ffffffffffffffffffffffffffffffffffffffff1673ffffffffffffffffffffffffffffffffffffffff16815260200190815260200160002061274e90919063ffffffff16565b815260200190815260200160002054612768565b915061086d826007600061085085600860003373ffffffffffffffffffffffffffffffffffffffff1673ffffffffffffffffffffffffffffffffffffffff16815260200190815260200160002061274e90919063ffffffff16565b815260200190815260200160002054670de0b6b3a7640000612768565b836108789190613a65565b92505b808061088690613abb565b915050610637565b50819250505090565b61089f6117fc565b6001600c546108ae9190613a65565b111580156108c05750600a54600c5414155b156108ce576108cd612909565b5b600080670de0b6b3a764000090506000610925600860003373ffffffffffffffffffffffffffffffffffffffff1673ffffffffffffffffffffffffffffffffffffffff168152602001908152602001600020612739565b905060008167ffffffffffffffff81111561094357610942613b04565b5b6040519080825280602002602001820160405280156109715781602001602082028036833780820191505090505b50905060005b82811015610bf857600c546109d382600860003373ffffffffffffffffffffffffffffffffffffffff1673ffffffffffffffffffffffffffffffffffffffff16815260200190815260200160002061274e90919063ffffffff16565b1015610be557610aef600560003373ffffffffffffffffffffffffffffffffffffffff1673ffffffffffffffffffffffffffffffffffffffff1681526020019081526020016000206000610a6e84600860003373ffffffffffffffffffffffffffffffffffffffff1673ffffffffffffffffffffffffffffffffffffffff16815260200190815260200160002061274e90919063ffffffff16565b815260200190815260200160002054670de0b6b3a764000060066000610adb86600860003373ffffffffffffffffffffffffffffffffffffffff1673ffffffffffffffffffffffffffffffffffffffff16815260200190815260200160002061274e90919063ffffffff16565b815260200190815260200160002054612768565b9350610b678460076000610b4a85600860003373ffffffffffffffffffffffffffffffffffffffff1673ffffffffffffffffffffffffffffffffffffffff16815260200190815260200160002061274e90919063ffffffff16565b815260200190815260200160002054670de0b6b3a7640000612768565b85610b729190613a65565b9450610bc581600860003373ffffffffffffffffffffffffffffffffffffffff1673ffffffffffffffffffffffffffffffffffffffff16815260200190815260200160002061274e90919063ffffffff16565b828281518110610bd857610bd7613b33565b5b6020026020010181815250505b8080610bf090613abb565b915050610977565b5060005b82811015610c8357610c6f828281518110610c1a57610c19613b33565b5b6020026020010151600860003373ffffffffffffffffffffffffffffffffffffffff1673ffffffffffffffffffffffffffffffffffffffff168152602001908152602001600020612b9c90919063ffffffff16565b508080610c7b90613abb565b915050610bfc565b5060008411610cc7576040517f08c379a0000000000000000000000000000000000000000000000000000000008152600401610cbe90613bbf565b60405180910390fd5b610d143385600360009054906101000a900473ffffffffffffffffffffffffffffffffffffffff1673ffffffffffffffffffffffffffffffffffffffff16612bb69092919063ffffffff16565b7f106f923f993c2149d49b4255ff723acafa1f2d94393f561d3eda32ae348f72413385604051610d45929190613bdf565b60405180910390a150505050565b610d5b612c3c565b73ffffffffffffffffffffffffffffffffffffffff16610d79611cfd565b73ffffffffffffffffffffffffffffffffffffffff1614610dcf576040517f08c379a0000000000000000000000000000000000000000000000000000000008152600401610dc690613c54565b60405180910390fd5b8060096000828254610de19190613a65565b92505081905550610e37333083600360009054906101000a900473ffffffffffffffffffffffffffffffffffffffff1673ffffffffffffffffffffffffffffffffffffffff16612c44909392919063ffffffff16565b50565b6060600d60009054906101000a900473ffffffffffffffffffffffffffffffffffffffff1673ffffffffffffffffffffffffffffffffffffffff168585600188889050610e879190613c74565b818110610e9757610e96613b33565b5b9050602002016020810190610eac9190613a09565b73ffffffffffffffffffffffffffffffffffffffff1614610f02576040517f08c379a0000000000000000000000000000000000000000000000000000000008152600401610ef990613d1a565b60405180910390fd5b600260009054906101000a900473ffffffffffffffffffffffffffffffffffffffff1673ffffffffffffffffffffffffffffffffffffffff1685856000818110610f4f57610f4e613b33565b5b9050602002016020810190610f649190613a09565b73ffffffffffffffffffffffffffffffffffffffff1614610fba576040517f08c379a0000000000000000000000000000000000000000000000000000000008152600401610fb190613d1a565b60405180910390fd5b611012610fc56117fc565b600860003373ffffffffffffffffffffffffffffffffffffffff1673ffffffffffffffffffffffffffffffffffffffff168152602001908152602001600020612ccd90919063ffffffff16565b1580156110275750600a546110256117fc565b105b15611086576110846110376117fc565b600860003373ffffffffffffffffffffffffffffffffffffffff1673ffffffffffffffffffffffffffffffffffffffff168152602001908152602001600020612ce790919063ffffffff16565b505b6110d5333089600260009054906101000a900473ffffffffffffffffffffffffffffffffffffffff1673ffffffffffffffffffffffffffffffffffffffff16612c44909392919063ffffffff16565b611144600160009054906101000a900473ffffffffffffffffffffffffffffffffffffffff1688600260009054906101000a900473ffffffffffffffffffffffffffffffffffffffff1673ffffffffffffffffffffffffffffffffffffffff16612d019092919063ffffffff16565b600a54600c54146111595761115887612e13565b5b600160009054906101000a900473ffffffffffffffffffffffffffffffffffffffff1673ffffffffffffffffffffffffffffffffffffffff166318cbafe58888888888886040518763ffffffff1660e01b81526004016111be96959493929190613dfd565b6000604051808303816000875af11580156111dd573d6000803e3d6000fd5b505050506040513d6000823e3d601f19601f820116820180604052508101906112069190613f8e565b90509695505050505050565b6060600160009054906101000a900473ffffffffffffffffffffffffffffffffffffffff1673ffffffffffffffffffffffffffffffffffffffff16631f00ca748585856040518463ffffffff1660e01b815260040161127393929190613fd7565b600060405180830381865afa158015611290573d6000803e3d6000fd5b505050506040513d6000823e3d601f19601f820116820180604052508101906112b99190613f8e565b90509392505050565b60066020528060005260406000206000915090505481565b6060600d60009054906101000a900473ffffffffffffffffffffffffffffffffffffffff1673ffffffffffffffffffffffffffffffffffffffff1685856001888890506113279190613c74565b81811061133757611336613b33565b5b905060200201602081019061134c9190613a09565b73ffffffffffffffffffffffffffffffffffffffff16146113a2576040517f08c379a000000000000000000000000000000000000000000000000000000000815260040161139990613d1a565b60405180910390fd5b600260009054906101000a900473ffffffffffffffffffffffffffffffffffffffff1673ffffffffffffffffffffffffffffffffffffffff16858560008181106113ef576113ee613b33565b5b90506020020160208101906114049190613a09565b73ffffffffffffffffffffffffffffffffffffffff161461145a576040517f08c379a000000000000000000000000000000000000000000000000000000000815260040161145190613d1a565b60405180910390fd5b6114b26114656117fc565b600860003373ffffffffffffffffffffffffffffffffffffffff1673ffffffffffffffffffffffffffffffffffffffff168152602001908152602001600020612ccd90919063ffffffff16565b1580156114c75750600a546114c56117fc565b105b15611526576115246114d76117fc565b600860003373ffffffffffffffffffffffffffffffffffffffff1673ffffffffffffffffffffffffffffffffffffffff168152602001908152602001600020612ce790919063ffffffff16565b505b6116343330600160009054906101000a900473ffffffffffffffffffffffffffffffffffffffff1673ffffffffffffffffffffffffffffffffffffffff16631f00ca748b8a8a6040518463ffffffff1660e01b815260040161158a93929190613fd7565b600060405180830381865afa1580156115a7573d6000803e3d6000fd5b505050506040513d6000823e3d601f19601f820116820180604052508101906115d09190613f8e565b6000815181106115e3576115e2613b33565b5b6020026020010151600260009054906101000a900473ffffffffffffffffffffffffffffffffffffffff1673ffffffffffffffffffffffffffffffffffffffff16612c44909392919063ffffffff16565b6116a3600160009054906101000a900473ffffffffffffffffffffffffffffffffffffffff1687600260009054906101000a900473ffffffffffffffffffffffffffffffffffffffff1673ffffffffffffffffffffffffffffffffffffffff16612d019092919063ffffffff16565b600160009054906101000a900473ffffffffffffffffffffffffffffffffffffffff1673ffffffffffffffffffffffffffffffffffffffff16634a25d94a8888888888886040518763ffffffff1660e01b815260040161170896959493929190613dfd565b6000604051808303816000875af1158015611727573d6000803e3d6000fd5b505050506040513d6000823e3d601f19601f820116820180604052508101906117509190613f8e565b9050600a54600c5414611782576117818160008151811061177457611773613b33565b5b6020026020010151612e13565b5b6117f2600160009054906101000a900473ffffffffffffffffffffffffffffffffffffffff166000600260009054906101000a900473ffffffffffffffffffffffffffffffffffffffff1673ffffffffffffffffffffffffffffffffffffffff16612efe9092919063ffffffff16565b9695505050505050565b6000620151807f00000000000000000000000000000000000000000000000000000000000000004261182e9190613c74565b6118389190614038565b905090565b611845612c3c565b73ffffffffffffffffffffffffffffffffffffffff16611863611cfd565b73ffffffffffffffffffffffffffffffffffffffff16146118b9576040517f08c379a00000000000000000000000000000000000000000000000000000000081526004016118b090613c54565b60405180910390fd5b6118c3600061304d565b565b6118cd612c3c565b73ffffffffffffffffffffffffffffffffffffffff166118eb611cfd565b73ffffffffffffffffffffffffffffffffffffffff1614611941576040517f08c379a000000000000000000000000000000000000000000000000000000000815260040161193890613c54565b60405180910390fd5b80600a8190555050565b7f000000000000000000000000000000000000000000000000000000000000000081565b60095481565b6060600d60009054906101000a900473ffffffffffffffffffffffffffffffffffffffff1673ffffffffffffffffffffffffffffffffffffffff16858560008181106119c4576119c3613b33565b5b90506020020160208101906119d99190613a09565b73ffffffffffffffffffffffffffffffffffffffff1614611a2f576040517f08c379a0000000000000000000000000000000000000000000000000000000008152600401611a2690613d1a565b60405180910390fd5b600260009054906101000a900473ffffffffffffffffffffffffffffffffffffffff1673ffffffffffffffffffffffffffffffffffffffff168585600188889050611a7a9190613c74565b818110611a8a57611a89613b33565b5b9050602002016020810190611a9f9190613a09565b73ffffffffffffffffffffffffffffffffffffffff1614611af5576040517f08c379a0000000000000000000000000000000000000000000000000000000008152600401611aec90613d1a565b60405180910390fd5b60003411611b38576040517f08c379a0000000000000000000000000000000000000000000000000000000008152600401611b2f906140db565b60405180910390fd5b611b90611b436117fc565b600860003373ffffffffffffffffffffffffffffffffffffffff1673ffffffffffffffffffffffffffffffffffffffff168152602001908152602001600020612ccd90919063ffffffff16565b158015611ba55750600a54611ba36117fc565b105b15611c0457611c02611bb56117fc565b600860003373ffffffffffffffffffffffffffffffffffffffff1673ffffffffffffffffffffffffffffffffffffffff168152602001908152602001600020612ce790919063ffffffff16565b505b600160009054906101000a900473ffffffffffffffffffffffffffffffffffffffff1673ffffffffffffffffffffffffffffffffffffffff16637ff36ab53488888888886040518763ffffffff1660e01b8152600401611c689594939291906140fb565b60006040518083038185885af1158015611c86573d6000803e3d6000fd5b50505050506040513d6000823e3d601f19601f82011682018060405250810190611cb09190613f8e565b9050600a54600c5414611cee57611ced8160018351611ccf9190613c74565b81518110611ce057611cdf613b33565b5b6020026020010151612e13565b5b95945050505050565b600c5481565b60008060009054906101000a900473ffffffffffffffffffffffffffffffffffffffff16905090565b6005602052816000526040600020602052806000526040600020600091509150505481565b600080600090506000670de0b6b3a76400009050611db084600860003373ffffffffffffffffffffffffffffffffffffffff1673ffffffffffffffffffffffffffffffffffffffff168152602001908152602001600020612ccd90919063ffffffff16565b15611f7357611e2b600560003373ffffffffffffffffffffffffffffffffffffffff1673ffffffffffffffffffffffffffffffffffffffff168152602001908152602001600020600086815260200190815260200160002054670de0b6b3a76400006006600088815260200190815260200160002054612768565b90506000600c54851015611e545760076000868152602001908152602001600020549050611f51565b600c54851415611f50576000611e6b600c54613111565b90507f0000000000000000000000000000000000000000000000000000000000000000811115611ebd577f00000000000000000000000000000000000000000000000000000000000000009050611f1d565b6000811415611ecf5760009050611f1c565b7f0000000000000000000000000000000000000000000000000000000000000000811015611f1b577f000000000000000000000000000000000000000000000000000000000000000090505b5b5b611f4c600c54600a54611f309190613c74565b600954611f3d9190614038565b82670de0b6b3a7640000612768565b9150505b5b611f648282670de0b6b3a7640000612768565b83611f6f9190613a65565b9250505b8192505050919050565b60076020528060005260406000206000915090505481565b611f9d612c3c565b73ffffffffffffffffffffffffffffffffffffffff16611fbb611cfd565b73ffffffffffffffffffffffffffffffffffffffff1614612011576040517f08c379a000000000000000000000000000000000000000000000000000000000815260040161200890613c54565b60405180910390fd5b806009541015612056576040517f08c379a000000000000000000000000000000000000000000000000000000000815260040161204d906141bb565b60405180910390fd5b80600960008282546120689190613c74565b925050819055506120bc3382600360009054906101000a900473ffffffffffffffffffffffffffffffffffffffff1673ffffffffffffffffffffffffffffffffffffffff16612bb69092919063ffffffff16565b50565b60046020528060005260406000206000915090505481565b6060600160009054906101000a900473ffffffffffffffffffffffffffffffffffffffff1673ffffffffffffffffffffffffffffffffffffffff1663d06ca61f8585856040518463ffffffff1660e01b815260040161213893929190613fd7565b600060405180830381865afa158015612155573d6000803e3d6000fd5b505050506040513d6000823e3d601f19601f8201168201806040525081019061217e9190613f8e565b90509392505050565b60006121916117fc565b6001600c546121a09190613a65565b111580156121b25750600a54600c5414155b15806121c15750600a54600c54145b905090565b6121ce612c3c565b73ffffffffffffffffffffffffffffffffffffffff166121ec611cfd565b73ffffffffffffffffffffffffffffffffffffffff1614612242576040517f08c379a000000000000000000000000000000000000000000000000000000000815260040161223990613c54565b60405180910390fd5b600073ffffffffffffffffffffffffffffffffffffffff168173ffffffffffffffffffffffffffffffffffffffff1614156122b2576040517f08c379a00000000000000000000000000000000000000000000000000000000081526004016122a99061424d565b60405180910390fd5b6122bb8161304d565b50565b6060600d60009054906101000a900473ffffffffffffffffffffffffffffffffffffffff1673ffffffffffffffffffffffffffffffffffffffff168585600081811061230d5761230c613b33565b5b90506020020160208101906123229190613a09565b73ffffffffffffffffffffffffffffffffffffffff1614612378576040517f08c379a000000000000000000000000000000000000000000000000000000000815260040161236f90613d1a565b60405180910390fd5b600260009054906101000a900473ffffffffffffffffffffffffffffffffffffffff1673ffffffffffffffffffffffffffffffffffffffff1685856001888890506123c39190613c74565b8181106123d3576123d2613b33565b5b90506020020160208101906123e89190613a09565b73ffffffffffffffffffffffffffffffffffffffff161461243e576040517f08c379a000000000000000000000000000000000000000000000000000000000815260040161243590613d1a565b60405180910390fd5b6000600160009054906101000a900473ffffffffffffffffffffffffffffffffffffffff1673ffffffffffffffffffffffffffffffffffffffff16631f00ca748888886040518463ffffffff1660e01b815260040161249f93929190613fd7565b600060405180830381865afa1580156124bc573d6000803e3d6000fd5b505050506040513d6000823e3d601f19601f820116820180604052508101906124e59190613f8e565b6000815181106124f8576124f7613b33565b5b6020026020010151905080341015612545576040517f08c379a000000000000000000000000000000000000000000000000000000000815260040161253c906142df565b60405180910390fd5b61259d6125506117fc565b600860003373ffffffffffffffffffffffffffffffffffffffff1673ffffffffffffffffffffffffffffffffffffffff168152602001908152602001600020612ccd90919063ffffffff16565b1580156125b25750600a546125b06117fc565b105b156126115761260f6125c26117fc565b600860003373ffffffffffffffffffffffffffffffffffffffff1673ffffffffffffffffffffffffffffffffffffffff168152602001908152602001600020612ce790919063ffffffff16565b505b600a54600c54146126265761262587612e13565b5b80341115612681573373ffffffffffffffffffffffffffffffffffffffff166108fc82346126549190613c74565b9081150290604051600060405180830381858888f1935050505015801561267f573d6000803e3d6000fd5b505b600160009054906101000a900473ffffffffffffffffffffffffffffffffffffffff1673ffffffffffffffffffffffffffffffffffffffff1663fb3bdb418289898989896040518763ffffffff1660e01b81526004016126e59594939291906140fb565b60006040518083038185885af1158015612703573d6000803e3d6000fd5b50505050506040513d6000823e3d601f19601f8201168201806040525081019061272d9190613f8e565b91505095945050505050565b600061274782600001613153565b9050919050565b600061275d8360000183613164565b60001c905092915050565b600080821161277657600080fd5b60008060001985870985870292508281108382030391505060008114156127a35783820492505050612902565b8381106127af57600080fd5b60008486880990508281118203915080830392506000600186196127d39190613a65565b8616905080860495508084049350600181826000030401905080836127f891906142ff565b841793506000600287600361280d91906142ff565b189050808761281c91906142ff565b60026128289190613c74565b8161283391906142ff565b9050808761284191906142ff565b600261284d9190613c74565b8161285891906142ff565b9050808761286691906142ff565b60026128729190613c74565b8161287d91906142ff565b9050808761288b91906142ff565b60026128979190613c74565b816128a291906142ff565b905080876128b091906142ff565b60026128bc9190613c74565b816128c791906142ff565b905080876128d591906142ff565b60026128e19190613c74565b816128ec91906142ff565b905080856128fa91906142ff565b955050505050505b9392505050565b60006129136117fc565b905060006001600c54600b546129299190613a65565b6129339190613a65565b9050816001600c546129459190613a65565b111561295457612953614359565b5b8060066000600c548152602001908152602001600020546129759190614038565b6129a160046000600c5481526020019081526020016000205460018461299b9190613c74565b84612768565b6129ab9190613a65565b600460006001600c546129be9190613a65565b81526020019081526020016000208190555060006129dd600c54613111565b90507f0000000000000000000000000000000000000000000000000000000000000000811115612a2f577f00000000000000000000000000000000000000000000000000000000000000009050612a8f565b6000811415612a415760009050612a8e565b7f0000000000000000000000000000000000000000000000000000000000000000811015612a8d577f000000000000000000000000000000000000000000000000000000000000000090505b5b5b6001600a54612a9e9190613c74565b600c54148015612ab55750670de0b6b3a764000081115b15612adb5760095460076000600c54815260200190815260200160002081905550612b24565b612b0a600c54600a54612aee9190613c74565b600954612afb9190614038565b82670de0b6b3a7640000612768565b60076000600c548152602001908152602001600020819055505b60076000600c54815260200190815260200160002054600954612b479190613c74565b6009819055506001600c6000828254612b609190613a65565b92505081905550826001600c54612b779190613a65565b11158015612b895750600a54600c5414155b15612b9757612b96612909565b5b505050565b6000612bae836000018360001b61318f565b905092915050565b612c378363a9059cbb60e01b8484604051602401612bd5929190613bdf565b604051602081830303815290604052907bffffffffffffffffffffffffffffffffffffffffffffffffffffffff19166020820180517bffffffffffffffffffffffffffffffffffffffffffffffffffffffff83818316178352505050506132a3565b505050565b600033905090565b612cc7846323b872dd60e01b858585604051602401612c6593929190614388565b604051602081830303815290604052907bffffffffffffffffffffffffffffffffffffffffffffffffffffffff19166020820180517bffffffffffffffffffffffffffffffffffffffffffffffffffffffff83818316178352505050506132a3565b50505050565b6000612cdf836000018360001b61336a565b905092915050565b6000612cf9836000018360001b61338d565b905092915050565b6000818473ffffffffffffffffffffffffffffffffffffffff1663dd62ed3e30866040518363ffffffff1660e01b8152600401612d3f9291906143bf565b602060405180830381865afa158015612d5c573d6000803e3d6000fd5b505050506040513d601f19601f82011682018060405250810190612d8091906143e8565b612d8a9190613a65565b9050612e0d8463095ea7b360e01b8584604051602401612dab929190613bdf565b604051602081830303815290604052907bffffffffffffffffffffffffffffffffffffffffffffffffffffffff19166020820180517bffffffffffffffffffffffffffffffffffffffffffffffffffffffff83818316178352505050506132a3565b50505050565b600a54612e1e6117fc565b1015612ec45780600560003373ffffffffffffffffffffffffffffffffffffffff1673ffffffffffffffffffffffffffffffffffffffff1681526020019081526020016000206000612e6e6117fc565b81526020019081526020016000206000828254612e8b9190613a65565b925050819055508060066000612e9f6117fc565b81526020019081526020016000206000828254612ebc9190613a65565b925050819055505b612ecc6117fc565b6001600c54612edb9190613a65565b11158015612eed5750600a54600c5414155b15612efb57612efa612909565b5b50565b6000811480612f88575060008373ffffffffffffffffffffffffffffffffffffffff1663dd62ed3e30856040518363ffffffff1660e01b8152600401612f459291906143bf565b602060405180830381865afa158015612f62573d6000803e3d6000fd5b505050506040513d601f19601f82011682018060405250810190612f8691906143e8565b145b612fc7576040517f08c379a0000000000000000000000000000000000000000000000000000000008152600401612fbe90614487565b60405180910390fd5b6130488363095ea7b360e01b8484604051602401612fe6929190613bdf565b604051602081830303815290604052907bffffffffffffffffffffffffffffffffffffffffffffffffffffffff19166020820180517bffffffffffffffffffffffffffffffffffffffffffffffffffffffff83818316178352505050506132a3565b505050565b60008060009054906101000a900473ffffffffffffffffffffffffffffffffffffffff169050816000806101000a81548173ffffffffffffffffffffffffffffffffffffffff021916908373ffffffffffffffffffffffffffffffffffffffff1602179055508173ffffffffffffffffffffffffffffffffffffffff168173ffffffffffffffffffffffffffffffffffffffff167f8be0079c531659141344cd1fd0a4f28419497f9722a3daafe3b4186f6b6457e060405160405180910390a35050565b600061314c6006600084815260200190815260200160002054670de0b6b3a76400006004600086815260200190815260200160002054612768565b9050919050565b600081600001805490509050919050565b600082600001828154811061317c5761317b613b33565b5b9060005260206000200154905092915050565b600080836001016000848152602001908152602001600020549050600081146132975760006001826131c19190613c74565b90506000600186600001805490506131d99190613c74565b90508181146132485760008660000182815481106131fa576131f9613b33565b5b906000526020600020015490508087600001848154811061321e5761321d613b33565b5b90600052602060002001819055508387600101600083815260200190815260200160002081905550505b8560000180548061325c5761325b6144a7565b5b60019003818190600052602060002001600090559055856001016000868152602001908152602001600020600090556001935050505061329d565b60009150505b92915050565b6000613305826040518060400160405280602081526020017f5361666545524332303a206c6f772d6c6576656c2063616c6c206661696c65648152508573ffffffffffffffffffffffffffffffffffffffff166133fd9092919063ffffffff16565b905060008151111561336557808060200190518101906133259190614502565b613364576040517f08c379a000000000000000000000000000000000000000000000000000000000815260040161335b906145a1565b60405180910390fd5b5b505050565b600080836001016000848152602001908152602001600020541415905092915050565b6000613399838361336a565b6133f25782600001829080600181540180825580915050600190039060005260206000200160009091909190915055826000018054905083600101600084815260200190815260200160002081905550600190506133f7565b600090505b92915050565b606061340c8484600085613415565b90509392505050565b60608247101561345a576040517f08c379a000000000000000000000000000000000000000000000000000000000815260040161345190614633565b60405180910390fd5b61346385613529565b6134a2576040517f08c379a00000000000000000000000000000000000000000000000000000000081526004016134999061469f565b60405180910390fd5b6000808673ffffffffffffffffffffffffffffffffffffffff1685876040516134cb9190614739565b60006040518083038185875af1925050503d8060008114613508576040519150601f19603f3d011682016040523d82523d6000602084013e61350d565b606091505b509150915061351d82828661353c565b92505050949350505050565b600080823b905060008111915050919050565b6060831561354c5782905061359c565b60008351111561355f5782518084602001fd5b816040517f08c379a00000000000000000000000000000000000000000000000000000000081526004016135939190614794565b60405180910390fd5b9392505050565b6000819050919050565b6135b6816135a3565b82525050565b60006020820190506135d160008301846135ad565b92915050565b6000604051905090565b600080fd5b600080fd5b6135f4816135a3565b81146135ff57600080fd5b50565b600081359050613611816135eb565b92915050565b60006020828403121561362d5761362c6135e1565b5b600061363b84828501613602565b91505092915050565b600080fd5b600080fd5b600080fd5b60008083601f84011261366957613668613644565b5b8235905067ffffffffffffffff81111561368657613685613649565b5b6020830191508360208202830111156136a2576136a161364e565b5b9250929050565b600073ffffffffffffffffffffffffffffffffffffffff82169050919050565b60006136d4826136a9565b9050919050565b6136e4816136c9565b81146136ef57600080fd5b50565b600081359050613701816136db565b92915050565b60008060008060008060a08789031215613724576137236135e1565b5b600061373289828a01613602565b965050602061374389828a01613602565b955050604087013567ffffffffffffffff811115613764576137636135e6565b5b61377089828a01613653565b9450945050606061378389828a016136f2565b925050608061379489828a01613602565b9150509295509295509295565b600081519050919050565b600082825260208201905092915050565b6000819050602082019050919050565b6137d6816135a3565b82525050565b60006137e883836137cd565b60208301905092915050565b6000602082019050919050565b600061380c826137a1565b61381681856137ac565b9350613821836137bd565b8060005b8381101561385257815161383988826137dc565b9750613844836137f4565b925050600181019050613825565b5085935050505092915050565b600060208201905081810360008301526138798184613801565b905092915050565b60008060006040848603121561389a576138996135e1565b5b60006138a886828701613602565b935050602084013567ffffffffffffffff8111156138c9576138c86135e6565b5b6138d586828701613653565b92509250509250925092565b6000806000806000608086880312156138fd576138fc6135e1565b5b600061390b88828901613602565b955050602086013567ffffffffffffffff81111561392c5761392b6135e6565b5b61393888828901613653565b9450945050604061394b888289016136f2565b925050606061395c88828901613602565b9150509295509295909350565b613972816136c9565b82525050565b600060208201905061398d6000830184613969565b92915050565b600080604083850312156139aa576139a96135e1565b5b60006139b8858286016136f2565b92505060206139c985828601613602565b9150509250929050565b60008115159050919050565b6139e8816139d3565b82525050565b6000602082019050613a0360008301846139df565b92915050565b600060208284031215613a1f57613a1e6135e1565b5b6000613a2d848285016136f2565b91505092915050565b7f4e487b7100000000000000000000000000000000000000000000000000000000600052601160045260246000fd5b6000613a70826135a3565b9150613a7b836135a3565b9250827fffffffffffffffffffffffffffffffffffffffffffffffffffffffffffffffff03821115613ab057613aaf613a36565b5b828201905092915050565b6000613ac6826135a3565b91507fffffffffffffffffffffffffffffffffffffffffffffffffffffffffffffffff821415613af957613af8613a36565b5b600182019050919050565b7f4e487b7100000000000000000000000000000000000000000000000000000000600052604160045260246000fd5b7f4e487b7100000000000000000000000000000000000000000000000000000000600052603260045260246000fd5b600082825260208201905092915050565b7f5b636c61696d416c6c526577617264735d204e6f207265776172642100000000600082015250565b6000613ba9601c83613b62565b9150613bb482613b73565b602082019050919050565b60006020820190508181036000830152613bd881613b9c565b9050919050565b6000604082019050613bf46000830185613969565b613c0160208301846135ad565b9392505050565b7f4f776e61626c653a2063616c6c6572206973206e6f7420746865206f776e6572600082015250565b6000613c3e602083613b62565b9150613c4982613c08565b602082019050919050565b60006020820190508181036000830152613c6d81613c31565b9050919050565b6000613c7f826135a3565b9150613c8a836135a3565b925082821015613c9d57613c9c613a36565b5b828203905092915050565b7f5b737761704578616374455448466f72546f6b656e735d20496e76616c69642060008201527f7061746821000000000000000000000000000000000000000000000000000000602082015250565b6000613d04602583613b62565b9150613d0f82613ca8565b604082019050919050565b60006020820190508181036000830152613d3381613cf7565b9050919050565b600082825260208201905092915050565b6000819050919050565b613d5e816136c9565b82525050565b6000613d708383613d55565b60208301905092915050565b6000613d8b60208401846136f2565b905092915050565b6000602082019050919050565b6000613dac8385613d3a565b9350613db782613d4b565b8060005b85811015613df057613dcd8284613d7c565b613dd78882613d64565b9750613de283613d93565b925050600181019050613dbb565b5085925050509392505050565b600060a082019050613e1260008301896135ad565b613e1f60208301886135ad565b8181036040830152613e32818688613da0565b9050613e416060830185613969565b613e4e60808301846135ad565b979650505050505050565b6000601f19601f8301169050919050565b613e7382613e59565b810181811067ffffffffffffffff82111715613e9257613e91613b04565b5b80604052505050565b6000613ea56135d7565b9050613eb18282613e6a565b919050565b600067ffffffffffffffff821115613ed157613ed0613b04565b5b602082029050602081019050919050565b600081519050613ef1816135eb565b92915050565b6000613f0a613f0584613eb6565b613e9b565b90508083825260208201905060208402830185811115613f2d57613f2c61364e565b5b835b81811015613f565780613f428882613ee2565b845260208401935050602081019050613f2f565b5050509392505050565b600082601f830112613f7557613f74613644565b5b8151613f85848260208601613ef7565b91505092915050565b600060208284031215613fa457613fa36135e1565b5b600082015167ffffffffffffffff811115613fc257613fc16135e6565b5b613fce84828501613f60565b91505092915050565b6000604082019050613fec60008301866135ad565b8181036020830152613fff818486613da0565b9050949350505050565b7f4e487b7100000000000000000000000000000000000000000000000000000000600052601260045260246000fd5b6000614043826135a3565b915061404e836135a3565b92508261405e5761405d614009565b5b828204905092915050565b7f5b737761704578616374455448466f72546f6b656e735d204e6f742061206d7360008201527f672e76616c756521000000000000000000000000000000000000000000000000602082015250565b60006140c5602883613b62565b91506140d082614069565b604082019050919050565b600060208201905081810360008301526140f4816140b8565b9050919050565b600060808201905061411060008301886135ad565b8181036020830152614123818688613da0565b90506141326040830185613969565b61413f60608301846135ad565b9695505050505050565b7f5b7769746864726177526577617264546f6b656e735d204e6f7420656e6f756760008201527f682062616c616e63652100000000000000000000000000000000000000000000602082015250565b60006141a5602a83613b62565b91506141b082614149565b604082019050919050565b600060208201905081810360008301526141d481614198565b9050919050565b7f4f776e61626c653a206e6577206f776e657220697320746865207a65726f206160008201527f6464726573730000000000000000000000000000000000000000000000000000602082015250565b6000614237602683613b62565b9150614242826141db565b604082019050919050565b600060208201905081810360008301526142668161422a565b9050919050565b7f5b73776170455448466f724578616374546f6b656e735d204e6f7420656e6f7560008201527f6768206d73672e76616c75652100000000000000000000000000000000000000602082015250565b60006142c9602d83613b62565b91506142d48261426d565b604082019050919050565b600060208201905081810360008301526142f8816142bc565b9050919050565b600061430a826135a3565b9150614315836135a3565b9250817fffffffffffffffffffffffffffffffffffffffffffffffffffffffffffffffff048311821515161561434e5761434d613a36565b5b828202905092915050565b7f4e487b7100000000000000000000000000000000000000000000000000000000600052600160045260246000fd5b600060608201905061439d6000830186613969565b6143aa6020830185613969565b6143b760408301846135ad565b949350505050565b60006040820190506143d46000830185613969565b6143e16020830184613969565b9392505050565b6000602082840312156143fe576143fd6135e1565b5b600061440c84828501613ee2565b91505092915050565b7f5361666545524332303a20617070726f76652066726f6d206e6f6e2d7a65726f60008201527f20746f206e6f6e2d7a65726f20616c6c6f77616e636500000000000000000000602082015250565b6000614471603683613b62565b915061447c82614415565b604082019050919050565b600060208201905081810360008301526144a081614464565b9050919050565b7f4e487b7100000000000000000000000000000000000000000000000000000000600052603160045260246000fd5b6144df816139d3565b81146144ea57600080fd5b50565b6000815190506144fc816144d6565b92915050565b600060208284031215614518576145176135e1565b5b6000614526848285016144ed565b91505092915050565b7f5361666545524332303a204552433230206f7065726174696f6e20646964206e60008201527f6f74207375636365656400000000000000000000000000000000000000000000602082015250565b600061458b602a83613b62565b91506145968261452f565b604082019050919050565b600060208201905081810360008301526145ba8161457e565b9050919050565b7f416464726573733a20696e73756666696369656e742062616c616e636520666f60008201527f722063616c6c0000000000000000000000000000000000000000000000000000602082015250565b600061461d602683613b62565b9150614628826145c1565b604082019050919050565b6000602082019050818103600083015261464c81614610565b9050919050565b7f416464726573733a2063616c6c20746f206e6f6e2d636f6e7472616374000000600082015250565b6000614689601d83613b62565b915061469482614653565b602082019050919050565b600060208201905081810360008301526146b88161467c565b9050919050565b600081519050919050565b600081905092915050565b60005b838110156146f35780820151818401526020810190506146d8565b83811115614702576000848401525b50505050565b6000614713826146bf565b61471d81856146ca565b935061472d8185602086016146d5565b80840191505092915050565b60006147458284614708565b915081905092915050565b600081519050919050565b600061476682614750565b6147708185613b62565b93506147808185602086016146d5565b61478981613e59565b840191505092915050565b600060208201905081810360008301526147ae818461475b565b90509291505056fea2646970667358221220af25009d05778a4075e3ec6a38c4febf59ac35b4aed04a533d3fb5ff18eb738364736f6c634300080b0033",
  "linkReferences": {},
  "deployedLinkReferences": {}
}