{
  "_format": "hh-sol-artifact-1",
  "contractName": "TradeFarming",
  "sourceName": "contracts/trade-farming/TradeFarming.sol",
  "abi": [
    {
      "inputs": [
        {
          "internalType": "address",
          "name": "_routerAddress",
          "type": "address"
        },
        {
          "internalType": "address",
          "name": "_tokenAddress",
          "type": "address"
        },
        {
          "internalType": "address",
          "name": "_rewardAddress",
          "type": "address"
        },
        {
          "internalType": "uint256",
          "name": "_previousVolume",
          "type": "uint256"
        },
        {
          "internalType": "uint256",
          "name": "_previousDay",
          "type": "uint256"
        },
        {
          "internalType": "uint256",
          "name": "_totalDays",
          "type": "uint256"
        },
        {
          "internalType": "uint256",
          "name": "_upLimit",
          "type": "uint256"
        },
        {
          "internalType": "uint256",
          "name": "_downLimit",
          "type": "uint256"
        }
      ],
      "stateMutability": "nonpayable",
      "type": "constructor"
    },
    {
      "anonymous": false,
      "inputs": [
        {
          "indexed": true,
          "internalType": "address",
          "name": "previousOwner",
          "type": "address"
        },
        {
          "indexed": true,
          "internalType": "address",
          "name": "newOwner",
          "type": "address"
        }
      ],
      "name": "OwnershipTransferred",
      "type": "event"
    },
    {
      "anonymous": false,
      "inputs": [
        {
          "indexed": false,
          "internalType": "address",
          "name": "_user",
          "type": "address"
        },
        {
          "indexed": false,
          "internalType": "uint256",
          "name": "_amount",
          "type": "uint256"
        }
      ],
      "name": "RewardClaimed",
      "type": "event"
    },
    {
      "inputs": [],
      "name": "calcDay",
      "outputs": [
        {
          "internalType": "uint256",
          "name": "",
          "type": "uint256"
        }
      ],
      "stateMutability": "view",
      "type": "function"
    },
    {
      "inputs": [
        {
          "internalType": "uint256",
          "name": "day",
          "type": "uint256"
        }
      ],
      "name": "calculateDailyUserReward",
      "outputs": [
        {
          "internalType": "uint256",
          "name": "",
          "type": "uint256"
        }
      ],
      "stateMutability": "view",
      "type": "function"
    },
    {
      "inputs": [],
      "name": "calculateUserRewards",
      "outputs": [
        {
          "internalType": "uint256",
          "name": "",
          "type": "uint256"
        }
      ],
      "stateMutability": "view",
      "type": "function"
    },
    {
      "inputs": [
        {
          "internalType": "uint256",
          "name": "newTotalDays",
          "type": "uint256"
        }
      ],
      "name": "changeTotalDays",
      "outputs": [],
      "stateMutability": "nonpayable",
      "type": "function"
    },
    {
      "inputs": [],
      "name": "claimAllRewards",
      "outputs": [],
      "stateMutability": "nonpayable",
      "type": "function"
    },
    {
      "inputs": [
        {
          "internalType": "uint256",
          "name": "",
          "type": "uint256"
        }
      ],
      "name": "dailyRewards",
      "outputs": [
        {
          "internalType": "uint256",
          "name": "",
          "type": "uint256"
        }
      ],
      "stateMutability": "view",
      "type": "function"
    },
    {
      "inputs": [
        {
          "internalType": "uint256",
          "name": "",
          "type": "uint256"
        }
      ],
      "name": "dailyVolumes",
      "outputs": [
        {
          "internalType": "uint256",
          "name": "",
          "type": "uint256"
        }
      ],
      "stateMutability": "view",
      "type": "function"
    },
    {
      "inputs": [],
      "name": "deployTime",
      "outputs": [
        {
          "internalType": "uint256",
          "name": "",
          "type": "uint256"
        }
      ],
      "stateMutability": "view",
      "type": "function"
    },
    {
      "inputs": [
        {
          "internalType": "uint256",
          "name": "amount",
          "type": "uint256"
        }
      ],
      "name": "depositRewardTokens",
      "outputs": [],
      "stateMutability": "nonpayable",
      "type": "function"
    },
    {
      "inputs": [
        {
          "internalType": "uint256",
          "name": "amountOut",
          "type": "uint256"
        },
        {
          "internalType": "address[]",
          "name": "path",
          "type": "address[]"
        }
      ],
      "name": "getAmountsIn",
      "outputs": [
        {
          "internalType": "uint256[]",
          "name": "amounts",
          "type": "uint256[]"
        }
      ],
      "stateMutability": "view",
      "type": "function"
    },
    {
      "inputs": [
        {
          "internalType": "uint256",
          "name": "amountIn",
          "type": "uint256"
        },
        {
          "internalType": "address[]",
          "name": "path",
          "type": "address[]"
        }
      ],
      "name": "getAmountsOut",
      "outputs": [
        {
          "internalType": "uint256[]",
          "name": "amounts",
          "type": "uint256[]"
        }
      ],
      "stateMutability": "view",
      "type": "function"
    },
    {
      "inputs": [],
      "name": "isCalculated",
      "outputs": [
        {
          "internalType": "bool",
          "name": "",
          "type": "bool"
        }
      ],
      "stateMutability": "view",
      "type": "function"
    },
    {
      "inputs": [],
      "name": "owner",
      "outputs": [
        {
          "internalType": "address",
          "name": "",
          "type": "address"
        }
      ],
      "stateMutability": "view",
      "type": "function"
    },
    {
      "inputs": [
        {
          "internalType": "uint256",
          "name": "",
          "type": "uint256"
        }
      ],
      "name": "previousVolumes",
      "outputs": [
        {
          "internalType": "uint256",
          "name": "",
          "type": "uint256"
        }
      ],
      "stateMutability": "view",
      "type": "function"
    },
    {
      "inputs": [],
      "name": "renounceOwnership",
      "outputs": [],
      "stateMutability": "nonpayable",
      "type": "function"
    },
    {
      "inputs": [
        {
          "internalType": "uint256",
          "name": "amountOut",
          "type": "uint256"
        },
        {
          "internalType": "address[]",
          "name": "path",
          "type": "address[]"
        },
        {
          "internalType": "address",
          "name": "to",
          "type": "address"
        },
        {
          "internalType": "uint256",
          "name": "deadline",
          "type": "uint256"
        }
      ],
      "name": "swapETHForExactTokens",
      "outputs": [
        {
          "internalType": "uint256[]",
          "name": "",
          "type": "uint256[]"
        }
      ],
      "stateMutability": "payable",
      "type": "function"
    },
    {
      "inputs": [
        {
          "internalType": "uint256",
          "name": "amountOutMin",
          "type": "uint256"
        },
        {
          "internalType": "address[]",
          "name": "path",
          "type": "address[]"
        },
        {
          "internalType": "address",
          "name": "to",
          "type": "address"
        },
        {
          "internalType": "uint256",
          "name": "deadline",
          "type": "uint256"
        }
      ],
      "name": "swapExactETHForTokens",
      "outputs": [
        {
          "internalType": "uint256[]",
          "name": "out",
          "type": "uint256[]"
        }
      ],
      "stateMutability": "payable",
      "type": "function"
    },
    {
      "inputs": [
        {
          "internalType": "uint256",
          "name": "amountIn",
          "type": "uint256"
        },
        {
          "internalType": "uint256",
          "name": "amountOutMin",
          "type": "uint256"
        },
        {
          "internalType": "address[]",
          "name": "path",
          "type": "address[]"
        },
        {
          "internalType": "address",
          "name": "to",
          "type": "address"
        },
        {
          "internalType": "uint256",
          "name": "deadline",
          "type": "uint256"
        }
      ],
      "name": "swapExactTokensForETH",
      "outputs": [
        {
          "internalType": "uint256[]",
          "name": "",
          "type": "uint256[]"
        }
      ],
      "stateMutability": "nonpayable",
      "type": "function"
    },
    {
      "inputs": [
        {
          "internalType": "uint256",
          "name": "amountOut",
          "type": "uint256"
        },
        {
          "internalType": "uint256",
          "name": "amountInMax",
          "type": "uint256"
        },
        {
          "internalType": "address[]",
          "name": "path",
          "type": "address[]"
        },
        {
          "internalType": "address",
          "name": "to",
          "type": "address"
        },
        {
          "internalType": "uint256",
          "name": "deadline",
          "type": "uint256"
        }
      ],
      "name": "swapTokensForExactETH",
      "outputs": [
        {
          "internalType": "uint256[]",
          "name": "out",
          "type": "uint256[]"
        }
      ],
      "stateMutability": "nonpayable",
      "type": "function"
    },
    {
      "inputs": [],
      "name": "totalDays",
      "outputs": [
        {
          "internalType": "uint256",
          "name": "",
          "type": "uint256"
        }
      ],
      "stateMutability": "view",
      "type": "function"
    },
    {
      "inputs": [],
      "name": "totalRewardBalance",
      "outputs": [
        {
          "internalType": "uint256",
          "name": "",
          "type": "uint256"
        }
      ],
      "stateMutability": "view",
      "type": "function"
    },
    {
      "inputs": [
        {
          "internalType": "address",
          "name": "newOwner",
          "type": "address"
        }
      ],
      "name": "transferOwnership",
      "outputs": [],
      "stateMutability": "nonpayable",
      "type": "function"
    },
    {
      "inputs": [
        {
          "internalType": "address",
          "name": "",
          "type": "address"
        },
        {
          "internalType": "uint256",
          "name": "",
          "type": "uint256"
        }
      ],
      "name": "volumeRecords",
      "outputs": [
        {
          "internalType": "uint256",
          "name": "",
          "type": "uint256"
        }
      ],
      "stateMutability": "view",
      "type": "function"
    },
    {
      "inputs": [
        {
          "internalType": "uint256",
          "name": "amount",
          "type": "uint256"
        }
      ],
      "name": "withdrawRewardTokens",
      "outputs": [],
      "stateMutability": "nonpayable",
      "type": "function"
    }
  ],
  "bytecode": "0x60e060405260006009556000600c553480156200001b57600080fd5b5060405162004dee38038062004dee8339818101604052810190620000419190620003fb565b62000061620000556200028a60201b60201c565b6200029260201b60201c565b426080818152505087600160006101000a81548173ffffffffffffffffffffffffffffffffffffffff021916908373ffffffffffffffffffffffffffffffffffffffff16021790555086600260006101000a81548173ffffffffffffffffffffffffffffffffffffffff021916908373ffffffffffffffffffffffffffffffffffffffff16021790555085600360006101000a81548173ffffffffffffffffffffffffffffffffffffffff021916908373ffffffffffffffffffffffffffffffffffffffff16021790555084600460008081526020019081526020016000208190555083600b8190555082600a81905550600160009054906101000a900473ffffffffffffffffffffffffffffffffffffffff1673ffffffffffffffffffffffffffffffffffffffff1663ad5c46486040518163ffffffff1660e01b8152600401602060405180830381865afa158015620001c0573d6000803e3d6000fd5b505050506040513d601f19601f82011682018060405250810190620001e69190620004c4565b600d60006101000a81548173ffffffffffffffffffffffffffffffffffffffff021916908373ffffffffffffffffffffffffffffffffffffffff160217905550606482670de0b6b3a76400006200023e919062000525565b6200024a9190620005b5565b60a08181525050606481670de0b6b3a764000062000269919062000525565b620002759190620005b5565b60c081815250505050505050505050620005ed565b600033905090565b60008060009054906101000a900473ffffffffffffffffffffffffffffffffffffffff169050816000806101000a81548173ffffffffffffffffffffffffffffffffffffffff021916908373ffffffffffffffffffffffffffffffffffffffff1602179055508173ffffffffffffffffffffffffffffffffffffffff168173ffffffffffffffffffffffffffffffffffffffff167f8be0079c531659141344cd1fd0a4f28419497f9722a3daafe3b4186f6b6457e060405160405180910390a35050565b600080fd5b600073ffffffffffffffffffffffffffffffffffffffff82169050919050565b600062000388826200035b565b9050919050565b6200039a816200037b565b8114620003a657600080fd5b50565b600081519050620003ba816200038f565b92915050565b6000819050919050565b620003d581620003c0565b8114620003e157600080fd5b50565b600081519050620003f581620003ca565b92915050565b600080600080600080600080610100898b0312156200041f576200041e62000356565b5b60006200042f8b828c01620003a9565b9850506020620004428b828c01620003a9565b9750506040620004558b828c01620003a9565b9650506060620004688b828c01620003e4565b95505060806200047b8b828c01620003e4565b94505060a06200048e8b828c01620003e4565b93505060c0620004a18b828c01620003e4565b92505060e0620004b48b828c01620003e4565b9150509295985092959890939650565b600060208284031215620004dd57620004dc62000356565b5b6000620004ed84828501620003a9565b91505092915050565b7f4e487b7100000000000000000000000000000000000000000000000000000000600052601160045260246000fd5b60006200053282620003c0565b91506200053f83620003c0565b9250817fffffffffffffffffffffffffffffffffffffffffffffffffffffffffffffffff04831182151516156200057b576200057a620004f6565b5b828202905092915050565b7f4e487b7100000000000000000000000000000000000000000000000000000000600052601260045260246000fd5b6000620005c282620003c0565b9150620005cf83620003c0565b925082620005e257620005e162000586565b5b828204905092915050565b60805160a05160c0516147a06200064e60003960008181611e8501528181611ead015281816129f70152612a1f015260008181611e2301528181611e4b0152818161299501526129bd0152600081816117be015261190701526147a06000f3fe60806040526004361061014b5760003560e01c80637e2ca288116100b6578063cb43b2dd1161006f578063cb43b2dd146104ad578063ceb7f995146104d6578063d06ca61f14610513578063de2af4b014610550578063f2fde38b1461057b578063fb3bdb41146105a45761014b565b80637e2ca288146103705780637ff36ab51461039b5780638da5cb5b146103cb578063940ce872146103f657806394f5578914610433578063b203dc60146104705761014b565b80631f924d86116101085780631f924d86146102605780634a25d94a1461029d5780636572ca0c146102da578063715018a61461030557806378fb427a1461031c5780637a40624b146103455761014b565b8063078e36491461015057806307a779bc1461017b5780630b83a727146101a657806316c621e0146101bd57806318cbafe5146101e65780631f00ca7414610223575b600080fd5b34801561015c57600080fd5b506101656105d4565b6040516101729190613570565b60405180910390f35b34801561018757600080fd5b506101906105da565b60405161019d9190613570565b60405180910390f35b3480156101b257600080fd5b506101bb610851565b005b3480156101c957600080fd5b506101e460048036038101906101df91906135cb565b610d0d565b005b3480156101f257600080fd5b5061020d600480360381019061020891906136bb565b610df4565b60405161021a9190613813565b60405180910390f35b34801561022f57600080fd5b5061024a60048036038101906102459190613835565b6111cc565b6040516102579190613813565b60405180910390f35b34801561026c57600080fd5b50610287600480360381019061028291906135cb565b61127c565b6040516102949190613570565b60405180910390f35b3480156102a957600080fd5b506102c460048036038101906102bf91906136bb565b611294565b6040516102d19190613813565b60405180910390f35b3480156102e657600080fd5b506102ef6117b6565b6040516102fc9190613570565b60405180910390f35b34801561031157600080fd5b5061031a6117f7565b005b34801561032857600080fd5b50610343600480360381019061033e91906135cb565b61187f565b005b34801561035157600080fd5b5061035a611905565b6040516103679190613570565b60405180910390f35b34801561037c57600080fd5b50610385611929565b6040516103929190613570565b60405180910390f35b6103b560048036038101906103b09190613895565b61192f565b6040516103c29190613813565b60405180910390f35b3480156103d757600080fd5b506103e0611cb1565b6040516103ed919061392c565b60405180910390f35b34801561040257600080fd5b5061041d60048036038101906104189190613947565b611cda565b60405161042a9190613570565b60405180910390f35b34801561043f57600080fd5b5061045a600480360381019061045591906135cb565b611cff565b6040516104679190613570565b60405180910390f35b34801561047c57600080fd5b50610497600480360381019061049291906135cb565b611f31565b6040516104a49190613570565b60405180910390f35b3480156104b957600080fd5b506104d460048036038101906104cf91906135cb565b611f49565b005b3480156104e257600080fd5b506104fd60048036038101906104f891906135cb565b612073565b60405161050a9190613570565b60405180910390f35b34801561051f57600080fd5b5061053a60048036038101906105359190613835565b61208b565b6040516105479190613813565b60405180910390f35b34801561055c57600080fd5b5061056561213b565b60405161057291906139a2565b60405180910390f35b34801561058757600080fd5b506105a2600480360381019061059d91906139bd565b61217a565b005b6105be60048036038101906105b99190613895565b612272565b6040516105cb9190613813565b60405180910390f35b600a5481565b600080600090506000670de0b6b3a7640000905060005b610638600860003373ffffffffffffffffffffffffffffffffffffffff1673ffffffffffffffffffffffffffffffffffffffff1681526020019081526020016000206126ed565b81101561084857600c5461069382600860003373ffffffffffffffffffffffffffffffffffffffff1673ffffffffffffffffffffffffffffffffffffffff16815260200190815260200160002061270290919063ffffffff16565b1015610835576107af600560003373ffffffffffffffffffffffffffffffffffffffff1673ffffffffffffffffffffffffffffffffffffffff168152602001908152602001600020600061072e84600860003373ffffffffffffffffffffffffffffffffffffffff1673ffffffffffffffffffffffffffffffffffffffff16815260200190815260200160002061270290919063ffffffff16565b815260200190815260200160002054670de0b6b3a76400006006600061079b86600860003373ffffffffffffffffffffffffffffffffffffffff1673ffffffffffffffffffffffffffffffffffffffff16815260200190815260200160002061270290919063ffffffff16565b81526020019081526020016000205461271c565b9150610827826007600061080a85600860003373ffffffffffffffffffffffffffffffffffffffff1673ffffffffffffffffffffffffffffffffffffffff16815260200190815260200160002061270290919063ffffffff16565b815260200190815260200160002054670de0b6b3a764000061271c565b836108329190613a19565b92505b808061084090613a6f565b9150506105f1565b50819250505090565b6108596117b6565b6001600c546108689190613a19565b1115801561087a5750600a54600c5414155b15610888576108876128bd565b5b600080670de0b6b3a7640000905060006108df600860003373ffffffffffffffffffffffffffffffffffffffff1673ffffffffffffffffffffffffffffffffffffffff1681526020019081526020016000206126ed565b905060008167ffffffffffffffff8111156108fd576108fc613ab8565b5b60405190808252806020026020018201604052801561092b5781602001602082028036833780820191505090505b50905060005b82811015610bb257600c5461098d82600860003373ffffffffffffffffffffffffffffffffffffffff1673ffffffffffffffffffffffffffffffffffffffff16815260200190815260200160002061270290919063ffffffff16565b1015610b9f57610aa9600560003373ffffffffffffffffffffffffffffffffffffffff1673ffffffffffffffffffffffffffffffffffffffff1681526020019081526020016000206000610a2884600860003373ffffffffffffffffffffffffffffffffffffffff1673ffffffffffffffffffffffffffffffffffffffff16815260200190815260200160002061270290919063ffffffff16565b815260200190815260200160002054670de0b6b3a764000060066000610a9586600860003373ffffffffffffffffffffffffffffffffffffffff1673ffffffffffffffffffffffffffffffffffffffff16815260200190815260200160002061270290919063ffffffff16565b81526020019081526020016000205461271c565b9350610b218460076000610b0485600860003373ffffffffffffffffffffffffffffffffffffffff1673ffffffffffffffffffffffffffffffffffffffff16815260200190815260200160002061270290919063ffffffff16565b815260200190815260200160002054670de0b6b3a764000061271c565b85610b2c9190613a19565b9450610b7f81600860003373ffffffffffffffffffffffffffffffffffffffff1673ffffffffffffffffffffffffffffffffffffffff16815260200190815260200160002061270290919063ffffffff16565b828281518110610b9257610b91613ae7565b5b6020026020010181815250505b8080610baa90613a6f565b915050610931565b5060005b82811015610c3d57610c29828281518110610bd457610bd3613ae7565b5b6020026020010151600860003373ffffffffffffffffffffffffffffffffffffffff1673ffffffffffffffffffffffffffffffffffffffff168152602001908152602001600020612b5090919063ffffffff16565b508080610c3590613a6f565b915050610bb6565b5060008411610c81576040517f08c379a0000000000000000000000000000000000000000000000000000000008152600401610c7890613b73565b60405180910390fd5b610cce3385600360009054906101000a900473ffffffffffffffffffffffffffffffffffffffff1673ffffffffffffffffffffffffffffffffffffffff16612b6a9092919063ffffffff16565b7f106f923f993c2149d49b4255ff723acafa1f2d94393f561d3eda32ae348f72413385604051610cff929190613b93565b60405180910390a150505050565b610d15612bf0565b73ffffffffffffffffffffffffffffffffffffffff16610d33611cb1565b73ffffffffffffffffffffffffffffffffffffffff1614610d89576040517f08c379a0000000000000000000000000000000000000000000000000000000008152600401610d8090613c08565b60405180910390fd5b8060096000828254610d9b9190613a19565b92505081905550610df1333083600360009054906101000a900473ffffffffffffffffffffffffffffffffffffffff1673ffffffffffffffffffffffffffffffffffffffff16612bf8909392919063ffffffff16565b50565b6060600d60009054906101000a900473ffffffffffffffffffffffffffffffffffffffff1673ffffffffffffffffffffffffffffffffffffffff168585600188889050610e419190613c28565b818110610e5157610e50613ae7565b5b9050602002016020810190610e6691906139bd565b73ffffffffffffffffffffffffffffffffffffffff1614610ebc576040517f08c379a0000000000000000000000000000000000000000000000000000000008152600401610eb390613cce565b60405180910390fd5b600260009054906101000a900473ffffffffffffffffffffffffffffffffffffffff1673ffffffffffffffffffffffffffffffffffffffff1685856000818110610f0957610f08613ae7565b5b9050602002016020810190610f1e91906139bd565b73ffffffffffffffffffffffffffffffffffffffff1614610f74576040517f08c379a0000000000000000000000000000000000000000000000000000000008152600401610f6b90613cce565b60405180910390fd5b610fcc610f7f6117b6565b600860003373ffffffffffffffffffffffffffffffffffffffff1673ffffffffffffffffffffffffffffffffffffffff168152602001908152602001600020612c8190919063ffffffff16565b158015610fe15750600a54610fdf6117b6565b105b156110405761103e610ff16117b6565b600860003373ffffffffffffffffffffffffffffffffffffffff1673ffffffffffffffffffffffffffffffffffffffff168152602001908152602001600020612c9b90919063ffffffff16565b505b61108f333089600260009054906101000a900473ffffffffffffffffffffffffffffffffffffffff1673ffffffffffffffffffffffffffffffffffffffff16612bf8909392919063ffffffff16565b6110fe600160009054906101000a900473ffffffffffffffffffffffffffffffffffffffff1688600260009054906101000a900473ffffffffffffffffffffffffffffffffffffffff1673ffffffffffffffffffffffffffffffffffffffff16612cb59092919063ffffffff16565b600a54600c54146111135761111287612dc7565b5b600160009054906101000a900473ffffffffffffffffffffffffffffffffffffffff1673ffffffffffffffffffffffffffffffffffffffff166318cbafe58888888888886040518763ffffffff1660e01b815260040161117896959493929190613db1565b6000604051808303816000875af1158015611197573d6000803e3d6000fd5b505050506040513d6000823e3d601f19601f820116820180604052508101906111c09190613f42565b90509695505050505050565b6060600160009054906101000a900473ffffffffffffffffffffffffffffffffffffffff1673ffffffffffffffffffffffffffffffffffffffff16631f00ca748585856040518463ffffffff1660e01b815260040161122d93929190613f8b565b600060405180830381865afa15801561124a573d6000803e3d6000fd5b505050506040513d6000823e3d601f19601f820116820180604052508101906112739190613f42565b90509392505050565b60066020528060005260406000206000915090505481565b6060600d60009054906101000a900473ffffffffffffffffffffffffffffffffffffffff1673ffffffffffffffffffffffffffffffffffffffff1685856001888890506112e19190613c28565b8181106112f1576112f0613ae7565b5b905060200201602081019061130691906139bd565b73ffffffffffffffffffffffffffffffffffffffff161461135c576040517f08c379a000000000000000000000000000000000000000000000000000000000815260040161135390613cce565b60405180910390fd5b600260009054906101000a900473ffffffffffffffffffffffffffffffffffffffff1673ffffffffffffffffffffffffffffffffffffffff16858560008181106113a9576113a8613ae7565b5b90506020020160208101906113be91906139bd565b73ffffffffffffffffffffffffffffffffffffffff1614611414576040517f08c379a000000000000000000000000000000000000000000000000000000000815260040161140b90613cce565b60405180910390fd5b61146c61141f6117b6565b600860003373ffffffffffffffffffffffffffffffffffffffff1673ffffffffffffffffffffffffffffffffffffffff168152602001908152602001600020612c8190919063ffffffff16565b1580156114815750600a5461147f6117b6565b105b156114e0576114de6114916117b6565b600860003373ffffffffffffffffffffffffffffffffffffffff1673ffffffffffffffffffffffffffffffffffffffff168152602001908152602001600020612c9b90919063ffffffff16565b505b6115ee3330600160009054906101000a900473ffffffffffffffffffffffffffffffffffffffff1673ffffffffffffffffffffffffffffffffffffffff16631f00ca748b8a8a6040518463ffffffff1660e01b815260040161154493929190613f8b565b600060405180830381865afa158015611561573d6000803e3d6000fd5b505050506040513d6000823e3d601f19601f8201168201806040525081019061158a9190613f42565b60008151811061159d5761159c613ae7565b5b6020026020010151600260009054906101000a900473ffffffffffffffffffffffffffffffffffffffff1673ffffffffffffffffffffffffffffffffffffffff16612bf8909392919063ffffffff16565b61165d600160009054906101000a900473ffffffffffffffffffffffffffffffffffffffff1687600260009054906101000a900473ffffffffffffffffffffffffffffffffffffffff1673ffffffffffffffffffffffffffffffffffffffff16612cb59092919063ffffffff16565b600160009054906101000a900473ffffffffffffffffffffffffffffffffffffffff1673ffffffffffffffffffffffffffffffffffffffff16634a25d94a8888888888886040518763ffffffff1660e01b81526004016116c296959493929190613db1565b6000604051808303816000875af11580156116e1573d6000803e3d6000fd5b505050506040513d6000823e3d601f19601f8201168201806040525081019061170a9190613f42565b9050600a54600c541461173c5761173b8160008151811061172e5761172d613ae7565b5b6020026020010151612dc7565b5b6117ac600160009054906101000a900473ffffffffffffffffffffffffffffffffffffffff166000600260009054906101000a900473ffffffffffffffffffffffffffffffffffffffff1673ffffffffffffffffffffffffffffffffffffffff16612eb29092919063ffffffff16565b9695505050505050565b6000620151807f0000000000000000000000000000000000000000000000000000000000000000426117e89190613c28565b6117f29190613fec565b905090565b6117ff612bf0565b73ffffffffffffffffffffffffffffffffffffffff1661181d611cb1565b73ffffffffffffffffffffffffffffffffffffffff1614611873576040517f08c379a000000000000000000000000000000000000000000000000000000000815260040161186a90613c08565b60405180910390fd5b61187d6000613001565b565b611887612bf0565b73ffffffffffffffffffffffffffffffffffffffff166118a5611cb1565b73ffffffffffffffffffffffffffffffffffffffff16146118fb576040517f08c379a00000000000000000000000000000000000000000000000000000000081526004016118f290613c08565b60405180910390fd5b80600a8190555050565b7f000000000000000000000000000000000000000000000000000000000000000081565b60095481565b6060600d60009054906101000a900473ffffffffffffffffffffffffffffffffffffffff1673ffffffffffffffffffffffffffffffffffffffff168585600081811061197e5761197d613ae7565b5b905060200201602081019061199391906139bd565b73ffffffffffffffffffffffffffffffffffffffff16146119e9576040517f08c379a00000000000000000000000000000000000000000000000000000000081526004016119e090613cce565b60405180910390fd5b600260009054906101000a900473ffffffffffffffffffffffffffffffffffffffff1673ffffffffffffffffffffffffffffffffffffffff168585600188889050611a349190613c28565b818110611a4457611a43613ae7565b5b9050602002016020810190611a5991906139bd565b73ffffffffffffffffffffffffffffffffffffffff1614611aaf576040517f08c379a0000000000000000000000000000000000000000000000000000000008152600401611aa690613cce565b60405180910390fd5b60003411611af2576040517f08c379a0000000000000000000000000000000000000000000000000000000008152600401611ae99061408f565b60405180910390fd5b611b4a611afd6117b6565b600860003373ffffffffffffffffffffffffffffffffffffffff1673ffffffffffffffffffffffffffffffffffffffff168152602001908152602001600020612c8190919063ffffffff16565b158015611b5f5750600a54611b5d6117b6565b105b15611bbe57611bbc611b6f6117b6565b600860003373ffffffffffffffffffffffffffffffffffffffff1673ffffffffffffffffffffffffffffffffffffffff168152602001908152602001600020612c9b90919063ffffffff16565b505b600160009054906101000a900473ffffffffffffffffffffffffffffffffffffffff1673ffffffffffffffffffffffffffffffffffffffff16637ff36ab53488888888886040518763ffffffff1660e01b8152600401611c229594939291906140af565b60006040518083038185885af1158015611c40573d6000803e3d6000fd5b50505050506040513d6000823e3d601f19601f82011682018060405250810190611c6a9190613f42565b9050600a54600c5414611ca857611ca78160018351611c899190613c28565b81518110611c9a57611c99613ae7565b5b6020026020010151612dc7565b5b95945050505050565b60008060009054906101000a900473ffffffffffffffffffffffffffffffffffffffff16905090565b6005602052816000526040600020602052806000526040600020600091509150505481565b600080600090506000670de0b6b3a76400009050611d6484600860003373ffffffffffffffffffffffffffffffffffffffff1673ffffffffffffffffffffffffffffffffffffffff168152602001908152602001600020612c8190919063ffffffff16565b15611f2757611ddf600560003373ffffffffffffffffffffffffffffffffffffffff1673ffffffffffffffffffffffffffffffffffffffff168152602001908152602001600020600086815260200190815260200160002054670de0b6b3a7640000600660008881526020019081526020016000205461271c565b90506000600c54851015611e085760076000868152602001908152602001600020549050611f05565b600c54851415611f04576000611e1f600c546130c5565b90507f0000000000000000000000000000000000000000000000000000000000000000811115611e71577f00000000000000000000000000000000000000000000000000000000000000009050611ed1565b6000811415611e835760009050611ed0565b7f0000000000000000000000000000000000000000000000000000000000000000811015611ecf577f000000000000000000000000000000000000000000000000000000000000000090505b5b5b611f00600c54600a54611ee49190613c28565b600954611ef19190613fec565b82670de0b6b3a764000061271c565b9150505b5b611f188282670de0b6b3a764000061271c565b83611f239190613a19565b9250505b8192505050919050565b60076020528060005260406000206000915090505481565b611f51612bf0565b73ffffffffffffffffffffffffffffffffffffffff16611f6f611cb1565b73ffffffffffffffffffffffffffffffffffffffff1614611fc5576040517f08c379a0000000000000000000000000000000000000000000000000000000008152600401611fbc90613c08565b60405180910390fd5b80600954101561200a576040517f08c379a00000000000000000000000000000000000000000000000000000000081526004016120019061416f565b60405180910390fd5b806009600082825461201c9190613c28565b925050819055506120703382600360009054906101000a900473ffffffffffffffffffffffffffffffffffffffff1673ffffffffffffffffffffffffffffffffffffffff16612b6a9092919063ffffffff16565b50565b60046020528060005260406000206000915090505481565b6060600160009054906101000a900473ffffffffffffffffffffffffffffffffffffffff1673ffffffffffffffffffffffffffffffffffffffff1663d06ca61f8585856040518463ffffffff1660e01b81526004016120ec93929190613f8b565b600060405180830381865afa158015612109573d6000803e3d6000fd5b505050506040513d6000823e3d601f19601f820116820180604052508101906121329190613f42565b90509392505050565b60006121456117b6565b6001600c546121549190613a19565b111580156121665750600a54600c5414155b15806121755750600a54600c54145b905090565b612182612bf0565b73ffffffffffffffffffffffffffffffffffffffff166121a0611cb1565b73ffffffffffffffffffffffffffffffffffffffff16146121f6576040517f08c379a00000000000000000000000000000000000000000000000000000000081526004016121ed90613c08565b60405180910390fd5b600073ffffffffffffffffffffffffffffffffffffffff168173ffffffffffffffffffffffffffffffffffffffff161415612266576040517f08c379a000000000000000000000000000000000000000000000000000000000815260040161225d90614201565b60405180910390fd5b61226f81613001565b50565b6060600d60009054906101000a900473ffffffffffffffffffffffffffffffffffffffff1673ffffffffffffffffffffffffffffffffffffffff16858560008181106122c1576122c0613ae7565b5b90506020020160208101906122d691906139bd565b73ffffffffffffffffffffffffffffffffffffffff161461232c576040517f08c379a000000000000000000000000000000000000000000000000000000000815260040161232390613cce565b60405180910390fd5b600260009054906101000a900473ffffffffffffffffffffffffffffffffffffffff1673ffffffffffffffffffffffffffffffffffffffff1685856001888890506123779190613c28565b81811061238757612386613ae7565b5b905060200201602081019061239c91906139bd565b73ffffffffffffffffffffffffffffffffffffffff16146123f2576040517f08c379a00000000000000000000000000000000000000000000000000000000081526004016123e990613cce565b60405180910390fd5b6000600160009054906101000a900473ffffffffffffffffffffffffffffffffffffffff1673ffffffffffffffffffffffffffffffffffffffff16631f00ca748888886040518463ffffffff1660e01b815260040161245393929190613f8b565b600060405180830381865afa158015612470573d6000803e3d6000fd5b505050506040513d6000823e3d601f19601f820116820180604052508101906124999190613f42565b6000815181106124ac576124ab613ae7565b5b60200260200101519050803410156124f9576040517f08c379a00000000000000000000000000000000000000000000000000000000081526004016124f090614293565b60405180910390fd5b6125516125046117b6565b600860003373ffffffffffffffffffffffffffffffffffffffff1673ffffffffffffffffffffffffffffffffffffffff168152602001908152602001600020612c8190919063ffffffff16565b1580156125665750600a546125646117b6565b105b156125c5576125c36125766117b6565b600860003373ffffffffffffffffffffffffffffffffffffffff1673ffffffffffffffffffffffffffffffffffffffff168152602001908152602001600020612c9b90919063ffffffff16565b505b600a54600c54146125da576125d987612dc7565b5b80341115612635573373ffffffffffffffffffffffffffffffffffffffff166108fc82346126089190613c28565b9081150290604051600060405180830381858888f19350505050158015612633573d6000803e3d6000fd5b505b600160009054906101000a900473ffffffffffffffffffffffffffffffffffffffff1673ffffffffffffffffffffffffffffffffffffffff1663fb3bdb418289898989896040518763ffffffff1660e01b81526004016126999594939291906140af565b60006040518083038185885af11580156126b7573d6000803e3d6000fd5b50505050506040513d6000823e3d601f19601f820116820180604052508101906126e19190613f42565b91505095945050505050565b60006126fb82600001613107565b9050919050565b60006127118360000183613118565b60001c905092915050565b600080821161272a57600080fd5b600080600019858709858702925082811083820303915050600081141561275757838204925050506128b6565b83811061276357600080fd5b60008486880990508281118203915080830392506000600186196127879190613a19565b8616905080860495508084049350600181826000030401905080836127ac91906142b3565b84179350600060028760036127c191906142b3565b18905080876127d091906142b3565b60026127dc9190613c28565b816127e791906142b3565b905080876127f591906142b3565b60026128019190613c28565b8161280c91906142b3565b9050808761281a91906142b3565b60026128269190613c28565b8161283191906142b3565b9050808761283f91906142b3565b600261284b9190613c28565b8161285691906142b3565b9050808761286491906142b3565b60026128709190613c28565b8161287b91906142b3565b9050808761288991906142b3565b60026128959190613c28565b816128a091906142b3565b905080856128ae91906142b3565b955050505050505b9392505050565b60006128c76117b6565b905060006001600c54600b546128dd9190613a19565b6128e79190613a19565b9050816001600c546128f99190613a19565b11156129085761290761430d565b5b8060066000600c548152602001908152602001600020546129299190613fec565b61295560046000600c5481526020019081526020016000205460018461294f9190613c28565b8461271c565b61295f9190613a19565b600460006001600c546129729190613a19565b8152602001908152602001600020819055506000612991600c546130c5565b90507f00000000000000000000000000000000000000000000000000000000000000008111156129e3577f00000000000000000000000000000000000000000000000000000000000000009050612a43565b60008114156129f55760009050612a42565b7f0000000000000000000000000000000000000000000000000000000000000000811015612a41577f000000000000000000000000000000000000000000000000000000000000000090505b5b5b6001600a54612a529190613c28565b600c54148015612a695750670de0b6b3a764000081115b15612a8f5760095460076000600c54815260200190815260200160002081905550612ad8565b612abe600c54600a54612aa29190613c28565b600954612aaf9190613fec565b82670de0b6b3a764000061271c565b60076000600c548152602001908152602001600020819055505b60076000600c54815260200190815260200160002054600954612afb9190613c28565b6009819055506001600c6000828254612b149190613a19565b92505081905550826001600c54612b2b9190613a19565b11158015612b3d5750600a54600c5414155b15612b4b57612b4a6128bd565b5b505050565b6000612b62836000018360001b613143565b905092915050565b612beb8363a9059cbb60e01b8484604051602401612b89929190613b93565b604051602081830303815290604052907bffffffffffffffffffffffffffffffffffffffffffffffffffffffff19166020820180517bffffffffffffffffffffffffffffffffffffffffffffffffffffffff8381831617835250505050613257565b505050565b600033905090565b612c7b846323b872dd60e01b858585604051602401612c199392919061433c565b604051602081830303815290604052907bffffffffffffffffffffffffffffffffffffffffffffffffffffffff19166020820180517bffffffffffffffffffffffffffffffffffffffffffffffffffffffff8381831617835250505050613257565b50505050565b6000612c93836000018360001b61331e565b905092915050565b6000612cad836000018360001b613341565b905092915050565b6000818473ffffffffffffffffffffffffffffffffffffffff1663dd62ed3e30866040518363ffffffff1660e01b8152600401612cf3929190614373565b602060405180830381865afa158015612d10573d6000803e3d6000fd5b505050506040513d601f19601f82011682018060405250810190612d34919061439c565b612d3e9190613a19565b9050612dc18463095ea7b360e01b8584604051602401612d5f929190613b93565b604051602081830303815290604052907bffffffffffffffffffffffffffffffffffffffffffffffffffffffff19166020820180517bffffffffffffffffffffffffffffffffffffffffffffffffffffffff8381831617835250505050613257565b50505050565b600a54612dd26117b6565b1015612e785780600560003373ffffffffffffffffffffffffffffffffffffffff1673ffffffffffffffffffffffffffffffffffffffff1681526020019081526020016000206000612e226117b6565b81526020019081526020016000206000828254612e3f9190613a19565b925050819055508060066000612e536117b6565b81526020019081526020016000206000828254612e709190613a19565b925050819055505b612e806117b6565b6001600c54612e8f9190613a19565b11158015612ea15750600a54600c5414155b15612eaf57612eae6128bd565b5b50565b6000811480612f3c575060008373ffffffffffffffffffffffffffffffffffffffff1663dd62ed3e30856040518363ffffffff1660e01b8152600401612ef9929190614373565b602060405180830381865afa158015612f16573d6000803e3d6000fd5b505050506040513d601f19601f82011682018060405250810190612f3a919061439c565b145b612f7b576040517f08c379a0000000000000000000000000000000000000000000000000000000008152600401612f729061443b565b60405180910390fd5b612ffc8363095ea7b360e01b8484604051602401612f9a929190613b93565b604051602081830303815290604052907bffffffffffffffffffffffffffffffffffffffffffffffffffffffff19166020820180517bffffffffffffffffffffffffffffffffffffffffffffffffffffffff8381831617835250505050613257565b505050565b60008060009054906101000a900473ffffffffffffffffffffffffffffffffffffffff169050816000806101000a81548173ffffffffffffffffffffffffffffffffffffffff021916908373ffffffffffffffffffffffffffffffffffffffff1602179055508173ffffffffffffffffffffffffffffffffffffffff168173ffffffffffffffffffffffffffffffffffffffff167f8be0079c531659141344cd1fd0a4f28419497f9722a3daafe3b4186f6b6457e060405160405180910390a35050565b60006131006006600084815260200190815260200160002054670de0b6b3a7640000600460008681526020019081526020016000205461271c565b9050919050565b600081600001805490509050919050565b60008260000182815481106131305761312f613ae7565b5b9060005260206000200154905092915050565b6000808360010160008481526020019081526020016000205490506000811461324b5760006001826131759190613c28565b905060006001866000018054905061318d9190613c28565b90508181146131fc5760008660000182815481106131ae576131ad613ae7565b5b90600052602060002001549050808760000184815481106131d2576131d1613ae7565b5b90600052602060002001819055508387600101600083815260200190815260200160002081905550505b856000018054806132105761320f61445b565b5b600190038181906000526020600020016000905590558560010160008681526020019081526020016000206000905560019350505050613251565b60009150505b92915050565b60006132b9826040518060400160405280602081526020017f5361666545524332303a206c6f772d6c6576656c2063616c6c206661696c65648152508573ffffffffffffffffffffffffffffffffffffffff166133b19092919063ffffffff16565b905060008151111561331957808060200190518101906132d991906144b6565b613318576040517f08c379a000000000000000000000000000000000000000000000000000000000815260040161330f90614555565b60405180910390fd5b5b505050565b600080836001016000848152602001908152602001600020541415905092915050565b600061334d838361331e565b6133a65782600001829080600181540180825580915050600190039060005260206000200160009091909190915055826000018054905083600101600084815260200190815260200160002081905550600190506133ab565b600090505b92915050565b60606133c084846000856133c9565b90509392505050565b60608247101561340e576040517f08c379a0000000000000000000000000000000000000000000000000000000008152600401613405906145e7565b60405180910390fd5b613417856134dd565b613456576040517f08c379a000000000000000000000000000000000000000000000000000000000815260040161344d90614653565b60405180910390fd5b6000808673ffffffffffffffffffffffffffffffffffffffff16858760405161347f91906146ed565b60006040518083038185875af1925050503d80600081146134bc576040519150601f19603f3d011682016040523d82523d6000602084013e6134c1565b606091505b50915091506134d18282866134f0565b92505050949350505050565b600080823b905060008111915050919050565b6060831561350057829050613550565b6000835111156135135782518084602001fd5b816040517f08c379a00000000000000000000000000000000000000000000000000000000081526004016135479190614748565b60405180910390fd5b9392505050565b6000819050919050565b61356a81613557565b82525050565b60006020820190506135856000830184613561565b92915050565b6000604051905090565b600080fd5b600080fd5b6135a881613557565b81146135b357600080fd5b50565b6000813590506135c58161359f565b92915050565b6000602082840312156135e1576135e0613595565b5b60006135ef848285016135b6565b91505092915050565b600080fd5b600080fd5b600080fd5b60008083601f84011261361d5761361c6135f8565b5b8235905067ffffffffffffffff81111561363a576136396135fd565b5b60208301915083602082028301111561365657613655613602565b5b9250929050565b600073ffffffffffffffffffffffffffffffffffffffff82169050919050565b60006136888261365d565b9050919050565b6136988161367d565b81146136a357600080fd5b50565b6000813590506136b58161368f565b92915050565b60008060008060008060a087890312156136d8576136d7613595565b5b60006136e689828a016135b6565b96505060206136f789828a016135b6565b955050604087013567ffffffffffffffff8111156137185761371761359a565b5b61372489828a01613607565b9450945050606061373789828a016136a6565b925050608061374889828a016135b6565b9150509295509295509295565b600081519050919050565b600082825260208201905092915050565b6000819050602082019050919050565b61378a81613557565b82525050565b600061379c8383613781565b60208301905092915050565b6000602082019050919050565b60006137c082613755565b6137ca8185613760565b93506137d583613771565b8060005b838110156138065781516137ed8882613790565b97506137f8836137a8565b9250506001810190506137d9565b5085935050505092915050565b6000602082019050818103600083015261382d81846137b5565b905092915050565b60008060006040848603121561384e5761384d613595565b5b600061385c868287016135b6565b935050602084013567ffffffffffffffff81111561387d5761387c61359a565b5b61388986828701613607565b92509250509250925092565b6000806000806000608086880312156138b1576138b0613595565b5b60006138bf888289016135b6565b955050602086013567ffffffffffffffff8111156138e0576138df61359a565b5b6138ec88828901613607565b945094505060406138ff888289016136a6565b9250506060613910888289016135b6565b9150509295509295909350565b6139268161367d565b82525050565b6000602082019050613941600083018461391d565b92915050565b6000806040838503121561395e5761395d613595565b5b600061396c858286016136a6565b925050602061397d858286016135b6565b9150509250929050565b60008115159050919050565b61399c81613987565b82525050565b60006020820190506139b76000830184613993565b92915050565b6000602082840312156139d3576139d2613595565b5b60006139e1848285016136a6565b91505092915050565b7f4e487b7100000000000000000000000000000000000000000000000000000000600052601160045260246000fd5b6000613a2482613557565b9150613a2f83613557565b9250827fffffffffffffffffffffffffffffffffffffffffffffffffffffffffffffffff03821115613a6457613a636139ea565b5b828201905092915050565b6000613a7a82613557565b91507fffffffffffffffffffffffffffffffffffffffffffffffffffffffffffffffff821415613aad57613aac6139ea565b5b600182019050919050565b7f4e487b7100000000000000000000000000000000000000000000000000000000600052604160045260246000fd5b7f4e487b7100000000000000000000000000000000000000000000000000000000600052603260045260246000fd5b600082825260208201905092915050565b7f5b636c61696d416c6c526577617264735d204e6f207265776172642100000000600082015250565b6000613b5d601c83613b16565b9150613b6882613b27565b602082019050919050565b60006020820190508181036000830152613b8c81613b50565b9050919050565b6000604082019050613ba8600083018561391d565b613bb56020830184613561565b9392505050565b7f4f776e61626c653a2063616c6c6572206973206e6f7420746865206f776e6572600082015250565b6000613bf2602083613b16565b9150613bfd82613bbc565b602082019050919050565b60006020820190508181036000830152613c2181613be5565b9050919050565b6000613c3382613557565b9150613c3e83613557565b925082821015613c5157613c506139ea565b5b828203905092915050565b7f5b737761704578616374455448466f72546f6b656e735d20496e76616c69642060008201527f7061746821000000000000000000000000000000000000000000000000000000602082015250565b6000613cb8602583613b16565b9150613cc382613c5c565b604082019050919050565b60006020820190508181036000830152613ce781613cab565b9050919050565b600082825260208201905092915050565b6000819050919050565b613d128161367d565b82525050565b6000613d248383613d09565b60208301905092915050565b6000613d3f60208401846136a6565b905092915050565b6000602082019050919050565b6000613d608385613cee565b9350613d6b82613cff565b8060005b85811015613da457613d818284613d30565b613d8b8882613d18565b9750613d9683613d47565b925050600181019050613d6f565b5085925050509392505050565b600060a082019050613dc66000830189613561565b613dd36020830188613561565b8181036040830152613de6818688613d54565b9050613df5606083018561391d565b613e026080830184613561565b979650505050505050565b6000601f19601f8301169050919050565b613e2782613e0d565b810181811067ffffffffffffffff82111715613e4657613e45613ab8565b5b80604052505050565b6000613e5961358b565b9050613e658282613e1e565b919050565b600067ffffffffffffffff821115613e8557613e84613ab8565b5b602082029050602081019050919050565b600081519050613ea58161359f565b92915050565b6000613ebe613eb984613e6a565b613e4f565b90508083825260208201905060208402830185811115613ee157613ee0613602565b5b835b81811015613f0a5780613ef68882613e96565b845260208401935050602081019050613ee3565b5050509392505050565b600082601f830112613f2957613f286135f8565b5b8151613f39848260208601613eab565b91505092915050565b600060208284031215613f5857613f57613595565b5b600082015167ffffffffffffffff811115613f7657613f7561359a565b5b613f8284828501613f14565b91505092915050565b6000604082019050613fa06000830186613561565b8181036020830152613fb3818486613d54565b9050949350505050565b7f4e487b7100000000000000000000000000000000000000000000000000000000600052601260045260246000fd5b6000613ff782613557565b915061400283613557565b92508261401257614011613fbd565b5b828204905092915050565b7f5b737761704578616374455448466f72546f6b656e735d204e6f742061206d7360008201527f672e76616c756521000000000000000000000000000000000000000000000000602082015250565b6000614079602883613b16565b91506140848261401d565b604082019050919050565b600060208201905081810360008301526140a88161406c565b9050919050565b60006080820190506140c46000830188613561565b81810360208301526140d7818688613d54565b90506140e6604083018561391d565b6140f36060830184613561565b9695505050505050565b7f5b7769746864726177526577617264546f6b656e735d204e6f7420656e6f756760008201527f682062616c616e63652100000000000000000000000000000000000000000000602082015250565b6000614159602a83613b16565b9150614164826140fd565b604082019050919050565b600060208201905081810360008301526141888161414c565b9050919050565b7f4f776e61626c653a206e6577206f776e657220697320746865207a65726f206160008201527f6464726573730000000000000000000000000000000000000000000000000000602082015250565b60006141eb602683613b16565b91506141f68261418f565b604082019050919050565b6000602082019050818103600083015261421a816141de565b9050919050565b7f5b73776170455448466f724578616374546f6b656e735d204e6f7420656e6f7560008201527f6768206d73672e76616c75652100000000000000000000000000000000000000602082015250565b600061427d602d83613b16565b915061428882614221565b604082019050919050565b600060208201905081810360008301526142ac81614270565b9050919050565b60006142be82613557565b91506142c983613557565b9250817fffffffffffffffffffffffffffffffffffffffffffffffffffffffffffffffff0483118215151615614302576143016139ea565b5b828202905092915050565b7f4e487b7100000000000000000000000000000000000000000000000000000000600052600160045260246000fd5b6000606082019050614351600083018661391d565b61435e602083018561391d565b61436b6040830184613561565b949350505050565b6000604082019050614388600083018561391d565b614395602083018461391d565b9392505050565b6000602082840312156143b2576143b1613595565b5b60006143c084828501613e96565b91505092915050565b7f5361666545524332303a20617070726f76652066726f6d206e6f6e2d7a65726f60008201527f20746f206e6f6e2d7a65726f20616c6c6f77616e636500000000000000000000602082015250565b6000614425603683613b16565b9150614430826143c9565b604082019050919050565b6000602082019050818103600083015261445481614418565b9050919050565b7f4e487b7100000000000000000000000000000000000000000000000000000000600052603160045260246000fd5b61449381613987565b811461449e57600080fd5b50565b6000815190506144b08161448a565b92915050565b6000602082840312156144cc576144cb613595565b5b60006144da848285016144a1565b91505092915050565b7f5361666545524332303a204552433230206f7065726174696f6e20646964206e60008201527f6f74207375636365656400000000000000000000000000000000000000000000602082015250565b600061453f602a83613b16565b915061454a826144e3565b604082019050919050565b6000602082019050818103600083015261456e81614532565b9050919050565b7f416464726573733a20696e73756666696369656e742062616c616e636520666f60008201527f722063616c6c0000000000000000000000000000000000000000000000000000602082015250565b60006145d1602683613b16565b91506145dc82614575565b604082019050919050565b60006020820190508181036000830152614600816145c4565b9050919050565b7f416464726573733a2063616c6c20746f206e6f6e2d636f6e7472616374000000600082015250565b600061463d601d83613b16565b915061464882614607565b602082019050919050565b6000602082019050818103600083015261466c81614630565b9050919050565b600081519050919050565b600081905092915050565b60005b838110156146a757808201518184015260208101905061468c565b838111156146b6576000848401525b50505050565b60006146c782614673565b6146d1818561467e565b93506146e1818560208601614689565b80840191505092915050565b60006146f982846146bc565b915081905092915050565b600081519050919050565b600061471a82614704565b6147248185613b16565b9350614734818560208601614689565b61473d81613e0d565b840191505092915050565b60006020820190508181036000830152614762818461470f565b90509291505056fea26469706673582212201bbb0512eda25180b77b0ccbab1c642145a082deab6be6a473732c22772c0be964736f6c634300080b0033",
  "linkReferences": {},
  "deployedLinkReferences": {}
}