{
  "_format": "hh-sol-artifact-1",
  "contractName": "TradeFarming",
  "sourceName": "contracts/trade-farming/TradeFarming.sol",
  "abi": [
    {
      "inputs": [
        {
          "internalType": "address",
          "name": "_routerAddress",
          "type": "address"
        },
        {
          "internalType": "address",
          "name": "_tokenAddress",
          "type": "address"
        },
        {
          "internalType": "address",
          "name": "_rewardAddress",
          "type": "address"
        },
        {
          "internalType": "uint256",
          "name": "_previousVolume",
          "type": "uint256"
        },
        {
          "internalType": "uint256",
          "name": "_previousDay",
          "type": "uint256"
        },
        {
          "internalType": "uint256",
          "name": "_totalDays",
          "type": "uint256"
        },
        {
          "internalType": "uint256",
          "name": "_upLimit",
          "type": "uint256"
        },
        {
          "internalType": "uint256",
          "name": "_downLimit",
          "type": "uint256"
        }
      ],
      "stateMutability": "nonpayable",
      "type": "constructor"
    },
    {
      "anonymous": false,
      "inputs": [
        {
          "indexed": true,
          "internalType": "address",
          "name": "previousOwner",
          "type": "address"
        },
        {
          "indexed": true,
          "internalType": "address",
          "name": "newOwner",
          "type": "address"
        }
      ],
      "name": "OwnershipTransferred",
      "type": "event"
    },
    {
      "anonymous": false,
      "inputs": [
        {
          "indexed": false,
          "internalType": "address",
          "name": "_user",
          "type": "address"
        },
        {
          "indexed": false,
          "internalType": "uint256",
          "name": "_amount",
          "type": "uint256"
        }
      ],
      "name": "RewardClaimed",
      "type": "event"
    },
    {
      "inputs": [],
      "name": "calcDay",
      "outputs": [
        {
          "internalType": "uint256",
          "name": "",
          "type": "uint256"
        }
      ],
      "stateMutability": "view",
      "type": "function"
    },
    {
      "inputs": [
        {
          "internalType": "uint256",
          "name": "day",
          "type": "uint256"
        }
      ],
      "name": "calculateDailyUserReward",
      "outputs": [
        {
          "internalType": "uint256",
          "name": "",
          "type": "uint256"
        }
      ],
      "stateMutability": "view",
      "type": "function"
    },
    {
      "inputs": [],
      "name": "calculateUserRewards",
      "outputs": [
        {
          "internalType": "uint256",
          "name": "",
          "type": "uint256"
        }
      ],
      "stateMutability": "view",
      "type": "function"
    },
    {
      "inputs": [
        {
          "internalType": "uint256",
          "name": "newTotalDays",
          "type": "uint256"
        }
      ],
      "name": "changeTotalDays",
      "outputs": [],
      "stateMutability": "nonpayable",
      "type": "function"
    },
    {
      "inputs": [],
      "name": "claimAllRewards",
      "outputs": [],
      "stateMutability": "nonpayable",
      "type": "function"
    },
    {
      "inputs": [
        {
          "internalType": "uint256",
          "name": "",
          "type": "uint256"
        }
      ],
      "name": "dailyRewards",
      "outputs": [
        {
          "internalType": "uint256",
          "name": "",
          "type": "uint256"
        }
      ],
      "stateMutability": "view",
      "type": "function"
    },
    {
      "inputs": [
        {
          "internalType": "uint256",
          "name": "",
          "type": "uint256"
        }
      ],
      "name": "dailyVolumes",
      "outputs": [
        {
          "internalType": "uint256",
          "name": "",
          "type": "uint256"
        }
      ],
      "stateMutability": "view",
      "type": "function"
    },
    {
      "inputs": [
        {
          "internalType": "uint256",
          "name": "amount",
          "type": "uint256"
        }
      ],
      "name": "depositRewardTokens",
      "outputs": [],
      "stateMutability": "nonpayable",
      "type": "function"
    },
    {
      "inputs": [
        {
          "internalType": "uint256",
          "name": "amountOut",
          "type": "uint256"
        },
        {
          "internalType": "address[]",
          "name": "path",
          "type": "address[]"
        }
      ],
      "name": "getAmountsIn",
      "outputs": [
        {
          "internalType": "uint256[]",
          "name": "amounts",
          "type": "uint256[]"
        }
      ],
      "stateMutability": "view",
      "type": "function"
    },
    {
      "inputs": [
        {
          "internalType": "uint256",
          "name": "amountIn",
          "type": "uint256"
        },
        {
          "internalType": "address[]",
          "name": "path",
          "type": "address[]"
        }
      ],
      "name": "getAmountsOut",
      "outputs": [
        {
          "internalType": "uint256[]",
          "name": "amounts",
          "type": "uint256[]"
        }
      ],
      "stateMutability": "view",
      "type": "function"
    },
    {
      "inputs": [],
      "name": "isCalculated",
      "outputs": [
        {
          "internalType": "bool",
          "name": "",
          "type": "bool"
        }
      ],
      "stateMutability": "view",
      "type": "function"
    },
    {
      "inputs": [],
      "name": "owner",
      "outputs": [
        {
          "internalType": "address",
          "name": "",
          "type": "address"
        }
      ],
      "stateMutability": "view",
      "type": "function"
    },
    {
      "inputs": [
        {
          "internalType": "uint256",
          "name": "",
          "type": "uint256"
        }
      ],
      "name": "previousVolumes",
      "outputs": [
        {
          "internalType": "uint256",
          "name": "",
          "type": "uint256"
        }
      ],
      "stateMutability": "view",
      "type": "function"
    },
    {
      "inputs": [],
      "name": "renounceOwnership",
      "outputs": [],
      "stateMutability": "nonpayable",
      "type": "function"
    },
    {
      "inputs": [
        {
          "internalType": "uint256",
          "name": "amountOut",
          "type": "uint256"
        },
        {
          "internalType": "address[]",
          "name": "path",
          "type": "address[]"
        },
        {
          "internalType": "address",
          "name": "to",
          "type": "address"
        },
        {
          "internalType": "uint256",
          "name": "deadline",
          "type": "uint256"
        }
      ],
      "name": "swapETHForExactTokens",
      "outputs": [
        {
          "internalType": "uint256[]",
          "name": "",
          "type": "uint256[]"
        }
      ],
      "stateMutability": "payable",
      "type": "function"
    },
    {
      "inputs": [
        {
          "internalType": "uint256",
          "name": "amountOutMin",
          "type": "uint256"
        },
        {
          "internalType": "address[]",
          "name": "path",
          "type": "address[]"
        },
        {
          "internalType": "address",
          "name": "to",
          "type": "address"
        },
        {
          "internalType": "uint256",
          "name": "deadline",
          "type": "uint256"
        }
      ],
      "name": "swapExactETHForTokens",
      "outputs": [
        {
          "internalType": "uint256[]",
          "name": "out",
          "type": "uint256[]"
        }
      ],
      "stateMutability": "payable",
      "type": "function"
    },
    {
      "inputs": [
        {
          "internalType": "uint256",
          "name": "amountIn",
          "type": "uint256"
        },
        {
          "internalType": "uint256",
          "name": "amountOutMin",
          "type": "uint256"
        },
        {
          "internalType": "address[]",
          "name": "path",
          "type": "address[]"
        },
        {
          "internalType": "address",
          "name": "to",
          "type": "address"
        },
        {
          "internalType": "uint256",
          "name": "deadline",
          "type": "uint256"
        }
      ],
      "name": "swapExactTokensForETH",
      "outputs": [
        {
          "internalType": "uint256[]",
          "name": "",
          "type": "uint256[]"
        }
      ],
      "stateMutability": "nonpayable",
      "type": "function"
    },
    {
      "inputs": [
        {
          "internalType": "uint256",
          "name": "amountOut",
          "type": "uint256"
        },
        {
          "internalType": "uint256",
          "name": "amountInMax",
          "type": "uint256"
        },
        {
          "internalType": "address[]",
          "name": "path",
          "type": "address[]"
        },
        {
          "internalType": "address",
          "name": "to",
          "type": "address"
        },
        {
          "internalType": "uint256",
          "name": "deadline",
          "type": "uint256"
        }
      ],
      "name": "swapTokensForExactETH",
      "outputs": [
        {
          "internalType": "uint256[]",
          "name": "out",
          "type": "uint256[]"
        }
      ],
      "stateMutability": "nonpayable",
      "type": "function"
    },
    {
      "inputs": [],
      "name": "totalDays",
      "outputs": [
        {
          "internalType": "uint256",
          "name": "",
          "type": "uint256"
        }
      ],
      "stateMutability": "view",
      "type": "function"
    },
    {
      "inputs": [],
      "name": "totalRewardBalance",
      "outputs": [
        {
          "internalType": "uint256",
          "name": "",
          "type": "uint256"
        }
      ],
      "stateMutability": "view",
      "type": "function"
    },
    {
      "inputs": [
        {
          "internalType": "address",
          "name": "newOwner",
          "type": "address"
        }
      ],
      "name": "transferOwnership",
      "outputs": [],
      "stateMutability": "nonpayable",
      "type": "function"
    },
    {
      "inputs": [
        {
          "internalType": "address",
          "name": "",
          "type": "address"
        },
        {
          "internalType": "uint256",
          "name": "",
          "type": "uint256"
        }
      ],
      "name": "volumeRecords",
      "outputs": [
        {
          "internalType": "uint256",
          "name": "",
          "type": "uint256"
        }
      ],
      "stateMutability": "view",
      "type": "function"
    },
    {
      "inputs": [
        {
          "internalType": "uint256",
          "name": "amount",
          "type": "uint256"
        }
      ],
      "name": "withdrawRewardTokens",
      "outputs": [],
      "stateMutability": "nonpayable",
      "type": "function"
    }
  ],
  "bytecode": "0x60e060405260006009556000600c553480156200001b57600080fd5b5060405162004d8d38038062004d8d8339818101604052810190620000419190620003fb565b62000061620000556200028a60201b60201c565b6200029260201b60201c565b426080818152505087600160006101000a81548173ffffffffffffffffffffffffffffffffffffffff021916908373ffffffffffffffffffffffffffffffffffffffff16021790555086600260006101000a81548173ffffffffffffffffffffffffffffffffffffffff021916908373ffffffffffffffffffffffffffffffffffffffff16021790555085600360006101000a81548173ffffffffffffffffffffffffffffffffffffffff021916908373ffffffffffffffffffffffffffffffffffffffff16021790555084600460008081526020019081526020016000208190555083600b8190555082600a81905550600160009054906101000a900473ffffffffffffffffffffffffffffffffffffffff1673ffffffffffffffffffffffffffffffffffffffff1663ad5c46486040518163ffffffff1660e01b8152600401602060405180830381865afa158015620001c0573d6000803e3d6000fd5b505050506040513d601f19601f82011682018060405250810190620001e69190620004c4565b600d60006101000a81548173ffffffffffffffffffffffffffffffffffffffff021916908373ffffffffffffffffffffffffffffffffffffffff160217905550606482670de0b6b3a76400006200023e919062000525565b6200024a9190620005b5565b60a08181525050606481670de0b6b3a764000062000269919062000525565b620002759190620005b5565b60c081815250505050505050505050620005ed565b600033905090565b60008060009054906101000a900473ffffffffffffffffffffffffffffffffffffffff169050816000806101000a81548173ffffffffffffffffffffffffffffffffffffffff021916908373ffffffffffffffffffffffffffffffffffffffff1602179055508173ffffffffffffffffffffffffffffffffffffffff168173ffffffffffffffffffffffffffffffffffffffff167f8be0079c531659141344cd1fd0a4f28419497f9722a3daafe3b4186f6b6457e060405160405180910390a35050565b600080fd5b600073ffffffffffffffffffffffffffffffffffffffff82169050919050565b600062000388826200035b565b9050919050565b6200039a816200037b565b8114620003a657600080fd5b50565b600081519050620003ba816200038f565b92915050565b6000819050919050565b620003d581620003c0565b8114620003e157600080fd5b50565b600081519050620003f581620003ca565b92915050565b600080600080600080600080610100898b0312156200041f576200041e62000356565b5b60006200042f8b828c01620003a9565b9850506020620004428b828c01620003a9565b9750506040620004558b828c01620003a9565b9650506060620004688b828c01620003e4565b95505060806200047b8b828c01620003e4565b94505060a06200048e8b828c01620003e4565b93505060c0620004a18b828c01620003e4565b92505060e0620004b48b828c01620003e4565b9150509295985092959890939650565b600060208284031215620004dd57620004dc62000356565b5b6000620004ed84828501620003a9565b91505092915050565b7f4e487b7100000000000000000000000000000000000000000000000000000000600052601160045260246000fd5b60006200053282620003c0565b91506200053f83620003c0565b9250817fffffffffffffffffffffffffffffffffffffffffffffffffffffffffffffffff04831182151516156200057b576200057a620004f6565b5b828202905092915050565b7f4e487b7100000000000000000000000000000000000000000000000000000000600052601260045260246000fd5b6000620005c282620003c0565b9150620005cf83620003c0565b925082620005e257620005e162000586565b5b828204905092915050565b60805160a05160c0516147466200064760003960008181611e2b01528181611e530152818161299d01526129c5015260008181611dc901528181611df10152818161293b01526129630152600061178801526147466000f3fe6080604052600436106101405760003560e01c80637e2ca288116100b6578063cb43b2dd1161006f578063cb43b2dd14610477578063ceb7f995146104a0578063d06ca61f146104dd578063de2af4b01461051a578063f2fde38b14610545578063fb3bdb411461056e57610140565b80637e2ca2881461033a5780637ff36ab5146103655780638da5cb5b14610395578063940ce872146103c057806394f55789146103fd578063b203dc601461043a57610140565b80631f00ca74116101085780631f00ca74146102185780631f924d86146102555780634a25d94a146102925780636572ca0c146102cf578063715018a6146102fa57806378fb427a1461031157610140565b8063078e36491461014557806307a779bc146101705780630b83a7271461019b57806316c621e0146101b257806318cbafe5146101db575b600080fd5b34801561015157600080fd5b5061015a61059e565b6040516101679190613516565b60405180910390f35b34801561017c57600080fd5b506101856105a4565b6040516101929190613516565b60405180910390f35b3480156101a757600080fd5b506101b061081b565b005b3480156101be57600080fd5b506101d960048036038101906101d49190613571565b610cd7565b005b3480156101e757600080fd5b5061020260048036038101906101fd9190613661565b610dbe565b60405161020f91906137b9565b60405180910390f35b34801561022457600080fd5b5061023f600480360381019061023a91906137db565b611196565b60405161024c91906137b9565b60405180910390f35b34801561026157600080fd5b5061027c60048036038101906102779190613571565b611246565b6040516102899190613516565b60405180910390f35b34801561029e57600080fd5b506102b960048036038101906102b49190613661565b61125e565b6040516102c691906137b9565b60405180910390f35b3480156102db57600080fd5b506102e4611780565b6040516102f19190613516565b60405180910390f35b34801561030657600080fd5b5061030f6117c1565b005b34801561031d57600080fd5b5061033860048036038101906103339190613571565b611849565b005b34801561034657600080fd5b5061034f6118cf565b60405161035c9190613516565b60405180910390f35b61037f600480360381019061037a919061383b565b6118d5565b60405161038c91906137b9565b60405180910390f35b3480156103a157600080fd5b506103aa611c57565b6040516103b791906138d2565b60405180910390f35b3480156103cc57600080fd5b506103e760048036038101906103e291906138ed565b611c80565b6040516103f49190613516565b60405180910390f35b34801561040957600080fd5b50610424600480360381019061041f9190613571565b611ca5565b6040516104319190613516565b60405180910390f35b34801561044657600080fd5b50610461600480360381019061045c9190613571565b611ed7565b60405161046e9190613516565b60405180910390f35b34801561048357600080fd5b5061049e60048036038101906104999190613571565b611eef565b005b3480156104ac57600080fd5b506104c760048036038101906104c29190613571565b612019565b6040516104d49190613516565b60405180910390f35b3480156104e957600080fd5b5061050460048036038101906104ff91906137db565b612031565b60405161051191906137b9565b60405180910390f35b34801561052657600080fd5b5061052f6120e1565b60405161053c9190613948565b60405180910390f35b34801561055157600080fd5b5061056c60048036038101906105679190613963565b612120565b005b6105886004803603810190610583919061383b565b612218565b60405161059591906137b9565b60405180910390f35b600a5481565b600080600090506000670de0b6b3a7640000905060005b610602600860003373ffffffffffffffffffffffffffffffffffffffff1673ffffffffffffffffffffffffffffffffffffffff168152602001908152602001600020612693565b81101561081257600c5461065d82600860003373ffffffffffffffffffffffffffffffffffffffff1673ffffffffffffffffffffffffffffffffffffffff1681526020019081526020016000206126a890919063ffffffff16565b10156107ff57610779600560003373ffffffffffffffffffffffffffffffffffffffff1673ffffffffffffffffffffffffffffffffffffffff16815260200190815260200160002060006106f884600860003373ffffffffffffffffffffffffffffffffffffffff1673ffffffffffffffffffffffffffffffffffffffff1681526020019081526020016000206126a890919063ffffffff16565b815260200190815260200160002054670de0b6b3a76400006006600061076586600860003373ffffffffffffffffffffffffffffffffffffffff1673ffffffffffffffffffffffffffffffffffffffff1681526020019081526020016000206126a890919063ffffffff16565b8152602001908152602001600020546126c2565b91506107f182600760006107d485600860003373ffffffffffffffffffffffffffffffffffffffff1673ffffffffffffffffffffffffffffffffffffffff1681526020019081526020016000206126a890919063ffffffff16565b815260200190815260200160002054670de0b6b3a76400006126c2565b836107fc91906139bf565b92505b808061080a90613a15565b9150506105bb565b50819250505090565b610823611780565b6001600c5461083291906139bf565b111580156108445750600a54600c5414155b1561085257610851612863565b5b600080670de0b6b3a7640000905060006108a9600860003373ffffffffffffffffffffffffffffffffffffffff1673ffffffffffffffffffffffffffffffffffffffff168152602001908152602001600020612693565b905060008167ffffffffffffffff8111156108c7576108c6613a5e565b5b6040519080825280602002602001820160405280156108f55781602001602082028036833780820191505090505b50905060005b82811015610b7c57600c5461095782600860003373ffffffffffffffffffffffffffffffffffffffff1673ffffffffffffffffffffffffffffffffffffffff1681526020019081526020016000206126a890919063ffffffff16565b1015610b6957610a73600560003373ffffffffffffffffffffffffffffffffffffffff1673ffffffffffffffffffffffffffffffffffffffff16815260200190815260200160002060006109f284600860003373ffffffffffffffffffffffffffffffffffffffff1673ffffffffffffffffffffffffffffffffffffffff1681526020019081526020016000206126a890919063ffffffff16565b815260200190815260200160002054670de0b6b3a764000060066000610a5f86600860003373ffffffffffffffffffffffffffffffffffffffff1673ffffffffffffffffffffffffffffffffffffffff1681526020019081526020016000206126a890919063ffffffff16565b8152602001908152602001600020546126c2565b9350610aeb8460076000610ace85600860003373ffffffffffffffffffffffffffffffffffffffff1673ffffffffffffffffffffffffffffffffffffffff1681526020019081526020016000206126a890919063ffffffff16565b815260200190815260200160002054670de0b6b3a76400006126c2565b85610af691906139bf565b9450610b4981600860003373ffffffffffffffffffffffffffffffffffffffff1673ffffffffffffffffffffffffffffffffffffffff1681526020019081526020016000206126a890919063ffffffff16565b828281518110610b5c57610b5b613a8d565b5b6020026020010181815250505b8080610b7490613a15565b9150506108fb565b5060005b82811015610c0757610bf3828281518110610b9e57610b9d613a8d565b5b6020026020010151600860003373ffffffffffffffffffffffffffffffffffffffff1673ffffffffffffffffffffffffffffffffffffffff168152602001908152602001600020612af690919063ffffffff16565b508080610bff90613a15565b915050610b80565b5060008411610c4b576040517f08c379a0000000000000000000000000000000000000000000000000000000008152600401610c4290613b19565b60405180910390fd5b610c983385600360009054906101000a900473ffffffffffffffffffffffffffffffffffffffff1673ffffffffffffffffffffffffffffffffffffffff16612b109092919063ffffffff16565b7f106f923f993c2149d49b4255ff723acafa1f2d94393f561d3eda32ae348f72413385604051610cc9929190613b39565b60405180910390a150505050565b610cdf612b96565b73ffffffffffffffffffffffffffffffffffffffff16610cfd611c57565b73ffffffffffffffffffffffffffffffffffffffff1614610d53576040517f08c379a0000000000000000000000000000000000000000000000000000000008152600401610d4a90613bae565b60405180910390fd5b8060096000828254610d6591906139bf565b92505081905550610dbb333083600360009054906101000a900473ffffffffffffffffffffffffffffffffffffffff1673ffffffffffffffffffffffffffffffffffffffff16612b9e909392919063ffffffff16565b50565b6060600d60009054906101000a900473ffffffffffffffffffffffffffffffffffffffff1673ffffffffffffffffffffffffffffffffffffffff168585600188889050610e0b9190613bce565b818110610e1b57610e1a613a8d565b5b9050602002016020810190610e309190613963565b73ffffffffffffffffffffffffffffffffffffffff1614610e86576040517f08c379a0000000000000000000000000000000000000000000000000000000008152600401610e7d90613c74565b60405180910390fd5b600260009054906101000a900473ffffffffffffffffffffffffffffffffffffffff1673ffffffffffffffffffffffffffffffffffffffff1685856000818110610ed357610ed2613a8d565b5b9050602002016020810190610ee89190613963565b73ffffffffffffffffffffffffffffffffffffffff1614610f3e576040517f08c379a0000000000000000000000000000000000000000000000000000000008152600401610f3590613c74565b60405180910390fd5b610f96610f49611780565b600860003373ffffffffffffffffffffffffffffffffffffffff1673ffffffffffffffffffffffffffffffffffffffff168152602001908152602001600020612c2790919063ffffffff16565b158015610fab5750600a54610fa9611780565b105b1561100a57611008610fbb611780565b600860003373ffffffffffffffffffffffffffffffffffffffff1673ffffffffffffffffffffffffffffffffffffffff168152602001908152602001600020612c4190919063ffffffff16565b505b611059333089600260009054906101000a900473ffffffffffffffffffffffffffffffffffffffff1673ffffffffffffffffffffffffffffffffffffffff16612b9e909392919063ffffffff16565b6110c8600160009054906101000a900473ffffffffffffffffffffffffffffffffffffffff1688600260009054906101000a900473ffffffffffffffffffffffffffffffffffffffff1673ffffffffffffffffffffffffffffffffffffffff16612c5b9092919063ffffffff16565b600a54600c54146110dd576110dc87612d6d565b5b600160009054906101000a900473ffffffffffffffffffffffffffffffffffffffff1673ffffffffffffffffffffffffffffffffffffffff166318cbafe58888888888886040518763ffffffff1660e01b815260040161114296959493929190613d57565b6000604051808303816000875af1158015611161573d6000803e3d6000fd5b505050506040513d6000823e3d601f19601f8201168201806040525081019061118a9190613ee8565b90509695505050505050565b6060600160009054906101000a900473ffffffffffffffffffffffffffffffffffffffff1673ffffffffffffffffffffffffffffffffffffffff16631f00ca748585856040518463ffffffff1660e01b81526004016111f793929190613f31565b600060405180830381865afa158015611214573d6000803e3d6000fd5b505050506040513d6000823e3d601f19601f8201168201806040525081019061123d9190613ee8565b90509392505050565b60066020528060005260406000206000915090505481565b6060600d60009054906101000a900473ffffffffffffffffffffffffffffffffffffffff1673ffffffffffffffffffffffffffffffffffffffff1685856001888890506112ab9190613bce565b8181106112bb576112ba613a8d565b5b90506020020160208101906112d09190613963565b73ffffffffffffffffffffffffffffffffffffffff1614611326576040517f08c379a000000000000000000000000000000000000000000000000000000000815260040161131d90613c74565b60405180910390fd5b600260009054906101000a900473ffffffffffffffffffffffffffffffffffffffff1673ffffffffffffffffffffffffffffffffffffffff168585600081811061137357611372613a8d565b5b90506020020160208101906113889190613963565b73ffffffffffffffffffffffffffffffffffffffff16146113de576040517f08c379a00000000000000000000000000000000000000000000000000000000081526004016113d590613c74565b60405180910390fd5b6114366113e9611780565b600860003373ffffffffffffffffffffffffffffffffffffffff1673ffffffffffffffffffffffffffffffffffffffff168152602001908152602001600020612c2790919063ffffffff16565b15801561144b5750600a54611449611780565b105b156114aa576114a861145b611780565b600860003373ffffffffffffffffffffffffffffffffffffffff1673ffffffffffffffffffffffffffffffffffffffff168152602001908152602001600020612c4190919063ffffffff16565b505b6115b83330600160009054906101000a900473ffffffffffffffffffffffffffffffffffffffff1673ffffffffffffffffffffffffffffffffffffffff16631f00ca748b8a8a6040518463ffffffff1660e01b815260040161150e93929190613f31565b600060405180830381865afa15801561152b573d6000803e3d6000fd5b505050506040513d6000823e3d601f19601f820116820180604052508101906115549190613ee8565b60008151811061156757611566613a8d565b5b6020026020010151600260009054906101000a900473ffffffffffffffffffffffffffffffffffffffff1673ffffffffffffffffffffffffffffffffffffffff16612b9e909392919063ffffffff16565b611627600160009054906101000a900473ffffffffffffffffffffffffffffffffffffffff1687600260009054906101000a900473ffffffffffffffffffffffffffffffffffffffff1673ffffffffffffffffffffffffffffffffffffffff16612c5b9092919063ffffffff16565b600160009054906101000a900473ffffffffffffffffffffffffffffffffffffffff1673ffffffffffffffffffffffffffffffffffffffff16634a25d94a8888888888886040518763ffffffff1660e01b815260040161168c96959493929190613d57565b6000604051808303816000875af11580156116ab573d6000803e3d6000fd5b505050506040513d6000823e3d601f19601f820116820180604052508101906116d49190613ee8565b9050600a54600c541461170657611705816000815181106116f8576116f7613a8d565b5b6020026020010151612d6d565b5b611776600160009054906101000a900473ffffffffffffffffffffffffffffffffffffffff166000600260009054906101000a900473ffffffffffffffffffffffffffffffffffffffff1673ffffffffffffffffffffffffffffffffffffffff16612e589092919063ffffffff16565b9695505050505050565b6000620151807f0000000000000000000000000000000000000000000000000000000000000000426117b29190613bce565b6117bc9190613f92565b905090565b6117c9612b96565b73ffffffffffffffffffffffffffffffffffffffff166117e7611c57565b73ffffffffffffffffffffffffffffffffffffffff161461183d576040517f08c379a000000000000000000000000000000000000000000000000000000000815260040161183490613bae565b60405180910390fd5b6118476000612fa7565b565b611851612b96565b73ffffffffffffffffffffffffffffffffffffffff1661186f611c57565b73ffffffffffffffffffffffffffffffffffffffff16146118c5576040517f08c379a00000000000000000000000000000000000000000000000000000000081526004016118bc90613bae565b60405180910390fd5b80600a8190555050565b60095481565b6060600d60009054906101000a900473ffffffffffffffffffffffffffffffffffffffff1673ffffffffffffffffffffffffffffffffffffffff168585600081811061192457611923613a8d565b5b90506020020160208101906119399190613963565b73ffffffffffffffffffffffffffffffffffffffff161461198f576040517f08c379a000000000000000000000000000000000000000000000000000000000815260040161198690613c74565b60405180910390fd5b600260009054906101000a900473ffffffffffffffffffffffffffffffffffffffff1673ffffffffffffffffffffffffffffffffffffffff1685856001888890506119da9190613bce565b8181106119ea576119e9613a8d565b5b90506020020160208101906119ff9190613963565b73ffffffffffffffffffffffffffffffffffffffff1614611a55576040517f08c379a0000000000000000000000000000000000000000000000000000000008152600401611a4c90613c74565b60405180910390fd5b60003411611a98576040517f08c379a0000000000000000000000000000000000000000000000000000000008152600401611a8f90614035565b60405180910390fd5b611af0611aa3611780565b600860003373ffffffffffffffffffffffffffffffffffffffff1673ffffffffffffffffffffffffffffffffffffffff168152602001908152602001600020612c2790919063ffffffff16565b158015611b055750600a54611b03611780565b105b15611b6457611b62611b15611780565b600860003373ffffffffffffffffffffffffffffffffffffffff1673ffffffffffffffffffffffffffffffffffffffff168152602001908152602001600020612c4190919063ffffffff16565b505b600160009054906101000a900473ffffffffffffffffffffffffffffffffffffffff1673ffffffffffffffffffffffffffffffffffffffff16637ff36ab53488888888886040518763ffffffff1660e01b8152600401611bc8959493929190614055565b60006040518083038185885af1158015611be6573d6000803e3d6000fd5b50505050506040513d6000823e3d601f19601f82011682018060405250810190611c109190613ee8565b9050600a54600c5414611c4e57611c4d8160018351611c2f9190613bce565b81518110611c4057611c3f613a8d565b5b6020026020010151612d6d565b5b95945050505050565b60008060009054906101000a900473ffffffffffffffffffffffffffffffffffffffff16905090565b6005602052816000526040600020602052806000526040600020600091509150505481565b600080600090506000670de0b6b3a76400009050611d0a84600860003373ffffffffffffffffffffffffffffffffffffffff1673ffffffffffffffffffffffffffffffffffffffff168152602001908152602001600020612c2790919063ffffffff16565b15611ecd57611d85600560003373ffffffffffffffffffffffffffffffffffffffff1673ffffffffffffffffffffffffffffffffffffffff168152602001908152602001600020600086815260200190815260200160002054670de0b6b3a764000060066000888152602001908152602001600020546126c2565b90506000600c54851015611dae5760076000868152602001908152602001600020549050611eab565b600c54851415611eaa576000611dc5600c5461306b565b90507f0000000000000000000000000000000000000000000000000000000000000000811115611e17577f00000000000000000000000000000000000000000000000000000000000000009050611e77565b6000811415611e295760009050611e76565b7f0000000000000000000000000000000000000000000000000000000000000000811015611e75577f000000000000000000000000000000000000000000000000000000000000000090505b5b5b611ea6600c54600a54611e8a9190613bce565b600954611e979190613f92565b82670de0b6b3a76400006126c2565b9150505b5b611ebe8282670de0b6b3a76400006126c2565b83611ec991906139bf565b9250505b8192505050919050565b60076020528060005260406000206000915090505481565b611ef7612b96565b73ffffffffffffffffffffffffffffffffffffffff16611f15611c57565b73ffffffffffffffffffffffffffffffffffffffff1614611f6b576040517f08c379a0000000000000000000000000000000000000000000000000000000008152600401611f6290613bae565b60405180910390fd5b806009541015611fb0576040517f08c379a0000000000000000000000000000000000000000000000000000000008152600401611fa790614115565b60405180910390fd5b8060096000828254611fc29190613bce565b925050819055506120163382600360009054906101000a900473ffffffffffffffffffffffffffffffffffffffff1673ffffffffffffffffffffffffffffffffffffffff16612b109092919063ffffffff16565b50565b60046020528060005260406000206000915090505481565b6060600160009054906101000a900473ffffffffffffffffffffffffffffffffffffffff1673ffffffffffffffffffffffffffffffffffffffff1663d06ca61f8585856040518463ffffffff1660e01b815260040161209293929190613f31565b600060405180830381865afa1580156120af573d6000803e3d6000fd5b505050506040513d6000823e3d601f19601f820116820180604052508101906120d89190613ee8565b90509392505050565b60006120eb611780565b6001600c546120fa91906139bf565b1115801561210c5750600a54600c5414155b158061211b5750600a54600c54145b905090565b612128612b96565b73ffffffffffffffffffffffffffffffffffffffff16612146611c57565b73ffffffffffffffffffffffffffffffffffffffff161461219c576040517f08c379a000000000000000000000000000000000000000000000000000000000815260040161219390613bae565b60405180910390fd5b600073ffffffffffffffffffffffffffffffffffffffff168173ffffffffffffffffffffffffffffffffffffffff16141561220c576040517f08c379a0000000000000000000000000000000000000000000000000000000008152600401612203906141a7565b60405180910390fd5b61221581612fa7565b50565b6060600d60009054906101000a900473ffffffffffffffffffffffffffffffffffffffff1673ffffffffffffffffffffffffffffffffffffffff168585600081811061226757612266613a8d565b5b905060200201602081019061227c9190613963565b73ffffffffffffffffffffffffffffffffffffffff16146122d2576040517f08c379a00000000000000000000000000000000000000000000000000000000081526004016122c990613c74565b60405180910390fd5b600260009054906101000a900473ffffffffffffffffffffffffffffffffffffffff1673ffffffffffffffffffffffffffffffffffffffff16858560018888905061231d9190613bce565b81811061232d5761232c613a8d565b5b90506020020160208101906123429190613963565b73ffffffffffffffffffffffffffffffffffffffff1614612398576040517f08c379a000000000000000000000000000000000000000000000000000000000815260040161238f90613c74565b60405180910390fd5b6000600160009054906101000a900473ffffffffffffffffffffffffffffffffffffffff1673ffffffffffffffffffffffffffffffffffffffff16631f00ca748888886040518463ffffffff1660e01b81526004016123f993929190613f31565b600060405180830381865afa158015612416573d6000803e3d6000fd5b505050506040513d6000823e3d601f19601f8201168201806040525081019061243f9190613ee8565b60008151811061245257612451613a8d565b5b602002602001015190508034101561249f576040517f08c379a000000000000000000000000000000000000000000000000000000000815260040161249690614239565b60405180910390fd5b6124f76124aa611780565b600860003373ffffffffffffffffffffffffffffffffffffffff1673ffffffffffffffffffffffffffffffffffffffff168152602001908152602001600020612c2790919063ffffffff16565b15801561250c5750600a5461250a611780565b105b1561256b5761256961251c611780565b600860003373ffffffffffffffffffffffffffffffffffffffff1673ffffffffffffffffffffffffffffffffffffffff168152602001908152602001600020612c4190919063ffffffff16565b505b600a54600c54146125805761257f87612d6d565b5b803411156125db573373ffffffffffffffffffffffffffffffffffffffff166108fc82346125ae9190613bce565b9081150290604051600060405180830381858888f193505050501580156125d9573d6000803e3d6000fd5b505b600160009054906101000a900473ffffffffffffffffffffffffffffffffffffffff1673ffffffffffffffffffffffffffffffffffffffff1663fb3bdb418289898989896040518763ffffffff1660e01b815260040161263f959493929190614055565b60006040518083038185885af115801561265d573d6000803e3d6000fd5b50505050506040513d6000823e3d601f19601f820116820180604052508101906126879190613ee8565b91505095945050505050565b60006126a1826000016130ad565b9050919050565b60006126b783600001836130be565b60001c905092915050565b60008082116126d057600080fd5b60008060001985870985870292508281108382030391505060008114156126fd578382049250505061285c565b83811061270957600080fd5b600084868809905082811182039150808303925060006001861961272d91906139bf565b8616905080860495508084049350600181826000030401905080836127529190614259565b84179350600060028760036127679190614259565b18905080876127769190614259565b60026127829190613bce565b8161278d9190614259565b9050808761279b9190614259565b60026127a79190613bce565b816127b29190614259565b905080876127c09190614259565b60026127cc9190613bce565b816127d79190614259565b905080876127e59190614259565b60026127f19190613bce565b816127fc9190614259565b9050808761280a9190614259565b60026128169190613bce565b816128219190614259565b9050808761282f9190614259565b600261283b9190613bce565b816128469190614259565b905080856128549190614259565b955050505050505b9392505050565b600061286d611780565b905060006001600c54600b5461288391906139bf565b61288d91906139bf565b9050816001600c5461289f91906139bf565b11156128ae576128ad6142b3565b5b8060066000600c548152602001908152602001600020546128cf9190613f92565b6128fb60046000600c548152602001908152602001600020546001846128f59190613bce565b846126c2565b61290591906139bf565b600460006001600c5461291891906139bf565b8152602001908152602001600020819055506000612937600c5461306b565b90507f0000000000000000000000000000000000000000000000000000000000000000811115612989577f000000000000000000000000000000000000000000000000000000000000000090506129e9565b600081141561299b57600090506129e8565b7f00000000000000000000000000000000000000000000000000000000000000008110156129e7577f000000000000000000000000000000000000000000000000000000000000000090505b5b5b6001600a546129f89190613bce565b600c54148015612a0f5750670de0b6b3a764000081115b15612a355760095460076000600c54815260200190815260200160002081905550612a7e565b612a64600c54600a54612a489190613bce565b600954612a559190613f92565b82670de0b6b3a76400006126c2565b60076000600c548152602001908152602001600020819055505b60076000600c54815260200190815260200160002054600954612aa19190613bce565b6009819055506001600c6000828254612aba91906139bf565b92505081905550826001600c54612ad191906139bf565b11158015612ae35750600a54600c5414155b15612af157612af0612863565b5b505050565b6000612b08836000018360001b6130e9565b905092915050565b612b918363a9059cbb60e01b8484604051602401612b2f929190613b39565b604051602081830303815290604052907bffffffffffffffffffffffffffffffffffffffffffffffffffffffff19166020820180517bffffffffffffffffffffffffffffffffffffffffffffffffffffffff83818316178352505050506131fd565b505050565b600033905090565b612c21846323b872dd60e01b858585604051602401612bbf939291906142e2565b604051602081830303815290604052907bffffffffffffffffffffffffffffffffffffffffffffffffffffffff19166020820180517bffffffffffffffffffffffffffffffffffffffffffffffffffffffff83818316178352505050506131fd565b50505050565b6000612c39836000018360001b6132c4565b905092915050565b6000612c53836000018360001b6132e7565b905092915050565b6000818473ffffffffffffffffffffffffffffffffffffffff1663dd62ed3e30866040518363ffffffff1660e01b8152600401612c99929190614319565b602060405180830381865afa158015612cb6573d6000803e3d6000fd5b505050506040513d601f19601f82011682018060405250810190612cda9190614342565b612ce491906139bf565b9050612d678463095ea7b360e01b8584604051602401612d05929190613b39565b604051602081830303815290604052907bffffffffffffffffffffffffffffffffffffffffffffffffffffffff19166020820180517bffffffffffffffffffffffffffffffffffffffffffffffffffffffff83818316178352505050506131fd565b50505050565b600a54612d78611780565b1015612e1e5780600560003373ffffffffffffffffffffffffffffffffffffffff1673ffffffffffffffffffffffffffffffffffffffff1681526020019081526020016000206000612dc8611780565b81526020019081526020016000206000828254612de591906139bf565b925050819055508060066000612df9611780565b81526020019081526020016000206000828254612e1691906139bf565b925050819055505b612e26611780565b6001600c54612e3591906139bf565b11158015612e475750600a54600c5414155b15612e5557612e54612863565b5b50565b6000811480612ee2575060008373ffffffffffffffffffffffffffffffffffffffff1663dd62ed3e30856040518363ffffffff1660e01b8152600401612e9f929190614319565b602060405180830381865afa158015612ebc573d6000803e3d6000fd5b505050506040513d601f19601f82011682018060405250810190612ee09190614342565b145b612f21576040517f08c379a0000000000000000000000000000000000000000000000000000000008152600401612f18906143e1565b60405180910390fd5b612fa28363095ea7b360e01b8484604051602401612f40929190613b39565b604051602081830303815290604052907bffffffffffffffffffffffffffffffffffffffffffffffffffffffff19166020820180517bffffffffffffffffffffffffffffffffffffffffffffffffffffffff83818316178352505050506131fd565b505050565b60008060009054906101000a900473ffffffffffffffffffffffffffffffffffffffff169050816000806101000a81548173ffffffffffffffffffffffffffffffffffffffff021916908373ffffffffffffffffffffffffffffffffffffffff1602179055508173ffffffffffffffffffffffffffffffffffffffff168173ffffffffffffffffffffffffffffffffffffffff167f8be0079c531659141344cd1fd0a4f28419497f9722a3daafe3b4186f6b6457e060405160405180910390a35050565b60006130a66006600084815260200190815260200160002054670de0b6b3a764000060046000868152602001908152602001600020546126c2565b9050919050565b600081600001805490509050919050565b60008260000182815481106130d6576130d5613a8d565b5b9060005260206000200154905092915050565b600080836001016000848152602001908152602001600020549050600081146131f157600060018261311b9190613bce565b90506000600186600001805490506131339190613bce565b90508181146131a257600086600001828154811061315457613153613a8d565b5b906000526020600020015490508087600001848154811061317857613177613a8d565b5b90600052602060002001819055508387600101600083815260200190815260200160002081905550505b856000018054806131b6576131b5614401565b5b6001900381819060005260206000200160009055905585600101600086815260200190815260200160002060009055600193505050506131f7565b60009150505b92915050565b600061325f826040518060400160405280602081526020017f5361666545524332303a206c6f772d6c6576656c2063616c6c206661696c65648152508573ffffffffffffffffffffffffffffffffffffffff166133579092919063ffffffff16565b90506000815111156132bf578080602001905181019061327f919061445c565b6132be576040517f08c379a00000000000000000000000000000000000000000000000000000000081526004016132b5906144fb565b60405180910390fd5b5b505050565b600080836001016000848152602001908152602001600020541415905092915050565b60006132f383836132c4565b61334c578260000182908060018154018082558091505060019003906000526020600020016000909190919091505582600001805490508360010160008481526020019081526020016000208190555060019050613351565b600090505b92915050565b6060613366848460008561336f565b90509392505050565b6060824710156133b4576040517f08c379a00000000000000000000000000000000000000000000000000000000081526004016133ab9061458d565b60405180910390fd5b6133bd85613483565b6133fc576040517f08c379a00000000000000000000000000000000000000000000000000000000081526004016133f3906145f9565b60405180910390fd5b6000808673ffffffffffffffffffffffffffffffffffffffff1685876040516134259190614693565b60006040518083038185875af1925050503d8060008114613462576040519150601f19603f3d011682016040523d82523d6000602084013e613467565b606091505b5091509150613477828286613496565b92505050949350505050565b600080823b905060008111915050919050565b606083156134a6578290506134f6565b6000835111156134b95782518084602001fd5b816040517f08c379a00000000000000000000000000000000000000000000000000000000081526004016134ed91906146ee565b60405180910390fd5b9392505050565b6000819050919050565b613510816134fd565b82525050565b600060208201905061352b6000830184613507565b92915050565b6000604051905090565b600080fd5b600080fd5b61354e816134fd565b811461355957600080fd5b50565b60008135905061356b81613545565b92915050565b6000602082840312156135875761358661353b565b5b60006135958482850161355c565b91505092915050565b600080fd5b600080fd5b600080fd5b60008083601f8401126135c3576135c261359e565b5b8235905067ffffffffffffffff8111156135e0576135df6135a3565b5b6020830191508360208202830111156135fc576135fb6135a8565b5b9250929050565b600073ffffffffffffffffffffffffffffffffffffffff82169050919050565b600061362e82613603565b9050919050565b61363e81613623565b811461364957600080fd5b50565b60008135905061365b81613635565b92915050565b60008060008060008060a0878903121561367e5761367d61353b565b5b600061368c89828a0161355c565b965050602061369d89828a0161355c565b955050604087013567ffffffffffffffff8111156136be576136bd613540565b5b6136ca89828a016135ad565b945094505060606136dd89828a0161364c565b92505060806136ee89828a0161355c565b9150509295509295509295565b600081519050919050565b600082825260208201905092915050565b6000819050602082019050919050565b613730816134fd565b82525050565b60006137428383613727565b60208301905092915050565b6000602082019050919050565b6000613766826136fb565b6137708185613706565b935061377b83613717565b8060005b838110156137ac5781516137938882613736565b975061379e8361374e565b92505060018101905061377f565b5085935050505092915050565b600060208201905081810360008301526137d3818461375b565b905092915050565b6000806000604084860312156137f4576137f361353b565b5b60006138028682870161355c565b935050602084013567ffffffffffffffff81111561382357613822613540565b5b61382f868287016135ad565b92509250509250925092565b6000806000806000608086880312156138575761385661353b565b5b60006138658882890161355c565b955050602086013567ffffffffffffffff81111561388657613885613540565b5b613892888289016135ad565b945094505060406138a58882890161364c565b92505060606138b68882890161355c565b9150509295509295909350565b6138cc81613623565b82525050565b60006020820190506138e760008301846138c3565b92915050565b600080604083850312156139045761390361353b565b5b60006139128582860161364c565b92505060206139238582860161355c565b9150509250929050565b60008115159050919050565b6139428161392d565b82525050565b600060208201905061395d6000830184613939565b92915050565b6000602082840312156139795761397861353b565b5b60006139878482850161364c565b91505092915050565b7f4e487b7100000000000000000000000000000000000000000000000000000000600052601160045260246000fd5b60006139ca826134fd565b91506139d5836134fd565b9250827fffffffffffffffffffffffffffffffffffffffffffffffffffffffffffffffff03821115613a0a57613a09613990565b5b828201905092915050565b6000613a20826134fd565b91507fffffffffffffffffffffffffffffffffffffffffffffffffffffffffffffffff821415613a5357613a52613990565b5b600182019050919050565b7f4e487b7100000000000000000000000000000000000000000000000000000000600052604160045260246000fd5b7f4e487b7100000000000000000000000000000000000000000000000000000000600052603260045260246000fd5b600082825260208201905092915050565b7f5b636c61696d416c6c526577617264735d204e6f207265776172642100000000600082015250565b6000613b03601c83613abc565b9150613b0e82613acd565b602082019050919050565b60006020820190508181036000830152613b3281613af6565b9050919050565b6000604082019050613b4e60008301856138c3565b613b5b6020830184613507565b9392505050565b7f4f776e61626c653a2063616c6c6572206973206e6f7420746865206f776e6572600082015250565b6000613b98602083613abc565b9150613ba382613b62565b602082019050919050565b60006020820190508181036000830152613bc781613b8b565b9050919050565b6000613bd9826134fd565b9150613be4836134fd565b925082821015613bf757613bf6613990565b5b828203905092915050565b7f5b737761704578616374455448466f72546f6b656e735d20496e76616c69642060008201527f7061746821000000000000000000000000000000000000000000000000000000602082015250565b6000613c5e602583613abc565b9150613c6982613c02565b604082019050919050565b60006020820190508181036000830152613c8d81613c51565b9050919050565b600082825260208201905092915050565b6000819050919050565b613cb881613623565b82525050565b6000613cca8383613caf565b60208301905092915050565b6000613ce5602084018461364c565b905092915050565b6000602082019050919050565b6000613d068385613c94565b9350613d1182613ca5565b8060005b85811015613d4a57613d278284613cd6565b613d318882613cbe565b9750613d3c83613ced565b925050600181019050613d15565b5085925050509392505050565b600060a082019050613d6c6000830189613507565b613d796020830188613507565b8181036040830152613d8c818688613cfa565b9050613d9b60608301856138c3565b613da86080830184613507565b979650505050505050565b6000601f19601f8301169050919050565b613dcd82613db3565b810181811067ffffffffffffffff82111715613dec57613deb613a5e565b5b80604052505050565b6000613dff613531565b9050613e0b8282613dc4565b919050565b600067ffffffffffffffff821115613e2b57613e2a613a5e565b5b602082029050602081019050919050565b600081519050613e4b81613545565b92915050565b6000613e64613e5f84613e10565b613df5565b90508083825260208201905060208402830185811115613e8757613e866135a8565b5b835b81811015613eb05780613e9c8882613e3c565b845260208401935050602081019050613e89565b5050509392505050565b600082601f830112613ecf57613ece61359e565b5b8151613edf848260208601613e51565b91505092915050565b600060208284031215613efe57613efd61353b565b5b600082015167ffffffffffffffff811115613f1c57613f1b613540565b5b613f2884828501613eba565b91505092915050565b6000604082019050613f466000830186613507565b8181036020830152613f59818486613cfa565b9050949350505050565b7f4e487b7100000000000000000000000000000000000000000000000000000000600052601260045260246000fd5b6000613f9d826134fd565b9150613fa8836134fd565b925082613fb857613fb7613f63565b5b828204905092915050565b7f5b737761704578616374455448466f72546f6b656e735d204e6f742061206d7360008201527f672e76616c756521000000000000000000000000000000000000000000000000602082015250565b600061401f602883613abc565b915061402a82613fc3565b604082019050919050565b6000602082019050818103600083015261404e81614012565b9050919050565b600060808201905061406a6000830188613507565b818103602083015261407d818688613cfa565b905061408c60408301856138c3565b6140996060830184613507565b9695505050505050565b7f5b7769746864726177526577617264546f6b656e735d204e6f7420656e6f756760008201527f682062616c616e63652100000000000000000000000000000000000000000000602082015250565b60006140ff602a83613abc565b915061410a826140a3565b604082019050919050565b6000602082019050818103600083015261412e816140f2565b9050919050565b7f4f776e61626c653a206e6577206f776e657220697320746865207a65726f206160008201527f6464726573730000000000000000000000000000000000000000000000000000602082015250565b6000614191602683613abc565b915061419c82614135565b604082019050919050565b600060208201905081810360008301526141c081614184565b9050919050565b7f5b73776170455448466f724578616374546f6b656e735d204e6f7420656e6f7560008201527f6768206d73672e76616c75652100000000000000000000000000000000000000602082015250565b6000614223602d83613abc565b915061422e826141c7565b604082019050919050565b6000602082019050818103600083015261425281614216565b9050919050565b6000614264826134fd565b915061426f836134fd565b9250817fffffffffffffffffffffffffffffffffffffffffffffffffffffffffffffffff04831182151516156142a8576142a7613990565b5b828202905092915050565b7f4e487b7100000000000000000000000000000000000000000000000000000000600052600160045260246000fd5b60006060820190506142f760008301866138c3565b61430460208301856138c3565b6143116040830184613507565b949350505050565b600060408201905061432e60008301856138c3565b61433b60208301846138c3565b9392505050565b6000602082840312156143585761435761353b565b5b600061436684828501613e3c565b91505092915050565b7f5361666545524332303a20617070726f76652066726f6d206e6f6e2d7a65726f60008201527f20746f206e6f6e2d7a65726f20616c6c6f77616e636500000000000000000000602082015250565b60006143cb603683613abc565b91506143d68261436f565b604082019050919050565b600060208201905081810360008301526143fa816143be565b9050919050565b7f4e487b7100000000000000000000000000000000000000000000000000000000600052603160045260246000fd5b6144398161392d565b811461444457600080fd5b50565b60008151905061445681614430565b92915050565b6000602082840312156144725761447161353b565b5b600061448084828501614447565b91505092915050565b7f5361666545524332303a204552433230206f7065726174696f6e20646964206e60008201527f6f74207375636365656400000000000000000000000000000000000000000000602082015250565b60006144e5602a83613abc565b91506144f082614489565b604082019050919050565b60006020820190508181036000830152614514816144d8565b9050919050565b7f416464726573733a20696e73756666696369656e742062616c616e636520666f60008201527f722063616c6c0000000000000000000000000000000000000000000000000000602082015250565b6000614577602683613abc565b91506145828261451b565b604082019050919050565b600060208201905081810360008301526145a68161456a565b9050919050565b7f416464726573733a2063616c6c20746f206e6f6e2d636f6e7472616374000000600082015250565b60006145e3601d83613abc565b91506145ee826145ad565b602082019050919050565b60006020820190508181036000830152614612816145d6565b9050919050565b600081519050919050565b600081905092915050565b60005b8381101561464d578082015181840152602081019050614632565b8381111561465c576000848401525b50505050565b600061466d82614619565b6146778185614624565b935061468781856020860161462f565b80840191505092915050565b600061469f8284614662565b915081905092915050565b600081519050919050565b60006146c0826146aa565b6146ca8185613abc565b93506146da81856020860161462f565b6146e381613db3565b840191505092915050565b6000602082019050818103600083015261470881846146b5565b90509291505056fea2646970667358221220d3e312ee66116d7644a4c1be65572a7e2b41ff03123a999689df0edc93d0cafa64736f6c634300080b0033",
  "linkReferences": {},
  "deployedLinkReferences": {}
}