{
  "_format": "hh-sol-artifact-1",
  "contractName": "TradeFarmingFactory",
  "sourceName": "contracts/TFFactory.sol",
  "abi": [
    {
      "anonymous": false,
      "inputs": [
        {
          "indexed": true,
          "internalType": "address",
          "name": "previousOwner",
          "type": "address"
        },
        {
          "indexed": true,
          "internalType": "address",
          "name": "newOwner",
          "type": "address"
        }
      ],
      "name": "OwnershipTransferred",
      "type": "event"
    },
    {
      "anonymous": false,
      "inputs": [
        {
          "indexed": false,
          "internalType": "address",
          "name": "_addressOfTF",
          "type": "address"
        },
        {
          "indexed": false,
          "internalType": "address",
          "name": "_tokenAddress",
          "type": "address"
        },
        {
          "indexed": false,
          "internalType": "uint256",
          "name": "_totalDays",
          "type": "uint256"
        }
      ],
      "name": "TFCreated",
      "type": "event"
    },
    {
      "inputs": [
        {
          "internalType": "address",
          "name": "_routerAddress",
          "type": "address"
        },
        {
          "internalType": "address",
          "name": "_tokenAddress",
          "type": "address"
        },
        {
          "internalType": "address",
          "name": "_rewardAddress",
          "type": "address"
        },
        {
          "internalType": "uint256",
          "name": "_previousVolume",
          "type": "uint256"
        },
        {
          "internalType": "uint256",
          "name": "_previousDay",
          "type": "uint256"
        },
        {
          "internalType": "uint256",
          "name": "_totalDays",
          "type": "uint256"
        },
        {
          "internalType": "uint256",
          "name": "_upLimit",
          "type": "uint256"
        },
        {
          "internalType": "uint256",
          "name": "_downLimit",
          "type": "uint256"
        },
        {
          "internalType": "address",
          "name": "_owner",
          "type": "address"
        }
      ],
      "name": "createTnAPair",
      "outputs": [],
      "stateMutability": "nonpayable",
      "type": "function"
    },
    {
      "inputs": [
        {
          "internalType": "uint256",
          "name": "",
          "type": "uint256"
        }
      ],
      "name": "createdContracts",
      "outputs": [
        {
          "internalType": "address",
          "name": "",
          "type": "address"
        }
      ],
      "stateMutability": "view",
      "type": "function"
    },
    {
      "inputs": [],
      "name": "getLastContract",
      "outputs": [
        {
          "internalType": "address",
          "name": "",
          "type": "address"
        }
      ],
      "stateMutability": "view",
      "type": "function"
    },
    {
      "inputs": [],
      "name": "owner",
      "outputs": [
        {
          "internalType": "address",
          "name": "",
          "type": "address"
        }
      ],
      "stateMutability": "view",
      "type": "function"
    },
    {
      "inputs": [],
      "name": "renounceOwnership",
      "outputs": [],
      "stateMutability": "nonpayable",
      "type": "function"
    },
    {
      "inputs": [
        {
          "internalType": "address",
          "name": "newOwner",
          "type": "address"
        }
      ],
      "name": "transferOwnership",
      "outputs": [],
      "stateMutability": "nonpayable",
      "type": "function"
    }
  ],
  "bytecode": "0x608060405234801561001057600080fd5b5061002d61002261003260201b60201c565b61003a60201b60201c565b6100fe565b600033905090565b60008060009054906101000a900473ffffffffffffffffffffffffffffffffffffffff169050816000806101000a81548173ffffffffffffffffffffffffffffffffffffffff021916908373ffffffffffffffffffffffffffffffffffffffff1602179055508173ffffffffffffffffffffffffffffffffffffffff168173ffffffffffffffffffffffffffffffffffffffff167f8be0079c531659141344cd1fd0a4f28419497f9722a3daafe3b4186f6b6457e060405160405180910390a35050565b615e458061010d6000396000f3fe60806040523480156200001157600080fd5b50600436106200006a5760003560e01c806308811397146200006f578063701ad63b14620000a5578063715018a614620000c55780638da5cb5b14620000d1578063c53833fe14620000f3578063f2fde38b1462000115575b600080fd5b6200008d6004803603810190620000879190620007a7565b62000135565b6040516200009c919062000843565b60405180910390f35b620000c36004803603810190620000bd9190620006ce565b62000175565b005b620000cf6200035e565b005b620000db620003ef565b604051620000ea919062000843565b60405180910390f35b620000fd62000418565b6040516200010c919062000843565b60405180910390f35b6200013360048036038101906200012d9190620006a2565b62000496565b005b600181815481106200014657600080fd5b906000526020600020016000915054906101000a900473ffffffffffffffffffffffffffffffffffffffff1681565b6200017f6200059a565b73ffffffffffffffffffffffffffffffffffffffff166200019f620003ef565b73ffffffffffffffffffffffffffffffffffffffff1614620001f8576040517f08c379a0000000000000000000000000000000000000000000000000000000008152600401620001ef906200094d565b60405180910390fd5b60008989898989898989604051620002109062000666565b6200022398979695949392919062000860565b604051809103906000f08015801562000240573d6000803e3d6000fd5b5090508073ffffffffffffffffffffffffffffffffffffffff1663f2fde38b836040518263ffffffff1660e01b81526004016200027e919062000843565b600060405180830381600087803b1580156200029957600080fd5b505af1158015620002ae573d6000803e3d6000fd5b505050506001819080600181540180825580915050600190039060005260206000200160009091909190916101000a81548173ffffffffffffffffffffffffffffffffffffffff021916908373ffffffffffffffffffffffffffffffffffffffff1602179055507f14d4d5fddd4368f6c56136ff556fb4e4a4c6efe8560b4f8dad30d3d3e13f1044818a876040516200034a93929190620008ee565b60405180910390a150505050505050505050565b620003686200059a565b73ffffffffffffffffffffffffffffffffffffffff1662000388620003ef565b73ffffffffffffffffffffffffffffffffffffffff1614620003e1576040517f08c379a0000000000000000000000000000000000000000000000000000000008152600401620003d8906200094d565b60405180910390fd5b620003ed6000620005a2565b565b60008060009054906101000a900473ffffffffffffffffffffffffffffffffffffffff16905090565b600060018080805490506200042e919062000980565b8154811062000466577f4e487b7100000000000000000000000000000000000000000000000000000000600052603260045260246000fd5b9060005260206000200160009054906101000a900473ffffffffffffffffffffffffffffffffffffffff16905090565b620004a06200059a565b73ffffffffffffffffffffffffffffffffffffffff16620004c0620003ef565b73ffffffffffffffffffffffffffffffffffffffff161462000519576040517f08c379a000000000000000000000000000000000000000000000000000000000815260040162000510906200094d565b60405180910390fd5b600073ffffffffffffffffffffffffffffffffffffffff168173ffffffffffffffffffffffffffffffffffffffff1614156200058c576040517f08c379a000000000000000000000000000000000000000000000000000000000815260040162000583906200092b565b60405180910390fd5b6200059781620005a2565b50565b600033905090565b60008060009054906101000a900473ffffffffffffffffffffffffffffffffffffffff169050816000806101000a81548173ffffffffffffffffffffffffffffffffffffffff021916908373ffffffffffffffffffffffffffffffffffffffff1602179055508173ffffffffffffffffffffffffffffffffffffffff168173ffffffffffffffffffffffffffffffffffffffff167f8be0079c531659141344cd1fd0a4f28419497f9722a3daafe3b4186f6b6457e060405160405180910390a35050565b61533b8062000ad583390190565b600081359050620006858162000aa0565b92915050565b6000813590506200069c8162000aba565b92915050565b600060208284031215620006b557600080fd5b6000620006c58482850162000674565b91505092915050565b60008060008060008060008060006101208a8c031215620006ee57600080fd5b6000620006fe8c828d0162000674565b9950506020620007118c828d0162000674565b9850506040620007248c828d0162000674565b9750506060620007378c828d016200068b565b96505060806200074a8c828d016200068b565b95505060a06200075d8c828d016200068b565b94505060c0620007708c828d016200068b565b93505060e0620007838c828d016200068b565b925050610100620007978c828d0162000674565b9150509295985092959850929598565b600060208284031215620007ba57600080fd5b6000620007ca848285016200068b565b91505092915050565b620007de81620009bb565b82525050565b6000620007f36026836200096f565b9150620008008262000a28565b604082019050919050565b60006200081a6020836200096f565b9150620008278262000a77565b602082019050919050565b6200083d81620009ef565b82525050565b60006020820190506200085a6000830184620007d3565b92915050565b60006101008201905062000878600083018b620007d3565b62000887602083018a620007d3565b620008966040830189620007d3565b620008a5606083018862000832565b620008b4608083018762000832565b620008c360a083018662000832565b620008d260c083018562000832565b620008e160e083018462000832565b9998505050505050505050565b6000606082019050620009056000830186620007d3565b620009146020830185620007d3565b62000923604083018462000832565b949350505050565b600060208201905081810360008301526200094681620007e4565b9050919050565b6000602082019050818103600083015262000968816200080b565b9050919050565b600082825260208201905092915050565b60006200098d82620009ef565b91506200099a83620009ef565b925082821015620009b057620009af620009f9565b5b828203905092915050565b6000620009c882620009cf565b9050919050565b600073ffffffffffffffffffffffffffffffffffffffff82169050919050565b6000819050919050565b7f4e487b7100000000000000000000000000000000000000000000000000000000600052601160045260246000fd5b7f4f776e61626c653a206e6577206f776e657220697320746865207a65726f206160008201527f6464726573730000000000000000000000000000000000000000000000000000602082015250565b7f4f776e61626c653a2063616c6c6572206973206e6f7420746865206f776e6572600082015250565b62000aab81620009bb565b811462000ab757600080fd5b50565b62000ac581620009ef565b811462000ad157600080fd5b5056fe60e060405260006009553480156200001657600080fd5b506040516200533b3803806200533b83398181016040528101906200003c9190620004a2565b6200005c620000506200037c60201b60201c565b6200038460201b60201c565b600073ffffffffffffffffffffffffffffffffffffffff168873ffffffffffffffffffffffffffffffffffffffff1614158015620000c75750600073ffffffffffffffffffffffffffffffffffffffff168773ffffffffffffffffffffffffffffffffffffffff1614155b8015620001015750600073ffffffffffffffffffffffffffffffffffffffff168673ffffffffffffffffffffffffffffffffffffffff1614155b62000143576040517f08c379a00000000000000000000000000000000000000000000000000000000081526004016200013a906200058c565b60405180910390fd5b426080818152505087600160006101000a81548173ffffffffffffffffffffffffffffffffffffffff021916908373ffffffffffffffffffffffffffffffffffffffff16021790555086600260006101000a81548173ffffffffffffffffffffffffffffffffffffffff021916908373ffffffffffffffffffffffffffffffffffffffff16021790555085600360006101000a81548173ffffffffffffffffffffffffffffffffffffffff021916908373ffffffffffffffffffffffffffffffffffffffff16021790555084600460008081526020019081526020016000208190555083600b8190555082600a81905550600160009054906101000a900473ffffffffffffffffffffffffffffffffffffffff1673ffffffffffffffffffffffffffffffffffffffff1663ad5c46486040518163ffffffff1660e01b815260040160206040518083038186803b1580156200029d57600080fd5b505afa158015620002b2573d6000803e3d6000fd5b505050506040513d601f19601f82011682018060405250810190620002d8919062000476565b600d60006101000a81548173ffffffffffffffffffffffffffffffffffffffff021916908373ffffffffffffffffffffffffffffffffffffffff160217905550606482670de0b6b3a7640000620003309190620005f7565b6200033c9190620005bf565b60a08181525050606481670de0b6b3a76400006200035b9190620005f7565b620003679190620005bf565b60c08181525050505050505050505062000777565b600033905090565b60008060009054906101000a900473ffffffffffffffffffffffffffffffffffffffff169050816000806101000a81548173ffffffffffffffffffffffffffffffffffffffff021916908373ffffffffffffffffffffffffffffffffffffffff1602179055508173ffffffffffffffffffffffffffffffffffffffff168173ffffffffffffffffffffffffffffffffffffffff167f8be0079c531659141344cd1fd0a4f28419497f9722a3daafe3b4186f6b6457e060405160405180910390a35050565b600081519050620004598162000743565b92915050565b60008151905062000470816200075d565b92915050565b6000602082840312156200048957600080fd5b6000620004998482850162000448565b91505092915050565b600080600080600080600080610100898b031215620004c057600080fd5b6000620004d08b828c0162000448565b9850506020620004e38b828c0162000448565b9750506040620004f68b828c0162000448565b9650506060620005098b828c016200045f565b95505060806200051c8b828c016200045f565b94505060a06200052f8b828c016200045f565b93505060c0620005428b828c016200045f565b92505060e0620005558b828c016200045f565b9150509295985092959890939650565b600062000574602283620005ae565b91506200058182620006f4565b604082019050919050565b60006020820190508181036000830152620005a78162000565565b9050919050565b600082825260208201905092915050565b6000620005cc826200068c565b9150620005d9836200068c565b925082620005ec57620005eb620006c5565b5b828204905092915050565b600062000604826200068c565b915062000611836200068c565b9250817fffffffffffffffffffffffffffffffffffffffffffffffffffffffffffffffff04831182151516156200064d576200064c62000696565b5b828202905092915050565b600062000665826200066c565b9050919050565b600073ffffffffffffffffffffffffffffffffffffffff82169050919050565b6000819050919050565b7f4e487b7100000000000000000000000000000000000000000000000000000000600052601160045260246000fd5b7f4e487b7100000000000000000000000000000000000000000000000000000000600052601260045260246000fd5b7f5b5d204164647265737365732063616e206e6f7420626520302061646472657360008201527f732e000000000000000000000000000000000000000000000000000000000000602082015250565b6200074e8162000658565b81146200075a57600080fd5b50565b62000768816200068c565b81146200077457600080fd5b50565b60805160a05160c051614b63620007d8600039600081816121220152818161214a01528181612d590152612d810152600081816120c0015281816120e801528181612cf70152612d1f0152600081816119d40152611b1d0152614b636000f3fe6080604052600436106101665760003560e01c80637e2ca288116100d1578063b203dc601161008a578063d06ca61f11610064578063d06ca61f14610559578063de2af4b014610596578063f2fde38b146105c1578063fb3bdb41146105ea57610166565b8063b203dc60146104b6578063cb43b2dd146104f3578063ceb7f9951461051c57610166565b80637e2ca2881461038b5780637ff36ab5146103b65780638acc3673146103e65780638da5cb5b14610411578063940ce8721461043c57806394f557891461047957610166565b80631f924d86116101235780631f924d861461027b5780634a25d94a146102b85780636572ca0c146102f5578063715018a61461032057806378fb427a146103375780637a40624b1461036057610166565b8063078e36491461016b57806307a779bc146101965780630b83a727146101c157806316c621e0146101d857806318cbafe5146102015780631f00ca741461023e575b600080fd5b34801561017757600080fd5b5061018061061a565b60405161018d919061430c565b60405180910390f35b3480156101a257600080fd5b506101ab610620565b6040516101b8919061430c565b60405180910390f35b3480156101cd57600080fd5b506101d6610897565b005b3480156101e457600080fd5b506101ff60048036038101906101fa9190613b72565b610e03565b005b34801561020d57600080fd5b5061022860048036038101906102239190613c9c565b610eea565b604051610235919061412d565b60405180910390f35b34801561024a57600080fd5b5061026560048036038101906102609190613bc4565b61131d565b604051610272919061412d565b60405180910390f35b34801561028757600080fd5b506102a2600480360381019061029d9190613b72565b6113dc565b6040516102af919061430c565b60405180910390f35b3480156102c457600080fd5b506102df60048036038101906102da9190613c9c565b6113f4565b6040516102ec919061412d565b60405180910390f35b34801561030157600080fd5b5061030a6119cc565b604051610317919061430c565b60405180910390f35b34801561032c57600080fd5b50610335611a0d565b005b34801561034357600080fd5b5061035e60048036038101906103599190613b72565b611a95565b005b34801561036c57600080fd5b50610375611b1b565b604051610382919061430c565b60405180910390f35b34801561039757600080fd5b506103a0611b3f565b6040516103ad919061430c565b60405180910390f35b6103d060048036038101906103cb9190613c1c565b611b45565b6040516103dd919061412d565b60405180910390f35b3480156103f257600080fd5b506103fb611f48565b604051610408919061430c565b60405180910390f35b34801561041d57600080fd5b50610426611f4e565b6040516104339190614089565b60405180910390f35b34801561044857600080fd5b50610463600480360381019061045e9190613acc565b611f77565b604051610470919061430c565b60405180910390f35b34801561048557600080fd5b506104a0600480360381019061049b9190613b72565b611f9c565b6040516104ad919061430c565b60405180910390f35b3480156104c257600080fd5b506104dd60048036038101906104d89190613b72565b6121ce565b6040516104ea919061430c565b60405180910390f35b3480156104ff57600080fd5b5061051a60048036038101906105159190613b72565b6121e6565b005b34801561052857600080fd5b50610543600480360381019061053e9190613b72565b612310565b604051610550919061430c565b60405180910390f35b34801561056557600080fd5b50610580600480360381019061057b9190613bc4565b612328565b60405161058d919061412d565b60405180910390f35b3480156105a257600080fd5b506105ab6123e7565b6040516105b8919061414f565b60405180910390f35b3480156105cd57600080fd5b506105e860048036038101906105e39190613aa3565b612426565b005b61060460048036038101906105ff9190613c1c565b61251e565b604051610611919061412d565b60405180910390f35b600a5481565b600080600090506000670de0b6b3a7640000905060005b61067e600860003373ffffffffffffffffffffffffffffffffffffffff1673ffffffffffffffffffffffffffffffffffffffff168152602001908152602001600020612a29565b81101561088e57600c546106d982600860003373ffffffffffffffffffffffffffffffffffffffff1673ffffffffffffffffffffffffffffffffffffffff168152602001908152602001600020612a3e90919063ffffffff16565b101561087b576107f5600560003373ffffffffffffffffffffffffffffffffffffffff1673ffffffffffffffffffffffffffffffffffffffff168152602001908152602001600020600061077484600860003373ffffffffffffffffffffffffffffffffffffffff1673ffffffffffffffffffffffffffffffffffffffff168152602001908152602001600020612a3e90919063ffffffff16565b815260200190815260200160002054670de0b6b3a7640000600660006107e186600860003373ffffffffffffffffffffffffffffffffffffffff1673ffffffffffffffffffffffffffffffffffffffff168152602001908152602001600020612a3e90919063ffffffff16565b815260200190815260200160002054612a58565b915061086d826007600061085085600860003373ffffffffffffffffffffffffffffffffffffffff1673ffffffffffffffffffffffffffffffffffffffff168152602001908152602001600020612a3e90919063ffffffff16565b815260200190815260200160002054670de0b6b3a7640000612a58565b8361087891906144fe565b92505b8080610886906146bf565b915050610637565b50819250505090565b61089f6119cc565b6001600c546108ae91906144fe565b111580156108c05750600a54600c5414155b156108ce576108cd612bf9565b5b600080670de0b6b3a764000090506000610925600860003373ffffffffffffffffffffffffffffffffffffffff1673ffffffffffffffffffffffffffffffffffffffff168152602001908152602001600020612a29565b905060008167ffffffffffffffff811115610969577f4e487b7100000000000000000000000000000000000000000000000000000000600052604160045260246000fd5b6040519080825280602002602001820160405280156109975781602001602082028036833780820191505090505b50905060005b82811015610c4457600c546109f982600860003373ffffffffffffffffffffffffffffffffffffffff1673ffffffffffffffffffffffffffffffffffffffff168152602001908152602001600020612a3e90919063ffffffff16565b1015610c3157610b15600560003373ffffffffffffffffffffffffffffffffffffffff1673ffffffffffffffffffffffffffffffffffffffff1681526020019081526020016000206000610a9484600860003373ffffffffffffffffffffffffffffffffffffffff1673ffffffffffffffffffffffffffffffffffffffff168152602001908152602001600020612a3e90919063ffffffff16565b815260200190815260200160002054670de0b6b3a764000060066000610b0186600860003373ffffffffffffffffffffffffffffffffffffffff1673ffffffffffffffffffffffffffffffffffffffff168152602001908152602001600020612a3e90919063ffffffff16565b815260200190815260200160002054612a58565b9350610b8d8460076000610b7085600860003373ffffffffffffffffffffffffffffffffffffffff1673ffffffffffffffffffffffffffffffffffffffff168152602001908152602001600020612a3e90919063ffffffff16565b815260200190815260200160002054670de0b6b3a7640000612a58565b85610b9891906144fe565b9450610beb81600860003373ffffffffffffffffffffffffffffffffffffffff1673ffffffffffffffffffffffffffffffffffffffff168152602001908152602001600020612a3e90919063ffffffff16565b828281518110610c24577f4e487b7100000000000000000000000000000000000000000000000000000000600052603260045260246000fd5b6020026020010181815250505b8080610c3c906146bf565b91505061099d565b5060005b82811015610d3357610ce1828281518110610c8c577f4e487b7100000000000000000000000000000000000000000000000000000000600052603260045260246000fd5b6020026020010151600860003373ffffffffffffffffffffffffffffffffffffffff1673ffffffffffffffffffffffffffffffffffffffff168152602001908152602001600020612eb290919063ffffffff16565b610d20576040517f08c379a0000000000000000000000000000000000000000000000000000000008152600401610d179061418c565b60405180910390fd5b8080610d2b906146bf565b915050610c48565b5060008411610d77576040517f08c379a0000000000000000000000000000000000000000000000000000000008152600401610d6e9061428c565b60405180910390fd5b610dc43385600360009054906101000a900473ffffffffffffffffffffffffffffffffffffffff1673ffffffffffffffffffffffffffffffffffffffff16612ecc9092919063ffffffff16565b7f106f923f993c2149d49b4255ff723acafa1f2d94393f561d3eda32ae348f72413385604051610df5929190614104565b60405180910390a150505050565b610e0b612f52565b73ffffffffffffffffffffffffffffffffffffffff16610e29611f4e565b73ffffffffffffffffffffffffffffffffffffffff1614610e7f576040517f08c379a0000000000000000000000000000000000000000000000000000000008152600401610e769061426c565b60405180910390fd5b8060096000828254610e9191906144fe565b92505081905550610ee7333083600360009054906101000a900473ffffffffffffffffffffffffffffffffffffffff1673ffffffffffffffffffffffffffffffffffffffff16612f5a909392919063ffffffff16565b50565b6060600d60009054906101000a900473ffffffffffffffffffffffffffffffffffffffff1673ffffffffffffffffffffffffffffffffffffffff168585600188889050610f3791906145df565b818110610f6d577f4e487b7100000000000000000000000000000000000000000000000000000000600052603260045260246000fd5b9050602002016020810190610f829190613aa3565b73ffffffffffffffffffffffffffffffffffffffff1614610fd8576040517f08c379a0000000000000000000000000000000000000000000000000000000008152600401610fcf906141ac565b60405180910390fd5b600260009054906101000a900473ffffffffffffffffffffffffffffffffffffffff1673ffffffffffffffffffffffffffffffffffffffff168585600081811061104b577f4e487b7100000000000000000000000000000000000000000000000000000000600052603260045260246000fd5b90506020020160208101906110609190613aa3565b73ffffffffffffffffffffffffffffffffffffffff16146110b6576040517f08c379a00000000000000000000000000000000000000000000000000000000081526004016110ad906141ac565b60405180910390fd5b61110e6110c16119cc565b600860003373ffffffffffffffffffffffffffffffffffffffff1673ffffffffffffffffffffffffffffffffffffffff168152602001908152602001600020612fe390919063ffffffff16565b1580156111235750600a546111216119cc565b105b15611182576111806111336119cc565b600860003373ffffffffffffffffffffffffffffffffffffffff1673ffffffffffffffffffffffffffffffffffffffff168152602001908152602001600020612ffd90919063ffffffff16565b505b6111d1333089600260009054906101000a900473ffffffffffffffffffffffffffffffffffffffff1673ffffffffffffffffffffffffffffffffffffffff16612f5a909392919063ffffffff16565b611240600160009054906101000a900473ffffffffffffffffffffffffffffffffffffffff1688600260009054906101000a900473ffffffffffffffffffffffffffffffffffffffff1673ffffffffffffffffffffffffffffffffffffffff166130179092919063ffffffff16565b600a54600c54146112555761125487613138565b5b600160009054906101000a900473ffffffffffffffffffffffffffffffffffffffff1673ffffffffffffffffffffffffffffffffffffffff166318cbafe58888888888886040518763ffffffff1660e01b81526004016112ba969594939291906143a7565b600060405180830381600087803b1580156112d457600080fd5b505af11580156112e8573d6000803e3d6000fd5b505050506040513d6000823e3d601f19601f820116820180604052508101906113119190613b08565b90509695505050505050565b6060600160009054906101000a900473ffffffffffffffffffffffffffffffffffffffff1673ffffffffffffffffffffffffffffffffffffffff16631f00ca748585856040518463ffffffff1660e01b815260040161137e93929190614327565b60006040518083038186803b15801561139657600080fd5b505afa1580156113aa573d6000803e3d6000fd5b505050506040513d6000823e3d601f19601f820116820180604052508101906113d39190613b08565b90509392505050565b60066020528060005260406000206000915090505481565b6060600d60009054906101000a900473ffffffffffffffffffffffffffffffffffffffff1673ffffffffffffffffffffffffffffffffffffffff16858560018888905061144191906145df565b818110611477577f4e487b7100000000000000000000000000000000000000000000000000000000600052603260045260246000fd5b905060200201602081019061148c9190613aa3565b73ffffffffffffffffffffffffffffffffffffffff16146114e2576040517f08c379a00000000000000000000000000000000000000000000000000000000081526004016114d9906141ac565b60405180910390fd5b600260009054906101000a900473ffffffffffffffffffffffffffffffffffffffff1673ffffffffffffffffffffffffffffffffffffffff1685856000818110611555577f4e487b7100000000000000000000000000000000000000000000000000000000600052603260045260246000fd5b905060200201602081019061156a9190613aa3565b73ffffffffffffffffffffffffffffffffffffffff16146115c0576040517f08c379a00000000000000000000000000000000000000000000000000000000081526004016115b7906141ac565b60405180910390fd5b6116186115cb6119cc565b600860003373ffffffffffffffffffffffffffffffffffffffff1673ffffffffffffffffffffffffffffffffffffffff168152602001908152602001600020612fe390919063ffffffff16565b15801561162d5750600a5461162b6119cc565b105b1561168c5761168a61163d6119cc565b600860003373ffffffffffffffffffffffffffffffffffffffff1673ffffffffffffffffffffffffffffffffffffffff168152602001908152602001600020612ffd90919063ffffffff16565b505b6117cf3330600160009054906101000a900473ffffffffffffffffffffffffffffffffffffffff1673ffffffffffffffffffffffffffffffffffffffff16631f00ca748b8a8a6040518463ffffffff1660e01b81526004016116f093929190614327565b60006040518083038186803b15801561170857600080fd5b505afa15801561171c573d6000803e3d6000fd5b505050506040513d6000823e3d601f19601f820116820180604052508101906117459190613b08565b60008151811061177e577f4e487b7100000000000000000000000000000000000000000000000000000000600052603260045260246000fd5b6020026020010151600260009054906101000a900473ffffffffffffffffffffffffffffffffffffffff1673ffffffffffffffffffffffffffffffffffffffff16612f5a909392919063ffffffff16565b61183e600160009054906101000a900473ffffffffffffffffffffffffffffffffffffffff1687600260009054906101000a900473ffffffffffffffffffffffffffffffffffffffff1673ffffffffffffffffffffffffffffffffffffffff166130179092919063ffffffff16565b600160009054906101000a900473ffffffffffffffffffffffffffffffffffffffff1673ffffffffffffffffffffffffffffffffffffffff16634a25d94a8888888888886040518763ffffffff1660e01b81526004016118a3969594939291906143a7565b600060405180830381600087803b1580156118bd57600080fd5b505af11580156118d1573d6000803e3d6000fd5b505050506040513d6000823e3d601f19601f820116820180604052508101906118fa9190613b08565b9050600a54600c54146119525761195181600081518110611944577f4e487b7100000000000000000000000000000000000000000000000000000000600052603260045260246000fd5b6020026020010151613138565b5b6119c2600160009054906101000a900473ffffffffffffffffffffffffffffffffffffffff166000600260009054906101000a900473ffffffffffffffffffffffffffffffffffffffff1673ffffffffffffffffffffffffffffffffffffffff166132239092919063ffffffff16565b9695505050505050565b6000620151807f0000000000000000000000000000000000000000000000000000000000000000426119fe91906145df565b611a089190614554565b905090565b611a15612f52565b73ffffffffffffffffffffffffffffffffffffffff16611a33611f4e565b73ffffffffffffffffffffffffffffffffffffffff1614611a89576040517f08c379a0000000000000000000000000000000000000000000000000000000008152600401611a809061426c565b60405180910390fd5b611a936000613381565b565b611a9d612f52565b73ffffffffffffffffffffffffffffffffffffffff16611abb611f4e565b73ffffffffffffffffffffffffffffffffffffffff1614611b11576040517f08c379a0000000000000000000000000000000000000000000000000000000008152600401611b089061426c565b60405180910390fd5b80600a8190555050565b7f000000000000000000000000000000000000000000000000000000000000000081565b60095481565b6060600d60009054906101000a900473ffffffffffffffffffffffffffffffffffffffff1673ffffffffffffffffffffffffffffffffffffffff1685856000818110611bba577f4e487b7100000000000000000000000000000000000000000000000000000000600052603260045260246000fd5b9050602002016020810190611bcf9190613aa3565b73ffffffffffffffffffffffffffffffffffffffff1614611c25576040517f08c379a0000000000000000000000000000000000000000000000000000000008152600401611c1c906141ac565b60405180910390fd5b600260009054906101000a900473ffffffffffffffffffffffffffffffffffffffff1673ffffffffffffffffffffffffffffffffffffffff168585600188889050611c7091906145df565b818110611ca6577f4e487b7100000000000000000000000000000000000000000000000000000000600052603260045260246000fd5b9050602002016020810190611cbb9190613aa3565b73ffffffffffffffffffffffffffffffffffffffff1614611d11576040517f08c379a0000000000000000000000000000000000000000000000000000000008152600401611d08906141ac565b60405180910390fd5b60003411611d54576040517f08c379a0000000000000000000000000000000000000000000000000000000008152600401611d4b906141ec565b60405180910390fd5b611dac611d5f6119cc565b600860003373ffffffffffffffffffffffffffffffffffffffff1673ffffffffffffffffffffffffffffffffffffffff168152602001908152602001600020612fe390919063ffffffff16565b158015611dc15750600a54611dbf6119cc565b105b15611e2057611e1e611dd16119cc565b600860003373ffffffffffffffffffffffffffffffffffffffff1673ffffffffffffffffffffffffffffffffffffffff168152602001908152602001600020612ffd90919063ffffffff16565b505b600160009054906101000a900473ffffffffffffffffffffffffffffffffffffffff1673ffffffffffffffffffffffffffffffffffffffff16637ff36ab53488888888886040518763ffffffff1660e01b8152600401611e84959493929190614359565b6000604051808303818588803b158015611e9d57600080fd5b505af1158015611eb1573d6000803e3d6000fd5b50505050506040513d6000823e3d601f19601f82011682018060405250810190611edb9190613b08565b9050600a54600c5414611f3f57611f3e8160018351611efa91906145df565b81518110611f31577f4e487b7100000000000000000000000000000000000000000000000000000000600052603260045260246000fd5b6020026020010151613138565b5b95945050505050565b600c5481565b60008060009054906101000a900473ffffffffffffffffffffffffffffffffffffffff16905090565b6005602052816000526040600020602052806000526040600020600091509150505481565b600080600090506000670de0b6b3a7640000905061200184600860003373ffffffffffffffffffffffffffffffffffffffff1673ffffffffffffffffffffffffffffffffffffffff168152602001908152602001600020612fe390919063ffffffff16565b156121c45761207c600560003373ffffffffffffffffffffffffffffffffffffffff1673ffffffffffffffffffffffffffffffffffffffff168152602001908152602001600020600086815260200190815260200160002054670de0b6b3a76400006006600088815260200190815260200160002054612a58565b90506000600c548510156120a557600760008681526020019081526020016000205490506121a2565b600c548514156121a15760006120bc600c54613445565b90507f000000000000000000000000000000000000000000000000000000000000000081111561210e577f0000000000000000000000000000000000000000000000000000000000000000905061216e565b6000811415612120576000905061216d565b7f000000000000000000000000000000000000000000000000000000000000000081101561216c577f000000000000000000000000000000000000000000000000000000000000000090505b5b5b61219d600c54600a5461218191906145df565b60095461218e9190614554565b82670de0b6b3a7640000612a58565b9150505b5b6121b58282670de0b6b3a7640000612a58565b836121c091906144fe565b9250505b8192505050919050565b60076020528060005260406000206000915090505481565b6121ee612f52565b73ffffffffffffffffffffffffffffffffffffffff1661220c611f4e565b73ffffffffffffffffffffffffffffffffffffffff1614612262576040517f08c379a00000000000000000000000000000000000000000000000000000000081526004016122599061426c565b60405180910390fd5b8060095410156122a7576040517f08c379a000000000000000000000000000000000000000000000000000000000815260040161229e9061424c565b60405180910390fd5b80600960008282546122b991906145df565b9250508190555061230d3382600360009054906101000a900473ffffffffffffffffffffffffffffffffffffffff1673ffffffffffffffffffffffffffffffffffffffff16612ecc9092919063ffffffff16565b50565b60046020528060005260406000206000915090505481565b6060600160009054906101000a900473ffffffffffffffffffffffffffffffffffffffff1673ffffffffffffffffffffffffffffffffffffffff1663d06ca61f8585856040518463ffffffff1660e01b815260040161238993929190614327565b60006040518083038186803b1580156123a157600080fd5b505afa1580156123b5573d6000803e3d6000fd5b505050506040513d6000823e3d601f19601f820116820180604052508101906123de9190613b08565b90509392505050565b60006123f16119cc565b6001600c5461240091906144fe565b111580156124125750600a54600c5414155b15806124215750600a54600c54145b905090565b61242e612f52565b73ffffffffffffffffffffffffffffffffffffffff1661244c611f4e565b73ffffffffffffffffffffffffffffffffffffffff16146124a2576040517f08c379a00000000000000000000000000000000000000000000000000000000081526004016124999061426c565b60405180910390fd5b600073ffffffffffffffffffffffffffffffffffffffff168173ffffffffffffffffffffffffffffffffffffffff161415612512576040517f08c379a0000000000000000000000000000000000000000000000000000000008152600401612509906141cc565b60405180910390fd5b61251b81613381565b50565b6060600d60009054906101000a900473ffffffffffffffffffffffffffffffffffffffff1673ffffffffffffffffffffffffffffffffffffffff1685856000818110612593577f4e487b7100000000000000000000000000000000000000000000000000000000600052603260045260246000fd5b90506020020160208101906125a89190613aa3565b73ffffffffffffffffffffffffffffffffffffffff16146125fe576040517f08c379a00000000000000000000000000000000000000000000000000000000081526004016125f5906141ac565b60405180910390fd5b600260009054906101000a900473ffffffffffffffffffffffffffffffffffffffff1673ffffffffffffffffffffffffffffffffffffffff16858560018888905061264991906145df565b81811061267f577f4e487b7100000000000000000000000000000000000000000000000000000000600052603260045260246000fd5b90506020020160208101906126949190613aa3565b73ffffffffffffffffffffffffffffffffffffffff16146126ea576040517f08c379a00000000000000000000000000000000000000000000000000000000081526004016126e1906141ac565b60405180910390fd5b6000600160009054906101000a900473ffffffffffffffffffffffffffffffffffffffff1673ffffffffffffffffffffffffffffffffffffffff16631f00ca748888886040518463ffffffff1660e01b815260040161274b93929190614327565b60006040518083038186803b15801561276357600080fd5b505afa158015612777573d6000803e3d6000fd5b505050506040513d6000823e3d601f19601f820116820180604052508101906127a09190613b08565b6000815181106127d9577f4e487b7100000000000000000000000000000000000000000000000000000000600052603260045260246000fd5b6020026020010151905080341015612826576040517f08c379a000000000000000000000000000000000000000000000000000000000815260040161281d9061422c565b60405180910390fd5b61287e6128316119cc565b600860003373ffffffffffffffffffffffffffffffffffffffff1673ffffffffffffffffffffffffffffffffffffffff168152602001908152602001600020612fe390919063ffffffff16565b1580156128935750600a546128916119cc565b105b156128f2576128f06128a36119cc565b600860003373ffffffffffffffffffffffffffffffffffffffff1673ffffffffffffffffffffffffffffffffffffffff168152602001908152602001600020612ffd90919063ffffffff16565b505b600a54600c54146129075761290687613138565b5b80341115612962573373ffffffffffffffffffffffffffffffffffffffff166108fc823461293591906145df565b9081150290604051600060405180830381858888f19350505050158015612960573d6000803e3d6000fd5b505b600160009054906101000a900473ffffffffffffffffffffffffffffffffffffffff1673ffffffffffffffffffffffffffffffffffffffff1663fb3bdb418289898989896040518763ffffffff1660e01b81526004016129c6959493929190614359565b6000604051808303818588803b1580156129df57600080fd5b505af11580156129f3573d6000803e3d6000fd5b50505050506040513d6000823e3d601f19601f82011682018060405250810190612a1d9190613b08565b91505095945050505050565b6000612a3782600001613487565b9050919050565b6000612a4d8360000183613498565b60001c905092915050565b6000808211612a6657600080fd5b6000806000198587098587029250828110838203039150506000811415612a935783820492505050612bf2565b838110612a9f57600080fd5b6000848688099050828111820391508083039250600060018619612ac391906144fe565b861690508086049550808404935060018182600003040190508083612ae89190614585565b8417935060006002876003612afd9190614585565b1890508087612b0c9190614585565b6002612b1891906145df565b81612b239190614585565b90508087612b319190614585565b6002612b3d91906145df565b81612b489190614585565b90508087612b569190614585565b6002612b6291906145df565b81612b6d9190614585565b90508087612b7b9190614585565b6002612b8791906145df565b81612b929190614585565b90508087612ba09190614585565b6002612bac91906145df565b81612bb79190614585565b90508087612bc59190614585565b6002612bd191906145df565b81612bdc9190614585565b90508085612bea9190614585565b955050505050505b9392505050565b6000612c036119cc565b905060006001600c54600b54612c1991906144fe565b612c2391906144fe565b9050816001600c54612c3591906144fe565b1115612c6a577f4e487b7100000000000000000000000000000000000000000000000000000000600052600160045260246000fd5b8060066000600c54815260200190815260200160002054612c8b9190614554565b612cb760046000600c54815260200190815260200160002054600184612cb191906145df565b84612a58565b612cc191906144fe565b600460006001600c54612cd491906144fe565b8152602001908152602001600020819055506000612cf3600c54613445565b90507f0000000000000000000000000000000000000000000000000000000000000000811115612d45577f00000000000000000000000000000000000000000000000000000000000000009050612da5565b6000811415612d575760009050612da4565b7f0000000000000000000000000000000000000000000000000000000000000000811015612da3577f000000000000000000000000000000000000000000000000000000000000000090505b5b5b6001600a54612db491906145df565b600c54148015612dcb5750670de0b6b3a764000081115b15612df15760095460076000600c54815260200190815260200160002081905550612e3a565b612e20600c54600a54612e0491906145df565b600954612e119190614554565b82670de0b6b3a7640000612a58565b60076000600c548152602001908152602001600020819055505b60076000600c54815260200190815260200160002054600954612e5d91906145df565b6009819055506001600c6000828254612e7691906144fe565b92505081905550826001600c54612e8d91906144fe565b11158015612e9f5750600a54600c5414155b15612ead57612eac612bf9565b5b505050565b6000612ec4836000018360001b6134e9565b905092915050565b612f4d8363a9059cbb60e01b8484604051602401612eeb929190614104565b604051602081830303815290604052907bffffffffffffffffffffffffffffffffffffffffffffffffffffffff19166020820180517bffffffffffffffffffffffffffffffffffffffffffffffffffffffff838183161783525050505061366f565b505050565b600033905090565b612fdd846323b872dd60e01b858585604051602401612f7b939291906140cd565b604051602081830303815290604052907bffffffffffffffffffffffffffffffffffffffffffffffffffffffff19166020820180517bffffffffffffffffffffffffffffffffffffffffffffffffffffffff838183161783525050505061366f565b50505050565b6000612ff5836000018360001b613736565b905092915050565b600061300f836000018360001b613759565b905092915050565b6000818473ffffffffffffffffffffffffffffffffffffffff1663dd62ed3e30866040518363ffffffff1660e01b81526004016130559291906140a4565b60206040518083038186803b15801561306d57600080fd5b505afa158015613081573d6000803e3d6000fd5b505050506040513d601f19601f820116820180604052508101906130a59190613b9b565b6130af91906144fe565b90506131328463095ea7b360e01b85846040516024016130d0929190614104565b604051602081830303815290604052907bffffffffffffffffffffffffffffffffffffffffffffffffffffffff19166020820180517bffffffffffffffffffffffffffffffffffffffffffffffffffffffff838183161783525050505061366f565b50505050565b600a546131436119cc565b10156131e95780600560003373ffffffffffffffffffffffffffffffffffffffff1673ffffffffffffffffffffffffffffffffffffffff16815260200190815260200160002060006131936119cc565b815260200190815260200160002060008282546131b091906144fe565b9250508190555080600660006131c46119cc565b815260200190815260200160002060008282546131e191906144fe565b925050819055505b6131f16119cc565b6001600c5461320091906144fe565b111580156132125750600a54600c5414155b156132205761321f612bf9565b5b50565b60008114806132bc575060008373ffffffffffffffffffffffffffffffffffffffff1663dd62ed3e30856040518363ffffffff1660e01b815260040161326a9291906140a4565b60206040518083038186803b15801561328257600080fd5b505afa158015613296573d6000803e3d6000fd5b505050506040513d601f19601f820116820180604052508101906132ba9190613b9b565b145b6132fb576040517f08c379a00000000000000000000000000000000000000000000000000000000081526004016132f2906142ec565b60405180910390fd5b61337c8363095ea7b360e01b848460405160240161331a929190614104565b604051602081830303815290604052907bffffffffffffffffffffffffffffffffffffffffffffffffffffffff19166020820180517bffffffffffffffffffffffffffffffffffffffffffffffffffffffff838183161783525050505061366f565b505050565b60008060009054906101000a900473ffffffffffffffffffffffffffffffffffffffff169050816000806101000a81548173ffffffffffffffffffffffffffffffffffffffff021916908373ffffffffffffffffffffffffffffffffffffffff1602179055508173ffffffffffffffffffffffffffffffffffffffff168173ffffffffffffffffffffffffffffffffffffffff167f8be0079c531659141344cd1fd0a4f28419497f9722a3daafe3b4186f6b6457e060405160405180910390a35050565b60006134806006600084815260200190815260200160002054670de0b6b3a76400006004600086815260200190815260200160002054612a58565b9050919050565b600081600001805490509050919050565b60008260000182815481106134d6577f4e487b7100000000000000000000000000000000000000000000000000000000600052603260045260246000fd5b9060005260206000200154905092915050565b6000808360010160008481526020019081526020016000205490506000811461366357600060018261351b91906145df565b905060006001866000018054905061353391906145df565b90508181146135ee57600086600001828154811061357a577f4e487b7100000000000000000000000000000000000000000000000000000000600052603260045260246000fd5b90600052602060002001549050808760000184815481106135c4577f4e487b7100000000000000000000000000000000000000000000000000000000600052603260045260246000fd5b90600052602060002001819055508387600101600083815260200190815260200160002081905550505b85600001805480613628577f4e487b7100000000000000000000000000000000000000000000000000000000600052603160045260246000fd5b600190038181906000526020600020016000905590558560010160008681526020019081526020016000206000905560019350505050613669565b60009150505b92915050565b60006136d1826040518060400160405280602081526020017f5361666545524332303a206c6f772d6c6576656c2063616c6c206661696c65648152508573ffffffffffffffffffffffffffffffffffffffff166137c99092919063ffffffff16565b905060008151111561373157808060200190518101906136f19190613b49565b613730576040517f08c379a0000000000000000000000000000000000000000000000000000000008152600401613727906142cc565b60405180910390fd5b5b505050565b600080836001016000848152602001908152602001600020541415905092915050565b60006137658383613736565b6137be5782600001829080600181540180825580915050600190039060005260206000200160009091909190915055826000018054905083600101600084815260200190815260200160002081905550600190506137c3565b600090505b92915050565b60606137d884846000856137e1565b90509392505050565b606082471015613826576040517f08c379a000000000000000000000000000000000000000000000000000000000815260040161381d9061420c565b60405180910390fd5b61382f856138f5565b61386e576040517f08c379a0000000000000000000000000000000000000000000000000000000008152600401613865906142ac565b60405180910390fd5b6000808673ffffffffffffffffffffffffffffffffffffffff1685876040516138979190614072565b60006040518083038185875af1925050503d80600081146138d4576040519150601f19603f3d011682016040523d82523d6000602084013e6138d9565b606091505b50915091506138e9828286613908565b92505050949350505050565b600080823b905060008111915050919050565b6060831561391857829050613968565b60008351111561392b5782518084602001fd5b816040517f08c379a000000000000000000000000000000000000000000000000000000000815260040161395f919061416a565b60405180910390fd5b9392505050565b600061398261397d84614428565b614403565b905080838252602082019050828560208602820111156139a157600080fd5b60005b858110156139d157816139b78882613a8e565b8452602084019350602083019250506001810190506139a4565b5050509392505050565b6000813590506139ea81614ae8565b92915050565b60008083601f840112613a0257600080fd5b8235905067ffffffffffffffff811115613a1b57600080fd5b602083019150836020820283011115613a3357600080fd5b9250929050565b600082601f830112613a4b57600080fd5b8151613a5b84826020860161396f565b91505092915050565b600081519050613a7381614aff565b92915050565b600081359050613a8881614b16565b92915050565b600081519050613a9d81614b16565b92915050565b600060208284031215613ab557600080fd5b6000613ac3848285016139db565b91505092915050565b60008060408385031215613adf57600080fd5b6000613aed858286016139db565b9250506020613afe85828601613a79565b9150509250929050565b600060208284031215613b1a57600080fd5b600082015167ffffffffffffffff811115613b3457600080fd5b613b4084828501613a3a565b91505092915050565b600060208284031215613b5b57600080fd5b6000613b6984828501613a64565b91505092915050565b600060208284031215613b8457600080fd5b6000613b9284828501613a79565b91505092915050565b600060208284031215613bad57600080fd5b6000613bbb84828501613a8e565b91505092915050565b600080600060408486031215613bd957600080fd5b6000613be786828701613a79565b935050602084013567ffffffffffffffff811115613c0457600080fd5b613c10868287016139f0565b92509250509250925092565b600080600080600060808688031215613c3457600080fd5b6000613c4288828901613a79565b955050602086013567ffffffffffffffff811115613c5f57600080fd5b613c6b888289016139f0565b94509450506040613c7e888289016139db565b9250506060613c8f88828901613a79565b9150509295509295909350565b60008060008060008060a08789031215613cb557600080fd5b6000613cc389828a01613a79565b9650506020613cd489828a01613a79565b955050604087013567ffffffffffffffff811115613cf157600080fd5b613cfd89828a016139f0565b94509450506060613d1089828a016139db565b9250506080613d2189828a01613a79565b9150509295509295509295565b6000613d3a8383613d5e565b60208301905092915050565b6000613d528383614054565b60208301905092915050565b613d6781614613565b82525050565b613d7681614613565b82525050565b6000613d8883856144a9565b9350613d9382614454565b8060005b85811015613dcc57613da982846144e7565b613db38882613d2e565b9750613dbe8361448f565b925050600181019050613d97565b5085925050509392505050565b6000613de48261446e565b613dee81856144ba565b9350613df98361445e565b8060005b83811015613e2a578151613e118882613d46565b9750613e1c8361449c565b925050600181019050613dfd565b5085935050505092915050565b613e4081614625565b82525050565b6000613e5182614479565b613e5b81856144cb565b9350613e6b81856020860161465b565b80840191505092915050565b6000613e8282614484565b613e8c81856144d6565b9350613e9c81856020860161465b565b613ea581614795565b840191505092915050565b6000613ebd602d836144d6565b9150613ec8826147a6565b604082019050919050565b6000613ee06025836144d6565b9150613eeb826147f5565b604082019050919050565b6000613f036026836144d6565b9150613f0e82614844565b604082019050919050565b6000613f266028836144d6565b9150613f3182614893565b604082019050919050565b6000613f496026836144d6565b9150613f54826148e2565b604082019050919050565b6000613f6c602d836144d6565b9150613f7782614931565b604082019050919050565b6000613f8f602a836144d6565b9150613f9a82614980565b604082019050919050565b6000613fb26020836144d6565b9150613fbd826149cf565b602082019050919050565b6000613fd5601c836144d6565b9150613fe0826149f8565b602082019050919050565b6000613ff8601d836144d6565b915061400382614a21565b602082019050919050565b600061401b602a836144d6565b915061402682614a4a565b604082019050919050565b600061403e6036836144d6565b915061404982614a99565b604082019050919050565b61405d81614651565b82525050565b61406c81614651565b82525050565b600061407e8284613e46565b915081905092915050565b600060208201905061409e6000830184613d6d565b92915050565b60006040820190506140b96000830185613d6d565b6140c66020830184613d6d565b9392505050565b60006060820190506140e26000830186613d6d565b6140ef6020830185613d6d565b6140fc6040830184614063565b949350505050565b60006040820190506141196000830185613d6d565b6141266020830184614063565b9392505050565b600060208201905081810360008301526141478184613dd9565b905092915050565b60006020820190506141646000830184613e37565b92915050565b600060208201905081810360008301526141848184613e77565b905092915050565b600060208201905081810360008301526141a581613eb0565b9050919050565b600060208201905081810360008301526141c581613ed3565b9050919050565b600060208201905081810360008301526141e581613ef6565b9050919050565b6000602082019050818103600083015261420581613f19565b9050919050565b6000602082019050818103600083015261422581613f3c565b9050919050565b6000602082019050818103600083015261424581613f5f565b9050919050565b6000602082019050818103600083015261426581613f82565b9050919050565b6000602082019050818103600083015261428581613fa5565b9050919050565b600060208201905081810360008301526142a581613fc8565b9050919050565b600060208201905081810360008301526142c581613feb565b9050919050565b600060208201905081810360008301526142e58161400e565b9050919050565b6000602082019050818103600083015261430581614031565b9050919050565b60006020820190506143216000830184614063565b92915050565b600060408201905061433c6000830186614063565b818103602083015261434f818486613d7c565b9050949350505050565b600060808201905061436e6000830188614063565b8181036020830152614381818688613d7c565b90506143906040830185613d6d565b61439d6060830184614063565b9695505050505050565b600060a0820190506143bc6000830189614063565b6143c96020830188614063565b81810360408301526143dc818688613d7c565b90506143eb6060830185613d6d565b6143f86080830184614063565b979650505050505050565b600061440d61441e565b9050614419828261468e565b919050565b6000604051905090565b600067ffffffffffffffff82111561444357614442614766565b5b602082029050602081019050919050565b6000819050919050565b6000819050602082019050919050565b600081519050919050565b600081519050919050565b600081519050919050565b6000602082019050919050565b6000602082019050919050565b600082825260208201905092915050565b600082825260208201905092915050565b600081905092915050565b600082825260208201905092915050565b60006144f660208401846139db565b905092915050565b600061450982614651565b915061451483614651565b9250827fffffffffffffffffffffffffffffffffffffffffffffffffffffffffffffffff0382111561454957614548614708565b5b828201905092915050565b600061455f82614651565b915061456a83614651565b92508261457a57614579614737565b5b828204905092915050565b600061459082614651565b915061459b83614651565b9250817fffffffffffffffffffffffffffffffffffffffffffffffffffffffffffffffff04831182151516156145d4576145d3614708565b5b828202905092915050565b60006145ea82614651565b91506145f583614651565b92508282101561460857614607614708565b5b828203905092915050565b600061461e82614631565b9050919050565b60008115159050919050565b600073ffffffffffffffffffffffffffffffffffffffff82169050919050565b6000819050919050565b60005b8381101561467957808201518184015260208101905061465e565b83811115614688576000848401525b50505050565b61469782614795565b810181811067ffffffffffffffff821117156146b6576146b5614766565b5b80604052505050565b60006146ca82614651565b91507fffffffffffffffffffffffffffffffffffffffffffffffffffffffffffffffff8214156146fd576146fc614708565b5b600182019050919050565b7f4e487b7100000000000000000000000000000000000000000000000000000000600052601160045260246000fd5b7f4e487b7100000000000000000000000000000000000000000000000000000000600052601260045260246000fd5b7f4e487b7100000000000000000000000000000000000000000000000000000000600052604160045260246000fd5b6000601f19601f8301169050919050565b7f5b636c61696d416c6c526577617264735d20556e7375636365737366756c6c2060008201527f736574206f7065726174696f6e00000000000000000000000000000000000000602082015250565b7f5b737761704578616374455448466f72546f6b656e735d20496e76616c69642060008201527f7061746821000000000000000000000000000000000000000000000000000000602082015250565b7f4f776e61626c653a206e6577206f776e657220697320746865207a65726f206160008201527f6464726573730000000000000000000000000000000000000000000000000000602082015250565b7f5b737761704578616374455448466f72546f6b656e735d204e6f742061206d7360008201527f672e76616c756521000000000000000000000000000000000000000000000000602082015250565b7f416464726573733a20696e73756666696369656e742062616c616e636520666f60008201527f722063616c6c0000000000000000000000000000000000000000000000000000602082015250565b7f5b73776170455448466f724578616374546f6b656e735d204e6f7420656e6f7560008201527f6768206d73672e76616c75652100000000000000000000000000000000000000602082015250565b7f5b7769746864726177526577617264546f6b656e735d204e6f7420656e6f756760008201527f682062616c616e63652100000000000000000000000000000000000000000000602082015250565b7f4f776e61626c653a2063616c6c6572206973206e6f7420746865206f776e6572600082015250565b7f5b636c61696d416c6c526577617264735d204e6f207265776172642100000000600082015250565b7f416464726573733a2063616c6c20746f206e6f6e2d636f6e7472616374000000600082015250565b7f5361666545524332303a204552433230206f7065726174696f6e20646964206e60008201527f6f74207375636365656400000000000000000000000000000000000000000000602082015250565b7f5361666545524332303a20617070726f76652066726f6d206e6f6e2d7a65726f60008201527f20746f206e6f6e2d7a65726f20616c6c6f77616e636500000000000000000000602082015250565b614af181614613565b8114614afc57600080fd5b50565b614b0881614625565b8114614b1357600080fd5b50565b614b1f81614651565b8114614b2a57600080fd5b5056fea264697066735822122097bc10c881716a635df7f72bf0a1b2458b374a0abf205210f25f44a583e02d7064736f6c63430008020033a26469706673582212200b2bb05fac48b6d5ad02586c185ac28fe709d6bb95d4f2e411ec84b96b9299f564736f6c63430008020033",
  "linkReferences": {},
  "deployedLinkReferences": {}
}