{
  "_format": "hh-sol-artifact-1",
  "contractName": "TradeFarmingFactory",
  "sourceName": "contracts/TFFactory.sol",
  "abi": [
    {
      "anonymous": false,
      "inputs": [
        {
          "indexed": true,
          "internalType": "address",
          "name": "previousOwner",
          "type": "address"
        },
        {
          "indexed": true,
          "internalType": "address",
          "name": "newOwner",
          "type": "address"
        }
      ],
      "name": "OwnershipTransferred",
      "type": "event"
    },
    {
      "anonymous": false,
      "inputs": [
        {
          "indexed": false,
          "internalType": "address",
          "name": "_addressOfTF",
          "type": "address"
        },
        {
          "indexed": false,
          "internalType": "address",
          "name": "_tokenAddress",
          "type": "address"
        },
        {
          "indexed": false,
          "internalType": "uint256",
          "name": "_totalDays",
          "type": "uint256"
        }
      ],
      "name": "TFCreated",
      "type": "event"
    },
    {
      "inputs": [
        {
          "internalType": "address",
          "name": "_routerAddress",
          "type": "address"
        },
        {
          "internalType": "address",
          "name": "_tokenAddress",
          "type": "address"
        },
        {
          "internalType": "address",
          "name": "_rewardAddress",
          "type": "address"
        },
        {
          "internalType": "uint256",
          "name": "_previousVolume",
          "type": "uint256"
        },
        {
          "internalType": "uint256",
          "name": "_previousDay",
          "type": "uint256"
        },
        {
          "internalType": "uint256",
          "name": "_totalDays",
          "type": "uint256"
        },
        {
          "internalType": "uint256",
          "name": "_upLimit",
          "type": "uint256"
        },
        {
          "internalType": "uint256",
          "name": "_downLimit",
          "type": "uint256"
        },
        {
          "internalType": "address",
          "name": "_owner",
          "type": "address"
        }
      ],
      "name": "createTnAPair",
      "outputs": [],
      "stateMutability": "nonpayable",
      "type": "function"
    },
    {
      "inputs": [
        {
          "internalType": "uint256",
          "name": "",
          "type": "uint256"
        }
      ],
      "name": "createdContracts",
      "outputs": [
        {
          "internalType": "address",
          "name": "",
          "type": "address"
        }
      ],
      "stateMutability": "view",
      "type": "function"
    },
    {
      "inputs": [],
      "name": "getLastContract",
      "outputs": [
        {
          "internalType": "address",
          "name": "",
          "type": "address"
        }
      ],
      "stateMutability": "view",
      "type": "function"
    },
    {
      "inputs": [],
      "name": "owner",
      "outputs": [
        {
          "internalType": "address",
          "name": "",
          "type": "address"
        }
      ],
      "stateMutability": "view",
      "type": "function"
    },
    {
      "inputs": [],
      "name": "renounceOwnership",
      "outputs": [],
      "stateMutability": "nonpayable",
      "type": "function"
    },
    {
      "inputs": [
        {
          "internalType": "address",
          "name": "newOwner",
          "type": "address"
        }
      ],
      "name": "transferOwnership",
      "outputs": [],
      "stateMutability": "nonpayable",
      "type": "function"
    }
  ],
  "bytecode": "0x608060405234801561001057600080fd5b5061001a3361001f565b61006f565b600080546001600160a01b038381166001600160a01b0319831681178455604051919092169283917f8be0079c531659141344cd1fd0a4f28419497f9722a3daafe3b4186f6b6457e09190a35050565b6134778061007e6000396000f3fe608060405234801561001057600080fd5b50600436106100625760003560e01c80630881139714610067578063701ad63b14610096578063715018a6146100ab5780638da5cb5b146100b3578063c53833fe146100c4578063f2fde38b146100cc575b600080fd5b61007a6100753660046104e7565b6100df565b6040516001600160a01b03909116815260200160405180910390f35b6100a96100a4366004610463565b610109565b005b6100a96102ac565b6000546001600160a01b031661007a565b61007a6102e2565b6100a96100da366004610442565b61032d565b600181815481106100ef57600080fd5b6000918252602090912001546001600160a01b0316905081565b6000546001600160a01b0316331461013c5760405162461bcd60e51b8152600401610133906104ff565b60405180910390fd5b6000898989898989898960405161015290610418565b6001600160a01b03988916815296881660208801529690941660408601526060850192909252608084015260a083015260c082015260e081019190915261010001604051809103906000f0801580156101af573d6000803e3d6000fd5b5060405163f2fde38b60e01b81526001600160a01b0384811660048301529192509082169063f2fde38b90602401600060405180830381600087803b1580156101f757600080fd5b505af115801561020b573d6000803e3d6000fd5b50506001805480820182556000919091527fb10e2d527612073b26eecdfd717e6a320cf44b4afac2b0732d9fcbe2b7fa0cf60180546001600160a01b0319166001600160a01b0385811691821790925560408051918252918d1660208201529081018890527f14d4d5fddd4368f6c56136ff556fb4e4a4c6efe8560b4f8dad30d3d3e13f10449250606001905060405180910390a150505050505050505050565b6000546001600160a01b031633146102d65760405162461bcd60e51b8152600401610133906104ff565b6102e060006103c8565b565b60018054600091906102f5908290610534565b8154811061031357634e487b7160e01b600052603260045260246000fd5b6000918252602090912001546001600160a01b0316905090565b6000546001600160a01b031633146103575760405162461bcd60e51b8152600401610133906104ff565b6001600160a01b0381166103bc5760405162461bcd60e51b815260206004820152602660248201527f4f776e61626c653a206e6577206f776e657220697320746865207a65726f206160448201526564647265737360d01b6064820152608401610133565b6103c5816103c8565b50565b600080546001600160a01b038381166001600160a01b0319831681178455604051919092169283917f8be0079c531659141344cd1fd0a4f28419497f9722a3daafe3b4186f6b6457e09190a35050565b612eea806200055883390190565b80356001600160a01b038116811461043d57600080fd5b919050565b600060208284031215610453578081fd5b61045c82610426565b9392505050565b60008060008060008060008060006101208a8c031215610481578485fd5b61048a8a610426565b985061049860208b01610426565b97506104a660408b01610426565b965060608a0135955060808a0135945060a08a0135935060c08a0135925060e08a013591506104d86101008b01610426565b90509295985092959850929598565b6000602082840312156104f8578081fd5b5035919050565b6020808252818101527f4f776e61626c653a2063616c6c6572206973206e6f7420746865206f776e6572604082015260600190565b60008282101561055257634e487b7160e01b81526011600452602481fd5b50039056fe60e060405260006009553480156200001657600080fd5b5060405162002eea38038062002eea8339810160408190526200003991620002ca565b620000443362000239565b6001600160a01b038816158015906200006557506001600160a01b03871615155b80156200007a57506001600160a01b03861615155b620000d65760405162461bcd60e51b815260206004820152602260248201527f5b5d204164647265737365732063616e206e6f74206265203020616464726573604482015261399760f11b606482015260840160405180910390fd5b42608052600180546001600160a01b03808b166001600160a01b03199283161792839055600280548b8316908416179055600380548a831693169290921790915560008052600460208181527f17ef568e3e12ab5b9c7254a8d58478811de00f9e6eb34345acd53bf8fd09d3ec899055600b889055600a879055604080516315ab88c960e31b81529051949093169363ad5c4648938084019390829003018186803b1580156200018557600080fd5b505afa1580156200019a573d6000803e3d6000fd5b505050506040513d601f19601f82011682018060405250810190620001c09190620002a6565b600d80546001600160a01b0319166001600160a01b03929092169190911790556064620001f683670de0b6b3a764000062000365565b62000202919062000344565b60a05260646200021b82670de0b6b3a764000062000365565b62000227919062000344565b60c05250620003919650505050505050565b600080546001600160a01b038381166001600160a01b0319831681178455604051919092169283917f8be0079c531659141344cd1fd0a4f28419497f9722a3daafe3b4186f6b6457e09190a35050565b80516001600160a01b0381168114620002a157600080fd5b919050565b600060208284031215620002b8578081fd5b620002c38262000289565b9392505050565b600080600080600080600080610100898b031215620002e7578384fd5b620002f28962000289565b97506200030260208a0162000289565b96506200031260408a0162000289565b9550606089015194506080890151935060a0890151925060c0890151915060e089015190509295985092959890939650565b6000826200036057634e487b7160e01b81526012600452602481fd5b500490565b60008160001904831182151516156200038c57634e487b7160e01b81526011600452602481fd5b500290565b60805160a05160c051612af8620003f2600039600081816114030152818161142c01528181611cb50152611cde0152600081816113a7015281816113d001528181611c590152611c820152600081816102d60152610fc60152612af86000f3fe6080604052600436106101665760003560e01c80637e2ca288116100d1578063b203dc601161008a578063d06ca61f11610064578063d06ca61f14610431578063de2af4b014610451578063f2fde38b14610476578063fb3bdb411461049657610166565b8063b203dc60146103b7578063cb43b2dd146103e4578063ceb7f9951461040457610166565b80637e2ca288146102f85780637ff36ab51461030e5780638acc3673146103215780638da5cb5b14610337578063940ce8721461035f57806394f557891461039757610166565b80631f924d86116101235780631f924d861461022d5780634a25d94a1461025a5780636572ca0c1461027a578063715018a61461028f57806378fb427a146102a45780637a40624b146102c457610166565b8063078e36491461016b57806307a779bc146101945780630b83a727146101a957806316c621e0146101c057806318cbafe5146101e05780631f00ca741461020d575b600080fd5b34801561017757600080fd5b50610181600a5481565b6040519081526020015b60405180910390f35b3480156101a057600080fd5b506101816104a9565b3480156101b557600080fd5b506101be6105d5565b005b3480156101cc57600080fd5b506101be6101db3660046126b3565b610904565b3480156101ec57600080fd5b506102006101fb366004612791565b610960565b60405161018b9190612861565b34801561021957600080fd5b506102006102283660046126e3565b610be1565b34801561023957600080fd5b506101816102483660046126b3565b60066020526000908152604090205481565b34801561026657600080fd5b50610200610275366004612791565b610c74565b34801561028657600080fd5b50610181610fbb565b34801561029b57600080fd5b506101be610ffa565b3480156102b057600080fd5b506101be6102bf3660046126b3565b611030565b3480156102d057600080fd5b506101817f000000000000000000000000000000000000000000000000000000000000000081565b34801561030457600080fd5b5061018160095481565b61020061031c36600461272d565b61105f565b34801561032d57600080fd5b50610181600c5481565b34801561034357600080fd5b506000546040516001600160a01b03909116815260200161018b565b34801561036b57600080fd5b5061018161037a3660046125ab565b600560209081526000928352604080842090915290825290205481565b3480156103a357600080fd5b506101816103b23660046126b3565b611307565b3480156103c357600080fd5b506101816103d23660046126b3565b60076020526000908152604090205481565b3480156103f057600080fd5b506101be6103ff3660046126b3565b6114a9565b34801561041057600080fd5b5061018161041f3660046126b3565b60046020526000908152604090205481565b34801561043d57600080fd5b5061020061044c3660046126e3565b611566565b34801561045d57600080fd5b5061046661159b565b604051901515815260200161018b565b34801561048257600080fd5b506101be610491366004612591565b6115d7565b6102006104a436600461272d565b61166f565b600080670de0b6b3a7640000815b3360009081526008602052604090206104cf906119e8565b8110156105cd57600c543360009081526008602052604090206104f290836119f8565b10156105bb573360009081526005602090815260408083206008909252822061056c929061052090856119f8565b815260208082019290925260409081016000908120543382526008909352908120670de0b6b3a76400009160069161055890876119f8565b815260200190815260200160002054611a04565b3360009081526008602052604081209193506105ae91849160079161059190866119f8565b815260200190815260200160002054670de0b6b3a7640000611a04565b6105b890846129e1565b92505b806105c581612a7b565b9150506104b7565b509091505090565b6105dd610fbb565b600c546105eb9060016129e1565b111580156105fd5750600a54600c5414155b1561060a5761060a611b7e565b336000908152600860205260408120670de0b6b3a764000090829061062e906119e8565b600c5433600090815260086020526040902091925061064d9190611dda565b156106605761065d600182612a38565b90505b60008167ffffffffffffffff81111561068957634e487b7160e01b600052604160045260246000fd5b6040519080825280602002602001820160405280156106b2578160200160208202803683370190505b50905060005b8281101561079457600c543360009081526008602052604090206106dc90836119f8565b1015610782573360009081526005602090815260408083206008909252822061070a929061052090856119f8565b33600090815260086020526040812091955061072f91869160079161059190866119f8565b61073990866129e1565b33600090815260086020526040902090955061075590826119f8565b82828151811061077557634e487b7160e01b600052603260045260246000fd5b6020026020010181815250505b8061078c81612a7b565b9150506106b8565b5060005b8281101561085d576107e58282815181106107c357634e487b7160e01b600052603260045260246000fd5b6020908102919091018101513360009081526008909252604090912090611df2565b61084b5760405162461bcd60e51b815260206004820152602c60248201527f5b636c61696d416c6c526577617264735d20556e7375636365737366756c207360448201526b32ba1037b832b930ba34b7b760a11b60648201526084015b60405180910390fd5b8061085581612a7b565b915050610798565b50600084116108ae5760405162461bcd60e51b815260206004820152601c60248201527f5b636c61696d416c6c526577617264735d204e6f2072657761726421000000006044820152606401610842565b6003546108c5906001600160a01b03163386611dfe565b60408051338152602081018690527f106f923f993c2149d49b4255ff723acafa1f2d94393f561d3eda32ae348f7241910160405180910390a150505050565b6000546001600160a01b0316331461092e5760405162461bcd60e51b81526004016108429061291d565b806009600082825461094091906129e1565b909155505060035461095d906001600160a01b0316333084611e61565b50565b600d546060906001600160a01b0316858561097c600182612a38565b81811061099957634e487b7160e01b600052603260045260246000fd5b90506020020160208101906109ae9190612591565b6001600160a01b0316146109d45760405162461bcd60e51b8152600401610842906128d8565b6002546001600160a01b031685856000816109ff57634e487b7160e01b600052603260045260246000fd5b9050602002016020810190610a149190612591565b6001600160a01b031614610a3a5760405162461bcd60e51b8152600401610842906128d8565b610a5a610a45610fbb565b33600090815260086020526040902090611dda565b158015610a6f5750600a54610a6d610fbb565b105b15610afb57610a94610a7f610fbb565b33600090815260086020526040902090611e9f565b610afb5760405162461bcd60e51b815260206004820152603260248201527f5b737761704578616374546f6b656e73466f724554485d20556e73756363657360448201527139b33ab61039b2ba1037b832b930ba34b7b760711b6064820152608401610842565b600254610b13906001600160a01b031633308a611e61565b600154600254610b30916001600160a01b03918216911689611eab565b600a54600c5414610b4457610b4487611f6c565b6001546040516318cbafe560e01b81526001600160a01b03909116906318cbafe590610b7e908a908a908a908a908a908a906004016129a3565b600060405180830381600087803b158015610b9857600080fd5b505af1158015610bac573d6000803e3d6000fd5b505050506040513d6000823e601f3d908101601f19168201604052610bd491908101906125d4565b90505b9695505050505050565b6001546040516307c0329d60e21b81526060916001600160a01b031690631f00ca7490610c1690879087908790600401612952565b60006040518083038186803b158015610c2e57600080fd5b505afa158015610c42573d6000803e3d6000fd5b505050506040513d6000823e601f3d908101601f19168201604052610c6a91908101906125d4565b90505b9392505050565b600d546060906001600160a01b03168585610c90600182612a38565b818110610cad57634e487b7160e01b600052603260045260246000fd5b9050602002016020810190610cc29190612591565b6001600160a01b031614610ce85760405162461bcd60e51b8152600401610842906128d8565b6002546001600160a01b03168585600081610d1357634e487b7160e01b600052603260045260246000fd5b9050602002016020810190610d289190612591565b6001600160a01b031614610d4e5760405162461bcd60e51b8152600401610842906128d8565b610d59610a45610fbb565b158015610d6e5750600a54610d6c610fbb565b105b15610de557610d7e610a7f610fbb565b610de55760405162461bcd60e51b815260206004820152603260248201527f5b73776170546f6b656e73466f7245786163744554485d20556e73756363657360448201527139b33ab61039b2ba1037b832b930ba34b7b760711b6064820152608401610842565b6001546040516307c0329d60e21b8152610eb291339130916001600160a01b031690631f00ca7490610e1f908d908c908c90600401612952565b60006040518083038186803b158015610e3757600080fd5b505afa158015610e4b573d6000803e3d6000fd5b505050506040513d6000823e601f3d908101601f19168201604052610e7391908101906125d4565b600081518110610e9357634e487b7160e01b600052603260045260246000fd5b60209081029190910101516002546001600160a01b0316929190611e61565b600154600254610ecf916001600160a01b03918216911688611eab565b600154604051632512eca560e11b81526001600160a01b0390911690634a25d94a90610f09908a908a908a908a908a908a906004016129a3565b600060405180830381600087803b158015610f2357600080fd5b505af1158015610f37573d6000803e3d6000fd5b505050506040513d6000823e601f3d908101601f19168201604052610f5f91908101906125d4565b9050600a54600c5414610f9d57610f9d81600081518110610f9057634e487b7160e01b600052603260045260246000fd5b6020026020010151611f6c565b600154600254610bd7916001600160a01b039182169116600061201e565b600062015180610feb7f000000000000000000000000000000000000000000000000000000000000000042612a38565b610ff591906129f9565b905090565b6000546001600160a01b031633146110245760405162461bcd60e51b81526004016108429061291d565b61102e6000612142565b565b6000546001600160a01b0316331461105a5760405162461bcd60e51b81526004016108429061291d565b600a55565b600d546060906001600160a01b0316858560008161108d57634e487b7160e01b600052603260045260246000fd5b90506020020160208101906110a29190612591565b6001600160a01b0316146110c85760405162461bcd60e51b8152600401610842906128d8565b6002546001600160a01b031685856110e1600182612a38565b8181106110fe57634e487b7160e01b600052603260045260246000fd5b90506020020160208101906111139190612591565b6001600160a01b0316146111395760405162461bcd60e51b8152600401610842906128d8565b6000341161119a5760405162461bcd60e51b815260206004820152602860248201527f5b737761704578616374455448466f72546f6b656e735d204e6f742061206d73604482015267672e76616c75652160c01b6064820152608401610842565b6111a5610a45610fbb565b1580156111ba5750600a546111b8610fbb565b105b15611231576111ca610a7f610fbb565b6112315760405162461bcd60e51b815260206004820152603260248201527f5b737761704578616374455448466f72546f6b656e735d20556e73756363657360448201527139b33ab61039b2ba1037b832b930ba34b7b760711b6064820152608401610842565b600154604051637ff36ab560e01b81526001600160a01b0390911690637ff36ab590349061126b908a908a908a908a908a9060040161296c565b6000604051808303818588803b15801561128457600080fd5b505af1158015611298573d6000803e3d6000fd5b50505050506040513d6000823e601f3d908101601f191682016040526112c191908101906125d4565b9050600a54600c54146112fe576112fe81600183516112e09190612a38565b81518110610f9057634e487b7160e01b600052603260045260246000fd5b95945050505050565b3360009081526008602052604081208190670de0b6b3a76400009061132c9085611dda565b156114a0573360009081526005602090815260408083208784528252808320546006909252909120546113699190670de0b6b3a764000090611a04565b90506000600c5485101561138c575060008481526007602052604090205461147f565b600c5485141561147f5760006113a3600c54612192565b90507f00000000000000000000000000000000000000000000000000000000000000008111156113f457507f000000000000000000000000000000000000000000000000000000000000000061144c565b806114015750600061144c565b7f000000000000000000000000000000000000000000000000000000000000000081101561144c57507f00000000000000000000000000000000000000000000000000000000000000005b61147b600c54600a5461145f9190612a38565b60095461146c91906129f9565b82670de0b6b3a7640000611a04565b9150505b6114928282670de0b6b3a7640000611a04565b61149c90846129e1565b9250505b5090505b919050565b6000546001600160a01b031633146114d35760405162461bcd60e51b81526004016108429061291d565b8060095410156115385760405162461bcd60e51b815260206004820152602a60248201527f5b7769746864726177526577617264546f6b656e735d204e6f7420656e6f7567604482015269682062616c616e63652160b01b6064820152608401610842565b806009600082825461154a9190612a38565b909155505060035461095d906001600160a01b03163383611dfe565b60015460405163d06ca61f60e01b81526060916001600160a01b03169063d06ca61f90610c1690879087908790600401612952565b60006115a5610fbb565b600c546115b39060016129e1565b111580156115c55750600a54600c5414155b1580610ff5575050600a54600c541490565b6000546001600160a01b031633146116015760405162461bcd60e51b81526004016108429061291d565b6001600160a01b0381166116665760405162461bcd60e51b815260206004820152602660248201527f4f776e61626c653a206e6577206f776e657220697320746865207a65726f206160448201526564647265737360d01b6064820152608401610842565b61095d81612142565b600d546060906001600160a01b0316858560008161169d57634e487b7160e01b600052603260045260246000fd5b90506020020160208101906116b29190612591565b6001600160a01b0316146116d85760405162461bcd60e51b8152600401610842906128d8565b6002546001600160a01b031685856116f1600182612a38565b81811061170e57634e487b7160e01b600052603260045260246000fd5b90506020020160208101906117239190612591565b6001600160a01b0316146117495760405162461bcd60e51b8152600401610842906128d8565b6001546040516307c0329d60e21b81526000916001600160a01b031690631f00ca749061177e908a908a908a90600401612952565b60006040518083038186803b15801561179657600080fd5b505afa1580156117aa573d6000803e3d6000fd5b505050506040513d6000823e601f3d908101601f191682016040526117d291908101906125d4565b6000815181106117f257634e487b7160e01b600052603260045260246000fd5b60200260200101519050803410156118625760405162461bcd60e51b815260206004820152602d60248201527f5b73776170455448466f724578616374546f6b656e735d204e6f7420656e6f7560448201526c6768206d73672e76616c75652160981b6064820152608401610842565b61186d610a45610fbb565b1580156118825750600a54611880610fbb565b105b156118f957611892610a7f610fbb565b6118f95760405162461bcd60e51b815260206004820152603260248201527f5b73776170455448466f724578616374546f6b656e735d20556e73756363657360448201527139b33ab61039b2ba1037b832b930ba34b7b760711b6064820152608401610842565b600a54600c541461190d5761190d87611f6c565b8034111561194d57336108fc6119238334612a38565b6040518115909202916000818181858888f1935050505015801561194b573d6000803e3d6000fd5b505b60015460405163fb3bdb4160e01b81526001600160a01b039091169063fb3bdb41908390611987908b908b908b908b908b9060040161296c565b6000604051808303818588803b1580156119a057600080fd5b505af11580156119b4573d6000803e3d6000fd5b50505050506040513d6000823e601f3d908101601f191682016040526119dd91908101906125d4565b979650505050505050565b60006119f2825490565b92915050565b6000610c6d83836121c0565b6000808211611a1257600080fd5b6000806000198587098587029250828110838203039150508060001415611a3e57508290049050610c6d565b838110611a4a57600080fd5b6000848688098084039381119092039190506000611a6a861960016129e1565b8616958690049593849004936000819003046001019050611a8b8184612a19565b909317926000611a9c876003612a19565b6002189050611aab8188612a19565b611ab6906002612a38565b611ac09082612a19565b9050611acc8188612a19565b611ad7906002612a38565b611ae19082612a19565b9050611aed8188612a19565b611af8906002612a38565b611b029082612a19565b9050611b0e8188612a19565b611b19906002612a38565b611b239082612a19565b9050611b2f8188612a19565b611b3a906002612a38565b611b449082612a19565b9050611b508188612a19565b611b5b906002612a38565b611b659082612a19565b9050611b718186612a19565b9998505050505050505050565b6000611b88610fbb565b90506000600c54600b54611b9c91906129e1565b611ba79060016129e1565b905081600c546001611bb991906129e1565b1115611bd557634e487b7160e01b600052600160045260246000fd5b600c54600090815260066020526040902054611bf29082906129f9565b600c54600090815260046020526040902054611c1990611c13600185612a38565b84611a04565b611c2391906129e1565b60046000600c546001611c3691906129e1565b8152602001908152602001600020819055506000611c55600c54612192565b90507f0000000000000000000000000000000000000000000000000000000000000000811115611ca657507f0000000000000000000000000000000000000000000000000000000000000000611cfe565b80611cb357506000611cfe565b7f0000000000000000000000000000000000000000000000000000000000000000811015611cfe57507f00000000000000000000000000000000000000000000000000000000000000005b6001600a54611d0d9190612a38565b600c54148015611d245750670de0b6b3a764000081115b15611d4357600954600c54600090815260076020526040902055611d69565b611d56600c54600a5461145f9190612a38565b600c546000908152600760205260409020555b600c54600090815260076020526040902054600954611d889190612a38565b6009819055506001600c6000828254611da191906129e1565b9091555050600c548390611db69060016129e1565b11158015611dc85750600a54600c5414155b15611dd557611dd5611b7e565b505050565b60008181526001830160205260408120541515610c6d565b6000610c6d83836121f8565b6040516001600160a01b038316602482015260448101829052611dd590849063a9059cbb60e01b906064015b60408051601f198184030181529190526020810180516001600160e01b03166001600160e01b031990931692909217909152612315565b6040516001600160a01b0380851660248301528316604482015260648101829052611e999085906323b872dd60e01b90608401611e2a565b50505050565b6000610c6d83836123e7565b604051636eb1769f60e11b81523060048201526001600160a01b038381166024830152600091839186169063dd62ed3e9060440160206040518083038186803b158015611ef757600080fd5b505afa158015611f0b573d6000803e3d6000fd5b505050506040513d601f19601f82011682018060405250810190611f2f91906126cb565b611f3991906129e1565b6040516001600160a01b038516602482015260448101829052909150611e9990859063095ea7b360e01b90606401611e2a565b600a54611f77610fbb565b1015611fe9573360009081526005602052604081208291611f96610fbb565b81526020019081526020016000206000828254611fb391906129e1565b9091555081905060066000611fc6610fbb565b81526020019081526020016000206000828254611fe391906129e1565b90915550505b611ff1610fbb565b600c54611fff9060016129e1565b111580156120115750600a54600c5414155b1561095d5761095d611b7e565b8015806120a75750604051636eb1769f60e11b81523060048201526001600160a01b03838116602483015284169063dd62ed3e9060440160206040518083038186803b15801561206d57600080fd5b505afa158015612081573d6000803e3d6000fd5b505050506040513d601f19601f820116820180604052508101906120a591906126cb565b155b6121125760405162461bcd60e51b815260206004820152603660248201527f5361666545524332303a20617070726f76652066726f6d206e6f6e2d7a65726f60448201527520746f206e6f6e2d7a65726f20616c6c6f77616e636560501b6064820152608401610842565b6040516001600160a01b038316602482015260448101829052611dd590849063095ea7b360e01b90606401611e2a565b600080546001600160a01b038381166001600160a01b0319831681178455604051919092169283917f8be0079c531659141344cd1fd0a4f28419497f9722a3daafe3b4186f6b6457e09190a35050565b60008181526006602090815260408083205460049092528220546119f29190670de0b6b3a764000090611a04565b60008260000182815481106121e557634e487b7160e01b600052603260045260246000fd5b9060005260206000200154905092915050565b6000818152600183016020526040812054801561230b57600061221c600183612a38565b855490915060009061223090600190612a38565b90508181146122b157600086600001828154811061225e57634e487b7160e01b600052603260045260246000fd5b906000526020600020015490508087600001848154811061228f57634e487b7160e01b600052603260045260246000fd5b6000918252602080832090910192909255918252600188019052604090208390555b85548690806122d057634e487b7160e01b600052603160045260246000fd5b6001900381819060005260206000200160009055905585600101600086815260200190815260200160002060009055600193505050506119f2565b60009150506119f2565b600061236a826040518060400160405280602081526020017f5361666545524332303a206c6f772d6c6576656c2063616c6c206661696c6564815250856001600160a01b03166124369092919063ffffffff16565b805190915015611dd557808060200190518101906123889190612693565b611dd55760405162461bcd60e51b815260206004820152602a60248201527f5361666545524332303a204552433230206f7065726174696f6e20646964206e6044820152691bdd081cdd58d8d9595960b21b6064820152608401610842565b600081815260018301602052604081205461242e575081546001818101845560008481526020808220909301849055845484825282860190935260409020919091556119f2565b5060006119f2565b6060610c6a848460008585843b61248f5760405162461bcd60e51b815260206004820152601d60248201527f416464726573733a2063616c6c20746f206e6f6e2d636f6e74726163740000006044820152606401610842565b600080866001600160a01b031685876040516124ab9190612845565b60006040518083038185875af1925050503d80600081146124e8576040519150601f19603f3d011682016040523d82523d6000602084013e6124ed565b606091505b50915091506119dd82828660608315612507575081610c6d565b8251156125175782518084602001fd5b8160405162461bcd60e51b815260040161084291906128a5565b80356001600160a01b03811681146114a457600080fd5b60008083601f840112612559578081fd5b50813567ffffffffffffffff811115612570578182fd5b602083019150836020808302850101111561258a57600080fd5b9250929050565b6000602082840312156125a2578081fd5b610c6d82612531565b600080604083850312156125bd578081fd5b6125c683612531565b946020939093013593505050565b600060208083850312156125e6578182fd5b825167ffffffffffffffff808211156125fd578384fd5b818501915085601f830112612610578384fd5b81518181111561262257612622612aac565b838102604051601f19603f8301168101818110858211171561264657612646612aac565b604052828152858101935084860182860187018a1015612664578788fd5b8795505b83861015612686578051855260019590950194938601938601612668565b5098975050505050505050565b6000602082840312156126a4578081fd5b81518015158114610c6d578182fd5b6000602082840312156126c4578081fd5b5035919050565b6000602082840312156126dc578081fd5b5051919050565b6000806000604084860312156126f7578081fd5b83359250602084013567ffffffffffffffff811115612714578182fd5b61272086828701612548565b9497909650939450505050565b600080600080600060808688031215612744578081fd5b85359450602086013567ffffffffffffffff811115612761578182fd5b61276d88828901612548565b9095509350612780905060408701612531565b949793965091946060013592915050565b60008060008060008060a087890312156127a9578081fd5b8635955060208701359450604087013567ffffffffffffffff8111156127cd578182fd5b6127d989828a01612548565b90955093506127ec905060608801612531565b9150608087013590509295509295509295565b60008284526020808501945082825b8581101561283a576001600160a01b0361282783612531565b168752958201959082019060010161280e565b509495945050505050565b60008251612857818460208701612a4f565b9190910192915050565b6020808252825182820181905260009190848201906040850190845b818110156128995783518352928401929184019160010161287d565b50909695505050505050565b60006020825282518060208401526128c4816040850160208701612a4f565b601f01601f19169190910160400192915050565b60208082526025908201527f5b737761704578616374455448466f72546f6b656e735d20496e76616c696420604082015264706174682160d81b606082015260800190565b6020808252818101527f4f776e61626c653a2063616c6c6572206973206e6f7420746865206f776e6572604082015260600190565b6000848252604060208301526112fe6040830184866127ff565b6000868252608060208301526129866080830186886127ff565b6001600160a01b0394909416604083015250606001529392505050565b600087825286602083015260a060408301526129c360a0830186886127ff565b6001600160a01b039490941660608301525060800152949350505050565b600082198211156129f4576129f4612a96565b500190565b600082612a1457634e487b7160e01b81526012600452602481fd5b500490565b6000816000190483118215151615612a3357612a33612a96565b500290565b600082821015612a4a57612a4a612a96565b500390565b60005b83811015612a6a578181015183820152602001612a52565b83811115611e995750506000910152565b6000600019821415612a8f57612a8f612a96565b5060010190565b634e487b7160e01b600052601160045260246000fd5b634e487b7160e01b600052604160045260246000fdfea264697066735822122066e09bbc61159a091c1f027d42266e1675f29a6a1c24c1e1d6a5fd630a19c08164736f6c63430008020033a2646970667358221220ab31f49e6447bcc33a2b73c9cc1f607817fdddaa900080a9c3027f85d31e94a764736f6c63430008020033",
  "linkReferences": {},
  "deployedLinkReferences": {}
}