{
  "_format": "hh-sol-artifact-1",
  "contractName": "TradeFarmingAVAX",
  "sourceName": "contracts/trade-farming/TradeFarmingAVAX.sol",
  "abi": [
    {
      "inputs": [
        {
          "internalType": "address",
          "name": "_routerAddress",
          "type": "address"
        },
        {
          "internalType": "address",
          "name": "_tokenAddress",
          "type": "address"
        },
        {
          "internalType": "address",
          "name": "_rewardAddress",
          "type": "address"
        },
        {
          "internalType": "uint256",
          "name": "_previousVolume",
          "type": "uint256"
        },
        {
          "internalType": "uint256",
          "name": "_previousDay",
          "type": "uint256"
        },
        {
          "internalType": "uint256",
          "name": "_totalDays",
          "type": "uint256"
        },
        {
          "internalType": "uint256",
          "name": "_upLimit",
          "type": "uint256"
        },
        {
          "internalType": "uint256",
          "name": "_downLimit",
          "type": "uint256"
        }
      ],
      "stateMutability": "nonpayable",
      "type": "constructor"
    },
    {
      "anonymous": false,
      "inputs": [
        {
          "indexed": true,
          "internalType": "address",
          "name": "previousOwner",
          "type": "address"
        },
        {
          "indexed": true,
          "internalType": "address",
          "name": "newOwner",
          "type": "address"
        }
      ],
      "name": "OwnershipTransferred",
      "type": "event"
    },
    {
      "anonymous": false,
      "inputs": [
        {
          "indexed": false,
          "internalType": "address",
          "name": "_user",
          "type": "address"
        },
        {
          "indexed": false,
          "internalType": "uint256",
          "name": "_amount",
          "type": "uint256"
        }
      ],
      "name": "RewardClaimed",
      "type": "event"
    },
    {
      "inputs": [],
      "name": "calcDay",
      "outputs": [
        {
          "internalType": "uint256",
          "name": "",
          "type": "uint256"
        }
      ],
      "stateMutability": "view",
      "type": "function"
    },
    {
      "inputs": [
        {
          "internalType": "uint256",
          "name": "day",
          "type": "uint256"
        }
      ],
      "name": "calculateDailyUserReward",
      "outputs": [
        {
          "internalType": "uint256",
          "name": "",
          "type": "uint256"
        }
      ],
      "stateMutability": "view",
      "type": "function"
    },
    {
      "inputs": [],
      "name": "calculateUserRewards",
      "outputs": [
        {
          "internalType": "uint256",
          "name": "",
          "type": "uint256"
        }
      ],
      "stateMutability": "view",
      "type": "function"
    },
    {
      "inputs": [
        {
          "internalType": "uint256",
          "name": "newTotalDays",
          "type": "uint256"
        }
      ],
      "name": "changeTotalDays",
      "outputs": [],
      "stateMutability": "nonpayable",
      "type": "function"
    },
    {
      "inputs": [],
      "name": "claimAllRewards",
      "outputs": [],
      "stateMutability": "nonpayable",
      "type": "function"
    },
    {
      "inputs": [
        {
          "internalType": "uint256",
          "name": "",
          "type": "uint256"
        }
      ],
      "name": "dailyRewards",
      "outputs": [
        {
          "internalType": "uint256",
          "name": "",
          "type": "uint256"
        }
      ],
      "stateMutability": "view",
      "type": "function"
    },
    {
      "inputs": [
        {
          "internalType": "uint256",
          "name": "",
          "type": "uint256"
        }
      ],
      "name": "dailyVolumes",
      "outputs": [
        {
          "internalType": "uint256",
          "name": "",
          "type": "uint256"
        }
      ],
      "stateMutability": "view",
      "type": "function"
    },
    {
      "inputs": [],
      "name": "deployTime",
      "outputs": [
        {
          "internalType": "uint256",
          "name": "",
          "type": "uint256"
        }
      ],
      "stateMutability": "view",
      "type": "function"
    },
    {
      "inputs": [
        {
          "internalType": "uint256",
          "name": "amount",
          "type": "uint256"
        }
      ],
      "name": "depositRewardTokens",
      "outputs": [],
      "stateMutability": "nonpayable",
      "type": "function"
    },
    {
      "inputs": [
        {
          "internalType": "uint256",
          "name": "amountOut",
          "type": "uint256"
        },
        {
          "internalType": "address[]",
          "name": "path",
          "type": "address[]"
        }
      ],
      "name": "getAmountsIn",
      "outputs": [
        {
          "internalType": "uint256[]",
          "name": "amounts",
          "type": "uint256[]"
        }
      ],
      "stateMutability": "view",
      "type": "function"
    },
    {
      "inputs": [
        {
          "internalType": "uint256",
          "name": "amountIn",
          "type": "uint256"
        },
        {
          "internalType": "address[]",
          "name": "path",
          "type": "address[]"
        }
      ],
      "name": "getAmountsOut",
      "outputs": [
        {
          "internalType": "uint256[]",
          "name": "amounts",
          "type": "uint256[]"
        }
      ],
      "stateMutability": "view",
      "type": "function"
    },
    {
      "inputs": [],
      "name": "isCalculated",
      "outputs": [
        {
          "internalType": "bool",
          "name": "",
          "type": "bool"
        }
      ],
      "stateMutability": "view",
      "type": "function"
    },
    {
      "inputs": [],
      "name": "lastAddedDay",
      "outputs": [
        {
          "internalType": "uint256",
          "name": "",
          "type": "uint256"
        }
      ],
      "stateMutability": "view",
      "type": "function"
    },
    {
      "inputs": [],
      "name": "owner",
      "outputs": [
        {
          "internalType": "address",
          "name": "",
          "type": "address"
        }
      ],
      "stateMutability": "view",
      "type": "function"
    },
    {
      "inputs": [
        {
          "internalType": "uint256",
          "name": "",
          "type": "uint256"
        }
      ],
      "name": "previousVolumes",
      "outputs": [
        {
          "internalType": "uint256",
          "name": "",
          "type": "uint256"
        }
      ],
      "stateMutability": "view",
      "type": "function"
    },
    {
      "inputs": [],
      "name": "renounceOwnership",
      "outputs": [],
      "stateMutability": "nonpayable",
      "type": "function"
    },
    {
      "inputs": [
        {
          "internalType": "uint256",
          "name": "amountOut",
          "type": "uint256"
        },
        {
          "internalType": "address[]",
          "name": "path",
          "type": "address[]"
        },
        {
          "internalType": "address",
          "name": "to",
          "type": "address"
        },
        {
          "internalType": "uint256",
          "name": "deadline",
          "type": "uint256"
        }
      ],
      "name": "swapAVAXForExactTokens",
      "outputs": [
        {
          "internalType": "uint256[]",
          "name": "",
          "type": "uint256[]"
        }
      ],
      "stateMutability": "payable",
      "type": "function"
    },
    {
      "inputs": [
        {
          "internalType": "uint256",
          "name": "amountOutMin",
          "type": "uint256"
        },
        {
          "internalType": "address[]",
          "name": "path",
          "type": "address[]"
        },
        {
          "internalType": "address",
          "name": "to",
          "type": "address"
        },
        {
          "internalType": "uint256",
          "name": "deadline",
          "type": "uint256"
        }
      ],
      "name": "swapExactAVAXForTokens",
      "outputs": [
        {
          "internalType": "uint256[]",
          "name": "out",
          "type": "uint256[]"
        }
      ],
      "stateMutability": "payable",
      "type": "function"
    },
    {
      "inputs": [
        {
          "internalType": "uint256",
          "name": "amountIn",
          "type": "uint256"
        },
        {
          "internalType": "uint256",
          "name": "amountOutMin",
          "type": "uint256"
        },
        {
          "internalType": "address[]",
          "name": "path",
          "type": "address[]"
        },
        {
          "internalType": "address",
          "name": "to",
          "type": "address"
        },
        {
          "internalType": "uint256",
          "name": "deadline",
          "type": "uint256"
        }
      ],
      "name": "swapExactTokensForAVAX",
      "outputs": [
        {
          "internalType": "uint256[]",
          "name": "",
          "type": "uint256[]"
        }
      ],
      "stateMutability": "nonpayable",
      "type": "function"
    },
    {
      "inputs": [
        {
          "internalType": "uint256",
          "name": "amountOut",
          "type": "uint256"
        },
        {
          "internalType": "uint256",
          "name": "amountInMax",
          "type": "uint256"
        },
        {
          "internalType": "address[]",
          "name": "path",
          "type": "address[]"
        },
        {
          "internalType": "address",
          "name": "to",
          "type": "address"
        },
        {
          "internalType": "uint256",
          "name": "deadline",
          "type": "uint256"
        }
      ],
      "name": "swapTokensForExactAVAX",
      "outputs": [
        {
          "internalType": "uint256[]",
          "name": "out",
          "type": "uint256[]"
        }
      ],
      "stateMutability": "nonpayable",
      "type": "function"
    },
    {
      "inputs": [],
      "name": "totalDays",
      "outputs": [
        {
          "internalType": "uint256",
          "name": "",
          "type": "uint256"
        }
      ],
      "stateMutability": "view",
      "type": "function"
    },
    {
      "inputs": [],
      "name": "totalRewardBalance",
      "outputs": [
        {
          "internalType": "uint256",
          "name": "",
          "type": "uint256"
        }
      ],
      "stateMutability": "view",
      "type": "function"
    },
    {
      "inputs": [
        {
          "internalType": "address",
          "name": "newOwner",
          "type": "address"
        }
      ],
      "name": "transferOwnership",
      "outputs": [],
      "stateMutability": "nonpayable",
      "type": "function"
    },
    {
      "inputs": [
        {
          "internalType": "address",
          "name": "",
          "type": "address"
        },
        {
          "internalType": "uint256",
          "name": "",
          "type": "uint256"
        }
      ],
      "name": "volumeRecords",
      "outputs": [
        {
          "internalType": "uint256",
          "name": "",
          "type": "uint256"
        }
      ],
      "stateMutability": "view",
      "type": "function"
    },
    {
      "inputs": [
        {
          "internalType": "uint256",
          "name": "amount",
          "type": "uint256"
        }
      ],
      "name": "withdrawRewardTokens",
      "outputs": [],
      "stateMutability": "nonpayable",
      "type": "function"
    }
  ],
  "bytecode": "0x60e060405260006009553480156200001657600080fd5b5060405162004e3438038062004e3483398181016040528101906200003c9190620003f6565b6200005c620000506200028560201b60201c565b6200028d60201b60201c565b426080818152505087600160006101000a81548173ffffffffffffffffffffffffffffffffffffffff021916908373ffffffffffffffffffffffffffffffffffffffff16021790555086600260006101000a81548173ffffffffffffffffffffffffffffffffffffffff021916908373ffffffffffffffffffffffffffffffffffffffff16021790555085600360006101000a81548173ffffffffffffffffffffffffffffffffffffffff021916908373ffffffffffffffffffffffffffffffffffffffff16021790555084600460008081526020019081526020016000208190555083600b8190555082600a81905550600160009054906101000a900473ffffffffffffffffffffffffffffffffffffffff1673ffffffffffffffffffffffffffffffffffffffff166373b295c26040518163ffffffff1660e01b8152600401602060405180830381865afa158015620001bb573d6000803e3d6000fd5b505050506040513d601f19601f82011682018060405250810190620001e19190620004bf565b600d60006101000a81548173ffffffffffffffffffffffffffffffffffffffff021916908373ffffffffffffffffffffffffffffffffffffffff160217905550606482670de0b6b3a764000062000239919062000520565b620002459190620005b0565b60a08181525050606481670de0b6b3a764000062000264919062000520565b620002709190620005b0565b60c081815250505050505050505050620005e8565b600033905090565b60008060009054906101000a900473ffffffffffffffffffffffffffffffffffffffff169050816000806101000a81548173ffffffffffffffffffffffffffffffffffffffff021916908373ffffffffffffffffffffffffffffffffffffffff1602179055508173ffffffffffffffffffffffffffffffffffffffff168173ffffffffffffffffffffffffffffffffffffffff167f8be0079c531659141344cd1fd0a4f28419497f9722a3daafe3b4186f6b6457e060405160405180910390a35050565b600080fd5b600073ffffffffffffffffffffffffffffffffffffffff82169050919050565b6000620003838262000356565b9050919050565b620003958162000376565b8114620003a157600080fd5b50565b600081519050620003b5816200038a565b92915050565b6000819050919050565b620003d081620003bb565b8114620003dc57600080fd5b50565b600081519050620003f081620003c5565b92915050565b600080600080600080600080610100898b0312156200041a576200041962000351565b5b60006200042a8b828c01620003a4565b98505060206200043d8b828c01620003a4565b9750506040620004508b828c01620003a4565b9650506060620004638b828c01620003df565b9550506080620004768b828c01620003df565b94505060a0620004898b828c01620003df565b93505060c06200049c8b828c01620003df565b92505060e0620004af8b828c01620003df565b9150509295985092959890939650565b600060208284031215620004d857620004d762000351565b5b6000620004e884828501620003a4565b91505092915050565b7f4e487b7100000000000000000000000000000000000000000000000000000000600052601160045260246000fd5b60006200052d82620003bb565b91506200053a83620003bb565b9250817fffffffffffffffffffffffffffffffffffffffffffffffffffffffffffffffff0483118215151615620005765762000575620004f1565b5b828202905092915050565b7f4e487b7100000000000000000000000000000000000000000000000000000000600052601260045260246000fd5b6000620005bd82620003bb565b9150620005ca83620003bb565b925082620005dd57620005dc62000581565b5b828204905092915050565b60805160a05160c0516147eb6200064960003960008181611fc901528181611ff101528181612a420152612a6a015260008181611f6701528181611f8f015281816129e00152612a08015260008181610f09015261142a01526147eb6000f3fe6080604052600436106101665760003560e01c80637e2ca288116100d1578063a2a1623d1161008a578063ceb7f99511610064578063ceb7f9951461054c578063d06ca61f14610589578063de2af4b0146105c6578063f2fde38b146105f157610166565b8063a2a1623d146104b6578063b203dc60146104e6578063cb43b2dd1461052357610166565b80637e2ca2881461038b5780638a657e67146103b65780638acc3673146103e65780638da5cb5b14610411578063940ce8721461043c57806394f557891461047957610166565b80636572ca0c116101235780636572ca0c1461027b578063676528d1146102a6578063715018a6146102e357806378fb427a146102fa5780637a40624b146103235780637a42416a1461034e57610166565b8063078e36491461016b57806307a779bc146101965780630b83a727146101c157806316c621e0146101d85780631f00ca74146102015780631f924d861461023e575b600080fd5b34801561017757600080fd5b5061018061061a565b60405161018d91906135bb565b60405180910390f35b3480156101a257600080fd5b506101ab610620565b6040516101b891906135bb565b60405180910390f35b3480156101cd57600080fd5b506101d6610897565b005b3480156101e457600080fd5b506101ff60048036038101906101fa9190613616565b610d53565b005b34801561020d57600080fd5b50610228600480360381019061022391906136a8565b610e3a565b60405161023591906137c6565b60405180910390f35b34801561024a57600080fd5b5061026560048036038101906102609190613616565b610eea565b60405161027291906135bb565b60405180910390f35b34801561028757600080fd5b50610290610f02565b60405161029d91906135bb565b60405180910390f35b3480156102b257600080fd5b506102cd60048036038101906102c89190613846565b610f42565b6040516102da91906137c6565b60405180910390f35b3480156102ef57600080fd5b506102f861131a565b005b34801561030657600080fd5b50610321600480360381019061031c9190613616565b6113a2565b005b34801561032f57600080fd5b50610338611428565b60405161034591906135bb565b60405180910390f35b34801561035a57600080fd5b5061037560048036038101906103709190613846565b61144c565b60405161038291906137c6565b60405180910390f35b34801561039757600080fd5b506103a061196e565b6040516103ad91906135bb565b60405180910390f35b6103d060048036038101906103cb91906138e0565b611974565b6040516103dd91906137c6565b60405180910390f35b3480156103f257600080fd5b506103fb611def565b60405161040891906135bb565b60405180910390f35b34801561041d57600080fd5b50610426611df5565b6040516104339190613977565b60405180910390f35b34801561044857600080fd5b50610463600480360381019061045e9190613992565b611e1e565b60405161047091906135bb565b60405180910390f35b34801561048557600080fd5b506104a0600480360381019061049b9190613616565b611e43565b6040516104ad91906135bb565b60405180910390f35b6104d060048036038101906104cb91906138e0565b612075565b6040516104dd91906137c6565b60405180910390f35b3480156104f257600080fd5b5061050d60048036038101906105089190613616565b6123f7565b60405161051a91906135bb565b60405180910390f35b34801561052f57600080fd5b5061054a60048036038101906105459190613616565b61240f565b005b34801561055857600080fd5b50610573600480360381019061056e9190613616565b612539565b60405161058091906135bb565b60405180910390f35b34801561059557600080fd5b506105b060048036038101906105ab91906136a8565b612551565b6040516105bd91906137c6565b60405180910390f35b3480156105d257600080fd5b506105db612601565b6040516105e891906139ed565b60405180910390f35b3480156105fd57600080fd5b5061061860048036038101906106139190613a08565b612640565b005b600a5481565b600080600090506000670de0b6b3a7640000905060005b61067e600860003373ffffffffffffffffffffffffffffffffffffffff1673ffffffffffffffffffffffffffffffffffffffff168152602001908152602001600020612738565b81101561088e57600c546106d982600860003373ffffffffffffffffffffffffffffffffffffffff1673ffffffffffffffffffffffffffffffffffffffff16815260200190815260200160002061274d90919063ffffffff16565b101561087b576107f5600560003373ffffffffffffffffffffffffffffffffffffffff1673ffffffffffffffffffffffffffffffffffffffff168152602001908152602001600020600061077484600860003373ffffffffffffffffffffffffffffffffffffffff1673ffffffffffffffffffffffffffffffffffffffff16815260200190815260200160002061274d90919063ffffffff16565b815260200190815260200160002054670de0b6b3a7640000600660006107e186600860003373ffffffffffffffffffffffffffffffffffffffff1673ffffffffffffffffffffffffffffffffffffffff16815260200190815260200160002061274d90919063ffffffff16565b815260200190815260200160002054612767565b915061086d826007600061085085600860003373ffffffffffffffffffffffffffffffffffffffff1673ffffffffffffffffffffffffffffffffffffffff16815260200190815260200160002061274d90919063ffffffff16565b815260200190815260200160002054670de0b6b3a7640000612767565b836108789190613a64565b92505b808061088690613aba565b915050610637565b50819250505090565b61089f610f02565b6001600c546108ae9190613a64565b111580156108c05750600a54600c5414155b156108ce576108cd612908565b5b600080670de0b6b3a764000090506000610925600860003373ffffffffffffffffffffffffffffffffffffffff1673ffffffffffffffffffffffffffffffffffffffff168152602001908152602001600020612738565b905060008167ffffffffffffffff81111561094357610942613b03565b5b6040519080825280602002602001820160405280156109715781602001602082028036833780820191505090505b50905060005b82811015610bf857600c546109d382600860003373ffffffffffffffffffffffffffffffffffffffff1673ffffffffffffffffffffffffffffffffffffffff16815260200190815260200160002061274d90919063ffffffff16565b1015610be557610aef600560003373ffffffffffffffffffffffffffffffffffffffff1673ffffffffffffffffffffffffffffffffffffffff1681526020019081526020016000206000610a6e84600860003373ffffffffffffffffffffffffffffffffffffffff1673ffffffffffffffffffffffffffffffffffffffff16815260200190815260200160002061274d90919063ffffffff16565b815260200190815260200160002054670de0b6b3a764000060066000610adb86600860003373ffffffffffffffffffffffffffffffffffffffff1673ffffffffffffffffffffffffffffffffffffffff16815260200190815260200160002061274d90919063ffffffff16565b815260200190815260200160002054612767565b9350610b678460076000610b4a85600860003373ffffffffffffffffffffffffffffffffffffffff1673ffffffffffffffffffffffffffffffffffffffff16815260200190815260200160002061274d90919063ffffffff16565b815260200190815260200160002054670de0b6b3a7640000612767565b85610b729190613a64565b9450610bc581600860003373ffffffffffffffffffffffffffffffffffffffff1673ffffffffffffffffffffffffffffffffffffffff16815260200190815260200160002061274d90919063ffffffff16565b828281518110610bd857610bd7613b32565b5b6020026020010181815250505b8080610bf090613aba565b915050610977565b5060005b82811015610c8357610c6f828281518110610c1a57610c19613b32565b5b6020026020010151600860003373ffffffffffffffffffffffffffffffffffffffff1673ffffffffffffffffffffffffffffffffffffffff168152602001908152602001600020612b9b90919063ffffffff16565b508080610c7b90613aba565b915050610bfc565b5060008411610cc7576040517f08c379a0000000000000000000000000000000000000000000000000000000008152600401610cbe90613bbe565b60405180910390fd5b610d143385600360009054906101000a900473ffffffffffffffffffffffffffffffffffffffff1673ffffffffffffffffffffffffffffffffffffffff16612bb59092919063ffffffff16565b7f106f923f993c2149d49b4255ff723acafa1f2d94393f561d3eda32ae348f72413385604051610d45929190613bde565b60405180910390a150505050565b610d5b612c3b565b73ffffffffffffffffffffffffffffffffffffffff16610d79611df5565b73ffffffffffffffffffffffffffffffffffffffff1614610dcf576040517f08c379a0000000000000000000000000000000000000000000000000000000008152600401610dc690613c53565b60405180910390fd5b8060096000828254610de19190613a64565b92505081905550610e37333083600360009054906101000a900473ffffffffffffffffffffffffffffffffffffffff1673ffffffffffffffffffffffffffffffffffffffff16612c43909392919063ffffffff16565b50565b6060600160009054906101000a900473ffffffffffffffffffffffffffffffffffffffff1673ffffffffffffffffffffffffffffffffffffffff16631f00ca748585856040518463ffffffff1660e01b8152600401610e9b93929190613d36565b600060405180830381865afa158015610eb8573d6000803e3d6000fd5b505050506040513d6000823e3d601f19601f82011682018060405250810190610ee19190613e9d565b90509392505050565b60066020528060005260406000206000915090505481565b600061012c7f000000000000000000000000000000000000000000000000000000000000000042610f339190613ee6565b610f3d9190613f49565b905090565b6060600d60009054906101000a900473ffffffffffffffffffffffffffffffffffffffff1673ffffffffffffffffffffffffffffffffffffffff168585600188889050610f8f9190613ee6565b818110610f9f57610f9e613b32565b5b9050602002016020810190610fb49190613a08565b73ffffffffffffffffffffffffffffffffffffffff161461100a576040517f08c379a000000000000000000000000000000000000000000000000000000000815260040161100190613fec565b60405180910390fd5b600260009054906101000a900473ffffffffffffffffffffffffffffffffffffffff1673ffffffffffffffffffffffffffffffffffffffff168585600081811061105757611056613b32565b5b905060200201602081019061106c9190613a08565b73ffffffffffffffffffffffffffffffffffffffff16146110c2576040517f08c379a00000000000000000000000000000000000000000000000000000000081526004016110b990613fec565b60405180910390fd5b61111a6110cd610f02565b600860003373ffffffffffffffffffffffffffffffffffffffff1673ffffffffffffffffffffffffffffffffffffffff168152602001908152602001600020612ccc90919063ffffffff16565b15801561112f5750600a5461112d610f02565b105b1561118e5761118c61113f610f02565b600860003373ffffffffffffffffffffffffffffffffffffffff1673ffffffffffffffffffffffffffffffffffffffff168152602001908152602001600020612ce690919063ffffffff16565b505b6111dd333089600260009054906101000a900473ffffffffffffffffffffffffffffffffffffffff1673ffffffffffffffffffffffffffffffffffffffff16612c43909392919063ffffffff16565b61124c600160009054906101000a900473ffffffffffffffffffffffffffffffffffffffff1688600260009054906101000a900473ffffffffffffffffffffffffffffffffffffffff1673ffffffffffffffffffffffffffffffffffffffff16612d009092919063ffffffff16565b600a54600c54146112615761126087612e12565b5b600160009054906101000a900473ffffffffffffffffffffffffffffffffffffffff1673ffffffffffffffffffffffffffffffffffffffff1663676528d18888888888886040518763ffffffff1660e01b81526004016112c69695949392919061400c565b6000604051808303816000875af11580156112e5573d6000803e3d6000fd5b505050506040513d6000823e3d601f19601f8201168201806040525081019061130e9190613e9d565b90509695505050505050565b611322612c3b565b73ffffffffffffffffffffffffffffffffffffffff16611340611df5565b73ffffffffffffffffffffffffffffffffffffffff1614611396576040517f08c379a000000000000000000000000000000000000000000000000000000000815260040161138d90613c53565b60405180910390fd5b6113a06000612efd565b565b6113aa612c3b565b73ffffffffffffffffffffffffffffffffffffffff166113c8611df5565b73ffffffffffffffffffffffffffffffffffffffff161461141e576040517f08c379a000000000000000000000000000000000000000000000000000000000815260040161141590613c53565b60405180910390fd5b80600a8190555050565b7f000000000000000000000000000000000000000000000000000000000000000081565b6060600d60009054906101000a900473ffffffffffffffffffffffffffffffffffffffff1673ffffffffffffffffffffffffffffffffffffffff1685856001888890506114999190613ee6565b8181106114a9576114a8613b32565b5b90506020020160208101906114be9190613a08565b73ffffffffffffffffffffffffffffffffffffffff1614611514576040517f08c379a000000000000000000000000000000000000000000000000000000000815260040161150b90613fec565b60405180910390fd5b600260009054906101000a900473ffffffffffffffffffffffffffffffffffffffff1673ffffffffffffffffffffffffffffffffffffffff168585600081811061156157611560613b32565b5b90506020020160208101906115769190613a08565b73ffffffffffffffffffffffffffffffffffffffff16146115cc576040517f08c379a00000000000000000000000000000000000000000000000000000000081526004016115c390613fec565b60405180910390fd5b6116246115d7610f02565b600860003373ffffffffffffffffffffffffffffffffffffffff1673ffffffffffffffffffffffffffffffffffffffff168152602001908152602001600020612ccc90919063ffffffff16565b1580156116395750600a54611637610f02565b105b1561169857611696611649610f02565b600860003373ffffffffffffffffffffffffffffffffffffffff1673ffffffffffffffffffffffffffffffffffffffff168152602001908152602001600020612ce690919063ffffffff16565b505b6117a63330600160009054906101000a900473ffffffffffffffffffffffffffffffffffffffff1673ffffffffffffffffffffffffffffffffffffffff16631f00ca748b8a8a6040518463ffffffff1660e01b81526004016116fc93929190613d36565b600060405180830381865afa158015611719573d6000803e3d6000fd5b505050506040513d6000823e3d601f19601f820116820180604052508101906117429190613e9d565b60008151811061175557611754613b32565b5b6020026020010151600260009054906101000a900473ffffffffffffffffffffffffffffffffffffffff1673ffffffffffffffffffffffffffffffffffffffff16612c43909392919063ffffffff16565b611815600160009054906101000a900473ffffffffffffffffffffffffffffffffffffffff1687600260009054906101000a900473ffffffffffffffffffffffffffffffffffffffff1673ffffffffffffffffffffffffffffffffffffffff16612d009092919063ffffffff16565b600160009054906101000a900473ffffffffffffffffffffffffffffffffffffffff1673ffffffffffffffffffffffffffffffffffffffff16637a42416a8888888888886040518763ffffffff1660e01b815260040161187a9695949392919061400c565b6000604051808303816000875af1158015611899573d6000803e3d6000fd5b505050506040513d6000823e3d601f19601f820116820180604052508101906118c29190613e9d565b9050600a54600c54146118f4576118f3816000815181106118e6576118e5613b32565b5b6020026020010151612e12565b5b611964600160009054906101000a900473ffffffffffffffffffffffffffffffffffffffff166000600260009054906101000a900473ffffffffffffffffffffffffffffffffffffffff1673ffffffffffffffffffffffffffffffffffffffff16612fc19092919063ffffffff16565b9695505050505050565b60095481565b6060600d60009054906101000a900473ffffffffffffffffffffffffffffffffffffffff1673ffffffffffffffffffffffffffffffffffffffff16858560008181106119c3576119c2613b32565b5b90506020020160208101906119d89190613a08565b73ffffffffffffffffffffffffffffffffffffffff1614611a2e576040517f08c379a0000000000000000000000000000000000000000000000000000000008152600401611a2590613fec565b60405180910390fd5b600260009054906101000a900473ffffffffffffffffffffffffffffffffffffffff1673ffffffffffffffffffffffffffffffffffffffff168585600188889050611a799190613ee6565b818110611a8957611a88613b32565b5b9050602002016020810190611a9e9190613a08565b73ffffffffffffffffffffffffffffffffffffffff1614611af4576040517f08c379a0000000000000000000000000000000000000000000000000000000008152600401611aeb90613fec565b60405180910390fd5b6000600160009054906101000a900473ffffffffffffffffffffffffffffffffffffffff1673ffffffffffffffffffffffffffffffffffffffff16631f00ca748888886040518463ffffffff1660e01b8152600401611b5593929190613d36565b600060405180830381865afa158015611b72573d6000803e3d6000fd5b505050506040513d6000823e3d601f19601f82011682018060405250810190611b9b9190613e9d565b600081518110611bae57611bad613b32565b5b6020026020010151905080341015611bfb576040517f08c379a0000000000000000000000000000000000000000000000000000000008152600401611bf2906140da565b60405180910390fd5b611c53611c06610f02565b600860003373ffffffffffffffffffffffffffffffffffffffff1673ffffffffffffffffffffffffffffffffffffffff168152602001908152602001600020612ccc90919063ffffffff16565b158015611c685750600a54611c66610f02565b105b15611cc757611cc5611c78610f02565b600860003373ffffffffffffffffffffffffffffffffffffffff1673ffffffffffffffffffffffffffffffffffffffff168152602001908152602001600020612ce690919063ffffffff16565b505b600a54600c5414611cdc57611cdb87612e12565b5b80341115611d37573373ffffffffffffffffffffffffffffffffffffffff166108fc8234611d0a9190613ee6565b9081150290604051600060405180830381858888f19350505050158015611d35573d6000803e3d6000fd5b505b600160009054906101000a900473ffffffffffffffffffffffffffffffffffffffff1673ffffffffffffffffffffffffffffffffffffffff16638a657e678289898989896040518763ffffffff1660e01b8152600401611d9b9594939291906140fa565b60006040518083038185885af1158015611db9573d6000803e3d6000fd5b50505050506040513d6000823e3d601f19601f82011682018060405250810190611de39190613e9d565b91505095945050505050565b600c5481565b60008060009054906101000a900473ffffffffffffffffffffffffffffffffffffffff16905090565b6005602052816000526040600020602052806000526040600020600091509150505481565b600080600090506000670de0b6b3a76400009050611ea884600860003373ffffffffffffffffffffffffffffffffffffffff1673ffffffffffffffffffffffffffffffffffffffff168152602001908152602001600020612ccc90919063ffffffff16565b1561206b57611f23600560003373ffffffffffffffffffffffffffffffffffffffff1673ffffffffffffffffffffffffffffffffffffffff168152602001908152602001600020600086815260200190815260200160002054670de0b6b3a76400006006600088815260200190815260200160002054612767565b90506000600c54851015611f4c5760076000868152602001908152602001600020549050612049565b600c54851415612048576000611f63600c54613110565b90507f0000000000000000000000000000000000000000000000000000000000000000811115611fb5577f00000000000000000000000000000000000000000000000000000000000000009050612015565b6000811415611fc75760009050612014565b7f0000000000000000000000000000000000000000000000000000000000000000811015612013577f000000000000000000000000000000000000000000000000000000000000000090505b5b5b612044600c54600a546120289190613ee6565b6009546120359190613f49565b82670de0b6b3a7640000612767565b9150505b5b61205c8282670de0b6b3a7640000612767565b836120679190613a64565b9250505b8192505050919050565b6060600d60009054906101000a900473ffffffffffffffffffffffffffffffffffffffff1673ffffffffffffffffffffffffffffffffffffffff16858560008181106120c4576120c3613b32565b5b90506020020160208101906120d99190613a08565b73ffffffffffffffffffffffffffffffffffffffff161461212f576040517f08c379a000000000000000000000000000000000000000000000000000000000815260040161212690613fec565b60405180910390fd5b600260009054906101000a900473ffffffffffffffffffffffffffffffffffffffff1673ffffffffffffffffffffffffffffffffffffffff16858560018888905061217a9190613ee6565b81811061218a57612189613b32565b5b905060200201602081019061219f9190613a08565b73ffffffffffffffffffffffffffffffffffffffff16146121f5576040517f08c379a00000000000000000000000000000000000000000000000000000000081526004016121ec90613fec565b60405180910390fd5b60003411612238576040517f08c379a000000000000000000000000000000000000000000000000000000000815260040161222f906141ba565b60405180910390fd5b612290612243610f02565b600860003373ffffffffffffffffffffffffffffffffffffffff1673ffffffffffffffffffffffffffffffffffffffff168152602001908152602001600020612ccc90919063ffffffff16565b1580156122a55750600a546122a3610f02565b105b15612304576123026122b5610f02565b600860003373ffffffffffffffffffffffffffffffffffffffff1673ffffffffffffffffffffffffffffffffffffffff168152602001908152602001600020612ce690919063ffffffff16565b505b600160009054906101000a900473ffffffffffffffffffffffffffffffffffffffff1673ffffffffffffffffffffffffffffffffffffffff1663a2a1623d3488888888886040518763ffffffff1660e01b81526004016123689594939291906140fa565b60006040518083038185885af1158015612386573d6000803e3d6000fd5b50505050506040513d6000823e3d601f19601f820116820180604052508101906123b09190613e9d565b9050600a54600c54146123ee576123ed81600183516123cf9190613ee6565b815181106123e0576123df613b32565b5b6020026020010151612e12565b5b95945050505050565b60076020528060005260406000206000915090505481565b612417612c3b565b73ffffffffffffffffffffffffffffffffffffffff16612435611df5565b73ffffffffffffffffffffffffffffffffffffffff161461248b576040517f08c379a000000000000000000000000000000000000000000000000000000000815260040161248290613c53565b60405180910390fd5b8060095410156124d0576040517f08c379a00000000000000000000000000000000000000000000000000000000081526004016124c79061424c565b60405180910390fd5b80600960008282546124e29190613ee6565b925050819055506125363382600360009054906101000a900473ffffffffffffffffffffffffffffffffffffffff1673ffffffffffffffffffffffffffffffffffffffff16612bb59092919063ffffffff16565b50565b60046020528060005260406000206000915090505481565b6060600160009054906101000a900473ffffffffffffffffffffffffffffffffffffffff1673ffffffffffffffffffffffffffffffffffffffff1663d06ca61f8585856040518463ffffffff1660e01b81526004016125b293929190613d36565b600060405180830381865afa1580156125cf573d6000803e3d6000fd5b505050506040513d6000823e3d601f19601f820116820180604052508101906125f89190613e9d565b90509392505050565b600061260b610f02565b6001600c5461261a9190613a64565b1115801561262c5750600a54600c5414155b158061263b5750600a54600c54145b905090565b612648612c3b565b73ffffffffffffffffffffffffffffffffffffffff16612666611df5565b73ffffffffffffffffffffffffffffffffffffffff16146126bc576040517f08c379a00000000000000000000000000000000000000000000000000000000081526004016126b390613c53565b60405180910390fd5b600073ffffffffffffffffffffffffffffffffffffffff168173ffffffffffffffffffffffffffffffffffffffff16141561272c576040517f08c379a0000000000000000000000000000000000000000000000000000000008152600401612723906142de565b60405180910390fd5b61273581612efd565b50565b600061274682600001613152565b9050919050565b600061275c8360000183613163565b60001c905092915050565b600080821161277557600080fd5b60008060001985870985870292508281108382030391505060008114156127a25783820492505050612901565b8381106127ae57600080fd5b60008486880990508281118203915080830392506000600186196127d29190613a64565b8616905080860495508084049350600181826000030401905080836127f791906142fe565b841793506000600287600361280c91906142fe565b189050808761281b91906142fe565b60026128279190613ee6565b8161283291906142fe565b9050808761284091906142fe565b600261284c9190613ee6565b8161285791906142fe565b9050808761286591906142fe565b60026128719190613ee6565b8161287c91906142fe565b9050808761288a91906142fe565b60026128969190613ee6565b816128a191906142fe565b905080876128af91906142fe565b60026128bb9190613ee6565b816128c691906142fe565b905080876128d491906142fe565b60026128e09190613ee6565b816128eb91906142fe565b905080856128f991906142fe565b955050505050505b9392505050565b6000612912610f02565b905060006001600c54600b546129289190613a64565b6129329190613a64565b9050816001600c546129449190613a64565b111561295357612952614358565b5b8060066000600c548152602001908152602001600020546129749190613f49565b6129a060046000600c5481526020019081526020016000205460018461299a9190613ee6565b84612767565b6129aa9190613a64565b600460006001600c546129bd9190613a64565b81526020019081526020016000208190555060006129dc600c54613110565b90507f0000000000000000000000000000000000000000000000000000000000000000811115612a2e577f00000000000000000000000000000000000000000000000000000000000000009050612a8e565b6000811415612a405760009050612a8d565b7f0000000000000000000000000000000000000000000000000000000000000000811015612a8c577f000000000000000000000000000000000000000000000000000000000000000090505b5b5b6001600a54612a9d9190613ee6565b600c54148015612ab45750670de0b6b3a764000081115b15612ada5760095460076000600c54815260200190815260200160002081905550612b23565b612b09600c54600a54612aed9190613ee6565b600954612afa9190613f49565b82670de0b6b3a7640000612767565b60076000600c548152602001908152602001600020819055505b60076000600c54815260200190815260200160002054600954612b469190613ee6565b6009819055506001600c6000828254612b5f9190613a64565b92505081905550826001600c54612b769190613a64565b11158015612b885750600a54600c5414155b15612b9657612b95612908565b5b505050565b6000612bad836000018360001b61318e565b905092915050565b612c368363a9059cbb60e01b8484604051602401612bd4929190613bde565b604051602081830303815290604052907bffffffffffffffffffffffffffffffffffffffffffffffffffffffff19166020820180517bffffffffffffffffffffffffffffffffffffffffffffffffffffffff83818316178352505050506132a2565b505050565b600033905090565b612cc6846323b872dd60e01b858585604051602401612c6493929190614387565b604051602081830303815290604052907bffffffffffffffffffffffffffffffffffffffffffffffffffffffff19166020820180517bffffffffffffffffffffffffffffffffffffffffffffffffffffffff83818316178352505050506132a2565b50505050565b6000612cde836000018360001b613369565b905092915050565b6000612cf8836000018360001b61338c565b905092915050565b6000818473ffffffffffffffffffffffffffffffffffffffff1663dd62ed3e30866040518363ffffffff1660e01b8152600401612d3e9291906143be565b602060405180830381865afa158015612d5b573d6000803e3d6000fd5b505050506040513d601f19601f82011682018060405250810190612d7f91906143e7565b612d899190613a64565b9050612e0c8463095ea7b360e01b8584604051602401612daa929190613bde565b604051602081830303815290604052907bffffffffffffffffffffffffffffffffffffffffffffffffffffffff19166020820180517bffffffffffffffffffffffffffffffffffffffffffffffffffffffff83818316178352505050506132a2565b50505050565b600a54612e1d610f02565b1015612ec35780600560003373ffffffffffffffffffffffffffffffffffffffff1673ffffffffffffffffffffffffffffffffffffffff1681526020019081526020016000206000612e6d610f02565b81526020019081526020016000206000828254612e8a9190613a64565b925050819055508060066000612e9e610f02565b81526020019081526020016000206000828254612ebb9190613a64565b925050819055505b612ecb610f02565b6001600c54612eda9190613a64565b11158015612eec5750600a54600c5414155b15612efa57612ef9612908565b5b50565b60008060009054906101000a900473ffffffffffffffffffffffffffffffffffffffff169050816000806101000a81548173ffffffffffffffffffffffffffffffffffffffff021916908373ffffffffffffffffffffffffffffffffffffffff1602179055508173ffffffffffffffffffffffffffffffffffffffff168173ffffffffffffffffffffffffffffffffffffffff167f8be0079c531659141344cd1fd0a4f28419497f9722a3daafe3b4186f6b6457e060405160405180910390a35050565b600081148061304b575060008373ffffffffffffffffffffffffffffffffffffffff1663dd62ed3e30856040518363ffffffff1660e01b81526004016130089291906143be565b602060405180830381865afa158015613025573d6000803e3d6000fd5b505050506040513d601f19601f8201168201806040525081019061304991906143e7565b145b61308a576040517f08c379a000000000000000000000000000000000000000000000000000000000815260040161308190614486565b60405180910390fd5b61310b8363095ea7b360e01b84846040516024016130a9929190613bde565b604051602081830303815290604052907bffffffffffffffffffffffffffffffffffffffffffffffffffffffff19166020820180517bffffffffffffffffffffffffffffffffffffffffffffffffffffffff83818316178352505050506132a2565b505050565b600061314b6006600084815260200190815260200160002054670de0b6b3a76400006004600086815260200190815260200160002054612767565b9050919050565b600081600001805490509050919050565b600082600001828154811061317b5761317a613b32565b5b9060005260206000200154905092915050565b600080836001016000848152602001908152602001600020549050600081146132965760006001826131c09190613ee6565b90506000600186600001805490506131d89190613ee6565b90508181146132475760008660000182815481106131f9576131f8613b32565b5b906000526020600020015490508087600001848154811061321d5761321c613b32565b5b90600052602060002001819055508387600101600083815260200190815260200160002081905550505b8560000180548061325b5761325a6144a6565b5b60019003818190600052602060002001600090559055856001016000868152602001908152602001600020600090556001935050505061329c565b60009150505b92915050565b6000613304826040518060400160405280602081526020017f5361666545524332303a206c6f772d6c6576656c2063616c6c206661696c65648152508573ffffffffffffffffffffffffffffffffffffffff166133fc9092919063ffffffff16565b905060008151111561336457808060200190518101906133249190614501565b613363576040517f08c379a000000000000000000000000000000000000000000000000000000000815260040161335a906145a0565b60405180910390fd5b5b505050565b600080836001016000848152602001908152602001600020541415905092915050565b60006133988383613369565b6133f15782600001829080600181540180825580915050600190039060005260206000200160009091909190915055826000018054905083600101600084815260200190815260200160002081905550600190506133f6565b600090505b92915050565b606061340b8484600085613414565b90509392505050565b606082471015613459576040517f08c379a000000000000000000000000000000000000000000000000000000000815260040161345090614632565b60405180910390fd5b61346285613528565b6134a1576040517f08c379a00000000000000000000000000000000000000000000000000000000081526004016134989061469e565b60405180910390fd5b6000808673ffffffffffffffffffffffffffffffffffffffff1685876040516134ca9190614738565b60006040518083038185875af1925050503d8060008114613507576040519150601f19603f3d011682016040523d82523d6000602084013e61350c565b606091505b509150915061351c82828661353b565b92505050949350505050565b600080823b905060008111915050919050565b6060831561354b5782905061359b565b60008351111561355e5782518084602001fd5b816040517f08c379a00000000000000000000000000000000000000000000000000000000081526004016135929190614793565b60405180910390fd5b9392505050565b6000819050919050565b6135b5816135a2565b82525050565b60006020820190506135d060008301846135ac565b92915050565b6000604051905090565b600080fd5b600080fd5b6135f3816135a2565b81146135fe57600080fd5b50565b600081359050613610816135ea565b92915050565b60006020828403121561362c5761362b6135e0565b5b600061363a84828501613601565b91505092915050565b600080fd5b600080fd5b600080fd5b60008083601f84011261366857613667613643565b5b8235905067ffffffffffffffff81111561368557613684613648565b5b6020830191508360208202830111156136a1576136a061364d565b5b9250929050565b6000806000604084860312156136c1576136c06135e0565b5b60006136cf86828701613601565b935050602084013567ffffffffffffffff8111156136f0576136ef6135e5565b5b6136fc86828701613652565b92509250509250925092565b600081519050919050565b600082825260208201905092915050565b6000819050602082019050919050565b61373d816135a2565b82525050565b600061374f8383613734565b60208301905092915050565b6000602082019050919050565b600061377382613708565b61377d8185613713565b935061378883613724565b8060005b838110156137b95781516137a08882613743565b97506137ab8361375b565b92505060018101905061378c565b5085935050505092915050565b600060208201905081810360008301526137e08184613768565b905092915050565b600073ffffffffffffffffffffffffffffffffffffffff82169050919050565b6000613813826137e8565b9050919050565b61382381613808565b811461382e57600080fd5b50565b6000813590506138408161381a565b92915050565b60008060008060008060a08789031215613863576138626135e0565b5b600061387189828a01613601565b965050602061388289828a01613601565b955050604087013567ffffffffffffffff8111156138a3576138a26135e5565b5b6138af89828a01613652565b945094505060606138c289828a01613831565b92505060806138d389828a01613601565b9150509295509295509295565b6000806000806000608086880312156138fc576138fb6135e0565b5b600061390a88828901613601565b955050602086013567ffffffffffffffff81111561392b5761392a6135e5565b5b61393788828901613652565b9450945050604061394a88828901613831565b925050606061395b88828901613601565b9150509295509295909350565b61397181613808565b82525050565b600060208201905061398c6000830184613968565b92915050565b600080604083850312156139a9576139a86135e0565b5b60006139b785828601613831565b92505060206139c885828601613601565b9150509250929050565b60008115159050919050565b6139e7816139d2565b82525050565b6000602082019050613a0260008301846139de565b92915050565b600060208284031215613a1e57613a1d6135e0565b5b6000613a2c84828501613831565b91505092915050565b7f4e487b7100000000000000000000000000000000000000000000000000000000600052601160045260246000fd5b6000613a6f826135a2565b9150613a7a836135a2565b9250827fffffffffffffffffffffffffffffffffffffffffffffffffffffffffffffffff03821115613aaf57613aae613a35565b5b828201905092915050565b6000613ac5826135a2565b91507fffffffffffffffffffffffffffffffffffffffffffffffffffffffffffffffff821415613af857613af7613a35565b5b600182019050919050565b7f4e487b7100000000000000000000000000000000000000000000000000000000600052604160045260246000fd5b7f4e487b7100000000000000000000000000000000000000000000000000000000600052603260045260246000fd5b600082825260208201905092915050565b7f5b636c61696d416c6c526577617264735d204e6f207265776172642100000000600082015250565b6000613ba8601c83613b61565b9150613bb382613b72565b602082019050919050565b60006020820190508181036000830152613bd781613b9b565b9050919050565b6000604082019050613bf36000830185613968565b613c0060208301846135ac565b9392505050565b7f4f776e61626c653a2063616c6c6572206973206e6f7420746865206f776e6572600082015250565b6000613c3d602083613b61565b9150613c4882613c07565b602082019050919050565b60006020820190508181036000830152613c6c81613c30565b9050919050565b600082825260208201905092915050565b6000819050919050565b613c9781613808565b82525050565b6000613ca98383613c8e565b60208301905092915050565b6000613cc46020840184613831565b905092915050565b6000602082019050919050565b6000613ce58385613c73565b9350613cf082613c84565b8060005b85811015613d2957613d068284613cb5565b613d108882613c9d565b9750613d1b83613ccc565b925050600181019050613cf4565b5085925050509392505050565b6000604082019050613d4b60008301866135ac565b8181036020830152613d5e818486613cd9565b9050949350505050565b6000601f19601f8301169050919050565b613d8282613d68565b810181811067ffffffffffffffff82111715613da157613da0613b03565b5b80604052505050565b6000613db46135d6565b9050613dc08282613d79565b919050565b600067ffffffffffffffff821115613de057613ddf613b03565b5b602082029050602081019050919050565b600081519050613e00816135ea565b92915050565b6000613e19613e1484613dc5565b613daa565b90508083825260208201905060208402830185811115613e3c57613e3b61364d565b5b835b81811015613e655780613e518882613df1565b845260208401935050602081019050613e3e565b5050509392505050565b600082601f830112613e8457613e83613643565b5b8151613e94848260208601613e06565b91505092915050565b600060208284031215613eb357613eb26135e0565b5b600082015167ffffffffffffffff811115613ed157613ed06135e5565b5b613edd84828501613e6f565b91505092915050565b6000613ef1826135a2565b9150613efc836135a2565b925082821015613f0f57613f0e613a35565b5b828203905092915050565b7f4e487b7100000000000000000000000000000000000000000000000000000000600052601260045260246000fd5b6000613f54826135a2565b9150613f5f836135a2565b925082613f6f57613f6e613f1a565b5b828204905092915050565b7f5b73776170457861637441564158466f72546f6b656e735d20496e76616c696460008201527f2070617468210000000000000000000000000000000000000000000000000000602082015250565b6000613fd6602683613b61565b9150613fe182613f7a565b604082019050919050565b6000602082019050818103600083015261400581613fc9565b9050919050565b600060a08201905061402160008301896135ac565b61402e60208301886135ac565b8181036040830152614041818688613cd9565b90506140506060830185613968565b61405d60808301846135ac565b979650505050505050565b7f5b7377617041564158466f724578616374546f6b656e735d204e6f7420656e6f60008201527f756768206d73672e76616c756521000000000000000000000000000000000000602082015250565b60006140c4602e83613b61565b91506140cf82614068565b604082019050919050565b600060208201905081810360008301526140f3816140b7565b9050919050565b600060808201905061410f60008301886135ac565b8181036020830152614122818688613cd9565b90506141316040830185613968565b61413e60608301846135ac565b9695505050505050565b7f5b73776170457861637441564158466f72546f6b656e735d204e6f742061206d60008201527f73672e76616c7565210000000000000000000000000000000000000000000000602082015250565b60006141a4602983613b61565b91506141af82614148565b604082019050919050565b600060208201905081810360008301526141d381614197565b9050919050565b7f5b7769746864726177526577617264546f6b656e735d204e6f7420656e6f756760008201527f682062616c616e63652100000000000000000000000000000000000000000000602082015250565b6000614236602a83613b61565b9150614241826141da565b604082019050919050565b6000602082019050818103600083015261426581614229565b9050919050565b7f4f776e61626c653a206e6577206f776e657220697320746865207a65726f206160008201527f6464726573730000000000000000000000000000000000000000000000000000602082015250565b60006142c8602683613b61565b91506142d38261426c565b604082019050919050565b600060208201905081810360008301526142f7816142bb565b9050919050565b6000614309826135a2565b9150614314836135a2565b9250817fffffffffffffffffffffffffffffffffffffffffffffffffffffffffffffffff048311821515161561434d5761434c613a35565b5b828202905092915050565b7f4e487b7100000000000000000000000000000000000000000000000000000000600052600160045260246000fd5b600060608201905061439c6000830186613968565b6143a96020830185613968565b6143b660408301846135ac565b949350505050565b60006040820190506143d36000830185613968565b6143e06020830184613968565b9392505050565b6000602082840312156143fd576143fc6135e0565b5b600061440b84828501613df1565b91505092915050565b7f5361666545524332303a20617070726f76652066726f6d206e6f6e2d7a65726f60008201527f20746f206e6f6e2d7a65726f20616c6c6f77616e636500000000000000000000602082015250565b6000614470603683613b61565b915061447b82614414565b604082019050919050565b6000602082019050818103600083015261449f81614463565b9050919050565b7f4e487b7100000000000000000000000000000000000000000000000000000000600052603160045260246000fd5b6144de816139d2565b81146144e957600080fd5b50565b6000815190506144fb816144d5565b92915050565b600060208284031215614517576145166135e0565b5b6000614525848285016144ec565b91505092915050565b7f5361666545524332303a204552433230206f7065726174696f6e20646964206e60008201527f6f74207375636365656400000000000000000000000000000000000000000000602082015250565b600061458a602a83613b61565b91506145958261452e565b604082019050919050565b600060208201905081810360008301526145b98161457d565b9050919050565b7f416464726573733a20696e73756666696369656e742062616c616e636520666f60008201527f722063616c6c0000000000000000000000000000000000000000000000000000602082015250565b600061461c602683613b61565b9150614627826145c0565b604082019050919050565b6000602082019050818103600083015261464b8161460f565b9050919050565b7f416464726573733a2063616c6c20746f206e6f6e2d636f6e7472616374000000600082015250565b6000614688601d83613b61565b915061469382614652565b602082019050919050565b600060208201905081810360008301526146b78161467b565b9050919050565b600081519050919050565b600081905092915050565b60005b838110156146f25780820151818401526020810190506146d7565b83811115614701576000848401525b50505050565b6000614712826146be565b61471c81856146c9565b935061472c8185602086016146d4565b80840191505092915050565b60006147448284614707565b915081905092915050565b600081519050919050565b60006147658261474f565b61476f8185613b61565b935061477f8185602086016146d4565b61478881613d68565b840191505092915050565b600060208201905081810360008301526147ad818461475a565b90509291505056fea2646970667358221220f89242dbf5a0fb0f6a8ad79b26409644ee35115deee3681c2f98d61db1f5ff0864736f6c634300080b0033",
  "linkReferences": {},
  "deployedLinkReferences": {}
}