{
  "_format": "hh-sol-artifact-1",
  "contractName": "TradeFarmingAVAX",
  "sourceName": "contracts/trade-farming/TradeFarmingAVAX.sol",
  "abi": [
    {
      "inputs": [
        {
          "internalType": "address",
          "name": "_routerAddress",
          "type": "address"
        },
        {
          "internalType": "address",
          "name": "_tokenAddress",
          "type": "address"
        },
        {
          "internalType": "address",
          "name": "_rewardAddress",
          "type": "address"
        },
        {
          "internalType": "uint256",
          "name": "_previousVolume",
          "type": "uint256"
        },
        {
          "internalType": "uint256",
          "name": "_previousDay",
          "type": "uint256"
        },
        {
          "internalType": "uint256",
          "name": "_totalDays",
          "type": "uint256"
        },
        {
          "internalType": "uint256",
          "name": "_upLimit",
          "type": "uint256"
        },
        {
          "internalType": "uint256",
          "name": "_downLimit",
          "type": "uint256"
        }
      ],
      "stateMutability": "nonpayable",
      "type": "constructor"
    },
    {
      "anonymous": false,
      "inputs": [
        {
          "indexed": true,
          "internalType": "address",
          "name": "previousOwner",
          "type": "address"
        },
        {
          "indexed": true,
          "internalType": "address",
          "name": "newOwner",
          "type": "address"
        }
      ],
      "name": "OwnershipTransferred",
      "type": "event"
    },
    {
      "anonymous": false,
      "inputs": [
        {
          "indexed": false,
          "internalType": "address",
          "name": "_user",
          "type": "address"
        },
        {
          "indexed": false,
          "internalType": "uint256",
          "name": "_amount",
          "type": "uint256"
        }
      ],
      "name": "RewardClaimed",
      "type": "event"
    },
    {
      "inputs": [],
      "name": "calcDay",
      "outputs": [
        {
          "internalType": "uint256",
          "name": "",
          "type": "uint256"
        }
      ],
      "stateMutability": "view",
      "type": "function"
    },
    {
      "inputs": [
        {
          "internalType": "uint256",
          "name": "day",
          "type": "uint256"
        }
      ],
      "name": "calculateDailyUserReward",
      "outputs": [
        {
          "internalType": "uint256",
          "name": "",
          "type": "uint256"
        }
      ],
      "stateMutability": "view",
      "type": "function"
    },
    {
      "inputs": [],
      "name": "calculateUserRewards",
      "outputs": [
        {
          "internalType": "uint256",
          "name": "",
          "type": "uint256"
        }
      ],
      "stateMutability": "view",
      "type": "function"
    },
    {
      "inputs": [
        {
          "internalType": "uint256",
          "name": "newTotalDays",
          "type": "uint256"
        }
      ],
      "name": "changeTotalDays",
      "outputs": [],
      "stateMutability": "nonpayable",
      "type": "function"
    },
    {
      "inputs": [],
      "name": "claimAllRewards",
      "outputs": [],
      "stateMutability": "nonpayable",
      "type": "function"
    },
    {
      "inputs": [
        {
          "internalType": "uint256",
          "name": "",
          "type": "uint256"
        }
      ],
      "name": "dailyRewards",
      "outputs": [
        {
          "internalType": "uint256",
          "name": "",
          "type": "uint256"
        }
      ],
      "stateMutability": "view",
      "type": "function"
    },
    {
      "inputs": [
        {
          "internalType": "uint256",
          "name": "",
          "type": "uint256"
        }
      ],
      "name": "dailyVolumes",
      "outputs": [
        {
          "internalType": "uint256",
          "name": "",
          "type": "uint256"
        }
      ],
      "stateMutability": "view",
      "type": "function"
    },
    {
      "inputs": [],
      "name": "deployTime",
      "outputs": [
        {
          "internalType": "uint256",
          "name": "",
          "type": "uint256"
        }
      ],
      "stateMutability": "view",
      "type": "function"
    },
    {
      "inputs": [
        {
          "internalType": "uint256",
          "name": "amount",
          "type": "uint256"
        }
      ],
      "name": "depositRewardTokens",
      "outputs": [],
      "stateMutability": "nonpayable",
      "type": "function"
    },
    {
      "inputs": [
        {
          "internalType": "uint256",
          "name": "amountOut",
          "type": "uint256"
        },
        {
          "internalType": "address[]",
          "name": "path",
          "type": "address[]"
        }
      ],
      "name": "getAmountsIn",
      "outputs": [
        {
          "internalType": "uint256[]",
          "name": "amounts",
          "type": "uint256[]"
        }
      ],
      "stateMutability": "view",
      "type": "function"
    },
    {
      "inputs": [
        {
          "internalType": "uint256",
          "name": "amountIn",
          "type": "uint256"
        },
        {
          "internalType": "address[]",
          "name": "path",
          "type": "address[]"
        }
      ],
      "name": "getAmountsOut",
      "outputs": [
        {
          "internalType": "uint256[]",
          "name": "amounts",
          "type": "uint256[]"
        }
      ],
      "stateMutability": "view",
      "type": "function"
    },
    {
      "inputs": [],
      "name": "isCalculated",
      "outputs": [
        {
          "internalType": "bool",
          "name": "",
          "type": "bool"
        }
      ],
      "stateMutability": "view",
      "type": "function"
    },
    {
      "inputs": [],
      "name": "owner",
      "outputs": [
        {
          "internalType": "address",
          "name": "",
          "type": "address"
        }
      ],
      "stateMutability": "view",
      "type": "function"
    },
    {
      "inputs": [
        {
          "internalType": "uint256",
          "name": "",
          "type": "uint256"
        }
      ],
      "name": "previousVolumes",
      "outputs": [
        {
          "internalType": "uint256",
          "name": "",
          "type": "uint256"
        }
      ],
      "stateMutability": "view",
      "type": "function"
    },
    {
      "inputs": [],
      "name": "renounceOwnership",
      "outputs": [],
      "stateMutability": "nonpayable",
      "type": "function"
    },
    {
      "inputs": [
        {
          "internalType": "uint256",
          "name": "amountOut",
          "type": "uint256"
        },
        {
          "internalType": "address[]",
          "name": "path",
          "type": "address[]"
        },
        {
          "internalType": "address",
          "name": "to",
          "type": "address"
        },
        {
          "internalType": "uint256",
          "name": "deadline",
          "type": "uint256"
        }
      ],
      "name": "swapAVAXForExactTokens",
      "outputs": [
        {
          "internalType": "uint256[]",
          "name": "",
          "type": "uint256[]"
        }
      ],
      "stateMutability": "payable",
      "type": "function"
    },
    {
      "inputs": [
        {
          "internalType": "uint256",
          "name": "amountOutMin",
          "type": "uint256"
        },
        {
          "internalType": "address[]",
          "name": "path",
          "type": "address[]"
        },
        {
          "internalType": "address",
          "name": "to",
          "type": "address"
        },
        {
          "internalType": "uint256",
          "name": "deadline",
          "type": "uint256"
        }
      ],
      "name": "swapExactAVAXForTokens",
      "outputs": [
        {
          "internalType": "uint256[]",
          "name": "out",
          "type": "uint256[]"
        }
      ],
      "stateMutability": "payable",
      "type": "function"
    },
    {
      "inputs": [
        {
          "internalType": "uint256",
          "name": "amountIn",
          "type": "uint256"
        },
        {
          "internalType": "uint256",
          "name": "amountOutMin",
          "type": "uint256"
        },
        {
          "internalType": "address[]",
          "name": "path",
          "type": "address[]"
        },
        {
          "internalType": "address",
          "name": "to",
          "type": "address"
        },
        {
          "internalType": "uint256",
          "name": "deadline",
          "type": "uint256"
        }
      ],
      "name": "swapExactTokensForAVAX",
      "outputs": [
        {
          "internalType": "uint256[]",
          "name": "",
          "type": "uint256[]"
        }
      ],
      "stateMutability": "nonpayable",
      "type": "function"
    },
    {
      "inputs": [
        {
          "internalType": "uint256",
          "name": "amountOut",
          "type": "uint256"
        },
        {
          "internalType": "uint256",
          "name": "amountInMax",
          "type": "uint256"
        },
        {
          "internalType": "address[]",
          "name": "path",
          "type": "address[]"
        },
        {
          "internalType": "address",
          "name": "to",
          "type": "address"
        },
        {
          "internalType": "uint256",
          "name": "deadline",
          "type": "uint256"
        }
      ],
      "name": "swapTokensForExactAVAX",
      "outputs": [
        {
          "internalType": "uint256[]",
          "name": "out",
          "type": "uint256[]"
        }
      ],
      "stateMutability": "nonpayable",
      "type": "function"
    },
    {
      "inputs": [],
      "name": "totalDays",
      "outputs": [
        {
          "internalType": "uint256",
          "name": "",
          "type": "uint256"
        }
      ],
      "stateMutability": "view",
      "type": "function"
    },
    {
      "inputs": [],
      "name": "totalRewardBalance",
      "outputs": [
        {
          "internalType": "uint256",
          "name": "",
          "type": "uint256"
        }
      ],
      "stateMutability": "view",
      "type": "function"
    },
    {
      "inputs": [
        {
          "internalType": "address",
          "name": "newOwner",
          "type": "address"
        }
      ],
      "name": "transferOwnership",
      "outputs": [],
      "stateMutability": "nonpayable",
      "type": "function"
    },
    {
      "inputs": [
        {
          "internalType": "address",
          "name": "",
          "type": "address"
        },
        {
          "internalType": "uint256",
          "name": "",
          "type": "uint256"
        }
      ],
      "name": "volumeRecords",
      "outputs": [
        {
          "internalType": "uint256",
          "name": "",
          "type": "uint256"
        }
      ],
      "stateMutability": "view",
      "type": "function"
    },
    {
      "inputs": [
        {
          "internalType": "uint256",
          "name": "amount",
          "type": "uint256"
        }
      ],
      "name": "withdrawRewardTokens",
      "outputs": [],
      "stateMutability": "nonpayable",
      "type": "function"
    }
  ],
  "bytecode": "0x60e060405260006009556000600c553480156200001b57600080fd5b5060405162004ded38038062004ded8339818101604052810190620000419190620003fb565b62000061620000556200028a60201b60201c565b6200029260201b60201c565b426080818152505087600160006101000a81548173ffffffffffffffffffffffffffffffffffffffff021916908373ffffffffffffffffffffffffffffffffffffffff16021790555086600260006101000a81548173ffffffffffffffffffffffffffffffffffffffff021916908373ffffffffffffffffffffffffffffffffffffffff16021790555085600360006101000a81548173ffffffffffffffffffffffffffffffffffffffff021916908373ffffffffffffffffffffffffffffffffffffffff16021790555084600460008081526020019081526020016000208190555083600b8190555082600a81905550600160009054906101000a900473ffffffffffffffffffffffffffffffffffffffff1673ffffffffffffffffffffffffffffffffffffffff166373b295c26040518163ffffffff1660e01b8152600401602060405180830381865afa158015620001c0573d6000803e3d6000fd5b505050506040513d601f19601f82011682018060405250810190620001e69190620004c4565b600d60006101000a81548173ffffffffffffffffffffffffffffffffffffffff021916908373ffffffffffffffffffffffffffffffffffffffff160217905550606482670de0b6b3a76400006200023e919062000525565b6200024a9190620005b5565b60a08181525050606481670de0b6b3a764000062000269919062000525565b620002759190620005b5565b60c081815250505050505050505050620005ed565b600033905090565b60008060009054906101000a900473ffffffffffffffffffffffffffffffffffffffff169050816000806101000a81548173ffffffffffffffffffffffffffffffffffffffff021916908373ffffffffffffffffffffffffffffffffffffffff1602179055508173ffffffffffffffffffffffffffffffffffffffff168173ffffffffffffffffffffffffffffffffffffffff167f8be0079c531659141344cd1fd0a4f28419497f9722a3daafe3b4186f6b6457e060405160405180910390a35050565b600080fd5b600073ffffffffffffffffffffffffffffffffffffffff82169050919050565b600062000388826200035b565b9050919050565b6200039a816200037b565b8114620003a657600080fd5b50565b600081519050620003ba816200038f565b92915050565b6000819050919050565b620003d581620003c0565b8114620003e157600080fd5b50565b600081519050620003f581620003ca565b92915050565b600080600080600080600080610100898b0312156200041f576200041e62000356565b5b60006200042f8b828c01620003a9565b9850506020620004428b828c01620003a9565b9750506040620004558b828c01620003a9565b9650506060620004688b828c01620003e4565b95505060806200047b8b828c01620003e4565b94505060a06200048e8b828c01620003e4565b93505060c0620004a18b828c01620003e4565b92505060e0620004b48b828c01620003e4565b9150509295985092959890939650565b600060208284031215620004dd57620004dc62000356565b5b6000620004ed84828501620003a9565b91505092915050565b7f4e487b7100000000000000000000000000000000000000000000000000000000600052601160045260246000fd5b60006200053282620003c0565b91506200053f83620003c0565b9250817fffffffffffffffffffffffffffffffffffffffffffffffffffffffffffffffff04831182151516156200057b576200057a620004f6565b5b828202905092915050565b7f4e487b7100000000000000000000000000000000000000000000000000000000600052601260045260246000fd5b6000620005c282620003c0565b9150620005cf83620003c0565b925082620005e257620005e162000586565b5b828204905092915050565b60805160a05160c05161479f6200064e60003960008181611f7d01528181611fa5015281816129f60152612a1e015260008181611f1b01528181611f430152818161299401526129bc015260008181610ec301526113e4015261479f6000f3fe60806040526004361061014b5760003560e01c80637e2ca288116100b6578063b203dc601161006f578063b203dc60146104a0578063cb43b2dd146104dd578063ceb7f99514610506578063d06ca61f14610543578063de2af4b014610580578063f2fde38b146105ab5761014b565b80637e2ca288146103705780638a657e671461039b5780638da5cb5b146103cb578063940ce872146103f657806394f5578914610433578063a2a1623d146104705761014b565b80636572ca0c116101085780636572ca0c14610260578063676528d11461028b578063715018a6146102c857806378fb427a146102df5780637a40624b146103085780637a42416a146103335761014b565b8063078e36491461015057806307a779bc1461017b5780630b83a727146101a657806316c621e0146101bd5780631f00ca74146101e65780631f924d8614610223575b600080fd5b34801561015c57600080fd5b506101656105d4565b604051610172919061356f565b60405180910390f35b34801561018757600080fd5b506101906105da565b60405161019d919061356f565b60405180910390f35b3480156101b257600080fd5b506101bb610851565b005b3480156101c957600080fd5b506101e460048036038101906101df91906135ca565b610d0d565b005b3480156101f257600080fd5b5061020d6004803603810190610208919061365c565b610df4565b60405161021a919061377a565b60405180910390f35b34801561022f57600080fd5b5061024a600480360381019061024591906135ca565b610ea4565b604051610257919061356f565b60405180910390f35b34801561026c57600080fd5b50610275610ebc565b604051610282919061356f565b60405180910390f35b34801561029757600080fd5b506102b260048036038101906102ad91906137fa565b610efc565b6040516102bf919061377a565b60405180910390f35b3480156102d457600080fd5b506102dd6112d4565b005b3480156102eb57600080fd5b50610306600480360381019061030191906135ca565b61135c565b005b34801561031457600080fd5b5061031d6113e2565b60405161032a919061356f565b60405180910390f35b34801561033f57600080fd5b5061035a600480360381019061035591906137fa565b611406565b604051610367919061377a565b60405180910390f35b34801561037c57600080fd5b50610385611928565b604051610392919061356f565b60405180910390f35b6103b560048036038101906103b09190613894565b61192e565b6040516103c2919061377a565b60405180910390f35b3480156103d757600080fd5b506103e0611da9565b6040516103ed919061392b565b60405180910390f35b34801561040257600080fd5b5061041d60048036038101906104189190613946565b611dd2565b60405161042a919061356f565b60405180910390f35b34801561043f57600080fd5b5061045a600480360381019061045591906135ca565b611df7565b604051610467919061356f565b60405180910390f35b61048a60048036038101906104859190613894565b612029565b604051610497919061377a565b60405180910390f35b3480156104ac57600080fd5b506104c760048036038101906104c291906135ca565b6123ab565b6040516104d4919061356f565b60405180910390f35b3480156104e957600080fd5b5061050460048036038101906104ff91906135ca565b6123c3565b005b34801561051257600080fd5b5061052d600480360381019061052891906135ca565b6124ed565b60405161053a919061356f565b60405180910390f35b34801561054f57600080fd5b5061056a6004803603810190610565919061365c565b612505565b604051610577919061377a565b60405180910390f35b34801561058c57600080fd5b506105956125b5565b6040516105a291906139a1565b60405180910390f35b3480156105b757600080fd5b506105d260048036038101906105cd91906139bc565b6125f4565b005b600a5481565b600080600090506000670de0b6b3a7640000905060005b610638600860003373ffffffffffffffffffffffffffffffffffffffff1673ffffffffffffffffffffffffffffffffffffffff1681526020019081526020016000206126ec565b81101561084857600c5461069382600860003373ffffffffffffffffffffffffffffffffffffffff1673ffffffffffffffffffffffffffffffffffffffff16815260200190815260200160002061270190919063ffffffff16565b1015610835576107af600560003373ffffffffffffffffffffffffffffffffffffffff1673ffffffffffffffffffffffffffffffffffffffff168152602001908152602001600020600061072e84600860003373ffffffffffffffffffffffffffffffffffffffff1673ffffffffffffffffffffffffffffffffffffffff16815260200190815260200160002061270190919063ffffffff16565b815260200190815260200160002054670de0b6b3a76400006006600061079b86600860003373ffffffffffffffffffffffffffffffffffffffff1673ffffffffffffffffffffffffffffffffffffffff16815260200190815260200160002061270190919063ffffffff16565b81526020019081526020016000205461271b565b9150610827826007600061080a85600860003373ffffffffffffffffffffffffffffffffffffffff1673ffffffffffffffffffffffffffffffffffffffff16815260200190815260200160002061270190919063ffffffff16565b815260200190815260200160002054670de0b6b3a764000061271b565b836108329190613a18565b92505b808061084090613a6e565b9150506105f1565b50819250505090565b610859610ebc565b6001600c546108689190613a18565b1115801561087a5750600a54600c5414155b15610888576108876128bc565b5b600080670de0b6b3a7640000905060006108df600860003373ffffffffffffffffffffffffffffffffffffffff1673ffffffffffffffffffffffffffffffffffffffff1681526020019081526020016000206126ec565b905060008167ffffffffffffffff8111156108fd576108fc613ab7565b5b60405190808252806020026020018201604052801561092b5781602001602082028036833780820191505090505b50905060005b82811015610bb257600c5461098d82600860003373ffffffffffffffffffffffffffffffffffffffff1673ffffffffffffffffffffffffffffffffffffffff16815260200190815260200160002061270190919063ffffffff16565b1015610b9f57610aa9600560003373ffffffffffffffffffffffffffffffffffffffff1673ffffffffffffffffffffffffffffffffffffffff1681526020019081526020016000206000610a2884600860003373ffffffffffffffffffffffffffffffffffffffff1673ffffffffffffffffffffffffffffffffffffffff16815260200190815260200160002061270190919063ffffffff16565b815260200190815260200160002054670de0b6b3a764000060066000610a9586600860003373ffffffffffffffffffffffffffffffffffffffff1673ffffffffffffffffffffffffffffffffffffffff16815260200190815260200160002061270190919063ffffffff16565b81526020019081526020016000205461271b565b9350610b218460076000610b0485600860003373ffffffffffffffffffffffffffffffffffffffff1673ffffffffffffffffffffffffffffffffffffffff16815260200190815260200160002061270190919063ffffffff16565b815260200190815260200160002054670de0b6b3a764000061271b565b85610b2c9190613a18565b9450610b7f81600860003373ffffffffffffffffffffffffffffffffffffffff1673ffffffffffffffffffffffffffffffffffffffff16815260200190815260200160002061270190919063ffffffff16565b828281518110610b9257610b91613ae6565b5b6020026020010181815250505b8080610baa90613a6e565b915050610931565b5060005b82811015610c3d57610c29828281518110610bd457610bd3613ae6565b5b6020026020010151600860003373ffffffffffffffffffffffffffffffffffffffff1673ffffffffffffffffffffffffffffffffffffffff168152602001908152602001600020612b4f90919063ffffffff16565b508080610c3590613a6e565b915050610bb6565b5060008411610c81576040517f08c379a0000000000000000000000000000000000000000000000000000000008152600401610c7890613b72565b60405180910390fd5b610cce3385600360009054906101000a900473ffffffffffffffffffffffffffffffffffffffff1673ffffffffffffffffffffffffffffffffffffffff16612b699092919063ffffffff16565b7f106f923f993c2149d49b4255ff723acafa1f2d94393f561d3eda32ae348f72413385604051610cff929190613b92565b60405180910390a150505050565b610d15612bef565b73ffffffffffffffffffffffffffffffffffffffff16610d33611da9565b73ffffffffffffffffffffffffffffffffffffffff1614610d89576040517f08c379a0000000000000000000000000000000000000000000000000000000008152600401610d8090613c07565b60405180910390fd5b8060096000828254610d9b9190613a18565b92505081905550610df1333083600360009054906101000a900473ffffffffffffffffffffffffffffffffffffffff1673ffffffffffffffffffffffffffffffffffffffff16612bf7909392919063ffffffff16565b50565b6060600160009054906101000a900473ffffffffffffffffffffffffffffffffffffffff1673ffffffffffffffffffffffffffffffffffffffff16631f00ca748585856040518463ffffffff1660e01b8152600401610e5593929190613cea565b600060405180830381865afa158015610e72573d6000803e3d6000fd5b505050506040513d6000823e3d601f19601f82011682018060405250810190610e9b9190613e51565b90509392505050565b60066020528060005260406000206000915090505481565b600061a8c07f000000000000000000000000000000000000000000000000000000000000000042610eed9190613e9a565b610ef79190613efd565b905090565b6060600d60009054906101000a900473ffffffffffffffffffffffffffffffffffffffff1673ffffffffffffffffffffffffffffffffffffffff168585600188889050610f499190613e9a565b818110610f5957610f58613ae6565b5b9050602002016020810190610f6e91906139bc565b73ffffffffffffffffffffffffffffffffffffffff1614610fc4576040517f08c379a0000000000000000000000000000000000000000000000000000000008152600401610fbb90613fa0565b60405180910390fd5b600260009054906101000a900473ffffffffffffffffffffffffffffffffffffffff1673ffffffffffffffffffffffffffffffffffffffff168585600081811061101157611010613ae6565b5b905060200201602081019061102691906139bc565b73ffffffffffffffffffffffffffffffffffffffff161461107c576040517f08c379a000000000000000000000000000000000000000000000000000000000815260040161107390613fa0565b60405180910390fd5b6110d4611087610ebc565b600860003373ffffffffffffffffffffffffffffffffffffffff1673ffffffffffffffffffffffffffffffffffffffff168152602001908152602001600020612c8090919063ffffffff16565b1580156110e95750600a546110e7610ebc565b105b15611148576111466110f9610ebc565b600860003373ffffffffffffffffffffffffffffffffffffffff1673ffffffffffffffffffffffffffffffffffffffff168152602001908152602001600020612c9a90919063ffffffff16565b505b611197333089600260009054906101000a900473ffffffffffffffffffffffffffffffffffffffff1673ffffffffffffffffffffffffffffffffffffffff16612bf7909392919063ffffffff16565b611206600160009054906101000a900473ffffffffffffffffffffffffffffffffffffffff1688600260009054906101000a900473ffffffffffffffffffffffffffffffffffffffff1673ffffffffffffffffffffffffffffffffffffffff16612cb49092919063ffffffff16565b600a54600c541461121b5761121a87612dc6565b5b600160009054906101000a900473ffffffffffffffffffffffffffffffffffffffff1673ffffffffffffffffffffffffffffffffffffffff1663676528d18888888888886040518763ffffffff1660e01b815260040161128096959493929190613fc0565b6000604051808303816000875af115801561129f573d6000803e3d6000fd5b505050506040513d6000823e3d601f19601f820116820180604052508101906112c89190613e51565b90509695505050505050565b6112dc612bef565b73ffffffffffffffffffffffffffffffffffffffff166112fa611da9565b73ffffffffffffffffffffffffffffffffffffffff1614611350576040517f08c379a000000000000000000000000000000000000000000000000000000000815260040161134790613c07565b60405180910390fd5b61135a6000612eb1565b565b611364612bef565b73ffffffffffffffffffffffffffffffffffffffff16611382611da9565b73ffffffffffffffffffffffffffffffffffffffff16146113d8576040517f08c379a00000000000000000000000000000000000000000000000000000000081526004016113cf90613c07565b60405180910390fd5b80600a8190555050565b7f000000000000000000000000000000000000000000000000000000000000000081565b6060600d60009054906101000a900473ffffffffffffffffffffffffffffffffffffffff1673ffffffffffffffffffffffffffffffffffffffff1685856001888890506114539190613e9a565b81811061146357611462613ae6565b5b905060200201602081019061147891906139bc565b73ffffffffffffffffffffffffffffffffffffffff16146114ce576040517f08c379a00000000000000000000000000000000000000000000000000000000081526004016114c590613fa0565b60405180910390fd5b600260009054906101000a900473ffffffffffffffffffffffffffffffffffffffff1673ffffffffffffffffffffffffffffffffffffffff168585600081811061151b5761151a613ae6565b5b905060200201602081019061153091906139bc565b73ffffffffffffffffffffffffffffffffffffffff1614611586576040517f08c379a000000000000000000000000000000000000000000000000000000000815260040161157d90613fa0565b60405180910390fd5b6115de611591610ebc565b600860003373ffffffffffffffffffffffffffffffffffffffff1673ffffffffffffffffffffffffffffffffffffffff168152602001908152602001600020612c8090919063ffffffff16565b1580156115f35750600a546115f1610ebc565b105b1561165257611650611603610ebc565b600860003373ffffffffffffffffffffffffffffffffffffffff1673ffffffffffffffffffffffffffffffffffffffff168152602001908152602001600020612c9a90919063ffffffff16565b505b6117603330600160009054906101000a900473ffffffffffffffffffffffffffffffffffffffff1673ffffffffffffffffffffffffffffffffffffffff16631f00ca748b8a8a6040518463ffffffff1660e01b81526004016116b693929190613cea565b600060405180830381865afa1580156116d3573d6000803e3d6000fd5b505050506040513d6000823e3d601f19601f820116820180604052508101906116fc9190613e51565b60008151811061170f5761170e613ae6565b5b6020026020010151600260009054906101000a900473ffffffffffffffffffffffffffffffffffffffff1673ffffffffffffffffffffffffffffffffffffffff16612bf7909392919063ffffffff16565b6117cf600160009054906101000a900473ffffffffffffffffffffffffffffffffffffffff1687600260009054906101000a900473ffffffffffffffffffffffffffffffffffffffff1673ffffffffffffffffffffffffffffffffffffffff16612cb49092919063ffffffff16565b600160009054906101000a900473ffffffffffffffffffffffffffffffffffffffff1673ffffffffffffffffffffffffffffffffffffffff16637a42416a8888888888886040518763ffffffff1660e01b815260040161183496959493929190613fc0565b6000604051808303816000875af1158015611853573d6000803e3d6000fd5b505050506040513d6000823e3d601f19601f8201168201806040525081019061187c9190613e51565b9050600a54600c54146118ae576118ad816000815181106118a05761189f613ae6565b5b6020026020010151612dc6565b5b61191e600160009054906101000a900473ffffffffffffffffffffffffffffffffffffffff166000600260009054906101000a900473ffffffffffffffffffffffffffffffffffffffff1673ffffffffffffffffffffffffffffffffffffffff16612f759092919063ffffffff16565b9695505050505050565b60095481565b6060600d60009054906101000a900473ffffffffffffffffffffffffffffffffffffffff1673ffffffffffffffffffffffffffffffffffffffff168585600081811061197d5761197c613ae6565b5b905060200201602081019061199291906139bc565b73ffffffffffffffffffffffffffffffffffffffff16146119e8576040517f08c379a00000000000000000000000000000000000000000000000000000000081526004016119df90613fa0565b60405180910390fd5b600260009054906101000a900473ffffffffffffffffffffffffffffffffffffffff1673ffffffffffffffffffffffffffffffffffffffff168585600188889050611a339190613e9a565b818110611a4357611a42613ae6565b5b9050602002016020810190611a5891906139bc565b73ffffffffffffffffffffffffffffffffffffffff1614611aae576040517f08c379a0000000000000000000000000000000000000000000000000000000008152600401611aa590613fa0565b60405180910390fd5b6000600160009054906101000a900473ffffffffffffffffffffffffffffffffffffffff1673ffffffffffffffffffffffffffffffffffffffff16631f00ca748888886040518463ffffffff1660e01b8152600401611b0f93929190613cea565b600060405180830381865afa158015611b2c573d6000803e3d6000fd5b505050506040513d6000823e3d601f19601f82011682018060405250810190611b559190613e51565b600081518110611b6857611b67613ae6565b5b6020026020010151905080341015611bb5576040517f08c379a0000000000000000000000000000000000000000000000000000000008152600401611bac9061408e565b60405180910390fd5b611c0d611bc0610ebc565b600860003373ffffffffffffffffffffffffffffffffffffffff1673ffffffffffffffffffffffffffffffffffffffff168152602001908152602001600020612c8090919063ffffffff16565b158015611c225750600a54611c20610ebc565b105b15611c8157611c7f611c32610ebc565b600860003373ffffffffffffffffffffffffffffffffffffffff1673ffffffffffffffffffffffffffffffffffffffff168152602001908152602001600020612c9a90919063ffffffff16565b505b600a54600c5414611c9657611c9587612dc6565b5b80341115611cf1573373ffffffffffffffffffffffffffffffffffffffff166108fc8234611cc49190613e9a565b9081150290604051600060405180830381858888f19350505050158015611cef573d6000803e3d6000fd5b505b600160009054906101000a900473ffffffffffffffffffffffffffffffffffffffff1673ffffffffffffffffffffffffffffffffffffffff16638a657e678289898989896040518763ffffffff1660e01b8152600401611d559594939291906140ae565b60006040518083038185885af1158015611d73573d6000803e3d6000fd5b50505050506040513d6000823e3d601f19601f82011682018060405250810190611d9d9190613e51565b91505095945050505050565b60008060009054906101000a900473ffffffffffffffffffffffffffffffffffffffff16905090565b6005602052816000526040600020602052806000526040600020600091509150505481565b600080600090506000670de0b6b3a76400009050611e5c84600860003373ffffffffffffffffffffffffffffffffffffffff1673ffffffffffffffffffffffffffffffffffffffff168152602001908152602001600020612c8090919063ffffffff16565b1561201f57611ed7600560003373ffffffffffffffffffffffffffffffffffffffff1673ffffffffffffffffffffffffffffffffffffffff168152602001908152602001600020600086815260200190815260200160002054670de0b6b3a7640000600660008881526020019081526020016000205461271b565b90506000600c54851015611f005760076000868152602001908152602001600020549050611ffd565b600c54851415611ffc576000611f17600c546130c4565b90507f0000000000000000000000000000000000000000000000000000000000000000811115611f69577f00000000000000000000000000000000000000000000000000000000000000009050611fc9565b6000811415611f7b5760009050611fc8565b7f0000000000000000000000000000000000000000000000000000000000000000811015611fc7577f000000000000000000000000000000000000000000000000000000000000000090505b5b5b611ff8600c54600a54611fdc9190613e9a565b600954611fe99190613efd565b82670de0b6b3a764000061271b565b9150505b5b6120108282670de0b6b3a764000061271b565b8361201b9190613a18565b9250505b8192505050919050565b6060600d60009054906101000a900473ffffffffffffffffffffffffffffffffffffffff1673ffffffffffffffffffffffffffffffffffffffff168585600081811061207857612077613ae6565b5b905060200201602081019061208d91906139bc565b73ffffffffffffffffffffffffffffffffffffffff16146120e3576040517f08c379a00000000000000000000000000000000000000000000000000000000081526004016120da90613fa0565b60405180910390fd5b600260009054906101000a900473ffffffffffffffffffffffffffffffffffffffff1673ffffffffffffffffffffffffffffffffffffffff16858560018888905061212e9190613e9a565b81811061213e5761213d613ae6565b5b905060200201602081019061215391906139bc565b73ffffffffffffffffffffffffffffffffffffffff16146121a9576040517f08c379a00000000000000000000000000000000000000000000000000000000081526004016121a090613fa0565b60405180910390fd5b600034116121ec576040517f08c379a00000000000000000000000000000000000000000000000000000000081526004016121e39061416e565b60405180910390fd5b6122446121f7610ebc565b600860003373ffffffffffffffffffffffffffffffffffffffff1673ffffffffffffffffffffffffffffffffffffffff168152602001908152602001600020612c8090919063ffffffff16565b1580156122595750600a54612257610ebc565b105b156122b8576122b6612269610ebc565b600860003373ffffffffffffffffffffffffffffffffffffffff1673ffffffffffffffffffffffffffffffffffffffff168152602001908152602001600020612c9a90919063ffffffff16565b505b600160009054906101000a900473ffffffffffffffffffffffffffffffffffffffff1673ffffffffffffffffffffffffffffffffffffffff1663a2a1623d3488888888886040518763ffffffff1660e01b815260040161231c9594939291906140ae565b60006040518083038185885af115801561233a573d6000803e3d6000fd5b50505050506040513d6000823e3d601f19601f820116820180604052508101906123649190613e51565b9050600a54600c54146123a2576123a181600183516123839190613e9a565b8151811061239457612393613ae6565b5b6020026020010151612dc6565b5b95945050505050565b60076020528060005260406000206000915090505481565b6123cb612bef565b73ffffffffffffffffffffffffffffffffffffffff166123e9611da9565b73ffffffffffffffffffffffffffffffffffffffff161461243f576040517f08c379a000000000000000000000000000000000000000000000000000000000815260040161243690613c07565b60405180910390fd5b806009541015612484576040517f08c379a000000000000000000000000000000000000000000000000000000000815260040161247b90614200565b60405180910390fd5b80600960008282546124969190613e9a565b925050819055506124ea3382600360009054906101000a900473ffffffffffffffffffffffffffffffffffffffff1673ffffffffffffffffffffffffffffffffffffffff16612b699092919063ffffffff16565b50565b60046020528060005260406000206000915090505481565b6060600160009054906101000a900473ffffffffffffffffffffffffffffffffffffffff1673ffffffffffffffffffffffffffffffffffffffff1663d06ca61f8585856040518463ffffffff1660e01b815260040161256693929190613cea565b600060405180830381865afa158015612583573d6000803e3d6000fd5b505050506040513d6000823e3d601f19601f820116820180604052508101906125ac9190613e51565b90509392505050565b60006125bf610ebc565b6001600c546125ce9190613a18565b111580156125e05750600a54600c5414155b15806125ef5750600a54600c54145b905090565b6125fc612bef565b73ffffffffffffffffffffffffffffffffffffffff1661261a611da9565b73ffffffffffffffffffffffffffffffffffffffff1614612670576040517f08c379a000000000000000000000000000000000000000000000000000000000815260040161266790613c07565b60405180910390fd5b600073ffffffffffffffffffffffffffffffffffffffff168173ffffffffffffffffffffffffffffffffffffffff1614156126e0576040517f08c379a00000000000000000000000000000000000000000000000000000000081526004016126d790614292565b60405180910390fd5b6126e981612eb1565b50565b60006126fa82600001613106565b9050919050565b60006127108360000183613117565b60001c905092915050565b600080821161272957600080fd5b600080600019858709858702925082811083820303915050600081141561275657838204925050506128b5565b83811061276257600080fd5b60008486880990508281118203915080830392506000600186196127869190613a18565b8616905080860495508084049350600181826000030401905080836127ab91906142b2565b84179350600060028760036127c091906142b2565b18905080876127cf91906142b2565b60026127db9190613e9a565b816127e691906142b2565b905080876127f491906142b2565b60026128009190613e9a565b8161280b91906142b2565b9050808761281991906142b2565b60026128259190613e9a565b8161283091906142b2565b9050808761283e91906142b2565b600261284a9190613e9a565b8161285591906142b2565b9050808761286391906142b2565b600261286f9190613e9a565b8161287a91906142b2565b9050808761288891906142b2565b60026128949190613e9a565b8161289f91906142b2565b905080856128ad91906142b2565b955050505050505b9392505050565b60006128c6610ebc565b905060006001600c54600b546128dc9190613a18565b6128e69190613a18565b9050816001600c546128f89190613a18565b11156129075761290661430c565b5b8060066000600c548152602001908152602001600020546129289190613efd565b61295460046000600c5481526020019081526020016000205460018461294e9190613e9a565b8461271b565b61295e9190613a18565b600460006001600c546129719190613a18565b8152602001908152602001600020819055506000612990600c546130c4565b90507f00000000000000000000000000000000000000000000000000000000000000008111156129e2577f00000000000000000000000000000000000000000000000000000000000000009050612a42565b60008114156129f45760009050612a41565b7f0000000000000000000000000000000000000000000000000000000000000000811015612a40577f000000000000000000000000000000000000000000000000000000000000000090505b5b5b6001600a54612a519190613e9a565b600c54148015612a685750670de0b6b3a764000081115b15612a8e5760095460076000600c54815260200190815260200160002081905550612ad7565b612abd600c54600a54612aa19190613e9a565b600954612aae9190613efd565b82670de0b6b3a764000061271b565b60076000600c548152602001908152602001600020819055505b60076000600c54815260200190815260200160002054600954612afa9190613e9a565b6009819055506001600c6000828254612b139190613a18565b92505081905550826001600c54612b2a9190613a18565b11158015612b3c5750600a54600c5414155b15612b4a57612b496128bc565b5b505050565b6000612b61836000018360001b613142565b905092915050565b612bea8363a9059cbb60e01b8484604051602401612b88929190613b92565b604051602081830303815290604052907bffffffffffffffffffffffffffffffffffffffffffffffffffffffff19166020820180517bffffffffffffffffffffffffffffffffffffffffffffffffffffffff8381831617835250505050613256565b505050565b600033905090565b612c7a846323b872dd60e01b858585604051602401612c189392919061433b565b604051602081830303815290604052907bffffffffffffffffffffffffffffffffffffffffffffffffffffffff19166020820180517bffffffffffffffffffffffffffffffffffffffffffffffffffffffff8381831617835250505050613256565b50505050565b6000612c92836000018360001b61331d565b905092915050565b6000612cac836000018360001b613340565b905092915050565b6000818473ffffffffffffffffffffffffffffffffffffffff1663dd62ed3e30866040518363ffffffff1660e01b8152600401612cf2929190614372565b602060405180830381865afa158015612d0f573d6000803e3d6000fd5b505050506040513d601f19601f82011682018060405250810190612d33919061439b565b612d3d9190613a18565b9050612dc08463095ea7b360e01b8584604051602401612d5e929190613b92565b604051602081830303815290604052907bffffffffffffffffffffffffffffffffffffffffffffffffffffffff19166020820180517bffffffffffffffffffffffffffffffffffffffffffffffffffffffff8381831617835250505050613256565b50505050565b600a54612dd1610ebc565b1015612e775780600560003373ffffffffffffffffffffffffffffffffffffffff1673ffffffffffffffffffffffffffffffffffffffff1681526020019081526020016000206000612e21610ebc565b81526020019081526020016000206000828254612e3e9190613a18565b925050819055508060066000612e52610ebc565b81526020019081526020016000206000828254612e6f9190613a18565b925050819055505b612e7f610ebc565b6001600c54612e8e9190613a18565b11158015612ea05750600a54600c5414155b15612eae57612ead6128bc565b5b50565b60008060009054906101000a900473ffffffffffffffffffffffffffffffffffffffff169050816000806101000a81548173ffffffffffffffffffffffffffffffffffffffff021916908373ffffffffffffffffffffffffffffffffffffffff1602179055508173ffffffffffffffffffffffffffffffffffffffff168173ffffffffffffffffffffffffffffffffffffffff167f8be0079c531659141344cd1fd0a4f28419497f9722a3daafe3b4186f6b6457e060405160405180910390a35050565b6000811480612fff575060008373ffffffffffffffffffffffffffffffffffffffff1663dd62ed3e30856040518363ffffffff1660e01b8152600401612fbc929190614372565b602060405180830381865afa158015612fd9573d6000803e3d6000fd5b505050506040513d601f19601f82011682018060405250810190612ffd919061439b565b145b61303e576040517f08c379a00000000000000000000000000000000000000000000000000000000081526004016130359061443a565b60405180910390fd5b6130bf8363095ea7b360e01b848460405160240161305d929190613b92565b604051602081830303815290604052907bffffffffffffffffffffffffffffffffffffffffffffffffffffffff19166020820180517bffffffffffffffffffffffffffffffffffffffffffffffffffffffff8381831617835250505050613256565b505050565b60006130ff6006600084815260200190815260200160002054670de0b6b3a7640000600460008681526020019081526020016000205461271b565b9050919050565b600081600001805490509050919050565b600082600001828154811061312f5761312e613ae6565b5b9060005260206000200154905092915050565b6000808360010160008481526020019081526020016000205490506000811461324a5760006001826131749190613e9a565b905060006001866000018054905061318c9190613e9a565b90508181146131fb5760008660000182815481106131ad576131ac613ae6565b5b90600052602060002001549050808760000184815481106131d1576131d0613ae6565b5b90600052602060002001819055508387600101600083815260200190815260200160002081905550505b8560000180548061320f5761320e61445a565b5b600190038181906000526020600020016000905590558560010160008681526020019081526020016000206000905560019350505050613250565b60009150505b92915050565b60006132b8826040518060400160405280602081526020017f5361666545524332303a206c6f772d6c6576656c2063616c6c206661696c65648152508573ffffffffffffffffffffffffffffffffffffffff166133b09092919063ffffffff16565b905060008151111561331857808060200190518101906132d891906144b5565b613317576040517f08c379a000000000000000000000000000000000000000000000000000000000815260040161330e90614554565b60405180910390fd5b5b505050565b600080836001016000848152602001908152602001600020541415905092915050565b600061334c838361331d565b6133a55782600001829080600181540180825580915050600190039060005260206000200160009091909190915055826000018054905083600101600084815260200190815260200160002081905550600190506133aa565b600090505b92915050565b60606133bf84846000856133c8565b90509392505050565b60608247101561340d576040517f08c379a0000000000000000000000000000000000000000000000000000000008152600401613404906145e6565b60405180910390fd5b613416856134dc565b613455576040517f08c379a000000000000000000000000000000000000000000000000000000000815260040161344c90614652565b60405180910390fd5b6000808673ffffffffffffffffffffffffffffffffffffffff16858760405161347e91906146ec565b60006040518083038185875af1925050503d80600081146134bb576040519150601f19603f3d011682016040523d82523d6000602084013e6134c0565b606091505b50915091506134d08282866134ef565b92505050949350505050565b600080823b905060008111915050919050565b606083156134ff5782905061354f565b6000835111156135125782518084602001fd5b816040517f08c379a00000000000000000000000000000000000000000000000000000000081526004016135469190614747565b60405180910390fd5b9392505050565b6000819050919050565b61356981613556565b82525050565b60006020820190506135846000830184613560565b92915050565b6000604051905090565b600080fd5b600080fd5b6135a781613556565b81146135b257600080fd5b50565b6000813590506135c48161359e565b92915050565b6000602082840312156135e0576135df613594565b5b60006135ee848285016135b5565b91505092915050565b600080fd5b600080fd5b600080fd5b60008083601f84011261361c5761361b6135f7565b5b8235905067ffffffffffffffff811115613639576136386135fc565b5b60208301915083602082028301111561365557613654613601565b5b9250929050565b60008060006040848603121561367557613674613594565b5b6000613683868287016135b5565b935050602084013567ffffffffffffffff8111156136a4576136a3613599565b5b6136b086828701613606565b92509250509250925092565b600081519050919050565b600082825260208201905092915050565b6000819050602082019050919050565b6136f181613556565b82525050565b600061370383836136e8565b60208301905092915050565b6000602082019050919050565b6000613727826136bc565b61373181856136c7565b935061373c836136d8565b8060005b8381101561376d57815161375488826136f7565b975061375f8361370f565b925050600181019050613740565b5085935050505092915050565b60006020820190508181036000830152613794818461371c565b905092915050565b600073ffffffffffffffffffffffffffffffffffffffff82169050919050565b60006137c78261379c565b9050919050565b6137d7816137bc565b81146137e257600080fd5b50565b6000813590506137f4816137ce565b92915050565b60008060008060008060a0878903121561381757613816613594565b5b600061382589828a016135b5565b965050602061383689828a016135b5565b955050604087013567ffffffffffffffff81111561385757613856613599565b5b61386389828a01613606565b9450945050606061387689828a016137e5565b925050608061388789828a016135b5565b9150509295509295509295565b6000806000806000608086880312156138b0576138af613594565b5b60006138be888289016135b5565b955050602086013567ffffffffffffffff8111156138df576138de613599565b5b6138eb88828901613606565b945094505060406138fe888289016137e5565b925050606061390f888289016135b5565b9150509295509295909350565b613925816137bc565b82525050565b6000602082019050613940600083018461391c565b92915050565b6000806040838503121561395d5761395c613594565b5b600061396b858286016137e5565b925050602061397c858286016135b5565b9150509250929050565b60008115159050919050565b61399b81613986565b82525050565b60006020820190506139b66000830184613992565b92915050565b6000602082840312156139d2576139d1613594565b5b60006139e0848285016137e5565b91505092915050565b7f4e487b7100000000000000000000000000000000000000000000000000000000600052601160045260246000fd5b6000613a2382613556565b9150613a2e83613556565b9250827fffffffffffffffffffffffffffffffffffffffffffffffffffffffffffffffff03821115613a6357613a626139e9565b5b828201905092915050565b6000613a7982613556565b91507fffffffffffffffffffffffffffffffffffffffffffffffffffffffffffffffff821415613aac57613aab6139e9565b5b600182019050919050565b7f4e487b7100000000000000000000000000000000000000000000000000000000600052604160045260246000fd5b7f4e487b7100000000000000000000000000000000000000000000000000000000600052603260045260246000fd5b600082825260208201905092915050565b7f5b636c61696d416c6c526577617264735d204e6f207265776172642100000000600082015250565b6000613b5c601c83613b15565b9150613b6782613b26565b602082019050919050565b60006020820190508181036000830152613b8b81613b4f565b9050919050565b6000604082019050613ba7600083018561391c565b613bb46020830184613560565b9392505050565b7f4f776e61626c653a2063616c6c6572206973206e6f7420746865206f776e6572600082015250565b6000613bf1602083613b15565b9150613bfc82613bbb565b602082019050919050565b60006020820190508181036000830152613c2081613be4565b9050919050565b600082825260208201905092915050565b6000819050919050565b613c4b816137bc565b82525050565b6000613c5d8383613c42565b60208301905092915050565b6000613c7860208401846137e5565b905092915050565b6000602082019050919050565b6000613c998385613c27565b9350613ca482613c38565b8060005b85811015613cdd57613cba8284613c69565b613cc48882613c51565b9750613ccf83613c80565b925050600181019050613ca8565b5085925050509392505050565b6000604082019050613cff6000830186613560565b8181036020830152613d12818486613c8d565b9050949350505050565b6000601f19601f8301169050919050565b613d3682613d1c565b810181811067ffffffffffffffff82111715613d5557613d54613ab7565b5b80604052505050565b6000613d6861358a565b9050613d748282613d2d565b919050565b600067ffffffffffffffff821115613d9457613d93613ab7565b5b602082029050602081019050919050565b600081519050613db48161359e565b92915050565b6000613dcd613dc884613d79565b613d5e565b90508083825260208201905060208402830185811115613df057613def613601565b5b835b81811015613e195780613e058882613da5565b845260208401935050602081019050613df2565b5050509392505050565b600082601f830112613e3857613e376135f7565b5b8151613e48848260208601613dba565b91505092915050565b600060208284031215613e6757613e66613594565b5b600082015167ffffffffffffffff811115613e8557613e84613599565b5b613e9184828501613e23565b91505092915050565b6000613ea582613556565b9150613eb083613556565b925082821015613ec357613ec26139e9565b5b828203905092915050565b7f4e487b7100000000000000000000000000000000000000000000000000000000600052601260045260246000fd5b6000613f0882613556565b9150613f1383613556565b925082613f2357613f22613ece565b5b828204905092915050565b7f5b73776170457861637441564158466f72546f6b656e735d20496e76616c696460008201527f2070617468210000000000000000000000000000000000000000000000000000602082015250565b6000613f8a602683613b15565b9150613f9582613f2e565b604082019050919050565b60006020820190508181036000830152613fb981613f7d565b9050919050565b600060a082019050613fd56000830189613560565b613fe26020830188613560565b8181036040830152613ff5818688613c8d565b9050614004606083018561391c565b6140116080830184613560565b979650505050505050565b7f5b7377617041564158466f724578616374546f6b656e735d204e6f7420656e6f60008201527f756768206d73672e76616c756521000000000000000000000000000000000000602082015250565b6000614078602e83613b15565b91506140838261401c565b604082019050919050565b600060208201905081810360008301526140a78161406b565b9050919050565b60006080820190506140c36000830188613560565b81810360208301526140d6818688613c8d565b90506140e5604083018561391c565b6140f26060830184613560565b9695505050505050565b7f5b73776170457861637441564158466f72546f6b656e735d204e6f742061206d60008201527f73672e76616c7565210000000000000000000000000000000000000000000000602082015250565b6000614158602983613b15565b9150614163826140fc565b604082019050919050565b600060208201905081810360008301526141878161414b565b9050919050565b7f5b7769746864726177526577617264546f6b656e735d204e6f7420656e6f756760008201527f682062616c616e63652100000000000000000000000000000000000000000000602082015250565b60006141ea602a83613b15565b91506141f58261418e565b604082019050919050565b60006020820190508181036000830152614219816141dd565b9050919050565b7f4f776e61626c653a206e6577206f776e657220697320746865207a65726f206160008201527f6464726573730000000000000000000000000000000000000000000000000000602082015250565b600061427c602683613b15565b915061428782614220565b604082019050919050565b600060208201905081810360008301526142ab8161426f565b9050919050565b60006142bd82613556565b91506142c883613556565b9250817fffffffffffffffffffffffffffffffffffffffffffffffffffffffffffffffff0483118215151615614301576143006139e9565b5b828202905092915050565b7f4e487b7100000000000000000000000000000000000000000000000000000000600052600160045260246000fd5b6000606082019050614350600083018661391c565b61435d602083018561391c565b61436a6040830184613560565b949350505050565b6000604082019050614387600083018561391c565b614394602083018461391c565b9392505050565b6000602082840312156143b1576143b0613594565b5b60006143bf84828501613da5565b91505092915050565b7f5361666545524332303a20617070726f76652066726f6d206e6f6e2d7a65726f60008201527f20746f206e6f6e2d7a65726f20616c6c6f77616e636500000000000000000000602082015250565b6000614424603683613b15565b915061442f826143c8565b604082019050919050565b6000602082019050818103600083015261445381614417565b9050919050565b7f4e487b7100000000000000000000000000000000000000000000000000000000600052603160045260246000fd5b61449281613986565b811461449d57600080fd5b50565b6000815190506144af81614489565b92915050565b6000602082840312156144cb576144ca613594565b5b60006144d9848285016144a0565b91505092915050565b7f5361666545524332303a204552433230206f7065726174696f6e20646964206e60008201527f6f74207375636365656400000000000000000000000000000000000000000000602082015250565b600061453e602a83613b15565b9150614549826144e2565b604082019050919050565b6000602082019050818103600083015261456d81614531565b9050919050565b7f416464726573733a20696e73756666696369656e742062616c616e636520666f60008201527f722063616c6c0000000000000000000000000000000000000000000000000000602082015250565b60006145d0602683613b15565b91506145db82614574565b604082019050919050565b600060208201905081810360008301526145ff816145c3565b9050919050565b7f416464726573733a2063616c6c20746f206e6f6e2d636f6e7472616374000000600082015250565b600061463c601d83613b15565b915061464782614606565b602082019050919050565b6000602082019050818103600083015261466b8161462f565b9050919050565b600081519050919050565b600081905092915050565b60005b838110156146a657808201518184015260208101905061468b565b838111156146b5576000848401525b50505050565b60006146c682614672565b6146d0818561467d565b93506146e0818560208601614688565b80840191505092915050565b60006146f882846146bb565b915081905092915050565b600081519050919050565b600061471982614703565b6147238185613b15565b9350614733818560208601614688565b61473c81613d1c565b840191505092915050565b60006020820190508181036000830152614761818461470e565b90509291505056fea26469706673582212208179dffea580c586568d1402b1f95aab45b6f915ba3d25796f8e279a2ea51ec964736f6c634300080b0033",
  "linkReferences": {},
  "deployedLinkReferences": {}
}