{
  "_format": "hh-sol-artifact-1",
  "contractName": "TradeFarmingAVAX",
  "sourceName": "contracts/trade-farming/TradeFarmingAVAX.sol",
  "abi": [
    {
      "inputs": [
        {
          "internalType": "address",
          "name": "_routerAddress",
          "type": "address"
        },
        {
          "internalType": "address",
          "name": "_tokenAddress",
          "type": "address"
        },
        {
          "internalType": "address",
          "name": "_rewardAddress",
          "type": "address"
        },
        {
          "internalType": "uint256",
          "name": "_previousVolume",
          "type": "uint256"
        },
        {
          "internalType": "uint256",
          "name": "_previousDay",
          "type": "uint256"
        },
        {
          "internalType": "uint256",
          "name": "_totalDays",
          "type": "uint256"
        },
        {
          "internalType": "uint256",
          "name": "_upLimit",
          "type": "uint256"
        },
        {
          "internalType": "uint256",
          "name": "_downLimit",
          "type": "uint256"
        }
      ],
      "stateMutability": "nonpayable",
      "type": "constructor"
    },
    {
      "anonymous": false,
      "inputs": [
        {
          "indexed": true,
          "internalType": "address",
          "name": "previousOwner",
          "type": "address"
        },
        {
          "indexed": true,
          "internalType": "address",
          "name": "newOwner",
          "type": "address"
        }
      ],
      "name": "OwnershipTransferred",
      "type": "event"
    },
    {
      "anonymous": false,
      "inputs": [
        {
          "indexed": false,
          "internalType": "address",
          "name": "_user",
          "type": "address"
        },
        {
          "indexed": false,
          "internalType": "uint256",
          "name": "_amount",
          "type": "uint256"
        }
      ],
      "name": "RewardClaimed",
      "type": "event"
    },
    {
      "inputs": [],
      "name": "calcDay",
      "outputs": [
        {
          "internalType": "uint256",
          "name": "",
          "type": "uint256"
        }
      ],
      "stateMutability": "view",
      "type": "function"
    },
    {
      "inputs": [
        {
          "internalType": "uint256",
          "name": "day",
          "type": "uint256"
        }
      ],
      "name": "calculateDailyUserReward",
      "outputs": [
        {
          "internalType": "uint256",
          "name": "",
          "type": "uint256"
        }
      ],
      "stateMutability": "view",
      "type": "function"
    },
    {
      "inputs": [],
      "name": "calculateUserRewards",
      "outputs": [
        {
          "internalType": "uint256",
          "name": "",
          "type": "uint256"
        }
      ],
      "stateMutability": "view",
      "type": "function"
    },
    {
      "inputs": [
        {
          "internalType": "uint256",
          "name": "newTotalDays",
          "type": "uint256"
        }
      ],
      "name": "changeTotalDays",
      "outputs": [],
      "stateMutability": "nonpayable",
      "type": "function"
    },
    {
      "inputs": [],
      "name": "claimAllRewards",
      "outputs": [],
      "stateMutability": "nonpayable",
      "type": "function"
    },
    {
      "inputs": [
        {
          "internalType": "uint256",
          "name": "",
          "type": "uint256"
        }
      ],
      "name": "dailyRewards",
      "outputs": [
        {
          "internalType": "uint256",
          "name": "",
          "type": "uint256"
        }
      ],
      "stateMutability": "view",
      "type": "function"
    },
    {
      "inputs": [
        {
          "internalType": "uint256",
          "name": "",
          "type": "uint256"
        }
      ],
      "name": "dailyVolumes",
      "outputs": [
        {
          "internalType": "uint256",
          "name": "",
          "type": "uint256"
        }
      ],
      "stateMutability": "view",
      "type": "function"
    },
    {
      "inputs": [],
      "name": "deployTime",
      "outputs": [
        {
          "internalType": "uint256",
          "name": "",
          "type": "uint256"
        }
      ],
      "stateMutability": "view",
      "type": "function"
    },
    {
      "inputs": [
        {
          "internalType": "uint256",
          "name": "amount",
          "type": "uint256"
        }
      ],
      "name": "depositRewardTokens",
      "outputs": [],
      "stateMutability": "nonpayable",
      "type": "function"
    },
    {
      "inputs": [
        {
          "internalType": "uint256",
          "name": "amountOut",
          "type": "uint256"
        },
        {
          "internalType": "address[]",
          "name": "path",
          "type": "address[]"
        }
      ],
      "name": "getAmountsIn",
      "outputs": [
        {
          "internalType": "uint256[]",
          "name": "amounts",
          "type": "uint256[]"
        }
      ],
      "stateMutability": "view",
      "type": "function"
    },
    {
      "inputs": [
        {
          "internalType": "uint256",
          "name": "amountIn",
          "type": "uint256"
        },
        {
          "internalType": "address[]",
          "name": "path",
          "type": "address[]"
        }
      ],
      "name": "getAmountsOut",
      "outputs": [
        {
          "internalType": "uint256[]",
          "name": "amounts",
          "type": "uint256[]"
        }
      ],
      "stateMutability": "view",
      "type": "function"
    },
    {
      "inputs": [],
      "name": "isCalculated",
      "outputs": [
        {
          "internalType": "bool",
          "name": "",
          "type": "bool"
        }
      ],
      "stateMutability": "view",
      "type": "function"
    },
    {
      "inputs": [],
      "name": "lastAddedDay",
      "outputs": [
        {
          "internalType": "uint256",
          "name": "",
          "type": "uint256"
        }
      ],
      "stateMutability": "view",
      "type": "function"
    },
    {
      "inputs": [],
      "name": "owner",
      "outputs": [
        {
          "internalType": "address",
          "name": "",
          "type": "address"
        }
      ],
      "stateMutability": "view",
      "type": "function"
    },
    {
      "inputs": [
        {
          "internalType": "uint256",
          "name": "",
          "type": "uint256"
        }
      ],
      "name": "previousVolumes",
      "outputs": [
        {
          "internalType": "uint256",
          "name": "",
          "type": "uint256"
        }
      ],
      "stateMutability": "view",
      "type": "function"
    },
    {
      "inputs": [],
      "name": "renounceOwnership",
      "outputs": [],
      "stateMutability": "nonpayable",
      "type": "function"
    },
    {
      "inputs": [
        {
          "internalType": "uint256",
          "name": "amountOut",
          "type": "uint256"
        },
        {
          "internalType": "address[]",
          "name": "path",
          "type": "address[]"
        },
        {
          "internalType": "address",
          "name": "to",
          "type": "address"
        },
        {
          "internalType": "uint256",
          "name": "deadline",
          "type": "uint256"
        }
      ],
      "name": "swapAVAXForExactTokens",
      "outputs": [
        {
          "internalType": "uint256[]",
          "name": "",
          "type": "uint256[]"
        }
      ],
      "stateMutability": "payable",
      "type": "function"
    },
    {
      "inputs": [
        {
          "internalType": "uint256",
          "name": "amountOutMin",
          "type": "uint256"
        },
        {
          "internalType": "address[]",
          "name": "path",
          "type": "address[]"
        },
        {
          "internalType": "address",
          "name": "to",
          "type": "address"
        },
        {
          "internalType": "uint256",
          "name": "deadline",
          "type": "uint256"
        }
      ],
      "name": "swapExactAVAXForTokens",
      "outputs": [
        {
          "internalType": "uint256[]",
          "name": "out",
          "type": "uint256[]"
        }
      ],
      "stateMutability": "payable",
      "type": "function"
    },
    {
      "inputs": [
        {
          "internalType": "uint256",
          "name": "amountIn",
          "type": "uint256"
        },
        {
          "internalType": "uint256",
          "name": "amountOutMin",
          "type": "uint256"
        },
        {
          "internalType": "address[]",
          "name": "path",
          "type": "address[]"
        },
        {
          "internalType": "address",
          "name": "to",
          "type": "address"
        },
        {
          "internalType": "uint256",
          "name": "deadline",
          "type": "uint256"
        }
      ],
      "name": "swapExactTokensForAVAX",
      "outputs": [
        {
          "internalType": "uint256[]",
          "name": "",
          "type": "uint256[]"
        }
      ],
      "stateMutability": "nonpayable",
      "type": "function"
    },
    {
      "inputs": [
        {
          "internalType": "uint256",
          "name": "amountOut",
          "type": "uint256"
        },
        {
          "internalType": "uint256",
          "name": "amountInMax",
          "type": "uint256"
        },
        {
          "internalType": "address[]",
          "name": "path",
          "type": "address[]"
        },
        {
          "internalType": "address",
          "name": "to",
          "type": "address"
        },
        {
          "internalType": "uint256",
          "name": "deadline",
          "type": "uint256"
        }
      ],
      "name": "swapTokensForExactAVAX",
      "outputs": [
        {
          "internalType": "uint256[]",
          "name": "out",
          "type": "uint256[]"
        }
      ],
      "stateMutability": "nonpayable",
      "type": "function"
    },
    {
      "inputs": [],
      "name": "totalDays",
      "outputs": [
        {
          "internalType": "uint256",
          "name": "",
          "type": "uint256"
        }
      ],
      "stateMutability": "view",
      "type": "function"
    },
    {
      "inputs": [],
      "name": "totalRewardBalance",
      "outputs": [
        {
          "internalType": "uint256",
          "name": "",
          "type": "uint256"
        }
      ],
      "stateMutability": "view",
      "type": "function"
    },
    {
      "inputs": [
        {
          "internalType": "address",
          "name": "newOwner",
          "type": "address"
        }
      ],
      "name": "transferOwnership",
      "outputs": [],
      "stateMutability": "nonpayable",
      "type": "function"
    },
    {
      "inputs": [
        {
          "internalType": "address",
          "name": "",
          "type": "address"
        },
        {
          "internalType": "uint256",
          "name": "",
          "type": "uint256"
        }
      ],
      "name": "volumeRecords",
      "outputs": [
        {
          "internalType": "uint256",
          "name": "",
          "type": "uint256"
        }
      ],
      "stateMutability": "view",
      "type": "function"
    },
    {
      "inputs": [
        {
          "internalType": "uint256",
          "name": "amount",
          "type": "uint256"
        }
      ],
      "name": "withdrawRewardTokens",
      "outputs": [],
      "stateMutability": "nonpayable",
      "type": "function"
    }
  ],
  "bytecode": "0x60e060405260006009553480156200001657600080fd5b5060405162002eff38038062002eff8339810160408190526200003991620002ca565b620000443362000239565b6001600160a01b038816158015906200006557506001600160a01b03871615155b80156200007a57506001600160a01b03861615155b620000d65760405162461bcd60e51b815260206004820152602260248201527f5b5d204164647265737365732063616e206e6f74206265203020616464726573604482015261399760f11b606482015260840160405180910390fd5b42608052600180546001600160a01b03808b166001600160a01b03199283161792839055600280548b8316908416179055600380548a831693169290921790915560008052600460208181527f17ef568e3e12ab5b9c7254a8d58478811de00f9e6eb34345acd53bf8fd09d3ec899055600b889055600a879055604080516339d94ae160e11b8152905194909316936373b295c2938084019390829003018186803b1580156200018557600080fd5b505afa1580156200019a573d6000803e3d6000fd5b505050506040513d601f19601f82011682018060405250810190620001c09190620002a6565b600d80546001600160a01b0319166001600160a01b03929092169190911790556064620001f683670de0b6b3a764000062000365565b62000202919062000344565b60a05260646200021b82670de0b6b3a764000062000365565b62000227919062000344565b60c05250620003919650505050505050565b600080546001600160a01b038381166001600160a01b0319831681178455604051919092169283917f8be0079c531659141344cd1fd0a4f28419497f9722a3daafe3b4186f6b6457e09190a35050565b80516001600160a01b0381168114620002a157600080fd5b919050565b600060208284031215620002b8578081fd5b620002c38262000289565b9392505050565b600080600080600080600080610100898b031215620002e7578384fd5b620002f28962000289565b97506200030260208a0162000289565b96506200031260408a0162000289565b9550606089015194506080890151935060a0890151925060c0890151915060e089015190509295985092959890939650565b6000826200036057634e487b7160e01b81526012600452602481fd5b500490565b60008160001904831182151516156200038c57634e487b7160e01b81526011600452602481fd5b500290565b60805160a05160c051612b0d620003f2600039600081816114de0152818161150701528181611cb90152611ce2015260008181611482015281816114ab01528181611c5d0152611c860152600081816102b601526109ff0152612b0d6000f3fe6080604052600436106101665760003560e01c80637e2ca288116100d1578063a2a1623d1161008a578063ceb7f99511610064578063ceb7f99514610417578063d06ca61f14610444578063de2af4b014610464578063f2fde38b1461048957610166565b8063a2a1623d146103b7578063b203dc60146103ca578063cb43b2dd146103f757610166565b80637e2ca288146102f85780638a657e671461030e5780638acc3673146103215780638da5cb5b14610337578063940ce8721461035f57806394f557891461039757610166565b80636572ca0c116101235780636572ca0c1461023a578063676528d11461024f578063715018a61461026f57806378fb427a146102845780637a40624b146102a45780637a42416a146102d857610166565b8063078e36491461016b57806307a779bc146101945780630b83a727146101a957806316c621e0146101c05780631f00ca74146101e05780631f924d861461020d575b600080fd5b34801561017757600080fd5b50610181600a5481565b6040519081526020015b60405180910390f35b3480156101a057600080fd5b506101816104a9565b3480156101b557600080fd5b506101be6105d5565b005b3480156101cc57600080fd5b506101be6101db3660046126c7565b610905565b3480156101ec57600080fd5b506102006101fb3660046126f7565b610961565b60405161018b9190612875565b34801561021957600080fd5b506101816102283660046126c7565b60066020526000908152604090205481565b34801561024657600080fd5b506101816109f4565b34801561025b57600080fd5b5061020061026a3660046127a5565b610a33565b34801561027b57600080fd5b506101be610cb6565b34801561029057600080fd5b506101be61029f3660046126c7565b610cec565b3480156102b057600080fd5b506101817f000000000000000000000000000000000000000000000000000000000000000081565b3480156102e457600080fd5b506102006102f33660046127a5565b610d1b565b34801561030457600080fd5b5061018160095481565b61020061031c366004612741565b611064565b34801561032d57600080fd5b50610181600c5481565b34801561034357600080fd5b506000546040516001600160a01b03909116815260200161018b565b34801561036b57600080fd5b5061018161037a3660046125bf565b600560209081526000928352604080842090915290825290205481565b3480156103a357600080fd5b506101816103b23660046126c7565b6113e2565b6102006103c5366004612741565b611584565b3480156103d657600080fd5b506101816103e53660046126c7565b60076020526000908152604090205481565b34801561040357600080fd5b506101be6104123660046126c7565b611826565b34801561042357600080fd5b506101816104323660046126c7565b60046020526000908152604090205481565b34801561045057600080fd5b5061020061045f3660046126f7565b6118e3565b34801561047057600080fd5b50610479611918565b604051901515815260200161018b565b34801561049557600080fd5b506101be6104a43660046125a5565b611954565b600080670de0b6b3a7640000815b3360009081526008602052604090206104cf906119ec565b8110156105cd57600c543360009081526008602052604090206104f290836119fc565b10156105bb573360009081526005602090815260408083206008909252822061056c929061052090856119fc565b815260208082019290925260409081016000908120543382526008909352908120670de0b6b3a76400009160069161055890876119fc565b815260200190815260200160002054611a08565b3360009081526008602052604081209193506105ae91849160079161059190866119fc565b815260200190815260200160002054670de0b6b3a7640000611a08565b6105b890846129f6565b92505b806105c581612a90565b9150506104b7565b509091505090565b6105dd6109f4565b600c546105eb9060016129f6565b111580156105fd5750600a54600c5414155b1561060a5761060a611b82565b336000908152600860205260408120670de0b6b3a764000090829061062e906119ec565b600c5433600090815260086020526040902091925061064d9190611dde565b156106605761065d600182612a4d565b90505b60008167ffffffffffffffff81111561068957634e487b7160e01b600052604160045260246000fd5b6040519080825280602002602001820160405280156106b2578160200160208202803683370190505b50905060005b8281101561079457600c543360009081526008602052604090206106dc90836119fc565b1015610782573360009081526005602090815260408083206008909252822061070a929061052090856119fc565b33600090815260086020526040812091955061072f91869160079161059190866119fc565b61073990866129f6565b33600090815260086020526040902090955061075590826119fc565b82828151811061077557634e487b7160e01b600052603260045260246000fd5b6020026020010181815250505b8061078c81612a90565b9150506106b8565b5060005b8281101561085e576107e58282815181106107c357634e487b7160e01b600052603260045260246000fd5b6020908102919091018101513360009081526008909252604090912090611df6565b61084c5760405162461bcd60e51b815260206004820152602d60248201527f5b636c61696d416c6c526577617264735d20556e7375636365737366756c6c2060448201526c39b2ba1037b832b930ba34b7b760991b60648201526084015b60405180910390fd5b8061085681612a90565b915050610798565b50600084116108af5760405162461bcd60e51b815260206004820152601c60248201527f5b636c61696d416c6c526577617264735d204e6f2072657761726421000000006044820152606401610843565b6003546108c6906001600160a01b03163386611e02565b60408051338152602081018690527f106f923f993c2149d49b4255ff723acafa1f2d94393f561d3eda32ae348f7241910160405180910390a150505050565b6000546001600160a01b0316331461092f5760405162461bcd60e51b815260040161084390612932565b806009600082825461094191906129f6565b909155505060035461095e906001600160a01b0316333084611e65565b50565b6001546040516307c0329d60e21b81526060916001600160a01b031690631f00ca749061099690879087908790600401612967565b60006040518083038186803b1580156109ae57600080fd5b505afa1580156109c2573d6000803e3d6000fd5b505050506040513d6000823e601f3d908101601f191682016040526109ea91908101906125e8565b90505b9392505050565b600062015180610a247f000000000000000000000000000000000000000000000000000000000000000042612a4d565b610a2e9190612a0e565b905090565b600d546060906001600160a01b03168585610a4f600182612a4d565b818110610a6c57634e487b7160e01b600052603260045260246000fd5b9050602002016020810190610a8191906125a5565b6001600160a01b031614610aa75760405162461bcd60e51b8152600401610843906128ec565b6002546001600160a01b03168585600081610ad257634e487b7160e01b600052603260045260246000fd5b9050602002016020810190610ae791906125a5565b6001600160a01b031614610b0d5760405162461bcd60e51b8152600401610843906128ec565b610b2d610b186109f4565b33600090815260086020526040902090611dde565b158015610b425750600a54610b406109f4565b105b15610bd057610b67610b526109f4565b33600090815260086020526040902090611ea3565b610bd05760405162461bcd60e51b815260206004820152603460248201527f5b737761704578616374546f6b656e73466f72415641585d20556e737563636560448201527339b9b33ab6361039b2ba1037b832b930ba34b7b760611b6064820152608401610843565b600254610be8906001600160a01b031633308a611e65565b600154600254610c05916001600160a01b03918216911689611eaf565b600a54600c5414610c1957610c1987611f70565b60015460405163676528d160e01b81526001600160a01b039091169063676528d190610c53908a908a908a908a908a908a906004016129b8565b600060405180830381600087803b158015610c6d57600080fd5b505af1158015610c81573d6000803e3d6000fd5b505050506040513d6000823e601f3d908101601f19168201604052610ca991908101906125e8565b90505b9695505050505050565b6000546001600160a01b03163314610ce05760405162461bcd60e51b815260040161084390612932565b610cea6000612022565b565b6000546001600160a01b03163314610d165760405162461bcd60e51b815260040161084390612932565b600a55565b600d546060906001600160a01b03168585610d37600182612a4d565b818110610d5457634e487b7160e01b600052603260045260246000fd5b9050602002016020810190610d6991906125a5565b6001600160a01b031614610d8f5760405162461bcd60e51b8152600401610843906128ec565b6002546001600160a01b03168585600081610dba57634e487b7160e01b600052603260045260246000fd5b9050602002016020810190610dcf91906125a5565b6001600160a01b031614610df55760405162461bcd60e51b8152600401610843906128ec565b610e00610b186109f4565b158015610e155750600a54610e136109f4565b105b15610e8e57610e25610b526109f4565b610e8e5760405162461bcd60e51b815260206004820152603460248201527f5b73776170546f6b656e73466f724578616374415641585d20556e737563636560448201527339b9b33ab6361039b2ba1037b832b930ba34b7b760611b6064820152608401610843565b6001546040516307c0329d60e21b8152610f5b91339130916001600160a01b031690631f00ca7490610ec8908d908c908c90600401612967565b60006040518083038186803b158015610ee057600080fd5b505afa158015610ef4573d6000803e3d6000fd5b505050506040513d6000823e601f3d908101601f19168201604052610f1c91908101906125e8565b600081518110610f3c57634e487b7160e01b600052603260045260246000fd5b60209081029190910101516002546001600160a01b0316929190611e65565b600154600254610f78916001600160a01b03918216911688611eaf565b600154604051633d2120b560e11b81526001600160a01b0390911690637a42416a90610fb2908a908a908a908a908a908a906004016129b8565b600060405180830381600087803b158015610fcc57600080fd5b505af1158015610fe0573d6000803e3d6000fd5b505050506040513d6000823e601f3d908101601f1916820160405261100891908101906125e8565b9050600a54600c5414611046576110468160008151811061103957634e487b7160e01b600052603260045260246000fd5b6020026020010151611f70565b600154600254610cac916001600160a01b0391821691166000612072565b600d546060906001600160a01b0316858560008161109257634e487b7160e01b600052603260045260246000fd5b90506020020160208101906110a791906125a5565b6001600160a01b0316146110cd5760405162461bcd60e51b8152600401610843906128ec565b6002546001600160a01b031685856110e6600182612a4d565b81811061110357634e487b7160e01b600052603260045260246000fd5b905060200201602081019061111891906125a5565b6001600160a01b03161461113e5760405162461bcd60e51b8152600401610843906128ec565b6001546040516307c0329d60e21b81526000916001600160a01b031690631f00ca7490611173908a908a908a90600401612967565b60006040518083038186803b15801561118b57600080fd5b505afa15801561119f573d6000803e3d6000fd5b505050506040513d6000823e601f3d908101601f191682016040526111c791908101906125e8565b6000815181106111e757634e487b7160e01b600052603260045260246000fd5b60200260200101519050803410156112585760405162461bcd60e51b815260206004820152602e60248201527f5b7377617041564158466f724578616374546f6b656e735d204e6f7420656e6f60448201526d756768206d73672e76616c75652160901b6064820152608401610843565b611263610b186109f4565b1580156112785750600a546112766109f4565b105b156112f157611288610b526109f4565b6112f15760405162461bcd60e51b815260206004820152603460248201527f5b7377617041564158466f724578616374546f6b656e735d20556e737563636560448201527339b9b33ab6361039b2ba1037b832b930ba34b7b760611b6064820152608401610843565b600a54600c54146113055761130587611f70565b8034111561134557336108fc61131b8334612a4d565b6040518115909202916000818181858888f19350505050158015611343573d6000803e3d6000fd5b505b600154604051638a657e6760e01b81526001600160a01b0390911690638a657e6790839061137f908b908b908b908b908b90600401612981565b6000604051808303818588803b15801561139857600080fd5b505af11580156113ac573d6000803e3d6000fd5b50505050506040513d6000823e601f3d908101601f191682016040526113d591908101906125e8565b9150505b95945050505050565b3360009081526008602052604081208190670de0b6b3a7640000906114079085611dde565b1561157b573360009081526005602090815260408083208784528252808320546006909252909120546114449190670de0b6b3a764000090611a08565b90506000600c54851015611467575060008481526007602052604090205461155a565b600c5485141561155a57600061147e600c54612196565b90507f00000000000000000000000000000000000000000000000000000000000000008111156114cf57507f0000000000000000000000000000000000000000000000000000000000000000611527565b806114dc57506000611527565b7f000000000000000000000000000000000000000000000000000000000000000081101561152757507f00000000000000000000000000000000000000000000000000000000000000005b611556600c54600a5461153a9190612a4d565b6009546115479190612a0e565b82670de0b6b3a7640000611a08565b9150505b61156d8282670de0b6b3a7640000611a08565b61157790846129f6565b9250505b5090505b919050565b600d546060906001600160a01b031685856000816115b257634e487b7160e01b600052603260045260246000fd5b90506020020160208101906115c791906125a5565b6001600160a01b0316146115ed5760405162461bcd60e51b8152600401610843906128ec565b6002546001600160a01b03168585611606600182612a4d565b81811061162357634e487b7160e01b600052603260045260246000fd5b905060200201602081019061163891906125a5565b6001600160a01b03161461165e5760405162461bcd60e51b8152600401610843906128ec565b600034116116c05760405162461bcd60e51b815260206004820152602960248201527f5b73776170457861637441564158466f72546f6b656e735d204e6f742061206d60448201526873672e76616c75652160b81b6064820152608401610843565b6116cb610b186109f4565b1580156116e05750600a546116de6109f4565b105b15611759576116f0610b526109f4565b6117595760405162461bcd60e51b815260206004820152603460248201527f5b73776170457861637441564158466f72546f6b656e735d20556e737563636560448201527339b9b33ab6361039b2ba1037b832b930ba34b7b760611b6064820152608401610843565b60015460405163a2a1623d60e01b81526001600160a01b039091169063a2a1623d903490611793908a908a908a908a908a90600401612981565b6000604051808303818588803b1580156117ac57600080fd5b505af11580156117c0573d6000803e3d6000fd5b50505050506040513d6000823e601f3d908101601f191682016040526117e991908101906125e8565b9050600a54600c54146113d9576113d981600183516118089190612a4d565b8151811061103957634e487b7160e01b600052603260045260246000fd5b6000546001600160a01b031633146118505760405162461bcd60e51b815260040161084390612932565b8060095410156118b55760405162461bcd60e51b815260206004820152602a60248201527f5b7769746864726177526577617264546f6b656e735d204e6f7420656e6f7567604482015269682062616c616e63652160b01b6064820152608401610843565b80600960008282546118c79190612a4d565b909155505060035461095e906001600160a01b03163383611e02565b60015460405163d06ca61f60e01b81526060916001600160a01b03169063d06ca61f9061099690879087908790600401612967565b60006119226109f4565b600c546119309060016129f6565b111580156119425750600a54600c5414155b1580610a2e575050600a54600c541490565b6000546001600160a01b0316331461197e5760405162461bcd60e51b815260040161084390612932565b6001600160a01b0381166119e35760405162461bcd60e51b815260206004820152602660248201527f4f776e61626c653a206e6577206f776e657220697320746865207a65726f206160448201526564647265737360d01b6064820152608401610843565b61095e81612022565b60006119f6825490565b92915050565b60006109ed83836121c4565b6000808211611a1657600080fd5b6000806000198587098587029250828110838203039150508060001415611a42575082900490506109ed565b838110611a4e57600080fd5b6000848688098084039381119092039190506000611a6e861960016129f6565b8616958690049593849004936000819003046001019050611a8f8184612a2e565b909317926000611aa0876003612a2e565b6002189050611aaf8188612a2e565b611aba906002612a4d565b611ac49082612a2e565b9050611ad08188612a2e565b611adb906002612a4d565b611ae59082612a2e565b9050611af18188612a2e565b611afc906002612a4d565b611b069082612a2e565b9050611b128188612a2e565b611b1d906002612a4d565b611b279082612a2e565b9050611b338188612a2e565b611b3e906002612a4d565b611b489082612a2e565b9050611b548188612a2e565b611b5f906002612a4d565b611b699082612a2e565b9050611b758186612a2e565b9998505050505050505050565b6000611b8c6109f4565b90506000600c54600b54611ba091906129f6565b611bab9060016129f6565b905081600c546001611bbd91906129f6565b1115611bd957634e487b7160e01b600052600160045260246000fd5b600c54600090815260066020526040902054611bf6908290612a0e565b600c54600090815260046020526040902054611c1d90611c17600185612a4d565b84611a08565b611c2791906129f6565b60046000600c546001611c3a91906129f6565b8152602001908152602001600020819055506000611c59600c54612196565b90507f0000000000000000000000000000000000000000000000000000000000000000811115611caa57507f0000000000000000000000000000000000000000000000000000000000000000611d02565b80611cb757506000611d02565b7f0000000000000000000000000000000000000000000000000000000000000000811015611d0257507f00000000000000000000000000000000000000000000000000000000000000005b6001600a54611d119190612a4d565b600c54148015611d285750670de0b6b3a764000081115b15611d4757600954600c54600090815260076020526040902055611d6d565b611d5a600c54600a5461153a9190612a4d565b600c546000908152600760205260409020555b600c54600090815260076020526040902054600954611d8c9190612a4d565b6009819055506001600c6000828254611da591906129f6565b9091555050600c548390611dba9060016129f6565b11158015611dcc5750600a54600c5414155b15611dd957611dd9611b82565b505050565b600081815260018301602052604081205415156109ed565b60006109ed83836121fc565b6040516001600160a01b038316602482015260448101829052611dd990849063a9059cbb60e01b906064015b60408051601f198184030181529190526020810180516001600160e01b03166001600160e01b031990931692909217909152612319565b6040516001600160a01b0380851660248301528316604482015260648101829052611e9d9085906323b872dd60e01b90608401611e2e565b50505050565b60006109ed83836123eb565b604051636eb1769f60e11b81523060048201526001600160a01b038381166024830152600091839186169063dd62ed3e9060440160206040518083038186803b158015611efb57600080fd5b505afa158015611f0f573d6000803e3d6000fd5b505050506040513d601f19601f82011682018060405250810190611f3391906126df565b611f3d91906129f6565b6040516001600160a01b038516602482015260448101829052909150611e9d90859063095ea7b360e01b90606401611e2e565b600a54611f7b6109f4565b1015611fed573360009081526005602052604081208291611f9a6109f4565b81526020019081526020016000206000828254611fb791906129f6565b9091555081905060066000611fca6109f4565b81526020019081526020016000206000828254611fe791906129f6565b90915550505b611ff56109f4565b600c546120039060016129f6565b111580156120155750600a54600c5414155b1561095e5761095e611b82565b600080546001600160a01b038381166001600160a01b0319831681178455604051919092169283917f8be0079c531659141344cd1fd0a4f28419497f9722a3daafe3b4186f6b6457e09190a35050565b8015806120fb5750604051636eb1769f60e11b81523060048201526001600160a01b03838116602483015284169063dd62ed3e9060440160206040518083038186803b1580156120c157600080fd5b505afa1580156120d5573d6000803e3d6000fd5b505050506040513d601f19601f820116820180604052508101906120f991906126df565b155b6121665760405162461bcd60e51b815260206004820152603660248201527f5361666545524332303a20617070726f76652066726f6d206e6f6e2d7a65726f60448201527520746f206e6f6e2d7a65726f20616c6c6f77616e636560501b6064820152608401610843565b6040516001600160a01b038316602482015260448101829052611dd990849063095ea7b360e01b90606401611e2e565b60008181526006602090815260408083205460049092528220546119f69190670de0b6b3a764000090611a08565b60008260000182815481106121e957634e487b7160e01b600052603260045260246000fd5b9060005260206000200154905092915050565b6000818152600183016020526040812054801561230f576000612220600183612a4d565b855490915060009061223490600190612a4d565b90508181146122b557600086600001828154811061226257634e487b7160e01b600052603260045260246000fd5b906000526020600020015490508087600001848154811061229357634e487b7160e01b600052603260045260246000fd5b6000918252602080832090910192909255918252600188019052604090208390555b85548690806122d457634e487b7160e01b600052603160045260246000fd5b6001900381819060005260206000200160009055905585600101600086815260200190815260200160002060009055600193505050506119f6565b60009150506119f6565b600061236e826040518060400160405280602081526020017f5361666545524332303a206c6f772d6c6576656c2063616c6c206661696c6564815250856001600160a01b031661243a9092919063ffffffff16565b805190915015611dd9578080602001905181019061238c91906126a7565b611dd95760405162461bcd60e51b815260206004820152602a60248201527f5361666545524332303a204552433230206f7065726174696f6e20646964206e6044820152691bdd081cdd58d8d9595960b21b6064820152608401610843565b6000818152600183016020526040812054612432575081546001818101845560008481526020808220909301849055845484825282860190935260409020919091556119f6565b5060006119f6565b60606109ea848460008585843b6124935760405162461bcd60e51b815260206004820152601d60248201527f416464726573733a2063616c6c20746f206e6f6e2d636f6e74726163740000006044820152606401610843565b600080866001600160a01b031685876040516124af9190612859565b60006040518083038185875af1925050503d80600081146124ec576040519150601f19603f3d011682016040523d82523d6000602084013e6124f1565b606091505b509150915061250182828661250c565b979650505050505050565b6060831561251b5750816109ed565b82511561252b5782518084602001fd5b8160405162461bcd60e51b815260040161084391906128b9565b80356001600160a01b038116811461157f57600080fd5b60008083601f84011261256d578081fd5b50813567ffffffffffffffff811115612584578182fd5b602083019150836020808302850101111561259e57600080fd5b9250929050565b6000602082840312156125b6578081fd5b6109ed82612545565b600080604083850312156125d1578081fd5b6125da83612545565b946020939093013593505050565b600060208083850312156125fa578182fd5b825167ffffffffffffffff80821115612611578384fd5b818501915085601f830112612624578384fd5b81518181111561263657612636612ac1565b838102604051601f19603f8301168101818110858211171561265a5761265a612ac1565b604052828152858101935084860182860187018a1015612678578788fd5b8795505b8386101561269a57805185526001959095019493860193860161267c565b5098975050505050505050565b6000602082840312156126b8578081fd5b815180151581146109ed578182fd5b6000602082840312156126d8578081fd5b5035919050565b6000602082840312156126f0578081fd5b5051919050565b60008060006040848603121561270b578081fd5b83359250602084013567ffffffffffffffff811115612728578182fd5b6127348682870161255c565b9497909650939450505050565b600080600080600060808688031215612758578081fd5b85359450602086013567ffffffffffffffff811115612775578182fd5b6127818882890161255c565b9095509350612794905060408701612545565b949793965091946060013592915050565b60008060008060008060a087890312156127bd578081fd5b8635955060208701359450604087013567ffffffffffffffff8111156127e1578182fd5b6127ed89828a0161255c565b9095509350612800905060608801612545565b9150608087013590509295509295509295565b60008284526020808501945082825b8581101561284e576001600160a01b0361283b83612545565b1687529582019590820190600101612822565b509495945050505050565b6000825161286b818460208701612a64565b9190910192915050565b6020808252825182820181905260009190848201906040850190845b818110156128ad57835183529284019291840191600101612891565b50909695505050505050565b60006020825282518060208401526128d8816040850160208701612a64565b601f01601f19169190910160400192915050565b60208082526026908201527f5b73776170457861637441564158466f72546f6b656e735d20496e76616c696460408201526520706174682160d01b606082015260800190565b6020808252818101527f4f776e61626c653a2063616c6c6572206973206e6f7420746865206f776e6572604082015260600190565b6000848252604060208301526113d9604083018486612813565b60008682526080602083015261299b608083018688612813565b6001600160a01b0394909416604083015250606001529392505050565b600087825286602083015260a060408301526129d860a083018688612813565b6001600160a01b039490941660608301525060800152949350505050565b60008219821115612a0957612a09612aab565b500190565b600082612a2957634e487b7160e01b81526012600452602481fd5b500490565b6000816000190483118215151615612a4857612a48612aab565b500290565b600082821015612a5f57612a5f612aab565b500390565b60005b83811015612a7f578181015183820152602001612a67565b83811115611e9d5750506000910152565b6000600019821415612aa457612aa4612aab565b5060010190565b634e487b7160e01b600052601160045260246000fd5b634e487b7160e01b600052604160045260246000fdfea2646970667358221220044a50fa6632273c999b296a522eb8468ec0974e895931892cd074dea1e8d02a64736f6c63430008020033",
  "linkReferences": {},
  "deployedLinkReferences": {}
}