{
  "_format": "hh-sol-artifact-1",
  "contractName": "TradeFarmingAVAX",
  "sourceName": "contracts/trade-farming/TradeFarmingAVAX.sol",
  "abi": [
    {
      "inputs": [
        {
          "internalType": "address",
          "name": "_routerAddress",
          "type": "address"
        },
        {
          "internalType": "address",
          "name": "_tokenAddress",
          "type": "address"
        },
        {
          "internalType": "address",
          "name": "_rewardAddress",
          "type": "address"
        },
        {
          "internalType": "uint256",
          "name": "_previousVolume",
          "type": "uint256"
        },
        {
          "internalType": "uint256",
          "name": "_previousDay",
          "type": "uint256"
        },
        {
          "internalType": "uint256",
          "name": "_totalDays",
          "type": "uint256"
        },
        {
          "internalType": "uint256",
          "name": "_upLimit",
          "type": "uint256"
        },
        {
          "internalType": "uint256",
          "name": "_downLimit",
          "type": "uint256"
        }
      ],
      "stateMutability": "nonpayable",
      "type": "constructor"
    },
    {
      "anonymous": false,
      "inputs": [
        {
          "indexed": true,
          "internalType": "address",
          "name": "previousOwner",
          "type": "address"
        },
        {
          "indexed": true,
          "internalType": "address",
          "name": "newOwner",
          "type": "address"
        }
      ],
      "name": "OwnershipTransferred",
      "type": "event"
    },
    {
      "anonymous": false,
      "inputs": [
        {
          "indexed": false,
          "internalType": "address",
          "name": "_user",
          "type": "address"
        },
        {
          "indexed": false,
          "internalType": "uint256",
          "name": "_amount",
          "type": "uint256"
        }
      ],
      "name": "RewardClaimed",
      "type": "event"
    },
    {
      "inputs": [],
      "name": "calcDay",
      "outputs": [
        {
          "internalType": "uint256",
          "name": "",
          "type": "uint256"
        }
      ],
      "stateMutability": "view",
      "type": "function"
    },
    {
      "inputs": [
        {
          "internalType": "uint256",
          "name": "day",
          "type": "uint256"
        }
      ],
      "name": "calculateDailyUserReward",
      "outputs": [
        {
          "internalType": "uint256",
          "name": "",
          "type": "uint256"
        }
      ],
      "stateMutability": "view",
      "type": "function"
    },
    {
      "inputs": [],
      "name": "calculateUserRewards",
      "outputs": [
        {
          "internalType": "uint256",
          "name": "",
          "type": "uint256"
        }
      ],
      "stateMutability": "view",
      "type": "function"
    },
    {
      "inputs": [
        {
          "internalType": "uint256",
          "name": "newTotalDays",
          "type": "uint256"
        }
      ],
      "name": "changeTotalDays",
      "outputs": [],
      "stateMutability": "nonpayable",
      "type": "function"
    },
    {
      "inputs": [],
      "name": "claimAllRewards",
      "outputs": [],
      "stateMutability": "nonpayable",
      "type": "function"
    },
    {
      "inputs": [
        {
          "internalType": "uint256",
          "name": "",
          "type": "uint256"
        }
      ],
      "name": "dailyRewards",
      "outputs": [
        {
          "internalType": "uint256",
          "name": "",
          "type": "uint256"
        }
      ],
      "stateMutability": "view",
      "type": "function"
    },
    {
      "inputs": [
        {
          "internalType": "uint256",
          "name": "",
          "type": "uint256"
        }
      ],
      "name": "dailyVolumes",
      "outputs": [
        {
          "internalType": "uint256",
          "name": "",
          "type": "uint256"
        }
      ],
      "stateMutability": "view",
      "type": "function"
    },
    {
      "inputs": [
        {
          "internalType": "uint256",
          "name": "amount",
          "type": "uint256"
        }
      ],
      "name": "depositRewardTokens",
      "outputs": [],
      "stateMutability": "nonpayable",
      "type": "function"
    },
    {
      "inputs": [
        {
          "internalType": "uint256",
          "name": "amountOut",
          "type": "uint256"
        },
        {
          "internalType": "address[]",
          "name": "path",
          "type": "address[]"
        }
      ],
      "name": "getAmountsIn",
      "outputs": [
        {
          "internalType": "uint256[]",
          "name": "amounts",
          "type": "uint256[]"
        }
      ],
      "stateMutability": "view",
      "type": "function"
    },
    {
      "inputs": [
        {
          "internalType": "uint256",
          "name": "amountIn",
          "type": "uint256"
        },
        {
          "internalType": "address[]",
          "name": "path",
          "type": "address[]"
        }
      ],
      "name": "getAmountsOut",
      "outputs": [
        {
          "internalType": "uint256[]",
          "name": "amounts",
          "type": "uint256[]"
        }
      ],
      "stateMutability": "view",
      "type": "function"
    },
    {
      "inputs": [],
      "name": "isCalculated",
      "outputs": [
        {
          "internalType": "bool",
          "name": "",
          "type": "bool"
        }
      ],
      "stateMutability": "view",
      "type": "function"
    },
    {
      "inputs": [],
      "name": "owner",
      "outputs": [
        {
          "internalType": "address",
          "name": "",
          "type": "address"
        }
      ],
      "stateMutability": "view",
      "type": "function"
    },
    {
      "inputs": [
        {
          "internalType": "uint256",
          "name": "",
          "type": "uint256"
        }
      ],
      "name": "previousVolumes",
      "outputs": [
        {
          "internalType": "uint256",
          "name": "",
          "type": "uint256"
        }
      ],
      "stateMutability": "view",
      "type": "function"
    },
    {
      "inputs": [],
      "name": "renounceOwnership",
      "outputs": [],
      "stateMutability": "nonpayable",
      "type": "function"
    },
    {
      "inputs": [
        {
          "internalType": "uint256",
          "name": "amountOut",
          "type": "uint256"
        },
        {
          "internalType": "address[]",
          "name": "path",
          "type": "address[]"
        },
        {
          "internalType": "address",
          "name": "to",
          "type": "address"
        },
        {
          "internalType": "uint256",
          "name": "deadline",
          "type": "uint256"
        }
      ],
      "name": "swapAVAXForExactTokens",
      "outputs": [
        {
          "internalType": "uint256[]",
          "name": "",
          "type": "uint256[]"
        }
      ],
      "stateMutability": "payable",
      "type": "function"
    },
    {
      "inputs": [
        {
          "internalType": "uint256",
          "name": "amountOutMin",
          "type": "uint256"
        },
        {
          "internalType": "address[]",
          "name": "path",
          "type": "address[]"
        },
        {
          "internalType": "address",
          "name": "to",
          "type": "address"
        },
        {
          "internalType": "uint256",
          "name": "deadline",
          "type": "uint256"
        }
      ],
      "name": "swapExactAVAXForTokens",
      "outputs": [
        {
          "internalType": "uint256[]",
          "name": "out",
          "type": "uint256[]"
        }
      ],
      "stateMutability": "payable",
      "type": "function"
    },
    {
      "inputs": [
        {
          "internalType": "uint256",
          "name": "amountIn",
          "type": "uint256"
        },
        {
          "internalType": "uint256",
          "name": "amountOutMin",
          "type": "uint256"
        },
        {
          "internalType": "address[]",
          "name": "path",
          "type": "address[]"
        },
        {
          "internalType": "address",
          "name": "to",
          "type": "address"
        },
        {
          "internalType": "uint256",
          "name": "deadline",
          "type": "uint256"
        }
      ],
      "name": "swapExactTokensForAVAX",
      "outputs": [
        {
          "internalType": "uint256[]",
          "name": "",
          "type": "uint256[]"
        }
      ],
      "stateMutability": "nonpayable",
      "type": "function"
    },
    {
      "inputs": [
        {
          "internalType": "uint256",
          "name": "amountOut",
          "type": "uint256"
        },
        {
          "internalType": "uint256",
          "name": "amountInMax",
          "type": "uint256"
        },
        {
          "internalType": "address[]",
          "name": "path",
          "type": "address[]"
        },
        {
          "internalType": "address",
          "name": "to",
          "type": "address"
        },
        {
          "internalType": "uint256",
          "name": "deadline",
          "type": "uint256"
        }
      ],
      "name": "swapTokensForExactAVAX",
      "outputs": [
        {
          "internalType": "uint256[]",
          "name": "out",
          "type": "uint256[]"
        }
      ],
      "stateMutability": "nonpayable",
      "type": "function"
    },
    {
      "inputs": [],
      "name": "totalDays",
      "outputs": [
        {
          "internalType": "uint256",
          "name": "",
          "type": "uint256"
        }
      ],
      "stateMutability": "view",
      "type": "function"
    },
    {
      "inputs": [],
      "name": "totalRewardBalance",
      "outputs": [
        {
          "internalType": "uint256",
          "name": "",
          "type": "uint256"
        }
      ],
      "stateMutability": "view",
      "type": "function"
    },
    {
      "inputs": [
        {
          "internalType": "address",
          "name": "newOwner",
          "type": "address"
        }
      ],
      "name": "transferOwnership",
      "outputs": [],
      "stateMutability": "nonpayable",
      "type": "function"
    },
    {
      "inputs": [
        {
          "internalType": "address",
          "name": "",
          "type": "address"
        },
        {
          "internalType": "uint256",
          "name": "",
          "type": "uint256"
        }
      ],
      "name": "volumeRecords",
      "outputs": [
        {
          "internalType": "uint256",
          "name": "",
          "type": "uint256"
        }
      ],
      "stateMutability": "view",
      "type": "function"
    },
    {
      "inputs": [
        {
          "internalType": "uint256",
          "name": "amount",
          "type": "uint256"
        }
      ],
      "name": "withdrawRewardTokens",
      "outputs": [],
      "stateMutability": "nonpayable",
      "type": "function"
    }
  ],
  "bytecode": "0x60e060405260006009556000600c553480156200001b57600080fd5b5060405162004d8c38038062004d8c8339818101604052810190620000419190620003fb565b62000061620000556200028a60201b60201c565b6200029260201b60201c565b426080818152505087600160006101000a81548173ffffffffffffffffffffffffffffffffffffffff021916908373ffffffffffffffffffffffffffffffffffffffff16021790555086600260006101000a81548173ffffffffffffffffffffffffffffffffffffffff021916908373ffffffffffffffffffffffffffffffffffffffff16021790555085600360006101000a81548173ffffffffffffffffffffffffffffffffffffffff021916908373ffffffffffffffffffffffffffffffffffffffff16021790555084600460008081526020019081526020016000208190555083600b8190555082600a81905550600160009054906101000a900473ffffffffffffffffffffffffffffffffffffffff1673ffffffffffffffffffffffffffffffffffffffff166373b295c26040518163ffffffff1660e01b8152600401602060405180830381865afa158015620001c0573d6000803e3d6000fd5b505050506040513d601f19601f82011682018060405250810190620001e69190620004c4565b600d60006101000a81548173ffffffffffffffffffffffffffffffffffffffff021916908373ffffffffffffffffffffffffffffffffffffffff160217905550606482670de0b6b3a76400006200023e919062000525565b6200024a9190620005b5565b60a08181525050606481670de0b6b3a764000062000269919062000525565b620002759190620005b5565b60c081815250505050505050505050620005ed565b600033905090565b60008060009054906101000a900473ffffffffffffffffffffffffffffffffffffffff169050816000806101000a81548173ffffffffffffffffffffffffffffffffffffffff021916908373ffffffffffffffffffffffffffffffffffffffff1602179055508173ffffffffffffffffffffffffffffffffffffffff168173ffffffffffffffffffffffffffffffffffffffff167f8be0079c531659141344cd1fd0a4f28419497f9722a3daafe3b4186f6b6457e060405160405180910390a35050565b600080fd5b600073ffffffffffffffffffffffffffffffffffffffff82169050919050565b600062000388826200035b565b9050919050565b6200039a816200037b565b8114620003a657600080fd5b50565b600081519050620003ba816200038f565b92915050565b6000819050919050565b620003d581620003c0565b8114620003e157600080fd5b50565b600081519050620003f581620003ca565b92915050565b600080600080600080600080610100898b0312156200041f576200041e62000356565b5b60006200042f8b828c01620003a9565b9850506020620004428b828c01620003a9565b9750506040620004558b828c01620003a9565b9650506060620004688b828c01620003e4565b95505060806200047b8b828c01620003e4565b94505060a06200048e8b828c01620003e4565b93505060c0620004a18b828c01620003e4565b92505060e0620004b48b828c01620003e4565b9150509295985092959890939650565b600060208284031215620004dd57620004dc62000356565b5b6000620004ed84828501620003a9565b91505092915050565b7f4e487b7100000000000000000000000000000000000000000000000000000000600052601160045260246000fd5b60006200053282620003c0565b91506200053f83620003c0565b9250817fffffffffffffffffffffffffffffffffffffffffffffffffffffffffffffffff04831182151516156200057b576200057a620004f6565b5b828202905092915050565b7f4e487b7100000000000000000000000000000000000000000000000000000000600052601260045260246000fd5b6000620005c282620003c0565b9150620005cf83620003c0565b925082620005e257620005e162000586565b5b828204905092915050565b60805160a05160c0516147456200064760003960008181611f2301528181611f4b0152818161299c01526129c4015260008181611ec101528181611ee90152818161293a015261296201526000610e8d01526147456000f3fe6080604052600436106101405760003560e01c80637e2ca288116100b6578063b203dc601161006f578063b203dc601461046a578063cb43b2dd146104a7578063ceb7f995146104d0578063d06ca61f1461050d578063de2af4b01461054a578063f2fde38b1461057557610140565b80637e2ca2881461033a5780638a657e67146103655780638da5cb5b14610395578063940ce872146103c057806394f55789146103fd578063a2a1623d1461043a57610140565b80631f924d86116101085780631f924d86146102185780636572ca0c14610255578063676528d114610280578063715018a6146102bd57806378fb427a146102d45780637a42416a146102fd57610140565b8063078e36491461014557806307a779bc146101705780630b83a7271461019b57806316c621e0146101b25780631f00ca74146101db575b600080fd5b34801561015157600080fd5b5061015a61059e565b6040516101679190613515565b60405180910390f35b34801561017c57600080fd5b506101856105a4565b6040516101929190613515565b60405180910390f35b3480156101a757600080fd5b506101b061081b565b005b3480156101be57600080fd5b506101d960048036038101906101d49190613570565b610cd7565b005b3480156101e757600080fd5b5061020260048036038101906101fd9190613602565b610dbe565b60405161020f9190613720565b60405180910390f35b34801561022457600080fd5b5061023f600480360381019061023a9190613570565b610e6e565b60405161024c9190613515565b60405180910390f35b34801561026157600080fd5b5061026a610e86565b6040516102779190613515565b60405180910390f35b34801561028c57600080fd5b506102a760048036038101906102a291906137a0565b610ec6565b6040516102b49190613720565b60405180910390f35b3480156102c957600080fd5b506102d261129e565b005b3480156102e057600080fd5b506102fb60048036038101906102f69190613570565b611326565b005b34801561030957600080fd5b50610324600480360381019061031f91906137a0565b6113ac565b6040516103319190613720565b60405180910390f35b34801561034657600080fd5b5061034f6118ce565b60405161035c9190613515565b60405180910390f35b61037f600480360381019061037a919061383a565b6118d4565b60405161038c9190613720565b60405180910390f35b3480156103a157600080fd5b506103aa611d4f565b6040516103b791906138d1565b60405180910390f35b3480156103cc57600080fd5b506103e760048036038101906103e291906138ec565b611d78565b6040516103f49190613515565b60405180910390f35b34801561040957600080fd5b50610424600480360381019061041f9190613570565b611d9d565b6040516104319190613515565b60405180910390f35b610454600480360381019061044f919061383a565b611fcf565b6040516104619190613720565b60405180910390f35b34801561047657600080fd5b50610491600480360381019061048c9190613570565b612351565b60405161049e9190613515565b60405180910390f35b3480156104b357600080fd5b506104ce60048036038101906104c99190613570565b612369565b005b3480156104dc57600080fd5b506104f760048036038101906104f29190613570565b612493565b6040516105049190613515565b60405180910390f35b34801561051957600080fd5b50610534600480360381019061052f9190613602565b6124ab565b6040516105419190613720565b60405180910390f35b34801561055657600080fd5b5061055f61255b565b60405161056c9190613947565b60405180910390f35b34801561058157600080fd5b5061059c60048036038101906105979190613962565b61259a565b005b600a5481565b600080600090506000670de0b6b3a7640000905060005b610602600860003373ffffffffffffffffffffffffffffffffffffffff1673ffffffffffffffffffffffffffffffffffffffff168152602001908152602001600020612692565b81101561081257600c5461065d82600860003373ffffffffffffffffffffffffffffffffffffffff1673ffffffffffffffffffffffffffffffffffffffff1681526020019081526020016000206126a790919063ffffffff16565b10156107ff57610779600560003373ffffffffffffffffffffffffffffffffffffffff1673ffffffffffffffffffffffffffffffffffffffff16815260200190815260200160002060006106f884600860003373ffffffffffffffffffffffffffffffffffffffff1673ffffffffffffffffffffffffffffffffffffffff1681526020019081526020016000206126a790919063ffffffff16565b815260200190815260200160002054670de0b6b3a76400006006600061076586600860003373ffffffffffffffffffffffffffffffffffffffff1673ffffffffffffffffffffffffffffffffffffffff1681526020019081526020016000206126a790919063ffffffff16565b8152602001908152602001600020546126c1565b91506107f182600760006107d485600860003373ffffffffffffffffffffffffffffffffffffffff1673ffffffffffffffffffffffffffffffffffffffff1681526020019081526020016000206126a790919063ffffffff16565b815260200190815260200160002054670de0b6b3a76400006126c1565b836107fc91906139be565b92505b808061080a90613a14565b9150506105bb565b50819250505090565b610823610e86565b6001600c5461083291906139be565b111580156108445750600a54600c5414155b1561085257610851612862565b5b600080670de0b6b3a7640000905060006108a9600860003373ffffffffffffffffffffffffffffffffffffffff1673ffffffffffffffffffffffffffffffffffffffff168152602001908152602001600020612692565b905060008167ffffffffffffffff8111156108c7576108c6613a5d565b5b6040519080825280602002602001820160405280156108f55781602001602082028036833780820191505090505b50905060005b82811015610b7c57600c5461095782600860003373ffffffffffffffffffffffffffffffffffffffff1673ffffffffffffffffffffffffffffffffffffffff1681526020019081526020016000206126a790919063ffffffff16565b1015610b6957610a73600560003373ffffffffffffffffffffffffffffffffffffffff1673ffffffffffffffffffffffffffffffffffffffff16815260200190815260200160002060006109f284600860003373ffffffffffffffffffffffffffffffffffffffff1673ffffffffffffffffffffffffffffffffffffffff1681526020019081526020016000206126a790919063ffffffff16565b815260200190815260200160002054670de0b6b3a764000060066000610a5f86600860003373ffffffffffffffffffffffffffffffffffffffff1673ffffffffffffffffffffffffffffffffffffffff1681526020019081526020016000206126a790919063ffffffff16565b8152602001908152602001600020546126c1565b9350610aeb8460076000610ace85600860003373ffffffffffffffffffffffffffffffffffffffff1673ffffffffffffffffffffffffffffffffffffffff1681526020019081526020016000206126a790919063ffffffff16565b815260200190815260200160002054670de0b6b3a76400006126c1565b85610af691906139be565b9450610b4981600860003373ffffffffffffffffffffffffffffffffffffffff1673ffffffffffffffffffffffffffffffffffffffff1681526020019081526020016000206126a790919063ffffffff16565b828281518110610b5c57610b5b613a8c565b5b6020026020010181815250505b8080610b7490613a14565b9150506108fb565b5060005b82811015610c0757610bf3828281518110610b9e57610b9d613a8c565b5b6020026020010151600860003373ffffffffffffffffffffffffffffffffffffffff1673ffffffffffffffffffffffffffffffffffffffff168152602001908152602001600020612af590919063ffffffff16565b508080610bff90613a14565b915050610b80565b5060008411610c4b576040517f08c379a0000000000000000000000000000000000000000000000000000000008152600401610c4290613b18565b60405180910390fd5b610c983385600360009054906101000a900473ffffffffffffffffffffffffffffffffffffffff1673ffffffffffffffffffffffffffffffffffffffff16612b0f9092919063ffffffff16565b7f106f923f993c2149d49b4255ff723acafa1f2d94393f561d3eda32ae348f72413385604051610cc9929190613b38565b60405180910390a150505050565b610cdf612b95565b73ffffffffffffffffffffffffffffffffffffffff16610cfd611d4f565b73ffffffffffffffffffffffffffffffffffffffff1614610d53576040517f08c379a0000000000000000000000000000000000000000000000000000000008152600401610d4a90613bad565b60405180910390fd5b8060096000828254610d6591906139be565b92505081905550610dbb333083600360009054906101000a900473ffffffffffffffffffffffffffffffffffffffff1673ffffffffffffffffffffffffffffffffffffffff16612b9d909392919063ffffffff16565b50565b6060600160009054906101000a900473ffffffffffffffffffffffffffffffffffffffff1673ffffffffffffffffffffffffffffffffffffffff16631f00ca748585856040518463ffffffff1660e01b8152600401610e1f93929190613c90565b600060405180830381865afa158015610e3c573d6000803e3d6000fd5b505050506040513d6000823e3d601f19601f82011682018060405250810190610e659190613df7565b90509392505050565b60066020528060005260406000206000915090505481565b600061a8c07f000000000000000000000000000000000000000000000000000000000000000042610eb79190613e40565b610ec19190613ea3565b905090565b6060600d60009054906101000a900473ffffffffffffffffffffffffffffffffffffffff1673ffffffffffffffffffffffffffffffffffffffff168585600188889050610f139190613e40565b818110610f2357610f22613a8c565b5b9050602002016020810190610f389190613962565b73ffffffffffffffffffffffffffffffffffffffff1614610f8e576040517f08c379a0000000000000000000000000000000000000000000000000000000008152600401610f8590613f46565b60405180910390fd5b600260009054906101000a900473ffffffffffffffffffffffffffffffffffffffff1673ffffffffffffffffffffffffffffffffffffffff1685856000818110610fdb57610fda613a8c565b5b9050602002016020810190610ff09190613962565b73ffffffffffffffffffffffffffffffffffffffff1614611046576040517f08c379a000000000000000000000000000000000000000000000000000000000815260040161103d90613f46565b60405180910390fd5b61109e611051610e86565b600860003373ffffffffffffffffffffffffffffffffffffffff1673ffffffffffffffffffffffffffffffffffffffff168152602001908152602001600020612c2690919063ffffffff16565b1580156110b35750600a546110b1610e86565b105b15611112576111106110c3610e86565b600860003373ffffffffffffffffffffffffffffffffffffffff1673ffffffffffffffffffffffffffffffffffffffff168152602001908152602001600020612c4090919063ffffffff16565b505b611161333089600260009054906101000a900473ffffffffffffffffffffffffffffffffffffffff1673ffffffffffffffffffffffffffffffffffffffff16612b9d909392919063ffffffff16565b6111d0600160009054906101000a900473ffffffffffffffffffffffffffffffffffffffff1688600260009054906101000a900473ffffffffffffffffffffffffffffffffffffffff1673ffffffffffffffffffffffffffffffffffffffff16612c5a9092919063ffffffff16565b600a54600c54146111e5576111e487612d6c565b5b600160009054906101000a900473ffffffffffffffffffffffffffffffffffffffff1673ffffffffffffffffffffffffffffffffffffffff1663676528d18888888888886040518763ffffffff1660e01b815260040161124a96959493929190613f66565b6000604051808303816000875af1158015611269573d6000803e3d6000fd5b505050506040513d6000823e3d601f19601f820116820180604052508101906112929190613df7565b90509695505050505050565b6112a6612b95565b73ffffffffffffffffffffffffffffffffffffffff166112c4611d4f565b73ffffffffffffffffffffffffffffffffffffffff161461131a576040517f08c379a000000000000000000000000000000000000000000000000000000000815260040161131190613bad565b60405180910390fd5b6113246000612e57565b565b61132e612b95565b73ffffffffffffffffffffffffffffffffffffffff1661134c611d4f565b73ffffffffffffffffffffffffffffffffffffffff16146113a2576040517f08c379a000000000000000000000000000000000000000000000000000000000815260040161139990613bad565b60405180910390fd5b80600a8190555050565b6060600d60009054906101000a900473ffffffffffffffffffffffffffffffffffffffff1673ffffffffffffffffffffffffffffffffffffffff1685856001888890506113f99190613e40565b81811061140957611408613a8c565b5b905060200201602081019061141e9190613962565b73ffffffffffffffffffffffffffffffffffffffff1614611474576040517f08c379a000000000000000000000000000000000000000000000000000000000815260040161146b90613f46565b60405180910390fd5b600260009054906101000a900473ffffffffffffffffffffffffffffffffffffffff1673ffffffffffffffffffffffffffffffffffffffff16858560008181106114c1576114c0613a8c565b5b90506020020160208101906114d69190613962565b73ffffffffffffffffffffffffffffffffffffffff161461152c576040517f08c379a000000000000000000000000000000000000000000000000000000000815260040161152390613f46565b60405180910390fd5b611584611537610e86565b600860003373ffffffffffffffffffffffffffffffffffffffff1673ffffffffffffffffffffffffffffffffffffffff168152602001908152602001600020612c2690919063ffffffff16565b1580156115995750600a54611597610e86565b105b156115f8576115f66115a9610e86565b600860003373ffffffffffffffffffffffffffffffffffffffff1673ffffffffffffffffffffffffffffffffffffffff168152602001908152602001600020612c4090919063ffffffff16565b505b6117063330600160009054906101000a900473ffffffffffffffffffffffffffffffffffffffff1673ffffffffffffffffffffffffffffffffffffffff16631f00ca748b8a8a6040518463ffffffff1660e01b815260040161165c93929190613c90565b600060405180830381865afa158015611679573d6000803e3d6000fd5b505050506040513d6000823e3d601f19601f820116820180604052508101906116a29190613df7565b6000815181106116b5576116b4613a8c565b5b6020026020010151600260009054906101000a900473ffffffffffffffffffffffffffffffffffffffff1673ffffffffffffffffffffffffffffffffffffffff16612b9d909392919063ffffffff16565b611775600160009054906101000a900473ffffffffffffffffffffffffffffffffffffffff1687600260009054906101000a900473ffffffffffffffffffffffffffffffffffffffff1673ffffffffffffffffffffffffffffffffffffffff16612c5a9092919063ffffffff16565b600160009054906101000a900473ffffffffffffffffffffffffffffffffffffffff1673ffffffffffffffffffffffffffffffffffffffff16637a42416a8888888888886040518763ffffffff1660e01b81526004016117da96959493929190613f66565b6000604051808303816000875af11580156117f9573d6000803e3d6000fd5b505050506040513d6000823e3d601f19601f820116820180604052508101906118229190613df7565b9050600a54600c5414611854576118538160008151811061184657611845613a8c565b5b6020026020010151612d6c565b5b6118c4600160009054906101000a900473ffffffffffffffffffffffffffffffffffffffff166000600260009054906101000a900473ffffffffffffffffffffffffffffffffffffffff1673ffffffffffffffffffffffffffffffffffffffff16612f1b9092919063ffffffff16565b9695505050505050565b60095481565b6060600d60009054906101000a900473ffffffffffffffffffffffffffffffffffffffff1673ffffffffffffffffffffffffffffffffffffffff168585600081811061192357611922613a8c565b5b90506020020160208101906119389190613962565b73ffffffffffffffffffffffffffffffffffffffff161461198e576040517f08c379a000000000000000000000000000000000000000000000000000000000815260040161198590613f46565b60405180910390fd5b600260009054906101000a900473ffffffffffffffffffffffffffffffffffffffff1673ffffffffffffffffffffffffffffffffffffffff1685856001888890506119d99190613e40565b8181106119e9576119e8613a8c565b5b90506020020160208101906119fe9190613962565b73ffffffffffffffffffffffffffffffffffffffff1614611a54576040517f08c379a0000000000000000000000000000000000000000000000000000000008152600401611a4b90613f46565b60405180910390fd5b6000600160009054906101000a900473ffffffffffffffffffffffffffffffffffffffff1673ffffffffffffffffffffffffffffffffffffffff16631f00ca748888886040518463ffffffff1660e01b8152600401611ab593929190613c90565b600060405180830381865afa158015611ad2573d6000803e3d6000fd5b505050506040513d6000823e3d601f19601f82011682018060405250810190611afb9190613df7565b600081518110611b0e57611b0d613a8c565b5b6020026020010151905080341015611b5b576040517f08c379a0000000000000000000000000000000000000000000000000000000008152600401611b5290614034565b60405180910390fd5b611bb3611b66610e86565b600860003373ffffffffffffffffffffffffffffffffffffffff1673ffffffffffffffffffffffffffffffffffffffff168152602001908152602001600020612c2690919063ffffffff16565b158015611bc85750600a54611bc6610e86565b105b15611c2757611c25611bd8610e86565b600860003373ffffffffffffffffffffffffffffffffffffffff1673ffffffffffffffffffffffffffffffffffffffff168152602001908152602001600020612c4090919063ffffffff16565b505b600a54600c5414611c3c57611c3b87612d6c565b5b80341115611c97573373ffffffffffffffffffffffffffffffffffffffff166108fc8234611c6a9190613e40565b9081150290604051600060405180830381858888f19350505050158015611c95573d6000803e3d6000fd5b505b600160009054906101000a900473ffffffffffffffffffffffffffffffffffffffff1673ffffffffffffffffffffffffffffffffffffffff16638a657e678289898989896040518763ffffffff1660e01b8152600401611cfb959493929190614054565b60006040518083038185885af1158015611d19573d6000803e3d6000fd5b50505050506040513d6000823e3d601f19601f82011682018060405250810190611d439190613df7565b91505095945050505050565b60008060009054906101000a900473ffffffffffffffffffffffffffffffffffffffff16905090565b6005602052816000526040600020602052806000526040600020600091509150505481565b600080600090506000670de0b6b3a76400009050611e0284600860003373ffffffffffffffffffffffffffffffffffffffff1673ffffffffffffffffffffffffffffffffffffffff168152602001908152602001600020612c2690919063ffffffff16565b15611fc557611e7d600560003373ffffffffffffffffffffffffffffffffffffffff1673ffffffffffffffffffffffffffffffffffffffff168152602001908152602001600020600086815260200190815260200160002054670de0b6b3a764000060066000888152602001908152602001600020546126c1565b90506000600c54851015611ea65760076000868152602001908152602001600020549050611fa3565b600c54851415611fa2576000611ebd600c5461306a565b90507f0000000000000000000000000000000000000000000000000000000000000000811115611f0f577f00000000000000000000000000000000000000000000000000000000000000009050611f6f565b6000811415611f215760009050611f6e565b7f0000000000000000000000000000000000000000000000000000000000000000811015611f6d577f000000000000000000000000000000000000000000000000000000000000000090505b5b5b611f9e600c54600a54611f829190613e40565b600954611f8f9190613ea3565b82670de0b6b3a76400006126c1565b9150505b5b611fb68282670de0b6b3a76400006126c1565b83611fc191906139be565b9250505b8192505050919050565b6060600d60009054906101000a900473ffffffffffffffffffffffffffffffffffffffff1673ffffffffffffffffffffffffffffffffffffffff168585600081811061201e5761201d613a8c565b5b90506020020160208101906120339190613962565b73ffffffffffffffffffffffffffffffffffffffff1614612089576040517f08c379a000000000000000000000000000000000000000000000000000000000815260040161208090613f46565b60405180910390fd5b600260009054906101000a900473ffffffffffffffffffffffffffffffffffffffff1673ffffffffffffffffffffffffffffffffffffffff1685856001888890506120d49190613e40565b8181106120e4576120e3613a8c565b5b90506020020160208101906120f99190613962565b73ffffffffffffffffffffffffffffffffffffffff161461214f576040517f08c379a000000000000000000000000000000000000000000000000000000000815260040161214690613f46565b60405180910390fd5b60003411612192576040517f08c379a000000000000000000000000000000000000000000000000000000000815260040161218990614114565b60405180910390fd5b6121ea61219d610e86565b600860003373ffffffffffffffffffffffffffffffffffffffff1673ffffffffffffffffffffffffffffffffffffffff168152602001908152602001600020612c2690919063ffffffff16565b1580156121ff5750600a546121fd610e86565b105b1561225e5761225c61220f610e86565b600860003373ffffffffffffffffffffffffffffffffffffffff1673ffffffffffffffffffffffffffffffffffffffff168152602001908152602001600020612c4090919063ffffffff16565b505b600160009054906101000a900473ffffffffffffffffffffffffffffffffffffffff1673ffffffffffffffffffffffffffffffffffffffff1663a2a1623d3488888888886040518763ffffffff1660e01b81526004016122c2959493929190614054565b60006040518083038185885af11580156122e0573d6000803e3d6000fd5b50505050506040513d6000823e3d601f19601f8201168201806040525081019061230a9190613df7565b9050600a54600c54146123485761234781600183516123299190613e40565b8151811061233a57612339613a8c565b5b6020026020010151612d6c565b5b95945050505050565b60076020528060005260406000206000915090505481565b612371612b95565b73ffffffffffffffffffffffffffffffffffffffff1661238f611d4f565b73ffffffffffffffffffffffffffffffffffffffff16146123e5576040517f08c379a00000000000000000000000000000000000000000000000000000000081526004016123dc90613bad565b60405180910390fd5b80600954101561242a576040517f08c379a0000000000000000000000000000000000000000000000000000000008152600401612421906141a6565b60405180910390fd5b806009600082825461243c9190613e40565b925050819055506124903382600360009054906101000a900473ffffffffffffffffffffffffffffffffffffffff1673ffffffffffffffffffffffffffffffffffffffff16612b0f9092919063ffffffff16565b50565b60046020528060005260406000206000915090505481565b6060600160009054906101000a900473ffffffffffffffffffffffffffffffffffffffff1673ffffffffffffffffffffffffffffffffffffffff1663d06ca61f8585856040518463ffffffff1660e01b815260040161250c93929190613c90565b600060405180830381865afa158015612529573d6000803e3d6000fd5b505050506040513d6000823e3d601f19601f820116820180604052508101906125529190613df7565b90509392505050565b6000612565610e86565b6001600c5461257491906139be565b111580156125865750600a54600c5414155b15806125955750600a54600c54145b905090565b6125a2612b95565b73ffffffffffffffffffffffffffffffffffffffff166125c0611d4f565b73ffffffffffffffffffffffffffffffffffffffff1614612616576040517f08c379a000000000000000000000000000000000000000000000000000000000815260040161260d90613bad565b60405180910390fd5b600073ffffffffffffffffffffffffffffffffffffffff168173ffffffffffffffffffffffffffffffffffffffff161415612686576040517f08c379a000000000000000000000000000000000000000000000000000000000815260040161267d90614238565b60405180910390fd5b61268f81612e57565b50565b60006126a0826000016130ac565b9050919050565b60006126b683600001836130bd565b60001c905092915050565b60008082116126cf57600080fd5b60008060001985870985870292508281108382030391505060008114156126fc578382049250505061285b565b83811061270857600080fd5b600084868809905082811182039150808303925060006001861961272c91906139be565b8616905080860495508084049350600181826000030401905080836127519190614258565b84179350600060028760036127669190614258565b18905080876127759190614258565b60026127819190613e40565b8161278c9190614258565b9050808761279a9190614258565b60026127a69190613e40565b816127b19190614258565b905080876127bf9190614258565b60026127cb9190613e40565b816127d69190614258565b905080876127e49190614258565b60026127f09190613e40565b816127fb9190614258565b905080876128099190614258565b60026128159190613e40565b816128209190614258565b9050808761282e9190614258565b600261283a9190613e40565b816128459190614258565b905080856128539190614258565b955050505050505b9392505050565b600061286c610e86565b905060006001600c54600b5461288291906139be565b61288c91906139be565b9050816001600c5461289e91906139be565b11156128ad576128ac6142b2565b5b8060066000600c548152602001908152602001600020546128ce9190613ea3565b6128fa60046000600c548152602001908152602001600020546001846128f49190613e40565b846126c1565b61290491906139be565b600460006001600c5461291791906139be565b8152602001908152602001600020819055506000612936600c5461306a565b90507f0000000000000000000000000000000000000000000000000000000000000000811115612988577f000000000000000000000000000000000000000000000000000000000000000090506129e8565b600081141561299a57600090506129e7565b7f00000000000000000000000000000000000000000000000000000000000000008110156129e6577f000000000000000000000000000000000000000000000000000000000000000090505b5b5b6001600a546129f79190613e40565b600c54148015612a0e5750670de0b6b3a764000081115b15612a345760095460076000600c54815260200190815260200160002081905550612a7d565b612a63600c54600a54612a479190613e40565b600954612a549190613ea3565b82670de0b6b3a76400006126c1565b60076000600c548152602001908152602001600020819055505b60076000600c54815260200190815260200160002054600954612aa09190613e40565b6009819055506001600c6000828254612ab991906139be565b92505081905550826001600c54612ad091906139be565b11158015612ae25750600a54600c5414155b15612af057612aef612862565b5b505050565b6000612b07836000018360001b6130e8565b905092915050565b612b908363a9059cbb60e01b8484604051602401612b2e929190613b38565b604051602081830303815290604052907bffffffffffffffffffffffffffffffffffffffffffffffffffffffff19166020820180517bffffffffffffffffffffffffffffffffffffffffffffffffffffffff83818316178352505050506131fc565b505050565b600033905090565b612c20846323b872dd60e01b858585604051602401612bbe939291906142e1565b604051602081830303815290604052907bffffffffffffffffffffffffffffffffffffffffffffffffffffffff19166020820180517bffffffffffffffffffffffffffffffffffffffffffffffffffffffff83818316178352505050506131fc565b50505050565b6000612c38836000018360001b6132c3565b905092915050565b6000612c52836000018360001b6132e6565b905092915050565b6000818473ffffffffffffffffffffffffffffffffffffffff1663dd62ed3e30866040518363ffffffff1660e01b8152600401612c98929190614318565b602060405180830381865afa158015612cb5573d6000803e3d6000fd5b505050506040513d601f19601f82011682018060405250810190612cd99190614341565b612ce391906139be565b9050612d668463095ea7b360e01b8584604051602401612d04929190613b38565b604051602081830303815290604052907bffffffffffffffffffffffffffffffffffffffffffffffffffffffff19166020820180517bffffffffffffffffffffffffffffffffffffffffffffffffffffffff83818316178352505050506131fc565b50505050565b600a54612d77610e86565b1015612e1d5780600560003373ffffffffffffffffffffffffffffffffffffffff1673ffffffffffffffffffffffffffffffffffffffff1681526020019081526020016000206000612dc7610e86565b81526020019081526020016000206000828254612de491906139be565b925050819055508060066000612df8610e86565b81526020019081526020016000206000828254612e1591906139be565b925050819055505b612e25610e86565b6001600c54612e3491906139be565b11158015612e465750600a54600c5414155b15612e5457612e53612862565b5b50565b60008060009054906101000a900473ffffffffffffffffffffffffffffffffffffffff169050816000806101000a81548173ffffffffffffffffffffffffffffffffffffffff021916908373ffffffffffffffffffffffffffffffffffffffff1602179055508173ffffffffffffffffffffffffffffffffffffffff168173ffffffffffffffffffffffffffffffffffffffff167f8be0079c531659141344cd1fd0a4f28419497f9722a3daafe3b4186f6b6457e060405160405180910390a35050565b6000811480612fa5575060008373ffffffffffffffffffffffffffffffffffffffff1663dd62ed3e30856040518363ffffffff1660e01b8152600401612f62929190614318565b602060405180830381865afa158015612f7f573d6000803e3d6000fd5b505050506040513d601f19601f82011682018060405250810190612fa39190614341565b145b612fe4576040517f08c379a0000000000000000000000000000000000000000000000000000000008152600401612fdb906143e0565b60405180910390fd5b6130658363095ea7b360e01b8484604051602401613003929190613b38565b604051602081830303815290604052907bffffffffffffffffffffffffffffffffffffffffffffffffffffffff19166020820180517bffffffffffffffffffffffffffffffffffffffffffffffffffffffff83818316178352505050506131fc565b505050565b60006130a56006600084815260200190815260200160002054670de0b6b3a764000060046000868152602001908152602001600020546126c1565b9050919050565b600081600001805490509050919050565b60008260000182815481106130d5576130d4613a8c565b5b9060005260206000200154905092915050565b600080836001016000848152602001908152602001600020549050600081146131f057600060018261311a9190613e40565b90506000600186600001805490506131329190613e40565b90508181146131a157600086600001828154811061315357613152613a8c565b5b906000526020600020015490508087600001848154811061317757613176613a8c565b5b90600052602060002001819055508387600101600083815260200190815260200160002081905550505b856000018054806131b5576131b4614400565b5b6001900381819060005260206000200160009055905585600101600086815260200190815260200160002060009055600193505050506131f6565b60009150505b92915050565b600061325e826040518060400160405280602081526020017f5361666545524332303a206c6f772d6c6576656c2063616c6c206661696c65648152508573ffffffffffffffffffffffffffffffffffffffff166133569092919063ffffffff16565b90506000815111156132be578080602001905181019061327e919061445b565b6132bd576040517f08c379a00000000000000000000000000000000000000000000000000000000081526004016132b4906144fa565b60405180910390fd5b5b505050565b600080836001016000848152602001908152602001600020541415905092915050565b60006132f283836132c3565b61334b578260000182908060018154018082558091505060019003906000526020600020016000909190919091505582600001805490508360010160008481526020019081526020016000208190555060019050613350565b600090505b92915050565b6060613365848460008561336e565b90509392505050565b6060824710156133b3576040517f08c379a00000000000000000000000000000000000000000000000000000000081526004016133aa9061458c565b60405180910390fd5b6133bc85613482565b6133fb576040517f08c379a00000000000000000000000000000000000000000000000000000000081526004016133f2906145f8565b60405180910390fd5b6000808673ffffffffffffffffffffffffffffffffffffffff1685876040516134249190614692565b60006040518083038185875af1925050503d8060008114613461576040519150601f19603f3d011682016040523d82523d6000602084013e613466565b606091505b5091509150613476828286613495565b92505050949350505050565b600080823b905060008111915050919050565b606083156134a5578290506134f5565b6000835111156134b85782518084602001fd5b816040517f08c379a00000000000000000000000000000000000000000000000000000000081526004016134ec91906146ed565b60405180910390fd5b9392505050565b6000819050919050565b61350f816134fc565b82525050565b600060208201905061352a6000830184613506565b92915050565b6000604051905090565b600080fd5b600080fd5b61354d816134fc565b811461355857600080fd5b50565b60008135905061356a81613544565b92915050565b6000602082840312156135865761358561353a565b5b60006135948482850161355b565b91505092915050565b600080fd5b600080fd5b600080fd5b60008083601f8401126135c2576135c161359d565b5b8235905067ffffffffffffffff8111156135df576135de6135a2565b5b6020830191508360208202830111156135fb576135fa6135a7565b5b9250929050565b60008060006040848603121561361b5761361a61353a565b5b60006136298682870161355b565b935050602084013567ffffffffffffffff81111561364a5761364961353f565b5b613656868287016135ac565b92509250509250925092565b600081519050919050565b600082825260208201905092915050565b6000819050602082019050919050565b613697816134fc565b82525050565b60006136a9838361368e565b60208301905092915050565b6000602082019050919050565b60006136cd82613662565b6136d7818561366d565b93506136e28361367e565b8060005b838110156137135781516136fa888261369d565b9750613705836136b5565b9250506001810190506136e6565b5085935050505092915050565b6000602082019050818103600083015261373a81846136c2565b905092915050565b600073ffffffffffffffffffffffffffffffffffffffff82169050919050565b600061376d82613742565b9050919050565b61377d81613762565b811461378857600080fd5b50565b60008135905061379a81613774565b92915050565b60008060008060008060a087890312156137bd576137bc61353a565b5b60006137cb89828a0161355b565b96505060206137dc89828a0161355b565b955050604087013567ffffffffffffffff8111156137fd576137fc61353f565b5b61380989828a016135ac565b9450945050606061381c89828a0161378b565b925050608061382d89828a0161355b565b9150509295509295509295565b6000806000806000608086880312156138565761385561353a565b5b60006138648882890161355b565b955050602086013567ffffffffffffffff8111156138855761388461353f565b5b613891888289016135ac565b945094505060406138a48882890161378b565b92505060606138b58882890161355b565b9150509295509295909350565b6138cb81613762565b82525050565b60006020820190506138e660008301846138c2565b92915050565b600080604083850312156139035761390261353a565b5b60006139118582860161378b565b92505060206139228582860161355b565b9150509250929050565b60008115159050919050565b6139418161392c565b82525050565b600060208201905061395c6000830184613938565b92915050565b6000602082840312156139785761397761353a565b5b60006139868482850161378b565b91505092915050565b7f4e487b7100000000000000000000000000000000000000000000000000000000600052601160045260246000fd5b60006139c9826134fc565b91506139d4836134fc565b9250827fffffffffffffffffffffffffffffffffffffffffffffffffffffffffffffffff03821115613a0957613a0861398f565b5b828201905092915050565b6000613a1f826134fc565b91507fffffffffffffffffffffffffffffffffffffffffffffffffffffffffffffffff821415613a5257613a5161398f565b5b600182019050919050565b7f4e487b7100000000000000000000000000000000000000000000000000000000600052604160045260246000fd5b7f4e487b7100000000000000000000000000000000000000000000000000000000600052603260045260246000fd5b600082825260208201905092915050565b7f5b636c61696d416c6c526577617264735d204e6f207265776172642100000000600082015250565b6000613b02601c83613abb565b9150613b0d82613acc565b602082019050919050565b60006020820190508181036000830152613b3181613af5565b9050919050565b6000604082019050613b4d60008301856138c2565b613b5a6020830184613506565b9392505050565b7f4f776e61626c653a2063616c6c6572206973206e6f7420746865206f776e6572600082015250565b6000613b97602083613abb565b9150613ba282613b61565b602082019050919050565b60006020820190508181036000830152613bc681613b8a565b9050919050565b600082825260208201905092915050565b6000819050919050565b613bf181613762565b82525050565b6000613c038383613be8565b60208301905092915050565b6000613c1e602084018461378b565b905092915050565b6000602082019050919050565b6000613c3f8385613bcd565b9350613c4a82613bde565b8060005b85811015613c8357613c608284613c0f565b613c6a8882613bf7565b9750613c7583613c26565b925050600181019050613c4e565b5085925050509392505050565b6000604082019050613ca56000830186613506565b8181036020830152613cb8818486613c33565b9050949350505050565b6000601f19601f8301169050919050565b613cdc82613cc2565b810181811067ffffffffffffffff82111715613cfb57613cfa613a5d565b5b80604052505050565b6000613d0e613530565b9050613d1a8282613cd3565b919050565b600067ffffffffffffffff821115613d3a57613d39613a5d565b5b602082029050602081019050919050565b600081519050613d5a81613544565b92915050565b6000613d73613d6e84613d1f565b613d04565b90508083825260208201905060208402830185811115613d9657613d956135a7565b5b835b81811015613dbf5780613dab8882613d4b565b845260208401935050602081019050613d98565b5050509392505050565b600082601f830112613dde57613ddd61359d565b5b8151613dee848260208601613d60565b91505092915050565b600060208284031215613e0d57613e0c61353a565b5b600082015167ffffffffffffffff811115613e2b57613e2a61353f565b5b613e3784828501613dc9565b91505092915050565b6000613e4b826134fc565b9150613e56836134fc565b925082821015613e6957613e6861398f565b5b828203905092915050565b7f4e487b7100000000000000000000000000000000000000000000000000000000600052601260045260246000fd5b6000613eae826134fc565b9150613eb9836134fc565b925082613ec957613ec8613e74565b5b828204905092915050565b7f5b73776170457861637441564158466f72546f6b656e735d20496e76616c696460008201527f2070617468210000000000000000000000000000000000000000000000000000602082015250565b6000613f30602683613abb565b9150613f3b82613ed4565b604082019050919050565b60006020820190508181036000830152613f5f81613f23565b9050919050565b600060a082019050613f7b6000830189613506565b613f886020830188613506565b8181036040830152613f9b818688613c33565b9050613faa60608301856138c2565b613fb76080830184613506565b979650505050505050565b7f5b7377617041564158466f724578616374546f6b656e735d204e6f7420656e6f60008201527f756768206d73672e76616c756521000000000000000000000000000000000000602082015250565b600061401e602e83613abb565b915061402982613fc2565b604082019050919050565b6000602082019050818103600083015261404d81614011565b9050919050565b60006080820190506140696000830188613506565b818103602083015261407c818688613c33565b905061408b60408301856138c2565b6140986060830184613506565b9695505050505050565b7f5b73776170457861637441564158466f72546f6b656e735d204e6f742061206d60008201527f73672e76616c7565210000000000000000000000000000000000000000000000602082015250565b60006140fe602983613abb565b9150614109826140a2565b604082019050919050565b6000602082019050818103600083015261412d816140f1565b9050919050565b7f5b7769746864726177526577617264546f6b656e735d204e6f7420656e6f756760008201527f682062616c616e63652100000000000000000000000000000000000000000000602082015250565b6000614190602a83613abb565b915061419b82614134565b604082019050919050565b600060208201905081810360008301526141bf81614183565b9050919050565b7f4f776e61626c653a206e6577206f776e657220697320746865207a65726f206160008201527f6464726573730000000000000000000000000000000000000000000000000000602082015250565b6000614222602683613abb565b915061422d826141c6565b604082019050919050565b6000602082019050818103600083015261425181614215565b9050919050565b6000614263826134fc565b915061426e836134fc565b9250817fffffffffffffffffffffffffffffffffffffffffffffffffffffffffffffffff04831182151516156142a7576142a661398f565b5b828202905092915050565b7f4e487b7100000000000000000000000000000000000000000000000000000000600052600160045260246000fd5b60006060820190506142f660008301866138c2565b61430360208301856138c2565b6143106040830184613506565b949350505050565b600060408201905061432d60008301856138c2565b61433a60208301846138c2565b9392505050565b6000602082840312156143575761435661353a565b5b600061436584828501613d4b565b91505092915050565b7f5361666545524332303a20617070726f76652066726f6d206e6f6e2d7a65726f60008201527f20746f206e6f6e2d7a65726f20616c6c6f77616e636500000000000000000000602082015250565b60006143ca603683613abb565b91506143d58261436e565b604082019050919050565b600060208201905081810360008301526143f9816143bd565b9050919050565b7f4e487b7100000000000000000000000000000000000000000000000000000000600052603160045260246000fd5b6144388161392c565b811461444357600080fd5b50565b6000815190506144558161442f565b92915050565b6000602082840312156144715761447061353a565b5b600061447f84828501614446565b91505092915050565b7f5361666545524332303a204552433230206f7065726174696f6e20646964206e60008201527f6f74207375636365656400000000000000000000000000000000000000000000602082015250565b60006144e4602a83613abb565b91506144ef82614488565b604082019050919050565b60006020820190508181036000830152614513816144d7565b9050919050565b7f416464726573733a20696e73756666696369656e742062616c616e636520666f60008201527f722063616c6c0000000000000000000000000000000000000000000000000000602082015250565b6000614576602683613abb565b91506145818261451a565b604082019050919050565b600060208201905081810360008301526145a581614569565b9050919050565b7f416464726573733a2063616c6c20746f206e6f6e2d636f6e7472616374000000600082015250565b60006145e2601d83613abb565b91506145ed826145ac565b602082019050919050565b60006020820190508181036000830152614611816145d5565b9050919050565b600081519050919050565b600081905092915050565b60005b8381101561464c578082015181840152602081019050614631565b8381111561465b576000848401525b50505050565b600061466c82614618565b6146768185614623565b935061468681856020860161462e565b80840191505092915050565b600061469e8284614661565b915081905092915050565b600081519050919050565b60006146bf826146a9565b6146c98185613abb565b93506146d981856020860161462e565b6146e281613cc2565b840191505092915050565b6000602082019050818103600083015261470781846146b4565b90509291505056fea2646970667358221220dfb7c982222ebcf4a8219475f58c28ebf85c1d832618c893193c36e52e5235b864736f6c634300080b0033",
  "linkReferences": {},
  "deployedLinkReferences": {}
}