{
  "_format": "hh-sol-artifact-1",
  "contractName": "TradeFarming",
  "sourceName": "contracts/trade-farming/TradeFarmingTT.sol",
  "abi": [
    {
      "inputs": [
        {
          "internalType": "address",
          "name": "_routerAddress",
          "type": "address"
        },
        {
          "internalType": "address",
          "name": "_tokenAAddress",
          "type": "address"
        },
        {
          "internalType": "address",
          "name": "_tokenBAddress",
          "type": "address"
        },
        {
          "internalType": "address",
          "name": "_rewardAddress",
          "type": "address"
        },
        {
          "internalType": "uint256",
          "name": "_previousVolume",
          "type": "uint256"
        },
        {
          "internalType": "uint256",
          "name": "_previousDay",
          "type": "uint256"
        },
        {
          "internalType": "uint256",
          "name": "_totalDays",
          "type": "uint256"
        },
        {
          "internalType": "uint256",
          "name": "_upLimit",
          "type": "uint256"
        },
        {
          "internalType": "uint256",
          "name": "_downLimit",
          "type": "uint256"
        }
      ],
      "stateMutability": "nonpayable",
      "type": "constructor"
    },
    {
      "anonymous": false,
      "inputs": [
        {
          "indexed": true,
          "internalType": "address",
          "name": "previousOwner",
          "type": "address"
        },
        {
          "indexed": true,
          "internalType": "address",
          "name": "newOwner",
          "type": "address"
        }
      ],
      "name": "OwnershipTransferred",
      "type": "event"
    },
    {
      "anonymous": false,
      "inputs": [
        {
          "indexed": false,
          "internalType": "address",
          "name": "_user",
          "type": "address"
        },
        {
          "indexed": false,
          "internalType": "uint256",
          "name": "_amount",
          "type": "uint256"
        }
      ],
      "name": "RewardClaimed",
      "type": "event"
    },
    {
      "inputs": [],
      "name": "calcDay",
      "outputs": [
        {
          "internalType": "uint256",
          "name": "",
          "type": "uint256"
        }
      ],
      "stateMutability": "view",
      "type": "function"
    },
    {
      "inputs": [
        {
          "internalType": "uint256",
          "name": "day",
          "type": "uint256"
        }
      ],
      "name": "calculateDailyUserReward",
      "outputs": [
        {
          "internalType": "uint256",
          "name": "",
          "type": "uint256"
        }
      ],
      "stateMutability": "view",
      "type": "function"
    },
    {
      "inputs": [],
      "name": "calculateUserRewards",
      "outputs": [
        {
          "internalType": "uint256",
          "name": "",
          "type": "uint256"
        }
      ],
      "stateMutability": "view",
      "type": "function"
    },
    {
      "inputs": [
        {
          "internalType": "uint256",
          "name": "newTotalDays",
          "type": "uint256"
        }
      ],
      "name": "changeTotalDays",
      "outputs": [],
      "stateMutability": "nonpayable",
      "type": "function"
    },
    {
      "inputs": [],
      "name": "claimAllRewards",
      "outputs": [],
      "stateMutability": "nonpayable",
      "type": "function"
    },
    {
      "inputs": [
        {
          "internalType": "uint256",
          "name": "",
          "type": "uint256"
        }
      ],
      "name": "dailyRewards",
      "outputs": [
        {
          "internalType": "uint256",
          "name": "",
          "type": "uint256"
        }
      ],
      "stateMutability": "view",
      "type": "function"
    },
    {
      "inputs": [
        {
          "internalType": "uint256",
          "name": "",
          "type": "uint256"
        }
      ],
      "name": "dailyVolumes",
      "outputs": [
        {
          "internalType": "uint256",
          "name": "",
          "type": "uint256"
        }
      ],
      "stateMutability": "view",
      "type": "function"
    },
    {
      "inputs": [],
      "name": "deployTime",
      "outputs": [
        {
          "internalType": "uint256",
          "name": "",
          "type": "uint256"
        }
      ],
      "stateMutability": "view",
      "type": "function"
    },
    {
      "inputs": [
        {
          "internalType": "uint256",
          "name": "amount",
          "type": "uint256"
        }
      ],
      "name": "depositRewardTokens",
      "outputs": [],
      "stateMutability": "nonpayable",
      "type": "function"
    },
    {
      "inputs": [
        {
          "internalType": "uint256",
          "name": "amountOut",
          "type": "uint256"
        },
        {
          "internalType": "address[]",
          "name": "path",
          "type": "address[]"
        }
      ],
      "name": "getAmountsIn",
      "outputs": [
        {
          "internalType": "uint256[]",
          "name": "amounts",
          "type": "uint256[]"
        }
      ],
      "stateMutability": "view",
      "type": "function"
    },
    {
      "inputs": [
        {
          "internalType": "uint256",
          "name": "amountIn",
          "type": "uint256"
        },
        {
          "internalType": "address[]",
          "name": "path",
          "type": "address[]"
        }
      ],
      "name": "getAmountsOut",
      "outputs": [
        {
          "internalType": "uint256[]",
          "name": "amounts",
          "type": "uint256[]"
        }
      ],
      "stateMutability": "view",
      "type": "function"
    },
    {
      "inputs": [],
      "name": "isCalculated",
      "outputs": [
        {
          "internalType": "bool",
          "name": "",
          "type": "bool"
        }
      ],
      "stateMutability": "view",
      "type": "function"
    },
    {
      "inputs": [],
      "name": "lastAddedDay",
      "outputs": [
        {
          "internalType": "uint256",
          "name": "",
          "type": "uint256"
        }
      ],
      "stateMutability": "view",
      "type": "function"
    },
    {
      "inputs": [],
      "name": "owner",
      "outputs": [
        {
          "internalType": "address",
          "name": "",
          "type": "address"
        }
      ],
      "stateMutability": "view",
      "type": "function"
    },
    {
      "inputs": [
        {
          "internalType": "uint256",
          "name": "",
          "type": "uint256"
        }
      ],
      "name": "previousVolumes",
      "outputs": [
        {
          "internalType": "uint256",
          "name": "",
          "type": "uint256"
        }
      ],
      "stateMutability": "view",
      "type": "function"
    },
    {
      "inputs": [],
      "name": "renounceOwnership",
      "outputs": [],
      "stateMutability": "nonpayable",
      "type": "function"
    },
    {
      "inputs": [
        {
          "internalType": "uint256",
          "name": "amountIn",
          "type": "uint256"
        },
        {
          "internalType": "uint256",
          "name": "amountOutMin",
          "type": "uint256"
        },
        {
          "internalType": "address[]",
          "name": "path",
          "type": "address[]"
        },
        {
          "internalType": "address",
          "name": "to",
          "type": "address"
        },
        {
          "internalType": "uint256",
          "name": "deadline",
          "type": "uint256"
        }
      ],
      "name": "swapExactTokensForTokens",
      "outputs": [
        {
          "internalType": "uint256[]",
          "name": "out",
          "type": "uint256[]"
        }
      ],
      "stateMutability": "nonpayable",
      "type": "function"
    },
    {
      "inputs": [
        {
          "internalType": "uint256",
          "name": "amountOut",
          "type": "uint256"
        },
        {
          "internalType": "uint256",
          "name": "amountInMax",
          "type": "uint256"
        },
        {
          "internalType": "address[]",
          "name": "path",
          "type": "address[]"
        },
        {
          "internalType": "address",
          "name": "to",
          "type": "address"
        },
        {
          "internalType": "uint256",
          "name": "deadline",
          "type": "uint256"
        }
      ],
      "name": "swapTokensForExactTokens",
      "outputs": [
        {
          "internalType": "uint256[]",
          "name": "out",
          "type": "uint256[]"
        }
      ],
      "stateMutability": "nonpayable",
      "type": "function"
    },
    {
      "inputs": [],
      "name": "totalDays",
      "outputs": [
        {
          "internalType": "uint256",
          "name": "",
          "type": "uint256"
        }
      ],
      "stateMutability": "view",
      "type": "function"
    },
    {
      "inputs": [],
      "name": "totalRewardBalance",
      "outputs": [
        {
          "internalType": "uint256",
          "name": "",
          "type": "uint256"
        }
      ],
      "stateMutability": "view",
      "type": "function"
    },
    {
      "inputs": [
        {
          "internalType": "address",
          "name": "newOwner",
          "type": "address"
        }
      ],
      "name": "transferOwnership",
      "outputs": [],
      "stateMutability": "nonpayable",
      "type": "function"
    },
    {
      "inputs": [
        {
          "internalType": "address",
          "name": "",
          "type": "address"
        },
        {
          "internalType": "uint256",
          "name": "",
          "type": "uint256"
        }
      ],
      "name": "volumeRecords",
      "outputs": [
        {
          "internalType": "uint256",
          "name": "",
          "type": "uint256"
        }
      ],
      "stateMutability": "view",
      "type": "function"
    },
    {
      "inputs": [
        {
          "internalType": "uint256",
          "name": "amount",
          "type": "uint256"
        }
      ],
      "name": "withdrawRewardTokens",
      "outputs": [],
      "stateMutability": "nonpayable",
      "type": "function"
    }
  ],
  "bytecode": "0x60e06040523480156200001157600080fd5b5060405162002ab738038062002ab7833981016040819052620000349162000232565b6200003f33620001c5565b6001600160a01b038916158015906200006057506001600160a01b03881615155b80156200007557506001600160a01b03871615155b80156200008a57506001600160a01b03861615155b620000e65760405162461bcd60e51b815260206004820152602260248201527f5b5d204164647265737365732063616e206e6f74206265203020616464726573604482015261399760f11b606482015260840160405180910390fd5b42608052600180546001600160a01b03808c166001600160a01b031992831617909255600280548b8416908316179055600380548a841690831617905560048054928916929091169190911790556000805260056020527f05b8ccbb9d4d8fb16ea74ce3c29a41f1b461fbdaff4714a0d9a8eb05499746bc859055600c849055600b83905560646200018183670de0b6b3a7640000620002e0565b6200018d9190620002bf565b60a0526064620001a682670de0b6b3a7640000620002e0565b620001b29190620002bf565b60c052506200030c975050505050505050565b600080546001600160a01b038381166001600160a01b0319831681178455604051919092169283917f8be0079c531659141344cd1fd0a4f28419497f9722a3daafe3b4186f6b6457e09190a35050565b80516001600160a01b03811681146200022d57600080fd5b919050565b60008060008060008060008060006101208a8c03121562000251578485fd5b6200025c8a62000215565b98506200026c60208b0162000215565b97506200027c60408b0162000215565b96506200028c60608b0162000215565b955060808a0151945060a08a0151935060c08a0151925060e08a015191506101008a015190509295985092959850929598565b600082620002db57634e487b7160e01b81526012600452602481fd5b500490565b60008160001904831182151516156200030757634e487b7160e01b81526011600452602481fd5b500290565b60805160a05160c05161274a6200036d600039600081816114050152818161142e0152818161193e01526119670152600081816113a9015281816113d2015281816118e2015261190b01526000818161020e0152610d48015261274a6000f3fe608060405234801561001057600080fd5b506004361061014d5760003560e01c80637e2ca288116100c3578063b203dc601161007c578063b203dc60146102ae578063cb43b2dd146102ce578063ceb7f995146102e1578063d06ca61f14610301578063de2af4b014610314578063f2fde38b1461032c5761014d565b80637e2ca288146102305780638803dbee146102395780638acc36731461024c5780638da5cb5b14610255578063940ce8721461027057806394f557891461029b5761014d565b80631f924d86116101155780631f924d86146101b357806338ed1739146101d35780636572ca0c146101e6578063715018a6146101ee57806378fb427a146101f65780637a40624b146102095761014d565b8063078e36491461015257806307a779bc1461016e5780630b83a7271461017657806316c621e0146101805780631f00ca7414610193575b600080fd5b61015b600b5481565b6040519081526020015b60405180910390f35b61015b61033f565b61017e61046b565b005b61017e61018e36600461234c565b61079a565b6101a66101a136600461237c565b6107f6565b6040516101659190612496565b61015b6101c136600461234c565b60076020526000908152604090205481565b6101a66101e13660046123c6565b610889565b61015b610d3d565b61017e610d7c565b61017e61020436600461234c565b610db2565b61015b7f000000000000000000000000000000000000000000000000000000000000000081565b61015b600a5481565b6101a66102473660046123c6565b610de1565b61015b600d5481565b6000546040516001600160a01b039091168152602001610165565b61015b61027e366004612244565b600660209081526000928352604080842090915290825290205481565b61015b6102a936600461234c565b611309565b61015b6102bc36600461234c565b60086020526000908152604090205481565b61017e6102dc36600461234c565b6114ab565b61015b6102ef36600461234c565b60056020526000908152604090205481565b6101a661030f36600461237c565b611568565b61031c61159d565b6040519015158152602001610165565b61017e61033a36600461222a565b6115d9565b600080670de0b6b3a7640000815b33600090815260096020526040902061036590611671565b81101561046357600d543360009081526009602052604090206103889083611681565b1015610451573360009081526006602090815260408083206009909252822061040292906103b69085611681565b815260208082019290925260409081016000908120543382526009909352908120670de0b6b3a7640000916007916103ee9087611681565b81526020019081526020016000205461168d565b3360009081526009602052604081209193506104449184916008916104279086611681565b815260200190815260200160002054670de0b6b3a764000061168d565b61044e9084612633565b92505b8061045b816126cd565b91505061034d565b509091505090565b610473610d3d565b600d54610481906001612633565b111580156104935750600b54600d5414155b156104a0576104a0611807565b336000908152600960205260408120670de0b6b3a76400009082906104c490611671565b600d543360009081526009602052604090209192506104e39190611a63565b156104f6576104f360018261268a565b90505b60008167ffffffffffffffff81111561051f57634e487b7160e01b600052604160045260246000fd5b604051908082528060200260200182016040528015610548578160200160208202803683370190505b50905060005b8281101561062a57600d543360009081526009602052604090206105729083611681565b101561061857336000908152600660209081526040808320600990925282206105a092906103b69085611681565b3360009081526009602052604081209195506105c59186916008916104279086611681565b6105cf9086612633565b3360009081526009602052604090209095506105eb9082611681565b82828151811061060b57634e487b7160e01b600052603260045260246000fd5b6020026020010181815250505b80610622816126cd565b91505061054e565b5060005b828110156106f35761067b82828151811061065957634e487b7160e01b600052603260045260246000fd5b6020908102919091018101513360009081526009909252604090912090611a7b565b6106e15760405162461bcd60e51b815260206004820152602c60248201527f5b636c61696d416c6c526577617264735d20556e7375636365737366756c207360448201526b32ba1037b832b930ba34b7b760a11b60648201526084015b60405180910390fd5b806106eb816126cd565b91505061062e565b50600084116107445760405162461bcd60e51b815260206004820152601c60248201527f5b636c61696d416c6c526577617264735d204e6f20726577617264210000000060448201526064016106d8565b60045461075b906001600160a01b03163386611a87565b60408051338152602081018690527f106f923f993c2149d49b4255ff723acafa1f2d94393f561d3eda32ae348f7241910160405180910390a150505050565b6000546001600160a01b031633146107c45760405162461bcd60e51b81526004016106d89061259d565b80600a60008282546107d69190612633565b90915550506004546107f3906001600160a01b0316333084611aea565b50565b6001546040516307c0329d60e21b81526060916001600160a01b031690631f00ca749061082b908790879087906004016125d2565b60006040518083038186803b15801561084357600080fd5b505afa158015610857573d6000803e3d6000fd5b505050506040513d6000823e601f3d908101601f1916820160405261087f919081019061226d565b90505b9392505050565b6002546060906000906001600160a01b0316868683816108b957634e487b7160e01b600052603260045260246000fd5b90506020020160208101906108ce919061222a565b6001600160a01b03161415610956576003546001600160a01b031686866108f660018261268a565b81811061091357634e487b7160e01b600052603260045260246000fd5b9050602002016020810190610928919061222a565b6001600160a01b03161461094e5760405162461bcd60e51b81526004016106d89061250d565b506000610a40565b6003546001600160a01b0316868660008161098157634e487b7160e01b600052603260045260246000fd5b9050602002016020810190610996919061222a565b6001600160a01b03161415610a28576002546001600160a01b031686866109be60018261268a565b8181106109db57634e487b7160e01b600052603260045260246000fd5b90506020020160208101906109f0919061222a565b6001600160a01b031614610a165760405162461bcd60e51b81526004016106d89061250d565b610a2160018661268a565b9050610a40565b60405162461bcd60e51b81526004016106d89061250d565b610a60610a4b610d3d565b33600090815260096020526040902090611a63565b158015610a755750600b54610a73610d3d565b105b15610b0457610a9a610a85610d3d565b33600090815260096020526040902090611b28565b610b045760405162461bcd60e51b815260206004820152603560248201527f5b737761704578616374546f6b656e73466f72546f6b656e735d20556e73756360448201527431b2b9b9b33ab61039b2ba1037b832b930ba34b7b760591b60648201526084016106d8565b610b5033308a898986818110610b2a57634e487b7160e01b600052603260045260246000fd5b9050602002016020810190610b3f919061222a565b6001600160a01b0316929190611aea565b600154610ba6906001600160a01b031689888885818110610b8157634e487b7160e01b600052603260045260246000fd5b9050602002016020810190610b96919061222a565b6001600160a01b03169190611b34565b80610c5757600b54600d5414610bbf57610bbf88611bf5565b6001546040516338ed173960e01b81526001600160a01b03909116906338ed173990610bf9908b908b908b908b908b908b906004016125f5565b600060405180830381600087803b158015610c1357600080fd5b505af1158015610c27573d6000803e3d6000fd5b505050506040513d6000823e601f3d908101601f19168201604052610c4f919081019061226d565b915050610d33565b6001546040516338ed173960e01b81526001600160a01b03909116906338ed173990610c91908b908b908b908b908b908b906004016125f5565b600060405180830381600087803b158015610cab57600080fd5b505af1158015610cbf573d6000803e3d6000fd5b505050506040513d6000823e601f3d908101601f19168201604052610ce7919081019061226d565b9150600b54600d5414610d3157610d318260018451610d06919061268a565b81518110610d2457634e487b7160e01b600052603260045260246000fd5b6020026020010151611bf5565b505b9695505050505050565b600062015180610d6d7f00000000000000000000000000000000000000000000000000000000000000004261268a565b610d77919061264b565b905090565b6000546001600160a01b03163314610da65760405162461bcd60e51b81526004016106d89061259d565b610db06000611ca7565b565b6000546001600160a01b03163314610ddc5760405162461bcd60e51b81526004016106d89061259d565b600b55565b6002546060906000906001600160a01b031686868381610e1157634e487b7160e01b600052603260045260246000fd5b9050602002016020810190610e26919061222a565b6001600160a01b03161415610eae576003546001600160a01b03168686610e4e60018261268a565b818110610e6b57634e487b7160e01b600052603260045260246000fd5b9050602002016020810190610e80919061222a565b6001600160a01b031614610ea65760405162461bcd60e51b81526004016106d890612555565b506000610f98565b6003546001600160a01b03168686600081610ed957634e487b7160e01b600052603260045260246000fd5b9050602002016020810190610eee919061222a565b6001600160a01b03161415610f80576002546001600160a01b03168686610f1660018261268a565b818110610f3357634e487b7160e01b600052603260045260246000fd5b9050602002016020810190610f48919061222a565b6001600160a01b031614610f6e5760405162461bcd60e51b81526004016106d890612555565b610f7960018661268a565b9050610f98565b60405162461bcd60e51b81526004016106d890612555565b610fa3610a4b610d3d565b158015610fb85750600b54610fb6610d3d565b105b1561103257610fc8610a85610d3d565b6110325760405162461bcd60e51b815260206004820152603560248201527f5b73776170546f6b656e73466f724578616374546f6b656e735d20556e73756360448201527431b2b9b9b33ab61039b2ba1037b832b930ba34b7b760591b60648201526084016106d8565b6001546040516307c0329d60e21b815261110991339130916001600160a01b031690631f00ca749061106c908e908d908d906004016125d2565b60006040518083038186803b15801561108457600080fd5b505afa158015611098573d6000803e3d6000fd5b505050506040513d6000823e601f3d908101601f191682016040526110c0919081019061226d565b6000815181106110e057634e487b7160e01b600052603260045260246000fd5b602002602001015189896000818110610b2a57634e487b7160e01b600052603260045260246000fd5b600154611139906001600160a01b0316888888600081610b8157634e487b7160e01b600052603260045260246000fd5b8061120457600154604051632512eca560e11b81526001600160a01b0390911690634a25d94a90611178908b908b908b908b908b908b906004016125f5565b600060405180830381600087803b15801561119257600080fd5b505af11580156111a6573d6000803e3d6000fd5b505050506040513d6000823e601f3d908101601f191682016040526111ce919081019061226d565b9150600b54600d54146111ff576111ff82600081518110610d2457634e487b7160e01b600052603260045260246000fd5b611218565b600b54600d54146112185761121888611bf5565b60015461126d906001600160a01b031660008888828161124857634e487b7160e01b600052603260045260246000fd5b905060200201602081019061125d919061222a565b6001600160a01b03169190611cf7565b600154604051632512eca560e11b81526001600160a01b0390911690634a25d94a906112a7908b908b908b908b908b908b906004016125f5565b600060405180830381600087803b1580156112c157600080fd5b505af11580156112d5573d6000803e3d6000fd5b505050506040513d6000823e601f3d908101601f191682016040526112fd919081019061226d565b50509695505050505050565b3360009081526009602052604081208190670de0b6b3a76400009061132e9085611a63565b156114a25733600090815260066020908152604080832087845282528083205460079092529091205461136b9190670de0b6b3a76400009061168d565b90506000600d5485101561138e5750600084815260086020526040902054611481565b600d548514156114815760006113a5600d54611e1b565b90507f00000000000000000000000000000000000000000000000000000000000000008111156113f657507f000000000000000000000000000000000000000000000000000000000000000061144e565b806114035750600061144e565b7f000000000000000000000000000000000000000000000000000000000000000081101561144e57507f00000000000000000000000000000000000000000000000000000000000000005b61147d600d54600b54611461919061268a565b600a5461146e919061264b565b82670de0b6b3a764000061168d565b9150505b6114948282670de0b6b3a764000061168d565b61149e9084612633565b9250505b5090505b919050565b6000546001600160a01b031633146114d55760405162461bcd60e51b81526004016106d89061259d565b80600a54101561153a5760405162461bcd60e51b815260206004820152602a60248201527f5b7769746864726177526577617264546f6b656e735d204e6f7420656e6f7567604482015269682062616c616e63652160b01b60648201526084016106d8565b80600a600082825461154c919061268a565b90915550506004546107f3906001600160a01b03163383611a87565b60015460405163d06ca61f60e01b81526060916001600160a01b03169063d06ca61f9061082b908790879087906004016125d2565b60006115a7610d3d565b600d546115b5906001612633565b111580156115c75750600b54600d5414155b1580610d77575050600b54600d541490565b6000546001600160a01b031633146116035760405162461bcd60e51b81526004016106d89061259d565b6001600160a01b0381166116685760405162461bcd60e51b815260206004820152602660248201527f4f776e61626c653a206e6577206f776e657220697320746865207a65726f206160448201526564647265737360d01b60648201526084016106d8565b6107f381611ca7565b600061167b825490565b92915050565b60006108828383611e49565b600080821161169b57600080fd5b60008060001985870985870292508281108382030391505080600014156116c757508290049050610882565b8381106116d357600080fd5b60008486880980840393811190920391905060006116f386196001612633565b8616958690049593849004936000819003046001019050611714818461266b565b90931792600061172587600361266b565b6002189050611734818861266b565b61173f90600261268a565b611749908261266b565b9050611755818861266b565b61176090600261268a565b61176a908261266b565b9050611776818861266b565b61178190600261268a565b61178b908261266b565b9050611797818861266b565b6117a290600261268a565b6117ac908261266b565b90506117b8818861266b565b6117c390600261268a565b6117cd908261266b565b90506117d9818861266b565b6117e490600261268a565b6117ee908261266b565b90506117fa818661266b565b9998505050505050505050565b6000611811610d3d565b90506000600d54600c546118259190612633565b611830906001612633565b905081600d5460016118429190612633565b111561185e57634e487b7160e01b600052600160045260246000fd5b600d5460009081526007602052604090205461187b90829061264b565b600d546000908152600560205260409020546118a29061189c60018561268a565b8461168d565b6118ac9190612633565b60056000600d5460016118bf9190612633565b81526020019081526020016000208190555060006118de600d54611e1b565b90507f000000000000000000000000000000000000000000000000000000000000000081111561192f57507f0000000000000000000000000000000000000000000000000000000000000000611987565b8061193c57506000611987565b7f000000000000000000000000000000000000000000000000000000000000000081101561198757507f00000000000000000000000000000000000000000000000000000000000000005b6001600b54611996919061268a565b600d541480156119ad5750670de0b6b3a764000081115b156119cc57600a54600d546000908152600860205260409020556119f2565b6119df600d54600b54611461919061268a565b600d546000908152600860205260409020555b600d54600090815260086020526040902054600a54611a11919061268a565b600a819055506001600d6000828254611a2a9190612633565b9091555050600d548390611a3f906001612633565b11158015611a515750600b54600d5414155b15611a5e57611a5e611807565b505050565b60008181526001830160205260408120541515610882565b60006108828383611e81565b6040516001600160a01b038316602482015260448101829052611a5e90849063a9059cbb60e01b906064015b60408051601f198184030181529190526020810180516001600160e01b03166001600160e01b031990931692909217909152611f9e565b6040516001600160a01b0380851660248301528316604482015260648101829052611b229085906323b872dd60e01b90608401611ab3565b50505050565b60006108828383612070565b604051636eb1769f60e11b81523060048201526001600160a01b038381166024830152600091839186169063dd62ed3e9060440160206040518083038186803b158015611b8057600080fd5b505afa158015611b94573d6000803e3d6000fd5b505050506040513d601f19601f82011682018060405250810190611bb89190612364565b611bc29190612633565b6040516001600160a01b038516602482015260448101829052909150611b2290859063095ea7b360e01b90606401611ab3565b600b54611c00610d3d565b1015611c72573360009081526006602052604081208291611c1f610d3d565b81526020019081526020016000206000828254611c3c9190612633565b9091555081905060076000611c4f610d3d565b81526020019081526020016000206000828254611c6c9190612633565b90915550505b611c7a610d3d565b600d54611c88906001612633565b11158015611c9a5750600b54600d5414155b156107f3576107f3611807565b600080546001600160a01b038381166001600160a01b0319831681178455604051919092169283917f8be0079c531659141344cd1fd0a4f28419497f9722a3daafe3b4186f6b6457e09190a35050565b801580611d805750604051636eb1769f60e11b81523060048201526001600160a01b03838116602483015284169063dd62ed3e9060440160206040518083038186803b158015611d4657600080fd5b505afa158015611d5a573d6000803e3d6000fd5b505050506040513d601f19601f82011682018060405250810190611d7e9190612364565b155b611deb5760405162461bcd60e51b815260206004820152603660248201527f5361666545524332303a20617070726f76652066726f6d206e6f6e2d7a65726f60448201527520746f206e6f6e2d7a65726f20616c6c6f77616e636560501b60648201526084016106d8565b6040516001600160a01b038316602482015260448101829052611a5e90849063095ea7b360e01b90606401611ab3565b600081815260076020908152604080832054600590925282205461167b9190670de0b6b3a76400009061168d565b6000826000018281548110611e6e57634e487b7160e01b600052603260045260246000fd5b9060005260206000200154905092915050565b60008181526001830160205260408120548015611f94576000611ea560018361268a565b8554909150600090611eb99060019061268a565b9050818114611f3a576000866000018281548110611ee757634e487b7160e01b600052603260045260246000fd5b9060005260206000200154905080876000018481548110611f1857634e487b7160e01b600052603260045260246000fd5b6000918252602080832090910192909255918252600188019052604090208390555b8554869080611f5957634e487b7160e01b600052603160045260246000fd5b60019003818190600052602060002001600090559055856001016000868152602001908152602001600020600090556001935050505061167b565b600091505061167b565b6000611ff3826040518060400160405280602081526020017f5361666545524332303a206c6f772d6c6576656c2063616c6c206661696c6564815250856001600160a01b03166120bf9092919063ffffffff16565b805190915015611a5e5780806020019051810190612011919061232c565b611a5e5760405162461bcd60e51b815260206004820152602a60248201527f5361666545524332303a204552433230206f7065726174696f6e20646964206e6044820152691bdd081cdd58d8d9595960b21b60648201526084016106d8565b60008181526001830160205260408120546120b75750815460018181018455600084815260208082209093018490558454848252828601909352604090209190915561167b565b50600061167b565b606061087f848460008585843b6121185760405162461bcd60e51b815260206004820152601d60248201527f416464726573733a2063616c6c20746f206e6f6e2d636f6e747261637400000060448201526064016106d8565b600080866001600160a01b03168587604051612134919061247a565b60006040518083038185875af1925050503d8060008114612171576040519150601f19603f3d011682016040523d82523d6000602084013e612176565b606091505b5091509150612186828286612191565b979650505050505050565b606083156121a0575081610882565b8251156121b05782518084602001fd5b8160405162461bcd60e51b81526004016106d891906124da565b80356001600160a01b03811681146114a657600080fd5b60008083601f8401126121f2578081fd5b50813567ffffffffffffffff811115612209578182fd5b602083019150836020808302850101111561222357600080fd5b9250929050565b60006020828403121561223b578081fd5b610882826121ca565b60008060408385031215612256578081fd5b61225f836121ca565b946020939093013593505050565b6000602080838503121561227f578182fd5b825167ffffffffffffffff80821115612296578384fd5b818501915085601f8301126122a9578384fd5b8151818111156122bb576122bb6126fe565b838102604051601f19603f830116810181811085821117156122df576122df6126fe565b604052828152858101935084860182860187018a10156122fd578788fd5b8795505b8386101561231f578051855260019590950194938601938601612301565b5098975050505050505050565b60006020828403121561233d578081fd5b81518015158114610882578182fd5b60006020828403121561235d578081fd5b5035919050565b600060208284031215612375578081fd5b5051919050565b600080600060408486031215612390578081fd5b83359250602084013567ffffffffffffffff8111156123ad578182fd5b6123b9868287016121e1565b9497909650939450505050565b60008060008060008060a087890312156123de578182fd5b8635955060208701359450604087013567ffffffffffffffff811115612402578283fd5b61240e89828a016121e1565b90955093506124219050606088016121ca565b9150608087013590509295509295509295565b60008284526020808501945082825b8581101561246f576001600160a01b0361245c836121ca565b1687529582019590820190600101612443565b509495945050505050565b6000825161248c8184602087016126a1565b9190910192915050565b6020808252825182820181905260009190848201906040850190845b818110156124ce578351835292840192918401916001016124b2565b50909695505050505050565b60006020825282518060208401526124f98160408501602087016126a1565b601f01601f19169190910160400192915050565b60208082526028908201527f5b737761704578616374546f6b656e73466f72546f6b656e735d20496e76616c604082015267696420506174682160c01b606082015260800190565b60208082526028908201527f5b73776170546f6b656e73466f724578616374546f6b656e735d20496e76616c604082015267696420506174682160c01b606082015260800190565b6020808252818101527f4f776e61626c653a2063616c6c6572206973206e6f7420746865206f776e6572604082015260600190565b6000848252604060208301526125ec604083018486612434565b95945050505050565b600087825286602083015260a0604083015261261560a083018688612434565b6001600160a01b039490941660608301525060800152949350505050565b60008219821115612646576126466126e8565b500190565b60008261266657634e487b7160e01b81526012600452602481fd5b500490565b6000816000190483118215151615612685576126856126e8565b500290565b60008282101561269c5761269c6126e8565b500390565b60005b838110156126bc5781810151838201526020016126a4565b83811115611b225750506000910152565b60006000198214156126e1576126e16126e8565b5060010190565b634e487b7160e01b600052601160045260246000fd5b634e487b7160e01b600052604160045260246000fdfea2646970667358221220ba52b753f0b6505ff662ec2464b759257667fd95cbe87c6f67b3f4b80e2c7ac964736f6c63430008020033",
  "linkReferences": {},
  "deployedLinkReferences": {}
}