{
  "_format": "hh-sol-artifact-1",
  "contractName": "TradeFarming",
  "sourceName": "contracts/trade-farming/TradeFarmingTT.sol",
  "abi": [
    {
      "inputs": [
        {
          "internalType": "address",
          "name": "_routerAddress",
          "type": "address"
        },
        {
          "internalType": "address",
          "name": "_tokenAAddress",
          "type": "address"
        },
        {
          "internalType": "address",
          "name": "_tokenBAddress",
          "type": "address"
        },
        {
          "internalType": "address",
          "name": "_rewardAddress",
          "type": "address"
        },
        {
          "internalType": "uint256",
          "name": "_previousVolume",
          "type": "uint256"
        },
        {
          "internalType": "uint256",
          "name": "_previousDay",
          "type": "uint256"
        },
        {
          "internalType": "uint256",
          "name": "_totalDays",
          "type": "uint256"
        },
        {
          "internalType": "uint256",
          "name": "_upLimit",
          "type": "uint256"
        },
        {
          "internalType": "uint256",
          "name": "_downLimit",
          "type": "uint256"
        }
      ],
      "stateMutability": "nonpayable",
      "type": "constructor"
    },
    {
      "anonymous": false,
      "inputs": [
        {
          "indexed": true,
          "internalType": "address",
          "name": "previousOwner",
          "type": "address"
        },
        {
          "indexed": true,
          "internalType": "address",
          "name": "newOwner",
          "type": "address"
        }
      ],
      "name": "OwnershipTransferred",
      "type": "event"
    },
    {
      "anonymous": false,
      "inputs": [
        {
          "indexed": false,
          "internalType": "address",
          "name": "_user",
          "type": "address"
        },
        {
          "indexed": false,
          "internalType": "uint256",
          "name": "_amount",
          "type": "uint256"
        }
      ],
      "name": "RewardClaimed",
      "type": "event"
    },
    {
      "inputs": [],
      "name": "calcDay",
      "outputs": [
        {
          "internalType": "uint256",
          "name": "",
          "type": "uint256"
        }
      ],
      "stateMutability": "view",
      "type": "function"
    },
    {
      "inputs": [
        {
          "internalType": "uint256",
          "name": "day",
          "type": "uint256"
        }
      ],
      "name": "calculateDailyUserReward",
      "outputs": [
        {
          "internalType": "uint256",
          "name": "",
          "type": "uint256"
        }
      ],
      "stateMutability": "view",
      "type": "function"
    },
    {
      "inputs": [],
      "name": "calculateUserRewards",
      "outputs": [
        {
          "internalType": "uint256",
          "name": "",
          "type": "uint256"
        }
      ],
      "stateMutability": "view",
      "type": "function"
    },
    {
      "inputs": [
        {
          "internalType": "uint256",
          "name": "newTotalDays",
          "type": "uint256"
        }
      ],
      "name": "changeTotalDays",
      "outputs": [],
      "stateMutability": "nonpayable",
      "type": "function"
    },
    {
      "inputs": [],
      "name": "claimAllRewards",
      "outputs": [],
      "stateMutability": "nonpayable",
      "type": "function"
    },
    {
      "inputs": [
        {
          "internalType": "uint256",
          "name": "",
          "type": "uint256"
        }
      ],
      "name": "dailyRewards",
      "outputs": [
        {
          "internalType": "uint256",
          "name": "",
          "type": "uint256"
        }
      ],
      "stateMutability": "view",
      "type": "function"
    },
    {
      "inputs": [
        {
          "internalType": "uint256",
          "name": "",
          "type": "uint256"
        }
      ],
      "name": "dailyVolumes",
      "outputs": [
        {
          "internalType": "uint256",
          "name": "",
          "type": "uint256"
        }
      ],
      "stateMutability": "view",
      "type": "function"
    },
    {
      "inputs": [],
      "name": "deployTime",
      "outputs": [
        {
          "internalType": "uint256",
          "name": "",
          "type": "uint256"
        }
      ],
      "stateMutability": "view",
      "type": "function"
    },
    {
      "inputs": [
        {
          "internalType": "uint256",
          "name": "amount",
          "type": "uint256"
        }
      ],
      "name": "depositRewardTokens",
      "outputs": [],
      "stateMutability": "nonpayable",
      "type": "function"
    },
    {
      "inputs": [
        {
          "internalType": "uint256",
          "name": "amountOut",
          "type": "uint256"
        },
        {
          "internalType": "address[]",
          "name": "path",
          "type": "address[]"
        }
      ],
      "name": "getAmountsIn",
      "outputs": [
        {
          "internalType": "uint256[]",
          "name": "amounts",
          "type": "uint256[]"
        }
      ],
      "stateMutability": "view",
      "type": "function"
    },
    {
      "inputs": [
        {
          "internalType": "uint256",
          "name": "amountIn",
          "type": "uint256"
        },
        {
          "internalType": "address[]",
          "name": "path",
          "type": "address[]"
        }
      ],
      "name": "getAmountsOut",
      "outputs": [
        {
          "internalType": "uint256[]",
          "name": "amounts",
          "type": "uint256[]"
        }
      ],
      "stateMutability": "view",
      "type": "function"
    },
    {
      "inputs": [],
      "name": "isCalculated",
      "outputs": [
        {
          "internalType": "bool",
          "name": "",
          "type": "bool"
        }
      ],
      "stateMutability": "view",
      "type": "function"
    },
    {
      "inputs": [],
      "name": "lastAddedDay",
      "outputs": [
        {
          "internalType": "uint256",
          "name": "",
          "type": "uint256"
        }
      ],
      "stateMutability": "view",
      "type": "function"
    },
    {
      "inputs": [],
      "name": "owner",
      "outputs": [
        {
          "internalType": "address",
          "name": "",
          "type": "address"
        }
      ],
      "stateMutability": "view",
      "type": "function"
    },
    {
      "inputs": [
        {
          "internalType": "uint256",
          "name": "",
          "type": "uint256"
        }
      ],
      "name": "previousVolumes",
      "outputs": [
        {
          "internalType": "uint256",
          "name": "",
          "type": "uint256"
        }
      ],
      "stateMutability": "view",
      "type": "function"
    },
    {
      "inputs": [],
      "name": "renounceOwnership",
      "outputs": [],
      "stateMutability": "nonpayable",
      "type": "function"
    },
    {
      "inputs": [
        {
          "internalType": "uint256",
          "name": "amountIn",
          "type": "uint256"
        },
        {
          "internalType": "uint256",
          "name": "amountOutMin",
          "type": "uint256"
        },
        {
          "internalType": "address[]",
          "name": "path",
          "type": "address[]"
        },
        {
          "internalType": "address",
          "name": "to",
          "type": "address"
        },
        {
          "internalType": "uint256",
          "name": "deadline",
          "type": "uint256"
        }
      ],
      "name": "swapExactTokensForTokens",
      "outputs": [
        {
          "internalType": "uint256[]",
          "name": "out",
          "type": "uint256[]"
        }
      ],
      "stateMutability": "nonpayable",
      "type": "function"
    },
    {
      "inputs": [
        {
          "internalType": "uint256",
          "name": "amountOut",
          "type": "uint256"
        },
        {
          "internalType": "uint256",
          "name": "amountInMax",
          "type": "uint256"
        },
        {
          "internalType": "address[]",
          "name": "path",
          "type": "address[]"
        },
        {
          "internalType": "address",
          "name": "to",
          "type": "address"
        },
        {
          "internalType": "uint256",
          "name": "deadline",
          "type": "uint256"
        }
      ],
      "name": "swapTokensForExactTokens",
      "outputs": [
        {
          "internalType": "uint256[]",
          "name": "out",
          "type": "uint256[]"
        }
      ],
      "stateMutability": "nonpayable",
      "type": "function"
    },
    {
      "inputs": [],
      "name": "totalDays",
      "outputs": [
        {
          "internalType": "uint256",
          "name": "",
          "type": "uint256"
        }
      ],
      "stateMutability": "view",
      "type": "function"
    },
    {
      "inputs": [],
      "name": "totalRewardBalance",
      "outputs": [
        {
          "internalType": "uint256",
          "name": "",
          "type": "uint256"
        }
      ],
      "stateMutability": "view",
      "type": "function"
    },
    {
      "inputs": [
        {
          "internalType": "address",
          "name": "newOwner",
          "type": "address"
        }
      ],
      "name": "transferOwnership",
      "outputs": [],
      "stateMutability": "nonpayable",
      "type": "function"
    },
    {
      "inputs": [
        {
          "internalType": "address",
          "name": "",
          "type": "address"
        },
        {
          "internalType": "uint256",
          "name": "",
          "type": "uint256"
        }
      ],
      "name": "volumeRecords",
      "outputs": [
        {
          "internalType": "uint256",
          "name": "",
          "type": "uint256"
        }
      ],
      "stateMutability": "view",
      "type": "function"
    },
    {
      "inputs": [
        {
          "internalType": "uint256",
          "name": "amount",
          "type": "uint256"
        }
      ],
      "name": "withdrawRewardTokens",
      "outputs": [],
      "stateMutability": "nonpayable",
      "type": "function"
    }
  ],
  "bytecode": "0x60e06040523480156200001157600080fd5b5060405162002aad38038062002aad833981016040819052620000349162000232565b6200003f33620001c5565b6001600160a01b038916158015906200006057506001600160a01b03881615155b80156200007557506001600160a01b03871615155b80156200008a57506001600160a01b03861615155b620000e65760405162461bcd60e51b815260206004820152602260248201527f5b5d204164647265737365732063616e206e6f74206265203020616464726573604482015261399760f11b606482015260840160405180910390fd5b42608052600180546001600160a01b03808c166001600160a01b031992831617909255600280548b8416908316179055600380548a841690831617905560048054928916929091169190911790556000805260056020527f05b8ccbb9d4d8fb16ea74ce3c29a41f1b461fbdaff4714a0d9a8eb05499746bc859055600c849055600b83905560646200018183670de0b6b3a7640000620002e0565b6200018d9190620002bf565b60a0526064620001a682670de0b6b3a7640000620002e0565b620001b29190620002bf565b60c052506200030c975050505050505050565b600080546001600160a01b038381166001600160a01b0319831681178455604051919092169283917f8be0079c531659141344cd1fd0a4f28419497f9722a3daafe3b4186f6b6457e09190a35050565b80516001600160a01b03811681146200022d57600080fd5b919050565b60008060008060008060008060006101208a8c03121562000251578485fd5b6200025c8a62000215565b98506200026c60208b0162000215565b97506200027c60408b0162000215565b96506200028c60608b0162000215565b955060808a0151945060a08a0151935060c08a0151925060e08a015191506101008a015190509295985092959850929598565b600082620002db57634e487b7160e01b81526012600452602481fd5b500490565b60008160001904831182151516156200030757634e487b7160e01b81526011600452602481fd5b500290565b60805160a05160c0516127406200036d600039600081816113fb0152818161142401528181611934015261195d01526000818161139f015281816113c8015281816118d8015261190101526000818161020e0152610d4801526127406000f3fe608060405234801561001057600080fd5b506004361061014d5760003560e01c80637e2ca288116100c3578063b203dc601161007c578063b203dc60146102ae578063cb43b2dd146102ce578063ceb7f995146102e1578063d06ca61f14610301578063de2af4b014610314578063f2fde38b1461032c5761014d565b80637e2ca288146102305780638803dbee146102395780638acc36731461024c5780638da5cb5b14610255578063940ce8721461027057806394f557891461029b5761014d565b80631f924d86116101155780631f924d86146101b357806338ed1739146101d35780636572ca0c146101e6578063715018a6146101ee57806378fb427a146101f65780637a40624b146102095761014d565b8063078e36491461015257806307a779bc1461016e5780630b83a7271461017657806316c621e0146101805780631f00ca7414610193575b600080fd5b61015b600b5481565b6040519081526020015b60405180910390f35b61015b61033f565b61017e61046b565b005b61017e61018e366004612342565b61079a565b6101a66101a1366004612372565b6107f6565b604051610165919061248c565b61015b6101c1366004612342565b60076020526000908152604090205481565b6101a66101e13660046123bc565b610889565b61015b610d3d565b61017e610d7c565b61017e610204366004612342565b610db2565b61015b7f000000000000000000000000000000000000000000000000000000000000000081565b61015b600a5481565b6101a66102473660046123bc565b610de1565b61015b600d5481565b6000546040516001600160a01b039091168152602001610165565b61015b61027e36600461223a565b600660209081526000928352604080842090915290825290205481565b61015b6102a9366004612342565b6112ff565b61015b6102bc366004612342565b60086020526000908152604090205481565b61017e6102dc366004612342565b6114a1565b61015b6102ef366004612342565b60056020526000908152604090205481565b6101a661030f366004612372565b61155e565b61031c611593565b6040519015158152602001610165565b61017e61033a366004612220565b6115cf565b600080670de0b6b3a7640000815b33600090815260096020526040902061036590611667565b81101561046357600d543360009081526009602052604090206103889083611677565b1015610451573360009081526006602090815260408083206009909252822061040292906103b69085611677565b815260208082019290925260409081016000908120543382526009909352908120670de0b6b3a7640000916007916103ee9087611677565b815260200190815260200160002054611683565b3360009081526009602052604081209193506104449184916008916104279086611677565b815260200190815260200160002054670de0b6b3a7640000611683565b61044e9084612629565b92505b8061045b816126c3565b91505061034d565b509091505090565b610473610d3d565b600d54610481906001612629565b111580156104935750600b54600d5414155b156104a0576104a06117fd565b336000908152600960205260408120670de0b6b3a76400009082906104c490611667565b600d543360009081526009602052604090209192506104e39190611a59565b156104f6576104f3600182612680565b90505b60008167ffffffffffffffff81111561051f57634e487b7160e01b600052604160045260246000fd5b604051908082528060200260200182016040528015610548578160200160208202803683370190505b50905060005b8281101561062a57600d543360009081526009602052604090206105729083611677565b101561061857336000908152600660209081526040808320600990925282206105a092906103b69085611677565b3360009081526009602052604081209195506105c59186916008916104279086611677565b6105cf9086612629565b3360009081526009602052604090209095506105eb9082611677565b82828151811061060b57634e487b7160e01b600052603260045260246000fd5b6020026020010181815250505b80610622816126c3565b91505061054e565b5060005b828110156106f35761067b82828151811061065957634e487b7160e01b600052603260045260246000fd5b6020908102919091018101513360009081526009909252604090912090611a71565b6106e15760405162461bcd60e51b815260206004820152602c60248201527f5b636c61696d416c6c526577617264735d20556e7375636365737366756c207360448201526b32ba1037b832b930ba34b7b760a11b60648201526084015b60405180910390fd5b806106eb816126c3565b91505061062e565b50600084116107445760405162461bcd60e51b815260206004820152601c60248201527f5b636c61696d416c6c526577617264735d204e6f20726577617264210000000060448201526064016106d8565b60045461075b906001600160a01b03163386611a7d565b60408051338152602081018690527f106f923f993c2149d49b4255ff723acafa1f2d94393f561d3eda32ae348f7241910160405180910390a150505050565b6000546001600160a01b031633146107c45760405162461bcd60e51b81526004016106d890612593565b80600a60008282546107d69190612629565b90915550506004546107f3906001600160a01b0316333084611ae0565b50565b6001546040516307c0329d60e21b81526060916001600160a01b031690631f00ca749061082b908790879087906004016125c8565b60006040518083038186803b15801561084357600080fd5b505afa158015610857573d6000803e3d6000fd5b505050506040513d6000823e601f3d908101601f1916820160405261087f9190810190612263565b90505b9392505050565b6002546060906000906001600160a01b0316868683816108b957634e487b7160e01b600052603260045260246000fd5b90506020020160208101906108ce9190612220565b6001600160a01b03161415610956576003546001600160a01b031686866108f6600182612680565b81811061091357634e487b7160e01b600052603260045260246000fd5b90506020020160208101906109289190612220565b6001600160a01b03161461094e5760405162461bcd60e51b81526004016106d890612503565b506000610a40565b6003546001600160a01b0316868660008161098157634e487b7160e01b600052603260045260246000fd5b90506020020160208101906109969190612220565b6001600160a01b03161415610a28576002546001600160a01b031686866109be600182612680565b8181106109db57634e487b7160e01b600052603260045260246000fd5b90506020020160208101906109f09190612220565b6001600160a01b031614610a165760405162461bcd60e51b81526004016106d890612503565b610a21600186612680565b9050610a40565b60405162461bcd60e51b81526004016106d890612503565b610a60610a4b610d3d565b33600090815260096020526040902090611a59565b158015610a755750600b54610a73610d3d565b105b15610b0457610a9a610a85610d3d565b33600090815260096020526040902090611b1e565b610b045760405162461bcd60e51b815260206004820152603560248201527f5b737761704578616374546f6b656e73466f72546f6b656e735d20556e73756360448201527431b2b9b9b33ab61039b2ba1037b832b930ba34b7b760591b60648201526084016106d8565b610b5133308a89896000818110610b2b57634e487b7160e01b600052603260045260246000fd5b9050602002016020810190610b409190612220565b6001600160a01b0316929190611ae0565b600154610ba6906001600160a01b0316898888600081610b8157634e487b7160e01b600052603260045260246000fd5b9050602002016020810190610b969190612220565b6001600160a01b03169190611b2a565b80610c5757600b54600d5414610bbf57610bbf88611beb565b6001546040516338ed173960e01b81526001600160a01b03909116906338ed173990610bf9908b908b908b908b908b908b906004016125eb565b600060405180830381600087803b158015610c1357600080fd5b505af1158015610c27573d6000803e3d6000fd5b505050506040513d6000823e601f3d908101601f19168201604052610c4f9190810190612263565b915050610d33565b6001546040516338ed173960e01b81526001600160a01b03909116906338ed173990610c91908b908b908b908b908b908b906004016125eb565b600060405180830381600087803b158015610cab57600080fd5b505af1158015610cbf573d6000803e3d6000fd5b505050506040513d6000823e601f3d908101601f19168201604052610ce79190810190612263565b9150600b54600d5414610d3157610d318260018451610d069190612680565b81518110610d2457634e487b7160e01b600052603260045260246000fd5b6020026020010151611beb565b505b9695505050505050565b600062015180610d6d7f000000000000000000000000000000000000000000000000000000000000000042612680565b610d779190612641565b905090565b6000546001600160a01b03163314610da65760405162461bcd60e51b81526004016106d890612593565b610db06000611c9d565b565b6000546001600160a01b03163314610ddc5760405162461bcd60e51b81526004016106d890612593565b600b55565b6002546060906000906001600160a01b031686868381610e1157634e487b7160e01b600052603260045260246000fd5b9050602002016020810190610e269190612220565b6001600160a01b03161415610eae576003546001600160a01b03168686610e4e600182612680565b818110610e6b57634e487b7160e01b600052603260045260246000fd5b9050602002016020810190610e809190612220565b6001600160a01b031614610ea65760405162461bcd60e51b81526004016106d89061254b565b506000610f98565b6003546001600160a01b03168686600081610ed957634e487b7160e01b600052603260045260246000fd5b9050602002016020810190610eee9190612220565b6001600160a01b03161415610f80576002546001600160a01b03168686610f16600182612680565b818110610f3357634e487b7160e01b600052603260045260246000fd5b9050602002016020810190610f489190612220565b6001600160a01b031614610f6e5760405162461bcd60e51b81526004016106d89061254b565b610f79600186612680565b9050610f98565b60405162461bcd60e51b81526004016106d89061254b565b610fa3610a4b610d3d565b158015610fb85750600b54610fb6610d3d565b105b1561103257610fc8610a85610d3d565b6110325760405162461bcd60e51b815260206004820152603560248201527f5b73776170546f6b656e73466f724578616374546f6b656e735d20556e73756360448201527431b2b9b9b33ab61039b2ba1037b832b930ba34b7b760591b60648201526084016106d8565b6001546040516307c0329d60e21b815261110991339130916001600160a01b031690631f00ca749061106c908e908d908d906004016125c8565b60006040518083038186803b15801561108457600080fd5b505afa158015611098573d6000803e3d6000fd5b505050506040513d6000823e601f3d908101601f191682016040526110c09190810190612263565b6000815181106110e057634e487b7160e01b600052603260045260246000fd5b602002602001015189896000818110610b2b57634e487b7160e01b600052603260045260246000fd5b600154611139906001600160a01b0316888888600081610b8157634e487b7160e01b600052603260045260246000fd5b8061120457600154604051634401edf760e11b81526001600160a01b0390911690638803dbee90611178908b908b908b908b908b908b906004016125eb565b600060405180830381600087803b15801561119257600080fd5b505af11580156111a6573d6000803e3d6000fd5b505050506040513d6000823e601f3d908101601f191682016040526111ce9190810190612263565b9150600b54600d54146111ff576111ff82600081518110610d2457634e487b7160e01b600052603260045260246000fd5b6112aa565b600b54600d54146112185761121888611beb565b600154604051634401edf760e11b81526001600160a01b0390911690638803dbee90611252908b908b908b908b908b908b906004016125eb565b600060405180830381600087803b15801561126c57600080fd5b505af1158015611280573d6000803e3d6000fd5b505050506040513d6000823e601f3d908101601f191682016040526112a89190810190612263565b505b600154610d31906001600160a01b03166000888882816112da57634e487b7160e01b600052603260045260246000fd5b90506020020160208101906112ef9190612220565b6001600160a01b03169190611ced565b3360009081526009602052604081208190670de0b6b3a7640000906113249085611a59565b15611498573360009081526006602090815260408083208784528252808320546007909252909120546113619190670de0b6b3a764000090611683565b90506000600d548510156113845750600084815260086020526040902054611477565b600d5485141561147757600061139b600d54611e11565b90507f00000000000000000000000000000000000000000000000000000000000000008111156113ec57507f0000000000000000000000000000000000000000000000000000000000000000611444565b806113f957506000611444565b7f000000000000000000000000000000000000000000000000000000000000000081101561144457507f00000000000000000000000000000000000000000000000000000000000000005b611473600d54600b546114579190612680565b600a546114649190612641565b82670de0b6b3a7640000611683565b9150505b61148a8282670de0b6b3a7640000611683565b6114949084612629565b9250505b5090505b919050565b6000546001600160a01b031633146114cb5760405162461bcd60e51b81526004016106d890612593565b80600a5410156115305760405162461bcd60e51b815260206004820152602a60248201527f5b7769746864726177526577617264546f6b656e735d204e6f7420656e6f7567604482015269682062616c616e63652160b01b60648201526084016106d8565b80600a60008282546115429190612680565b90915550506004546107f3906001600160a01b03163383611a7d565b60015460405163d06ca61f60e01b81526060916001600160a01b03169063d06ca61f9061082b908790879087906004016125c8565b600061159d610d3d565b600d546115ab906001612629565b111580156115bd5750600b54600d5414155b1580610d77575050600b54600d541490565b6000546001600160a01b031633146115f95760405162461bcd60e51b81526004016106d890612593565b6001600160a01b03811661165e5760405162461bcd60e51b815260206004820152602660248201527f4f776e61626c653a206e6577206f776e657220697320746865207a65726f206160448201526564647265737360d01b60648201526084016106d8565b6107f381611c9d565b6000611671825490565b92915050565b60006108828383611e3f565b600080821161169157600080fd5b60008060001985870985870292508281108382030391505080600014156116bd57508290049050610882565b8381106116c957600080fd5b60008486880980840393811190920391905060006116e986196001612629565b861695869004959384900493600081900304600101905061170a8184612661565b90931792600061171b876003612661565b600218905061172a8188612661565b611735906002612680565b61173f9082612661565b905061174b8188612661565b611756906002612680565b6117609082612661565b905061176c8188612661565b611777906002612680565b6117819082612661565b905061178d8188612661565b611798906002612680565b6117a29082612661565b90506117ae8188612661565b6117b9906002612680565b6117c39082612661565b90506117cf8188612661565b6117da906002612680565b6117e49082612661565b90506117f08186612661565b9998505050505050505050565b6000611807610d3d565b90506000600d54600c5461181b9190612629565b611826906001612629565b905081600d5460016118389190612629565b111561185457634e487b7160e01b600052600160045260246000fd5b600d54600090815260076020526040902054611871908290612641565b600d5460009081526005602052604090205461189890611892600185612680565b84611683565b6118a29190612629565b60056000600d5460016118b59190612629565b81526020019081526020016000208190555060006118d4600d54611e11565b90507f000000000000000000000000000000000000000000000000000000000000000081111561192557507f000000000000000000000000000000000000000000000000000000000000000061197d565b806119325750600061197d565b7f000000000000000000000000000000000000000000000000000000000000000081101561197d57507f00000000000000000000000000000000000000000000000000000000000000005b6001600b5461198c9190612680565b600d541480156119a35750670de0b6b3a764000081115b156119c257600a54600d546000908152600860205260409020556119e8565b6119d5600d54600b546114579190612680565b600d546000908152600860205260409020555b600d54600090815260086020526040902054600a54611a079190612680565b600a819055506001600d6000828254611a209190612629565b9091555050600d548390611a35906001612629565b11158015611a475750600b54600d5414155b15611a5457611a546117fd565b505050565b60008181526001830160205260408120541515610882565b60006108828383611e77565b6040516001600160a01b038316602482015260448101829052611a5490849063a9059cbb60e01b906064015b60408051601f198184030181529190526020810180516001600160e01b03166001600160e01b031990931692909217909152611f94565b6040516001600160a01b0380851660248301528316604482015260648101829052611b189085906323b872dd60e01b90608401611aa9565b50505050565b60006108828383612066565b604051636eb1769f60e11b81523060048201526001600160a01b038381166024830152600091839186169063dd62ed3e9060440160206040518083038186803b158015611b7657600080fd5b505afa158015611b8a573d6000803e3d6000fd5b505050506040513d601f19601f82011682018060405250810190611bae919061235a565b611bb89190612629565b6040516001600160a01b038516602482015260448101829052909150611b1890859063095ea7b360e01b90606401611aa9565b600b54611bf6610d3d565b1015611c68573360009081526006602052604081208291611c15610d3d565b81526020019081526020016000206000828254611c329190612629565b9091555081905060076000611c45610d3d565b81526020019081526020016000206000828254611c629190612629565b90915550505b611c70610d3d565b600d54611c7e906001612629565b11158015611c905750600b54600d5414155b156107f3576107f36117fd565b600080546001600160a01b038381166001600160a01b0319831681178455604051919092169283917f8be0079c531659141344cd1fd0a4f28419497f9722a3daafe3b4186f6b6457e09190a35050565b801580611d765750604051636eb1769f60e11b81523060048201526001600160a01b03838116602483015284169063dd62ed3e9060440160206040518083038186803b158015611d3c57600080fd5b505afa158015611d50573d6000803e3d6000fd5b505050506040513d601f19601f82011682018060405250810190611d74919061235a565b155b611de15760405162461bcd60e51b815260206004820152603660248201527f5361666545524332303a20617070726f76652066726f6d206e6f6e2d7a65726f60448201527520746f206e6f6e2d7a65726f20616c6c6f77616e636560501b60648201526084016106d8565b6040516001600160a01b038316602482015260448101829052611a5490849063095ea7b360e01b90606401611aa9565b60008181526007602090815260408083205460059092528220546116719190670de0b6b3a764000090611683565b6000826000018281548110611e6457634e487b7160e01b600052603260045260246000fd5b9060005260206000200154905092915050565b60008181526001830160205260408120548015611f8a576000611e9b600183612680565b8554909150600090611eaf90600190612680565b9050818114611f30576000866000018281548110611edd57634e487b7160e01b600052603260045260246000fd5b9060005260206000200154905080876000018481548110611f0e57634e487b7160e01b600052603260045260246000fd5b6000918252602080832090910192909255918252600188019052604090208390555b8554869080611f4f57634e487b7160e01b600052603160045260246000fd5b600190038181906000526020600020016000905590558560010160008681526020019081526020016000206000905560019350505050611671565b6000915050611671565b6000611fe9826040518060400160405280602081526020017f5361666545524332303a206c6f772d6c6576656c2063616c6c206661696c6564815250856001600160a01b03166120b59092919063ffffffff16565b805190915015611a5457808060200190518101906120079190612322565b611a545760405162461bcd60e51b815260206004820152602a60248201527f5361666545524332303a204552433230206f7065726174696f6e20646964206e6044820152691bdd081cdd58d8d9595960b21b60648201526084016106d8565b60008181526001830160205260408120546120ad57508154600181810184556000848152602080822090930184905584548482528286019093526040902091909155611671565b506000611671565b606061087f848460008585843b61210e5760405162461bcd60e51b815260206004820152601d60248201527f416464726573733a2063616c6c20746f206e6f6e2d636f6e747261637400000060448201526064016106d8565b600080866001600160a01b0316858760405161212a9190612470565b60006040518083038185875af1925050503d8060008114612167576040519150601f19603f3d011682016040523d82523d6000602084013e61216c565b606091505b509150915061217c828286612187565b979650505050505050565b60608315612196575081610882565b8251156121a65782518084602001fd5b8160405162461bcd60e51b81526004016106d891906124d0565b80356001600160a01b038116811461149c57600080fd5b60008083601f8401126121e8578081fd5b50813567ffffffffffffffff8111156121ff578182fd5b602083019150836020808302850101111561221957600080fd5b9250929050565b600060208284031215612231578081fd5b610882826121c0565b6000806040838503121561224c578081fd5b612255836121c0565b946020939093013593505050565b60006020808385031215612275578182fd5b825167ffffffffffffffff8082111561228c578384fd5b818501915085601f83011261229f578384fd5b8151818111156122b1576122b16126f4565b838102604051601f19603f830116810181811085821117156122d5576122d56126f4565b604052828152858101935084860182860187018a10156122f3578788fd5b8795505b838610156123155780518552600195909501949386019386016122f7565b5098975050505050505050565b600060208284031215612333578081fd5b81518015158114610882578182fd5b600060208284031215612353578081fd5b5035919050565b60006020828403121561236b578081fd5b5051919050565b600080600060408486031215612386578081fd5b83359250602084013567ffffffffffffffff8111156123a3578182fd5b6123af868287016121d7565b9497909650939450505050565b60008060008060008060a087890312156123d4578182fd5b8635955060208701359450604087013567ffffffffffffffff8111156123f8578283fd5b61240489828a016121d7565b90955093506124179050606088016121c0565b9150608087013590509295509295509295565b60008284526020808501945082825b85811015612465576001600160a01b03612452836121c0565b1687529582019590820190600101612439565b509495945050505050565b60008251612482818460208701612697565b9190910192915050565b6020808252825182820181905260009190848201906040850190845b818110156124c4578351835292840192918401916001016124a8565b50909695505050505050565b60006020825282518060208401526124ef816040850160208701612697565b601f01601f19169190910160400192915050565b60208082526028908201527f5b737761704578616374546f6b656e73466f72546f6b656e735d20496e76616c604082015267696420506174682160c01b606082015260800190565b60208082526028908201527f5b73776170546f6b656e73466f724578616374546f6b656e735d20496e76616c604082015267696420506174682160c01b606082015260800190565b6020808252818101527f4f776e61626c653a2063616c6c6572206973206e6f7420746865206f776e6572604082015260600190565b6000848252604060208301526125e260408301848661242a565b95945050505050565b600087825286602083015260a0604083015261260b60a08301868861242a565b6001600160a01b039490941660608301525060800152949350505050565b6000821982111561263c5761263c6126de565b500190565b60008261265c57634e487b7160e01b81526012600452602481fd5b500490565b600081600019048311821515161561267b5761267b6126de565b500290565b600082821015612692576126926126de565b500390565b60005b838110156126b257818101518382015260200161269a565b83811115611b185750506000910152565b60006000198214156126d7576126d76126de565b5060010190565b634e487b7160e01b600052601160045260246000fd5b634e487b7160e01b600052604160045260246000fdfea2646970667358221220fcdaf8d1c04c3c24e6114ca05518389c28aa9c7cf82a34407c0814217ed8993864736f6c63430008020033",
  "linkReferences": {},
  "deployedLinkReferences": {}
}